{
	"contracts/PlaceholderAdsMarketplace.sol": {
		"PlaceholderAdsMarketplace": {
			"abi": [
				{
					"inputs": [
						{
							"internalType": "address",
							"name": "_biddingToken",
							"type": "address"
						}
					],
					"stateMutability": "nonpayable",
					"type": "constructor"
				},
				{
					"anonymous": false,
					"inputs": [
						{
							"indexed": false,
							"internalType": "address",
							"name": "winner",
							"type": "address"
						},
						{
							"indexed": false,
							"internalType": "uint256",
							"name": "winningBid",
							"type": "uint256"
						},
						{
							"indexed": false,
							"internalType": "uint256",
							"name": "tokenId",
							"type": "uint256"
						}
					],
					"name": "AuctionEnded",
					"type": "event"
				},
				{
					"anonymous": false,
					"inputs": [
						{
							"indexed": false,
							"internalType": "uint256",
							"name": "startPrice",
							"type": "uint256"
						},
						{
							"indexed": false,
							"internalType": "uint256",
							"name": "endPrice",
							"type": "uint256"
						},
						{
							"indexed": false,
							"internalType": "uint256",
							"name": "startTime",
							"type": "uint256"
						},
						{
							"indexed": false,
							"internalType": "uint256",
							"name": "duration",
							"type": "uint256"
						}
					],
					"name": "AuctionStarted",
					"type": "event"
				},
				{
					"anonymous": false,
					"inputs": [
						{
							"indexed": false,
							"internalType": "address",
							"name": "bidder",
							"type": "address"
						},
						{
							"indexed": false,
							"internalType": "uint256",
							"name": "bidAmount",
							"type": "uint256"
						},
						{
							"indexed": false,
							"internalType": "uint256",
							"name": "tokenId",
							"type": "uint256"
						}
					],
					"name": "BidPlaced",
					"type": "event"
				},
				{
					"anonymous": false,
					"inputs": [
						{
							"indexed": false,
							"internalType": "uint256",
							"name": "tokenId",
							"type": "uint256"
						},
						{
							"indexed": false,
							"internalType": "uint256",
							"name": "amount",
							"type": "uint256"
						}
					],
					"name": "PaymentClaimed",
					"type": "event"
				},
				{
					"anonymous": false,
					"inputs": [
						{
							"indexed": false,
							"internalType": "uint256",
							"name": "tokenId",
							"type": "uint256"
						},
						{
							"indexed": false,
							"internalType": "bytes32",
							"name": "proofHash",
							"type": "bytes32"
						}
					],
					"name": "ProofSubmitted",
					"type": "event"
				},
				{
					"inputs": [],
					"name": "MINIMUM_BID_PERIOD",
					"outputs": [
						{
							"internalType": "uint256",
							"name": "",
							"type": "uint256"
						}
					],
					"stateMutability": "view",
					"type": "function"
				},
				{
					"inputs": [],
					"name": "biddingToken",
					"outputs": [
						{
							"internalType": "contract IERC20",
							"name": "",
							"type": "address"
						}
					],
					"stateMutability": "view",
					"type": "function"
				},
				{
					"inputs": [
						{
							"internalType": "address",
							"name": "_newOperator",
							"type": "address"
						}
					],
					"name": "changeOperator",
					"outputs": [],
					"stateMutability": "nonpayable",
					"type": "function"
				},
				{
					"inputs": [
						{
							"internalType": "uint256",
							"name": "_tokenId",
							"type": "uint256"
						}
					],
					"name": "claimPayment",
					"outputs": [],
					"stateMutability": "nonpayable",
					"type": "function"
				},
				{
					"inputs": [],
					"name": "currentAuction",
					"outputs": [
						{
							"internalType": "uint256",
							"name": "startPrice",
							"type": "uint256"
						},
						{
							"internalType": "uint256",
							"name": "endPrice",
							"type": "uint256"
						},
						{
							"internalType": "uint256",
							"name": "startTime",
							"type": "uint256"
						},
						{
							"internalType": "uint256",
							"name": "duration",
							"type": "uint256"
						},
						{
							"internalType": "address",
							"name": "winner",
							"type": "address"
						},
						{
							"internalType": "uint256",
							"name": "winningBid",
							"type": "uint256"
						},
						{
							"internalType": "uint256",
							"name": "winningTokenId",
							"type": "uint256"
						},
						{
							"internalType": "uint256",
							"name": "lastBidTime",
							"type": "uint256"
						},
						{
							"internalType": "bool",
							"name": "proofSubmitted",
							"type": "bool"
						},
						{
							"internalType": "bool",
							"name": "claimed",
							"type": "bool"
						},
						{
							"internalType": "bool",
							"name": "ended",
							"type": "bool"
						}
					],
					"stateMutability": "view",
					"type": "function"
				},
				{
					"inputs": [],
					"name": "getAuctionInfo",
					"outputs": [
						{
							"internalType": "uint256",
							"name": "startPrice",
							"type": "uint256"
						},
						{
							"internalType": "uint256",
							"name": "endPrice",
							"type": "uint256"
						},
						{
							"internalType": "uint256",
							"name": "currentPrice",
							"type": "uint256"
						},
						{
							"internalType": "uint256",
							"name": "startTime",
							"type": "uint256"
						},
						{
							"internalType": "uint256",
							"name": "duration",
							"type": "uint256"
						},
						{
							"internalType": "address",
							"name": "winner",
							"type": "address"
						},
						{
							"internalType": "uint256",
							"name": "winningBid",
							"type": "uint256"
						},
						{
							"internalType": "uint256",
							"name": "winningTokenId",
							"type": "uint256"
						},
						{
							"internalType": "uint256",
							"name": "lastBidTime",
							"type": "uint256"
						},
						{
							"internalType": "bool",
							"name": "proofSubmitted",
							"type": "bool"
						},
						{
							"internalType": "bool",
							"name": "claimed",
							"type": "bool"
						},
						{
							"internalType": "bool",
							"name": "ended",
							"type": "bool"
						}
					],
					"stateMutability": "view",
					"type": "function"
				},
				{
					"inputs": [],
					"name": "getCurrentPrice",
					"outputs": [
						{
							"internalType": "uint256",
							"name": "",
							"type": "uint256"
						}
					],
					"stateMutability": "view",
					"type": "function"
				},
				{
					"inputs": [],
					"name": "operator",
					"outputs": [
						{
							"internalType": "address",
							"name": "",
							"type": "address"
						}
					],
					"stateMutability": "view",
					"type": "function"
				},
				{
					"inputs": [
						{
							"internalType": "uint256",
							"name": "_tokenId",
							"type": "uint256"
						},
						{
							"internalType": "uint256",
							"name": "_bidAmount",
							"type": "uint256"
						}
					],
					"name": "placeBid",
					"outputs": [],
					"stateMutability": "nonpayable",
					"type": "function"
				},
				{
					"inputs": [
						{
							"internalType": "uint256",
							"name": "_startPrice",
							"type": "uint256"
						},
						{
							"internalType": "uint256",
							"name": "_endPrice",
							"type": "uint256"
						}
					],
					"name": "startAuction",
					"outputs": [],
					"stateMutability": "nonpayable",
					"type": "function"
				},
				{
					"inputs": [
						{
							"internalType": "uint256",
							"name": "_tokenId",
							"type": "uint256"
						},
						{
							"internalType": "bytes32",
							"name": "_proofHash",
							"type": "bytes32"
						}
					],
					"name": "submitProof",
					"outputs": [],
					"stateMutability": "nonpayable",
					"type": "function"
				}
			],
			"devdoc": {
				"kind": "dev",
				"methods": {},
				"version": 1
			},
			"evm": {
				"assembly": "    /* \"contracts/PlaceholderAdsMarketplace.sol\":179:8773  contract PlaceholderAdsMarketplace is ReentrancyGuard {... */\n  mstore(0x40, 0x80)\n    /* \"contracts/PlaceholderAdsMarketplace.sol\":2042:2232  constructor(address _biddingToken) {... */\n  callvalue\n  dup1\n  iszero\n  tag_1\n  jumpi\n  revert(0x00, 0x00)\ntag_1:\n  pop\n  mload(0x40)\n  sub(codesize, bytecodeSize)\n  dup1\n  bytecodeSize\n  dup4\n  codecopy\n  dup2\n  dup2\n  add\n  0x40\n  mstore\n  dup2\n  add\n  swap1\n  tag_2\n  swap2\n  swap1\n  tag_3\n  jump\t// in\ntag_2:\n    /* \"@openzeppelin/contracts/security/ReentrancyGuard.sol\":1716:1717  1 */\n  0x01\n    /* \"@openzeppelin/contracts/security/ReentrancyGuard.sol\":1821:1828  _status */\n  0x00\n    /* \"@openzeppelin/contracts/security/ReentrancyGuard.sol\":1821:1843  _status = _NOT_ENTERED */\n  dup2\n  swap1\n  sstore\n  pop\n    /* \"contracts/PlaceholderAdsMarketplace.sol\":2120:2121  0 */\n  0x00\n    /* \"contracts/PlaceholderAdsMarketplace.sol\":2095:2122  _biddingToken != address(0) */\n  0xffffffffffffffffffffffffffffffffffffffff\n  and\n    /* \"contracts/PlaceholderAdsMarketplace.sol\":2095:2108  _biddingToken */\n  dup2\n    /* \"contracts/PlaceholderAdsMarketplace.sol\":2095:2122  _biddingToken != address(0) */\n  0xffffffffffffffffffffffffffffffffffffffff\n  and\n  sub\n    /* \"contracts/PlaceholderAdsMarketplace.sol\":2087:2148  require(_biddingToken != address(0), \"Invalid token address\") */\n  tag_8\n  jumpi\n  mload(0x40)\n  0x08c379a000000000000000000000000000000000000000000000000000000000\n  dup2\n  mstore\n  0x04\n  add\n  tag_9\n  swap1\n  tag_10\n  jump\t// in\ntag_9:\n  mload(0x40)\n  dup1\n  swap2\n  sub\n  swap1\n  revert\ntag_8:\n    /* \"contracts/PlaceholderAdsMarketplace.sol\":2169:2179  msg.sender */\n  caller\n    /* \"contracts/PlaceholderAdsMarketplace.sol\":2158:2166  operator */\n  0x01\n  0x00\n    /* \"contracts/PlaceholderAdsMarketplace.sol\":2158:2179  operator = msg.sender */\n  0x0100\n  exp\n  dup2\n  sload\n  dup2\n  0xffffffffffffffffffffffffffffffffffffffff\n  mul\n  not\n  and\n  swap1\n  dup4\n  0xffffffffffffffffffffffffffffffffffffffff\n  and\n  mul\n  or\n  swap1\n  sstore\n  pop\n    /* \"contracts/PlaceholderAdsMarketplace.sol\":2211:2224  _biddingToken */\n  dup1\n    /* \"contracts/PlaceholderAdsMarketplace.sol\":2189:2201  biddingToken */\n  0x02\n  0x00\n    /* \"contracts/PlaceholderAdsMarketplace.sol\":2189:2225  biddingToken = IERC20(_biddingToken) */\n  0x0100\n  exp\n  dup2\n  sload\n  dup2\n  0xffffffffffffffffffffffffffffffffffffffff\n  mul\n  not\n  and\n  swap1\n  dup4\n  0xffffffffffffffffffffffffffffffffffffffff\n  and\n  mul\n  or\n  swap1\n  sstore\n  pop\n    /* \"contracts/PlaceholderAdsMarketplace.sol\":2042:2232  constructor(address _biddingToken) {... */\n  pop\n    /* \"contracts/PlaceholderAdsMarketplace.sol\":179:8773  contract PlaceholderAdsMarketplace is ReentrancyGuard {... */\n  jump(tag_11)\n    /* \"#utility.yul\":88:205   */\ntag_13:\n    /* \"#utility.yul\":197:198   */\n  0x00\n    /* \"#utility.yul\":194:195   */\n  0x00\n    /* \"#utility.yul\":187:199   */\n  revert\n    /* \"#utility.yul\":334:460   */\ntag_15:\n    /* \"#utility.yul\":371:378   */\n  0x00\n    /* \"#utility.yul\":411:453   */\n  0xffffffffffffffffffffffffffffffffffffffff\n    /* \"#utility.yul\":404:409   */\n  dup3\n    /* \"#utility.yul\":400:454   */\n  and\n    /* \"#utility.yul\":389:454   */\n  swap1\n  pop\n    /* \"#utility.yul\":334:460   */\n  swap2\n  swap1\n  pop\n  jump\t// out\n    /* \"#utility.yul\":466:562   */\ntag_16:\n    /* \"#utility.yul\":503:510   */\n  0x00\n    /* \"#utility.yul\":532:556   */\n  tag_28\n    /* \"#utility.yul\":550:555   */\n  dup3\n    /* \"#utility.yul\":532:556   */\n  tag_15\n  jump\t// in\ntag_28:\n    /* \"#utility.yul\":521:556   */\n  swap1\n  pop\n    /* \"#utility.yul\":466:562   */\n  swap2\n  swap1\n  pop\n  jump\t// out\n    /* \"#utility.yul\":568:690   */\ntag_17:\n    /* \"#utility.yul\":641:665   */\n  tag_30\n    /* \"#utility.yul\":659:664   */\n  dup2\n    /* \"#utility.yul\":641:665   */\n  tag_16\n  jump\t// in\ntag_30:\n    /* \"#utility.yul\":634:639   */\n  dup2\n    /* \"#utility.yul\":631:666   */\n  eq\n    /* \"#utility.yul\":621:684   */\n  tag_31\n  jumpi\n    /* \"#utility.yul\":680:681   */\n  0x00\n    /* \"#utility.yul\":677:678   */\n  0x00\n    /* \"#utility.yul\":670:682   */\n  revert\n    /* \"#utility.yul\":621:684   */\ntag_31:\n    /* \"#utility.yul\":568:690   */\n  pop\n  jump\t// out\n    /* \"#utility.yul\":696:839   */\ntag_18:\n    /* \"#utility.yul\":753:758   */\n  0x00\n    /* \"#utility.yul\":784:790   */\n  dup2\n    /* \"#utility.yul\":778:791   */\n  mload\n    /* \"#utility.yul\":769:791   */\n  swap1\n  pop\n    /* \"#utility.yul\":800:833   */\n  tag_33\n    /* \"#utility.yul\":827:832   */\n  dup2\n    /* \"#utility.yul\":800:833   */\n  tag_17\n  jump\t// in\ntag_33:\n    /* \"#utility.yul\":696:839   */\n  swap3\n  swap2\n  pop\n  pop\n  jump\t// out\n    /* \"#utility.yul\":845:1196   */\ntag_3:\n    /* \"#utility.yul\":915:921   */\n  0x00\n    /* \"#utility.yul\":964:966   */\n  0x20\n    /* \"#utility.yul\":952:961   */\n  dup3\n    /* \"#utility.yul\":943:950   */\n  dup5\n    /* \"#utility.yul\":939:962   */\n  sub\n    /* \"#utility.yul\":935:967   */\n  slt\n    /* \"#utility.yul\":932:1051   */\n  iszero\n  tag_35\n  jumpi\n    /* \"#utility.yul\":970:1049   */\n  tag_36\n  tag_13\n  jump\t// in\ntag_36:\n    /* \"#utility.yul\":932:1051   */\ntag_35:\n    /* \"#utility.yul\":1090:1091   */\n  0x00\n    /* \"#utility.yul\":1115:1179   */\n  tag_37\n    /* \"#utility.yul\":1171:1178   */\n  dup5\n    /* \"#utility.yul\":1162:1168   */\n  dup3\n    /* \"#utility.yul\":1151:1160   */\n  dup6\n    /* \"#utility.yul\":1147:1169   */\n  add\n    /* \"#utility.yul\":1115:1179   */\n  tag_18\n  jump\t// in\ntag_37:\n    /* \"#utility.yul\":1105:1179   */\n  swap2\n  pop\n    /* \"#utility.yul\":1061:1189   */\n  pop\n    /* \"#utility.yul\":845:1196   */\n  swap3\n  swap2\n  pop\n  pop\n  jump\t// out\n    /* \"#utility.yul\":1202:1371   */\ntag_19:\n    /* \"#utility.yul\":1286:1297   */\n  0x00\n    /* \"#utility.yul\":1320:1326   */\n  dup3\n    /* \"#utility.yul\":1315:1318   */\n  dup3\n    /* \"#utility.yul\":1308:1327   */\n  mstore\n    /* \"#utility.yul\":1360:1364   */\n  0x20\n    /* \"#utility.yul\":1355:1358   */\n  dup3\n    /* \"#utility.yul\":1351:1365   */\n  add\n    /* \"#utility.yul\":1336:1365   */\n  swap1\n  pop\n    /* \"#utility.yul\":1202:1371   */\n  swap3\n  swap2\n  pop\n  pop\n  jump\t// out\n    /* \"#utility.yul\":1377:1548   */\ntag_20:\n    /* \"#utility.yul\":1517:1540   */\n  0x496e76616c696420746f6b656e20616464726573730000000000000000000000\n    /* \"#utility.yul\":1513:1514   */\n  0x00\n    /* \"#utility.yul\":1505:1511   */\n  dup3\n    /* \"#utility.yul\":1501:1515   */\n  add\n    /* \"#utility.yul\":1494:1541   */\n  mstore\n    /* \"#utility.yul\":1377:1548   */\n  pop\n  jump\t// out\n    /* \"#utility.yul\":1554:1920   */\ntag_21:\n    /* \"#utility.yul\":1696:1699   */\n  0x00\n    /* \"#utility.yul\":1717:1784   */\n  tag_41\n    /* \"#utility.yul\":1781:1783   */\n  0x15\n    /* \"#utility.yul\":1776:1779   */\n  dup4\n    /* \"#utility.yul\":1717:1784   */\n  tag_19\n  jump\t// in\ntag_41:\n    /* \"#utility.yul\":1710:1784   */\n  swap2\n  pop\n    /* \"#utility.yul\":1793:1886   */\n  tag_42\n    /* \"#utility.yul\":1882:1885   */\n  dup3\n    /* \"#utility.yul\":1793:1886   */\n  tag_20\n  jump\t// in\ntag_42:\n    /* \"#utility.yul\":1911:1913   */\n  0x20\n    /* \"#utility.yul\":1906:1909   */\n  dup3\n    /* \"#utility.yul\":1902:1914   */\n  add\n    /* \"#utility.yul\":1895:1914   */\n  swap1\n  pop\n    /* \"#utility.yul\":1554:1920   */\n  swap2\n  swap1\n  pop\n  jump\t// out\n    /* \"#utility.yul\":1926:2345   */\ntag_10:\n    /* \"#utility.yul\":2092:2096   */\n  0x00\n    /* \"#utility.yul\":2130:2132   */\n  0x20\n    /* \"#utility.yul\":2119:2128   */\n  dup3\n    /* \"#utility.yul\":2115:2133   */\n  add\n    /* \"#utility.yul\":2107:2133   */\n  swap1\n  pop\n    /* \"#utility.yul\":2179:2188   */\n  dup2\n    /* \"#utility.yul\":2173:2177   */\n  dup2\n    /* \"#utility.yul\":2169:2189   */\n  sub\n    /* \"#utility.yul\":2165:2166   */\n  0x00\n    /* \"#utility.yul\":2154:2163   */\n  dup4\n    /* \"#utility.yul\":2150:2167   */\n  add\n    /* \"#utility.yul\":2143:2190   */\n  mstore\n    /* \"#utility.yul\":2207:2338   */\n  tag_44\n    /* \"#utility.yul\":2333:2337   */\n  dup2\n    /* \"#utility.yul\":2207:2338   */\n  tag_21\n  jump\t// in\ntag_44:\n    /* \"#utility.yul\":2199:2338   */\n  swap1\n  pop\n    /* \"#utility.yul\":1926:2345   */\n  swap2\n  swap1\n  pop\n  jump\t// out\n    /* \"contracts/PlaceholderAdsMarketplace.sol\":179:8773  contract PlaceholderAdsMarketplace is ReentrancyGuard {... */\ntag_11:\n  dataSize(sub_0)\n  dup1\n  dataOffset(sub_0)\n  0x00\n  codecopy\n  0x00\n  return\nstop\n\nsub_0: assembly {\n        /* \"contracts/PlaceholderAdsMarketplace.sol\":179:8773  contract PlaceholderAdsMarketplace is ReentrancyGuard {... */\n      mstore(0x40, 0x80)\n      callvalue\n      dup1\n      iszero\n      tag_1\n      jumpi\n      revert(0x00, 0x00)\n    tag_1:\n      pop\n      jumpi(tag_2, lt(calldatasize, 0x04))\n      shr(0xe0, calldataload(0x00))\n      dup1\n      0x570ca735\n      gt\n      tag_14\n      jumpi\n      dup1\n      0x570ca735\n      eq\n      tag_8\n      jumpi\n      dup1\n      0x57c90de5\n      eq\n      tag_9\n      jumpi\n      dup1\n      0x639d7566\n      eq\n      tag_10\n      jumpi\n      dup1\n      0xc63fdcc7\n      eq\n      tag_11\n      jumpi\n      dup1\n      0xd94a3505\n      eq\n      tag_12\n      jumpi\n      dup1\n      0xeb91d37e\n      eq\n      tag_13\n      jumpi\n      jump(tag_2)\n    tag_14:\n      dup1\n      0x06394c9b\n      eq\n      tag_3\n      jumpi\n      dup1\n      0x2f19c56a\n      eq\n      tag_4\n      jumpi\n      dup1\n      0x37a35344\n      eq\n      tag_5\n      jumpi\n      dup1\n      0x496a698d\n      eq\n      tag_6\n      jumpi\n      dup1\n      0x4fee13fc\n      eq\n      tag_7\n      jumpi\n    tag_2:\n      revert(0x00, 0x00)\n        /* \"contracts/PlaceholderAdsMarketplace.sol\":8598:8771  function changeOperator(address _newOperator) external onlyOperator {... */\n    tag_3:\n      tag_15\n      0x04\n      dup1\n      calldatasize\n      sub\n      dup2\n      add\n      swap1\n      tag_16\n      swap2\n      swap1\n      tag_17\n      jump\t// in\n    tag_16:\n      tag_18\n      jump\t// in\n    tag_15:\n      stop\n        /* \"contracts/PlaceholderAdsMarketplace.sol\":6522:6944  function submitProof(uint256 _tokenId, bytes32 _proofHash)... */\n    tag_4:\n      tag_19\n      0x04\n      dup1\n      calldatasize\n      sub\n      dup2\n      add\n      swap1\n      tag_20\n      swap2\n      swap1\n      tag_21\n      jump\t// in\n    tag_20:\n      tag_22\n      jump\t// in\n    tag_19:\n      stop\n        /* \"contracts/PlaceholderAdsMarketplace.sol\":960:1015  uint256 public constant MINIMUM_BID_PERIOD = 20 seconds */\n    tag_5:\n      tag_23\n      tag_24\n      jump\t// in\n    tag_23:\n      mload(0x40)\n      tag_25\n      swap2\n      swap1\n      tag_26\n      jump\t// in\n    tag_25:\n      mload(0x40)\n      dup1\n      swap2\n      sub\n      swap1\n      return\n        /* \"contracts/PlaceholderAdsMarketplace.sol\":1340:1369  Auction public currentAuction */\n    tag_6:\n      tag_27\n      tag_28\n      jump\t// in\n    tag_27:\n      mload(0x40)\n      tag_29\n      swap12\n      swap11\n      swap10\n      swap9\n      swap8\n      swap7\n      swap6\n      swap5\n      swap4\n      swap3\n      swap2\n      swap1\n      tag_30\n      jump\t// in\n    tag_29:\n      mload(0x40)\n      dup1\n      swap2\n      sub\n      swap1\n      return\n        /* \"contracts/PlaceholderAdsMarketplace.sol\":2351:3197  function startAuction(uint256 _startPrice, uint256 _endPrice)... */\n    tag_7:\n      tag_31\n      0x04\n      dup1\n      calldatasize\n      sub\n      dup2\n      add\n      swap1\n      tag_32\n      swap2\n      swap1\n      tag_33\n      jump\t// in\n    tag_32:\n      tag_34\n      jump\t// in\n    tag_31:\n      stop\n        /* \"contracts/PlaceholderAdsMarketplace.sol\":863:886  address public operator */\n    tag_8:\n      tag_35\n      tag_36\n      jump\t// in\n    tag_35:\n      mload(0x40)\n      tag_37\n      swap2\n      swap1\n      tag_38\n      jump\t// in\n    tag_37:\n      mload(0x40)\n      dup1\n      swap2\n      sub\n      swap1\n      return\n        /* \"contracts/PlaceholderAdsMarketplace.sol\":4076:6516  function placeBid(uint256 _tokenId, uint256 _bidAmount)... */\n    tag_9:\n      tag_39\n      0x04\n      dup1\n      calldatasize\n      sub\n      dup2\n      add\n      swap1\n      tag_40\n      swap2\n      swap1\n      tag_33\n      jump\t// in\n    tag_40:\n      tag_41\n      jump\t// in\n    tag_39:\n      stop\n        /* \"contracts/PlaceholderAdsMarketplace.sol\":892:918  IERC20 public biddingToken */\n    tag_10:\n      tag_42\n      tag_43\n      jump\t// in\n    tag_42:\n      mload(0x40)\n      tag_44\n      swap2\n      swap1\n      tag_45\n      jump\t// in\n    tag_44:\n      mload(0x40)\n      dup1\n      swap2\n      sub\n      swap1\n      return\n        /* \"contracts/PlaceholderAdsMarketplace.sol\":6991:7577  function claimPayment(uint256 _tokenId) external onlyOperator {... */\n    tag_11:\n      tag_46\n      0x04\n      dup1\n      calldatasize\n      sub\n      dup2\n      add\n      swap1\n      tag_47\n      swap2\n      swap1\n      tag_48\n      jump\t// in\n    tag_47:\n      tag_49\n      jump\t// in\n    tag_46:\n      stop\n        /* \"contracts/PlaceholderAdsMarketplace.sol\":7706:8592  function getAuctionInfo()... */\n    tag_12:\n      tag_50\n      tag_51\n      jump\t// in\n    tag_50:\n      mload(0x40)\n      tag_52\n      swap13\n      swap12\n      swap11\n      swap10\n      swap9\n      swap8\n      swap7\n      swap6\n      swap5\n      swap4\n      swap3\n      swap2\n      swap1\n      tag_53\n      jump\t// in\n    tag_52:\n      mload(0x40)\n      dup1\n      swap2\n      sub\n      swap1\n      return\n        /* \"contracts/PlaceholderAdsMarketplace.sol\":3203:4070  function getCurrentPrice() public view returns (uint256) {... */\n    tag_13:\n      tag_54\n      tag_55\n      jump\t// in\n    tag_54:\n      mload(0x40)\n      tag_56\n      swap2\n      swap1\n      tag_26\n      jump\t// in\n    tag_56:\n      mload(0x40)\n      dup1\n      swap2\n      sub\n      swap1\n      return\n        /* \"contracts/PlaceholderAdsMarketplace.sol\":8598:8771  function changeOperator(address _newOperator) external onlyOperator {... */\n    tag_18:\n        /* \"contracts/PlaceholderAdsMarketplace.sol\":1541:1549  operator */\n      0x01\n      0x00\n      swap1\n      sload\n      swap1\n      0x0100\n      exp\n      swap1\n      div\n      0xffffffffffffffffffffffffffffffffffffffff\n      and\n        /* \"contracts/PlaceholderAdsMarketplace.sol\":1527:1549  msg.sender == operator */\n      0xffffffffffffffffffffffffffffffffffffffff\n      and\n        /* \"contracts/PlaceholderAdsMarketplace.sol\":1527:1537  msg.sender */\n      caller\n        /* \"contracts/PlaceholderAdsMarketplace.sol\":1527:1549  msg.sender == operator */\n      0xffffffffffffffffffffffffffffffffffffffff\n      and\n      eq\n        /* \"contracts/PlaceholderAdsMarketplace.sol\":1519:1570  require(msg.sender == operator, \"Not the operator\") */\n      tag_58\n      jumpi\n      mload(0x40)\n      0x08c379a000000000000000000000000000000000000000000000000000000000\n      dup2\n      mstore\n      0x04\n      add\n      tag_59\n      swap1\n      tag_60\n      jump\t// in\n    tag_59:\n      mload(0x40)\n      dup1\n      swap2\n      sub\n      swap1\n      revert\n    tag_58:\n        /* \"contracts/PlaceholderAdsMarketplace.sol\":8708:8709  0 */\n      0x00\n        /* \"contracts/PlaceholderAdsMarketplace.sol\":8684:8710  _newOperator != address(0) */\n      0xffffffffffffffffffffffffffffffffffffffff\n      and\n        /* \"contracts/PlaceholderAdsMarketplace.sol\":8684:8696  _newOperator */\n      dup2\n        /* \"contracts/PlaceholderAdsMarketplace.sol\":8684:8710  _newOperator != address(0) */\n      0xffffffffffffffffffffffffffffffffffffffff\n      and\n      sub\n        /* \"contracts/PlaceholderAdsMarketplace.sol\":8676:8731  require(_newOperator != address(0), \"Invalid operator\") */\n      tag_62\n      jumpi\n      mload(0x40)\n      0x08c379a000000000000000000000000000000000000000000000000000000000\n      dup2\n      mstore\n      0x04\n      add\n      tag_63\n      swap1\n      tag_64\n      jump\t// in\n    tag_63:\n      mload(0x40)\n      dup1\n      swap2\n      sub\n      swap1\n      revert\n    tag_62:\n        /* \"contracts/PlaceholderAdsMarketplace.sol\":8752:8764  _newOperator */\n      dup1\n        /* \"contracts/PlaceholderAdsMarketplace.sol\":8741:8749  operator */\n      0x01\n      0x00\n        /* \"contracts/PlaceholderAdsMarketplace.sol\":8741:8764  operator = _newOperator */\n      0x0100\n      exp\n      dup2\n      sload\n      dup2\n      0xffffffffffffffffffffffffffffffffffffffff\n      mul\n      not\n      and\n      swap1\n      dup4\n      0xffffffffffffffffffffffffffffffffffffffff\n      and\n      mul\n      or\n      swap1\n      sstore\n      pop\n        /* \"contracts/PlaceholderAdsMarketplace.sol\":8598:8771  function changeOperator(address _newOperator) external onlyOperator {... */\n      pop\n      jump\t// out\n        /* \"contracts/PlaceholderAdsMarketplace.sol\":6522:6944  function submitProof(uint256 _tokenId, bytes32 _proofHash)... */\n    tag_22:\n        /* \"contracts/PlaceholderAdsMarketplace.sol\":1541:1549  operator */\n      0x01\n      0x00\n      swap1\n      sload\n      swap1\n      0x0100\n      exp\n      swap1\n      div\n      0xffffffffffffffffffffffffffffffffffffffff\n      and\n        /* \"contracts/PlaceholderAdsMarketplace.sol\":1527:1549  msg.sender == operator */\n      0xffffffffffffffffffffffffffffffffffffffff\n      and\n        /* \"contracts/PlaceholderAdsMarketplace.sol\":1527:1537  msg.sender */\n      caller\n        /* \"contracts/PlaceholderAdsMarketplace.sol\":1527:1549  msg.sender == operator */\n      0xffffffffffffffffffffffffffffffffffffffff\n      and\n      eq\n        /* \"contracts/PlaceholderAdsMarketplace.sol\":1519:1570  require(msg.sender == operator, \"Not the operator\") */\n      tag_66\n      jumpi\n      mload(0x40)\n      0x08c379a000000000000000000000000000000000000000000000000000000000\n      dup2\n      mstore\n      0x04\n      add\n      tag_67\n      swap1\n      tag_60\n      jump\t// in\n    tag_67:\n      mload(0x40)\n      dup1\n      swap2\n      sub\n      swap1\n      revert\n    tag_66:\n        /* \"contracts/PlaceholderAdsMarketplace.sol\":6641:6655  currentAuction */\n      0x03\n        /* \"contracts/PlaceholderAdsMarketplace.sol\":6641:6661  currentAuction.ended */\n      0x08\n      add\n      0x02\n      swap1\n      sload\n      swap1\n      0x0100\n      exp\n      swap1\n      div\n      0xff\n      and\n        /* \"contracts/PlaceholderAdsMarketplace.sol\":6633:6683  require(currentAuction.ended, \"Auction not ended\") */\n      tag_69\n      jumpi\n      mload(0x40)\n      0x08c379a000000000000000000000000000000000000000000000000000000000\n      dup2\n      mstore\n      0x04\n      add\n      tag_70\n      swap1\n      tag_71\n      jump\t// in\n    tag_70:\n      mload(0x40)\n      dup1\n      swap2\n      sub\n      swap1\n      revert\n    tag_69:\n        /* \"contracts/PlaceholderAdsMarketplace.sol\":6734:6742  _tokenId */\n      dup2\n        /* \"contracts/PlaceholderAdsMarketplace.sol\":6701:6715  currentAuction */\n      0x03\n        /* \"contracts/PlaceholderAdsMarketplace.sol\":6701:6730  currentAuction.winningTokenId */\n      0x06\n      add\n      sload\n        /* \"contracts/PlaceholderAdsMarketplace.sol\":6701:6742  currentAuction.winningTokenId == _tokenId */\n      eq\n        /* \"contracts/PlaceholderAdsMarketplace.sol\":6693:6763  require(currentAuction.winningTokenId == _tokenId, \"Invalid token ID\") */\n      tag_72\n      jumpi\n      mload(0x40)\n      0x08c379a000000000000000000000000000000000000000000000000000000000\n      dup2\n      mstore\n      0x04\n      add\n      tag_73\n      swap1\n      tag_74\n      jump\t// in\n    tag_73:\n      mload(0x40)\n      dup1\n      swap2\n      sub\n      swap1\n      revert\n    tag_72:\n        /* \"contracts/PlaceholderAdsMarketplace.sol\":6782:6796  currentAuction */\n      0x03\n        /* \"contracts/PlaceholderAdsMarketplace.sol\":6782:6811  currentAuction.proofSubmitted */\n      0x08\n      add\n      0x00\n      swap1\n      sload\n      swap1\n      0x0100\n      exp\n      swap1\n      div\n      0xff\n      and\n        /* \"contracts/PlaceholderAdsMarketplace.sol\":6781:6811  !currentAuction.proofSubmitted */\n      iszero\n        /* \"contracts/PlaceholderAdsMarketplace.sol\":6773:6839  require(!currentAuction.proofSubmitted, \"Proof already submitted\") */\n      tag_75\n      jumpi\n      mload(0x40)\n      0x08c379a000000000000000000000000000000000000000000000000000000000\n      dup2\n      mstore\n      0x04\n      add\n      tag_76\n      swap1\n      tag_77\n      jump\t// in\n    tag_76:\n      mload(0x40)\n      dup1\n      swap2\n      sub\n      swap1\n      revert\n    tag_75:\n        /* \"contracts/PlaceholderAdsMarketplace.sol\":6882:6886  true */\n      0x01\n        /* \"contracts/PlaceholderAdsMarketplace.sol\":6850:6864  currentAuction */\n      0x03\n        /* \"contracts/PlaceholderAdsMarketplace.sol\":6850:6879  currentAuction.proofSubmitted */\n      0x08\n      add\n      0x00\n        /* \"contracts/PlaceholderAdsMarketplace.sol\":6850:6886  currentAuction.proofSubmitted = true */\n      0x0100\n      exp\n      dup2\n      sload\n      dup2\n      0xff\n      mul\n      not\n      and\n      swap1\n      dup4\n      iszero\n      iszero\n      mul\n      or\n      swap1\n      sstore\n      pop\n        /* \"contracts/PlaceholderAdsMarketplace.sol\":6901:6937  ProofSubmitted(_tokenId, _proofHash) */\n      0x556d8e38b75e3e273793af33ddc3e1c8bc47d1cd092b52f3a239d9d1c8818997\n        /* \"contracts/PlaceholderAdsMarketplace.sol\":6916:6924  _tokenId */\n      dup3\n        /* \"contracts/PlaceholderAdsMarketplace.sol\":6926:6936  _proofHash */\n      dup3\n        /* \"contracts/PlaceholderAdsMarketplace.sol\":6901:6937  ProofSubmitted(_tokenId, _proofHash) */\n      mload(0x40)\n      tag_78\n      swap3\n      swap2\n      swap1\n      tag_79\n      jump\t// in\n    tag_78:\n      mload(0x40)\n      dup1\n      swap2\n      sub\n      swap1\n      log1\n        /* \"contracts/PlaceholderAdsMarketplace.sol\":6522:6944  function submitProof(uint256 _tokenId, bytes32 _proofHash)... */\n      pop\n      pop\n      jump\t// out\n        /* \"contracts/PlaceholderAdsMarketplace.sol\":960:1015  uint256 public constant MINIMUM_BID_PERIOD = 20 seconds */\n    tag_24:\n        /* \"contracts/PlaceholderAdsMarketplace.sol\":1005:1015  20 seconds */\n      0x14\n        /* \"contracts/PlaceholderAdsMarketplace.sol\":960:1015  uint256 public constant MINIMUM_BID_PERIOD = 20 seconds */\n      dup2\n      jump\t// out\n        /* \"contracts/PlaceholderAdsMarketplace.sol\":1340:1369  Auction public currentAuction */\n    tag_28:\n      0x03\n      dup1\n      0x00\n      add\n      sload\n      swap1\n      dup1\n      0x01\n      add\n      sload\n      swap1\n      dup1\n      0x02\n      add\n      sload\n      swap1\n      dup1\n      0x03\n      add\n      sload\n      swap1\n      dup1\n      0x04\n      add\n      0x00\n      swap1\n      sload\n      swap1\n      0x0100\n      exp\n      swap1\n      div\n      0xffffffffffffffffffffffffffffffffffffffff\n      and\n      swap1\n      dup1\n      0x05\n      add\n      sload\n      swap1\n      dup1\n      0x06\n      add\n      sload\n      swap1\n      dup1\n      0x07\n      add\n      sload\n      swap1\n      dup1\n      0x08\n      add\n      0x00\n      swap1\n      sload\n      swap1\n      0x0100\n      exp\n      swap1\n      div\n      0xff\n      and\n      swap1\n      dup1\n      0x08\n      add\n      0x01\n      swap1\n      sload\n      swap1\n      0x0100\n      exp\n      swap1\n      div\n      0xff\n      and\n      swap1\n      dup1\n      0x08\n      add\n      0x02\n      swap1\n      sload\n      swap1\n      0x0100\n      exp\n      swap1\n      div\n      0xff\n      and\n      swap1\n      pop\n      dup12\n      jump\t// out\n        /* \"contracts/PlaceholderAdsMarketplace.sol\":2351:3197  function startAuction(uint256 _startPrice, uint256 _endPrice)... */\n    tag_34:\n        /* \"contracts/PlaceholderAdsMarketplace.sol\":1541:1549  operator */\n      0x01\n      0x00\n      swap1\n      sload\n      swap1\n      0x0100\n      exp\n      swap1\n      div\n      0xffffffffffffffffffffffffffffffffffffffff\n      and\n        /* \"contracts/PlaceholderAdsMarketplace.sol\":1527:1549  msg.sender == operator */\n      0xffffffffffffffffffffffffffffffffffffffff\n      and\n        /* \"contracts/PlaceholderAdsMarketplace.sol\":1527:1537  msg.sender */\n      caller\n        /* \"contracts/PlaceholderAdsMarketplace.sol\":1527:1549  msg.sender == operator */\n      0xffffffffffffffffffffffffffffffffffffffff\n      and\n      eq\n        /* \"contracts/PlaceholderAdsMarketplace.sol\":1519:1570  require(msg.sender == operator, \"Not the operator\") */\n      tag_81\n      jumpi\n      mload(0x40)\n      0x08c379a000000000000000000000000000000000000000000000000000000000\n      dup2\n      mstore\n      0x04\n      add\n      tag_82\n      swap1\n      tag_60\n      jump\t// in\n    tag_82:\n      mload(0x40)\n      dup1\n      swap2\n      sub\n      swap1\n      revert\n    tag_81:\n        /* \"contracts/PlaceholderAdsMarketplace.sol\":2487:2488  0 */\n      0x00\n        /* \"contracts/PlaceholderAdsMarketplace.sol\":2473:2484  _startPrice */\n      dup3\n        /* \"contracts/PlaceholderAdsMarketplace.sol\":2473:2488  _startPrice > 0 */\n      gt\n        /* \"contracts/PlaceholderAdsMarketplace.sol\":2465:2527  require(_startPrice > 0, \"Start price must be greater than 0\") */\n      tag_84\n      jumpi\n      mload(0x40)\n      0x08c379a000000000000000000000000000000000000000000000000000000000\n      dup2\n      mstore\n      0x04\n      add\n      tag_85\n      swap1\n      tag_86\n      jump\t// in\n    tag_85:\n      mload(0x40)\n      dup1\n      swap2\n      sub\n      swap1\n      revert\n    tag_84:\n        /* \"contracts/PlaceholderAdsMarketplace.sol\":2567:2578  _startPrice */\n      dup2\n        /* \"contracts/PlaceholderAdsMarketplace.sol\":2554:2563  _endPrice */\n      dup2\n        /* \"contracts/PlaceholderAdsMarketplace.sol\":2554:2578  _endPrice <= _startPrice */\n      gt\n      iszero\n        /* \"contracts/PlaceholderAdsMarketplace.sol\":2546:2615  require(_endPrice <= _startPrice, \"End price must be <= start price\") */\n      tag_87\n      jumpi\n      mload(0x40)\n      0x08c379a000000000000000000000000000000000000000000000000000000000\n      dup2\n      mstore\n      0x04\n      add\n      tag_88\n      swap1\n      tag_89\n      jump\t// in\n    tag_88:\n      mload(0x40)\n      dup1\n      swap2\n      sub\n      swap1\n      revert\n    tag_87:\n        /* \"contracts/PlaceholderAdsMarketplace.sol\":2625:2642  uint256 startTime */\n      0x00\n        /* \"contracts/PlaceholderAdsMarketplace.sol\":2645:2660  block.timestamp */\n      timestamp\n        /* \"contracts/PlaceholderAdsMarketplace.sol\":2625:2660  uint256 startTime = block.timestamp */\n      swap1\n      pop\n        /* \"contracts/PlaceholderAdsMarketplace.sol\":2670:2686  uint256 duration */\n      0x00\n        /* \"contracts/PlaceholderAdsMarketplace.sol\":2689:2698  5 minutes */\n      0x012c\n        /* \"contracts/PlaceholderAdsMarketplace.sol\":2670:2698  uint256 duration = 5 minutes */\n      swap1\n      pop\n        /* \"contracts/PlaceholderAdsMarketplace.sol\":2753:3115  Auction({... */\n      mload(0x40)\n      dup1\n      0x0160\n      add\n      0x40\n      mstore\n      dup1\n        /* \"contracts/PlaceholderAdsMarketplace.sol\":2787:2798  _startPrice */\n      dup6\n        /* \"contracts/PlaceholderAdsMarketplace.sol\":2753:3115  Auction({... */\n      dup2\n      mstore\n      0x20\n      add\n        /* \"contracts/PlaceholderAdsMarketplace.sol\":2822:2831  _endPrice */\n      dup5\n        /* \"contracts/PlaceholderAdsMarketplace.sol\":2753:3115  Auction({... */\n      dup2\n      mstore\n      0x20\n      add\n        /* \"contracts/PlaceholderAdsMarketplace.sol\":2856:2865  startTime */\n      dup4\n        /* \"contracts/PlaceholderAdsMarketplace.sol\":2753:3115  Auction({... */\n      dup2\n      mstore\n      0x20\n      add\n        /* \"contracts/PlaceholderAdsMarketplace.sol\":2889:2897  duration */\n      dup3\n        /* \"contracts/PlaceholderAdsMarketplace.sol\":2753:3115  Auction({... */\n      dup2\n      mstore\n      0x20\n      add\n        /* \"contracts/PlaceholderAdsMarketplace.sol\":2927:2928  0 */\n      0x00\n        /* \"contracts/PlaceholderAdsMarketplace.sol\":2753:3115  Auction({... */\n      0xffffffffffffffffffffffffffffffffffffffff\n      and\n      dup2\n      mstore\n      0x20\n      add\n        /* \"contracts/PlaceholderAdsMarketplace.sol\":2955:2956  0 */\n      0x00\n        /* \"contracts/PlaceholderAdsMarketplace.sol\":2753:3115  Auction({... */\n      dup2\n      mstore\n      0x20\n      add\n        /* \"contracts/PlaceholderAdsMarketplace.sol\":2986:2987  0 */\n      0x00\n        /* \"contracts/PlaceholderAdsMarketplace.sol\":2753:3115  Auction({... */\n      dup2\n      mstore\n      0x20\n      add\n        /* \"contracts/PlaceholderAdsMarketplace.sol\":3014:3015  0 */\n      0x00\n        /* \"contracts/PlaceholderAdsMarketplace.sol\":2753:3115  Auction({... */\n      dup2\n      mstore\n      0x20\n      add\n        /* \"contracts/PlaceholderAdsMarketplace.sol\":3045:3050  false */\n      0x00\n        /* \"contracts/PlaceholderAdsMarketplace.sol\":2753:3115  Auction({... */\n      iszero\n      iszero\n      dup2\n      mstore\n      0x20\n      add\n        /* \"contracts/PlaceholderAdsMarketplace.sol\":3073:3078  false */\n      0x00\n        /* \"contracts/PlaceholderAdsMarketplace.sol\":2753:3115  Auction({... */\n      iszero\n      iszero\n      dup2\n      mstore\n      0x20\n      add\n        /* \"contracts/PlaceholderAdsMarketplace.sol\":3099:3104  false */\n      0x00\n        /* \"contracts/PlaceholderAdsMarketplace.sol\":2753:3115  Auction({... */\n      iszero\n      iszero\n      dup2\n      mstore\n      pop\n        /* \"contracts/PlaceholderAdsMarketplace.sol\":2736:2750  currentAuction */\n      0x03\n        /* \"contracts/PlaceholderAdsMarketplace.sol\":2736:3115  currentAuction = Auction({... */\n      0x00\n      dup3\n      add\n      mload\n      dup2\n      0x00\n      add\n      sstore\n      0x20\n      dup3\n      add\n      mload\n      dup2\n      0x01\n      add\n      sstore\n      0x40\n      dup3\n      add\n      mload\n      dup2\n      0x02\n      add\n      sstore\n      0x60\n      dup3\n      add\n      mload\n      dup2\n      0x03\n      add\n      sstore\n      0x80\n      dup3\n      add\n      mload\n      dup2\n      0x04\n      add\n      exp(0x0100, 0x00)\n      dup2\n      sload\n      dup2\n      0xffffffffffffffffffffffffffffffffffffffff\n      mul\n      not\n      and\n      swap1\n      dup4\n      0xffffffffffffffffffffffffffffffffffffffff\n      and\n      mul\n      or\n      swap1\n      sstore\n      pop\n      0xa0\n      dup3\n      add\n      mload\n      dup2\n      0x05\n      add\n      sstore\n      0xc0\n      dup3\n      add\n      mload\n      dup2\n      0x06\n      add\n      sstore\n      0xe0\n      dup3\n      add\n      mload\n      dup2\n      0x07\n      add\n      sstore\n      0x0100\n      dup3\n      add\n      mload\n      dup2\n      0x08\n      add\n      exp(0x0100, 0x00)\n      dup2\n      sload\n      dup2\n      0xff\n      mul\n      not\n      and\n      swap1\n      dup4\n      iszero\n      iszero\n      mul\n      or\n      swap1\n      sstore\n      pop\n      0x0120\n      dup3\n      add\n      mload\n      dup2\n      0x08\n      add\n      exp(0x0100, 0x01)\n      dup2\n      sload\n      dup2\n      0xff\n      mul\n      not\n      and\n      swap1\n      dup4\n      iszero\n      iszero\n      mul\n      or\n      swap1\n      sstore\n      pop\n      0x0140\n      dup3\n      add\n      mload\n      dup2\n      0x08\n      add\n      exp(0x0100, 0x02)\n      dup2\n      sload\n      dup2\n      0xff\n      mul\n      not\n      and\n      swap1\n      dup4\n      iszero\n      iszero\n      mul\n      or\n      swap1\n      sstore\n      pop\n      swap1\n      pop\n      pop\n        /* \"contracts/PlaceholderAdsMarketplace.sol\":3131:3190  AuctionStarted(_startPrice, _endPrice, startTime, duration) */\n      0xa832766a05f1bd0298b0268308621777cfe1e4eea23afe7c06beea79bc6ddd2d\n        /* \"contracts/PlaceholderAdsMarketplace.sol\":3146:3157  _startPrice */\n      dup5\n        /* \"contracts/PlaceholderAdsMarketplace.sol\":3159:3168  _endPrice */\n      dup5\n        /* \"contracts/PlaceholderAdsMarketplace.sol\":3170:3179  startTime */\n      dup5\n        /* \"contracts/PlaceholderAdsMarketplace.sol\":3181:3189  duration */\n      dup5\n        /* \"contracts/PlaceholderAdsMarketplace.sol\":3131:3190  AuctionStarted(_startPrice, _endPrice, startTime, duration) */\n      mload(0x40)\n      tag_90\n      swap5\n      swap4\n      swap3\n      swap2\n      swap1\n      tag_91\n      jump\t// in\n    tag_90:\n      mload(0x40)\n      dup1\n      swap2\n      sub\n      swap1\n      log1\n        /* \"contracts/PlaceholderAdsMarketplace.sol\":2455:3197  {... */\n      pop\n      pop\n        /* \"contracts/PlaceholderAdsMarketplace.sol\":2351:3197  function startAuction(uint256 _startPrice, uint256 _endPrice)... */\n      pop\n      pop\n      jump\t// out\n        /* \"contracts/PlaceholderAdsMarketplace.sol\":863:886  address public operator */\n    tag_36:\n      0x01\n      0x00\n      swap1\n      sload\n      swap1\n      0x0100\n      exp\n      swap1\n      div\n      0xffffffffffffffffffffffffffffffffffffffff\n      and\n      dup2\n      jump\t// out\n        /* \"contracts/PlaceholderAdsMarketplace.sol\":4076:6516  function placeBid(uint256 _tokenId, uint256 _bidAmount)... */\n    tag_41:\n        /* \"@openzeppelin/contracts/security/ReentrancyGuard.sol\":2261:2282  _nonReentrantBefore() */\n      tag_93\n        /* \"@openzeppelin/contracts/security/ReentrancyGuard.sol\":2261:2280  _nonReentrantBefore */\n      tag_94\n        /* \"@openzeppelin/contracts/security/ReentrancyGuard.sol\":2261:2282  _nonReentrantBefore() */\n      jump\t// in\n    tag_93:\n        /* \"contracts/PlaceholderAdsMarketplace.sol\":1669:1683  currentAuction */\n      0x03\n        /* \"contracts/PlaceholderAdsMarketplace.sol\":1669:1693  currentAuction.startTime */\n      0x02\n      add\n      sload\n        /* \"contracts/PlaceholderAdsMarketplace.sol\":1650:1665  block.timestamp */\n      timestamp\n        /* \"contracts/PlaceholderAdsMarketplace.sol\":1650:1693  block.timestamp >= currentAuction.startTime */\n      lt\n      iszero\n        /* \"contracts/PlaceholderAdsMarketplace.sol\":1650:1798  block.timestamp >= currentAuction.startTime &&... */\n      dup1\n      iszero\n      tag_96\n      jumpi\n      pop\n        /* \"contracts/PlaceholderAdsMarketplace.sol\":1775:1789  currentAuction */\n      0x03\n        /* \"contracts/PlaceholderAdsMarketplace.sol\":1775:1798  currentAuction.duration */\n      dup1\n      add\n      sload\n        /* \"contracts/PlaceholderAdsMarketplace.sol\":1748:1762  currentAuction */\n      0x03\n        /* \"contracts/PlaceholderAdsMarketplace.sol\":1748:1772  currentAuction.startTime */\n      0x02\n      add\n      sload\n        /* \"contracts/PlaceholderAdsMarketplace.sol\":1748:1798  currentAuction.startTime + currentAuction.duration */\n      tag_97\n      swap2\n      swap1\n      tag_98\n      jump\t// in\n    tag_97:\n        /* \"contracts/PlaceholderAdsMarketplace.sol\":1713:1728  block.timestamp */\n      timestamp\n        /* \"contracts/PlaceholderAdsMarketplace.sol\":1713:1798  block.timestamp <=... */\n      gt\n      iszero\n        /* \"contracts/PlaceholderAdsMarketplace.sol\":1650:1798  block.timestamp >= currentAuction.startTime &&... */\n    tag_96:\n        /* \"contracts/PlaceholderAdsMarketplace.sol\":1629:1842  require(... */\n      tag_99\n      jumpi\n      mload(0x40)\n      0x08c379a000000000000000000000000000000000000000000000000000000000\n      dup2\n      mstore\n      0x04\n      add\n      tag_100\n      swap1\n      tag_101\n      jump\t// in\n    tag_100:\n      mload(0x40)\n      dup1\n      swap2\n      sub\n      swap1\n      revert\n    tag_99:\n        /* \"contracts/PlaceholderAdsMarketplace.sol\":1861:1875  currentAuction */\n      0x03\n        /* \"contracts/PlaceholderAdsMarketplace.sol\":1861:1881  currentAuction.ended */\n      0x08\n      add\n      0x02\n      swap1\n      sload\n      swap1\n      0x0100\n      exp\n      swap1\n      div\n      0xff\n      and\n        /* \"contracts/PlaceholderAdsMarketplace.sol\":1860:1881  !currentAuction.ended */\n      iszero\n        /* \"contracts/PlaceholderAdsMarketplace.sol\":1852:1907  require(!currentAuction.ended, \"Auction already ended\") */\n      tag_102\n      jumpi\n      mload(0x40)\n      0x08c379a000000000000000000000000000000000000000000000000000000000\n      dup2\n      mstore\n      0x04\n      add\n      tag_103\n      swap1\n      tag_104\n      jump\t// in\n    tag_103:\n      mload(0x40)\n      dup1\n      swap2\n      sub\n      swap1\n      revert\n    tag_102:\n        /* \"contracts/PlaceholderAdsMarketplace.sol\":4206:4226  uint256 currentPrice */\n      0x00\n        /* \"contracts/PlaceholderAdsMarketplace.sol\":4229:4246  getCurrentPrice() */\n      tag_106\n        /* \"contracts/PlaceholderAdsMarketplace.sol\":4229:4244  getCurrentPrice */\n      tag_55\n        /* \"contracts/PlaceholderAdsMarketplace.sol\":4229:4246  getCurrentPrice() */\n      jump\t// in\n    tag_106:\n        /* \"contracts/PlaceholderAdsMarketplace.sol\":4206:4246  uint256 currentPrice = getCurrentPrice() */\n      swap1\n      pop\n        /* \"contracts/PlaceholderAdsMarketplace.sol\":4278:4290  currentPrice */\n      dup1\n        /* \"contracts/PlaceholderAdsMarketplace.sol\":4264:4274  _bidAmount */\n      dup3\n        /* \"contracts/PlaceholderAdsMarketplace.sol\":4264:4290  _bidAmount >= currentPrice */\n      lt\n      iszero\n        /* \"contracts/PlaceholderAdsMarketplace.sol\":4256:4318  require(_bidAmount >= currentPrice, \"Bid below current price\") */\n      tag_107\n      jumpi\n      mload(0x40)\n      0x08c379a000000000000000000000000000000000000000000000000000000000\n      dup2\n      mstore\n      0x04\n      add\n      tag_108\n      swap1\n      tag_109\n      jump\t// in\n    tag_108:\n      mload(0x40)\n      dup1\n      swap2\n      sub\n      swap1\n      revert\n    tag_107:\n        /* \"contracts/PlaceholderAdsMarketplace.sol\":4349:4350  0 */\n      0x00\n        /* \"contracts/PlaceholderAdsMarketplace.sol\":4336:4346  _bidAmount */\n      dup3\n        /* \"contracts/PlaceholderAdsMarketplace.sol\":4336:4350  _bidAmount > 0 */\n      gt\n        /* \"contracts/PlaceholderAdsMarketplace.sol\":4328:4388  require(_bidAmount > 0, \"Bid amount must be greater than 0\") */\n      tag_110\n      jumpi\n      mload(0x40)\n      0x08c379a000000000000000000000000000000000000000000000000000000000\n      dup2\n      mstore\n      0x04\n      add\n      tag_111\n      swap1\n      tag_112\n      jump\t// in\n    tag_111:\n      mload(0x40)\n      dup1\n      swap2\n      sub\n      swap1\n      revert\n    tag_110:\n        /* \"contracts/PlaceholderAdsMarketplace.sol\":4479:4493  currentAuction */\n      0x03\n        /* \"contracts/PlaceholderAdsMarketplace.sol\":4479:4504  currentAuction.startPrice */\n      0x00\n      add\n      sload\n        /* \"contracts/PlaceholderAdsMarketplace.sol\":4465:4475  _bidAmount */\n      dup3\n        /* \"contracts/PlaceholderAdsMarketplace.sol\":4465:4504  _bidAmount >= currentAuction.startPrice */\n      lt\n        /* \"contracts/PlaceholderAdsMarketplace.sol\":4461:5396  if (_bidAmount >= currentAuction.startPrice) {... */\n      tag_113\n      jumpi\n        /* \"contracts/PlaceholderAdsMarketplace.sol\":4598:4608  _bidAmount */\n      dup2\n        /* \"contracts/PlaceholderAdsMarketplace.sol\":4545:4557  biddingToken */\n      0x02\n      0x00\n      swap1\n      sload\n      swap1\n      0x0100\n      exp\n      swap1\n      div\n      0xffffffffffffffffffffffffffffffffffffffff\n      and\n        /* \"contracts/PlaceholderAdsMarketplace.sol\":4545:4567  biddingToken.allowance */\n      0xffffffffffffffffffffffffffffffffffffffff\n      and\n      0xdd62ed3e\n        /* \"contracts/PlaceholderAdsMarketplace.sol\":4568:4578  msg.sender */\n      caller\n        /* \"contracts/PlaceholderAdsMarketplace.sol\":4588:4592  this */\n      address\n        /* \"contracts/PlaceholderAdsMarketplace.sol\":4545:4594  biddingToken.allowance(msg.sender, address(this)) */\n      mload(0x40)\n      dup4\n      0xffffffff\n      and\n      0xe0\n      shl\n      dup2\n      mstore\n      0x04\n      add\n      tag_114\n      swap3\n      swap2\n      swap1\n      tag_115\n      jump\t// in\n    tag_114:\n      0x20\n      mload(0x40)\n      dup1\n      dup4\n      sub\n      dup2\n      dup7\n      gas\n      staticcall\n      iszero\n      dup1\n      iszero\n      tag_117\n      jumpi\n      returndatacopy(0x00, 0x00, returndatasize)\n      revert(0x00, returndatasize)\n    tag_117:\n      pop\n      pop\n      pop\n      pop\n      mload(0x40)\n      returndatasize\n      not(0x1f)\n      0x1f\n      dup3\n      add\n      and\n      dup3\n      add\n      dup1\n      0x40\n      mstore\n      pop\n      dup2\n      add\n      swap1\n      tag_118\n      swap2\n      swap1\n      tag_119\n      jump\t// in\n    tag_118:\n        /* \"contracts/PlaceholderAdsMarketplace.sol\":4545:4608  biddingToken.allowance(msg.sender, address(this)) >= _bidAmount */\n      lt\n      iszero\n        /* \"contracts/PlaceholderAdsMarketplace.sol\":4520:4664  require(... */\n      tag_120\n      jumpi\n      mload(0x40)\n      0x08c379a000000000000000000000000000000000000000000000000000000000\n      dup2\n      mstore\n      0x04\n      add\n      tag_121\n      swap1\n      tag_122\n      jump\t// in\n    tag_121:\n      mload(0x40)\n      dup1\n      swap2\n      sub\n      swap1\n      revert\n    tag_120:\n        /* \"contracts/PlaceholderAdsMarketplace.sol\":4741:4751  _bidAmount */\n      dup2\n        /* \"contracts/PlaceholderAdsMarketplace.sol\":4703:4715  biddingToken */\n      0x02\n      0x00\n      swap1\n      sload\n      swap1\n      0x0100\n      exp\n      swap1\n      div\n      0xffffffffffffffffffffffffffffffffffffffff\n      and\n        /* \"contracts/PlaceholderAdsMarketplace.sol\":4703:4725  biddingToken.balanceOf */\n      0xffffffffffffffffffffffffffffffffffffffff\n      and\n      0x70a08231\n        /* \"contracts/PlaceholderAdsMarketplace.sol\":4726:4736  msg.sender */\n      caller\n        /* \"contracts/PlaceholderAdsMarketplace.sol\":4703:4737  biddingToken.balanceOf(msg.sender) */\n      mload(0x40)\n      dup3\n      0xffffffff\n      and\n      0xe0\n      shl\n      dup2\n      mstore\n      0x04\n      add\n      tag_123\n      swap2\n      swap1\n      tag_38\n      jump\t// in\n    tag_123:\n      0x20\n      mload(0x40)\n      dup1\n      dup4\n      sub\n      dup2\n      dup7\n      gas\n      staticcall\n      iszero\n      dup1\n      iszero\n      tag_125\n      jumpi\n      returndatacopy(0x00, 0x00, returndatasize)\n      revert(0x00, returndatasize)\n    tag_125:\n      pop\n      pop\n      pop\n      pop\n      mload(0x40)\n      returndatasize\n      not(0x1f)\n      0x1f\n      dup3\n      add\n      and\n      dup3\n      add\n      dup1\n      0x40\n      mstore\n      pop\n      dup2\n      add\n      swap1\n      tag_126\n      swap2\n      swap1\n      tag_119\n      jump\t// in\n    tag_126:\n        /* \"contracts/PlaceholderAdsMarketplace.sol\":4703:4751  biddingToken.balanceOf(msg.sender) >= _bidAmount */\n      lt\n      iszero\n        /* \"contracts/PlaceholderAdsMarketplace.sol\":4678:4805  require(... */\n      tag_127\n      jumpi\n      mload(0x40)\n      0x08c379a000000000000000000000000000000000000000000000000000000000\n      dup2\n      mstore\n      0x04\n      add\n      tag_128\n      swap1\n      tag_129\n      jump\t// in\n    tag_128:\n      mload(0x40)\n      dup1\n      swap2\n      sub\n      swap1\n      revert\n    tag_127:\n        /* \"contracts/PlaceholderAdsMarketplace.sol\":4844:4856  biddingToken */\n      0x02\n      0x00\n      swap1\n      sload\n      swap1\n      0x0100\n      exp\n      swap1\n      div\n      0xffffffffffffffffffffffffffffffffffffffff\n      and\n        /* \"contracts/PlaceholderAdsMarketplace.sol\":4844:4869  biddingToken.transferFrom */\n      0xffffffffffffffffffffffffffffffffffffffff\n      and\n      0x23b872dd\n        /* \"contracts/PlaceholderAdsMarketplace.sol\":4891:4901  msg.sender */\n      caller\n        /* \"contracts/PlaceholderAdsMarketplace.sol\":4931:4935  this */\n      address\n        /* \"contracts/PlaceholderAdsMarketplace.sol\":4958:4968  _bidAmount */\n      dup6\n        /* \"contracts/PlaceholderAdsMarketplace.sol\":4844:4986  biddingToken.transferFrom(... */\n      mload(0x40)\n      dup5\n      0xffffffff\n      and\n      0xe0\n      shl\n      dup2\n      mstore\n      0x04\n      add\n      tag_130\n      swap4\n      swap3\n      swap2\n      swap1\n      tag_131\n      jump\t// in\n    tag_130:\n      0x20\n      mload(0x40)\n      dup1\n      dup4\n      sub\n      dup2\n      0x00\n      dup8\n      gas\n      call\n      iszero\n      dup1\n      iszero\n      tag_133\n      jumpi\n      returndatacopy(0x00, 0x00, returndatasize)\n      revert(0x00, returndatasize)\n    tag_133:\n      pop\n      pop\n      pop\n      pop\n      mload(0x40)\n      returndatasize\n      not(0x1f)\n      0x1f\n      dup3\n      add\n      and\n      dup3\n      add\n      dup1\n      0x40\n      mstore\n      pop\n      dup2\n      add\n      swap1\n      tag_134\n      swap2\n      swap1\n      tag_135\n      jump\t// in\n    tag_134:\n        /* \"contracts/PlaceholderAdsMarketplace.sol\":4819:5041  require(... */\n      tag_136\n      jumpi\n      mload(0x40)\n      0x08c379a000000000000000000000000000000000000000000000000000000000\n      dup2\n      mstore\n      0x04\n      add\n      tag_137\n      swap1\n      tag_138\n      jump\t// in\n    tag_137:\n      mload(0x40)\n      dup1\n      swap2\n      sub\n      swap1\n      revert\n    tag_136:\n        /* \"contracts/PlaceholderAdsMarketplace.sol\":5080:5090  msg.sender */\n      caller\n        /* \"contracts/PlaceholderAdsMarketplace.sol\":5056:5070  currentAuction */\n      0x03\n        /* \"contracts/PlaceholderAdsMarketplace.sol\":5056:5077  currentAuction.winner */\n      0x04\n      add\n      0x00\n        /* \"contracts/PlaceholderAdsMarketplace.sol\":5056:5090  currentAuction.winner = msg.sender */\n      0x0100\n      exp\n      dup2\n      sload\n      dup2\n      0xffffffffffffffffffffffffffffffffffffffff\n      mul\n      not\n      and\n      swap1\n      dup4\n      0xffffffffffffffffffffffffffffffffffffffff\n      and\n      mul\n      or\n      swap1\n      sstore\n      pop\n        /* \"contracts/PlaceholderAdsMarketplace.sol\":5132:5142  _bidAmount */\n      dup2\n        /* \"contracts/PlaceholderAdsMarketplace.sol\":5104:5118  currentAuction */\n      0x03\n        /* \"contracts/PlaceholderAdsMarketplace.sol\":5104:5129  currentAuction.winningBid */\n      0x05\n      add\n        /* \"contracts/PlaceholderAdsMarketplace.sol\":5104:5142  currentAuction.winningBid = _bidAmount */\n      dup2\n      swap1\n      sstore\n      pop\n        /* \"contracts/PlaceholderAdsMarketplace.sol\":5188:5196  _tokenId */\n      dup3\n        /* \"contracts/PlaceholderAdsMarketplace.sol\":5156:5170  currentAuction */\n      0x03\n        /* \"contracts/PlaceholderAdsMarketplace.sol\":5156:5185  currentAuction.winningTokenId */\n      0x06\n      add\n        /* \"contracts/PlaceholderAdsMarketplace.sol\":5156:5196  currentAuction.winningTokenId = _tokenId */\n      dup2\n      swap1\n      sstore\n      pop\n        /* \"contracts/PlaceholderAdsMarketplace.sol\":5233:5237  true */\n      0x01\n        /* \"contracts/PlaceholderAdsMarketplace.sol\":5210:5224  currentAuction */\n      0x03\n        /* \"contracts/PlaceholderAdsMarketplace.sol\":5210:5230  currentAuction.ended */\n      0x08\n      add\n      0x02\n        /* \"contracts/PlaceholderAdsMarketplace.sol\":5210:5237  currentAuction.ended = true */\n      0x0100\n      exp\n      dup2\n      sload\n      dup2\n      0xff\n      mul\n      not\n      and\n      swap1\n      dup4\n      iszero\n      iszero\n      mul\n      or\n      swap1\n      sstore\n      pop\n        /* \"contracts/PlaceholderAdsMarketplace.sol\":5257:5300  BidPlaced(msg.sender, _bidAmount, _tokenId) */\n      0xdf8644c0a4c21ed214ce69f395675b3a5fcd1039083daea5058898de40ea3149\n        /* \"contracts/PlaceholderAdsMarketplace.sol\":5267:5277  msg.sender */\n      caller\n        /* \"contracts/PlaceholderAdsMarketplace.sol\":5279:5289  _bidAmount */\n      dup4\n        /* \"contracts/PlaceholderAdsMarketplace.sol\":5291:5299  _tokenId */\n      dup6\n        /* \"contracts/PlaceholderAdsMarketplace.sol\":5257:5300  BidPlaced(msg.sender, _bidAmount, _tokenId) */\n      mload(0x40)\n      tag_139\n      swap4\n      swap3\n      swap2\n      swap1\n      tag_140\n      jump\t// in\n    tag_139:\n      mload(0x40)\n      dup1\n      swap2\n      sub\n      swap1\n      log1\n        /* \"contracts/PlaceholderAdsMarketplace.sol\":5319:5365  AuctionEnded(msg.sender, _bidAmount, _tokenId) */\n      0xc358e8e3f205b5e7453abd5cbac388ca4552b887b69001bc972b88610c749035\n        /* \"contracts/PlaceholderAdsMarketplace.sol\":5332:5342  msg.sender */\n      caller\n        /* \"contracts/PlaceholderAdsMarketplace.sol\":5344:5354  _bidAmount */\n      dup4\n        /* \"contracts/PlaceholderAdsMarketplace.sol\":5356:5364  _tokenId */\n      dup6\n        /* \"contracts/PlaceholderAdsMarketplace.sol\":5319:5365  AuctionEnded(msg.sender, _bidAmount, _tokenId) */\n      mload(0x40)\n      tag_141\n      swap4\n      swap3\n      swap2\n      swap1\n      tag_140\n      jump\t// in\n    tag_141:\n      mload(0x40)\n      dup1\n      swap2\n      sub\n      swap1\n      log1\n        /* \"contracts/PlaceholderAdsMarketplace.sol\":5379:5386  return; */\n      pop\n      jump(tag_105)\n        /* \"contracts/PlaceholderAdsMarketplace.sol\":4461:5396  if (_bidAmount >= currentAuction.startPrice) {... */\n    tag_113:\n        /* \"contracts/PlaceholderAdsMarketplace.sol\":5503:5504  0 */\n      0x00\n        /* \"contracts/PlaceholderAdsMarketplace.sol\":5475:5489  currentAuction */\n      0x03\n        /* \"contracts/PlaceholderAdsMarketplace.sol\":5475:5500  currentAuction.winningBid */\n      0x05\n      add\n      sload\n        /* \"contracts/PlaceholderAdsMarketplace.sol\":5475:5504  currentAuction.winningBid > 0 */\n      gt\n        /* \"contracts/PlaceholderAdsMarketplace.sol\":5471:5849  if (currentAuction.winningBid > 0) {... */\n      iszero\n      tag_142\n      jumpi\n        /* \"contracts/PlaceholderAdsMarketplace.sol\":5558:5572  currentAuction */\n      0x03\n        /* \"contracts/PlaceholderAdsMarketplace.sol\":5558:5583  currentAuction.winningBid */\n      0x05\n      add\n      sload\n        /* \"contracts/PlaceholderAdsMarketplace.sol\":5545:5555  _bidAmount */\n      dup3\n        /* \"contracts/PlaceholderAdsMarketplace.sol\":5545:5583  _bidAmount > currentAuction.winningBid */\n      gt\n        /* \"contracts/PlaceholderAdsMarketplace.sol\":5520:5649  require(... */\n      tag_143\n      jumpi\n      mload(0x40)\n      0x08c379a000000000000000000000000000000000000000000000000000000000\n      dup2\n      mstore\n      0x04\n      add\n      tag_144\n      swap1\n      tag_145\n      jump\t// in\n    tag_144:\n      mload(0x40)\n      dup1\n      swap2\n      sub\n      swap1\n      revert\n    tag_143:\n        /* \"contracts/PlaceholderAdsMarketplace.sol\":1005:1015  20 seconds */\n      0x14\n        /* \"contracts/PlaceholderAdsMarketplace.sol\":5727:5741  currentAuction */\n      0x03\n        /* \"contracts/PlaceholderAdsMarketplace.sol\":5727:5753  currentAuction.lastBidTime */\n      0x07\n      add\n      sload\n        /* \"contracts/PlaceholderAdsMarketplace.sol\":5727:5774  currentAuction.lastBidTime + MINIMUM_BID_PERIOD */\n      tag_146\n      swap2\n      swap1\n      tag_98\n      jump\t// in\n    tag_146:\n        /* \"contracts/PlaceholderAdsMarketplace.sol\":5688:5703  block.timestamp */\n      timestamp\n        /* \"contracts/PlaceholderAdsMarketplace.sol\":5688:5774  block.timestamp >=... */\n      lt\n      iszero\n        /* \"contracts/PlaceholderAdsMarketplace.sol\":5663:5838  require(... */\n      tag_147\n      jumpi\n      mload(0x40)\n      0x08c379a000000000000000000000000000000000000000000000000000000000\n      dup2\n      mstore\n      0x04\n      add\n      tag_148\n      swap1\n      tag_149\n      jump\t// in\n    tag_148:\n      mload(0x40)\n      dup1\n      swap2\n      sub\n      swap1\n      revert\n    tag_147:\n        /* \"contracts/PlaceholderAdsMarketplace.sol\":5471:5849  if (currentAuction.winningBid > 0) {... */\n    tag_142:\n        /* \"contracts/PlaceholderAdsMarketplace.sol\":5933:5943  _bidAmount */\n      dup2\n        /* \"contracts/PlaceholderAdsMarketplace.sol\":5880:5892  biddingToken */\n      0x02\n      0x00\n      swap1\n      sload\n      swap1\n      0x0100\n      exp\n      swap1\n      div\n      0xffffffffffffffffffffffffffffffffffffffff\n      and\n        /* \"contracts/PlaceholderAdsMarketplace.sol\":5880:5902  biddingToken.allowance */\n      0xffffffffffffffffffffffffffffffffffffffff\n      and\n      0xdd62ed3e\n        /* \"contracts/PlaceholderAdsMarketplace.sol\":5903:5913  msg.sender */\n      caller\n        /* \"contracts/PlaceholderAdsMarketplace.sol\":5923:5927  this */\n      address\n        /* \"contracts/PlaceholderAdsMarketplace.sol\":5880:5929  biddingToken.allowance(msg.sender, address(this)) */\n      mload(0x40)\n      dup4\n      0xffffffff\n      and\n      0xe0\n      shl\n      dup2\n      mstore\n      0x04\n      add\n      tag_150\n      swap3\n      swap2\n      swap1\n      tag_115\n      jump\t// in\n    tag_150:\n      0x20\n      mload(0x40)\n      dup1\n      dup4\n      sub\n      dup2\n      dup7\n      gas\n      staticcall\n      iszero\n      dup1\n      iszero\n      tag_152\n      jumpi\n      returndatacopy(0x00, 0x00, returndatasize)\n      revert(0x00, returndatasize)\n    tag_152:\n      pop\n      pop\n      pop\n      pop\n      mload(0x40)\n      returndatasize\n      not(0x1f)\n      0x1f\n      dup3\n      add\n      and\n      dup3\n      add\n      dup1\n      0x40\n      mstore\n      pop\n      dup2\n      add\n      swap1\n      tag_153\n      swap2\n      swap1\n      tag_119\n      jump\t// in\n    tag_153:\n        /* \"contracts/PlaceholderAdsMarketplace.sol\":5880:5943  biddingToken.allowance(msg.sender, address(this)) >= _bidAmount */\n      lt\n      iszero\n        /* \"contracts/PlaceholderAdsMarketplace.sol\":5859:5991  require(... */\n      tag_154\n      jumpi\n      mload(0x40)\n      0x08c379a000000000000000000000000000000000000000000000000000000000\n      dup2\n      mstore\n      0x04\n      add\n      tag_155\n      swap1\n      tag_122\n      jump\t// in\n    tag_155:\n      mload(0x40)\n      dup1\n      swap2\n      sub\n      swap1\n      revert\n    tag_154:\n        /* \"contracts/PlaceholderAdsMarketplace.sol\":6060:6070  _bidAmount */\n      dup2\n        /* \"contracts/PlaceholderAdsMarketplace.sol\":6022:6034  biddingToken */\n      0x02\n      0x00\n      swap1\n      sload\n      swap1\n      0x0100\n      exp\n      swap1\n      div\n      0xffffffffffffffffffffffffffffffffffffffff\n      and\n        /* \"contracts/PlaceholderAdsMarketplace.sol\":6022:6044  biddingToken.balanceOf */\n      0xffffffffffffffffffffffffffffffffffffffff\n      and\n      0x70a08231\n        /* \"contracts/PlaceholderAdsMarketplace.sol\":6045:6055  msg.sender */\n      caller\n        /* \"contracts/PlaceholderAdsMarketplace.sol\":6022:6056  biddingToken.balanceOf(msg.sender) */\n      mload(0x40)\n      dup3\n      0xffffffff\n      and\n      0xe0\n      shl\n      dup2\n      mstore\n      0x04\n      add\n      tag_156\n      swap2\n      swap1\n      tag_38\n      jump\t// in\n    tag_156:\n      0x20\n      mload(0x40)\n      dup1\n      dup4\n      sub\n      dup2\n      dup7\n      gas\n      staticcall\n      iszero\n      dup1\n      iszero\n      tag_158\n      jumpi\n      returndatacopy(0x00, 0x00, returndatasize)\n      revert(0x00, returndatasize)\n    tag_158:\n      pop\n      pop\n      pop\n      pop\n      mload(0x40)\n      returndatasize\n      not(0x1f)\n      0x1f\n      dup3\n      add\n      and\n      dup3\n      add\n      dup1\n      0x40\n      mstore\n      pop\n      dup2\n      add\n      swap1\n      tag_159\n      swap2\n      swap1\n      tag_119\n      jump\t// in\n    tag_159:\n        /* \"contracts/PlaceholderAdsMarketplace.sol\":6022:6070  biddingToken.balanceOf(msg.sender) >= _bidAmount */\n      lt\n      iszero\n        /* \"contracts/PlaceholderAdsMarketplace.sol\":6001:6116  require(... */\n      tag_160\n      jumpi\n      mload(0x40)\n      0x08c379a000000000000000000000000000000000000000000000000000000000\n      dup2\n      mstore\n      0x04\n      add\n      tag_161\n      swap1\n      tag_129\n      jump\t// in\n    tag_161:\n      mload(0x40)\n      dup1\n      swap2\n      sub\n      swap1\n      revert\n    tag_160:\n        /* \"contracts/PlaceholderAdsMarketplace.sol\":6147:6159  biddingToken */\n      0x02\n      0x00\n      swap1\n      sload\n      swap1\n      0x0100\n      exp\n      swap1\n      div\n      0xffffffffffffffffffffffffffffffffffffffff\n      and\n        /* \"contracts/PlaceholderAdsMarketplace.sol\":6147:6172  biddingToken.transferFrom */\n      0xffffffffffffffffffffffffffffffffffffffff\n      and\n      0x23b872dd\n        /* \"contracts/PlaceholderAdsMarketplace.sol\":6173:6183  msg.sender */\n      caller\n        /* \"contracts/PlaceholderAdsMarketplace.sol\":6185:6193  operator */\n      0x01\n      0x00\n      swap1\n      sload\n      swap1\n      0x0100\n      exp\n      swap1\n      div\n      0xffffffffffffffffffffffffffffffffffffffff\n      and\n        /* \"contracts/PlaceholderAdsMarketplace.sol\":6195:6205  _bidAmount */\n      dup6\n        /* \"contracts/PlaceholderAdsMarketplace.sol\":6147:6206  biddingToken.transferFrom(msg.sender, operator, _bidAmount) */\n      mload(0x40)\n      dup5\n      0xffffffff\n      and\n      0xe0\n      shl\n      dup2\n      mstore\n      0x04\n      add\n      tag_162\n      swap4\n      swap3\n      swap2\n      swap1\n      tag_131\n      jump\t// in\n    tag_162:\n      0x20\n      mload(0x40)\n      dup1\n      dup4\n      sub\n      dup2\n      0x00\n      dup8\n      gas\n      call\n      iszero\n      dup1\n      iszero\n      tag_164\n      jumpi\n      returndatacopy(0x00, 0x00, returndatasize)\n      revert(0x00, returndatasize)\n    tag_164:\n      pop\n      pop\n      pop\n      pop\n      mload(0x40)\n      returndatasize\n      not(0x1f)\n      0x1f\n      dup3\n      add\n      and\n      dup3\n      add\n      dup1\n      0x40\n      mstore\n      pop\n      dup2\n      add\n      swap1\n      tag_165\n      swap2\n      swap1\n      tag_135\n      jump\t// in\n    tag_165:\n        /* \"contracts/PlaceholderAdsMarketplace.sol\":6126:6253  require(... */\n      tag_166\n      jumpi\n      mload(0x40)\n      0x08c379a000000000000000000000000000000000000000000000000000000000\n      dup2\n      mstore\n      0x04\n      add\n      tag_167\n      swap1\n      tag_138\n      jump\t// in\n    tag_167:\n      mload(0x40)\n      dup1\n      swap2\n      sub\n      swap1\n      revert\n    tag_166:\n        /* \"contracts/PlaceholderAdsMarketplace.sol\":6288:6298  msg.sender */\n      caller\n        /* \"contracts/PlaceholderAdsMarketplace.sol\":6264:6278  currentAuction */\n      0x03\n        /* \"contracts/PlaceholderAdsMarketplace.sol\":6264:6285  currentAuction.winner */\n      0x04\n      add\n      0x00\n        /* \"contracts/PlaceholderAdsMarketplace.sol\":6264:6298  currentAuction.winner = msg.sender */\n      0x0100\n      exp\n      dup2\n      sload\n      dup2\n      0xffffffffffffffffffffffffffffffffffffffff\n      mul\n      not\n      and\n      swap1\n      dup4\n      0xffffffffffffffffffffffffffffffffffffffff\n      and\n      mul\n      or\n      swap1\n      sstore\n      pop\n        /* \"contracts/PlaceholderAdsMarketplace.sol\":6336:6346  _bidAmount */\n      dup2\n        /* \"contracts/PlaceholderAdsMarketplace.sol\":6308:6322  currentAuction */\n      0x03\n        /* \"contracts/PlaceholderAdsMarketplace.sol\":6308:6333  currentAuction.winningBid */\n      0x05\n      add\n        /* \"contracts/PlaceholderAdsMarketplace.sol\":6308:6346  currentAuction.winningBid = _bidAmount */\n      dup2\n      swap1\n      sstore\n      pop\n        /* \"contracts/PlaceholderAdsMarketplace.sol\":6388:6396  _tokenId */\n      dup3\n        /* \"contracts/PlaceholderAdsMarketplace.sol\":6356:6370  currentAuction */\n      0x03\n        /* \"contracts/PlaceholderAdsMarketplace.sol\":6356:6385  currentAuction.winningTokenId */\n      0x06\n      add\n        /* \"contracts/PlaceholderAdsMarketplace.sol\":6356:6396  currentAuction.winningTokenId = _tokenId */\n      dup2\n      swap1\n      sstore\n      pop\n        /* \"contracts/PlaceholderAdsMarketplace.sol\":6435:6450  block.timestamp */\n      timestamp\n        /* \"contracts/PlaceholderAdsMarketplace.sol\":6406:6420  currentAuction */\n      0x03\n        /* \"contracts/PlaceholderAdsMarketplace.sol\":6406:6432  currentAuction.lastBidTime */\n      0x07\n      add\n        /* \"contracts/PlaceholderAdsMarketplace.sol\":6406:6450  currentAuction.lastBidTime = block.timestamp */\n      dup2\n      swap1\n      sstore\n      pop\n        /* \"contracts/PlaceholderAdsMarketplace.sol\":6466:6509  BidPlaced(msg.sender, _bidAmount, _tokenId) */\n      0xdf8644c0a4c21ed214ce69f395675b3a5fcd1039083daea5058898de40ea3149\n        /* \"contracts/PlaceholderAdsMarketplace.sol\":6476:6486  msg.sender */\n      caller\n        /* \"contracts/PlaceholderAdsMarketplace.sol\":6488:6498  _bidAmount */\n      dup4\n        /* \"contracts/PlaceholderAdsMarketplace.sol\":6500:6508  _tokenId */\n      dup6\n        /* \"contracts/PlaceholderAdsMarketplace.sol\":6466:6509  BidPlaced(msg.sender, _bidAmount, _tokenId) */\n      mload(0x40)\n      tag_168\n      swap4\n      swap3\n      swap2\n      swap1\n      tag_140\n      jump\t// in\n    tag_168:\n      mload(0x40)\n      dup1\n      swap2\n      sub\n      swap1\n      log1\n        /* \"contracts/PlaceholderAdsMarketplace.sol\":4196:6516  {... */\n      pop\n        /* \"contracts/PlaceholderAdsMarketplace.sol\":1917:1918  _ */\n    tag_105:\n        /* \"@openzeppelin/contracts/security/ReentrancyGuard.sol\":2303:2323  _nonReentrantAfter() */\n      tag_169\n        /* \"@openzeppelin/contracts/security/ReentrancyGuard.sol\":2303:2321  _nonReentrantAfter */\n      tag_170\n        /* \"@openzeppelin/contracts/security/ReentrancyGuard.sol\":2303:2323  _nonReentrantAfter() */\n      jump\t// in\n    tag_169:\n        /* \"contracts/PlaceholderAdsMarketplace.sol\":4076:6516  function placeBid(uint256 _tokenId, uint256 _bidAmount)... */\n      pop\n      pop\n      jump\t// out\n        /* \"contracts/PlaceholderAdsMarketplace.sol\":892:918  IERC20 public biddingToken */\n    tag_43:\n      0x02\n      0x00\n      swap1\n      sload\n      swap1\n      0x0100\n      exp\n      swap1\n      div\n      0xffffffffffffffffffffffffffffffffffffffff\n      and\n      dup2\n      jump\t// out\n        /* \"contracts/PlaceholderAdsMarketplace.sol\":6991:7577  function claimPayment(uint256 _tokenId) external onlyOperator {... */\n    tag_49:\n        /* \"contracts/PlaceholderAdsMarketplace.sol\":1541:1549  operator */\n      0x01\n      0x00\n      swap1\n      sload\n      swap1\n      0x0100\n      exp\n      swap1\n      div\n      0xffffffffffffffffffffffffffffffffffffffff\n      and\n        /* \"contracts/PlaceholderAdsMarketplace.sol\":1527:1549  msg.sender == operator */\n      0xffffffffffffffffffffffffffffffffffffffff\n      and\n        /* \"contracts/PlaceholderAdsMarketplace.sol\":1527:1537  msg.sender */\n      caller\n        /* \"contracts/PlaceholderAdsMarketplace.sol\":1527:1549  msg.sender == operator */\n      0xffffffffffffffffffffffffffffffffffffffff\n      and\n      eq\n        /* \"contracts/PlaceholderAdsMarketplace.sol\":1519:1570  require(msg.sender == operator, \"Not the operator\") */\n      tag_172\n      jumpi\n      mload(0x40)\n      0x08c379a000000000000000000000000000000000000000000000000000000000\n      dup2\n      mstore\n      0x04\n      add\n      tag_173\n      swap1\n      tag_60\n      jump\t// in\n    tag_173:\n      mload(0x40)\n      dup1\n      swap2\n      sub\n      swap1\n      revert\n    tag_172:\n        /* \"contracts/PlaceholderAdsMarketplace.sol\":7071:7085  currentAuction */\n      0x03\n        /* \"contracts/PlaceholderAdsMarketplace.sol\":7071:7091  currentAuction.ended */\n      0x08\n      add\n      0x02\n      swap1\n      sload\n      swap1\n      0x0100\n      exp\n      swap1\n      div\n      0xff\n      and\n        /* \"contracts/PlaceholderAdsMarketplace.sol\":7063:7113  require(currentAuction.ended, \"Auction not ended\") */\n      tag_175\n      jumpi\n      mload(0x40)\n      0x08c379a000000000000000000000000000000000000000000000000000000000\n      dup2\n      mstore\n      0x04\n      add\n      tag_176\n      swap1\n      tag_71\n      jump\t// in\n    tag_176:\n      mload(0x40)\n      dup1\n      swap2\n      sub\n      swap1\n      revert\n    tag_175:\n        /* \"contracts/PlaceholderAdsMarketplace.sol\":7131:7145  currentAuction */\n      0x03\n        /* \"contracts/PlaceholderAdsMarketplace.sol\":7131:7160  currentAuction.proofSubmitted */\n      0x08\n      add\n      0x00\n      swap1\n      sload\n      swap1\n      0x0100\n      exp\n      swap1\n      div\n      0xff\n      and\n        /* \"contracts/PlaceholderAdsMarketplace.sol\":7123:7184  require(currentAuction.proofSubmitted, \"Proof not submitted\") */\n      tag_177\n      jumpi\n      mload(0x40)\n      0x08c379a000000000000000000000000000000000000000000000000000000000\n      dup2\n      mstore\n      0x04\n      add\n      tag_178\n      swap1\n      tag_179\n      jump\t// in\n    tag_178:\n      mload(0x40)\n      dup1\n      swap2\n      sub\n      swap1\n      revert\n    tag_177:\n        /* \"contracts/PlaceholderAdsMarketplace.sol\":7203:7217  currentAuction */\n      0x03\n        /* \"contracts/PlaceholderAdsMarketplace.sol\":7203:7225  currentAuction.claimed */\n      0x08\n      add\n      0x01\n      swap1\n      sload\n      swap1\n      0x0100\n      exp\n      swap1\n      div\n      0xff\n      and\n        /* \"contracts/PlaceholderAdsMarketplace.sol\":7202:7225  !currentAuction.claimed */\n      iszero\n        /* \"contracts/PlaceholderAdsMarketplace.sol\":7194:7253  require(!currentAuction.claimed, \"Payment already claimed\") */\n      tag_180\n      jumpi\n      mload(0x40)\n      0x08c379a000000000000000000000000000000000000000000000000000000000\n      dup2\n      mstore\n      0x04\n      add\n      tag_181\n      swap1\n      tag_182\n      jump\t// in\n    tag_181:\n      mload(0x40)\n      dup1\n      swap2\n      sub\n      swap1\n      revert\n    tag_180:\n        /* \"contracts/PlaceholderAdsMarketplace.sol\":7304:7312  _tokenId */\n      dup1\n        /* \"contracts/PlaceholderAdsMarketplace.sol\":7271:7285  currentAuction */\n      0x03\n        /* \"contracts/PlaceholderAdsMarketplace.sol\":7271:7300  currentAuction.winningTokenId */\n      0x06\n      add\n      sload\n        /* \"contracts/PlaceholderAdsMarketplace.sol\":7271:7312  currentAuction.winningTokenId == _tokenId */\n      eq\n        /* \"contracts/PlaceholderAdsMarketplace.sol\":7263:7333  require(currentAuction.winningTokenId == _tokenId, \"Invalid token ID\") */\n      tag_183\n      jumpi\n      mload(0x40)\n      0x08c379a000000000000000000000000000000000000000000000000000000000\n      dup2\n      mstore\n      0x04\n      add\n      tag_184\n      swap1\n      tag_74\n      jump\t// in\n    tag_184:\n      mload(0x40)\n      dup1\n      swap2\n      sub\n      swap1\n      revert\n    tag_183:\n        /* \"contracts/PlaceholderAdsMarketplace.sol\":7369:7373  true */\n      0x01\n        /* \"contracts/PlaceholderAdsMarketplace.sol\":7344:7358  currentAuction */\n      0x03\n        /* \"contracts/PlaceholderAdsMarketplace.sol\":7344:7366  currentAuction.claimed */\n      0x08\n      add\n      0x01\n        /* \"contracts/PlaceholderAdsMarketplace.sol\":7344:7373  currentAuction.claimed = true */\n      0x0100\n      exp\n      dup2\n      sload\n      dup2\n      0xff\n      mul\n      not\n      and\n      swap1\n      dup4\n      iszero\n      iszero\n      mul\n      or\n      swap1\n      sstore\n      pop\n        /* \"contracts/PlaceholderAdsMarketplace.sol\":7404:7416  biddingToken */\n      0x02\n      0x00\n      swap1\n      sload\n      swap1\n      0x0100\n      exp\n      swap1\n      div\n      0xffffffffffffffffffffffffffffffffffffffff\n      and\n        /* \"contracts/PlaceholderAdsMarketplace.sol\":7404:7425  biddingToken.transfer */\n      0xffffffffffffffffffffffffffffffffffffffff\n      and\n      0xa9059cbb\n        /* \"contracts/PlaceholderAdsMarketplace.sol\":7426:7434  operator */\n      0x01\n      0x00\n      swap1\n      sload\n      swap1\n      0x0100\n      exp\n      swap1\n      div\n      0xffffffffffffffffffffffffffffffffffffffff\n      and\n        /* \"contracts/PlaceholderAdsMarketplace.sol\":7436:7450  currentAuction */\n      0x03\n        /* \"contracts/PlaceholderAdsMarketplace.sol\":7436:7461  currentAuction.winningBid */\n      0x05\n      add\n      sload\n        /* \"contracts/PlaceholderAdsMarketplace.sol\":7404:7462  biddingToken.transfer(operator, currentAuction.winningBid) */\n      mload(0x40)\n      dup4\n      0xffffffff\n      and\n      0xe0\n      shl\n      dup2\n      mstore\n      0x04\n      add\n      tag_185\n      swap3\n      swap2\n      swap1\n      tag_186\n      jump\t// in\n    tag_185:\n      0x20\n      mload(0x40)\n      dup1\n      dup4\n      sub\n      dup2\n      0x00\n      dup8\n      gas\n      call\n      iszero\n      dup1\n      iszero\n      tag_188\n      jumpi\n      returndatacopy(0x00, 0x00, returndatasize)\n      revert(0x00, returndatasize)\n    tag_188:\n      pop\n      pop\n      pop\n      pop\n      mload(0x40)\n      returndatasize\n      not(0x1f)\n      0x1f\n      dup3\n      add\n      and\n      dup3\n      add\n      dup1\n      0x40\n      mstore\n      pop\n      dup2\n      add\n      swap1\n      tag_189\n      swap2\n      swap1\n      tag_135\n      jump\t// in\n    tag_189:\n        /* \"contracts/PlaceholderAdsMarketplace.sol\":7383:7503  require(... */\n      tag_190\n      jumpi\n      mload(0x40)\n      0x08c379a000000000000000000000000000000000000000000000000000000000\n      dup2\n      mstore\n      0x04\n      add\n      tag_191\n      swap1\n      tag_192\n      jump\t// in\n    tag_191:\n      mload(0x40)\n      dup1\n      swap2\n      sub\n      swap1\n      revert\n    tag_190:\n        /* \"contracts/PlaceholderAdsMarketplace.sol\":7519:7570  PaymentClaimed(_tokenId, currentAuction.winningBid) */\n      0x86d509b2c9c07df983dc6027aff772237f56674192d9cd56ebe14b2e6bb252a0\n        /* \"contracts/PlaceholderAdsMarketplace.sol\":7534:7542  _tokenId */\n      dup2\n        /* \"contracts/PlaceholderAdsMarketplace.sol\":7544:7558  currentAuction */\n      0x03\n        /* \"contracts/PlaceholderAdsMarketplace.sol\":7544:7569  currentAuction.winningBid */\n      0x05\n      add\n      sload\n        /* \"contracts/PlaceholderAdsMarketplace.sol\":7519:7570  PaymentClaimed(_tokenId, currentAuction.winningBid) */\n      mload(0x40)\n      tag_193\n      swap3\n      swap2\n      swap1\n      tag_194\n      jump\t// in\n    tag_193:\n      mload(0x40)\n      dup1\n      swap2\n      sub\n      swap1\n      log1\n        /* \"contracts/PlaceholderAdsMarketplace.sol\":6991:7577  function claimPayment(uint256 _tokenId) external onlyOperator {... */\n      pop\n      jump\t// out\n        /* \"contracts/PlaceholderAdsMarketplace.sol\":7706:8592  function getAuctionInfo()... */\n    tag_51:\n        /* \"contracts/PlaceholderAdsMarketplace.sol\":7792:7810  uint256 startPrice */\n      0x00\n        /* \"contracts/PlaceholderAdsMarketplace.sol\":7824:7840  uint256 endPrice */\n      0x00\n        /* \"contracts/PlaceholderAdsMarketplace.sol\":7854:7874  uint256 currentPrice */\n      0x00\n        /* \"contracts/PlaceholderAdsMarketplace.sol\":7888:7905  uint256 startTime */\n      0x00\n        /* \"contracts/PlaceholderAdsMarketplace.sol\":7919:7935  uint256 duration */\n      0x00\n        /* \"contracts/PlaceholderAdsMarketplace.sol\":7949:7963  address winner */\n      0x00\n        /* \"contracts/PlaceholderAdsMarketplace.sol\":7977:7995  uint256 winningBid */\n      0x00\n        /* \"contracts/PlaceholderAdsMarketplace.sol\":8009:8031  uint256 winningTokenId */\n      0x00\n        /* \"contracts/PlaceholderAdsMarketplace.sol\":8045:8064  uint256 lastBidTime */\n      0x00\n        /* \"contracts/PlaceholderAdsMarketplace.sol\":8078:8097  bool proofSubmitted */\n      0x00\n        /* \"contracts/PlaceholderAdsMarketplace.sol\":8111:8123  bool claimed */\n      0x00\n        /* \"contracts/PlaceholderAdsMarketplace.sol\":8137:8147  bool ended */\n      0x00\n        /* \"contracts/PlaceholderAdsMarketplace.sol\":8171:8187  Auction memory a */\n      0x00\n        /* \"contracts/PlaceholderAdsMarketplace.sol\":8190:8204  currentAuction */\n      0x03\n        /* \"contracts/PlaceholderAdsMarketplace.sol\":8171:8204  Auction memory a = currentAuction */\n      mload(0x40)\n      dup1\n      0x0160\n      add\n      0x40\n      mstore\n      swap1\n      dup2\n      0x00\n      dup3\n      add\n      sload\n      dup2\n      mstore\n      0x20\n      add\n      0x01\n      dup3\n      add\n      sload\n      dup2\n      mstore\n      0x20\n      add\n      0x02\n      dup3\n      add\n      sload\n      dup2\n      mstore\n      0x20\n      add\n      0x03\n      dup3\n      add\n      sload\n      dup2\n      mstore\n      0x20\n      add\n      0x04\n      dup3\n      add\n      0x00\n      swap1\n      sload\n      swap1\n      0x0100\n      exp\n      swap1\n      div\n      0xffffffffffffffffffffffffffffffffffffffff\n      and\n      0xffffffffffffffffffffffffffffffffffffffff\n      and\n      0xffffffffffffffffffffffffffffffffffffffff\n      and\n      dup2\n      mstore\n      0x20\n      add\n      0x05\n      dup3\n      add\n      sload\n      dup2\n      mstore\n      0x20\n      add\n      0x06\n      dup3\n      add\n      sload\n      dup2\n      mstore\n      0x20\n      add\n      0x07\n      dup3\n      add\n      sload\n      dup2\n      mstore\n      0x20\n      add\n      0x08\n      dup3\n      add\n      0x00\n      swap1\n      sload\n      swap1\n      0x0100\n      exp\n      swap1\n      div\n      0xff\n      and\n      iszero\n      iszero\n      iszero\n      iszero\n      dup2\n      mstore\n      0x20\n      add\n      0x08\n      dup3\n      add\n      0x01\n      swap1\n      sload\n      swap1\n      0x0100\n      exp\n      swap1\n      div\n      0xff\n      and\n      iszero\n      iszero\n      iszero\n      iszero\n      dup2\n      mstore\n      0x20\n      add\n      0x08\n      dup3\n      add\n      0x02\n      swap1\n      sload\n      swap1\n      0x0100\n      exp\n      swap1\n      div\n      0xff\n      and\n      iszero\n      iszero\n      iszero\n      iszero\n      dup2\n      mstore\n      pop\n      pop\n      swap1\n      pop\n        /* \"contracts/PlaceholderAdsMarketplace.sol\":8214:8234  uint256 CurrentPrice */\n      0x00\n        /* \"contracts/PlaceholderAdsMarketplace.sol\":8237:8254  getCurrentPrice() */\n      tag_196\n        /* \"contracts/PlaceholderAdsMarketplace.sol\":8237:8252  getCurrentPrice */\n      tag_55\n        /* \"contracts/PlaceholderAdsMarketplace.sol\":8237:8254  getCurrentPrice() */\n      jump\t// in\n    tag_196:\n        /* \"contracts/PlaceholderAdsMarketplace.sol\":8214:8254  uint256 CurrentPrice = getCurrentPrice() */\n      swap1\n      pop\n        /* \"contracts/PlaceholderAdsMarketplace.sol\":8285:8286  a */\n      dup2\n        /* \"contracts/PlaceholderAdsMarketplace.sol\":8285:8297  a.startPrice */\n      0x00\n      add\n      mload\n        /* \"contracts/PlaceholderAdsMarketplace.sol\":8311:8312  a */\n      dup3\n        /* \"contracts/PlaceholderAdsMarketplace.sol\":8311:8321  a.endPrice */\n      0x20\n      add\n      mload\n        /* \"contracts/PlaceholderAdsMarketplace.sol\":8335:8347  CurrentPrice */\n      dup3\n        /* \"contracts/PlaceholderAdsMarketplace.sol\":8361:8362  a */\n      dup5\n        /* \"contracts/PlaceholderAdsMarketplace.sol\":8361:8372  a.startTime */\n      0x40\n      add\n      mload\n        /* \"contracts/PlaceholderAdsMarketplace.sol\":8386:8387  a */\n      dup6\n        /* \"contracts/PlaceholderAdsMarketplace.sol\":8386:8396  a.duration */\n      0x60\n      add\n      mload\n        /* \"contracts/PlaceholderAdsMarketplace.sol\":8410:8411  a */\n      dup7\n        /* \"contracts/PlaceholderAdsMarketplace.sol\":8410:8418  a.winner */\n      0x80\n      add\n      mload\n        /* \"contracts/PlaceholderAdsMarketplace.sol\":8432:8433  a */\n      dup8\n        /* \"contracts/PlaceholderAdsMarketplace.sol\":8432:8444  a.winningBid */\n      0xa0\n      add\n      mload\n        /* \"contracts/PlaceholderAdsMarketplace.sol\":8458:8459  a */\n      dup9\n        /* \"contracts/PlaceholderAdsMarketplace.sol\":8458:8474  a.winningTokenId */\n      0xc0\n      add\n      mload\n        /* \"contracts/PlaceholderAdsMarketplace.sol\":8488:8489  a */\n      dup10\n        /* \"contracts/PlaceholderAdsMarketplace.sol\":8488:8501  a.lastBidTime */\n      0xe0\n      add\n      mload\n        /* \"contracts/PlaceholderAdsMarketplace.sol\":8515:8516  a */\n      dup11\n        /* \"contracts/PlaceholderAdsMarketplace.sol\":8515:8531  a.proofSubmitted */\n      0x0100\n      add\n      mload\n        /* \"contracts/PlaceholderAdsMarketplace.sol\":8545:8546  a */\n      dup12\n        /* \"contracts/PlaceholderAdsMarketplace.sol\":8545:8554  a.claimed */\n      0x0120\n      add\n      mload\n        /* \"contracts/PlaceholderAdsMarketplace.sol\":8568:8569  a */\n      dup13\n        /* \"contracts/PlaceholderAdsMarketplace.sol\":8568:8575  a.ended */\n      0x0140\n      add\n      mload\n        /* \"contracts/PlaceholderAdsMarketplace.sol\":8264:8585  return (... */\n      swap14\n      pop\n      swap14\n      pop\n      swap14\n      pop\n      swap14\n      pop\n      swap14\n      pop\n      swap14\n      pop\n      swap14\n      pop\n      swap14\n      pop\n      swap14\n      pop\n      swap14\n      pop\n      swap14\n      pop\n      swap14\n      pop\n      pop\n      pop\n        /* \"contracts/PlaceholderAdsMarketplace.sol\":7706:8592  function getAuctionInfo()... */\n      swap1\n      swap2\n      swap3\n      swap4\n      swap5\n      swap6\n      swap7\n      swap8\n      swap9\n      swap10\n      swap11\n      swap12\n      jump\t// out\n        /* \"contracts/PlaceholderAdsMarketplace.sol\":3203:4070  function getCurrentPrice() public view returns (uint256) {... */\n    tag_55:\n        /* \"contracts/PlaceholderAdsMarketplace.sol\":3251:3258  uint256 */\n      0x00\n        /* \"contracts/PlaceholderAdsMarketplace.sol\":3305:3319  currentAuction */\n      0x03\n        /* \"contracts/PlaceholderAdsMarketplace.sol\":3305:3329  currentAuction.startTime */\n      0x02\n      add\n      sload\n        /* \"contracts/PlaceholderAdsMarketplace.sol\":3287:3302  block.timestamp */\n      timestamp\n        /* \"contracts/PlaceholderAdsMarketplace.sol\":3287:3329  block.timestamp < currentAuction.startTime */\n      lt\n        /* \"contracts/PlaceholderAdsMarketplace.sol\":3287:3374  block.timestamp < currentAuction.startTime ||... */\n      dup1\n      tag_198\n      jumpi\n      pop\n        /* \"contracts/PlaceholderAdsMarketplace.sol\":3373:3374  0 */\n      0x00\n        /* \"contracts/PlaceholderAdsMarketplace.sol\":3345:3359  currentAuction */\n      0x03\n        /* \"contracts/PlaceholderAdsMarketplace.sol\":3345:3369  currentAuction.startTime */\n      0x02\n      add\n      sload\n        /* \"contracts/PlaceholderAdsMarketplace.sol\":3345:3374  currentAuction.startTime == 0 */\n      eq\n        /* \"contracts/PlaceholderAdsMarketplace.sol\":3287:3374  block.timestamp < currentAuction.startTime ||... */\n    tag_198:\n        /* \"contracts/PlaceholderAdsMarketplace.sol\":3287:3410  block.timestamp < currentAuction.startTime ||... */\n      dup1\n      tag_199\n      jumpi\n      pop\n        /* \"contracts/PlaceholderAdsMarketplace.sol\":3390:3404  currentAuction */\n      0x03\n        /* \"contracts/PlaceholderAdsMarketplace.sol\":3390:3410  currentAuction.ended */\n      0x08\n      add\n      0x02\n      swap1\n      sload\n      swap1\n      0x0100\n      exp\n      swap1\n      div\n      0xff\n      and\n        /* \"contracts/PlaceholderAdsMarketplace.sol\":3287:3410  block.timestamp < currentAuction.startTime ||... */\n    tag_199:\n        /* \"contracts/PlaceholderAdsMarketplace.sol\":3270:3478  if (... */\n      iszero\n      tag_200\n      jumpi\n        /* \"contracts/PlaceholderAdsMarketplace.sol\":3442:3456  currentAuction */\n      0x03\n        /* \"contracts/PlaceholderAdsMarketplace.sol\":3442:3467  currentAuction.startPrice */\n      0x00\n      add\n      sload\n        /* \"contracts/PlaceholderAdsMarketplace.sol\":3435:3467  return currentAuction.startPrice */\n      swap1\n      pop\n      jump(tag_197)\n        /* \"contracts/PlaceholderAdsMarketplace.sol\":3270:3478  if (... */\n    tag_200:\n        /* \"contracts/PlaceholderAdsMarketplace.sol\":3488:3503  uint256 elapsed */\n      0x00\n        /* \"contracts/PlaceholderAdsMarketplace.sol\":3524:3538  currentAuction */\n      0x03\n        /* \"contracts/PlaceholderAdsMarketplace.sol\":3524:3548  currentAuction.startTime */\n      0x02\n      add\n      sload\n        /* \"contracts/PlaceholderAdsMarketplace.sol\":3506:3521  block.timestamp */\n      timestamp\n        /* \"contracts/PlaceholderAdsMarketplace.sol\":3506:3548  block.timestamp - currentAuction.startTime */\n      tag_201\n      swap2\n      swap1\n      tag_202\n      jump\t// in\n    tag_201:\n        /* \"contracts/PlaceholderAdsMarketplace.sol\":3488:3548  uint256 elapsed = block.timestamp - currentAuction.startTime */\n      swap1\n      pop\n        /* \"contracts/PlaceholderAdsMarketplace.sol\":3573:3587  currentAuction */\n      0x03\n        /* \"contracts/PlaceholderAdsMarketplace.sol\":3573:3596  currentAuction.duration */\n      dup1\n      add\n      sload\n        /* \"contracts/PlaceholderAdsMarketplace.sol\":3562:3569  elapsed */\n      dup2\n        /* \"contracts/PlaceholderAdsMarketplace.sol\":3562:3596  elapsed >= currentAuction.duration */\n      lt\n        /* \"contracts/PlaceholderAdsMarketplace.sol\":3558:3653  if (elapsed >= currentAuction.duration) {... */\n      tag_203\n      jumpi\n        /* \"contracts/PlaceholderAdsMarketplace.sol\":3619:3633  currentAuction */\n      0x03\n        /* \"contracts/PlaceholderAdsMarketplace.sol\":3619:3642  currentAuction.endPrice */\n      0x01\n      add\n      sload\n        /* \"contracts/PlaceholderAdsMarketplace.sol\":3612:3642  return currentAuction.endPrice */\n      swap2\n      pop\n      pop\n      jump(tag_197)\n        /* \"contracts/PlaceholderAdsMarketplace.sol\":3558:3653  if (elapsed >= currentAuction.duration) {... */\n    tag_203:\n        /* \"contracts/PlaceholderAdsMarketplace.sol\":3724:3746  uint256 totalPriceDiff */\n      0x00\n        /* \"contracts/PlaceholderAdsMarketplace.sol\":3789:3803  currentAuction */\n      0x03\n        /* \"contracts/PlaceholderAdsMarketplace.sol\":3789:3812  currentAuction.endPrice */\n      0x01\n      add\n      sload\n        /* \"contracts/PlaceholderAdsMarketplace.sol\":3749:3763  currentAuction */\n      0x03\n        /* \"contracts/PlaceholderAdsMarketplace.sol\":3749:3774  currentAuction.startPrice */\n      0x00\n      add\n      sload\n        /* \"contracts/PlaceholderAdsMarketplace.sol\":3749:3812  currentAuction.startPrice -... */\n      tag_204\n      swap2\n      swap1\n      tag_202\n      jump\t// in\n    tag_204:\n        /* \"contracts/PlaceholderAdsMarketplace.sol\":3724:3812  uint256 totalPriceDiff = currentAuction.startPrice -... */\n      swap1\n      pop\n        /* \"contracts/PlaceholderAdsMarketplace.sol\":3822:3846  uint256 currentPriceDrop */\n      0x00\n        /* \"contracts/PlaceholderAdsMarketplace.sol\":3897:3911  currentAuction */\n      0x03\n        /* \"contracts/PlaceholderAdsMarketplace.sol\":3897:3920  currentAuction.duration */\n      dup1\n      add\n      sload\n        /* \"contracts/PlaceholderAdsMarketplace.sol\":3877:3881  1e18 */\n      0x0de0b6b3a7640000\n        /* \"contracts/PlaceholderAdsMarketplace.sol\":3867:3874  elapsed */\n      dup5\n        /* \"contracts/PlaceholderAdsMarketplace.sol\":3850:3864  totalPriceDiff */\n      dup5\n        /* \"contracts/PlaceholderAdsMarketplace.sol\":3850:3874  totalPriceDiff * elapsed */\n      tag_205\n      swap2\n      swap1\n      tag_206\n      jump\t// in\n    tag_205:\n        /* \"contracts/PlaceholderAdsMarketplace.sol\":3850:3881  totalPriceDiff * elapsed * 1e18 */\n      tag_207\n      swap2\n      swap1\n      tag_206\n      jump\t// in\n    tag_207:\n        /* \"contracts/PlaceholderAdsMarketplace.sol\":3849:3920  (totalPriceDiff * elapsed * 1e18) /... */\n      tag_208\n      swap2\n      swap1\n      tag_209\n      jump\t// in\n    tag_208:\n        /* \"contracts/PlaceholderAdsMarketplace.sol\":3822:3920  uint256 currentPriceDrop = (totalPriceDiff * elapsed * 1e18) /... */\n      swap1\n      pop\n        /* \"contracts/PlaceholderAdsMarketplace.sol\":3968:3972  1e18 */\n      0x0de0b6b3a7640000\n        /* \"contracts/PlaceholderAdsMarketplace.sol\":3949:3965  currentPriceDrop */\n      dup2\n        /* \"contracts/PlaceholderAdsMarketplace.sol\":3949:3972  currentPriceDrop / 1e18 */\n      tag_210\n      swap2\n      swap1\n      tag_209\n      jump\t// in\n    tag_210:\n        /* \"contracts/PlaceholderAdsMarketplace.sol\":3930:3972  currentPriceDrop = currentPriceDrop / 1e18 */\n      swap1\n      pop\n        /* \"contracts/PlaceholderAdsMarketplace.sol\":4047:4063  currentPriceDrop */\n      dup1\n        /* \"contracts/PlaceholderAdsMarketplace.sol\":4019:4033  currentAuction */\n      0x03\n        /* \"contracts/PlaceholderAdsMarketplace.sol\":4019:4044  currentAuction.startPrice */\n      0x00\n      add\n      sload\n        /* \"contracts/PlaceholderAdsMarketplace.sol\":4019:4063  currentAuction.startPrice - currentPriceDrop */\n      tag_211\n      swap2\n      swap1\n      tag_202\n      jump\t// in\n    tag_211:\n        /* \"contracts/PlaceholderAdsMarketplace.sol\":4012:4063  return currentAuction.startPrice - currentPriceDrop */\n      swap4\n      pop\n      pop\n      pop\n      pop\n        /* \"contracts/PlaceholderAdsMarketplace.sol\":3203:4070  function getCurrentPrice() public view returns (uint256) {... */\n    tag_197:\n      swap1\n      jump\t// out\n        /* \"@openzeppelin/contracts/security/ReentrancyGuard.sol\":2336:2623  function _nonReentrantBefore() private {... */\n    tag_94:\n        /* \"@openzeppelin/contracts/security/ReentrancyGuard.sol\":1759:1760  2 */\n      0x02\n        /* \"@openzeppelin/contracts/security/ReentrancyGuard.sol\":2468:2475  _status */\n      sload(0x00)\n        /* \"@openzeppelin/contracts/security/ReentrancyGuard.sol\":2468:2487  _status != _ENTERED */\n      sub\n        /* \"@openzeppelin/contracts/security/ReentrancyGuard.sol\":2460:2523  require(_status != _ENTERED, \"ReentrancyGuard: reentrant call\") */\n      tag_213\n      jumpi\n      mload(0x40)\n      0x08c379a000000000000000000000000000000000000000000000000000000000\n      dup2\n      mstore\n      0x04\n      add\n      tag_214\n      swap1\n      tag_215\n      jump\t// in\n    tag_214:\n      mload(0x40)\n      dup1\n      swap2\n      sub\n      swap1\n      revert\n    tag_213:\n        /* \"@openzeppelin/contracts/security/ReentrancyGuard.sol\":1759:1760  2 */\n      0x02\n        /* \"@openzeppelin/contracts/security/ReentrancyGuard.sol\":2598:2605  _status */\n      0x00\n        /* \"@openzeppelin/contracts/security/ReentrancyGuard.sol\":2598:2616  _status = _ENTERED */\n      dup2\n      swap1\n      sstore\n      pop\n        /* \"@openzeppelin/contracts/security/ReentrancyGuard.sol\":2336:2623  function _nonReentrantBefore() private {... */\n      jump\t// out\n        /* \"@openzeppelin/contracts/security/ReentrancyGuard.sol\":2629:2838  function _nonReentrantAfter() private {... */\n    tag_170:\n        /* \"@openzeppelin/contracts/security/ReentrancyGuard.sol\":1716:1717  1 */\n      0x01\n        /* \"@openzeppelin/contracts/security/ReentrancyGuard.sol\":2809:2816  _status */\n      0x00\n        /* \"@openzeppelin/contracts/security/ReentrancyGuard.sol\":2809:2831  _status = _NOT_ENTERED */\n      dup2\n      swap1\n      sstore\n      pop\n        /* \"@openzeppelin/contracts/security/ReentrancyGuard.sol\":2629:2838  function _nonReentrantAfter() private {... */\n      jump\t// out\n        /* \"#utility.yul\":88:205   */\n    tag_218:\n        /* \"#utility.yul\":197:198   */\n      0x00\n        /* \"#utility.yul\":194:195   */\n      0x00\n        /* \"#utility.yul\":187:199   */\n      revert\n        /* \"#utility.yul\":334:460   */\n    tag_220:\n        /* \"#utility.yul\":371:378   */\n      0x00\n        /* \"#utility.yul\":411:453   */\n      0xffffffffffffffffffffffffffffffffffffffff\n        /* \"#utility.yul\":404:409   */\n      dup3\n        /* \"#utility.yul\":400:454   */\n      and\n        /* \"#utility.yul\":389:454   */\n      swap1\n      pop\n        /* \"#utility.yul\":334:460   */\n      swap2\n      swap1\n      pop\n      jump\t// out\n        /* \"#utility.yul\":466:562   */\n    tag_221:\n        /* \"#utility.yul\":503:510   */\n      0x00\n        /* \"#utility.yul\":532:556   */\n      tag_292\n        /* \"#utility.yul\":550:555   */\n      dup3\n        /* \"#utility.yul\":532:556   */\n      tag_220\n      jump\t// in\n    tag_292:\n        /* \"#utility.yul\":521:556   */\n      swap1\n      pop\n        /* \"#utility.yul\":466:562   */\n      swap2\n      swap1\n      pop\n      jump\t// out\n        /* \"#utility.yul\":568:690   */\n    tag_222:\n        /* \"#utility.yul\":641:665   */\n      tag_294\n        /* \"#utility.yul\":659:664   */\n      dup2\n        /* \"#utility.yul\":641:665   */\n      tag_221\n      jump\t// in\n    tag_294:\n        /* \"#utility.yul\":634:639   */\n      dup2\n        /* \"#utility.yul\":631:666   */\n      eq\n        /* \"#utility.yul\":621:684   */\n      tag_295\n      jumpi\n        /* \"#utility.yul\":680:681   */\n      0x00\n        /* \"#utility.yul\":677:678   */\n      0x00\n        /* \"#utility.yul\":670:682   */\n      revert\n        /* \"#utility.yul\":621:684   */\n    tag_295:\n        /* \"#utility.yul\":568:690   */\n      pop\n      jump\t// out\n        /* \"#utility.yul\":696:835   */\n    tag_223:\n        /* \"#utility.yul\":742:747   */\n      0x00\n        /* \"#utility.yul\":780:786   */\n      dup2\n        /* \"#utility.yul\":767:787   */\n      calldataload\n        /* \"#utility.yul\":758:787   */\n      swap1\n      pop\n        /* \"#utility.yul\":796:829   */\n      tag_297\n        /* \"#utility.yul\":823:828   */\n      dup2\n        /* \"#utility.yul\":796:829   */\n      tag_222\n      jump\t// in\n    tag_297:\n        /* \"#utility.yul\":696:835   */\n      swap3\n      swap2\n      pop\n      pop\n      jump\t// out\n        /* \"#utility.yul\":841:1170   */\n    tag_17:\n        /* \"#utility.yul\":900:906   */\n      0x00\n        /* \"#utility.yul\":949:951   */\n      0x20\n        /* \"#utility.yul\":937:946   */\n      dup3\n        /* \"#utility.yul\":928:935   */\n      dup5\n        /* \"#utility.yul\":924:947   */\n      sub\n        /* \"#utility.yul\":920:952   */\n      slt\n        /* \"#utility.yul\":917:1036   */\n      iszero\n      tag_299\n      jumpi\n        /* \"#utility.yul\":955:1034   */\n      tag_300\n      tag_218\n      jump\t// in\n    tag_300:\n        /* \"#utility.yul\":917:1036   */\n    tag_299:\n        /* \"#utility.yul\":1075:1076   */\n      0x00\n        /* \"#utility.yul\":1100:1153   */\n      tag_301\n        /* \"#utility.yul\":1145:1152   */\n      dup5\n        /* \"#utility.yul\":1136:1142   */\n      dup3\n        /* \"#utility.yul\":1125:1134   */\n      dup6\n        /* \"#utility.yul\":1121:1143   */\n      add\n        /* \"#utility.yul\":1100:1153   */\n      tag_223\n      jump\t// in\n    tag_301:\n        /* \"#utility.yul\":1090:1153   */\n      swap2\n      pop\n        /* \"#utility.yul\":1046:1163   */\n      pop\n        /* \"#utility.yul\":841:1170   */\n      swap3\n      swap2\n      pop\n      pop\n      jump\t// out\n        /* \"#utility.yul\":1176:1253   */\n    tag_224:\n        /* \"#utility.yul\":1213:1220   */\n      0x00\n        /* \"#utility.yul\":1242:1247   */\n      dup2\n        /* \"#utility.yul\":1231:1247   */\n      swap1\n      pop\n        /* \"#utility.yul\":1176:1253   */\n      swap2\n      swap1\n      pop\n      jump\t// out\n        /* \"#utility.yul\":1259:1381   */\n    tag_225:\n        /* \"#utility.yul\":1332:1356   */\n      tag_304\n        /* \"#utility.yul\":1350:1355   */\n      dup2\n        /* \"#utility.yul\":1332:1356   */\n      tag_224\n      jump\t// in\n    tag_304:\n        /* \"#utility.yul\":1325:1330   */\n      dup2\n        /* \"#utility.yul\":1322:1357   */\n      eq\n        /* \"#utility.yul\":1312:1375   */\n      tag_305\n      jumpi\n        /* \"#utility.yul\":1371:1372   */\n      0x00\n        /* \"#utility.yul\":1368:1369   */\n      0x00\n        /* \"#utility.yul\":1361:1373   */\n      revert\n        /* \"#utility.yul\":1312:1375   */\n    tag_305:\n        /* \"#utility.yul\":1259:1381   */\n      pop\n      jump\t// out\n        /* \"#utility.yul\":1387:1526   */\n    tag_226:\n        /* \"#utility.yul\":1433:1438   */\n      0x00\n        /* \"#utility.yul\":1471:1477   */\n      dup2\n        /* \"#utility.yul\":1458:1478   */\n      calldataload\n        /* \"#utility.yul\":1449:1478   */\n      swap1\n      pop\n        /* \"#utility.yul\":1487:1520   */\n      tag_307\n        /* \"#utility.yul\":1514:1519   */\n      dup2\n        /* \"#utility.yul\":1487:1520   */\n      tag_225\n      jump\t// in\n    tag_307:\n        /* \"#utility.yul\":1387:1526   */\n      swap3\n      swap2\n      pop\n      pop\n      jump\t// out\n        /* \"#utility.yul\":1532:1609   */\n    tag_227:\n        /* \"#utility.yul\":1569:1576   */\n      0x00\n        /* \"#utility.yul\":1598:1603   */\n      dup2\n        /* \"#utility.yul\":1587:1603   */\n      swap1\n      pop\n        /* \"#utility.yul\":1532:1609   */\n      swap2\n      swap1\n      pop\n      jump\t// out\n        /* \"#utility.yul\":1615:1737   */\n    tag_228:\n        /* \"#utility.yul\":1688:1712   */\n      tag_310\n        /* \"#utility.yul\":1706:1711   */\n      dup2\n        /* \"#utility.yul\":1688:1712   */\n      tag_227\n      jump\t// in\n    tag_310:\n        /* \"#utility.yul\":1681:1686   */\n      dup2\n        /* \"#utility.yul\":1678:1713   */\n      eq\n        /* \"#utility.yul\":1668:1731   */\n      tag_311\n      jumpi\n        /* \"#utility.yul\":1727:1728   */\n      0x00\n        /* \"#utility.yul\":1724:1725   */\n      0x00\n        /* \"#utility.yul\":1717:1729   */\n      revert\n        /* \"#utility.yul\":1668:1731   */\n    tag_311:\n        /* \"#utility.yul\":1615:1737   */\n      pop\n      jump\t// out\n        /* \"#utility.yul\":1743:1882   */\n    tag_229:\n        /* \"#utility.yul\":1789:1794   */\n      0x00\n        /* \"#utility.yul\":1827:1833   */\n      dup2\n        /* \"#utility.yul\":1814:1834   */\n      calldataload\n        /* \"#utility.yul\":1805:1834   */\n      swap1\n      pop\n        /* \"#utility.yul\":1843:1876   */\n      tag_313\n        /* \"#utility.yul\":1870:1875   */\n      dup2\n        /* \"#utility.yul\":1843:1876   */\n      tag_228\n      jump\t// in\n    tag_313:\n        /* \"#utility.yul\":1743:1882   */\n      swap3\n      swap2\n      pop\n      pop\n      jump\t// out\n        /* \"#utility.yul\":1888:2362   */\n    tag_21:\n        /* \"#utility.yul\":1956:1962   */\n      0x00\n        /* \"#utility.yul\":1964:1970   */\n      0x00\n        /* \"#utility.yul\":2013:2015   */\n      0x40\n        /* \"#utility.yul\":2001:2010   */\n      dup4\n        /* \"#utility.yul\":1992:1999   */\n      dup6\n        /* \"#utility.yul\":1988:2011   */\n      sub\n        /* \"#utility.yul\":1984:2016   */\n      slt\n        /* \"#utility.yul\":1981:2100   */\n      iszero\n      tag_315\n      jumpi\n        /* \"#utility.yul\":2019:2098   */\n      tag_316\n      tag_218\n      jump\t// in\n    tag_316:\n        /* \"#utility.yul\":1981:2100   */\n    tag_315:\n        /* \"#utility.yul\":2139:2140   */\n      0x00\n        /* \"#utility.yul\":2164:2217   */\n      tag_317\n        /* \"#utility.yul\":2209:2216   */\n      dup6\n        /* \"#utility.yul\":2200:2206   */\n      dup3\n        /* \"#utility.yul\":2189:2198   */\n      dup7\n        /* \"#utility.yul\":2185:2207   */\n      add\n        /* \"#utility.yul\":2164:2217   */\n      tag_226\n      jump\t// in\n    tag_317:\n        /* \"#utility.yul\":2154:2217   */\n      swap3\n      pop\n        /* \"#utility.yul\":2110:2227   */\n      pop\n        /* \"#utility.yul\":2266:2268   */\n      0x20\n        /* \"#utility.yul\":2292:2345   */\n      tag_318\n        /* \"#utility.yul\":2337:2344   */\n      dup6\n        /* \"#utility.yul\":2328:2334   */\n      dup3\n        /* \"#utility.yul\":2317:2326   */\n      dup7\n        /* \"#utility.yul\":2313:2335   */\n      add\n        /* \"#utility.yul\":2292:2345   */\n      tag_229\n      jump\t// in\n    tag_318:\n        /* \"#utility.yul\":2282:2345   */\n      swap2\n      pop\n        /* \"#utility.yul\":2237:2355   */\n      pop\n        /* \"#utility.yul\":1888:2362   */\n      swap3\n      pop\n      swap3\n      swap1\n      pop\n      jump\t// out\n        /* \"#utility.yul\":2368:2486   */\n    tag_230:\n        /* \"#utility.yul\":2455:2479   */\n      tag_320\n        /* \"#utility.yul\":2473:2478   */\n      dup2\n        /* \"#utility.yul\":2455:2479   */\n      tag_224\n      jump\t// in\n    tag_320:\n        /* \"#utility.yul\":2450:2453   */\n      dup3\n        /* \"#utility.yul\":2443:2480   */\n      mstore\n        /* \"#utility.yul\":2368:2486   */\n      pop\n      pop\n      jump\t// out\n        /* \"#utility.yul\":2492:2714   */\n    tag_26:\n        /* \"#utility.yul\":2585:2589   */\n      0x00\n        /* \"#utility.yul\":2623:2625   */\n      0x20\n        /* \"#utility.yul\":2612:2621   */\n      dup3\n        /* \"#utility.yul\":2608:2626   */\n      add\n        /* \"#utility.yul\":2600:2626   */\n      swap1\n      pop\n        /* \"#utility.yul\":2636:2707   */\n      tag_322\n        /* \"#utility.yul\":2704:2705   */\n      0x00\n        /* \"#utility.yul\":2693:2702   */\n      dup4\n        /* \"#utility.yul\":2689:2706   */\n      add\n        /* \"#utility.yul\":2680:2686   */\n      dup5\n        /* \"#utility.yul\":2636:2707   */\n      tag_230\n      jump\t// in\n    tag_322:\n        /* \"#utility.yul\":2492:2714   */\n      swap3\n      swap2\n      pop\n      pop\n      jump\t// out\n        /* \"#utility.yul\":2720:2838   */\n    tag_231:\n        /* \"#utility.yul\":2807:2831   */\n      tag_324\n        /* \"#utility.yul\":2825:2830   */\n      dup2\n        /* \"#utility.yul\":2807:2831   */\n      tag_221\n      jump\t// in\n    tag_324:\n        /* \"#utility.yul\":2802:2805   */\n      dup3\n        /* \"#utility.yul\":2795:2832   */\n      mstore\n        /* \"#utility.yul\":2720:2838   */\n      pop\n      pop\n      jump\t// out\n        /* \"#utility.yul\":2844:2934   */\n    tag_232:\n        /* \"#utility.yul\":2878:2885   */\n      0x00\n        /* \"#utility.yul\":2921:2926   */\n      dup2\n        /* \"#utility.yul\":2914:2927   */\n      iszero\n        /* \"#utility.yul\":2907:2928   */\n      iszero\n        /* \"#utility.yul\":2896:2928   */\n      swap1\n      pop\n        /* \"#utility.yul\":2844:2934   */\n      swap2\n      swap1\n      pop\n      jump\t// out\n        /* \"#utility.yul\":2940:3049   */\n    tag_233:\n        /* \"#utility.yul\":3021:3042   */\n      tag_327\n        /* \"#utility.yul\":3036:3041   */\n      dup2\n        /* \"#utility.yul\":3021:3042   */\n      tag_232\n      jump\t// in\n    tag_327:\n        /* \"#utility.yul\":3016:3019   */\n      dup3\n        /* \"#utility.yul\":3009:3043   */\n      mstore\n        /* \"#utility.yul\":2940:3049   */\n      pop\n      pop\n      jump\t// out\n        /* \"#utility.yul\":3055:4351   */\n    tag_30:\n        /* \"#utility.yul\":3411:3415   */\n      0x00\n        /* \"#utility.yul\":3449:3452   */\n      0x0160\n        /* \"#utility.yul\":3438:3447   */\n      dup3\n        /* \"#utility.yul\":3434:3453   */\n      add\n        /* \"#utility.yul\":3426:3453   */\n      swap1\n      pop\n        /* \"#utility.yul\":3463:3534   */\n      tag_329\n        /* \"#utility.yul\":3531:3532   */\n      0x00\n        /* \"#utility.yul\":3520:3529   */\n      dup4\n        /* \"#utility.yul\":3516:3533   */\n      add\n        /* \"#utility.yul\":3507:3513   */\n      dup15\n        /* \"#utility.yul\":3463:3534   */\n      tag_230\n      jump\t// in\n    tag_329:\n        /* \"#utility.yul\":3544:3616   */\n      tag_330\n        /* \"#utility.yul\":3612:3614   */\n      0x20\n        /* \"#utility.yul\":3601:3610   */\n      dup4\n        /* \"#utility.yul\":3597:3615   */\n      add\n        /* \"#utility.yul\":3588:3594   */\n      dup14\n        /* \"#utility.yul\":3544:3616   */\n      tag_230\n      jump\t// in\n    tag_330:\n        /* \"#utility.yul\":3626:3698   */\n      tag_331\n        /* \"#utility.yul\":3694:3696   */\n      0x40\n        /* \"#utility.yul\":3683:3692   */\n      dup4\n        /* \"#utility.yul\":3679:3697   */\n      add\n        /* \"#utility.yul\":3670:3676   */\n      dup13\n        /* \"#utility.yul\":3626:3698   */\n      tag_230\n      jump\t// in\n    tag_331:\n        /* \"#utility.yul\":3708:3780   */\n      tag_332\n        /* \"#utility.yul\":3776:3778   */\n      0x60\n        /* \"#utility.yul\":3765:3774   */\n      dup4\n        /* \"#utility.yul\":3761:3779   */\n      add\n        /* \"#utility.yul\":3752:3758   */\n      dup12\n        /* \"#utility.yul\":3708:3780   */\n      tag_230\n      jump\t// in\n    tag_332:\n        /* \"#utility.yul\":3790:3863   */\n      tag_333\n        /* \"#utility.yul\":3858:3861   */\n      0x80\n        /* \"#utility.yul\":3847:3856   */\n      dup4\n        /* \"#utility.yul\":3843:3862   */\n      add\n        /* \"#utility.yul\":3834:3840   */\n      dup11\n        /* \"#utility.yul\":3790:3863   */\n      tag_231\n      jump\t// in\n    tag_333:\n        /* \"#utility.yul\":3873:3946   */\n      tag_334\n        /* \"#utility.yul\":3941:3944   */\n      0xa0\n        /* \"#utility.yul\":3930:3939   */\n      dup4\n        /* \"#utility.yul\":3926:3945   */\n      add\n        /* \"#utility.yul\":3917:3923   */\n      dup10\n        /* \"#utility.yul\":3873:3946   */\n      tag_230\n      jump\t// in\n    tag_334:\n        /* \"#utility.yul\":3956:4029   */\n      tag_335\n        /* \"#utility.yul\":4024:4027   */\n      0xc0\n        /* \"#utility.yul\":4013:4022   */\n      dup4\n        /* \"#utility.yul\":4009:4028   */\n      add\n        /* \"#utility.yul\":4000:4006   */\n      dup9\n        /* \"#utility.yul\":3956:4029   */\n      tag_230\n      jump\t// in\n    tag_335:\n        /* \"#utility.yul\":4039:4112   */\n      tag_336\n        /* \"#utility.yul\":4107:4110   */\n      0xe0\n        /* \"#utility.yul\":4096:4105   */\n      dup4\n        /* \"#utility.yul\":4092:4111   */\n      add\n        /* \"#utility.yul\":4083:4089   */\n      dup8\n        /* \"#utility.yul\":4039:4112   */\n      tag_230\n      jump\t// in\n    tag_336:\n        /* \"#utility.yul\":4122:4189   */\n      tag_337\n        /* \"#utility.yul\":4184:4187   */\n      0x0100\n        /* \"#utility.yul\":4173:4182   */\n      dup4\n        /* \"#utility.yul\":4169:4188   */\n      add\n        /* \"#utility.yul\":4160:4166   */\n      dup7\n        /* \"#utility.yul\":4122:4189   */\n      tag_233\n      jump\t// in\n    tag_337:\n        /* \"#utility.yul\":4199:4266   */\n      tag_338\n        /* \"#utility.yul\":4261:4264   */\n      0x0120\n        /* \"#utility.yul\":4250:4259   */\n      dup4\n        /* \"#utility.yul\":4246:4265   */\n      add\n        /* \"#utility.yul\":4237:4243   */\n      dup6\n        /* \"#utility.yul\":4199:4266   */\n      tag_233\n      jump\t// in\n    tag_338:\n        /* \"#utility.yul\":4276:4344   */\n      tag_339\n        /* \"#utility.yul\":4339:4342   */\n      0x0140\n        /* \"#utility.yul\":4328:4337   */\n      dup4\n        /* \"#utility.yul\":4324:4343   */\n      add\n        /* \"#utility.yul\":4314:4321   */\n      dup5\n        /* \"#utility.yul\":4276:4344   */\n      tag_233\n      jump\t// in\n    tag_339:\n        /* \"#utility.yul\":3055:4351   */\n      swap13\n      swap12\n      pop\n      pop\n      pop\n      pop\n      pop\n      pop\n      pop\n      pop\n      pop\n      pop\n      pop\n      pop\n      jump\t// out\n        /* \"#utility.yul\":4357:4831   */\n    tag_33:\n        /* \"#utility.yul\":4425:4431   */\n      0x00\n        /* \"#utility.yul\":4433:4439   */\n      0x00\n        /* \"#utility.yul\":4482:4484   */\n      0x40\n        /* \"#utility.yul\":4470:4479   */\n      dup4\n        /* \"#utility.yul\":4461:4468   */\n      dup6\n        /* \"#utility.yul\":4457:4480   */\n      sub\n        /* \"#utility.yul\":4453:4485   */\n      slt\n        /* \"#utility.yul\":4450:4569   */\n      iszero\n      tag_341\n      jumpi\n        /* \"#utility.yul\":4488:4567   */\n      tag_342\n      tag_218\n      jump\t// in\n    tag_342:\n        /* \"#utility.yul\":4450:4569   */\n    tag_341:\n        /* \"#utility.yul\":4608:4609   */\n      0x00\n        /* \"#utility.yul\":4633:4686   */\n      tag_343\n        /* \"#utility.yul\":4678:4685   */\n      dup6\n        /* \"#utility.yul\":4669:4675   */\n      dup3\n        /* \"#utility.yul\":4658:4667   */\n      dup7\n        /* \"#utility.yul\":4654:4676   */\n      add\n        /* \"#utility.yul\":4633:4686   */\n      tag_226\n      jump\t// in\n    tag_343:\n        /* \"#utility.yul\":4623:4686   */\n      swap3\n      pop\n        /* \"#utility.yul\":4579:4696   */\n      pop\n        /* \"#utility.yul\":4735:4737   */\n      0x20\n        /* \"#utility.yul\":4761:4814   */\n      tag_344\n        /* \"#utility.yul\":4806:4813   */\n      dup6\n        /* \"#utility.yul\":4797:4803   */\n      dup3\n        /* \"#utility.yul\":4786:4795   */\n      dup7\n        /* \"#utility.yul\":4782:4804   */\n      add\n        /* \"#utility.yul\":4761:4814   */\n      tag_226\n      jump\t// in\n    tag_344:\n        /* \"#utility.yul\":4751:4814   */\n      swap2\n      pop\n        /* \"#utility.yul\":4706:4824   */\n      pop\n        /* \"#utility.yul\":4357:4831   */\n      swap3\n      pop\n      swap3\n      swap1\n      pop\n      jump\t// out\n        /* \"#utility.yul\":4837:5059   */\n    tag_38:\n        /* \"#utility.yul\":4930:4934   */\n      0x00\n        /* \"#utility.yul\":4968:4970   */\n      0x20\n        /* \"#utility.yul\":4957:4966   */\n      dup3\n        /* \"#utility.yul\":4953:4971   */\n      add\n        /* \"#utility.yul\":4945:4971   */\n      swap1\n      pop\n        /* \"#utility.yul\":4981:5052   */\n      tag_346\n        /* \"#utility.yul\":5049:5050   */\n      0x00\n        /* \"#utility.yul\":5038:5047   */\n      dup4\n        /* \"#utility.yul\":5034:5051   */\n      add\n        /* \"#utility.yul\":5025:5031   */\n      dup5\n        /* \"#utility.yul\":4981:5052   */\n      tag_231\n      jump\t// in\n    tag_346:\n        /* \"#utility.yul\":4837:5059   */\n      swap3\n      swap2\n      pop\n      pop\n      jump\t// out\n        /* \"#utility.yul\":5065:5125   */\n    tag_234:\n        /* \"#utility.yul\":5093:5096   */\n      0x00\n        /* \"#utility.yul\":5114:5119   */\n      dup2\n        /* \"#utility.yul\":5107:5119   */\n      swap1\n      pop\n        /* \"#utility.yul\":5065:5125   */\n      swap2\n      swap1\n      pop\n      jump\t// out\n        /* \"#utility.yul\":5131:5273   */\n    tag_235:\n        /* \"#utility.yul\":5181:5190   */\n      0x00\n        /* \"#utility.yul\":5214:5267   */\n      tag_349\n        /* \"#utility.yul\":5232:5266   */\n      tag_350\n        /* \"#utility.yul\":5241:5265   */\n      tag_351\n        /* \"#utility.yul\":5259:5264   */\n      dup5\n        /* \"#utility.yul\":5241:5265   */\n      tag_220\n      jump\t// in\n    tag_351:\n        /* \"#utility.yul\":5232:5266   */\n      tag_234\n      jump\t// in\n    tag_350:\n        /* \"#utility.yul\":5214:5267   */\n      tag_220\n      jump\t// in\n    tag_349:\n        /* \"#utility.yul\":5201:5267   */\n      swap1\n      pop\n        /* \"#utility.yul\":5131:5273   */\n      swap2\n      swap1\n      pop\n      jump\t// out\n        /* \"#utility.yul\":5279:5405   */\n    tag_236:\n        /* \"#utility.yul\":5329:5338   */\n      0x00\n        /* \"#utility.yul\":5362:5399   */\n      tag_353\n        /* \"#utility.yul\":5393:5398   */\n      dup3\n        /* \"#utility.yul\":5362:5399   */\n      tag_235\n      jump\t// in\n    tag_353:\n        /* \"#utility.yul\":5349:5399   */\n      swap1\n      pop\n        /* \"#utility.yul\":5279:5405   */\n      swap2\n      swap1\n      pop\n      jump\t// out\n        /* \"#utility.yul\":5411:5551   */\n    tag_237:\n        /* \"#utility.yul\":5475:5484   */\n      0x00\n        /* \"#utility.yul\":5508:5545   */\n      tag_355\n        /* \"#utility.yul\":5539:5544   */\n      dup3\n        /* \"#utility.yul\":5508:5545   */\n      tag_236\n      jump\t// in\n    tag_355:\n        /* \"#utility.yul\":5495:5545   */\n      swap1\n      pop\n        /* \"#utility.yul\":5411:5551   */\n      swap2\n      swap1\n      pop\n      jump\t// out\n        /* \"#utility.yul\":5557:5716   */\n    tag_238:\n        /* \"#utility.yul\":5658:5709   */\n      tag_357\n        /* \"#utility.yul\":5703:5708   */\n      dup2\n        /* \"#utility.yul\":5658:5709   */\n      tag_237\n      jump\t// in\n    tag_357:\n        /* \"#utility.yul\":5653:5656   */\n      dup3\n        /* \"#utility.yul\":5646:5710   */\n      mstore\n        /* \"#utility.yul\":5557:5716   */\n      pop\n      pop\n      jump\t// out\n        /* \"#utility.yul\":5722:5972   */\n    tag_45:\n        /* \"#utility.yul\":5829:5833   */\n      0x00\n        /* \"#utility.yul\":5867:5869   */\n      0x20\n        /* \"#utility.yul\":5856:5865   */\n      dup3\n        /* \"#utility.yul\":5852:5870   */\n      add\n        /* \"#utility.yul\":5844:5870   */\n      swap1\n      pop\n        /* \"#utility.yul\":5880:5965   */\n      tag_359\n        /* \"#utility.yul\":5962:5963   */\n      0x00\n        /* \"#utility.yul\":5951:5960   */\n      dup4\n        /* \"#utility.yul\":5947:5964   */\n      add\n        /* \"#utility.yul\":5938:5944   */\n      dup5\n        /* \"#utility.yul\":5880:5965   */\n      tag_238\n      jump\t// in\n    tag_359:\n        /* \"#utility.yul\":5722:5972   */\n      swap3\n      swap2\n      pop\n      pop\n      jump\t// out\n        /* \"#utility.yul\":5978:6307   */\n    tag_48:\n        /* \"#utility.yul\":6037:6043   */\n      0x00\n        /* \"#utility.yul\":6086:6088   */\n      0x20\n        /* \"#utility.yul\":6074:6083   */\n      dup3\n        /* \"#utility.yul\":6065:6072   */\n      dup5\n        /* \"#utility.yul\":6061:6084   */\n      sub\n        /* \"#utility.yul\":6057:6089   */\n      slt\n        /* \"#utility.yul\":6054:6173   */\n      iszero\n      tag_361\n      jumpi\n        /* \"#utility.yul\":6092:6171   */\n      tag_362\n      tag_218\n      jump\t// in\n    tag_362:\n        /* \"#utility.yul\":6054:6173   */\n    tag_361:\n        /* \"#utility.yul\":6212:6213   */\n      0x00\n        /* \"#utility.yul\":6237:6290   */\n      tag_363\n        /* \"#utility.yul\":6282:6289   */\n      dup5\n        /* \"#utility.yul\":6273:6279   */\n      dup3\n        /* \"#utility.yul\":6262:6271   */\n      dup6\n        /* \"#utility.yul\":6258:6280   */\n      add\n        /* \"#utility.yul\":6237:6290   */\n      tag_226\n      jump\t// in\n    tag_363:\n        /* \"#utility.yul\":6227:6290   */\n      swap2\n      pop\n        /* \"#utility.yul\":6183:6300   */\n      pop\n        /* \"#utility.yul\":5978:6307   */\n      swap3\n      swap2\n      pop\n      pop\n      jump\t// out\n        /* \"#utility.yul\":6313:7722   */\n    tag_53:\n        /* \"#utility.yul\":6698:6702   */\n      0x00\n        /* \"#utility.yul\":6736:6739   */\n      0x0180\n        /* \"#utility.yul\":6725:6734   */\n      dup3\n        /* \"#utility.yul\":6721:6740   */\n      add\n        /* \"#utility.yul\":6713:6740   */\n      swap1\n      pop\n        /* \"#utility.yul\":6750:6821   */\n      tag_365\n        /* \"#utility.yul\":6818:6819   */\n      0x00\n        /* \"#utility.yul\":6807:6816   */\n      dup4\n        /* \"#utility.yul\":6803:6820   */\n      add\n        /* \"#utility.yul\":6794:6800   */\n      dup16\n        /* \"#utility.yul\":6750:6821   */\n      tag_230\n      jump\t// in\n    tag_365:\n        /* \"#utility.yul\":6831:6903   */\n      tag_366\n        /* \"#utility.yul\":6899:6901   */\n      0x20\n        /* \"#utility.yul\":6888:6897   */\n      dup4\n        /* \"#utility.yul\":6884:6902   */\n      add\n        /* \"#utility.yul\":6875:6881   */\n      dup15\n        /* \"#utility.yul\":6831:6903   */\n      tag_230\n      jump\t// in\n    tag_366:\n        /* \"#utility.yul\":6913:6985   */\n      tag_367\n        /* \"#utility.yul\":6981:6983   */\n      0x40\n        /* \"#utility.yul\":6970:6979   */\n      dup4\n        /* \"#utility.yul\":6966:6984   */\n      add\n        /* \"#utility.yul\":6957:6963   */\n      dup14\n        /* \"#utility.yul\":6913:6985   */\n      tag_230\n      jump\t// in\n    tag_367:\n        /* \"#utility.yul\":6995:7067   */\n      tag_368\n        /* \"#utility.yul\":7063:7065   */\n      0x60\n        /* \"#utility.yul\":7052:7061   */\n      dup4\n        /* \"#utility.yul\":7048:7066   */\n      add\n        /* \"#utility.yul\":7039:7045   */\n      dup13\n        /* \"#utility.yul\":6995:7067   */\n      tag_230\n      jump\t// in\n    tag_368:\n        /* \"#utility.yul\":7077:7150   */\n      tag_369\n        /* \"#utility.yul\":7145:7148   */\n      0x80\n        /* \"#utility.yul\":7134:7143   */\n      dup4\n        /* \"#utility.yul\":7130:7149   */\n      add\n        /* \"#utility.yul\":7121:7127   */\n      dup12\n        /* \"#utility.yul\":7077:7150   */\n      tag_230\n      jump\t// in\n    tag_369:\n        /* \"#utility.yul\":7160:7233   */\n      tag_370\n        /* \"#utility.yul\":7228:7231   */\n      0xa0\n        /* \"#utility.yul\":7217:7226   */\n      dup4\n        /* \"#utility.yul\":7213:7232   */\n      add\n        /* \"#utility.yul\":7204:7210   */\n      dup11\n        /* \"#utility.yul\":7160:7233   */\n      tag_231\n      jump\t// in\n    tag_370:\n        /* \"#utility.yul\":7243:7316   */\n      tag_371\n        /* \"#utility.yul\":7311:7314   */\n      0xc0\n        /* \"#utility.yul\":7300:7309   */\n      dup4\n        /* \"#utility.yul\":7296:7315   */\n      add\n        /* \"#utility.yul\":7287:7293   */\n      dup10\n        /* \"#utility.yul\":7243:7316   */\n      tag_230\n      jump\t// in\n    tag_371:\n        /* \"#utility.yul\":7326:7399   */\n      tag_372\n        /* \"#utility.yul\":7394:7397   */\n      0xe0\n        /* \"#utility.yul\":7383:7392   */\n      dup4\n        /* \"#utility.yul\":7379:7398   */\n      add\n        /* \"#utility.yul\":7370:7376   */\n      dup9\n        /* \"#utility.yul\":7326:7399   */\n      tag_230\n      jump\t// in\n    tag_372:\n        /* \"#utility.yul\":7409:7482   */\n      tag_373\n        /* \"#utility.yul\":7477:7480   */\n      0x0100\n        /* \"#utility.yul\":7466:7475   */\n      dup4\n        /* \"#utility.yul\":7462:7481   */\n      add\n        /* \"#utility.yul\":7453:7459   */\n      dup8\n        /* \"#utility.yul\":7409:7482   */\n      tag_230\n      jump\t// in\n    tag_373:\n        /* \"#utility.yul\":7492:7559   */\n      tag_374\n        /* \"#utility.yul\":7554:7557   */\n      0x0120\n        /* \"#utility.yul\":7543:7552   */\n      dup4\n        /* \"#utility.yul\":7539:7558   */\n      add\n        /* \"#utility.yul\":7530:7536   */\n      dup7\n        /* \"#utility.yul\":7492:7559   */\n      tag_233\n      jump\t// in\n    tag_374:\n        /* \"#utility.yul\":7569:7637   */\n      tag_375\n        /* \"#utility.yul\":7632:7635   */\n      0x0140\n        /* \"#utility.yul\":7621:7630   */\n      dup4\n        /* \"#utility.yul\":7617:7636   */\n      add\n        /* \"#utility.yul\":7607:7614   */\n      dup6\n        /* \"#utility.yul\":7569:7637   */\n      tag_233\n      jump\t// in\n    tag_375:\n        /* \"#utility.yul\":7647:7715   */\n      tag_376\n        /* \"#utility.yul\":7710:7713   */\n      0x0160\n        /* \"#utility.yul\":7699:7708   */\n      dup4\n        /* \"#utility.yul\":7695:7714   */\n      add\n        /* \"#utility.yul\":7685:7692   */\n      dup5\n        /* \"#utility.yul\":7647:7715   */\n      tag_233\n      jump\t// in\n    tag_376:\n        /* \"#utility.yul\":6313:7722   */\n      swap14\n      swap13\n      pop\n      pop\n      pop\n      pop\n      pop\n      pop\n      pop\n      pop\n      pop\n      pop\n      pop\n      pop\n      pop\n      jump\t// out\n        /* \"#utility.yul\":7728:7897   */\n    tag_239:\n        /* \"#utility.yul\":7812:7823   */\n      0x00\n        /* \"#utility.yul\":7846:7852   */\n      dup3\n        /* \"#utility.yul\":7841:7844   */\n      dup3\n        /* \"#utility.yul\":7834:7853   */\n      mstore\n        /* \"#utility.yul\":7886:7890   */\n      0x20\n        /* \"#utility.yul\":7881:7884   */\n      dup3\n        /* \"#utility.yul\":7877:7891   */\n      add\n        /* \"#utility.yul\":7862:7891   */\n      swap1\n      pop\n        /* \"#utility.yul\":7728:7897   */\n      swap3\n      swap2\n      pop\n      pop\n      jump\t// out\n        /* \"#utility.yul\":7903:8069   */\n    tag_240:\n        /* \"#utility.yul\":8043:8061   */\n      0x4e6f7420746865206f70657261746f7200000000000000000000000000000000\n        /* \"#utility.yul\":8039:8040   */\n      0x00\n        /* \"#utility.yul\":8031:8037   */\n      dup3\n        /* \"#utility.yul\":8027:8041   */\n      add\n        /* \"#utility.yul\":8020:8062   */\n      mstore\n        /* \"#utility.yul\":7903:8069   */\n      pop\n      jump\t// out\n        /* \"#utility.yul\":8075:8441   */\n    tag_241:\n        /* \"#utility.yul\":8217:8220   */\n      0x00\n        /* \"#utility.yul\":8238:8305   */\n      tag_380\n        /* \"#utility.yul\":8302:8304   */\n      0x10\n        /* \"#utility.yul\":8297:8300   */\n      dup4\n        /* \"#utility.yul\":8238:8305   */\n      tag_239\n      jump\t// in\n    tag_380:\n        /* \"#utility.yul\":8231:8305   */\n      swap2\n      pop\n        /* \"#utility.yul\":8314:8407   */\n      tag_381\n        /* \"#utility.yul\":8403:8406   */\n      dup3\n        /* \"#utility.yul\":8314:8407   */\n      tag_240\n      jump\t// in\n    tag_381:\n        /* \"#utility.yul\":8432:8434   */\n      0x20\n        /* \"#utility.yul\":8427:8430   */\n      dup3\n        /* \"#utility.yul\":8423:8435   */\n      add\n        /* \"#utility.yul\":8416:8435   */\n      swap1\n      pop\n        /* \"#utility.yul\":8075:8441   */\n      swap2\n      swap1\n      pop\n      jump\t// out\n        /* \"#utility.yul\":8447:8866   */\n    tag_60:\n        /* \"#utility.yul\":8613:8617   */\n      0x00\n        /* \"#utility.yul\":8651:8653   */\n      0x20\n        /* \"#utility.yul\":8640:8649   */\n      dup3\n        /* \"#utility.yul\":8636:8654   */\n      add\n        /* \"#utility.yul\":8628:8654   */\n      swap1\n      pop\n        /* \"#utility.yul\":8700:8709   */\n      dup2\n        /* \"#utility.yul\":8694:8698   */\n      dup2\n        /* \"#utility.yul\":8690:8710   */\n      sub\n        /* \"#utility.yul\":8686:8687   */\n      0x00\n        /* \"#utility.yul\":8675:8684   */\n      dup4\n        /* \"#utility.yul\":8671:8688   */\n      add\n        /* \"#utility.yul\":8664:8711   */\n      mstore\n        /* \"#utility.yul\":8728:8859   */\n      tag_383\n        /* \"#utility.yul\":8854:8858   */\n      dup2\n        /* \"#utility.yul\":8728:8859   */\n      tag_241\n      jump\t// in\n    tag_383:\n        /* \"#utility.yul\":8720:8859   */\n      swap1\n      pop\n        /* \"#utility.yul\":8447:8866   */\n      swap2\n      swap1\n      pop\n      jump\t// out\n        /* \"#utility.yul\":8872:9038   */\n    tag_242:\n        /* \"#utility.yul\":9012:9030   */\n      0x496e76616c6964206f70657261746f7200000000000000000000000000000000\n        /* \"#utility.yul\":9008:9009   */\n      0x00\n        /* \"#utility.yul\":9000:9006   */\n      dup3\n        /* \"#utility.yul\":8996:9010   */\n      add\n        /* \"#utility.yul\":8989:9031   */\n      mstore\n        /* \"#utility.yul\":8872:9038   */\n      pop\n      jump\t// out\n        /* \"#utility.yul\":9044:9410   */\n    tag_243:\n        /* \"#utility.yul\":9186:9189   */\n      0x00\n        /* \"#utility.yul\":9207:9274   */\n      tag_386\n        /* \"#utility.yul\":9271:9273   */\n      0x10\n        /* \"#utility.yul\":9266:9269   */\n      dup4\n        /* \"#utility.yul\":9207:9274   */\n      tag_239\n      jump\t// in\n    tag_386:\n        /* \"#utility.yul\":9200:9274   */\n      swap2\n      pop\n        /* \"#utility.yul\":9283:9376   */\n      tag_387\n        /* \"#utility.yul\":9372:9375   */\n      dup3\n        /* \"#utility.yul\":9283:9376   */\n      tag_242\n      jump\t// in\n    tag_387:\n        /* \"#utility.yul\":9401:9403   */\n      0x20\n        /* \"#utility.yul\":9396:9399   */\n      dup3\n        /* \"#utility.yul\":9392:9404   */\n      add\n        /* \"#utility.yul\":9385:9404   */\n      swap1\n      pop\n        /* \"#utility.yul\":9044:9410   */\n      swap2\n      swap1\n      pop\n      jump\t// out\n        /* \"#utility.yul\":9416:9835   */\n    tag_64:\n        /* \"#utility.yul\":9582:9586   */\n      0x00\n        /* \"#utility.yul\":9620:9622   */\n      0x20\n        /* \"#utility.yul\":9609:9618   */\n      dup3\n        /* \"#utility.yul\":9605:9623   */\n      add\n        /* \"#utility.yul\":9597:9623   */\n      swap1\n      pop\n        /* \"#utility.yul\":9669:9678   */\n      dup2\n        /* \"#utility.yul\":9663:9667   */\n      dup2\n        /* \"#utility.yul\":9659:9679   */\n      sub\n        /* \"#utility.yul\":9655:9656   */\n      0x00\n        /* \"#utility.yul\":9644:9653   */\n      dup4\n        /* \"#utility.yul\":9640:9657   */\n      add\n        /* \"#utility.yul\":9633:9680   */\n      mstore\n        /* \"#utility.yul\":9697:9828   */\n      tag_389\n        /* \"#utility.yul\":9823:9827   */\n      dup2\n        /* \"#utility.yul\":9697:9828   */\n      tag_243\n      jump\t// in\n    tag_389:\n        /* \"#utility.yul\":9689:9828   */\n      swap1\n      pop\n        /* \"#utility.yul\":9416:9835   */\n      swap2\n      swap1\n      pop\n      jump\t// out\n        /* \"#utility.yul\":9841:10008   */\n    tag_244:\n        /* \"#utility.yul\":9981:10000   */\n      0x41756374696f6e206e6f7420656e646564000000000000000000000000000000\n        /* \"#utility.yul\":9977:9978   */\n      0x00\n        /* \"#utility.yul\":9969:9975   */\n      dup3\n        /* \"#utility.yul\":9965:9979   */\n      add\n        /* \"#utility.yul\":9958:10001   */\n      mstore\n        /* \"#utility.yul\":9841:10008   */\n      pop\n      jump\t// out\n        /* \"#utility.yul\":10014:10380   */\n    tag_245:\n        /* \"#utility.yul\":10156:10159   */\n      0x00\n        /* \"#utility.yul\":10177:10244   */\n      tag_392\n        /* \"#utility.yul\":10241:10243   */\n      0x11\n        /* \"#utility.yul\":10236:10239   */\n      dup4\n        /* \"#utility.yul\":10177:10244   */\n      tag_239\n      jump\t// in\n    tag_392:\n        /* \"#utility.yul\":10170:10244   */\n      swap2\n      pop\n        /* \"#utility.yul\":10253:10346   */\n      tag_393\n        /* \"#utility.yul\":10342:10345   */\n      dup3\n        /* \"#utility.yul\":10253:10346   */\n      tag_244\n      jump\t// in\n    tag_393:\n        /* \"#utility.yul\":10371:10373   */\n      0x20\n        /* \"#utility.yul\":10366:10369   */\n      dup3\n        /* \"#utility.yul\":10362:10374   */\n      add\n        /* \"#utility.yul\":10355:10374   */\n      swap1\n      pop\n        /* \"#utility.yul\":10014:10380   */\n      swap2\n      swap1\n      pop\n      jump\t// out\n        /* \"#utility.yul\":10386:10805   */\n    tag_71:\n        /* \"#utility.yul\":10552:10556   */\n      0x00\n        /* \"#utility.yul\":10590:10592   */\n      0x20\n        /* \"#utility.yul\":10579:10588   */\n      dup3\n        /* \"#utility.yul\":10575:10593   */\n      add\n        /* \"#utility.yul\":10567:10593   */\n      swap1\n      pop\n        /* \"#utility.yul\":10639:10648   */\n      dup2\n        /* \"#utility.yul\":10633:10637   */\n      dup2\n        /* \"#utility.yul\":10629:10649   */\n      sub\n        /* \"#utility.yul\":10625:10626   */\n      0x00\n        /* \"#utility.yul\":10614:10623   */\n      dup4\n        /* \"#utility.yul\":10610:10627   */\n      add\n        /* \"#utility.yul\":10603:10650   */\n      mstore\n        /* \"#utility.yul\":10667:10798   */\n      tag_395\n        /* \"#utility.yul\":10793:10797   */\n      dup2\n        /* \"#utility.yul\":10667:10798   */\n      tag_245\n      jump\t// in\n    tag_395:\n        /* \"#utility.yul\":10659:10798   */\n      swap1\n      pop\n        /* \"#utility.yul\":10386:10805   */\n      swap2\n      swap1\n      pop\n      jump\t// out\n        /* \"#utility.yul\":10811:10977   */\n    tag_246:\n        /* \"#utility.yul\":10951:10969   */\n      0x496e76616c696420746f6b656e20494400000000000000000000000000000000\n        /* \"#utility.yul\":10947:10948   */\n      0x00\n        /* \"#utility.yul\":10939:10945   */\n      dup3\n        /* \"#utility.yul\":10935:10949   */\n      add\n        /* \"#utility.yul\":10928:10970   */\n      mstore\n        /* \"#utility.yul\":10811:10977   */\n      pop\n      jump\t// out\n        /* \"#utility.yul\":10983:11349   */\n    tag_247:\n        /* \"#utility.yul\":11125:11128   */\n      0x00\n        /* \"#utility.yul\":11146:11213   */\n      tag_398\n        /* \"#utility.yul\":11210:11212   */\n      0x10\n        /* \"#utility.yul\":11205:11208   */\n      dup4\n        /* \"#utility.yul\":11146:11213   */\n      tag_239\n      jump\t// in\n    tag_398:\n        /* \"#utility.yul\":11139:11213   */\n      swap2\n      pop\n        /* \"#utility.yul\":11222:11315   */\n      tag_399\n        /* \"#utility.yul\":11311:11314   */\n      dup3\n        /* \"#utility.yul\":11222:11315   */\n      tag_246\n      jump\t// in\n    tag_399:\n        /* \"#utility.yul\":11340:11342   */\n      0x20\n        /* \"#utility.yul\":11335:11338   */\n      dup3\n        /* \"#utility.yul\":11331:11343   */\n      add\n        /* \"#utility.yul\":11324:11343   */\n      swap1\n      pop\n        /* \"#utility.yul\":10983:11349   */\n      swap2\n      swap1\n      pop\n      jump\t// out\n        /* \"#utility.yul\":11355:11774   */\n    tag_74:\n        /* \"#utility.yul\":11521:11525   */\n      0x00\n        /* \"#utility.yul\":11559:11561   */\n      0x20\n        /* \"#utility.yul\":11548:11557   */\n      dup3\n        /* \"#utility.yul\":11544:11562   */\n      add\n        /* \"#utility.yul\":11536:11562   */\n      swap1\n      pop\n        /* \"#utility.yul\":11608:11617   */\n      dup2\n        /* \"#utility.yul\":11602:11606   */\n      dup2\n        /* \"#utility.yul\":11598:11618   */\n      sub\n        /* \"#utility.yul\":11594:11595   */\n      0x00\n        /* \"#utility.yul\":11583:11592   */\n      dup4\n        /* \"#utility.yul\":11579:11596   */\n      add\n        /* \"#utility.yul\":11572:11619   */\n      mstore\n        /* \"#utility.yul\":11636:11767   */\n      tag_401\n        /* \"#utility.yul\":11762:11766   */\n      dup2\n        /* \"#utility.yul\":11636:11767   */\n      tag_247\n      jump\t// in\n    tag_401:\n        /* \"#utility.yul\":11628:11767   */\n      swap1\n      pop\n        /* \"#utility.yul\":11355:11774   */\n      swap2\n      swap1\n      pop\n      jump\t// out\n        /* \"#utility.yul\":11780:11953   */\n    tag_248:\n        /* \"#utility.yul\":11920:11945   */\n      0x50726f6f6620616c7265616479207375626d6974746564000000000000000000\n        /* \"#utility.yul\":11916:11917   */\n      0x00\n        /* \"#utility.yul\":11908:11914   */\n      dup3\n        /* \"#utility.yul\":11904:11918   */\n      add\n        /* \"#utility.yul\":11897:11946   */\n      mstore\n        /* \"#utility.yul\":11780:11953   */\n      pop\n      jump\t// out\n        /* \"#utility.yul\":11959:12325   */\n    tag_249:\n        /* \"#utility.yul\":12101:12104   */\n      0x00\n        /* \"#utility.yul\":12122:12189   */\n      tag_404\n        /* \"#utility.yul\":12186:12188   */\n      0x17\n        /* \"#utility.yul\":12181:12184   */\n      dup4\n        /* \"#utility.yul\":12122:12189   */\n      tag_239\n      jump\t// in\n    tag_404:\n        /* \"#utility.yul\":12115:12189   */\n      swap2\n      pop\n        /* \"#utility.yul\":12198:12291   */\n      tag_405\n        /* \"#utility.yul\":12287:12290   */\n      dup3\n        /* \"#utility.yul\":12198:12291   */\n      tag_248\n      jump\t// in\n    tag_405:\n        /* \"#utility.yul\":12316:12318   */\n      0x20\n        /* \"#utility.yul\":12311:12314   */\n      dup3\n        /* \"#utility.yul\":12307:12319   */\n      add\n        /* \"#utility.yul\":12300:12319   */\n      swap1\n      pop\n        /* \"#utility.yul\":11959:12325   */\n      swap2\n      swap1\n      pop\n      jump\t// out\n        /* \"#utility.yul\":12331:12750   */\n    tag_77:\n        /* \"#utility.yul\":12497:12501   */\n      0x00\n        /* \"#utility.yul\":12535:12537   */\n      0x20\n        /* \"#utility.yul\":12524:12533   */\n      dup3\n        /* \"#utility.yul\":12520:12538   */\n      add\n        /* \"#utility.yul\":12512:12538   */\n      swap1\n      pop\n        /* \"#utility.yul\":12584:12593   */\n      dup2\n        /* \"#utility.yul\":12578:12582   */\n      dup2\n        /* \"#utility.yul\":12574:12594   */\n      sub\n        /* \"#utility.yul\":12570:12571   */\n      0x00\n        /* \"#utility.yul\":12559:12568   */\n      dup4\n        /* \"#utility.yul\":12555:12572   */\n      add\n        /* \"#utility.yul\":12548:12595   */\n      mstore\n        /* \"#utility.yul\":12612:12743   */\n      tag_407\n        /* \"#utility.yul\":12738:12742   */\n      dup2\n        /* \"#utility.yul\":12612:12743   */\n      tag_249\n      jump\t// in\n    tag_407:\n        /* \"#utility.yul\":12604:12743   */\n      swap1\n      pop\n        /* \"#utility.yul\":12331:12750   */\n      swap2\n      swap1\n      pop\n      jump\t// out\n        /* \"#utility.yul\":12756:12874   */\n    tag_250:\n        /* \"#utility.yul\":12843:12867   */\n      tag_409\n        /* \"#utility.yul\":12861:12866   */\n      dup2\n        /* \"#utility.yul\":12843:12867   */\n      tag_227\n      jump\t// in\n    tag_409:\n        /* \"#utility.yul\":12838:12841   */\n      dup3\n        /* \"#utility.yul\":12831:12868   */\n      mstore\n        /* \"#utility.yul\":12756:12874   */\n      pop\n      pop\n      jump\t// out\n        /* \"#utility.yul\":12880:13212   */\n    tag_79:\n        /* \"#utility.yul\":13001:13005   */\n      0x00\n        /* \"#utility.yul\":13039:13041   */\n      0x40\n        /* \"#utility.yul\":13028:13037   */\n      dup3\n        /* \"#utility.yul\":13024:13042   */\n      add\n        /* \"#utility.yul\":13016:13042   */\n      swap1\n      pop\n        /* \"#utility.yul\":13052:13123   */\n      tag_411\n        /* \"#utility.yul\":13120:13121   */\n      0x00\n        /* \"#utility.yul\":13109:13118   */\n      dup4\n        /* \"#utility.yul\":13105:13122   */\n      add\n        /* \"#utility.yul\":13096:13102   */\n      dup6\n        /* \"#utility.yul\":13052:13123   */\n      tag_230\n      jump\t// in\n    tag_411:\n        /* \"#utility.yul\":13133:13205   */\n      tag_412\n        /* \"#utility.yul\":13201:13203   */\n      0x20\n        /* \"#utility.yul\":13190:13199   */\n      dup4\n        /* \"#utility.yul\":13186:13204   */\n      add\n        /* \"#utility.yul\":13177:13183   */\n      dup5\n        /* \"#utility.yul\":13133:13205   */\n      tag_250\n      jump\t// in\n    tag_412:\n        /* \"#utility.yul\":12880:13212   */\n      swap4\n      swap3\n      pop\n      pop\n      pop\n      jump\t// out\n        /* \"#utility.yul\":13218:13439   */\n    tag_251:\n        /* \"#utility.yul\":13358:13392   */\n      0x5374617274207072696365206d7573742062652067726561746572207468616e\n        /* \"#utility.yul\":13354:13355   */\n      0x00\n        /* \"#utility.yul\":13346:13352   */\n      dup3\n        /* \"#utility.yul\":13342:13356   */\n      add\n        /* \"#utility.yul\":13335:13393   */\n      mstore\n        /* \"#utility.yul\":13427:13431   */\n      0x2030000000000000000000000000000000000000000000000000000000000000\n        /* \"#utility.yul\":13422:13424   */\n      0x20\n        /* \"#utility.yul\":13414:13420   */\n      dup3\n        /* \"#utility.yul\":13410:13425   */\n      add\n        /* \"#utility.yul\":13403:13432   */\n      mstore\n        /* \"#utility.yul\":13218:13439   */\n      pop\n      jump\t// out\n        /* \"#utility.yul\":13445:13811   */\n    tag_252:\n        /* \"#utility.yul\":13587:13590   */\n      0x00\n        /* \"#utility.yul\":13608:13675   */\n      tag_415\n        /* \"#utility.yul\":13672:13674   */\n      0x22\n        /* \"#utility.yul\":13667:13670   */\n      dup4\n        /* \"#utility.yul\":13608:13675   */\n      tag_239\n      jump\t// in\n    tag_415:\n        /* \"#utility.yul\":13601:13675   */\n      swap2\n      pop\n        /* \"#utility.yul\":13684:13777   */\n      tag_416\n        /* \"#utility.yul\":13773:13776   */\n      dup3\n        /* \"#utility.yul\":13684:13777   */\n      tag_251\n      jump\t// in\n    tag_416:\n        /* \"#utility.yul\":13802:13804   */\n      0x40\n        /* \"#utility.yul\":13797:13800   */\n      dup3\n        /* \"#utility.yul\":13793:13805   */\n      add\n        /* \"#utility.yul\":13786:13805   */\n      swap1\n      pop\n        /* \"#utility.yul\":13445:13811   */\n      swap2\n      swap1\n      pop\n      jump\t// out\n        /* \"#utility.yul\":13817:14236   */\n    tag_86:\n        /* \"#utility.yul\":13983:13987   */\n      0x00\n        /* \"#utility.yul\":14021:14023   */\n      0x20\n        /* \"#utility.yul\":14010:14019   */\n      dup3\n        /* \"#utility.yul\":14006:14024   */\n      add\n        /* \"#utility.yul\":13998:14024   */\n      swap1\n      pop\n        /* \"#utility.yul\":14070:14079   */\n      dup2\n        /* \"#utility.yul\":14064:14068   */\n      dup2\n        /* \"#utility.yul\":14060:14080   */\n      sub\n        /* \"#utility.yul\":14056:14057   */\n      0x00\n        /* \"#utility.yul\":14045:14054   */\n      dup4\n        /* \"#utility.yul\":14041:14058   */\n      add\n        /* \"#utility.yul\":14034:14081   */\n      mstore\n        /* \"#utility.yul\":14098:14229   */\n      tag_418\n        /* \"#utility.yul\":14224:14228   */\n      dup2\n        /* \"#utility.yul\":14098:14229   */\n      tag_252\n      jump\t// in\n    tag_418:\n        /* \"#utility.yul\":14090:14229   */\n      swap1\n      pop\n        /* \"#utility.yul\":13817:14236   */\n      swap2\n      swap1\n      pop\n      jump\t// out\n        /* \"#utility.yul\":14242:14424   */\n    tag_253:\n        /* \"#utility.yul\":14382:14416   */\n      0x456e64207072696365206d757374206265203c3d207374617274207072696365\n        /* \"#utility.yul\":14378:14379   */\n      0x00\n        /* \"#utility.yul\":14370:14376   */\n      dup3\n        /* \"#utility.yul\":14366:14380   */\n      add\n        /* \"#utility.yul\":14359:14417   */\n      mstore\n        /* \"#utility.yul\":14242:14424   */\n      pop\n      jump\t// out\n        /* \"#utility.yul\":14430:14796   */\n    tag_254:\n        /* \"#utility.yul\":14572:14575   */\n      0x00\n        /* \"#utility.yul\":14593:14660   */\n      tag_421\n        /* \"#utility.yul\":14657:14659   */\n      0x20\n        /* \"#utility.yul\":14652:14655   */\n      dup4\n        /* \"#utility.yul\":14593:14660   */\n      tag_239\n      jump\t// in\n    tag_421:\n        /* \"#utility.yul\":14586:14660   */\n      swap2\n      pop\n        /* \"#utility.yul\":14669:14762   */\n      tag_422\n        /* \"#utility.yul\":14758:14761   */\n      dup3\n        /* \"#utility.yul\":14669:14762   */\n      tag_253\n      jump\t// in\n    tag_422:\n        /* \"#utility.yul\":14787:14789   */\n      0x20\n        /* \"#utility.yul\":14782:14785   */\n      dup3\n        /* \"#utility.yul\":14778:14790   */\n      add\n        /* \"#utility.yul\":14771:14790   */\n      swap1\n      pop\n        /* \"#utility.yul\":14430:14796   */\n      swap2\n      swap1\n      pop\n      jump\t// out\n        /* \"#utility.yul\":14802:15221   */\n    tag_89:\n        /* \"#utility.yul\":14968:14972   */\n      0x00\n        /* \"#utility.yul\":15006:15008   */\n      0x20\n        /* \"#utility.yul\":14995:15004   */\n      dup3\n        /* \"#utility.yul\":14991:15009   */\n      add\n        /* \"#utility.yul\":14983:15009   */\n      swap1\n      pop\n        /* \"#utility.yul\":15055:15064   */\n      dup2\n        /* \"#utility.yul\":15049:15053   */\n      dup2\n        /* \"#utility.yul\":15045:15065   */\n      sub\n        /* \"#utility.yul\":15041:15042   */\n      0x00\n        /* \"#utility.yul\":15030:15039   */\n      dup4\n        /* \"#utility.yul\":15026:15043   */\n      add\n        /* \"#utility.yul\":15019:15066   */\n      mstore\n        /* \"#utility.yul\":15083:15214   */\n      tag_424\n        /* \"#utility.yul\":15209:15213   */\n      dup2\n        /* \"#utility.yul\":15083:15214   */\n      tag_254\n      jump\t// in\n    tag_424:\n        /* \"#utility.yul\":15075:15214   */\n      swap1\n      pop\n        /* \"#utility.yul\":14802:15221   */\n      swap2\n      swap1\n      pop\n      jump\t// out\n        /* \"#utility.yul\":15227:15780   */\n    tag_91:\n        /* \"#utility.yul\":15404:15408   */\n      0x00\n        /* \"#utility.yul\":15442:15445   */\n      0x80\n        /* \"#utility.yul\":15431:15440   */\n      dup3\n        /* \"#utility.yul\":15427:15446   */\n      add\n        /* \"#utility.yul\":15419:15446   */\n      swap1\n      pop\n        /* \"#utility.yul\":15456:15527   */\n      tag_426\n        /* \"#utility.yul\":15524:15525   */\n      0x00\n        /* \"#utility.yul\":15513:15522   */\n      dup4\n        /* \"#utility.yul\":15509:15526   */\n      add\n        /* \"#utility.yul\":15500:15506   */\n      dup8\n        /* \"#utility.yul\":15456:15527   */\n      tag_230\n      jump\t// in\n    tag_426:\n        /* \"#utility.yul\":15537:15609   */\n      tag_427\n        /* \"#utility.yul\":15605:15607   */\n      0x20\n        /* \"#utility.yul\":15594:15603   */\n      dup4\n        /* \"#utility.yul\":15590:15608   */\n      add\n        /* \"#utility.yul\":15581:15587   */\n      dup7\n        /* \"#utility.yul\":15537:15609   */\n      tag_230\n      jump\t// in\n    tag_427:\n        /* \"#utility.yul\":15619:15691   */\n      tag_428\n        /* \"#utility.yul\":15687:15689   */\n      0x40\n        /* \"#utility.yul\":15676:15685   */\n      dup4\n        /* \"#utility.yul\":15672:15690   */\n      add\n        /* \"#utility.yul\":15663:15669   */\n      dup6\n        /* \"#utility.yul\":15619:15691   */\n      tag_230\n      jump\t// in\n    tag_428:\n        /* \"#utility.yul\":15701:15773   */\n      tag_429\n        /* \"#utility.yul\":15769:15771   */\n      0x60\n        /* \"#utility.yul\":15758:15767   */\n      dup4\n        /* \"#utility.yul\":15754:15772   */\n      add\n        /* \"#utility.yul\":15745:15751   */\n      dup5\n        /* \"#utility.yul\":15701:15773   */\n      tag_230\n      jump\t// in\n    tag_429:\n        /* \"#utility.yul\":15227:15780   */\n      swap6\n      swap5\n      pop\n      pop\n      pop\n      pop\n      pop\n      jump\t// out\n        /* \"#utility.yul\":15786:15966   */\n    tag_255:\n        /* \"#utility.yul\":15834:15911   */\n      0x4e487b7100000000000000000000000000000000000000000000000000000000\n        /* \"#utility.yul\":15831:15832   */\n      0x00\n        /* \"#utility.yul\":15824:15912   */\n      mstore\n        /* \"#utility.yul\":15931:15935   */\n      0x11\n        /* \"#utility.yul\":15928:15929   */\n      0x04\n        /* \"#utility.yul\":15921:15936   */\n      mstore\n        /* \"#utility.yul\":15955:15959   */\n      0x24\n        /* \"#utility.yul\":15952:15953   */\n      0x00\n        /* \"#utility.yul\":15945:15960   */\n      revert\n        /* \"#utility.yul\":15972:16163   */\n    tag_98:\n        /* \"#utility.yul\":16012:16015   */\n      0x00\n        /* \"#utility.yul\":16031:16051   */\n      tag_432\n        /* \"#utility.yul\":16049:16050   */\n      dup3\n        /* \"#utility.yul\":16031:16051   */\n      tag_224\n      jump\t// in\n    tag_432:\n        /* \"#utility.yul\":16026:16051   */\n      swap2\n      pop\n        /* \"#utility.yul\":16065:16085   */\n      tag_433\n        /* \"#utility.yul\":16083:16084   */\n      dup4\n        /* \"#utility.yul\":16065:16085   */\n      tag_224\n      jump\t// in\n    tag_433:\n        /* \"#utility.yul\":16060:16085   */\n      swap3\n      pop\n        /* \"#utility.yul\":16108:16109   */\n      dup3\n        /* \"#utility.yul\":16105:16106   */\n      dup3\n        /* \"#utility.yul\":16101:16110   */\n      add\n        /* \"#utility.yul\":16094:16110   */\n      swap1\n      pop\n        /* \"#utility.yul\":16129:16132   */\n      dup1\n        /* \"#utility.yul\":16126:16127   */\n      dup3\n        /* \"#utility.yul\":16123:16133   */\n      gt\n        /* \"#utility.yul\":16120:16156   */\n      iszero\n      tag_434\n      jumpi\n        /* \"#utility.yul\":16136:16154   */\n      tag_435\n      tag_255\n      jump\t// in\n    tag_435:\n        /* \"#utility.yul\":16120:16156   */\n    tag_434:\n        /* \"#utility.yul\":15972:16163   */\n      swap3\n      swap2\n      pop\n      pop\n      jump\t// out\n        /* \"#utility.yul\":16169:16337   */\n    tag_256:\n        /* \"#utility.yul\":16309:16329   */\n      0x41756374696f6e206e6f74206163746976650000000000000000000000000000\n        /* \"#utility.yul\":16305:16306   */\n      0x00\n        /* \"#utility.yul\":16297:16303   */\n      dup3\n        /* \"#utility.yul\":16293:16307   */\n      add\n        /* \"#utility.yul\":16286:16330   */\n      mstore\n        /* \"#utility.yul\":16169:16337   */\n      pop\n      jump\t// out\n        /* \"#utility.yul\":16343:16709   */\n    tag_257:\n        /* \"#utility.yul\":16485:16488   */\n      0x00\n        /* \"#utility.yul\":16506:16573   */\n      tag_438\n        /* \"#utility.yul\":16570:16572   */\n      0x12\n        /* \"#utility.yul\":16565:16568   */\n      dup4\n        /* \"#utility.yul\":16506:16573   */\n      tag_239\n      jump\t// in\n    tag_438:\n        /* \"#utility.yul\":16499:16573   */\n      swap2\n      pop\n        /* \"#utility.yul\":16582:16675   */\n      tag_439\n        /* \"#utility.yul\":16671:16674   */\n      dup3\n        /* \"#utility.yul\":16582:16675   */\n      tag_256\n      jump\t// in\n    tag_439:\n        /* \"#utility.yul\":16700:16702   */\n      0x20\n        /* \"#utility.yul\":16695:16698   */\n      dup3\n        /* \"#utility.yul\":16691:16703   */\n      add\n        /* \"#utility.yul\":16684:16703   */\n      swap1\n      pop\n        /* \"#utility.yul\":16343:16709   */\n      swap2\n      swap1\n      pop\n      jump\t// out\n        /* \"#utility.yul\":16715:17134   */\n    tag_101:\n        /* \"#utility.yul\":16881:16885   */\n      0x00\n        /* \"#utility.yul\":16919:16921   */\n      0x20\n        /* \"#utility.yul\":16908:16917   */\n      dup3\n        /* \"#utility.yul\":16904:16922   */\n      add\n        /* \"#utility.yul\":16896:16922   */\n      swap1\n      pop\n        /* \"#utility.yul\":16968:16977   */\n      dup2\n        /* \"#utility.yul\":16962:16966   */\n      dup2\n        /* \"#utility.yul\":16958:16978   */\n      sub\n        /* \"#utility.yul\":16954:16955   */\n      0x00\n        /* \"#utility.yul\":16943:16952   */\n      dup4\n        /* \"#utility.yul\":16939:16956   */\n      add\n        /* \"#utility.yul\":16932:16979   */\n      mstore\n        /* \"#utility.yul\":16996:17127   */\n      tag_441\n        /* \"#utility.yul\":17122:17126   */\n      dup2\n        /* \"#utility.yul\":16996:17127   */\n      tag_257\n      jump\t// in\n    tag_441:\n        /* \"#utility.yul\":16988:17127   */\n      swap1\n      pop\n        /* \"#utility.yul\":16715:17134   */\n      swap2\n      swap1\n      pop\n      jump\t// out\n        /* \"#utility.yul\":17140:17311   */\n    tag_258:\n        /* \"#utility.yul\":17280:17303   */\n      0x41756374696f6e20616c726561647920656e6465640000000000000000000000\n        /* \"#utility.yul\":17276:17277   */\n      0x00\n        /* \"#utility.yul\":17268:17274   */\n      dup3\n        /* \"#utility.yul\":17264:17278   */\n      add\n        /* \"#utility.yul\":17257:17304   */\n      mstore\n        /* \"#utility.yul\":17140:17311   */\n      pop\n      jump\t// out\n        /* \"#utility.yul\":17317:17683   */\n    tag_259:\n        /* \"#utility.yul\":17459:17462   */\n      0x00\n        /* \"#utility.yul\":17480:17547   */\n      tag_444\n        /* \"#utility.yul\":17544:17546   */\n      0x15\n        /* \"#utility.yul\":17539:17542   */\n      dup4\n        /* \"#utility.yul\":17480:17547   */\n      tag_239\n      jump\t// in\n    tag_444:\n        /* \"#utility.yul\":17473:17547   */\n      swap2\n      pop\n        /* \"#utility.yul\":17556:17649   */\n      tag_445\n        /* \"#utility.yul\":17645:17648   */\n      dup3\n        /* \"#utility.yul\":17556:17649   */\n      tag_258\n      jump\t// in\n    tag_445:\n        /* \"#utility.yul\":17674:17676   */\n      0x20\n        /* \"#utility.yul\":17669:17672   */\n      dup3\n        /* \"#utility.yul\":17665:17677   */\n      add\n        /* \"#utility.yul\":17658:17677   */\n      swap1\n      pop\n        /* \"#utility.yul\":17317:17683   */\n      swap2\n      swap1\n      pop\n      jump\t// out\n        /* \"#utility.yul\":17689:18108   */\n    tag_104:\n        /* \"#utility.yul\":17855:17859   */\n      0x00\n        /* \"#utility.yul\":17893:17895   */\n      0x20\n        /* \"#utility.yul\":17882:17891   */\n      dup3\n        /* \"#utility.yul\":17878:17896   */\n      add\n        /* \"#utility.yul\":17870:17896   */\n      swap1\n      pop\n        /* \"#utility.yul\":17942:17951   */\n      dup2\n        /* \"#utility.yul\":17936:17940   */\n      dup2\n        /* \"#utility.yul\":17932:17952   */\n      sub\n        /* \"#utility.yul\":17928:17929   */\n      0x00\n        /* \"#utility.yul\":17917:17926   */\n      dup4\n        /* \"#utility.yul\":17913:17930   */\n      add\n        /* \"#utility.yul\":17906:17953   */\n      mstore\n        /* \"#utility.yul\":17970:18101   */\n      tag_447\n        /* \"#utility.yul\":18096:18100   */\n      dup2\n        /* \"#utility.yul\":17970:18101   */\n      tag_259\n      jump\t// in\n    tag_447:\n        /* \"#utility.yul\":17962:18101   */\n      swap1\n      pop\n        /* \"#utility.yul\":17689:18108   */\n      swap2\n      swap1\n      pop\n      jump\t// out\n        /* \"#utility.yul\":18114:18287   */\n    tag_260:\n        /* \"#utility.yul\":18254:18279   */\n      0x4269642062656c6f772063757272656e74207072696365000000000000000000\n        /* \"#utility.yul\":18250:18251   */\n      0x00\n        /* \"#utility.yul\":18242:18248   */\n      dup3\n        /* \"#utility.yul\":18238:18252   */\n      add\n        /* \"#utility.yul\":18231:18280   */\n      mstore\n        /* \"#utility.yul\":18114:18287   */\n      pop\n      jump\t// out\n        /* \"#utility.yul\":18293:18659   */\n    tag_261:\n        /* \"#utility.yul\":18435:18438   */\n      0x00\n        /* \"#utility.yul\":18456:18523   */\n      tag_450\n        /* \"#utility.yul\":18520:18522   */\n      0x17\n        /* \"#utility.yul\":18515:18518   */\n      dup4\n        /* \"#utility.yul\":18456:18523   */\n      tag_239\n      jump\t// in\n    tag_450:\n        /* \"#utility.yul\":18449:18523   */\n      swap2\n      pop\n        /* \"#utility.yul\":18532:18625   */\n      tag_451\n        /* \"#utility.yul\":18621:18624   */\n      dup3\n        /* \"#utility.yul\":18532:18625   */\n      tag_260\n      jump\t// in\n    tag_451:\n        /* \"#utility.yul\":18650:18652   */\n      0x20\n        /* \"#utility.yul\":18645:18648   */\n      dup3\n        /* \"#utility.yul\":18641:18653   */\n      add\n        /* \"#utility.yul\":18634:18653   */\n      swap1\n      pop\n        /* \"#utility.yul\":18293:18659   */\n      swap2\n      swap1\n      pop\n      jump\t// out\n        /* \"#utility.yul\":18665:19084   */\n    tag_109:\n        /* \"#utility.yul\":18831:18835   */\n      0x00\n        /* \"#utility.yul\":18869:18871   */\n      0x20\n        /* \"#utility.yul\":18858:18867   */\n      dup3\n        /* \"#utility.yul\":18854:18872   */\n      add\n        /* \"#utility.yul\":18846:18872   */\n      swap1\n      pop\n        /* \"#utility.yul\":18918:18927   */\n      dup2\n        /* \"#utility.yul\":18912:18916   */\n      dup2\n        /* \"#utility.yul\":18908:18928   */\n      sub\n        /* \"#utility.yul\":18904:18905   */\n      0x00\n        /* \"#utility.yul\":18893:18902   */\n      dup4\n        /* \"#utility.yul\":18889:18906   */\n      add\n        /* \"#utility.yul\":18882:18929   */\n      mstore\n        /* \"#utility.yul\":18946:19077   */\n      tag_453\n        /* \"#utility.yul\":19072:19076   */\n      dup2\n        /* \"#utility.yul\":18946:19077   */\n      tag_261\n      jump\t// in\n    tag_453:\n        /* \"#utility.yul\":18938:19077   */\n      swap1\n      pop\n        /* \"#utility.yul\":18665:19084   */\n      swap2\n      swap1\n      pop\n      jump\t// out\n        /* \"#utility.yul\":19090:19310   */\n    tag_262:\n        /* \"#utility.yul\":19230:19264   */\n      0x42696420616d6f756e74206d7573742062652067726561746572207468616e20\n        /* \"#utility.yul\":19226:19227   */\n      0x00\n        /* \"#utility.yul\":19218:19224   */\n      dup3\n        /* \"#utility.yul\":19214:19228   */\n      add\n        /* \"#utility.yul\":19207:19265   */\n      mstore\n        /* \"#utility.yul\":19299:19302   */\n      0x3000000000000000000000000000000000000000000000000000000000000000\n        /* \"#utility.yul\":19294:19296   */\n      0x20\n        /* \"#utility.yul\":19286:19292   */\n      dup3\n        /* \"#utility.yul\":19282:19297   */\n      add\n        /* \"#utility.yul\":19275:19303   */\n      mstore\n        /* \"#utility.yul\":19090:19310   */\n      pop\n      jump\t// out\n        /* \"#utility.yul\":19316:19682   */\n    tag_263:\n        /* \"#utility.yul\":19458:19461   */\n      0x00\n        /* \"#utility.yul\":19479:19546   */\n      tag_456\n        /* \"#utility.yul\":19543:19545   */\n      0x21\n        /* \"#utility.yul\":19538:19541   */\n      dup4\n        /* \"#utility.yul\":19479:19546   */\n      tag_239\n      jump\t// in\n    tag_456:\n        /* \"#utility.yul\":19472:19546   */\n      swap2\n      pop\n        /* \"#utility.yul\":19555:19648   */\n      tag_457\n        /* \"#utility.yul\":19644:19647   */\n      dup3\n        /* \"#utility.yul\":19555:19648   */\n      tag_262\n      jump\t// in\n    tag_457:\n        /* \"#utility.yul\":19673:19675   */\n      0x40\n        /* \"#utility.yul\":19668:19671   */\n      dup3\n        /* \"#utility.yul\":19664:19676   */\n      add\n        /* \"#utility.yul\":19657:19676   */\n      swap1\n      pop\n        /* \"#utility.yul\":19316:19682   */\n      swap2\n      swap1\n      pop\n      jump\t// out\n        /* \"#utility.yul\":19688:20107   */\n    tag_112:\n        /* \"#utility.yul\":19854:19858   */\n      0x00\n        /* \"#utility.yul\":19892:19894   */\n      0x20\n        /* \"#utility.yul\":19881:19890   */\n      dup3\n        /* \"#utility.yul\":19877:19895   */\n      add\n        /* \"#utility.yul\":19869:19895   */\n      swap1\n      pop\n        /* \"#utility.yul\":19941:19950   */\n      dup2\n        /* \"#utility.yul\":19935:19939   */\n      dup2\n        /* \"#utility.yul\":19931:19951   */\n      sub\n        /* \"#utility.yul\":19927:19928   */\n      0x00\n        /* \"#utility.yul\":19916:19925   */\n      dup4\n        /* \"#utility.yul\":19912:19929   */\n      add\n        /* \"#utility.yul\":19905:19952   */\n      mstore\n        /* \"#utility.yul\":19969:20100   */\n      tag_459\n        /* \"#utility.yul\":20095:20099   */\n      dup2\n        /* \"#utility.yul\":19969:20100   */\n      tag_263\n      jump\t// in\n    tag_459:\n        /* \"#utility.yul\":19961:20100   */\n      swap1\n      pop\n        /* \"#utility.yul\":19688:20107   */\n      swap2\n      swap1\n      pop\n      jump\t// out\n        /* \"#utility.yul\":20113:20445   */\n    tag_115:\n        /* \"#utility.yul\":20234:20238   */\n      0x00\n        /* \"#utility.yul\":20272:20274   */\n      0x40\n        /* \"#utility.yul\":20261:20270   */\n      dup3\n        /* \"#utility.yul\":20257:20275   */\n      add\n        /* \"#utility.yul\":20249:20275   */\n      swap1\n      pop\n        /* \"#utility.yul\":20285:20356   */\n      tag_461\n        /* \"#utility.yul\":20353:20354   */\n      0x00\n        /* \"#utility.yul\":20342:20351   */\n      dup4\n        /* \"#utility.yul\":20338:20355   */\n      add\n        /* \"#utility.yul\":20329:20335   */\n      dup6\n        /* \"#utility.yul\":20285:20356   */\n      tag_231\n      jump\t// in\n    tag_461:\n        /* \"#utility.yul\":20366:20438   */\n      tag_462\n        /* \"#utility.yul\":20434:20436   */\n      0x20\n        /* \"#utility.yul\":20423:20432   */\n      dup4\n        /* \"#utility.yul\":20419:20437   */\n      add\n        /* \"#utility.yul\":20410:20416   */\n      dup5\n        /* \"#utility.yul\":20366:20438   */\n      tag_231\n      jump\t// in\n    tag_462:\n        /* \"#utility.yul\":20113:20445   */\n      swap4\n      swap3\n      pop\n      pop\n      pop\n      jump\t// out\n        /* \"#utility.yul\":20451:20594   */\n    tag_264:\n        /* \"#utility.yul\":20508:20513   */\n      0x00\n        /* \"#utility.yul\":20539:20545   */\n      dup2\n        /* \"#utility.yul\":20533:20546   */\n      mload\n        /* \"#utility.yul\":20524:20546   */\n      swap1\n      pop\n        /* \"#utility.yul\":20555:20588   */\n      tag_464\n        /* \"#utility.yul\":20582:20587   */\n      dup2\n        /* \"#utility.yul\":20555:20588   */\n      tag_225\n      jump\t// in\n    tag_464:\n        /* \"#utility.yul\":20451:20594   */\n      swap3\n      swap2\n      pop\n      pop\n      jump\t// out\n        /* \"#utility.yul\":20600:20951   */\n    tag_119:\n        /* \"#utility.yul\":20670:20676   */\n      0x00\n        /* \"#utility.yul\":20719:20721   */\n      0x20\n        /* \"#utility.yul\":20707:20716   */\n      dup3\n        /* \"#utility.yul\":20698:20705   */\n      dup5\n        /* \"#utility.yul\":20694:20717   */\n      sub\n        /* \"#utility.yul\":20690:20722   */\n      slt\n        /* \"#utility.yul\":20687:20806   */\n      iszero\n      tag_466\n      jumpi\n        /* \"#utility.yul\":20725:20804   */\n      tag_467\n      tag_218\n      jump\t// in\n    tag_467:\n        /* \"#utility.yul\":20687:20806   */\n    tag_466:\n        /* \"#utility.yul\":20845:20846   */\n      0x00\n        /* \"#utility.yul\":20870:20934   */\n      tag_468\n        /* \"#utility.yul\":20926:20933   */\n      dup5\n        /* \"#utility.yul\":20917:20923   */\n      dup3\n        /* \"#utility.yul\":20906:20915   */\n      dup6\n        /* \"#utility.yul\":20902:20924   */\n      add\n        /* \"#utility.yul\":20870:20934   */\n      tag_264\n      jump\t// in\n    tag_468:\n        /* \"#utility.yul\":20860:20934   */\n      swap2\n      pop\n        /* \"#utility.yul\":20816:20944   */\n      pop\n        /* \"#utility.yul\":20600:20951   */\n      swap3\n      swap2\n      pop\n      pop\n      jump\t// out\n        /* \"#utility.yul\":20957:21129   */\n    tag_265:\n        /* \"#utility.yul\":21097:21121   */\n      0x496e73756666696369656e7420616c6c6f77616e636500000000000000000000\n        /* \"#utility.yul\":21093:21094   */\n      0x00\n        /* \"#utility.yul\":21085:21091   */\n      dup3\n        /* \"#utility.yul\":21081:21095   */\n      add\n        /* \"#utility.yul\":21074:21122   */\n      mstore\n        /* \"#utility.yul\":20957:21129   */\n      pop\n      jump\t// out\n        /* \"#utility.yul\":21135:21501   */\n    tag_266:\n        /* \"#utility.yul\":21277:21280   */\n      0x00\n        /* \"#utility.yul\":21298:21365   */\n      tag_471\n        /* \"#utility.yul\":21362:21364   */\n      0x16\n        /* \"#utility.yul\":21357:21360   */\n      dup4\n        /* \"#utility.yul\":21298:21365   */\n      tag_239\n      jump\t// in\n    tag_471:\n        /* \"#utility.yul\":21291:21365   */\n      swap2\n      pop\n        /* \"#utility.yul\":21374:21467   */\n      tag_472\n        /* \"#utility.yul\":21463:21466   */\n      dup3\n        /* \"#utility.yul\":21374:21467   */\n      tag_265\n      jump\t// in\n    tag_472:\n        /* \"#utility.yul\":21492:21494   */\n      0x20\n        /* \"#utility.yul\":21487:21490   */\n      dup3\n        /* \"#utility.yul\":21483:21495   */\n      add\n        /* \"#utility.yul\":21476:21495   */\n      swap1\n      pop\n        /* \"#utility.yul\":21135:21501   */\n      swap2\n      swap1\n      pop\n      jump\t// out\n        /* \"#utility.yul\":21507:21926   */\n    tag_122:\n        /* \"#utility.yul\":21673:21677   */\n      0x00\n        /* \"#utility.yul\":21711:21713   */\n      0x20\n        /* \"#utility.yul\":21700:21709   */\n      dup3\n        /* \"#utility.yul\":21696:21714   */\n      add\n        /* \"#utility.yul\":21688:21714   */\n      swap1\n      pop\n        /* \"#utility.yul\":21760:21769   */\n      dup2\n        /* \"#utility.yul\":21754:21758   */\n      dup2\n        /* \"#utility.yul\":21750:21770   */\n      sub\n        /* \"#utility.yul\":21746:21747   */\n      0x00\n        /* \"#utility.yul\":21735:21744   */\n      dup4\n        /* \"#utility.yul\":21731:21748   */\n      add\n        /* \"#utility.yul\":21724:21771   */\n      mstore\n        /* \"#utility.yul\":21788:21919   */\n      tag_474\n        /* \"#utility.yul\":21914:21918   */\n      dup2\n        /* \"#utility.yul\":21788:21919   */\n      tag_266\n      jump\t// in\n    tag_474:\n        /* \"#utility.yul\":21780:21919   */\n      swap1\n      pop\n        /* \"#utility.yul\":21507:21926   */\n      swap2\n      swap1\n      pop\n      jump\t// out\n        /* \"#utility.yul\":21932:22102   */\n    tag_267:\n        /* \"#utility.yul\":22072:22094   */\n      0x496e73756666696369656e742062616c616e6365000000000000000000000000\n        /* \"#utility.yul\":22068:22069   */\n      0x00\n        /* \"#utility.yul\":22060:22066   */\n      dup3\n        /* \"#utility.yul\":22056:22070   */\n      add\n        /* \"#utility.yul\":22049:22095   */\n      mstore\n        /* \"#utility.yul\":21932:22102   */\n      pop\n      jump\t// out\n        /* \"#utility.yul\":22108:22474   */\n    tag_268:\n        /* \"#utility.yul\":22250:22253   */\n      0x00\n        /* \"#utility.yul\":22271:22338   */\n      tag_477\n        /* \"#utility.yul\":22335:22337   */\n      0x14\n        /* \"#utility.yul\":22330:22333   */\n      dup4\n        /* \"#utility.yul\":22271:22338   */\n      tag_239\n      jump\t// in\n    tag_477:\n        /* \"#utility.yul\":22264:22338   */\n      swap2\n      pop\n        /* \"#utility.yul\":22347:22440   */\n      tag_478\n        /* \"#utility.yul\":22436:22439   */\n      dup3\n        /* \"#utility.yul\":22347:22440   */\n      tag_267\n      jump\t// in\n    tag_478:\n        /* \"#utility.yul\":22465:22467   */\n      0x20\n        /* \"#utility.yul\":22460:22463   */\n      dup3\n        /* \"#utility.yul\":22456:22468   */\n      add\n        /* \"#utility.yul\":22449:22468   */\n      swap1\n      pop\n        /* \"#utility.yul\":22108:22474   */\n      swap2\n      swap1\n      pop\n      jump\t// out\n        /* \"#utility.yul\":22480:22899   */\n    tag_129:\n        /* \"#utility.yul\":22646:22650   */\n      0x00\n        /* \"#utility.yul\":22684:22686   */\n      0x20\n        /* \"#utility.yul\":22673:22682   */\n      dup3\n        /* \"#utility.yul\":22669:22687   */\n      add\n        /* \"#utility.yul\":22661:22687   */\n      swap1\n      pop\n        /* \"#utility.yul\":22733:22742   */\n      dup2\n        /* \"#utility.yul\":22727:22731   */\n      dup2\n        /* \"#utility.yul\":22723:22743   */\n      sub\n        /* \"#utility.yul\":22719:22720   */\n      0x00\n        /* \"#utility.yul\":22708:22717   */\n      dup4\n        /* \"#utility.yul\":22704:22721   */\n      add\n        /* \"#utility.yul\":22697:22744   */\n      mstore\n        /* \"#utility.yul\":22761:22892   */\n      tag_480\n        /* \"#utility.yul\":22887:22891   */\n      dup2\n        /* \"#utility.yul\":22761:22892   */\n      tag_268\n      jump\t// in\n    tag_480:\n        /* \"#utility.yul\":22753:22892   */\n      swap1\n      pop\n        /* \"#utility.yul\":22480:22899   */\n      swap2\n      swap1\n      pop\n      jump\t// out\n        /* \"#utility.yul\":22905:23347   */\n    tag_131:\n        /* \"#utility.yul\":23054:23058   */\n      0x00\n        /* \"#utility.yul\":23092:23094   */\n      0x60\n        /* \"#utility.yul\":23081:23090   */\n      dup3\n        /* \"#utility.yul\":23077:23095   */\n      add\n        /* \"#utility.yul\":23069:23095   */\n      swap1\n      pop\n        /* \"#utility.yul\":23105:23176   */\n      tag_482\n        /* \"#utility.yul\":23173:23174   */\n      0x00\n        /* \"#utility.yul\":23162:23171   */\n      dup4\n        /* \"#utility.yul\":23158:23175   */\n      add\n        /* \"#utility.yul\":23149:23155   */\n      dup7\n        /* \"#utility.yul\":23105:23176   */\n      tag_231\n      jump\t// in\n    tag_482:\n        /* \"#utility.yul\":23186:23258   */\n      tag_483\n        /* \"#utility.yul\":23254:23256   */\n      0x20\n        /* \"#utility.yul\":23243:23252   */\n      dup4\n        /* \"#utility.yul\":23239:23257   */\n      add\n        /* \"#utility.yul\":23230:23236   */\n      dup6\n        /* \"#utility.yul\":23186:23258   */\n      tag_231\n      jump\t// in\n    tag_483:\n        /* \"#utility.yul\":23268:23340   */\n      tag_484\n        /* \"#utility.yul\":23336:23338   */\n      0x40\n        /* \"#utility.yul\":23325:23334   */\n      dup4\n        /* \"#utility.yul\":23321:23339   */\n      add\n        /* \"#utility.yul\":23312:23318   */\n      dup5\n        /* \"#utility.yul\":23268:23340   */\n      tag_230\n      jump\t// in\n    tag_484:\n        /* \"#utility.yul\":22905:23347   */\n      swap5\n      swap4\n      pop\n      pop\n      pop\n      pop\n      jump\t// out\n        /* \"#utility.yul\":23353:23469   */\n    tag_269:\n        /* \"#utility.yul\":23423:23444   */\n      tag_486\n        /* \"#utility.yul\":23438:23443   */\n      dup2\n        /* \"#utility.yul\":23423:23444   */\n      tag_232\n      jump\t// in\n    tag_486:\n        /* \"#utility.yul\":23416:23421   */\n      dup2\n        /* \"#utility.yul\":23413:23445   */\n      eq\n        /* \"#utility.yul\":23403:23463   */\n      tag_487\n      jumpi\n        /* \"#utility.yul\":23459:23460   */\n      0x00\n        /* \"#utility.yul\":23456:23457   */\n      0x00\n        /* \"#utility.yul\":23449:23461   */\n      revert\n        /* \"#utility.yul\":23403:23463   */\n    tag_487:\n        /* \"#utility.yul\":23353:23469   */\n      pop\n      jump\t// out\n        /* \"#utility.yul\":23475:23612   */\n    tag_270:\n        /* \"#utility.yul\":23529:23534   */\n      0x00\n        /* \"#utility.yul\":23560:23566   */\n      dup2\n        /* \"#utility.yul\":23554:23567   */\n      mload\n        /* \"#utility.yul\":23545:23567   */\n      swap1\n      pop\n        /* \"#utility.yul\":23576:23606   */\n      tag_489\n        /* \"#utility.yul\":23600:23605   */\n      dup2\n        /* \"#utility.yul\":23576:23606   */\n      tag_269\n      jump\t// in\n    tag_489:\n        /* \"#utility.yul\":23475:23612   */\n      swap3\n      swap2\n      pop\n      pop\n      jump\t// out\n        /* \"#utility.yul\":23618:23963   */\n    tag_135:\n        /* \"#utility.yul\":23685:23691   */\n      0x00\n        /* \"#utility.yul\":23734:23736   */\n      0x20\n        /* \"#utility.yul\":23722:23731   */\n      dup3\n        /* \"#utility.yul\":23713:23720   */\n      dup5\n        /* \"#utility.yul\":23709:23732   */\n      sub\n        /* \"#utility.yul\":23705:23737   */\n      slt\n        /* \"#utility.yul\":23702:23821   */\n      iszero\n      tag_491\n      jumpi\n        /* \"#utility.yul\":23740:23819   */\n      tag_492\n      tag_218\n      jump\t// in\n    tag_492:\n        /* \"#utility.yul\":23702:23821   */\n    tag_491:\n        /* \"#utility.yul\":23860:23861   */\n      0x00\n        /* \"#utility.yul\":23885:23946   */\n      tag_493\n        /* \"#utility.yul\":23938:23945   */\n      dup5\n        /* \"#utility.yul\":23929:23935   */\n      dup3\n        /* \"#utility.yul\":23918:23927   */\n      dup6\n        /* \"#utility.yul\":23914:23936   */\n      add\n        /* \"#utility.yul\":23885:23946   */\n      tag_270\n      jump\t// in\n    tag_493:\n        /* \"#utility.yul\":23875:23946   */\n      swap2\n      pop\n        /* \"#utility.yul\":23831:23956   */\n      pop\n        /* \"#utility.yul\":23618:23963   */\n      swap3\n      swap2\n      pop\n      pop\n      jump\t// out\n        /* \"#utility.yul\":23969:24140   */\n    tag_271:\n        /* \"#utility.yul\":24109:24132   */\n      0x546f6b656e207472616e73666572206661696c65640000000000000000000000\n        /* \"#utility.yul\":24105:24106   */\n      0x00\n        /* \"#utility.yul\":24097:24103   */\n      dup3\n        /* \"#utility.yul\":24093:24107   */\n      add\n        /* \"#utility.yul\":24086:24133   */\n      mstore\n        /* \"#utility.yul\":23969:24140   */\n      pop\n      jump\t// out\n        /* \"#utility.yul\":24146:24512   */\n    tag_272:\n        /* \"#utility.yul\":24288:24291   */\n      0x00\n        /* \"#utility.yul\":24309:24376   */\n      tag_496\n        /* \"#utility.yul\":24373:24375   */\n      0x15\n        /* \"#utility.yul\":24368:24371   */\n      dup4\n        /* \"#utility.yul\":24309:24376   */\n      tag_239\n      jump\t// in\n    tag_496:\n        /* \"#utility.yul\":24302:24376   */\n      swap2\n      pop\n        /* \"#utility.yul\":24385:24478   */\n      tag_497\n        /* \"#utility.yul\":24474:24477   */\n      dup3\n        /* \"#utility.yul\":24385:24478   */\n      tag_271\n      jump\t// in\n    tag_497:\n        /* \"#utility.yul\":24503:24505   */\n      0x20\n        /* \"#utility.yul\":24498:24501   */\n      dup3\n        /* \"#utility.yul\":24494:24506   */\n      add\n        /* \"#utility.yul\":24487:24506   */\n      swap1\n      pop\n        /* \"#utility.yul\":24146:24512   */\n      swap2\n      swap1\n      pop\n      jump\t// out\n        /* \"#utility.yul\":24518:24937   */\n    tag_138:\n        /* \"#utility.yul\":24684:24688   */\n      0x00\n        /* \"#utility.yul\":24722:24724   */\n      0x20\n        /* \"#utility.yul\":24711:24720   */\n      dup3\n        /* \"#utility.yul\":24707:24725   */\n      add\n        /* \"#utility.yul\":24699:24725   */\n      swap1\n      pop\n        /* \"#utility.yul\":24771:24780   */\n      dup2\n        /* \"#utility.yul\":24765:24769   */\n      dup2\n        /* \"#utility.yul\":24761:24781   */\n      sub\n        /* \"#utility.yul\":24757:24758   */\n      0x00\n        /* \"#utility.yul\":24746:24755   */\n      dup4\n        /* \"#utility.yul\":24742:24759   */\n      add\n        /* \"#utility.yul\":24735:24782   */\n      mstore\n        /* \"#utility.yul\":24799:24930   */\n      tag_499\n        /* \"#utility.yul\":24925:24929   */\n      dup2\n        /* \"#utility.yul\":24799:24930   */\n      tag_272\n      jump\t// in\n    tag_499:\n        /* \"#utility.yul\":24791:24930   */\n      swap1\n      pop\n        /* \"#utility.yul\":24518:24937   */\n      swap2\n      swap1\n      pop\n      jump\t// out\n        /* \"#utility.yul\":24943:25385   */\n    tag_140:\n        /* \"#utility.yul\":25092:25096   */\n      0x00\n        /* \"#utility.yul\":25130:25132   */\n      0x60\n        /* \"#utility.yul\":25119:25128   */\n      dup3\n        /* \"#utility.yul\":25115:25133   */\n      add\n        /* \"#utility.yul\":25107:25133   */\n      swap1\n      pop\n        /* \"#utility.yul\":25143:25214   */\n      tag_501\n        /* \"#utility.yul\":25211:25212   */\n      0x00\n        /* \"#utility.yul\":25200:25209   */\n      dup4\n        /* \"#utility.yul\":25196:25213   */\n      add\n        /* \"#utility.yul\":25187:25193   */\n      dup7\n        /* \"#utility.yul\":25143:25214   */\n      tag_231\n      jump\t// in\n    tag_501:\n        /* \"#utility.yul\":25224:25296   */\n      tag_502\n        /* \"#utility.yul\":25292:25294   */\n      0x20\n        /* \"#utility.yul\":25281:25290   */\n      dup4\n        /* \"#utility.yul\":25277:25295   */\n      add\n        /* \"#utility.yul\":25268:25274   */\n      dup6\n        /* \"#utility.yul\":25224:25296   */\n      tag_230\n      jump\t// in\n    tag_502:\n        /* \"#utility.yul\":25306:25378   */\n      tag_503\n        /* \"#utility.yul\":25374:25376   */\n      0x40\n        /* \"#utility.yul\":25363:25372   */\n      dup4\n        /* \"#utility.yul\":25359:25377   */\n      add\n        /* \"#utility.yul\":25350:25356   */\n      dup5\n        /* \"#utility.yul\":25306:25378   */\n      tag_230\n      jump\t// in\n    tag_503:\n        /* \"#utility.yul\":24943:25385   */\n      swap5\n      swap4\n      pop\n      pop\n      pop\n      pop\n      jump\t// out\n        /* \"#utility.yul\":25391:25573   */\n    tag_273:\n        /* \"#utility.yul\":25531:25565   */\n      0x4d7573742062696420686967686572207468616e2063757272656e7420626964\n        /* \"#utility.yul\":25527:25528   */\n      0x00\n        /* \"#utility.yul\":25519:25525   */\n      dup3\n        /* \"#utility.yul\":25515:25529   */\n      add\n        /* \"#utility.yul\":25508:25566   */\n      mstore\n        /* \"#utility.yul\":25391:25573   */\n      pop\n      jump\t// out\n        /* \"#utility.yul\":25579:25945   */\n    tag_274:\n        /* \"#utility.yul\":25721:25724   */\n      0x00\n        /* \"#utility.yul\":25742:25809   */\n      tag_506\n        /* \"#utility.yul\":25806:25808   */\n      0x20\n        /* \"#utility.yul\":25801:25804   */\n      dup4\n        /* \"#utility.yul\":25742:25809   */\n      tag_239\n      jump\t// in\n    tag_506:\n        /* \"#utility.yul\":25735:25809   */\n      swap2\n      pop\n        /* \"#utility.yul\":25818:25911   */\n      tag_507\n        /* \"#utility.yul\":25907:25910   */\n      dup3\n        /* \"#utility.yul\":25818:25911   */\n      tag_273\n      jump\t// in\n    tag_507:\n        /* \"#utility.yul\":25936:25938   */\n      0x20\n        /* \"#utility.yul\":25931:25934   */\n      dup3\n        /* \"#utility.yul\":25927:25939   */\n      add\n        /* \"#utility.yul\":25920:25939   */\n      swap1\n      pop\n        /* \"#utility.yul\":25579:25945   */\n      swap2\n      swap1\n      pop\n      jump\t// out\n        /* \"#utility.yul\":25951:26370   */\n    tag_145:\n        /* \"#utility.yul\":26117:26121   */\n      0x00\n        /* \"#utility.yul\":26155:26157   */\n      0x20\n        /* \"#utility.yul\":26144:26153   */\n      dup3\n        /* \"#utility.yul\":26140:26158   */\n      add\n        /* \"#utility.yul\":26132:26158   */\n      swap1\n      pop\n        /* \"#utility.yul\":26204:26213   */\n      dup2\n        /* \"#utility.yul\":26198:26202   */\n      dup2\n        /* \"#utility.yul\":26194:26214   */\n      sub\n        /* \"#utility.yul\":26190:26191   */\n      0x00\n        /* \"#utility.yul\":26179:26188   */\n      dup4\n        /* \"#utility.yul\":26175:26192   */\n      add\n        /* \"#utility.yul\":26168:26215   */\n      mstore\n        /* \"#utility.yul\":26232:26363   */\n      tag_509\n        /* \"#utility.yul\":26358:26362   */\n      dup2\n        /* \"#utility.yul\":26232:26363   */\n      tag_274\n      jump\t// in\n    tag_509:\n        /* \"#utility.yul\":26224:26363   */\n      swap1\n      pop\n        /* \"#utility.yul\":25951:26370   */\n      swap2\n      swap1\n      pop\n      jump\t// out\n        /* \"#utility.yul\":26376:26556   */\n    tag_275:\n        /* \"#utility.yul\":26516:26548   */\n      0x4d696e696d756d2062696420706572696f64206e6f7420656c61707365640000\n        /* \"#utility.yul\":26512:26513   */\n      0x00\n        /* \"#utility.yul\":26504:26510   */\n      dup3\n        /* \"#utility.yul\":26500:26514   */\n      add\n        /* \"#utility.yul\":26493:26549   */\n      mstore\n        /* \"#utility.yul\":26376:26556   */\n      pop\n      jump\t// out\n        /* \"#utility.yul\":26562:26928   */\n    tag_276:\n        /* \"#utility.yul\":26704:26707   */\n      0x00\n        /* \"#utility.yul\":26725:26792   */\n      tag_512\n        /* \"#utility.yul\":26789:26791   */\n      0x1e\n        /* \"#utility.yul\":26784:26787   */\n      dup4\n        /* \"#utility.yul\":26725:26792   */\n      tag_239\n      jump\t// in\n    tag_512:\n        /* \"#utility.yul\":26718:26792   */\n      swap2\n      pop\n        /* \"#utility.yul\":26801:26894   */\n      tag_513\n        /* \"#utility.yul\":26890:26893   */\n      dup3\n        /* \"#utility.yul\":26801:26894   */\n      tag_275\n      jump\t// in\n    tag_513:\n        /* \"#utility.yul\":26919:26921   */\n      0x20\n        /* \"#utility.yul\":26914:26917   */\n      dup3\n        /* \"#utility.yul\":26910:26922   */\n      add\n        /* \"#utility.yul\":26903:26922   */\n      swap1\n      pop\n        /* \"#utility.yul\":26562:26928   */\n      swap2\n      swap1\n      pop\n      jump\t// out\n        /* \"#utility.yul\":26934:27353   */\n    tag_149:\n        /* \"#utility.yul\":27100:27104   */\n      0x00\n        /* \"#utility.yul\":27138:27140   */\n      0x20\n        /* \"#utility.yul\":27127:27136   */\n      dup3\n        /* \"#utility.yul\":27123:27141   */\n      add\n        /* \"#utility.yul\":27115:27141   */\n      swap1\n      pop\n        /* \"#utility.yul\":27187:27196   */\n      dup2\n        /* \"#utility.yul\":27181:27185   */\n      dup2\n        /* \"#utility.yul\":27177:27197   */\n      sub\n        /* \"#utility.yul\":27173:27174   */\n      0x00\n        /* \"#utility.yul\":27162:27171   */\n      dup4\n        /* \"#utility.yul\":27158:27175   */\n      add\n        /* \"#utility.yul\":27151:27198   */\n      mstore\n        /* \"#utility.yul\":27215:27346   */\n      tag_515\n        /* \"#utility.yul\":27341:27345   */\n      dup2\n        /* \"#utility.yul\":27215:27346   */\n      tag_276\n      jump\t// in\n    tag_515:\n        /* \"#utility.yul\":27207:27346   */\n      swap1\n      pop\n        /* \"#utility.yul\":26934:27353   */\n      swap2\n      swap1\n      pop\n      jump\t// out\n        /* \"#utility.yul\":27359:27528   */\n    tag_277:\n        /* \"#utility.yul\":27499:27520   */\n      0x50726f6f66206e6f74207375626d697474656400000000000000000000000000\n        /* \"#utility.yul\":27495:27496   */\n      0x00\n        /* \"#utility.yul\":27487:27493   */\n      dup3\n        /* \"#utility.yul\":27483:27497   */\n      add\n        /* \"#utility.yul\":27476:27521   */\n      mstore\n        /* \"#utility.yul\":27359:27528   */\n      pop\n      jump\t// out\n        /* \"#utility.yul\":27534:27900   */\n    tag_278:\n        /* \"#utility.yul\":27676:27679   */\n      0x00\n        /* \"#utility.yul\":27697:27764   */\n      tag_518\n        /* \"#utility.yul\":27761:27763   */\n      0x13\n        /* \"#utility.yul\":27756:27759   */\n      dup4\n        /* \"#utility.yul\":27697:27764   */\n      tag_239\n      jump\t// in\n    tag_518:\n        /* \"#utility.yul\":27690:27764   */\n      swap2\n      pop\n        /* \"#utility.yul\":27773:27866   */\n      tag_519\n        /* \"#utility.yul\":27862:27865   */\n      dup3\n        /* \"#utility.yul\":27773:27866   */\n      tag_277\n      jump\t// in\n    tag_519:\n        /* \"#utility.yul\":27891:27893   */\n      0x20\n        /* \"#utility.yul\":27886:27889   */\n      dup3\n        /* \"#utility.yul\":27882:27894   */\n      add\n        /* \"#utility.yul\":27875:27894   */\n      swap1\n      pop\n        /* \"#utility.yul\":27534:27900   */\n      swap2\n      swap1\n      pop\n      jump\t// out\n        /* \"#utility.yul\":27906:28325   */\n    tag_179:\n        /* \"#utility.yul\":28072:28076   */\n      0x00\n        /* \"#utility.yul\":28110:28112   */\n      0x20\n        /* \"#utility.yul\":28099:28108   */\n      dup3\n        /* \"#utility.yul\":28095:28113   */\n      add\n        /* \"#utility.yul\":28087:28113   */\n      swap1\n      pop\n        /* \"#utility.yul\":28159:28168   */\n      dup2\n        /* \"#utility.yul\":28153:28157   */\n      dup2\n        /* \"#utility.yul\":28149:28169   */\n      sub\n        /* \"#utility.yul\":28145:28146   */\n      0x00\n        /* \"#utility.yul\":28134:28143   */\n      dup4\n        /* \"#utility.yul\":28130:28147   */\n      add\n        /* \"#utility.yul\":28123:28170   */\n      mstore\n        /* \"#utility.yul\":28187:28318   */\n      tag_521\n        /* \"#utility.yul\":28313:28317   */\n      dup2\n        /* \"#utility.yul\":28187:28318   */\n      tag_278\n      jump\t// in\n    tag_521:\n        /* \"#utility.yul\":28179:28318   */\n      swap1\n      pop\n        /* \"#utility.yul\":27906:28325   */\n      swap2\n      swap1\n      pop\n      jump\t// out\n        /* \"#utility.yul\":28331:28504   */\n    tag_279:\n        /* \"#utility.yul\":28471:28496   */\n      0x5061796d656e7420616c726561647920636c61696d6564000000000000000000\n        /* \"#utility.yul\":28467:28468   */\n      0x00\n        /* \"#utility.yul\":28459:28465   */\n      dup3\n        /* \"#utility.yul\":28455:28469   */\n      add\n        /* \"#utility.yul\":28448:28497   */\n      mstore\n        /* \"#utility.yul\":28331:28504   */\n      pop\n      jump\t// out\n        /* \"#utility.yul\":28510:28876   */\n    tag_280:\n        /* \"#utility.yul\":28652:28655   */\n      0x00\n        /* \"#utility.yul\":28673:28740   */\n      tag_524\n        /* \"#utility.yul\":28737:28739   */\n      0x17\n        /* \"#utility.yul\":28732:28735   */\n      dup4\n        /* \"#utility.yul\":28673:28740   */\n      tag_239\n      jump\t// in\n    tag_524:\n        /* \"#utility.yul\":28666:28740   */\n      swap2\n      pop\n        /* \"#utility.yul\":28749:28842   */\n      tag_525\n        /* \"#utility.yul\":28838:28841   */\n      dup3\n        /* \"#utility.yul\":28749:28842   */\n      tag_279\n      jump\t// in\n    tag_525:\n        /* \"#utility.yul\":28867:28869   */\n      0x20\n        /* \"#utility.yul\":28862:28865   */\n      dup3\n        /* \"#utility.yul\":28858:28870   */\n      add\n        /* \"#utility.yul\":28851:28870   */\n      swap1\n      pop\n        /* \"#utility.yul\":28510:28876   */\n      swap2\n      swap1\n      pop\n      jump\t// out\n        /* \"#utility.yul\":28882:29301   */\n    tag_182:\n        /* \"#utility.yul\":29048:29052   */\n      0x00\n        /* \"#utility.yul\":29086:29088   */\n      0x20\n        /* \"#utility.yul\":29075:29084   */\n      dup3\n        /* \"#utility.yul\":29071:29089   */\n      add\n        /* \"#utility.yul\":29063:29089   */\n      swap1\n      pop\n        /* \"#utility.yul\":29135:29144   */\n      dup2\n        /* \"#utility.yul\":29129:29133   */\n      dup2\n        /* \"#utility.yul\":29125:29145   */\n      sub\n        /* \"#utility.yul\":29121:29122   */\n      0x00\n        /* \"#utility.yul\":29110:29119   */\n      dup4\n        /* \"#utility.yul\":29106:29123   */\n      add\n        /* \"#utility.yul\":29099:29146   */\n      mstore\n        /* \"#utility.yul\":29163:29294   */\n      tag_527\n        /* \"#utility.yul\":29289:29293   */\n      dup2\n        /* \"#utility.yul\":29163:29294   */\n      tag_280\n      jump\t// in\n    tag_527:\n        /* \"#utility.yul\":29155:29294   */\n      swap1\n      pop\n        /* \"#utility.yul\":28882:29301   */\n      swap2\n      swap1\n      pop\n      jump\t// out\n        /* \"#utility.yul\":29307:29639   */\n    tag_186:\n        /* \"#utility.yul\":29428:29432   */\n      0x00\n        /* \"#utility.yul\":29466:29468   */\n      0x40\n        /* \"#utility.yul\":29455:29464   */\n      dup3\n        /* \"#utility.yul\":29451:29469   */\n      add\n        /* \"#utility.yul\":29443:29469   */\n      swap1\n      pop\n        /* \"#utility.yul\":29479:29550   */\n      tag_529\n        /* \"#utility.yul\":29547:29548   */\n      0x00\n        /* \"#utility.yul\":29536:29545   */\n      dup4\n        /* \"#utility.yul\":29532:29549   */\n      add\n        /* \"#utility.yul\":29523:29529   */\n      dup6\n        /* \"#utility.yul\":29479:29550   */\n      tag_231\n      jump\t// in\n    tag_529:\n        /* \"#utility.yul\":29560:29632   */\n      tag_530\n        /* \"#utility.yul\":29628:29630   */\n      0x20\n        /* \"#utility.yul\":29617:29626   */\n      dup4\n        /* \"#utility.yul\":29613:29631   */\n      add\n        /* \"#utility.yul\":29604:29610   */\n      dup5\n        /* \"#utility.yul\":29560:29632   */\n      tag_230\n      jump\t// in\n    tag_530:\n        /* \"#utility.yul\":29307:29639   */\n      swap4\n      swap3\n      pop\n      pop\n      pop\n      jump\t// out\n        /* \"#utility.yul\":29645:29810   */\n    tag_281:\n        /* \"#utility.yul\":29785:29802   */\n      0x5472616e73666572206661696c65640000000000000000000000000000000000\n        /* \"#utility.yul\":29781:29782   */\n      0x00\n        /* \"#utility.yul\":29773:29779   */\n      dup3\n        /* \"#utility.yul\":29769:29783   */\n      add\n        /* \"#utility.yul\":29762:29803   */\n      mstore\n        /* \"#utility.yul\":29645:29810   */\n      pop\n      jump\t// out\n        /* \"#utility.yul\":29816:30182   */\n    tag_282:\n        /* \"#utility.yul\":29958:29961   */\n      0x00\n        /* \"#utility.yul\":29979:30046   */\n      tag_533\n        /* \"#utility.yul\":30043:30045   */\n      0x0f\n        /* \"#utility.yul\":30038:30041   */\n      dup4\n        /* \"#utility.yul\":29979:30046   */\n      tag_239\n      jump\t// in\n    tag_533:\n        /* \"#utility.yul\":29972:30046   */\n      swap2\n      pop\n        /* \"#utility.yul\":30055:30148   */\n      tag_534\n        /* \"#utility.yul\":30144:30147   */\n      dup3\n        /* \"#utility.yul\":30055:30148   */\n      tag_281\n      jump\t// in\n    tag_534:\n        /* \"#utility.yul\":30173:30175   */\n      0x20\n        /* \"#utility.yul\":30168:30171   */\n      dup3\n        /* \"#utility.yul\":30164:30176   */\n      add\n        /* \"#utility.yul\":30157:30176   */\n      swap1\n      pop\n        /* \"#utility.yul\":29816:30182   */\n      swap2\n      swap1\n      pop\n      jump\t// out\n        /* \"#utility.yul\":30188:30607   */\n    tag_192:\n        /* \"#utility.yul\":30354:30358   */\n      0x00\n        /* \"#utility.yul\":30392:30394   */\n      0x20\n        /* \"#utility.yul\":30381:30390   */\n      dup3\n        /* \"#utility.yul\":30377:30395   */\n      add\n        /* \"#utility.yul\":30369:30395   */\n      swap1\n      pop\n        /* \"#utility.yul\":30441:30450   */\n      dup2\n        /* \"#utility.yul\":30435:30439   */\n      dup2\n        /* \"#utility.yul\":30431:30451   */\n      sub\n        /* \"#utility.yul\":30427:30428   */\n      0x00\n        /* \"#utility.yul\":30416:30425   */\n      dup4\n        /* \"#utility.yul\":30412:30429   */\n      add\n        /* \"#utility.yul\":30405:30452   */\n      mstore\n        /* \"#utility.yul\":30469:30600   */\n      tag_536\n        /* \"#utility.yul\":30595:30599   */\n      dup2\n        /* \"#utility.yul\":30469:30600   */\n      tag_282\n      jump\t// in\n    tag_536:\n        /* \"#utility.yul\":30461:30600   */\n      swap1\n      pop\n        /* \"#utility.yul\":30188:30607   */\n      swap2\n      swap1\n      pop\n      jump\t// out\n        /* \"#utility.yul\":30613:30945   */\n    tag_194:\n        /* \"#utility.yul\":30734:30738   */\n      0x00\n        /* \"#utility.yul\":30772:30774   */\n      0x40\n        /* \"#utility.yul\":30761:30770   */\n      dup3\n        /* \"#utility.yul\":30757:30775   */\n      add\n        /* \"#utility.yul\":30749:30775   */\n      swap1\n      pop\n        /* \"#utility.yul\":30785:30856   */\n      tag_538\n        /* \"#utility.yul\":30853:30854   */\n      0x00\n        /* \"#utility.yul\":30842:30851   */\n      dup4\n        /* \"#utility.yul\":30838:30855   */\n      add\n        /* \"#utility.yul\":30829:30835   */\n      dup6\n        /* \"#utility.yul\":30785:30856   */\n      tag_230\n      jump\t// in\n    tag_538:\n        /* \"#utility.yul\":30866:30938   */\n      tag_539\n        /* \"#utility.yul\":30934:30936   */\n      0x20\n        /* \"#utility.yul\":30923:30932   */\n      dup4\n        /* \"#utility.yul\":30919:30937   */\n      add\n        /* \"#utility.yul\":30910:30916   */\n      dup5\n        /* \"#utility.yul\":30866:30938   */\n      tag_230\n      jump\t// in\n    tag_539:\n        /* \"#utility.yul\":30613:30945   */\n      swap4\n      swap3\n      pop\n      pop\n      pop\n      jump\t// out\n        /* \"#utility.yul\":30951:31145   */\n    tag_202:\n        /* \"#utility.yul\":30991:30995   */\n      0x00\n        /* \"#utility.yul\":31011:31031   */\n      tag_541\n        /* \"#utility.yul\":31029:31030   */\n      dup3\n        /* \"#utility.yul\":31011:31031   */\n      tag_224\n      jump\t// in\n    tag_541:\n        /* \"#utility.yul\":31006:31031   */\n      swap2\n      pop\n        /* \"#utility.yul\":31045:31065   */\n      tag_542\n        /* \"#utility.yul\":31063:31064   */\n      dup4\n        /* \"#utility.yul\":31045:31065   */\n      tag_224\n      jump\t// in\n    tag_542:\n        /* \"#utility.yul\":31040:31065   */\n      swap3\n      pop\n        /* \"#utility.yul\":31089:31090   */\n      dup3\n        /* \"#utility.yul\":31086:31087   */\n      dup3\n        /* \"#utility.yul\":31082:31091   */\n      sub\n        /* \"#utility.yul\":31074:31091   */\n      swap1\n      pop\n        /* \"#utility.yul\":31113:31114   */\n      dup2\n        /* \"#utility.yul\":31107:31111   */\n      dup2\n        /* \"#utility.yul\":31104:31115   */\n      gt\n        /* \"#utility.yul\":31101:31138   */\n      iszero\n      tag_543\n      jumpi\n        /* \"#utility.yul\":31118:31136   */\n      tag_544\n      tag_255\n      jump\t// in\n    tag_544:\n        /* \"#utility.yul\":31101:31138   */\n    tag_543:\n        /* \"#utility.yul\":30951:31145   */\n      swap3\n      swap2\n      pop\n      pop\n      jump\t// out\n        /* \"#utility.yul\":31151:31561   */\n    tag_206:\n        /* \"#utility.yul\":31191:31198   */\n      0x00\n        /* \"#utility.yul\":31214:31234   */\n      tag_546\n        /* \"#utility.yul\":31232:31233   */\n      dup3\n        /* \"#utility.yul\":31214:31234   */\n      tag_224\n      jump\t// in\n    tag_546:\n        /* \"#utility.yul\":31209:31234   */\n      swap2\n      pop\n        /* \"#utility.yul\":31248:31268   */\n      tag_547\n        /* \"#utility.yul\":31266:31267   */\n      dup4\n        /* \"#utility.yul\":31248:31268   */\n      tag_224\n      jump\t// in\n    tag_547:\n        /* \"#utility.yul\":31243:31268   */\n      swap3\n      pop\n        /* \"#utility.yul\":31303:31304   */\n      dup3\n        /* \"#utility.yul\":31300:31301   */\n      dup3\n        /* \"#utility.yul\":31296:31305   */\n      mul\n        /* \"#utility.yul\":31325:31355   */\n      tag_548\n        /* \"#utility.yul\":31343:31354   */\n      dup2\n        /* \"#utility.yul\":31325:31355   */\n      tag_224\n      jump\t// in\n    tag_548:\n        /* \"#utility.yul\":31314:31355   */\n      swap2\n      pop\n        /* \"#utility.yul\":31504:31505   */\n      dup3\n        /* \"#utility.yul\":31495:31502   */\n      dup3\n        /* \"#utility.yul\":31491:31506   */\n      div\n        /* \"#utility.yul\":31488:31489   */\n      dup5\n        /* \"#utility.yul\":31485:31507   */\n      eq\n        /* \"#utility.yul\":31465:31466   */\n      dup4\n        /* \"#utility.yul\":31458:31467   */\n      iszero\n        /* \"#utility.yul\":31438:31521   */\n      or\n        /* \"#utility.yul\":31415:31554   */\n      tag_549\n      jumpi\n        /* \"#utility.yul\":31534:31552   */\n      tag_550\n      tag_255\n      jump\t// in\n    tag_550:\n        /* \"#utility.yul\":31415:31554   */\n    tag_549:\n        /* \"#utility.yul\":31199:31561   */\n      pop\n        /* \"#utility.yul\":31151:31561   */\n      swap3\n      swap2\n      pop\n      pop\n      jump\t// out\n        /* \"#utility.yul\":31567:31747   */\n    tag_283:\n        /* \"#utility.yul\":31615:31692   */\n      0x4e487b7100000000000000000000000000000000000000000000000000000000\n        /* \"#utility.yul\":31612:31613   */\n      0x00\n        /* \"#utility.yul\":31605:31693   */\n      mstore\n        /* \"#utility.yul\":31712:31716   */\n      0x12\n        /* \"#utility.yul\":31709:31710   */\n      0x04\n        /* \"#utility.yul\":31702:31717   */\n      mstore\n        /* \"#utility.yul\":31736:31740   */\n      0x24\n        /* \"#utility.yul\":31733:31734   */\n      0x00\n        /* \"#utility.yul\":31726:31741   */\n      revert\n        /* \"#utility.yul\":31753:31938   */\n    tag_209:\n        /* \"#utility.yul\":31793:31794   */\n      0x00\n        /* \"#utility.yul\":31810:31830   */\n      tag_553\n        /* \"#utility.yul\":31828:31829   */\n      dup3\n        /* \"#utility.yul\":31810:31830   */\n      tag_224\n      jump\t// in\n    tag_553:\n        /* \"#utility.yul\":31805:31830   */\n      swap2\n      pop\n        /* \"#utility.yul\":31844:31864   */\n      tag_554\n        /* \"#utility.yul\":31862:31863   */\n      dup4\n        /* \"#utility.yul\":31844:31864   */\n      tag_224\n      jump\t// in\n    tag_554:\n        /* \"#utility.yul\":31839:31864   */\n      swap3\n      pop\n        /* \"#utility.yul\":31883:31884   */\n      dup3\n        /* \"#utility.yul\":31873:31908   */\n      tag_555\n      jumpi\n        /* \"#utility.yul\":31888:31906   */\n      tag_556\n      tag_283\n      jump\t// in\n    tag_556:\n        /* \"#utility.yul\":31873:31908   */\n    tag_555:\n        /* \"#utility.yul\":31930:31931   */\n      dup3\n        /* \"#utility.yul\":31927:31928   */\n      dup3\n        /* \"#utility.yul\":31923:31932   */\n      div\n        /* \"#utility.yul\":31918:31932   */\n      swap1\n      pop\n        /* \"#utility.yul\":31753:31938   */\n      swap3\n      swap2\n      pop\n      pop\n      jump\t// out\n        /* \"#utility.yul\":31944:32125   */\n    tag_284:\n        /* \"#utility.yul\":32084:32117   */\n      0x5265656e7472616e637947756172643a207265656e7472616e742063616c6c00\n        /* \"#utility.yul\":32080:32081   */\n      0x00\n        /* \"#utility.yul\":32072:32078   */\n      dup3\n        /* \"#utility.yul\":32068:32082   */\n      add\n        /* \"#utility.yul\":32061:32118   */\n      mstore\n        /* \"#utility.yul\":31944:32125   */\n      pop\n      jump\t// out\n        /* \"#utility.yul\":32131:32497   */\n    tag_285:\n        /* \"#utility.yul\":32273:32276   */\n      0x00\n        /* \"#utility.yul\":32294:32361   */\n      tag_559\n        /* \"#utility.yul\":32358:32360   */\n      0x1f\n        /* \"#utility.yul\":32353:32356   */\n      dup4\n        /* \"#utility.yul\":32294:32361   */\n      tag_239\n      jump\t// in\n    tag_559:\n        /* \"#utility.yul\":32287:32361   */\n      swap2\n      pop\n        /* \"#utility.yul\":32370:32463   */\n      tag_560\n        /* \"#utility.yul\":32459:32462   */\n      dup3\n        /* \"#utility.yul\":32370:32463   */\n      tag_284\n      jump\t// in\n    tag_560:\n        /* \"#utility.yul\":32488:32490   */\n      0x20\n        /* \"#utility.yul\":32483:32486   */\n      dup3\n        /* \"#utility.yul\":32479:32491   */\n      add\n        /* \"#utility.yul\":32472:32491   */\n      swap1\n      pop\n        /* \"#utility.yul\":32131:32497   */\n      swap2\n      swap1\n      pop\n      jump\t// out\n        /* \"#utility.yul\":32503:32922   */\n    tag_215:\n        /* \"#utility.yul\":32669:32673   */\n      0x00\n        /* \"#utility.yul\":32707:32709   */\n      0x20\n        /* \"#utility.yul\":32696:32705   */\n      dup3\n        /* \"#utility.yul\":32692:32710   */\n      add\n        /* \"#utility.yul\":32684:32710   */\n      swap1\n      pop\n        /* \"#utility.yul\":32756:32765   */\n      dup2\n        /* \"#utility.yul\":32750:32754   */\n      dup2\n        /* \"#utility.yul\":32746:32766   */\n      sub\n        /* \"#utility.yul\":32742:32743   */\n      0x00\n        /* \"#utility.yul\":32731:32740   */\n      dup4\n        /* \"#utility.yul\":32727:32744   */\n      add\n        /* \"#utility.yul\":32720:32767   */\n      mstore\n        /* \"#utility.yul\":32784:32915   */\n      tag_562\n        /* \"#utility.yul\":32910:32914   */\n      dup2\n        /* \"#utility.yul\":32784:32915   */\n      tag_285\n      jump\t// in\n    tag_562:\n        /* \"#utility.yul\":32776:32915   */\n      swap1\n      pop\n        /* \"#utility.yul\":32503:32922   */\n      swap2\n      swap1\n      pop\n      jump\t// out\n\n    auxdata: 0xa2646970667358221220da65336159cef02b9932d7dca26379c245ae9b5fc076817bc53a4130ded24d7864736f6c634300081c0033\n}\n",
				"bytecode": {
					"linkReferences": {},
					"object": "608060405234801561000f575f5ffd5b506040516129523803806129528339818101604052810190610031919061018a565b60015f819055505f73ffffffffffffffffffffffffffffffffffffffff168173ffffffffffffffffffffffffffffffffffffffff16036100a6576040517f08c379a000000000000000000000000000000000000000000000000000000000815260040161009d9061020f565b60405180910390fd5b3360015f6101000a81548173ffffffffffffffffffffffffffffffffffffffff021916908373ffffffffffffffffffffffffffffffffffffffff1602179055508060025f6101000a81548173ffffffffffffffffffffffffffffffffffffffff021916908373ffffffffffffffffffffffffffffffffffffffff1602179055505061022d565b5f5ffd5b5f73ffffffffffffffffffffffffffffffffffffffff82169050919050565b5f61015982610130565b9050919050565b6101698161014f565b8114610173575f5ffd5b50565b5f8151905061018481610160565b92915050565b5f6020828403121561019f5761019e61012c565b5b5f6101ac84828501610176565b91505092915050565b5f82825260208201905092915050565b7f496e76616c696420746f6b656e206164647265737300000000000000000000005f82015250565b5f6101f96015836101b5565b9150610204826101c5565b602082019050919050565b5f6020820190508181035f830152610226816101ed565b9050919050565b6127188061023a5f395ff3fe608060405234801561000f575f5ffd5b50600436106100a7575f3560e01c8063570ca7351161006f578063570ca7351461014557806357c90de514610163578063639d75661461017f578063c63fdcc71461019d578063d94a3505146101b9578063eb91d37e146101e2576100a7565b806306394c9b146100ab5780632f19c56a146100c757806337a35344146100e3578063496a698d146101015780634fee13fc14610129575b5f5ffd5b6100c560048036038101906100c091906117d2565b610200565b005b6100e160048036038101906100dc9190611863565b610340565b005b6100eb610514565b6040516100f891906118b0565b60405180910390f35b610109610519565b6040516101209b9a999897969594939291906118f2565b60405180910390f35b610143600480360381019061013e919061199b565b6105a5565b005b61014d61085f565b60405161015a91906119d9565b60405180910390f35b61017d6004803603810190610178919061199b565b610884565b005b610187611171565b6040516101949190611a4d565b60405180910390f35b6101b760048036038101906101b29190611a66565b611196565b005b6101c16114c2565b6040516101d99c9b9a99989796959493929190611a91565b60405180910390f35b6101ea611636565b6040516101f791906118b0565b60405180910390f35b60015f9054906101000a900473ffffffffffffffffffffffffffffffffffffffff1673ffffffffffffffffffffffffffffffffffffffff163373ffffffffffffffffffffffffffffffffffffffff161461028f576040517f08c379a000000000000000000000000000000000000000000000000000000000815260040161028690611ba3565b60405180910390fd5b5f73ffffffffffffffffffffffffffffffffffffffff168173ffffffffffffffffffffffffffffffffffffffff16036102fd576040517f08c379a00000000000000000000000000000000000000000000000000000000081526004016102f490611c0b565b60405180910390fd5b8060015f6101000a81548173ffffffffffffffffffffffffffffffffffffffff021916908373ffffffffffffffffffffffffffffffffffffffff16021790555050565b60015f9054906101000a900473ffffffffffffffffffffffffffffffffffffffff1673ffffffffffffffffffffffffffffffffffffffff163373ffffffffffffffffffffffffffffffffffffffff16146103cf576040517f08c379a00000000000000000000000000000000000000000000000000000000081526004016103c690611ba3565b60405180910390fd5b600360080160029054906101000a900460ff16610421576040517f08c379a000000000000000000000000000000000000000000000000000000000815260040161041890611c73565b60405180910390fd5b8160036006015414610468576040517f08c379a000000000000000000000000000000000000000000000000000000000815260040161045f90611cdb565b60405180910390fd5b60036008015f9054906101000a900460ff16156104ba576040517f08c379a00000000000000000000000000000000000000000000000000000000081526004016104b190611d43565b60405180910390fd5b600160036008015f6101000a81548160ff0219169083151502179055507f556d8e38b75e3e273793af33ddc3e1c8bc47d1cd092b52f3a239d9d1c88189978282604051610508929190611d70565b60405180910390a15050565b601481565b6003805f015490806001015490806002015490806003015490806004015f9054906101000a900473ffffffffffffffffffffffffffffffffffffffff1690806005015490806006015490806007015490806008015f9054906101000a900460ff16908060080160019054906101000a900460ff16908060080160029054906101000a900460ff1690508b565b60015f9054906101000a900473ffffffffffffffffffffffffffffffffffffffff1673ffffffffffffffffffffffffffffffffffffffff163373ffffffffffffffffffffffffffffffffffffffff1614610634576040517f08c379a000000000000000000000000000000000000000000000000000000000815260040161062b90611ba3565b60405180910390fd5b5f8211610676576040517f08c379a000000000000000000000000000000000000000000000000000000000815260040161066d90611e07565b60405180910390fd5b818111156106b9576040517f08c379a00000000000000000000000000000000000000000000000000000000081526004016106b090611e6f565b60405180910390fd5b5f4290505f61012c90506040518061016001604052808581526020018481526020018381526020018281526020015f73ffffffffffffffffffffffffffffffffffffffff1681526020015f81526020015f81526020015f81526020015f151581526020015f151581526020015f151581525060035f820151815f01556020820151816001015560408201518160020155606082015181600301556080820151816004015f6101000a81548173ffffffffffffffffffffffffffffffffffffffff021916908373ffffffffffffffffffffffffffffffffffffffff16021790555060a0820151816005015560c0820151816006015560e08201518160070155610100820151816008015f6101000a81548160ff0219169083151502179055506101208201518160080160016101000a81548160ff0219169083151502179055506101408201518160080160026101000a81548160ff0219169083151502179055509050507fa832766a05f1bd0298b0268308621777cfe1e4eea23afe7c06beea79bc6ddd2d848484846040516108519493929190611e8d565b60405180910390a150505050565b60015f9054906101000a900473ffffffffffffffffffffffffffffffffffffffff1681565b61088c61171e565b60036002015442101580156108b5575060038001546003600201546108b19190611efd565b4211155b6108f4576040517f08c379a00000000000000000000000000000000000000000000000000000000081526004016108eb90611f7a565b60405180910390fd5b600360080160029054906101000a900460ff1615610947576040517f08c379a000000000000000000000000000000000000000000000000000000000815260040161093e90611fe2565b60405180910390fd5b5f610950611636565b905080821015610995576040517f08c379a000000000000000000000000000000000000000000000000000000000815260040161098c9061204a565b60405180910390fd5b5f82116109d7576040517f08c379a00000000000000000000000000000000000000000000000000000000081526004016109ce906120d8565b60405180910390fd5b60035f01548210610d68578160025f9054906101000a900473ffffffffffffffffffffffffffffffffffffffff1673ffffffffffffffffffffffffffffffffffffffff1663dd62ed3e33306040518363ffffffff1660e01b8152600401610a3f9291906120f6565b602060405180830381865afa158015610a5a573d5f5f3e3d5ffd5b505050506040513d601f19601f82011682018060405250810190610a7e9190612131565b1015610abf576040517f08c379a0000000000000000000000000000000000000000000000000000000008152600401610ab6906121a6565b60405180910390fd5b8160025f9054906101000a900473ffffffffffffffffffffffffffffffffffffffff1673ffffffffffffffffffffffffffffffffffffffff166370a08231336040518263ffffffff1660e01b8152600401610b1a91906119d9565b602060405180830381865afa158015610b35573d5f5f3e3d5ffd5b505050506040513d601f19601f82011682018060405250810190610b599190612131565b1015610b9a576040517f08c379a0000000000000000000000000000000000000000000000000000000008152600401610b919061220e565b60405180910390fd5b60025f9054906101000a900473ffffffffffffffffffffffffffffffffffffffff1673ffffffffffffffffffffffffffffffffffffffff166323b872dd3330856040518463ffffffff1660e01b8152600401610bf89392919061222c565b6020604051808303815f875af1158015610c14573d5f5f3e3d5ffd5b505050506040513d601f19601f82011682018060405250810190610c38919061228b565b610c77576040517f08c379a0000000000000000000000000000000000000000000000000000000008152600401610c6e90612300565b60405180910390fd5b3360036004015f6101000a81548173ffffffffffffffffffffffffffffffffffffffff021916908373ffffffffffffffffffffffffffffffffffffffff16021790555081600360050181905550826003600601819055506001600360080160026101000a81548160ff0219169083151502179055507fdf8644c0a4c21ed214ce69f395675b3a5fcd1039083daea5058898de40ea3149338385604051610d1f9392919061231e565b60405180910390a17fc358e8e3f205b5e7453abd5cbac388ca4552b887b69001bc972b88610c749035338385604051610d5a9392919061231e565b60405180910390a150611165565b5f6003600501541115610e11576003600501548211610dbc576040517f08c379a0000000000000000000000000000000000000000000000000000000008152600401610db39061239d565b60405180910390fd5b6014600360070154610dce9190611efd565b421015610e10576040517f08c379a0000000000000000000000000000000000000000000000000000000008152600401610e0790612405565b60405180910390fd5b5b8160025f9054906101000a900473ffffffffffffffffffffffffffffffffffffffff1673ffffffffffffffffffffffffffffffffffffffff1663dd62ed3e33306040518363ffffffff1660e01b8152600401610e6e9291906120f6565b602060405180830381865afa158015610e89573d5f5f3e3d5ffd5b505050506040513d601f19601f82011682018060405250810190610ead9190612131565b1015610eee576040517f08c379a0000000000000000000000000000000000000000000000000000000008152600401610ee5906121a6565b60405180910390fd5b8160025f9054906101000a900473ffffffffffffffffffffffffffffffffffffffff1673ffffffffffffffffffffffffffffffffffffffff166370a08231336040518263ffffffff1660e01b8152600401610f4991906119d9565b602060405180830381865afa158015610f64573d5f5f3e3d5ffd5b505050506040513d601f19601f82011682018060405250810190610f889190612131565b1015610fc9576040517f08c379a0000000000000000000000000000000000000000000000000000000008152600401610fc09061220e565b60405180910390fd5b60025f9054906101000a900473ffffffffffffffffffffffffffffffffffffffff1673ffffffffffffffffffffffffffffffffffffffff166323b872dd3360015f9054906101000a900473ffffffffffffffffffffffffffffffffffffffff16856040518463ffffffff1660e01b81526004016110489392919061222c565b6020604051808303815f875af1158015611064573d5f5f3e3d5ffd5b505050506040513d601f19601f82011682018060405250810190611088919061228b565b6110c7576040517f08c379a00000000000000000000000000000000000000000000000000000000081526004016110be90612300565b60405180910390fd5b3360036004015f6101000a81548173ffffffffffffffffffffffffffffffffffffffff021916908373ffffffffffffffffffffffffffffffffffffffff1602179055508160036005018190555082600360060181905550426003600701819055507fdf8644c0a4c21ed214ce69f395675b3a5fcd1039083daea5058898de40ea314933838560405161115b9392919061231e565b60405180910390a1505b61116d61176b565b5050565b60025f9054906101000a900473ffffffffffffffffffffffffffffffffffffffff1681565b60015f9054906101000a900473ffffffffffffffffffffffffffffffffffffffff1673ffffffffffffffffffffffffffffffffffffffff163373ffffffffffffffffffffffffffffffffffffffff1614611225576040517f08c379a000000000000000000000000000000000000000000000000000000000815260040161121c90611ba3565b60405180910390fd5b600360080160029054906101000a900460ff16611277576040517f08c379a000000000000000000000000000000000000000000000000000000000815260040161126e90611c73565b60405180910390fd5b60036008015f9054906101000a900460ff166112c8576040517f08c379a00000000000000000000000000000000000000000000000000000000081526004016112bf9061246d565b60405180910390fd5b600360080160019054906101000a900460ff161561131b576040517f08c379a0000000000000000000000000000000000000000000000000000000008152600401611312906124d5565b60405180910390fd5b8060036006015414611362576040517f08c379a000000000000000000000000000000000000000000000000000000000815260040161135990611cdb565b60405180910390fd5b6001600360080160016101000a81548160ff02191690831515021790555060025f9054906101000a900473ffffffffffffffffffffffffffffffffffffffff1673ffffffffffffffffffffffffffffffffffffffff1663a9059cbb60015f9054906101000a900473ffffffffffffffffffffffffffffffffffffffff166003600501546040518363ffffffff1660e01b81526004016114029291906124f3565b6020604051808303815f875af115801561141e573d5f5f3e3d5ffd5b505050506040513d601f19601f82011682018060405250810190611442919061228b565b611481576040517f08c379a000000000000000000000000000000000000000000000000000000000815260040161147890612564565b60405180910390fd5b7f86d509b2c9c07df983dc6027aff772237f56674192d9cd56ebe14b2e6bb252a0816003600501546040516114b7929190612582565b60405180910390a150565b5f5f5f5f5f5f5f5f5f5f5f5f5f6003604051806101600160405290815f8201548152602001600182015481526020016002820154815260200160038201548152602001600482015f9054906101000a900473ffffffffffffffffffffffffffffffffffffffff1673ffffffffffffffffffffffffffffffffffffffff1673ffffffffffffffffffffffffffffffffffffffff168152602001600582015481526020016006820154815260200160078201548152602001600882015f9054906101000a900460ff161515151581526020016008820160019054906101000a900460ff161515151581526020016008820160029054906101000a900460ff16151515158152505090505f6115d2611636565b9050815f01518260200151828460400151856060015186608001518760a001518860c001518960e001518a61010001518b61012001518c61014001519d509d509d509d509d509d509d509d509d509d509d509d505050909192939495969798999a9b565b5f60036002015442108061164e57505f600360020154145b806116685750600360080160029054906101000a900460ff165b156116795760035f0154905061171b565b5f6003600201544261168b91906125a9565b9050600380015481106116a65760036001015491505061171b565b5f60036001015460035f01546116bc91906125a9565b90505f6003800154670de0b6b3a764000084846116d991906125dc565b6116e391906125dc565b6116ed919061264a565b9050670de0b6b3a764000081611703919061264a565b90508060035f015461171591906125a9565b93505050505b90565b60025f5403611762576040517f08c379a0000000000000000000000000000000000000000000000000000000008152600401611759906126c4565b60405180910390fd5b60025f81905550565b60015f81905550565b5f5ffd5b5f73ffffffffffffffffffffffffffffffffffffffff82169050919050565b5f6117a182611778565b9050919050565b6117b181611797565b81146117bb575f5ffd5b50565b5f813590506117cc816117a8565b92915050565b5f602082840312156117e7576117e6611774565b5b5f6117f4848285016117be565b91505092915050565b5f819050919050565b61180f816117fd565b8114611819575f5ffd5b50565b5f8135905061182a81611806565b92915050565b5f819050919050565b61184281611830565b811461184c575f5ffd5b50565b5f8135905061185d81611839565b92915050565b5f5f6040838503121561187957611878611774565b5b5f6118868582860161181c565b92505060206118978582860161184f565b9150509250929050565b6118aa816117fd565b82525050565b5f6020820190506118c35f8301846118a1565b92915050565b6118d281611797565b82525050565b5f8115159050919050565b6118ec816118d8565b82525050565b5f610160820190506119065f83018e6118a1565b611913602083018d6118a1565b611920604083018c6118a1565b61192d606083018b6118a1565b61193a608083018a6118c9565b61194760a08301896118a1565b61195460c08301886118a1565b61196160e08301876118a1565b61196f6101008301866118e3565b61197d6101208301856118e3565b61198b6101408301846118e3565b9c9b505050505050505050505050565b5f5f604083850312156119b1576119b0611774565b5b5f6119be8582860161181c565b92505060206119cf8582860161181c565b9150509250929050565b5f6020820190506119ec5f8301846118c9565b92915050565b5f819050919050565b5f611a15611a10611a0b84611778565b6119f2565b611778565b9050919050565b5f611a26826119fb565b9050919050565b5f611a3782611a1c565b9050919050565b611a4781611a2d565b82525050565b5f602082019050611a605f830184611a3e565b92915050565b5f60208284031215611a7b57611a7a611774565b5b5f611a888482850161181c565b91505092915050565b5f61018082019050611aa55f83018f6118a1565b611ab2602083018e6118a1565b611abf604083018d6118a1565b611acc606083018c6118a1565b611ad9608083018b6118a1565b611ae660a083018a6118c9565b611af360c08301896118a1565b611b0060e08301886118a1565b611b0e6101008301876118a1565b611b1c6101208301866118e3565b611b2a6101408301856118e3565b611b386101608301846118e3565b9d9c50505050505050505050505050565b5f82825260208201905092915050565b7f4e6f7420746865206f70657261746f72000000000000000000000000000000005f82015250565b5f611b8d601083611b49565b9150611b9882611b59565b602082019050919050565b5f6020820190508181035f830152611bba81611b81565b9050919050565b7f496e76616c6964206f70657261746f72000000000000000000000000000000005f82015250565b5f611bf5601083611b49565b9150611c0082611bc1565b602082019050919050565b5f6020820190508181035f830152611c2281611be9565b9050919050565b7f41756374696f6e206e6f7420656e6465640000000000000000000000000000005f82015250565b5f611c5d601183611b49565b9150611c6882611c29565b602082019050919050565b5f6020820190508181035f830152611c8a81611c51565b9050919050565b7f496e76616c696420746f6b656e204944000000000000000000000000000000005f82015250565b5f611cc5601083611b49565b9150611cd082611c91565b602082019050919050565b5f6020820190508181035f830152611cf281611cb9565b9050919050565b7f50726f6f6620616c7265616479207375626d69747465640000000000000000005f82015250565b5f611d2d601783611b49565b9150611d3882611cf9565b602082019050919050565b5f6020820190508181035f830152611d5a81611d21565b9050919050565b611d6a81611830565b82525050565b5f604082019050611d835f8301856118a1565b611d906020830184611d61565b9392505050565b7f5374617274207072696365206d7573742062652067726561746572207468616e5f8201527f2030000000000000000000000000000000000000000000000000000000000000602082015250565b5f611df1602283611b49565b9150611dfc82611d97565b604082019050919050565b5f6020820190508181035f830152611e1e81611de5565b9050919050565b7f456e64207072696365206d757374206265203c3d2073746172742070726963655f82015250565b5f611e59602083611b49565b9150611e6482611e25565b602082019050919050565b5f6020820190508181035f830152611e8681611e4d565b9050919050565b5f608082019050611ea05f8301876118a1565b611ead60208301866118a1565b611eba60408301856118a1565b611ec760608301846118a1565b95945050505050565b7f4e487b71000000000000000000000000000000000000000000000000000000005f52601160045260245ffd5b5f611f07826117fd565b9150611f12836117fd565b9250828201905080821115611f2a57611f29611ed0565b5b92915050565b7f41756374696f6e206e6f742061637469766500000000000000000000000000005f82015250565b5f611f64601283611b49565b9150611f6f82611f30565b602082019050919050565b5f6020820190508181035f830152611f9181611f58565b9050919050565b7f41756374696f6e20616c726561647920656e64656400000000000000000000005f82015250565b5f611fcc601583611b49565b9150611fd782611f98565b602082019050919050565b5f6020820190508181035f830152611ff981611fc0565b9050919050565b7f4269642062656c6f772063757272656e742070726963650000000000000000005f82015250565b5f612034601783611b49565b915061203f82612000565b602082019050919050565b5f6020820190508181035f83015261206181612028565b9050919050565b7f42696420616d6f756e74206d7573742062652067726561746572207468616e205f8201527f3000000000000000000000000000000000000000000000000000000000000000602082015250565b5f6120c2602183611b49565b91506120cd82612068565b604082019050919050565b5f6020820190508181035f8301526120ef816120b6565b9050919050565b5f6040820190506121095f8301856118c9565b61211660208301846118c9565b9392505050565b5f8151905061212b81611806565b92915050565b5f6020828403121561214657612145611774565b5b5f6121538482850161211d565b91505092915050565b7f496e73756666696369656e7420616c6c6f77616e6365000000000000000000005f82015250565b5f612190601683611b49565b915061219b8261215c565b602082019050919050565b5f6020820190508181035f8301526121bd81612184565b9050919050565b7f496e73756666696369656e742062616c616e63650000000000000000000000005f82015250565b5f6121f8601483611b49565b9150612203826121c4565b602082019050919050565b5f6020820190508181035f830152612225816121ec565b9050919050565b5f60608201905061223f5f8301866118c9565b61224c60208301856118c9565b61225960408301846118a1565b949350505050565b61226a816118d8565b8114612274575f5ffd5b50565b5f8151905061228581612261565b92915050565b5f602082840312156122a05761229f611774565b5b5f6122ad84828501612277565b91505092915050565b7f546f6b656e207472616e73666572206661696c656400000000000000000000005f82015250565b5f6122ea601583611b49565b91506122f5826122b6565b602082019050919050565b5f6020820190508181035f830152612317816122de565b9050919050565b5f6060820190506123315f8301866118c9565b61233e60208301856118a1565b61234b60408301846118a1565b949350505050565b7f4d7573742062696420686967686572207468616e2063757272656e74206269645f82015250565b5f612387602083611b49565b915061239282612353565b602082019050919050565b5f6020820190508181035f8301526123b48161237b565b9050919050565b7f4d696e696d756d2062696420706572696f64206e6f7420656c617073656400005f82015250565b5f6123ef601e83611b49565b91506123fa826123bb565b602082019050919050565b5f6020820190508181035f83015261241c816123e3565b9050919050565b7f50726f6f66206e6f74207375626d6974746564000000000000000000000000005f82015250565b5f612457601383611b49565b915061246282612423565b602082019050919050565b5f6020820190508181035f8301526124848161244b565b9050919050565b7f5061796d656e7420616c726561647920636c61696d65640000000000000000005f82015250565b5f6124bf601783611b49565b91506124ca8261248b565b602082019050919050565b5f6020820190508181035f8301526124ec816124b3565b9050919050565b5f6040820190506125065f8301856118c9565b61251360208301846118a1565b9392505050565b7f5472616e73666572206661696c656400000000000000000000000000000000005f82015250565b5f61254e600f83611b49565b91506125598261251a565b602082019050919050565b5f6020820190508181035f83015261257b81612542565b9050919050565b5f6040820190506125955f8301856118a1565b6125a260208301846118a1565b9392505050565b5f6125b3826117fd565b91506125be836117fd565b92508282039050818111156125d6576125d5611ed0565b5b92915050565b5f6125e6826117fd565b91506125f1836117fd565b92508282026125ff816117fd565b9150828204841483151761261657612615611ed0565b5b5092915050565b7f4e487b71000000000000000000000000000000000000000000000000000000005f52601260045260245ffd5b5f612654826117fd565b915061265f836117fd565b92508261266f5761266e61261d565b5b828204905092915050565b7f5265656e7472616e637947756172643a207265656e7472616e742063616c6c005f82015250565b5f6126ae601f83611b49565b91506126b98261267a565b602082019050919050565b5f6020820190508181035f8301526126db816126a2565b905091905056fea2646970667358221220da65336159cef02b9932d7dca26379c245ae9b5fc076817bc53a4130ded24d7864736f6c634300081c0033",
					"opcodes": "PUSH1 0x80 PUSH1 0x40 MSTORE CALLVALUE DUP1 ISZERO PUSH2 0xF JUMPI PUSH0 PUSH0 REVERT JUMPDEST POP PUSH1 0x40 MLOAD PUSH2 0x2952 CODESIZE SUB DUP1 PUSH2 0x2952 DUP4 CODECOPY DUP2 DUP2 ADD PUSH1 0x40 MSTORE DUP2 ADD SWAP1 PUSH2 0x31 SWAP2 SWAP1 PUSH2 0x18A JUMP JUMPDEST PUSH1 0x1 PUSH0 DUP2 SWAP1 SSTORE POP PUSH0 PUSH20 0xFFFFFFFFFFFFFFFFFFFFFFFFFFFFFFFFFFFFFFFF AND DUP2 PUSH20 0xFFFFFFFFFFFFFFFFFFFFFFFFFFFFFFFFFFFFFFFF AND SUB PUSH2 0xA6 JUMPI PUSH1 0x40 MLOAD PUSH32 0x8C379A000000000000000000000000000000000000000000000000000000000 DUP2 MSTORE PUSH1 0x4 ADD PUSH2 0x9D SWAP1 PUSH2 0x20F JUMP JUMPDEST PUSH1 0x40 MLOAD DUP1 SWAP2 SUB SWAP1 REVERT JUMPDEST CALLER PUSH1 0x1 PUSH0 PUSH2 0x100 EXP DUP2 SLOAD DUP2 PUSH20 0xFFFFFFFFFFFFFFFFFFFFFFFFFFFFFFFFFFFFFFFF MUL NOT AND SWAP1 DUP4 PUSH20 0xFFFFFFFFFFFFFFFFFFFFFFFFFFFFFFFFFFFFFFFF AND MUL OR SWAP1 SSTORE POP DUP1 PUSH1 0x2 PUSH0 PUSH2 0x100 EXP DUP2 SLOAD DUP2 PUSH20 0xFFFFFFFFFFFFFFFFFFFFFFFFFFFFFFFFFFFFFFFF MUL NOT AND SWAP1 DUP4 PUSH20 0xFFFFFFFFFFFFFFFFFFFFFFFFFFFFFFFFFFFFFFFF AND MUL OR SWAP1 SSTORE POP POP PUSH2 0x22D JUMP JUMPDEST PUSH0 PUSH0 REVERT JUMPDEST PUSH0 PUSH20 0xFFFFFFFFFFFFFFFFFFFFFFFFFFFFFFFFFFFFFFFF DUP3 AND SWAP1 POP SWAP2 SWAP1 POP JUMP JUMPDEST PUSH0 PUSH2 0x159 DUP3 PUSH2 0x130 JUMP JUMPDEST SWAP1 POP SWAP2 SWAP1 POP JUMP JUMPDEST PUSH2 0x169 DUP2 PUSH2 0x14F JUMP JUMPDEST DUP2 EQ PUSH2 0x173 JUMPI PUSH0 PUSH0 REVERT JUMPDEST POP JUMP JUMPDEST PUSH0 DUP2 MLOAD SWAP1 POP PUSH2 0x184 DUP2 PUSH2 0x160 JUMP JUMPDEST SWAP3 SWAP2 POP POP JUMP JUMPDEST PUSH0 PUSH1 0x20 DUP3 DUP5 SUB SLT ISZERO PUSH2 0x19F JUMPI PUSH2 0x19E PUSH2 0x12C JUMP JUMPDEST JUMPDEST PUSH0 PUSH2 0x1AC DUP5 DUP3 DUP6 ADD PUSH2 0x176 JUMP JUMPDEST SWAP2 POP POP SWAP3 SWAP2 POP POP JUMP JUMPDEST PUSH0 DUP3 DUP3 MSTORE PUSH1 0x20 DUP3 ADD SWAP1 POP SWAP3 SWAP2 POP POP JUMP JUMPDEST PUSH32 0x496E76616C696420746F6B656E20616464726573730000000000000000000000 PUSH0 DUP3 ADD MSTORE POP JUMP JUMPDEST PUSH0 PUSH2 0x1F9 PUSH1 0x15 DUP4 PUSH2 0x1B5 JUMP JUMPDEST SWAP2 POP PUSH2 0x204 DUP3 PUSH2 0x1C5 JUMP JUMPDEST PUSH1 0x20 DUP3 ADD SWAP1 POP SWAP2 SWAP1 POP JUMP JUMPDEST PUSH0 PUSH1 0x20 DUP3 ADD SWAP1 POP DUP2 DUP2 SUB PUSH0 DUP4 ADD MSTORE PUSH2 0x226 DUP2 PUSH2 0x1ED JUMP JUMPDEST SWAP1 POP SWAP2 SWAP1 POP JUMP JUMPDEST PUSH2 0x2718 DUP1 PUSH2 0x23A PUSH0 CODECOPY PUSH0 RETURN INVALID PUSH1 0x80 PUSH1 0x40 MSTORE CALLVALUE DUP1 ISZERO PUSH2 0xF JUMPI PUSH0 PUSH0 REVERT JUMPDEST POP PUSH1 0x4 CALLDATASIZE LT PUSH2 0xA7 JUMPI PUSH0 CALLDATALOAD PUSH1 0xE0 SHR DUP1 PUSH4 0x570CA735 GT PUSH2 0x6F JUMPI DUP1 PUSH4 0x570CA735 EQ PUSH2 0x145 JUMPI DUP1 PUSH4 0x57C90DE5 EQ PUSH2 0x163 JUMPI DUP1 PUSH4 0x639D7566 EQ PUSH2 0x17F JUMPI DUP1 PUSH4 0xC63FDCC7 EQ PUSH2 0x19D JUMPI DUP1 PUSH4 0xD94A3505 EQ PUSH2 0x1B9 JUMPI DUP1 PUSH4 0xEB91D37E EQ PUSH2 0x1E2 JUMPI PUSH2 0xA7 JUMP JUMPDEST DUP1 PUSH4 0x6394C9B EQ PUSH2 0xAB JUMPI DUP1 PUSH4 0x2F19C56A EQ PUSH2 0xC7 JUMPI DUP1 PUSH4 0x37A35344 EQ PUSH2 0xE3 JUMPI DUP1 PUSH4 0x496A698D EQ PUSH2 0x101 JUMPI DUP1 PUSH4 0x4FEE13FC EQ PUSH2 0x129 JUMPI JUMPDEST PUSH0 PUSH0 REVERT JUMPDEST PUSH2 0xC5 PUSH1 0x4 DUP1 CALLDATASIZE SUB DUP2 ADD SWAP1 PUSH2 0xC0 SWAP2 SWAP1 PUSH2 0x17D2 JUMP JUMPDEST PUSH2 0x200 JUMP JUMPDEST STOP JUMPDEST PUSH2 0xE1 PUSH1 0x4 DUP1 CALLDATASIZE SUB DUP2 ADD SWAP1 PUSH2 0xDC SWAP2 SWAP1 PUSH2 0x1863 JUMP JUMPDEST PUSH2 0x340 JUMP JUMPDEST STOP JUMPDEST PUSH2 0xEB PUSH2 0x514 JUMP JUMPDEST PUSH1 0x40 MLOAD PUSH2 0xF8 SWAP2 SWAP1 PUSH2 0x18B0 JUMP JUMPDEST PUSH1 0x40 MLOAD DUP1 SWAP2 SUB SWAP1 RETURN JUMPDEST PUSH2 0x109 PUSH2 0x519 JUMP JUMPDEST PUSH1 0x40 MLOAD PUSH2 0x120 SWAP12 SWAP11 SWAP10 SWAP9 SWAP8 SWAP7 SWAP6 SWAP5 SWAP4 SWAP3 SWAP2 SWAP1 PUSH2 0x18F2 JUMP JUMPDEST PUSH1 0x40 MLOAD DUP1 SWAP2 SUB SWAP1 RETURN JUMPDEST PUSH2 0x143 PUSH1 0x4 DUP1 CALLDATASIZE SUB DUP2 ADD SWAP1 PUSH2 0x13E SWAP2 SWAP1 PUSH2 0x199B JUMP JUMPDEST PUSH2 0x5A5 JUMP JUMPDEST STOP JUMPDEST PUSH2 0x14D PUSH2 0x85F JUMP JUMPDEST PUSH1 0x40 MLOAD PUSH2 0x15A SWAP2 SWAP1 PUSH2 0x19D9 JUMP JUMPDEST PUSH1 0x40 MLOAD DUP1 SWAP2 SUB SWAP1 RETURN JUMPDEST PUSH2 0x17D PUSH1 0x4 DUP1 CALLDATASIZE SUB DUP2 ADD SWAP1 PUSH2 0x178 SWAP2 SWAP1 PUSH2 0x199B JUMP JUMPDEST PUSH2 0x884 JUMP JUMPDEST STOP JUMPDEST PUSH2 0x187 PUSH2 0x1171 JUMP JUMPDEST PUSH1 0x40 MLOAD PUSH2 0x194 SWAP2 SWAP1 PUSH2 0x1A4D JUMP JUMPDEST PUSH1 0x40 MLOAD DUP1 SWAP2 SUB SWAP1 RETURN JUMPDEST PUSH2 0x1B7 PUSH1 0x4 DUP1 CALLDATASIZE SUB DUP2 ADD SWAP1 PUSH2 0x1B2 SWAP2 SWAP1 PUSH2 0x1A66 JUMP JUMPDEST PUSH2 0x1196 JUMP JUMPDEST STOP JUMPDEST PUSH2 0x1C1 PUSH2 0x14C2 JUMP JUMPDEST PUSH1 0x40 MLOAD PUSH2 0x1D9 SWAP13 SWAP12 SWAP11 SWAP10 SWAP9 SWAP8 SWAP7 SWAP6 SWAP5 SWAP4 SWAP3 SWAP2 SWAP1 PUSH2 0x1A91 JUMP JUMPDEST PUSH1 0x40 MLOAD DUP1 SWAP2 SUB SWAP1 RETURN JUMPDEST PUSH2 0x1EA PUSH2 0x1636 JUMP JUMPDEST PUSH1 0x40 MLOAD PUSH2 0x1F7 SWAP2 SWAP1 PUSH2 0x18B0 JUMP JUMPDEST PUSH1 0x40 MLOAD DUP1 SWAP2 SUB SWAP1 RETURN JUMPDEST PUSH1 0x1 PUSH0 SWAP1 SLOAD SWAP1 PUSH2 0x100 EXP SWAP1 DIV PUSH20 0xFFFFFFFFFFFFFFFFFFFFFFFFFFFFFFFFFFFFFFFF AND PUSH20 0xFFFFFFFFFFFFFFFFFFFFFFFFFFFFFFFFFFFFFFFF AND CALLER PUSH20 0xFFFFFFFFFFFFFFFFFFFFFFFFFFFFFFFFFFFFFFFF AND EQ PUSH2 0x28F JUMPI PUSH1 0x40 MLOAD PUSH32 0x8C379A000000000000000000000000000000000000000000000000000000000 DUP2 MSTORE PUSH1 0x4 ADD PUSH2 0x286 SWAP1 PUSH2 0x1BA3 JUMP JUMPDEST PUSH1 0x40 MLOAD DUP1 SWAP2 SUB SWAP1 REVERT JUMPDEST PUSH0 PUSH20 0xFFFFFFFFFFFFFFFFFFFFFFFFFFFFFFFFFFFFFFFF AND DUP2 PUSH20 0xFFFFFFFFFFFFFFFFFFFFFFFFFFFFFFFFFFFFFFFF AND SUB PUSH2 0x2FD JUMPI PUSH1 0x40 MLOAD PUSH32 0x8C379A000000000000000000000000000000000000000000000000000000000 DUP2 MSTORE PUSH1 0x4 ADD PUSH2 0x2F4 SWAP1 PUSH2 0x1C0B JUMP JUMPDEST PUSH1 0x40 MLOAD DUP1 SWAP2 SUB SWAP1 REVERT JUMPDEST DUP1 PUSH1 0x1 PUSH0 PUSH2 0x100 EXP DUP2 SLOAD DUP2 PUSH20 0xFFFFFFFFFFFFFFFFFFFFFFFFFFFFFFFFFFFFFFFF MUL NOT AND SWAP1 DUP4 PUSH20 0xFFFFFFFFFFFFFFFFFFFFFFFFFFFFFFFFFFFFFFFF AND MUL OR SWAP1 SSTORE POP POP JUMP JUMPDEST PUSH1 0x1 PUSH0 SWAP1 SLOAD SWAP1 PUSH2 0x100 EXP SWAP1 DIV PUSH20 0xFFFFFFFFFFFFFFFFFFFFFFFFFFFFFFFFFFFFFFFF AND PUSH20 0xFFFFFFFFFFFFFFFFFFFFFFFFFFFFFFFFFFFFFFFF AND CALLER PUSH20 0xFFFFFFFFFFFFFFFFFFFFFFFFFFFFFFFFFFFFFFFF AND EQ PUSH2 0x3CF JUMPI PUSH1 0x40 MLOAD PUSH32 0x8C379A000000000000000000000000000000000000000000000000000000000 DUP2 MSTORE PUSH1 0x4 ADD PUSH2 0x3C6 SWAP1 PUSH2 0x1BA3 JUMP JUMPDEST PUSH1 0x40 MLOAD DUP1 SWAP2 SUB SWAP1 REVERT JUMPDEST PUSH1 0x3 PUSH1 0x8 ADD PUSH1 0x2 SWAP1 SLOAD SWAP1 PUSH2 0x100 EXP SWAP1 DIV PUSH1 0xFF AND PUSH2 0x421 JUMPI PUSH1 0x40 MLOAD PUSH32 0x8C379A000000000000000000000000000000000000000000000000000000000 DUP2 MSTORE PUSH1 0x4 ADD PUSH2 0x418 SWAP1 PUSH2 0x1C73 JUMP JUMPDEST PUSH1 0x40 MLOAD DUP1 SWAP2 SUB SWAP1 REVERT JUMPDEST DUP2 PUSH1 0x3 PUSH1 0x6 ADD SLOAD EQ PUSH2 0x468 JUMPI PUSH1 0x40 MLOAD PUSH32 0x8C379A000000000000000000000000000000000000000000000000000000000 DUP2 MSTORE PUSH1 0x4 ADD PUSH2 0x45F SWAP1 PUSH2 0x1CDB JUMP JUMPDEST PUSH1 0x40 MLOAD DUP1 SWAP2 SUB SWAP1 REVERT JUMPDEST PUSH1 0x3 PUSH1 0x8 ADD PUSH0 SWAP1 SLOAD SWAP1 PUSH2 0x100 EXP SWAP1 DIV PUSH1 0xFF AND ISZERO PUSH2 0x4BA JUMPI PUSH1 0x40 MLOAD PUSH32 0x8C379A000000000000000000000000000000000000000000000000000000000 DUP2 MSTORE PUSH1 0x4 ADD PUSH2 0x4B1 SWAP1 PUSH2 0x1D43 JUMP JUMPDEST PUSH1 0x40 MLOAD DUP1 SWAP2 SUB SWAP1 REVERT JUMPDEST PUSH1 0x1 PUSH1 0x3 PUSH1 0x8 ADD PUSH0 PUSH2 0x100 EXP DUP2 SLOAD DUP2 PUSH1 0xFF MUL NOT AND SWAP1 DUP4 ISZERO ISZERO MUL OR SWAP1 SSTORE POP PUSH32 0x556D8E38B75E3E273793AF33DDC3E1C8BC47D1CD092B52F3A239D9D1C8818997 DUP3 DUP3 PUSH1 0x40 MLOAD PUSH2 0x508 SWAP3 SWAP2 SWAP1 PUSH2 0x1D70 JUMP JUMPDEST PUSH1 0x40 MLOAD DUP1 SWAP2 SUB SWAP1 LOG1 POP POP JUMP JUMPDEST PUSH1 0x14 DUP2 JUMP JUMPDEST PUSH1 0x3 DUP1 PUSH0 ADD SLOAD SWAP1 DUP1 PUSH1 0x1 ADD SLOAD SWAP1 DUP1 PUSH1 0x2 ADD SLOAD SWAP1 DUP1 PUSH1 0x3 ADD SLOAD SWAP1 DUP1 PUSH1 0x4 ADD PUSH0 SWAP1 SLOAD SWAP1 PUSH2 0x100 EXP SWAP1 DIV PUSH20 0xFFFFFFFFFFFFFFFFFFFFFFFFFFFFFFFFFFFFFFFF AND SWAP1 DUP1 PUSH1 0x5 ADD SLOAD SWAP1 DUP1 PUSH1 0x6 ADD SLOAD SWAP1 DUP1 PUSH1 0x7 ADD SLOAD SWAP1 DUP1 PUSH1 0x8 ADD PUSH0 SWAP1 SLOAD SWAP1 PUSH2 0x100 EXP SWAP1 DIV PUSH1 0xFF AND SWAP1 DUP1 PUSH1 0x8 ADD PUSH1 0x1 SWAP1 SLOAD SWAP1 PUSH2 0x100 EXP SWAP1 DIV PUSH1 0xFF AND SWAP1 DUP1 PUSH1 0x8 ADD PUSH1 0x2 SWAP1 SLOAD SWAP1 PUSH2 0x100 EXP SWAP1 DIV PUSH1 0xFF AND SWAP1 POP DUP12 JUMP JUMPDEST PUSH1 0x1 PUSH0 SWAP1 SLOAD SWAP1 PUSH2 0x100 EXP SWAP1 DIV PUSH20 0xFFFFFFFFFFFFFFFFFFFFFFFFFFFFFFFFFFFFFFFF AND PUSH20 0xFFFFFFFFFFFFFFFFFFFFFFFFFFFFFFFFFFFFFFFF AND CALLER PUSH20 0xFFFFFFFFFFFFFFFFFFFFFFFFFFFFFFFFFFFFFFFF AND EQ PUSH2 0x634 JUMPI PUSH1 0x40 MLOAD PUSH32 0x8C379A000000000000000000000000000000000000000000000000000000000 DUP2 MSTORE PUSH1 0x4 ADD PUSH2 0x62B SWAP1 PUSH2 0x1BA3 JUMP JUMPDEST PUSH1 0x40 MLOAD DUP1 SWAP2 SUB SWAP1 REVERT JUMPDEST PUSH0 DUP3 GT PUSH2 0x676 JUMPI PUSH1 0x40 MLOAD PUSH32 0x8C379A000000000000000000000000000000000000000000000000000000000 DUP2 MSTORE PUSH1 0x4 ADD PUSH2 0x66D SWAP1 PUSH2 0x1E07 JUMP JUMPDEST PUSH1 0x40 MLOAD DUP1 SWAP2 SUB SWAP1 REVERT JUMPDEST DUP2 DUP2 GT ISZERO PUSH2 0x6B9 JUMPI PUSH1 0x40 MLOAD PUSH32 0x8C379A000000000000000000000000000000000000000000000000000000000 DUP2 MSTORE PUSH1 0x4 ADD PUSH2 0x6B0 SWAP1 PUSH2 0x1E6F JUMP JUMPDEST PUSH1 0x40 MLOAD DUP1 SWAP2 SUB SWAP1 REVERT JUMPDEST PUSH0 TIMESTAMP SWAP1 POP PUSH0 PUSH2 0x12C SWAP1 POP PUSH1 0x40 MLOAD DUP1 PUSH2 0x160 ADD PUSH1 0x40 MSTORE DUP1 DUP6 DUP2 MSTORE PUSH1 0x20 ADD DUP5 DUP2 MSTORE PUSH1 0x20 ADD DUP4 DUP2 MSTORE PUSH1 0x20 ADD DUP3 DUP2 MSTORE PUSH1 0x20 ADD PUSH0 PUSH20 0xFFFFFFFFFFFFFFFFFFFFFFFFFFFFFFFFFFFFFFFF AND DUP2 MSTORE PUSH1 0x20 ADD PUSH0 DUP2 MSTORE PUSH1 0x20 ADD PUSH0 DUP2 MSTORE PUSH1 0x20 ADD PUSH0 DUP2 MSTORE PUSH1 0x20 ADD PUSH0 ISZERO ISZERO DUP2 MSTORE PUSH1 0x20 ADD PUSH0 ISZERO ISZERO DUP2 MSTORE PUSH1 0x20 ADD PUSH0 ISZERO ISZERO DUP2 MSTORE POP PUSH1 0x3 PUSH0 DUP3 ADD MLOAD DUP2 PUSH0 ADD SSTORE PUSH1 0x20 DUP3 ADD MLOAD DUP2 PUSH1 0x1 ADD SSTORE PUSH1 0x40 DUP3 ADD MLOAD DUP2 PUSH1 0x2 ADD SSTORE PUSH1 0x60 DUP3 ADD MLOAD DUP2 PUSH1 0x3 ADD SSTORE PUSH1 0x80 DUP3 ADD MLOAD DUP2 PUSH1 0x4 ADD PUSH0 PUSH2 0x100 EXP DUP2 SLOAD DUP2 PUSH20 0xFFFFFFFFFFFFFFFFFFFFFFFFFFFFFFFFFFFFFFFF MUL NOT AND SWAP1 DUP4 PUSH20 0xFFFFFFFFFFFFFFFFFFFFFFFFFFFFFFFFFFFFFFFF AND MUL OR SWAP1 SSTORE POP PUSH1 0xA0 DUP3 ADD MLOAD DUP2 PUSH1 0x5 ADD SSTORE PUSH1 0xC0 DUP3 ADD MLOAD DUP2 PUSH1 0x6 ADD SSTORE PUSH1 0xE0 DUP3 ADD MLOAD DUP2 PUSH1 0x7 ADD SSTORE PUSH2 0x100 DUP3 ADD MLOAD DUP2 PUSH1 0x8 ADD PUSH0 PUSH2 0x100 EXP DUP2 SLOAD DUP2 PUSH1 0xFF MUL NOT AND SWAP1 DUP4 ISZERO ISZERO MUL OR SWAP1 SSTORE POP PUSH2 0x120 DUP3 ADD MLOAD DUP2 PUSH1 0x8 ADD PUSH1 0x1 PUSH2 0x100 EXP DUP2 SLOAD DUP2 PUSH1 0xFF MUL NOT AND SWAP1 DUP4 ISZERO ISZERO MUL OR SWAP1 SSTORE POP PUSH2 0x140 DUP3 ADD MLOAD DUP2 PUSH1 0x8 ADD PUSH1 0x2 PUSH2 0x100 EXP DUP2 SLOAD DUP2 PUSH1 0xFF MUL NOT AND SWAP1 DUP4 ISZERO ISZERO MUL OR SWAP1 SSTORE POP SWAP1 POP POP PUSH32 0xA832766A05F1BD0298B0268308621777CFE1E4EEA23AFE7C06BEEA79BC6DDD2D DUP5 DUP5 DUP5 DUP5 PUSH1 0x40 MLOAD PUSH2 0x851 SWAP5 SWAP4 SWAP3 SWAP2 SWAP1 PUSH2 0x1E8D JUMP JUMPDEST PUSH1 0x40 MLOAD DUP1 SWAP2 SUB SWAP1 LOG1 POP POP POP POP JUMP JUMPDEST PUSH1 0x1 PUSH0 SWAP1 SLOAD SWAP1 PUSH2 0x100 EXP SWAP1 DIV PUSH20 0xFFFFFFFFFFFFFFFFFFFFFFFFFFFFFFFFFFFFFFFF AND DUP2 JUMP JUMPDEST PUSH2 0x88C PUSH2 0x171E JUMP JUMPDEST PUSH1 0x3 PUSH1 0x2 ADD SLOAD TIMESTAMP LT ISZERO DUP1 ISZERO PUSH2 0x8B5 JUMPI POP PUSH1 0x3 DUP1 ADD SLOAD PUSH1 0x3 PUSH1 0x2 ADD SLOAD PUSH2 0x8B1 SWAP2 SWAP1 PUSH2 0x1EFD JUMP JUMPDEST TIMESTAMP GT ISZERO JUMPDEST PUSH2 0x8F4 JUMPI PUSH1 0x40 MLOAD PUSH32 0x8C379A000000000000000000000000000000000000000000000000000000000 DUP2 MSTORE PUSH1 0x4 ADD PUSH2 0x8EB SWAP1 PUSH2 0x1F7A JUMP JUMPDEST PUSH1 0x40 MLOAD DUP1 SWAP2 SUB SWAP1 REVERT JUMPDEST PUSH1 0x3 PUSH1 0x8 ADD PUSH1 0x2 SWAP1 SLOAD SWAP1 PUSH2 0x100 EXP SWAP1 DIV PUSH1 0xFF AND ISZERO PUSH2 0x947 JUMPI PUSH1 0x40 MLOAD PUSH32 0x8C379A000000000000000000000000000000000000000000000000000000000 DUP2 MSTORE PUSH1 0x4 ADD PUSH2 0x93E SWAP1 PUSH2 0x1FE2 JUMP JUMPDEST PUSH1 0x40 MLOAD DUP1 SWAP2 SUB SWAP1 REVERT JUMPDEST PUSH0 PUSH2 0x950 PUSH2 0x1636 JUMP JUMPDEST SWAP1 POP DUP1 DUP3 LT ISZERO PUSH2 0x995 JUMPI PUSH1 0x40 MLOAD PUSH32 0x8C379A000000000000000000000000000000000000000000000000000000000 DUP2 MSTORE PUSH1 0x4 ADD PUSH2 0x98C SWAP1 PUSH2 0x204A JUMP JUMPDEST PUSH1 0x40 MLOAD DUP1 SWAP2 SUB SWAP1 REVERT JUMPDEST PUSH0 DUP3 GT PUSH2 0x9D7 JUMPI PUSH1 0x40 MLOAD PUSH32 0x8C379A000000000000000000000000000000000000000000000000000000000 DUP2 MSTORE PUSH1 0x4 ADD PUSH2 0x9CE SWAP1 PUSH2 0x20D8 JUMP JUMPDEST PUSH1 0x40 MLOAD DUP1 SWAP2 SUB SWAP1 REVERT JUMPDEST PUSH1 0x3 PUSH0 ADD SLOAD DUP3 LT PUSH2 0xD68 JUMPI DUP2 PUSH1 0x2 PUSH0 SWAP1 SLOAD SWAP1 PUSH2 0x100 EXP SWAP1 DIV PUSH20 0xFFFFFFFFFFFFFFFFFFFFFFFFFFFFFFFFFFFFFFFF AND PUSH20 0xFFFFFFFFFFFFFFFFFFFFFFFFFFFFFFFFFFFFFFFF AND PUSH4 0xDD62ED3E CALLER ADDRESS PUSH1 0x40 MLOAD DUP4 PUSH4 0xFFFFFFFF AND PUSH1 0xE0 SHL DUP2 MSTORE PUSH1 0x4 ADD PUSH2 0xA3F SWAP3 SWAP2 SWAP1 PUSH2 0x20F6 JUMP JUMPDEST PUSH1 0x20 PUSH1 0x40 MLOAD DUP1 DUP4 SUB DUP2 DUP7 GAS STATICCALL ISZERO DUP1 ISZERO PUSH2 0xA5A JUMPI RETURNDATASIZE PUSH0 PUSH0 RETURNDATACOPY RETURNDATASIZE PUSH0 REVERT JUMPDEST POP POP POP POP PUSH1 0x40 MLOAD RETURNDATASIZE PUSH1 0x1F NOT PUSH1 0x1F DUP3 ADD AND DUP3 ADD DUP1 PUSH1 0x40 MSTORE POP DUP2 ADD SWAP1 PUSH2 0xA7E SWAP2 SWAP1 PUSH2 0x2131 JUMP JUMPDEST LT ISZERO PUSH2 0xABF JUMPI PUSH1 0x40 MLOAD PUSH32 0x8C379A000000000000000000000000000000000000000000000000000000000 DUP2 MSTORE PUSH1 0x4 ADD PUSH2 0xAB6 SWAP1 PUSH2 0x21A6 JUMP JUMPDEST PUSH1 0x40 MLOAD DUP1 SWAP2 SUB SWAP1 REVERT JUMPDEST DUP2 PUSH1 0x2 PUSH0 SWAP1 SLOAD SWAP1 PUSH2 0x100 EXP SWAP1 DIV PUSH20 0xFFFFFFFFFFFFFFFFFFFFFFFFFFFFFFFFFFFFFFFF AND PUSH20 0xFFFFFFFFFFFFFFFFFFFFFFFFFFFFFFFFFFFFFFFF AND PUSH4 0x70A08231 CALLER PUSH1 0x40 MLOAD DUP3 PUSH4 0xFFFFFFFF AND PUSH1 0xE0 SHL DUP2 MSTORE PUSH1 0x4 ADD PUSH2 0xB1A SWAP2 SWAP1 PUSH2 0x19D9 JUMP JUMPDEST PUSH1 0x20 PUSH1 0x40 MLOAD DUP1 DUP4 SUB DUP2 DUP7 GAS STATICCALL ISZERO DUP1 ISZERO PUSH2 0xB35 JUMPI RETURNDATASIZE PUSH0 PUSH0 RETURNDATACOPY RETURNDATASIZE PUSH0 REVERT JUMPDEST POP POP POP POP PUSH1 0x40 MLOAD RETURNDATASIZE PUSH1 0x1F NOT PUSH1 0x1F DUP3 ADD AND DUP3 ADD DUP1 PUSH1 0x40 MSTORE POP DUP2 ADD SWAP1 PUSH2 0xB59 SWAP2 SWAP1 PUSH2 0x2131 JUMP JUMPDEST LT ISZERO PUSH2 0xB9A JUMPI PUSH1 0x40 MLOAD PUSH32 0x8C379A000000000000000000000000000000000000000000000000000000000 DUP2 MSTORE PUSH1 0x4 ADD PUSH2 0xB91 SWAP1 PUSH2 0x220E JUMP JUMPDEST PUSH1 0x40 MLOAD DUP1 SWAP2 SUB SWAP1 REVERT JUMPDEST PUSH1 0x2 PUSH0 SWAP1 SLOAD SWAP1 PUSH2 0x100 EXP SWAP1 DIV PUSH20 0xFFFFFFFFFFFFFFFFFFFFFFFFFFFFFFFFFFFFFFFF AND PUSH20 0xFFFFFFFFFFFFFFFFFFFFFFFFFFFFFFFFFFFFFFFF AND PUSH4 0x23B872DD CALLER ADDRESS DUP6 PUSH1 0x40 MLOAD DUP5 PUSH4 0xFFFFFFFF AND PUSH1 0xE0 SHL DUP2 MSTORE PUSH1 0x4 ADD PUSH2 0xBF8 SWAP4 SWAP3 SWAP2 SWAP1 PUSH2 0x222C JUMP JUMPDEST PUSH1 0x20 PUSH1 0x40 MLOAD DUP1 DUP4 SUB DUP2 PUSH0 DUP8 GAS CALL ISZERO DUP1 ISZERO PUSH2 0xC14 JUMPI RETURNDATASIZE PUSH0 PUSH0 RETURNDATACOPY RETURNDATASIZE PUSH0 REVERT JUMPDEST POP POP POP POP PUSH1 0x40 MLOAD RETURNDATASIZE PUSH1 0x1F NOT PUSH1 0x1F DUP3 ADD AND DUP3 ADD DUP1 PUSH1 0x40 MSTORE POP DUP2 ADD SWAP1 PUSH2 0xC38 SWAP2 SWAP1 PUSH2 0x228B JUMP JUMPDEST PUSH2 0xC77 JUMPI PUSH1 0x40 MLOAD PUSH32 0x8C379A000000000000000000000000000000000000000000000000000000000 DUP2 MSTORE PUSH1 0x4 ADD PUSH2 0xC6E SWAP1 PUSH2 0x2300 JUMP JUMPDEST PUSH1 0x40 MLOAD DUP1 SWAP2 SUB SWAP1 REVERT JUMPDEST CALLER PUSH1 0x3 PUSH1 0x4 ADD PUSH0 PUSH2 0x100 EXP DUP2 SLOAD DUP2 PUSH20 0xFFFFFFFFFFFFFFFFFFFFFFFFFFFFFFFFFFFFFFFF MUL NOT AND SWAP1 DUP4 PUSH20 0xFFFFFFFFFFFFFFFFFFFFFFFFFFFFFFFFFFFFFFFF AND MUL OR SWAP1 SSTORE POP DUP2 PUSH1 0x3 PUSH1 0x5 ADD DUP2 SWAP1 SSTORE POP DUP3 PUSH1 0x3 PUSH1 0x6 ADD DUP2 SWAP1 SSTORE POP PUSH1 0x1 PUSH1 0x3 PUSH1 0x8 ADD PUSH1 0x2 PUSH2 0x100 EXP DUP2 SLOAD DUP2 PUSH1 0xFF MUL NOT AND SWAP1 DUP4 ISZERO ISZERO MUL OR SWAP1 SSTORE POP PUSH32 0xDF8644C0A4C21ED214CE69F395675B3A5FCD1039083DAEA5058898DE40EA3149 CALLER DUP4 DUP6 PUSH1 0x40 MLOAD PUSH2 0xD1F SWAP4 SWAP3 SWAP2 SWAP1 PUSH2 0x231E JUMP JUMPDEST PUSH1 0x40 MLOAD DUP1 SWAP2 SUB SWAP1 LOG1 PUSH32 0xC358E8E3F205B5E7453ABD5CBAC388CA4552B887B69001BC972B88610C749035 CALLER DUP4 DUP6 PUSH1 0x40 MLOAD PUSH2 0xD5A SWAP4 SWAP3 SWAP2 SWAP1 PUSH2 0x231E JUMP JUMPDEST PUSH1 0x40 MLOAD DUP1 SWAP2 SUB SWAP1 LOG1 POP PUSH2 0x1165 JUMP JUMPDEST PUSH0 PUSH1 0x3 PUSH1 0x5 ADD SLOAD GT ISZERO PUSH2 0xE11 JUMPI PUSH1 0x3 PUSH1 0x5 ADD SLOAD DUP3 GT PUSH2 0xDBC JUMPI PUSH1 0x40 MLOAD PUSH32 0x8C379A000000000000000000000000000000000000000000000000000000000 DUP2 MSTORE PUSH1 0x4 ADD PUSH2 0xDB3 SWAP1 PUSH2 0x239D JUMP JUMPDEST PUSH1 0x40 MLOAD DUP1 SWAP2 SUB SWAP1 REVERT JUMPDEST PUSH1 0x14 PUSH1 0x3 PUSH1 0x7 ADD SLOAD PUSH2 0xDCE SWAP2 SWAP1 PUSH2 0x1EFD JUMP JUMPDEST TIMESTAMP LT ISZERO PUSH2 0xE10 JUMPI PUSH1 0x40 MLOAD PUSH32 0x8C379A000000000000000000000000000000000000000000000000000000000 DUP2 MSTORE PUSH1 0x4 ADD PUSH2 0xE07 SWAP1 PUSH2 0x2405 JUMP JUMPDEST PUSH1 0x40 MLOAD DUP1 SWAP2 SUB SWAP1 REVERT JUMPDEST JUMPDEST DUP2 PUSH1 0x2 PUSH0 SWAP1 SLOAD SWAP1 PUSH2 0x100 EXP SWAP1 DIV PUSH20 0xFFFFFFFFFFFFFFFFFFFFFFFFFFFFFFFFFFFFFFFF AND PUSH20 0xFFFFFFFFFFFFFFFFFFFFFFFFFFFFFFFFFFFFFFFF AND PUSH4 0xDD62ED3E CALLER ADDRESS PUSH1 0x40 MLOAD DUP4 PUSH4 0xFFFFFFFF AND PUSH1 0xE0 SHL DUP2 MSTORE PUSH1 0x4 ADD PUSH2 0xE6E SWAP3 SWAP2 SWAP1 PUSH2 0x20F6 JUMP JUMPDEST PUSH1 0x20 PUSH1 0x40 MLOAD DUP1 DUP4 SUB DUP2 DUP7 GAS STATICCALL ISZERO DUP1 ISZERO PUSH2 0xE89 JUMPI RETURNDATASIZE PUSH0 PUSH0 RETURNDATACOPY RETURNDATASIZE PUSH0 REVERT JUMPDEST POP POP POP POP PUSH1 0x40 MLOAD RETURNDATASIZE PUSH1 0x1F NOT PUSH1 0x1F DUP3 ADD AND DUP3 ADD DUP1 PUSH1 0x40 MSTORE POP DUP2 ADD SWAP1 PUSH2 0xEAD SWAP2 SWAP1 PUSH2 0x2131 JUMP JUMPDEST LT ISZERO PUSH2 0xEEE JUMPI PUSH1 0x40 MLOAD PUSH32 0x8C379A000000000000000000000000000000000000000000000000000000000 DUP2 MSTORE PUSH1 0x4 ADD PUSH2 0xEE5 SWAP1 PUSH2 0x21A6 JUMP JUMPDEST PUSH1 0x40 MLOAD DUP1 SWAP2 SUB SWAP1 REVERT JUMPDEST DUP2 PUSH1 0x2 PUSH0 SWAP1 SLOAD SWAP1 PUSH2 0x100 EXP SWAP1 DIV PUSH20 0xFFFFFFFFFFFFFFFFFFFFFFFFFFFFFFFFFFFFFFFF AND PUSH20 0xFFFFFFFFFFFFFFFFFFFFFFFFFFFFFFFFFFFFFFFF AND PUSH4 0x70A08231 CALLER PUSH1 0x40 MLOAD DUP3 PUSH4 0xFFFFFFFF AND PUSH1 0xE0 SHL DUP2 MSTORE PUSH1 0x4 ADD PUSH2 0xF49 SWAP2 SWAP1 PUSH2 0x19D9 JUMP JUMPDEST PUSH1 0x20 PUSH1 0x40 MLOAD DUP1 DUP4 SUB DUP2 DUP7 GAS STATICCALL ISZERO DUP1 ISZERO PUSH2 0xF64 JUMPI RETURNDATASIZE PUSH0 PUSH0 RETURNDATACOPY RETURNDATASIZE PUSH0 REVERT JUMPDEST POP POP POP POP PUSH1 0x40 MLOAD RETURNDATASIZE PUSH1 0x1F NOT PUSH1 0x1F DUP3 ADD AND DUP3 ADD DUP1 PUSH1 0x40 MSTORE POP DUP2 ADD SWAP1 PUSH2 0xF88 SWAP2 SWAP1 PUSH2 0x2131 JUMP JUMPDEST LT ISZERO PUSH2 0xFC9 JUMPI PUSH1 0x40 MLOAD PUSH32 0x8C379A000000000000000000000000000000000000000000000000000000000 DUP2 MSTORE PUSH1 0x4 ADD PUSH2 0xFC0 SWAP1 PUSH2 0x220E JUMP JUMPDEST PUSH1 0x40 MLOAD DUP1 SWAP2 SUB SWAP1 REVERT JUMPDEST PUSH1 0x2 PUSH0 SWAP1 SLOAD SWAP1 PUSH2 0x100 EXP SWAP1 DIV PUSH20 0xFFFFFFFFFFFFFFFFFFFFFFFFFFFFFFFFFFFFFFFF AND PUSH20 0xFFFFFFFFFFFFFFFFFFFFFFFFFFFFFFFFFFFFFFFF AND PUSH4 0x23B872DD CALLER PUSH1 0x1 PUSH0 SWAP1 SLOAD SWAP1 PUSH2 0x100 EXP SWAP1 DIV PUSH20 0xFFFFFFFFFFFFFFFFFFFFFFFFFFFFFFFFFFFFFFFF AND DUP6 PUSH1 0x40 MLOAD DUP5 PUSH4 0xFFFFFFFF AND PUSH1 0xE0 SHL DUP2 MSTORE PUSH1 0x4 ADD PUSH2 0x1048 SWAP4 SWAP3 SWAP2 SWAP1 PUSH2 0x222C JUMP JUMPDEST PUSH1 0x20 PUSH1 0x40 MLOAD DUP1 DUP4 SUB DUP2 PUSH0 DUP8 GAS CALL ISZERO DUP1 ISZERO PUSH2 0x1064 JUMPI RETURNDATASIZE PUSH0 PUSH0 RETURNDATACOPY RETURNDATASIZE PUSH0 REVERT JUMPDEST POP POP POP POP PUSH1 0x40 MLOAD RETURNDATASIZE PUSH1 0x1F NOT PUSH1 0x1F DUP3 ADD AND DUP3 ADD DUP1 PUSH1 0x40 MSTORE POP DUP2 ADD SWAP1 PUSH2 0x1088 SWAP2 SWAP1 PUSH2 0x228B JUMP JUMPDEST PUSH2 0x10C7 JUMPI PUSH1 0x40 MLOAD PUSH32 0x8C379A000000000000000000000000000000000000000000000000000000000 DUP2 MSTORE PUSH1 0x4 ADD PUSH2 0x10BE SWAP1 PUSH2 0x2300 JUMP JUMPDEST PUSH1 0x40 MLOAD DUP1 SWAP2 SUB SWAP1 REVERT JUMPDEST CALLER PUSH1 0x3 PUSH1 0x4 ADD PUSH0 PUSH2 0x100 EXP DUP2 SLOAD DUP2 PUSH20 0xFFFFFFFFFFFFFFFFFFFFFFFFFFFFFFFFFFFFFFFF MUL NOT AND SWAP1 DUP4 PUSH20 0xFFFFFFFFFFFFFFFFFFFFFFFFFFFFFFFFFFFFFFFF AND MUL OR SWAP1 SSTORE POP DUP2 PUSH1 0x3 PUSH1 0x5 ADD DUP2 SWAP1 SSTORE POP DUP3 PUSH1 0x3 PUSH1 0x6 ADD DUP2 SWAP1 SSTORE POP TIMESTAMP PUSH1 0x3 PUSH1 0x7 ADD DUP2 SWAP1 SSTORE POP PUSH32 0xDF8644C0A4C21ED214CE69F395675B3A5FCD1039083DAEA5058898DE40EA3149 CALLER DUP4 DUP6 PUSH1 0x40 MLOAD PUSH2 0x115B SWAP4 SWAP3 SWAP2 SWAP1 PUSH2 0x231E JUMP JUMPDEST PUSH1 0x40 MLOAD DUP1 SWAP2 SUB SWAP1 LOG1 POP JUMPDEST PUSH2 0x116D PUSH2 0x176B JUMP JUMPDEST POP POP JUMP JUMPDEST PUSH1 0x2 PUSH0 SWAP1 SLOAD SWAP1 PUSH2 0x100 EXP SWAP1 DIV PUSH20 0xFFFFFFFFFFFFFFFFFFFFFFFFFFFFFFFFFFFFFFFF AND DUP2 JUMP JUMPDEST PUSH1 0x1 PUSH0 SWAP1 SLOAD SWAP1 PUSH2 0x100 EXP SWAP1 DIV PUSH20 0xFFFFFFFFFFFFFFFFFFFFFFFFFFFFFFFFFFFFFFFF AND PUSH20 0xFFFFFFFFFFFFFFFFFFFFFFFFFFFFFFFFFFFFFFFF AND CALLER PUSH20 0xFFFFFFFFFFFFFFFFFFFFFFFFFFFFFFFFFFFFFFFF AND EQ PUSH2 0x1225 JUMPI PUSH1 0x40 MLOAD PUSH32 0x8C379A000000000000000000000000000000000000000000000000000000000 DUP2 MSTORE PUSH1 0x4 ADD PUSH2 0x121C SWAP1 PUSH2 0x1BA3 JUMP JUMPDEST PUSH1 0x40 MLOAD DUP1 SWAP2 SUB SWAP1 REVERT JUMPDEST PUSH1 0x3 PUSH1 0x8 ADD PUSH1 0x2 SWAP1 SLOAD SWAP1 PUSH2 0x100 EXP SWAP1 DIV PUSH1 0xFF AND PUSH2 0x1277 JUMPI PUSH1 0x40 MLOAD PUSH32 0x8C379A000000000000000000000000000000000000000000000000000000000 DUP2 MSTORE PUSH1 0x4 ADD PUSH2 0x126E SWAP1 PUSH2 0x1C73 JUMP JUMPDEST PUSH1 0x40 MLOAD DUP1 SWAP2 SUB SWAP1 REVERT JUMPDEST PUSH1 0x3 PUSH1 0x8 ADD PUSH0 SWAP1 SLOAD SWAP1 PUSH2 0x100 EXP SWAP1 DIV PUSH1 0xFF AND PUSH2 0x12C8 JUMPI PUSH1 0x40 MLOAD PUSH32 0x8C379A000000000000000000000000000000000000000000000000000000000 DUP2 MSTORE PUSH1 0x4 ADD PUSH2 0x12BF SWAP1 PUSH2 0x246D JUMP JUMPDEST PUSH1 0x40 MLOAD DUP1 SWAP2 SUB SWAP1 REVERT JUMPDEST PUSH1 0x3 PUSH1 0x8 ADD PUSH1 0x1 SWAP1 SLOAD SWAP1 PUSH2 0x100 EXP SWAP1 DIV PUSH1 0xFF AND ISZERO PUSH2 0x131B JUMPI PUSH1 0x40 MLOAD PUSH32 0x8C379A000000000000000000000000000000000000000000000000000000000 DUP2 MSTORE PUSH1 0x4 ADD PUSH2 0x1312 SWAP1 PUSH2 0x24D5 JUMP JUMPDEST PUSH1 0x40 MLOAD DUP1 SWAP2 SUB SWAP1 REVERT JUMPDEST DUP1 PUSH1 0x3 PUSH1 0x6 ADD SLOAD EQ PUSH2 0x1362 JUMPI PUSH1 0x40 MLOAD PUSH32 0x8C379A000000000000000000000000000000000000000000000000000000000 DUP2 MSTORE PUSH1 0x4 ADD PUSH2 0x1359 SWAP1 PUSH2 0x1CDB JUMP JUMPDEST PUSH1 0x40 MLOAD DUP1 SWAP2 SUB SWAP1 REVERT JUMPDEST PUSH1 0x1 PUSH1 0x3 PUSH1 0x8 ADD PUSH1 0x1 PUSH2 0x100 EXP DUP2 SLOAD DUP2 PUSH1 0xFF MUL NOT AND SWAP1 DUP4 ISZERO ISZERO MUL OR SWAP1 SSTORE POP PUSH1 0x2 PUSH0 SWAP1 SLOAD SWAP1 PUSH2 0x100 EXP SWAP1 DIV PUSH20 0xFFFFFFFFFFFFFFFFFFFFFFFFFFFFFFFFFFFFFFFF AND PUSH20 0xFFFFFFFFFFFFFFFFFFFFFFFFFFFFFFFFFFFFFFFF AND PUSH4 0xA9059CBB PUSH1 0x1 PUSH0 SWAP1 SLOAD SWAP1 PUSH2 0x100 EXP SWAP1 DIV PUSH20 0xFFFFFFFFFFFFFFFFFFFFFFFFFFFFFFFFFFFFFFFF AND PUSH1 0x3 PUSH1 0x5 ADD SLOAD PUSH1 0x40 MLOAD DUP4 PUSH4 0xFFFFFFFF AND PUSH1 0xE0 SHL DUP2 MSTORE PUSH1 0x4 ADD PUSH2 0x1402 SWAP3 SWAP2 SWAP1 PUSH2 0x24F3 JUMP JUMPDEST PUSH1 0x20 PUSH1 0x40 MLOAD DUP1 DUP4 SUB DUP2 PUSH0 DUP8 GAS CALL ISZERO DUP1 ISZERO PUSH2 0x141E JUMPI RETURNDATASIZE PUSH0 PUSH0 RETURNDATACOPY RETURNDATASIZE PUSH0 REVERT JUMPDEST POP POP POP POP PUSH1 0x40 MLOAD RETURNDATASIZE PUSH1 0x1F NOT PUSH1 0x1F DUP3 ADD AND DUP3 ADD DUP1 PUSH1 0x40 MSTORE POP DUP2 ADD SWAP1 PUSH2 0x1442 SWAP2 SWAP1 PUSH2 0x228B JUMP JUMPDEST PUSH2 0x1481 JUMPI PUSH1 0x40 MLOAD PUSH32 0x8C379A000000000000000000000000000000000000000000000000000000000 DUP2 MSTORE PUSH1 0x4 ADD PUSH2 0x1478 SWAP1 PUSH2 0x2564 JUMP JUMPDEST PUSH1 0x40 MLOAD DUP1 SWAP2 SUB SWAP1 REVERT JUMPDEST PUSH32 0x86D509B2C9C07DF983DC6027AFF772237F56674192D9CD56EBE14B2E6BB252A0 DUP2 PUSH1 0x3 PUSH1 0x5 ADD SLOAD PUSH1 0x40 MLOAD PUSH2 0x14B7 SWAP3 SWAP2 SWAP1 PUSH2 0x2582 JUMP JUMPDEST PUSH1 0x40 MLOAD DUP1 SWAP2 SUB SWAP1 LOG1 POP JUMP JUMPDEST PUSH0 PUSH0 PUSH0 PUSH0 PUSH0 PUSH0 PUSH0 PUSH0 PUSH0 PUSH0 PUSH0 PUSH0 PUSH0 PUSH1 0x3 PUSH1 0x40 MLOAD DUP1 PUSH2 0x160 ADD PUSH1 0x40 MSTORE SWAP1 DUP2 PUSH0 DUP3 ADD SLOAD DUP2 MSTORE PUSH1 0x20 ADD PUSH1 0x1 DUP3 ADD SLOAD DUP2 MSTORE PUSH1 0x20 ADD PUSH1 0x2 DUP3 ADD SLOAD DUP2 MSTORE PUSH1 0x20 ADD PUSH1 0x3 DUP3 ADD SLOAD DUP2 MSTORE PUSH1 0x20 ADD PUSH1 0x4 DUP3 ADD PUSH0 SWAP1 SLOAD SWAP1 PUSH2 0x100 EXP SWAP1 DIV PUSH20 0xFFFFFFFFFFFFFFFFFFFFFFFFFFFFFFFFFFFFFFFF AND PUSH20 0xFFFFFFFFFFFFFFFFFFFFFFFFFFFFFFFFFFFFFFFF AND PUSH20 0xFFFFFFFFFFFFFFFFFFFFFFFFFFFFFFFFFFFFFFFF AND DUP2 MSTORE PUSH1 0x20 ADD PUSH1 0x5 DUP3 ADD SLOAD DUP2 MSTORE PUSH1 0x20 ADD PUSH1 0x6 DUP3 ADD SLOAD DUP2 MSTORE PUSH1 0x20 ADD PUSH1 0x7 DUP3 ADD SLOAD DUP2 MSTORE PUSH1 0x20 ADD PUSH1 0x8 DUP3 ADD PUSH0 SWAP1 SLOAD SWAP1 PUSH2 0x100 EXP SWAP1 DIV PUSH1 0xFF AND ISZERO ISZERO ISZERO ISZERO DUP2 MSTORE PUSH1 0x20 ADD PUSH1 0x8 DUP3 ADD PUSH1 0x1 SWAP1 SLOAD SWAP1 PUSH2 0x100 EXP SWAP1 DIV PUSH1 0xFF AND ISZERO ISZERO ISZERO ISZERO DUP2 MSTORE PUSH1 0x20 ADD PUSH1 0x8 DUP3 ADD PUSH1 0x2 SWAP1 SLOAD SWAP1 PUSH2 0x100 EXP SWAP1 DIV PUSH1 0xFF AND ISZERO ISZERO ISZERO ISZERO DUP2 MSTORE POP POP SWAP1 POP PUSH0 PUSH2 0x15D2 PUSH2 0x1636 JUMP JUMPDEST SWAP1 POP DUP2 PUSH0 ADD MLOAD DUP3 PUSH1 0x20 ADD MLOAD DUP3 DUP5 PUSH1 0x40 ADD MLOAD DUP6 PUSH1 0x60 ADD MLOAD DUP7 PUSH1 0x80 ADD MLOAD DUP8 PUSH1 0xA0 ADD MLOAD DUP9 PUSH1 0xC0 ADD MLOAD DUP10 PUSH1 0xE0 ADD MLOAD DUP11 PUSH2 0x100 ADD MLOAD DUP12 PUSH2 0x120 ADD MLOAD DUP13 PUSH2 0x140 ADD MLOAD SWAP14 POP SWAP14 POP SWAP14 POP SWAP14 POP SWAP14 POP SWAP14 POP SWAP14 POP SWAP14 POP SWAP14 POP SWAP14 POP SWAP14 POP SWAP14 POP POP POP SWAP1 SWAP2 SWAP3 SWAP4 SWAP5 SWAP6 SWAP7 SWAP8 SWAP9 SWAP10 SWAP11 SWAP12 JUMP JUMPDEST PUSH0 PUSH1 0x3 PUSH1 0x2 ADD SLOAD TIMESTAMP LT DUP1 PUSH2 0x164E JUMPI POP PUSH0 PUSH1 0x3 PUSH1 0x2 ADD SLOAD EQ JUMPDEST DUP1 PUSH2 0x1668 JUMPI POP PUSH1 0x3 PUSH1 0x8 ADD PUSH1 0x2 SWAP1 SLOAD SWAP1 PUSH2 0x100 EXP SWAP1 DIV PUSH1 0xFF AND JUMPDEST ISZERO PUSH2 0x1679 JUMPI PUSH1 0x3 PUSH0 ADD SLOAD SWAP1 POP PUSH2 0x171B JUMP JUMPDEST PUSH0 PUSH1 0x3 PUSH1 0x2 ADD SLOAD TIMESTAMP PUSH2 0x168B SWAP2 SWAP1 PUSH2 0x25A9 JUMP JUMPDEST SWAP1 POP PUSH1 0x3 DUP1 ADD SLOAD DUP2 LT PUSH2 0x16A6 JUMPI PUSH1 0x3 PUSH1 0x1 ADD SLOAD SWAP2 POP POP PUSH2 0x171B JUMP JUMPDEST PUSH0 PUSH1 0x3 PUSH1 0x1 ADD SLOAD PUSH1 0x3 PUSH0 ADD SLOAD PUSH2 0x16BC SWAP2 SWAP1 PUSH2 0x25A9 JUMP JUMPDEST SWAP1 POP PUSH0 PUSH1 0x3 DUP1 ADD SLOAD PUSH8 0xDE0B6B3A7640000 DUP5 DUP5 PUSH2 0x16D9 SWAP2 SWAP1 PUSH2 0x25DC JUMP JUMPDEST PUSH2 0x16E3 SWAP2 SWAP1 PUSH2 0x25DC JUMP JUMPDEST PUSH2 0x16ED SWAP2 SWAP1 PUSH2 0x264A JUMP JUMPDEST SWAP1 POP PUSH8 0xDE0B6B3A7640000 DUP2 PUSH2 0x1703 SWAP2 SWAP1 PUSH2 0x264A JUMP JUMPDEST SWAP1 POP DUP1 PUSH1 0x3 PUSH0 ADD SLOAD PUSH2 0x1715 SWAP2 SWAP1 PUSH2 0x25A9 JUMP JUMPDEST SWAP4 POP POP POP POP JUMPDEST SWAP1 JUMP JUMPDEST PUSH1 0x2 PUSH0 SLOAD SUB PUSH2 0x1762 JUMPI PUSH1 0x40 MLOAD PUSH32 0x8C379A000000000000000000000000000000000000000000000000000000000 DUP2 MSTORE PUSH1 0x4 ADD PUSH2 0x1759 SWAP1 PUSH2 0x26C4 JUMP JUMPDEST PUSH1 0x40 MLOAD DUP1 SWAP2 SUB SWAP1 REVERT JUMPDEST PUSH1 0x2 PUSH0 DUP2 SWAP1 SSTORE POP JUMP JUMPDEST PUSH1 0x1 PUSH0 DUP2 SWAP1 SSTORE POP JUMP JUMPDEST PUSH0 PUSH0 REVERT JUMPDEST PUSH0 PUSH20 0xFFFFFFFFFFFFFFFFFFFFFFFFFFFFFFFFFFFFFFFF DUP3 AND SWAP1 POP SWAP2 SWAP1 POP JUMP JUMPDEST PUSH0 PUSH2 0x17A1 DUP3 PUSH2 0x1778 JUMP JUMPDEST SWAP1 POP SWAP2 SWAP1 POP JUMP JUMPDEST PUSH2 0x17B1 DUP2 PUSH2 0x1797 JUMP JUMPDEST DUP2 EQ PUSH2 0x17BB JUMPI PUSH0 PUSH0 REVERT JUMPDEST POP JUMP JUMPDEST PUSH0 DUP2 CALLDATALOAD SWAP1 POP PUSH2 0x17CC DUP2 PUSH2 0x17A8 JUMP JUMPDEST SWAP3 SWAP2 POP POP JUMP JUMPDEST PUSH0 PUSH1 0x20 DUP3 DUP5 SUB SLT ISZERO PUSH2 0x17E7 JUMPI PUSH2 0x17E6 PUSH2 0x1774 JUMP JUMPDEST JUMPDEST PUSH0 PUSH2 0x17F4 DUP5 DUP3 DUP6 ADD PUSH2 0x17BE JUMP JUMPDEST SWAP2 POP POP SWAP3 SWAP2 POP POP JUMP JUMPDEST PUSH0 DUP2 SWAP1 POP SWAP2 SWAP1 POP JUMP JUMPDEST PUSH2 0x180F DUP2 PUSH2 0x17FD JUMP JUMPDEST DUP2 EQ PUSH2 0x1819 JUMPI PUSH0 PUSH0 REVERT JUMPDEST POP JUMP JUMPDEST PUSH0 DUP2 CALLDATALOAD SWAP1 POP PUSH2 0x182A DUP2 PUSH2 0x1806 JUMP JUMPDEST SWAP3 SWAP2 POP POP JUMP JUMPDEST PUSH0 DUP2 SWAP1 POP SWAP2 SWAP1 POP JUMP JUMPDEST PUSH2 0x1842 DUP2 PUSH2 0x1830 JUMP JUMPDEST DUP2 EQ PUSH2 0x184C JUMPI PUSH0 PUSH0 REVERT JUMPDEST POP JUMP JUMPDEST PUSH0 DUP2 CALLDATALOAD SWAP1 POP PUSH2 0x185D DUP2 PUSH2 0x1839 JUMP JUMPDEST SWAP3 SWAP2 POP POP JUMP JUMPDEST PUSH0 PUSH0 PUSH1 0x40 DUP4 DUP6 SUB SLT ISZERO PUSH2 0x1879 JUMPI PUSH2 0x1878 PUSH2 0x1774 JUMP JUMPDEST JUMPDEST PUSH0 PUSH2 0x1886 DUP6 DUP3 DUP7 ADD PUSH2 0x181C JUMP JUMPDEST SWAP3 POP POP PUSH1 0x20 PUSH2 0x1897 DUP6 DUP3 DUP7 ADD PUSH2 0x184F JUMP JUMPDEST SWAP2 POP POP SWAP3 POP SWAP3 SWAP1 POP JUMP JUMPDEST PUSH2 0x18AA DUP2 PUSH2 0x17FD JUMP JUMPDEST DUP3 MSTORE POP POP JUMP JUMPDEST PUSH0 PUSH1 0x20 DUP3 ADD SWAP1 POP PUSH2 0x18C3 PUSH0 DUP4 ADD DUP5 PUSH2 0x18A1 JUMP JUMPDEST SWAP3 SWAP2 POP POP JUMP JUMPDEST PUSH2 0x18D2 DUP2 PUSH2 0x1797 JUMP JUMPDEST DUP3 MSTORE POP POP JUMP JUMPDEST PUSH0 DUP2 ISZERO ISZERO SWAP1 POP SWAP2 SWAP1 POP JUMP JUMPDEST PUSH2 0x18EC DUP2 PUSH2 0x18D8 JUMP JUMPDEST DUP3 MSTORE POP POP JUMP JUMPDEST PUSH0 PUSH2 0x160 DUP3 ADD SWAP1 POP PUSH2 0x1906 PUSH0 DUP4 ADD DUP15 PUSH2 0x18A1 JUMP JUMPDEST PUSH2 0x1913 PUSH1 0x20 DUP4 ADD DUP14 PUSH2 0x18A1 JUMP JUMPDEST PUSH2 0x1920 PUSH1 0x40 DUP4 ADD DUP13 PUSH2 0x18A1 JUMP JUMPDEST PUSH2 0x192D PUSH1 0x60 DUP4 ADD DUP12 PUSH2 0x18A1 JUMP JUMPDEST PUSH2 0x193A PUSH1 0x80 DUP4 ADD DUP11 PUSH2 0x18C9 JUMP JUMPDEST PUSH2 0x1947 PUSH1 0xA0 DUP4 ADD DUP10 PUSH2 0x18A1 JUMP JUMPDEST PUSH2 0x1954 PUSH1 0xC0 DUP4 ADD DUP9 PUSH2 0x18A1 JUMP JUMPDEST PUSH2 0x1961 PUSH1 0xE0 DUP4 ADD DUP8 PUSH2 0x18A1 JUMP JUMPDEST PUSH2 0x196F PUSH2 0x100 DUP4 ADD DUP7 PUSH2 0x18E3 JUMP JUMPDEST PUSH2 0x197D PUSH2 0x120 DUP4 ADD DUP6 PUSH2 0x18E3 JUMP JUMPDEST PUSH2 0x198B PUSH2 0x140 DUP4 ADD DUP5 PUSH2 0x18E3 JUMP JUMPDEST SWAP13 SWAP12 POP POP POP POP POP POP POP POP POP POP POP POP JUMP JUMPDEST PUSH0 PUSH0 PUSH1 0x40 DUP4 DUP6 SUB SLT ISZERO PUSH2 0x19B1 JUMPI PUSH2 0x19B0 PUSH2 0x1774 JUMP JUMPDEST JUMPDEST PUSH0 PUSH2 0x19BE DUP6 DUP3 DUP7 ADD PUSH2 0x181C JUMP JUMPDEST SWAP3 POP POP PUSH1 0x20 PUSH2 0x19CF DUP6 DUP3 DUP7 ADD PUSH2 0x181C JUMP JUMPDEST SWAP2 POP POP SWAP3 POP SWAP3 SWAP1 POP JUMP JUMPDEST PUSH0 PUSH1 0x20 DUP3 ADD SWAP1 POP PUSH2 0x19EC PUSH0 DUP4 ADD DUP5 PUSH2 0x18C9 JUMP JUMPDEST SWAP3 SWAP2 POP POP JUMP JUMPDEST PUSH0 DUP2 SWAP1 POP SWAP2 SWAP1 POP JUMP JUMPDEST PUSH0 PUSH2 0x1A15 PUSH2 0x1A10 PUSH2 0x1A0B DUP5 PUSH2 0x1778 JUMP JUMPDEST PUSH2 0x19F2 JUMP JUMPDEST PUSH2 0x1778 JUMP JUMPDEST SWAP1 POP SWAP2 SWAP1 POP JUMP JUMPDEST PUSH0 PUSH2 0x1A26 DUP3 PUSH2 0x19FB JUMP JUMPDEST SWAP1 POP SWAP2 SWAP1 POP JUMP JUMPDEST PUSH0 PUSH2 0x1A37 DUP3 PUSH2 0x1A1C JUMP JUMPDEST SWAP1 POP SWAP2 SWAP1 POP JUMP JUMPDEST PUSH2 0x1A47 DUP2 PUSH2 0x1A2D JUMP JUMPDEST DUP3 MSTORE POP POP JUMP JUMPDEST PUSH0 PUSH1 0x20 DUP3 ADD SWAP1 POP PUSH2 0x1A60 PUSH0 DUP4 ADD DUP5 PUSH2 0x1A3E JUMP JUMPDEST SWAP3 SWAP2 POP POP JUMP JUMPDEST PUSH0 PUSH1 0x20 DUP3 DUP5 SUB SLT ISZERO PUSH2 0x1A7B JUMPI PUSH2 0x1A7A PUSH2 0x1774 JUMP JUMPDEST JUMPDEST PUSH0 PUSH2 0x1A88 DUP5 DUP3 DUP6 ADD PUSH2 0x181C JUMP JUMPDEST SWAP2 POP POP SWAP3 SWAP2 POP POP JUMP JUMPDEST PUSH0 PUSH2 0x180 DUP3 ADD SWAP1 POP PUSH2 0x1AA5 PUSH0 DUP4 ADD DUP16 PUSH2 0x18A1 JUMP JUMPDEST PUSH2 0x1AB2 PUSH1 0x20 DUP4 ADD DUP15 PUSH2 0x18A1 JUMP JUMPDEST PUSH2 0x1ABF PUSH1 0x40 DUP4 ADD DUP14 PUSH2 0x18A1 JUMP JUMPDEST PUSH2 0x1ACC PUSH1 0x60 DUP4 ADD DUP13 PUSH2 0x18A1 JUMP JUMPDEST PUSH2 0x1AD9 PUSH1 0x80 DUP4 ADD DUP12 PUSH2 0x18A1 JUMP JUMPDEST PUSH2 0x1AE6 PUSH1 0xA0 DUP4 ADD DUP11 PUSH2 0x18C9 JUMP JUMPDEST PUSH2 0x1AF3 PUSH1 0xC0 DUP4 ADD DUP10 PUSH2 0x18A1 JUMP JUMPDEST PUSH2 0x1B00 PUSH1 0xE0 DUP4 ADD DUP9 PUSH2 0x18A1 JUMP JUMPDEST PUSH2 0x1B0E PUSH2 0x100 DUP4 ADD DUP8 PUSH2 0x18A1 JUMP JUMPDEST PUSH2 0x1B1C PUSH2 0x120 DUP4 ADD DUP7 PUSH2 0x18E3 JUMP JUMPDEST PUSH2 0x1B2A PUSH2 0x140 DUP4 ADD DUP6 PUSH2 0x18E3 JUMP JUMPDEST PUSH2 0x1B38 PUSH2 0x160 DUP4 ADD DUP5 PUSH2 0x18E3 JUMP JUMPDEST SWAP14 SWAP13 POP POP POP POP POP POP POP POP POP POP POP POP POP JUMP JUMPDEST PUSH0 DUP3 DUP3 MSTORE PUSH1 0x20 DUP3 ADD SWAP1 POP SWAP3 SWAP2 POP POP JUMP JUMPDEST PUSH32 0x4E6F7420746865206F70657261746F7200000000000000000000000000000000 PUSH0 DUP3 ADD MSTORE POP JUMP JUMPDEST PUSH0 PUSH2 0x1B8D PUSH1 0x10 DUP4 PUSH2 0x1B49 JUMP JUMPDEST SWAP2 POP PUSH2 0x1B98 DUP3 PUSH2 0x1B59 JUMP JUMPDEST PUSH1 0x20 DUP3 ADD SWAP1 POP SWAP2 SWAP1 POP JUMP JUMPDEST PUSH0 PUSH1 0x20 DUP3 ADD SWAP1 POP DUP2 DUP2 SUB PUSH0 DUP4 ADD MSTORE PUSH2 0x1BBA DUP2 PUSH2 0x1B81 JUMP JUMPDEST SWAP1 POP SWAP2 SWAP1 POP JUMP JUMPDEST PUSH32 0x496E76616C6964206F70657261746F7200000000000000000000000000000000 PUSH0 DUP3 ADD MSTORE POP JUMP JUMPDEST PUSH0 PUSH2 0x1BF5 PUSH1 0x10 DUP4 PUSH2 0x1B49 JUMP JUMPDEST SWAP2 POP PUSH2 0x1C00 DUP3 PUSH2 0x1BC1 JUMP JUMPDEST PUSH1 0x20 DUP3 ADD SWAP1 POP SWAP2 SWAP1 POP JUMP JUMPDEST PUSH0 PUSH1 0x20 DUP3 ADD SWAP1 POP DUP2 DUP2 SUB PUSH0 DUP4 ADD MSTORE PUSH2 0x1C22 DUP2 PUSH2 0x1BE9 JUMP JUMPDEST SWAP1 POP SWAP2 SWAP1 POP JUMP JUMPDEST PUSH32 0x41756374696F6E206E6F7420656E646564000000000000000000000000000000 PUSH0 DUP3 ADD MSTORE POP JUMP JUMPDEST PUSH0 PUSH2 0x1C5D PUSH1 0x11 DUP4 PUSH2 0x1B49 JUMP JUMPDEST SWAP2 POP PUSH2 0x1C68 DUP3 PUSH2 0x1C29 JUMP JUMPDEST PUSH1 0x20 DUP3 ADD SWAP1 POP SWAP2 SWAP1 POP JUMP JUMPDEST PUSH0 PUSH1 0x20 DUP3 ADD SWAP1 POP DUP2 DUP2 SUB PUSH0 DUP4 ADD MSTORE PUSH2 0x1C8A DUP2 PUSH2 0x1C51 JUMP JUMPDEST SWAP1 POP SWAP2 SWAP1 POP JUMP JUMPDEST PUSH32 0x496E76616C696420746F6B656E20494400000000000000000000000000000000 PUSH0 DUP3 ADD MSTORE POP JUMP JUMPDEST PUSH0 PUSH2 0x1CC5 PUSH1 0x10 DUP4 PUSH2 0x1B49 JUMP JUMPDEST SWAP2 POP PUSH2 0x1CD0 DUP3 PUSH2 0x1C91 JUMP JUMPDEST PUSH1 0x20 DUP3 ADD SWAP1 POP SWAP2 SWAP1 POP JUMP JUMPDEST PUSH0 PUSH1 0x20 DUP3 ADD SWAP1 POP DUP2 DUP2 SUB PUSH0 DUP4 ADD MSTORE PUSH2 0x1CF2 DUP2 PUSH2 0x1CB9 JUMP JUMPDEST SWAP1 POP SWAP2 SWAP1 POP JUMP JUMPDEST PUSH32 0x50726F6F6620616C7265616479207375626D6974746564000000000000000000 PUSH0 DUP3 ADD MSTORE POP JUMP JUMPDEST PUSH0 PUSH2 0x1D2D PUSH1 0x17 DUP4 PUSH2 0x1B49 JUMP JUMPDEST SWAP2 POP PUSH2 0x1D38 DUP3 PUSH2 0x1CF9 JUMP JUMPDEST PUSH1 0x20 DUP3 ADD SWAP1 POP SWAP2 SWAP1 POP JUMP JUMPDEST PUSH0 PUSH1 0x20 DUP3 ADD SWAP1 POP DUP2 DUP2 SUB PUSH0 DUP4 ADD MSTORE PUSH2 0x1D5A DUP2 PUSH2 0x1D21 JUMP JUMPDEST SWAP1 POP SWAP2 SWAP1 POP JUMP JUMPDEST PUSH2 0x1D6A DUP2 PUSH2 0x1830 JUMP JUMPDEST DUP3 MSTORE POP POP JUMP JUMPDEST PUSH0 PUSH1 0x40 DUP3 ADD SWAP1 POP PUSH2 0x1D83 PUSH0 DUP4 ADD DUP6 PUSH2 0x18A1 JUMP JUMPDEST PUSH2 0x1D90 PUSH1 0x20 DUP4 ADD DUP5 PUSH2 0x1D61 JUMP JUMPDEST SWAP4 SWAP3 POP POP POP JUMP JUMPDEST PUSH32 0x5374617274207072696365206D7573742062652067726561746572207468616E PUSH0 DUP3 ADD MSTORE PUSH32 0x2030000000000000000000000000000000000000000000000000000000000000 PUSH1 0x20 DUP3 ADD MSTORE POP JUMP JUMPDEST PUSH0 PUSH2 0x1DF1 PUSH1 0x22 DUP4 PUSH2 0x1B49 JUMP JUMPDEST SWAP2 POP PUSH2 0x1DFC DUP3 PUSH2 0x1D97 JUMP JUMPDEST PUSH1 0x40 DUP3 ADD SWAP1 POP SWAP2 SWAP1 POP JUMP JUMPDEST PUSH0 PUSH1 0x20 DUP3 ADD SWAP1 POP DUP2 DUP2 SUB PUSH0 DUP4 ADD MSTORE PUSH2 0x1E1E DUP2 PUSH2 0x1DE5 JUMP JUMPDEST SWAP1 POP SWAP2 SWAP1 POP JUMP JUMPDEST PUSH32 0x456E64207072696365206D757374206265203C3D207374617274207072696365 PUSH0 DUP3 ADD MSTORE POP JUMP JUMPDEST PUSH0 PUSH2 0x1E59 PUSH1 0x20 DUP4 PUSH2 0x1B49 JUMP JUMPDEST SWAP2 POP PUSH2 0x1E64 DUP3 PUSH2 0x1E25 JUMP JUMPDEST PUSH1 0x20 DUP3 ADD SWAP1 POP SWAP2 SWAP1 POP JUMP JUMPDEST PUSH0 PUSH1 0x20 DUP3 ADD SWAP1 POP DUP2 DUP2 SUB PUSH0 DUP4 ADD MSTORE PUSH2 0x1E86 DUP2 PUSH2 0x1E4D JUMP JUMPDEST SWAP1 POP SWAP2 SWAP1 POP JUMP JUMPDEST PUSH0 PUSH1 0x80 DUP3 ADD SWAP1 POP PUSH2 0x1EA0 PUSH0 DUP4 ADD DUP8 PUSH2 0x18A1 JUMP JUMPDEST PUSH2 0x1EAD PUSH1 0x20 DUP4 ADD DUP7 PUSH2 0x18A1 JUMP JUMPDEST PUSH2 0x1EBA PUSH1 0x40 DUP4 ADD DUP6 PUSH2 0x18A1 JUMP JUMPDEST PUSH2 0x1EC7 PUSH1 0x60 DUP4 ADD DUP5 PUSH2 0x18A1 JUMP JUMPDEST SWAP6 SWAP5 POP POP POP POP POP JUMP JUMPDEST PUSH32 0x4E487B7100000000000000000000000000000000000000000000000000000000 PUSH0 MSTORE PUSH1 0x11 PUSH1 0x4 MSTORE PUSH1 0x24 PUSH0 REVERT JUMPDEST PUSH0 PUSH2 0x1F07 DUP3 PUSH2 0x17FD JUMP JUMPDEST SWAP2 POP PUSH2 0x1F12 DUP4 PUSH2 0x17FD JUMP JUMPDEST SWAP3 POP DUP3 DUP3 ADD SWAP1 POP DUP1 DUP3 GT ISZERO PUSH2 0x1F2A JUMPI PUSH2 0x1F29 PUSH2 0x1ED0 JUMP JUMPDEST JUMPDEST SWAP3 SWAP2 POP POP JUMP JUMPDEST PUSH32 0x41756374696F6E206E6F74206163746976650000000000000000000000000000 PUSH0 DUP3 ADD MSTORE POP JUMP JUMPDEST PUSH0 PUSH2 0x1F64 PUSH1 0x12 DUP4 PUSH2 0x1B49 JUMP JUMPDEST SWAP2 POP PUSH2 0x1F6F DUP3 PUSH2 0x1F30 JUMP JUMPDEST PUSH1 0x20 DUP3 ADD SWAP1 POP SWAP2 SWAP1 POP JUMP JUMPDEST PUSH0 PUSH1 0x20 DUP3 ADD SWAP1 POP DUP2 DUP2 SUB PUSH0 DUP4 ADD MSTORE PUSH2 0x1F91 DUP2 PUSH2 0x1F58 JUMP JUMPDEST SWAP1 POP SWAP2 SWAP1 POP JUMP JUMPDEST PUSH32 0x41756374696F6E20616C726561647920656E6465640000000000000000000000 PUSH0 DUP3 ADD MSTORE POP JUMP JUMPDEST PUSH0 PUSH2 0x1FCC PUSH1 0x15 DUP4 PUSH2 0x1B49 JUMP JUMPDEST SWAP2 POP PUSH2 0x1FD7 DUP3 PUSH2 0x1F98 JUMP JUMPDEST PUSH1 0x20 DUP3 ADD SWAP1 POP SWAP2 SWAP1 POP JUMP JUMPDEST PUSH0 PUSH1 0x20 DUP3 ADD SWAP1 POP DUP2 DUP2 SUB PUSH0 DUP4 ADD MSTORE PUSH2 0x1FF9 DUP2 PUSH2 0x1FC0 JUMP JUMPDEST SWAP1 POP SWAP2 SWAP1 POP JUMP JUMPDEST PUSH32 0x4269642062656C6F772063757272656E74207072696365000000000000000000 PUSH0 DUP3 ADD MSTORE POP JUMP JUMPDEST PUSH0 PUSH2 0x2034 PUSH1 0x17 DUP4 PUSH2 0x1B49 JUMP JUMPDEST SWAP2 POP PUSH2 0x203F DUP3 PUSH2 0x2000 JUMP JUMPDEST PUSH1 0x20 DUP3 ADD SWAP1 POP SWAP2 SWAP1 POP JUMP JUMPDEST PUSH0 PUSH1 0x20 DUP3 ADD SWAP1 POP DUP2 DUP2 SUB PUSH0 DUP4 ADD MSTORE PUSH2 0x2061 DUP2 PUSH2 0x2028 JUMP JUMPDEST SWAP1 POP SWAP2 SWAP1 POP JUMP JUMPDEST PUSH32 0x42696420616D6F756E74206D7573742062652067726561746572207468616E20 PUSH0 DUP3 ADD MSTORE PUSH32 0x3000000000000000000000000000000000000000000000000000000000000000 PUSH1 0x20 DUP3 ADD MSTORE POP JUMP JUMPDEST PUSH0 PUSH2 0x20C2 PUSH1 0x21 DUP4 PUSH2 0x1B49 JUMP JUMPDEST SWAP2 POP PUSH2 0x20CD DUP3 PUSH2 0x2068 JUMP JUMPDEST PUSH1 0x40 DUP3 ADD SWAP1 POP SWAP2 SWAP1 POP JUMP JUMPDEST PUSH0 PUSH1 0x20 DUP3 ADD SWAP1 POP DUP2 DUP2 SUB PUSH0 DUP4 ADD MSTORE PUSH2 0x20EF DUP2 PUSH2 0x20B6 JUMP JUMPDEST SWAP1 POP SWAP2 SWAP1 POP JUMP JUMPDEST PUSH0 PUSH1 0x40 DUP3 ADD SWAP1 POP PUSH2 0x2109 PUSH0 DUP4 ADD DUP6 PUSH2 0x18C9 JUMP JUMPDEST PUSH2 0x2116 PUSH1 0x20 DUP4 ADD DUP5 PUSH2 0x18C9 JUMP JUMPDEST SWAP4 SWAP3 POP POP POP JUMP JUMPDEST PUSH0 DUP2 MLOAD SWAP1 POP PUSH2 0x212B DUP2 PUSH2 0x1806 JUMP JUMPDEST SWAP3 SWAP2 POP POP JUMP JUMPDEST PUSH0 PUSH1 0x20 DUP3 DUP5 SUB SLT ISZERO PUSH2 0x2146 JUMPI PUSH2 0x2145 PUSH2 0x1774 JUMP JUMPDEST JUMPDEST PUSH0 PUSH2 0x2153 DUP5 DUP3 DUP6 ADD PUSH2 0x211D JUMP JUMPDEST SWAP2 POP POP SWAP3 SWAP2 POP POP JUMP JUMPDEST PUSH32 0x496E73756666696369656E7420616C6C6F77616E636500000000000000000000 PUSH0 DUP3 ADD MSTORE POP JUMP JUMPDEST PUSH0 PUSH2 0x2190 PUSH1 0x16 DUP4 PUSH2 0x1B49 JUMP JUMPDEST SWAP2 POP PUSH2 0x219B DUP3 PUSH2 0x215C JUMP JUMPDEST PUSH1 0x20 DUP3 ADD SWAP1 POP SWAP2 SWAP1 POP JUMP JUMPDEST PUSH0 PUSH1 0x20 DUP3 ADD SWAP1 POP DUP2 DUP2 SUB PUSH0 DUP4 ADD MSTORE PUSH2 0x21BD DUP2 PUSH2 0x2184 JUMP JUMPDEST SWAP1 POP SWAP2 SWAP1 POP JUMP JUMPDEST PUSH32 0x496E73756666696369656E742062616C616E6365000000000000000000000000 PUSH0 DUP3 ADD MSTORE POP JUMP JUMPDEST PUSH0 PUSH2 0x21F8 PUSH1 0x14 DUP4 PUSH2 0x1B49 JUMP JUMPDEST SWAP2 POP PUSH2 0x2203 DUP3 PUSH2 0x21C4 JUMP JUMPDEST PUSH1 0x20 DUP3 ADD SWAP1 POP SWAP2 SWAP1 POP JUMP JUMPDEST PUSH0 PUSH1 0x20 DUP3 ADD SWAP1 POP DUP2 DUP2 SUB PUSH0 DUP4 ADD MSTORE PUSH2 0x2225 DUP2 PUSH2 0x21EC JUMP JUMPDEST SWAP1 POP SWAP2 SWAP1 POP JUMP JUMPDEST PUSH0 PUSH1 0x60 DUP3 ADD SWAP1 POP PUSH2 0x223F PUSH0 DUP4 ADD DUP7 PUSH2 0x18C9 JUMP JUMPDEST PUSH2 0x224C PUSH1 0x20 DUP4 ADD DUP6 PUSH2 0x18C9 JUMP JUMPDEST PUSH2 0x2259 PUSH1 0x40 DUP4 ADD DUP5 PUSH2 0x18A1 JUMP JUMPDEST SWAP5 SWAP4 POP POP POP POP JUMP JUMPDEST PUSH2 0x226A DUP2 PUSH2 0x18D8 JUMP JUMPDEST DUP2 EQ PUSH2 0x2274 JUMPI PUSH0 PUSH0 REVERT JUMPDEST POP JUMP JUMPDEST PUSH0 DUP2 MLOAD SWAP1 POP PUSH2 0x2285 DUP2 PUSH2 0x2261 JUMP JUMPDEST SWAP3 SWAP2 POP POP JUMP JUMPDEST PUSH0 PUSH1 0x20 DUP3 DUP5 SUB SLT ISZERO PUSH2 0x22A0 JUMPI PUSH2 0x229F PUSH2 0x1774 JUMP JUMPDEST JUMPDEST PUSH0 PUSH2 0x22AD DUP5 DUP3 DUP6 ADD PUSH2 0x2277 JUMP JUMPDEST SWAP2 POP POP SWAP3 SWAP2 POP POP JUMP JUMPDEST PUSH32 0x546F6B656E207472616E73666572206661696C65640000000000000000000000 PUSH0 DUP3 ADD MSTORE POP JUMP JUMPDEST PUSH0 PUSH2 0x22EA PUSH1 0x15 DUP4 PUSH2 0x1B49 JUMP JUMPDEST SWAP2 POP PUSH2 0x22F5 DUP3 PUSH2 0x22B6 JUMP JUMPDEST PUSH1 0x20 DUP3 ADD SWAP1 POP SWAP2 SWAP1 POP JUMP JUMPDEST PUSH0 PUSH1 0x20 DUP3 ADD SWAP1 POP DUP2 DUP2 SUB PUSH0 DUP4 ADD MSTORE PUSH2 0x2317 DUP2 PUSH2 0x22DE JUMP JUMPDEST SWAP1 POP SWAP2 SWAP1 POP JUMP JUMPDEST PUSH0 PUSH1 0x60 DUP3 ADD SWAP1 POP PUSH2 0x2331 PUSH0 DUP4 ADD DUP7 PUSH2 0x18C9 JUMP JUMPDEST PUSH2 0x233E PUSH1 0x20 DUP4 ADD DUP6 PUSH2 0x18A1 JUMP JUMPDEST PUSH2 0x234B PUSH1 0x40 DUP4 ADD DUP5 PUSH2 0x18A1 JUMP JUMPDEST SWAP5 SWAP4 POP POP POP POP JUMP JUMPDEST PUSH32 0x4D7573742062696420686967686572207468616E2063757272656E7420626964 PUSH0 DUP3 ADD MSTORE POP JUMP JUMPDEST PUSH0 PUSH2 0x2387 PUSH1 0x20 DUP4 PUSH2 0x1B49 JUMP JUMPDEST SWAP2 POP PUSH2 0x2392 DUP3 PUSH2 0x2353 JUMP JUMPDEST PUSH1 0x20 DUP3 ADD SWAP1 POP SWAP2 SWAP1 POP JUMP JUMPDEST PUSH0 PUSH1 0x20 DUP3 ADD SWAP1 POP DUP2 DUP2 SUB PUSH0 DUP4 ADD MSTORE PUSH2 0x23B4 DUP2 PUSH2 0x237B JUMP JUMPDEST SWAP1 POP SWAP2 SWAP1 POP JUMP JUMPDEST PUSH32 0x4D696E696D756D2062696420706572696F64206E6F7420656C61707365640000 PUSH0 DUP3 ADD MSTORE POP JUMP JUMPDEST PUSH0 PUSH2 0x23EF PUSH1 0x1E DUP4 PUSH2 0x1B49 JUMP JUMPDEST SWAP2 POP PUSH2 0x23FA DUP3 PUSH2 0x23BB JUMP JUMPDEST PUSH1 0x20 DUP3 ADD SWAP1 POP SWAP2 SWAP1 POP JUMP JUMPDEST PUSH0 PUSH1 0x20 DUP3 ADD SWAP1 POP DUP2 DUP2 SUB PUSH0 DUP4 ADD MSTORE PUSH2 0x241C DUP2 PUSH2 0x23E3 JUMP JUMPDEST SWAP1 POP SWAP2 SWAP1 POP JUMP JUMPDEST PUSH32 0x50726F6F66206E6F74207375626D697474656400000000000000000000000000 PUSH0 DUP3 ADD MSTORE POP JUMP JUMPDEST PUSH0 PUSH2 0x2457 PUSH1 0x13 DUP4 PUSH2 0x1B49 JUMP JUMPDEST SWAP2 POP PUSH2 0x2462 DUP3 PUSH2 0x2423 JUMP JUMPDEST PUSH1 0x20 DUP3 ADD SWAP1 POP SWAP2 SWAP1 POP JUMP JUMPDEST PUSH0 PUSH1 0x20 DUP3 ADD SWAP1 POP DUP2 DUP2 SUB PUSH0 DUP4 ADD MSTORE PUSH2 0x2484 DUP2 PUSH2 0x244B JUMP JUMPDEST SWAP1 POP SWAP2 SWAP1 POP JUMP JUMPDEST PUSH32 0x5061796D656E7420616C726561647920636C61696D6564000000000000000000 PUSH0 DUP3 ADD MSTORE POP JUMP JUMPDEST PUSH0 PUSH2 0x24BF PUSH1 0x17 DUP4 PUSH2 0x1B49 JUMP JUMPDEST SWAP2 POP PUSH2 0x24CA DUP3 PUSH2 0x248B JUMP JUMPDEST PUSH1 0x20 DUP3 ADD SWAP1 POP SWAP2 SWAP1 POP JUMP JUMPDEST PUSH0 PUSH1 0x20 DUP3 ADD SWAP1 POP DUP2 DUP2 SUB PUSH0 DUP4 ADD MSTORE PUSH2 0x24EC DUP2 PUSH2 0x24B3 JUMP JUMPDEST SWAP1 POP SWAP2 SWAP1 POP JUMP JUMPDEST PUSH0 PUSH1 0x40 DUP3 ADD SWAP1 POP PUSH2 0x2506 PUSH0 DUP4 ADD DUP6 PUSH2 0x18C9 JUMP JUMPDEST PUSH2 0x2513 PUSH1 0x20 DUP4 ADD DUP5 PUSH2 0x18A1 JUMP JUMPDEST SWAP4 SWAP3 POP POP POP JUMP JUMPDEST PUSH32 0x5472616E73666572206661696C65640000000000000000000000000000000000 PUSH0 DUP3 ADD MSTORE POP JUMP JUMPDEST PUSH0 PUSH2 0x254E PUSH1 0xF DUP4 PUSH2 0x1B49 JUMP JUMPDEST SWAP2 POP PUSH2 0x2559 DUP3 PUSH2 0x251A JUMP JUMPDEST PUSH1 0x20 DUP3 ADD SWAP1 POP SWAP2 SWAP1 POP JUMP JUMPDEST PUSH0 PUSH1 0x20 DUP3 ADD SWAP1 POP DUP2 DUP2 SUB PUSH0 DUP4 ADD MSTORE PUSH2 0x257B DUP2 PUSH2 0x2542 JUMP JUMPDEST SWAP1 POP SWAP2 SWAP1 POP JUMP JUMPDEST PUSH0 PUSH1 0x40 DUP3 ADD SWAP1 POP PUSH2 0x2595 PUSH0 DUP4 ADD DUP6 PUSH2 0x18A1 JUMP JUMPDEST PUSH2 0x25A2 PUSH1 0x20 DUP4 ADD DUP5 PUSH2 0x18A1 JUMP JUMPDEST SWAP4 SWAP3 POP POP POP JUMP JUMPDEST PUSH0 PUSH2 0x25B3 DUP3 PUSH2 0x17FD JUMP JUMPDEST SWAP2 POP PUSH2 0x25BE DUP4 PUSH2 0x17FD JUMP JUMPDEST SWAP3 POP DUP3 DUP3 SUB SWAP1 POP DUP2 DUP2 GT ISZERO PUSH2 0x25D6 JUMPI PUSH2 0x25D5 PUSH2 0x1ED0 JUMP JUMPDEST JUMPDEST SWAP3 SWAP2 POP POP JUMP JUMPDEST PUSH0 PUSH2 0x25E6 DUP3 PUSH2 0x17FD JUMP JUMPDEST SWAP2 POP PUSH2 0x25F1 DUP4 PUSH2 0x17FD JUMP JUMPDEST SWAP3 POP DUP3 DUP3 MUL PUSH2 0x25FF DUP2 PUSH2 0x17FD JUMP JUMPDEST SWAP2 POP DUP3 DUP3 DIV DUP5 EQ DUP4 ISZERO OR PUSH2 0x2616 JUMPI PUSH2 0x2615 PUSH2 0x1ED0 JUMP JUMPDEST JUMPDEST POP SWAP3 SWAP2 POP POP JUMP JUMPDEST PUSH32 0x4E487B7100000000000000000000000000000000000000000000000000000000 PUSH0 MSTORE PUSH1 0x12 PUSH1 0x4 MSTORE PUSH1 0x24 PUSH0 REVERT JUMPDEST PUSH0 PUSH2 0x2654 DUP3 PUSH2 0x17FD JUMP JUMPDEST SWAP2 POP PUSH2 0x265F DUP4 PUSH2 0x17FD JUMP JUMPDEST SWAP3 POP DUP3 PUSH2 0x266F JUMPI PUSH2 0x266E PUSH2 0x261D JUMP JUMPDEST JUMPDEST DUP3 DUP3 DIV SWAP1 POP SWAP3 SWAP2 POP POP JUMP JUMPDEST PUSH32 0x5265656E7472616E637947756172643A207265656E7472616E742063616C6C00 PUSH0 DUP3 ADD MSTORE POP JUMP JUMPDEST PUSH0 PUSH2 0x26AE PUSH1 0x1F DUP4 PUSH2 0x1B49 JUMP JUMPDEST SWAP2 POP PUSH2 0x26B9 DUP3 PUSH2 0x267A JUMP JUMPDEST PUSH1 0x20 DUP3 ADD SWAP1 POP SWAP2 SWAP1 POP JUMP JUMPDEST PUSH0 PUSH1 0x20 DUP3 ADD SWAP1 POP DUP2 DUP2 SUB PUSH0 DUP4 ADD MSTORE PUSH2 0x26DB DUP2 PUSH2 0x26A2 JUMP JUMPDEST SWAP1 POP SWAP2 SWAP1 POP JUMP INVALID LOG2 PUSH5 0x6970667358 0x22 SLT KECCAK256 0xDA PUSH6 0x336159CEF02B SWAP10 ORIGIN 0xD7 0xDC LOG2 PUSH4 0x79C245AE SWAP12 PUSH0 0xC0 PUSH23 0x817BC53A4130DED24D7864736F6C634300081C00330000 "
				},
				"gasEstimates": {
					"creation": {
						"codeDepositCost": "2001600",
						"executionCost": "infinite",
						"totalCost": "infinite"
					},
					"external": {
						"MINIMUM_BID_PERIOD()": "370",
						"biddingToken()": "infinite",
						"changeOperator(address)": "26919",
						"claimPayment(uint256)": "infinite",
						"currentAuction()": "infinite",
						"getAuctionInfo()": "infinite",
						"getCurrentPrice()": "infinite",
						"operator()": "2508",
						"placeBid(uint256,uint256)": "infinite",
						"startAuction(uint256,uint256)": "infinite",
						"submitProof(uint256,bytes32)": "infinite"
					}
				},
				"methodIdentifiers": {
					"MINIMUM_BID_PERIOD()": "37a35344",
					"biddingToken()": "639d7566",
					"changeOperator(address)": "06394c9b",
					"claimPayment(uint256)": "c63fdcc7",
					"currentAuction()": "496a698d",
					"getAuctionInfo()": "d94a3505",
					"getCurrentPrice()": "eb91d37e",
					"operator()": "570ca735",
					"placeBid(uint256,uint256)": "57c90de5",
					"startAuction(uint256,uint256)": "4fee13fc",
					"submitProof(uint256,bytes32)": "2f19c56a"
				}
			},
			"storageLayout": {
				"storage": [
					{
						"astId": 10,
						"contract": "contracts/PlaceholderAdsMarketplace.sol:PlaceholderAdsMarketplace",
						"label": "_status",
						"offset": 0,
						"slot": "0",
						"type": "t_uint256"
					},
					{
						"astId": 188,
						"contract": "contracts/PlaceholderAdsMarketplace.sol:PlaceholderAdsMarketplace",
						"label": "operator",
						"offset": 0,
						"slot": "1",
						"type": "t_address"
					},
					{
						"astId": 191,
						"contract": "contracts/PlaceholderAdsMarketplace.sol:PlaceholderAdsMarketplace",
						"label": "biddingToken",
						"offset": 0,
						"slot": "2",
						"type": "t_contract(IERC20)142"
					},
					{
						"astId": 220,
						"contract": "contracts/PlaceholderAdsMarketplace.sol:PlaceholderAdsMarketplace",
						"label": "currentAuction",
						"offset": 0,
						"slot": "3",
						"type": "t_struct(Auction)217_storage"
					}
				],
				"types": {
					"t_address": {
						"encoding": "inplace",
						"label": "address",
						"numberOfBytes": "20"
					},
					"t_bool": {
						"encoding": "inplace",
						"label": "bool",
						"numberOfBytes": "1"
					},
					"t_contract(IERC20)142": {
						"encoding": "inplace",
						"label": "contract IERC20",
						"numberOfBytes": "20"
					},
					"t_struct(Auction)217_storage": {
						"encoding": "inplace",
						"label": "struct PlaceholderAdsMarketplace.Auction",
						"members": [
							{
								"astId": 196,
								"contract": "contracts/PlaceholderAdsMarketplace.sol:PlaceholderAdsMarketplace",
								"label": "startPrice",
								"offset": 0,
								"slot": "0",
								"type": "t_uint256"
							},
							{
								"astId": 198,
								"contract": "contracts/PlaceholderAdsMarketplace.sol:PlaceholderAdsMarketplace",
								"label": "endPrice",
								"offset": 0,
								"slot": "1",
								"type": "t_uint256"
							},
							{
								"astId": 200,
								"contract": "contracts/PlaceholderAdsMarketplace.sol:PlaceholderAdsMarketplace",
								"label": "startTime",
								"offset": 0,
								"slot": "2",
								"type": "t_uint256"
							},
							{
								"astId": 202,
								"contract": "contracts/PlaceholderAdsMarketplace.sol:PlaceholderAdsMarketplace",
								"label": "duration",
								"offset": 0,
								"slot": "3",
								"type": "t_uint256"
							},
							{
								"astId": 204,
								"contract": "contracts/PlaceholderAdsMarketplace.sol:PlaceholderAdsMarketplace",
								"label": "winner",
								"offset": 0,
								"slot": "4",
								"type": "t_address"
							},
							{
								"astId": 206,
								"contract": "contracts/PlaceholderAdsMarketplace.sol:PlaceholderAdsMarketplace",
								"label": "winningBid",
								"offset": 0,
								"slot": "5",
								"type": "t_uint256"
							},
							{
								"astId": 208,
								"contract": "contracts/PlaceholderAdsMarketplace.sol:PlaceholderAdsMarketplace",
								"label": "winningTokenId",
								"offset": 0,
								"slot": "6",
								"type": "t_uint256"
							},
							{
								"astId": 210,
								"contract": "contracts/PlaceholderAdsMarketplace.sol:PlaceholderAdsMarketplace",
								"label": "lastBidTime",
								"offset": 0,
								"slot": "7",
								"type": "t_uint256"
							},
							{
								"astId": 212,
								"contract": "contracts/PlaceholderAdsMarketplace.sol:PlaceholderAdsMarketplace",
								"label": "proofSubmitted",
								"offset": 0,
								"slot": "8",
								"type": "t_bool"
							},
							{
								"astId": 214,
								"contract": "contracts/PlaceholderAdsMarketplace.sol:PlaceholderAdsMarketplace",
								"label": "claimed",
								"offset": 1,
								"slot": "8",
								"type": "t_bool"
							},
							{
								"astId": 216,
								"contract": "contracts/PlaceholderAdsMarketplace.sol:PlaceholderAdsMarketplace",
								"label": "ended",
								"offset": 2,
								"slot": "8",
								"type": "t_bool"
							}
						],
						"numberOfBytes": "288"
					},
					"t_uint256": {
						"encoding": "inplace",
						"label": "uint256",
						"numberOfBytes": "32"
					}
				}
			},
			"userdoc": {
				"kind": "user",
				"methods": {},
				"version": 1
			}
		}
	}
}