{
	"contracts/PlaceholderAdsMarketplace.sol": {
		"PlaceholderAdsMarketplace": {
			"abi": [
				{
					"inputs": [],
					"stateMutability": "nonpayable",
					"type": "constructor"
				},
				{
					"anonymous": false,
					"inputs": [
						{
							"indexed": false,
							"internalType": "address",
							"name": "winner",
							"type": "address"
						},
						{
							"indexed": false,
							"internalType": "uint256",
							"name": "winningBid",
							"type": "uint256"
						},
						{
							"indexed": false,
							"internalType": "uint256",
							"name": "tokenId",
							"type": "uint256"
						}
					],
					"name": "AuctionEnded",
					"type": "event"
				},
				{
					"anonymous": false,
					"inputs": [
						{
							"indexed": false,
							"internalType": "uint256",
							"name": "startPrice",
							"type": "uint256"
						},
						{
							"indexed": false,
							"internalType": "uint256",
							"name": "endPrice",
							"type": "uint256"
						},
						{
							"indexed": false,
							"internalType": "uint256",
							"name": "startTime",
							"type": "uint256"
						},
						{
							"indexed": false,
							"internalType": "uint256",
							"name": "duration",
							"type": "uint256"
						}
					],
					"name": "AuctionStarted",
					"type": "event"
				},
				{
					"anonymous": false,
					"inputs": [
						{
							"indexed": false,
							"internalType": "address",
							"name": "bidder",
							"type": "address"
						},
						{
							"indexed": false,
							"internalType": "uint256",
							"name": "bidAmount",
							"type": "uint256"
						},
						{
							"indexed": false,
							"internalType": "uint256",
							"name": "tokenId",
							"type": "uint256"
						}
					],
					"name": "BidPlaced",
					"type": "event"
				},
				{
					"inputs": [
						{
							"internalType": "address",
							"name": "_newOperator",
							"type": "address"
						}
					],
					"name": "changeOperator",
					"outputs": [],
					"stateMutability": "nonpayable",
					"type": "function"
				},
				{
					"inputs": [],
					"name": "currentAuction",
					"outputs": [
						{
							"internalType": "uint256",
							"name": "startPrice",
							"type": "uint256"
						},
						{
							"internalType": "uint256",
							"name": "endPrice",
							"type": "uint256"
						},
						{
							"internalType": "uint256",
							"name": "startTime",
							"type": "uint256"
						},
						{
							"internalType": "uint256",
							"name": "duration",
							"type": "uint256"
						},
						{
							"internalType": "address",
							"name": "winner",
							"type": "address"
						},
						{
							"internalType": "uint256",
							"name": "winningBid",
							"type": "uint256"
						},
						{
							"internalType": "uint256",
							"name": "winningTokenId",
							"type": "uint256"
						},
						{
							"internalType": "bool",
							"name": "ended",
							"type": "bool"
						}
					],
					"stateMutability": "view",
					"type": "function"
				},
				{
					"inputs": [],
					"name": "endAuction",
					"outputs": [],
					"stateMutability": "nonpayable",
					"type": "function"
				},
				{
					"inputs": [],
					"name": "getAuctionInfo",
					"outputs": [
						{
							"internalType": "uint256",
							"name": "startPrice",
							"type": "uint256"
						},
						{
							"internalType": "uint256",
							"name": "endPrice",
							"type": "uint256"
						},
						{
							"internalType": "uint256",
							"name": "startTime",
							"type": "uint256"
						},
						{
							"internalType": "uint256",
							"name": "duration",
							"type": "uint256"
						},
						{
							"internalType": "address",
							"name": "winner",
							"type": "address"
						},
						{
							"internalType": "uint256",
							"name": "winningBid",
							"type": "uint256"
						},
						{
							"internalType": "uint256",
							"name": "winningTokenId",
							"type": "uint256"
						},
						{
							"internalType": "bool",
							"name": "ended",
							"type": "bool"
						}
					],
					"stateMutability": "view",
					"type": "function"
				},
				{
					"inputs": [],
					"name": "getCurrentPrice",
					"outputs": [
						{
							"internalType": "uint256",
							"name": "",
							"type": "uint256"
						}
					],
					"stateMutability": "view",
					"type": "function"
				},
				{
					"inputs": [],
					"name": "operator",
					"outputs": [
						{
							"internalType": "address",
							"name": "",
							"type": "address"
						}
					],
					"stateMutability": "view",
					"type": "function"
				},
				{
					"inputs": [
						{
							"internalType": "uint256",
							"name": "_tokenId",
							"type": "uint256"
						}
					],
					"name": "placeBid",
					"outputs": [],
					"stateMutability": "payable",
					"type": "function"
				},
				{
					"inputs": [
						{
							"internalType": "uint256",
							"name": "_startPrice",
							"type": "uint256"
						},
						{
							"internalType": "uint256",
							"name": "_endPrice",
							"type": "uint256"
						},
						{
							"internalType": "uint256",
							"name": "_startTime",
							"type": "uint256"
						},
						{
							"internalType": "uint256",
							"name": "_duration",
							"type": "uint256"
						}
					],
					"name": "startAuction",
					"outputs": [],
					"stateMutability": "nonpayable",
					"type": "function"
				}
			],
			"devdoc": {
				"details": "Simplified contract to conduct a single-slot Dutch Auction among multiple advertisers.      - Only one Trusted Operator (owner) is allowed to start/end auctions.      - Multiple publishers (advertisers) can place bids (sending ETH).      - The first bid >= the current Dutch Auction price wins.",
				"kind": "dev",
				"methods": {
					"changeOperator(address)": {
						"details": "Allows the operator to change to a new operator (if needed)."
					},
					"endAuction()": {
						"details": "Operator can end the auction in case no one bids and time is over, or to force-end the auction.      This is optional since the auction is automatically ended upon a successful bid,      but you may want to allow the operator to finalize or do an emergency stop."
					},
					"getAuctionInfo()": {
						"details": "Returns information about the current auction state."
					},
					"getCurrentPrice()": {
						"details": "Computes the current price of the Dutch Auction.      Price decreases linearly from startPrice to endPrice over 'duration'."
					},
					"placeBid(uint256)": {
						"details": "Places a bid. First bidder who sends >= currentPrice wins immediately.",
						"params": {
							"_tokenId": "The NFT (from PlaceholderAdsNFT) that the publisher wants to display upon winning."
						}
					},
					"startAuction(uint256,uint256,uint256,uint256)": {
						"details": "Operator starts a Dutch auction by setting the parameters.",
						"params": {
							"_duration": "How many seconds from startPrice to endPrice. NOTE: For a typical immediate start, set _startTime = block.timestamp.",
							"_endPrice": "Lowest price the auction can drop to.",
							"_startPrice": "Price at which the auction starts.",
							"_startTime": "Timestamp at which the auction starts."
						}
					}
				},
				"title": "PlaceholderAdsMarketplace",
				"version": 1
			},
			"evm": {
				"assembly": "    /* \"contracts/PlaceholderAdsMarketplace.sol\":413:7736  contract PlaceholderAdsMarketplace {... */\n  mstore(0x40, 0x80)\n    /* \"contracts/PlaceholderAdsMarketplace.sol\":2518:2618  constructor() {... */\n  callvalue\n  dup1\n  iszero\n  tag_1\n  jumpi\n  revert(0x00, 0x00)\ntag_1:\n  pop\n    /* \"contracts/PlaceholderAdsMarketplace.sol\":2601:2611  msg.sender */\n  caller\n    /* \"contracts/PlaceholderAdsMarketplace.sol\":2590:2598  operator */\n  0x00\n  0x00\n    /* \"contracts/PlaceholderAdsMarketplace.sol\":2590:2611  operator = msg.sender */\n  0x0100\n  exp\n  dup2\n  sload\n  dup2\n  0xffffffffffffffffffffffffffffffffffffffff\n  mul\n  not\n  and\n  swap1\n  dup4\n  0xffffffffffffffffffffffffffffffffffffffff\n  and\n  mul\n  or\n  swap1\n  sstore\n  pop\n    /* \"contracts/PlaceholderAdsMarketplace.sol\":413:7736  contract PlaceholderAdsMarketplace {... */\n  dataSize(sub_0)\n  dup1\n  dataOffset(sub_0)\n  0x00\n  codecopy\n  0x00\n  return\nstop\n\nsub_0: assembly {\n        /* \"contracts/PlaceholderAdsMarketplace.sol\":413:7736  contract PlaceholderAdsMarketplace {... */\n      mstore(0x40, 0x80)\n      jumpi(tag_1, lt(calldatasize, 0x04))\n      shr(0xe0, calldataload(0x00))\n      dup1\n      0x9979ef45\n      gt\n      tag_10\n      jumpi\n      dup1\n      0x9979ef45\n      eq\n      tag_6\n      jumpi\n      dup1\n      0xd94a3505\n      eq\n      tag_7\n      jumpi\n      dup1\n      0xeb91d37e\n      eq\n      tag_8\n      jumpi\n      dup1\n      0xfe67a54b\n      eq\n      tag_9\n      jumpi\n      jump(tag_1)\n    tag_10:\n      dup1\n      0x06394c9b\n      eq\n      tag_2\n      jumpi\n      dup1\n      0x496a698d\n      eq\n      tag_3\n      jumpi\n      dup1\n      0x570ca735\n      eq\n      tag_4\n      jumpi\n      dup1\n      0x8d2c4488\n      eq\n      tag_5\n      jumpi\n    tag_1:\n      revert(0x00, 0x00)\n        /* \"contracts/PlaceholderAdsMarketplace.sol\":7561:7734  function changeOperator(address _newOperator) external onlyOperator {... */\n    tag_2:\n      callvalue\n      dup1\n      iszero\n      tag_11\n      jumpi\n      revert(0x00, 0x00)\n    tag_11:\n      pop\n      tag_12\n      0x04\n      dup1\n      calldatasize\n      sub\n      dup2\n      add\n      swap1\n      tag_13\n      swap2\n      swap1\n      tag_14\n      jump\t// in\n    tag_13:\n      tag_15\n      jump\t// in\n    tag_12:\n      stop\n        /* \"contracts/PlaceholderAdsMarketplace.sol\":1836:1865  Auction public currentAuction */\n    tag_3:\n      callvalue\n      dup1\n      iszero\n      tag_16\n      jumpi\n      revert(0x00, 0x00)\n    tag_16:\n      pop\n      tag_17\n      tag_18\n      jump\t// in\n    tag_17:\n      mload(0x40)\n      tag_19\n      swap9\n      swap8\n      swap7\n      swap6\n      swap5\n      swap4\n      swap3\n      swap2\n      swap1\n      tag_20\n      jump\t// in\n    tag_19:\n      mload(0x40)\n      dup1\n      swap2\n      sub\n      swap1\n      return\n        /* \"contracts/PlaceholderAdsMarketplace.sol\":1018:1041  address public operator */\n    tag_4:\n      callvalue\n      dup1\n      iszero\n      tag_21\n      jumpi\n      revert(0x00, 0x00)\n    tag_21:\n      pop\n      tag_22\n      tag_23\n      jump\t// in\n    tag_22:\n      mload(0x40)\n      tag_24\n      swap2\n      swap1\n      tag_25\n      jump\t// in\n    tag_24:\n      mload(0x40)\n      dup1\n      swap2\n      sub\n      swap1\n      return\n        /* \"contracts/PlaceholderAdsMarketplace.sol\":3167:3882  function startAuction(... */\n    tag_5:\n      callvalue\n      dup1\n      iszero\n      tag_26\n      jumpi\n      revert(0x00, 0x00)\n    tag_26:\n      pop\n      tag_27\n      0x04\n      dup1\n      calldatasize\n      sub\n      dup2\n      add\n      swap1\n      tag_28\n      swap2\n      swap1\n      tag_29\n      jump\t// in\n    tag_28:\n      tag_30\n      jump\t// in\n    tag_27:\n      stop\n        /* \"contracts/PlaceholderAdsMarketplace.sol\":5242:6030  function placeBid(uint256 _tokenId) external payable auctionActive {... */\n    tag_6:\n      tag_31\n      0x04\n      dup1\n      calldatasize\n      sub\n      dup2\n      add\n      swap1\n      tag_32\n      swap2\n      swap1\n      tag_33\n      jump\t// in\n    tag_32:\n      tag_34\n      jump\t// in\n    tag_31:\n      stop\n        /* \"contracts/PlaceholderAdsMarketplace.sol\":6861:7466  function getAuctionInfo()... */\n    tag_7:\n      callvalue\n      dup1\n      iszero\n      tag_35\n      jumpi\n      revert(0x00, 0x00)\n    tag_35:\n      pop\n      tag_36\n      tag_37\n      jump\t// in\n    tag_36:\n      mload(0x40)\n      tag_38\n      swap9\n      swap8\n      swap7\n      swap6\n      swap5\n      swap4\n      swap3\n      swap2\n      swap1\n      tag_20\n      jump\t// in\n    tag_38:\n      mload(0x40)\n      dup1\n      swap2\n      sub\n      swap1\n      return\n        /* \"contracts/PlaceholderAdsMarketplace.sol\":4047:5031  function getCurrentPrice() public view returns (uint256) {... */\n    tag_8:\n      callvalue\n      dup1\n      iszero\n      tag_39\n      jumpi\n      revert(0x00, 0x00)\n    tag_39:\n      pop\n      tag_40\n      tag_41\n      jump\t// in\n    tag_40:\n      mload(0x40)\n      tag_42\n      swap2\n      swap1\n      tag_43\n      jump\t// in\n    tag_42:\n      mload(0x40)\n      dup1\n      swap2\n      sub\n      swap1\n      return\n        /* \"contracts/PlaceholderAdsMarketplace.sol\":6341:6650  function endAuction() external onlyOperator {... */\n    tag_9:\n      callvalue\n      dup1\n      iszero\n      tag_44\n      jumpi\n      revert(0x00, 0x00)\n    tag_44:\n      pop\n      tag_45\n      tag_46\n      jump\t// in\n    tag_45:\n      stop\n        /* \"contracts/PlaceholderAdsMarketplace.sol\":7561:7734  function changeOperator(address _newOperator) external onlyOperator {... */\n    tag_15:\n        /* \"contracts/PlaceholderAdsMarketplace.sol\":2037:2045  operator */\n      0x00\n      0x00\n      swap1\n      sload\n      swap1\n      0x0100\n      exp\n      swap1\n      div\n      0xffffffffffffffffffffffffffffffffffffffff\n      and\n        /* \"contracts/PlaceholderAdsMarketplace.sol\":2023:2045  msg.sender == operator */\n      0xffffffffffffffffffffffffffffffffffffffff\n      and\n        /* \"contracts/PlaceholderAdsMarketplace.sol\":2023:2033  msg.sender */\n      caller\n        /* \"contracts/PlaceholderAdsMarketplace.sol\":2023:2045  msg.sender == operator */\n      0xffffffffffffffffffffffffffffffffffffffff\n      and\n      eq\n        /* \"contracts/PlaceholderAdsMarketplace.sol\":2015:2066  require(msg.sender == operator, \"Not the operator\") */\n      tag_48\n      jumpi\n      mload(0x40)\n      0x08c379a000000000000000000000000000000000000000000000000000000000\n      dup2\n      mstore\n      0x04\n      add\n      tag_49\n      swap1\n      tag_50\n      jump\t// in\n    tag_49:\n      mload(0x40)\n      dup1\n      swap2\n      sub\n      swap1\n      revert\n    tag_48:\n        /* \"contracts/PlaceholderAdsMarketplace.sol\":7671:7672  0 */\n      0x00\n        /* \"contracts/PlaceholderAdsMarketplace.sol\":7647:7673  _newOperator != address(0) */\n      0xffffffffffffffffffffffffffffffffffffffff\n      and\n        /* \"contracts/PlaceholderAdsMarketplace.sol\":7647:7659  _newOperator */\n      dup2\n        /* \"contracts/PlaceholderAdsMarketplace.sol\":7647:7673  _newOperator != address(0) */\n      0xffffffffffffffffffffffffffffffffffffffff\n      and\n      sub\n        /* \"contracts/PlaceholderAdsMarketplace.sol\":7639:7694  require(_newOperator != address(0), \"Invalid operator\") */\n      tag_52\n      jumpi\n      mload(0x40)\n      0x08c379a000000000000000000000000000000000000000000000000000000000\n      dup2\n      mstore\n      0x04\n      add\n      tag_53\n      swap1\n      tag_54\n      jump\t// in\n    tag_53:\n      mload(0x40)\n      dup1\n      swap2\n      sub\n      swap1\n      revert\n    tag_52:\n        /* \"contracts/PlaceholderAdsMarketplace.sol\":7715:7727  _newOperator */\n      dup1\n        /* \"contracts/PlaceholderAdsMarketplace.sol\":7704:7712  operator */\n      0x00\n      0x00\n        /* \"contracts/PlaceholderAdsMarketplace.sol\":7704:7727  operator = _newOperator */\n      0x0100\n      exp\n      dup2\n      sload\n      dup2\n      0xffffffffffffffffffffffffffffffffffffffff\n      mul\n      not\n      and\n      swap1\n      dup4\n      0xffffffffffffffffffffffffffffffffffffffff\n      and\n      mul\n      or\n      swap1\n      sstore\n      pop\n        /* \"contracts/PlaceholderAdsMarketplace.sol\":7561:7734  function changeOperator(address _newOperator) external onlyOperator {... */\n      pop\n      jump\t// out\n        /* \"contracts/PlaceholderAdsMarketplace.sol\":1836:1865  Auction public currentAuction */\n    tag_18:\n      0x01\n      dup1\n      0x00\n      add\n      sload\n      swap1\n      dup1\n      0x01\n      add\n      sload\n      swap1\n      dup1\n      0x02\n      add\n      sload\n      swap1\n      dup1\n      0x03\n      add\n      sload\n      swap1\n      dup1\n      0x04\n      add\n      0x00\n      swap1\n      sload\n      swap1\n      0x0100\n      exp\n      swap1\n      div\n      0xffffffffffffffffffffffffffffffffffffffff\n      and\n      swap1\n      dup1\n      0x05\n      add\n      sload\n      swap1\n      dup1\n      0x06\n      add\n      sload\n      swap1\n      dup1\n      0x07\n      add\n      0x00\n      swap1\n      sload\n      swap1\n      0x0100\n      exp\n      swap1\n      div\n      0xff\n      and\n      swap1\n      pop\n      dup9\n      jump\t// out\n        /* \"contracts/PlaceholderAdsMarketplace.sol\":1018:1041  address public operator */\n    tag_23:\n      0x00\n      0x00\n      swap1\n      sload\n      swap1\n      0x0100\n      exp\n      swap1\n      div\n      0xffffffffffffffffffffffffffffffffffffffff\n      and\n      dup2\n      jump\t// out\n        /* \"contracts/PlaceholderAdsMarketplace.sol\":3167:3882  function startAuction(... */\n    tag_30:\n        /* \"contracts/PlaceholderAdsMarketplace.sol\":2037:2045  operator */\n      0x00\n      0x00\n      swap1\n      sload\n      swap1\n      0x0100\n      exp\n      swap1\n      div\n      0xffffffffffffffffffffffffffffffffffffffff\n      and\n        /* \"contracts/PlaceholderAdsMarketplace.sol\":2023:2045  msg.sender == operator */\n      0xffffffffffffffffffffffffffffffffffffffff\n      and\n        /* \"contracts/PlaceholderAdsMarketplace.sol\":2023:2033  msg.sender */\n      caller\n        /* \"contracts/PlaceholderAdsMarketplace.sol\":2023:2045  msg.sender == operator */\n      0xffffffffffffffffffffffffffffffffffffffff\n      and\n      eq\n        /* \"contracts/PlaceholderAdsMarketplace.sol\":2015:2066  require(msg.sender == operator, \"Not the operator\") */\n      tag_56\n      jumpi\n      mload(0x40)\n      0x08c379a000000000000000000000000000000000000000000000000000000000\n      dup2\n      mstore\n      0x04\n      add\n      tag_57\n      swap1\n      tag_50\n      jump\t// in\n    tag_57:\n      mload(0x40)\n      dup1\n      swap2\n      sub\n      swap1\n      revert\n    tag_56:\n        /* \"contracts/PlaceholderAdsMarketplace.sol\":3359:3370  _startPrice */\n      dup4\n        /* \"contracts/PlaceholderAdsMarketplace.sol\":3346:3355  _endPrice */\n      dup4\n        /* \"contracts/PlaceholderAdsMarketplace.sol\":3346:3370  _endPrice <= _startPrice */\n      gt\n      iszero\n        /* \"contracts/PlaceholderAdsMarketplace.sol\":3338:3405  require(_endPrice <= _startPrice, \"endPrice must be <= startPrice\") */\n      tag_59\n      jumpi\n      mload(0x40)\n      0x08c379a000000000000000000000000000000000000000000000000000000000\n      dup2\n      mstore\n      0x04\n      add\n      tag_60\n      swap1\n      tag_61\n      jump\t// in\n    tag_60:\n      mload(0x40)\n      dup1\n      swap2\n      sub\n      swap1\n      revert\n    tag_59:\n        /* \"contracts/PlaceholderAdsMarketplace.sol\":3435:3436  0 */\n      0x00\n        /* \"contracts/PlaceholderAdsMarketplace.sol\":3423:3432  _duration */\n      dup2\n        /* \"contracts/PlaceholderAdsMarketplace.sol\":3423:3436  _duration > 0 */\n      gt\n        /* \"contracts/PlaceholderAdsMarketplace.sol\":3415:3461  require(_duration > 0, \"Duration must be > 0\") */\n      tag_62\n      jumpi\n      mload(0x40)\n      0x08c379a000000000000000000000000000000000000000000000000000000000\n      dup2\n      mstore\n      0x04\n      add\n      tag_63\n      swap1\n      tag_64\n      jump\t// in\n    tag_63:\n      mload(0x40)\n      dup1\n      swap2\n      sub\n      swap1\n      revert\n    tag_62:\n        /* \"contracts/PlaceholderAdsMarketplace.sol\":3525:3798  Auction({... */\n      mload(0x40)\n      dup1\n      0x0100\n      add\n      0x40\n      mstore\n      dup1\n        /* \"contracts/PlaceholderAdsMarketplace.sol\":3559:3570  _startPrice */\n      dup6\n        /* \"contracts/PlaceholderAdsMarketplace.sol\":3525:3798  Auction({... */\n      dup2\n      mstore\n      0x20\n      add\n        /* \"contracts/PlaceholderAdsMarketplace.sol\":3594:3603  _endPrice */\n      dup5\n        /* \"contracts/PlaceholderAdsMarketplace.sol\":3525:3798  Auction({... */\n      dup2\n      mstore\n      0x20\n      add\n        /* \"contracts/PlaceholderAdsMarketplace.sol\":3628:3638  _startTime */\n      dup4\n        /* \"contracts/PlaceholderAdsMarketplace.sol\":3525:3798  Auction({... */\n      dup2\n      mstore\n      0x20\n      add\n        /* \"contracts/PlaceholderAdsMarketplace.sol\":3662:3671  _duration */\n      dup3\n        /* \"contracts/PlaceholderAdsMarketplace.sol\":3525:3798  Auction({... */\n      dup2\n      mstore\n      0x20\n      add\n        /* \"contracts/PlaceholderAdsMarketplace.sol\":3701:3702  0 */\n      0x00\n        /* \"contracts/PlaceholderAdsMarketplace.sol\":3525:3798  Auction({... */\n      0xffffffffffffffffffffffffffffffffffffffff\n      and\n      dup2\n      mstore\n      0x20\n      add\n        /* \"contracts/PlaceholderAdsMarketplace.sol\":3729:3730  0 */\n      0x00\n        /* \"contracts/PlaceholderAdsMarketplace.sol\":3525:3798  Auction({... */\n      dup2\n      mstore\n      0x20\n      add\n        /* \"contracts/PlaceholderAdsMarketplace.sol\":3760:3761  0 */\n      0x00\n        /* \"contracts/PlaceholderAdsMarketplace.sol\":3525:3798  Auction({... */\n      dup2\n      mstore\n      0x20\n      add\n        /* \"contracts/PlaceholderAdsMarketplace.sol\":3782:3787  false */\n      0x00\n        /* \"contracts/PlaceholderAdsMarketplace.sol\":3525:3798  Auction({... */\n      iszero\n      iszero\n      dup2\n      mstore\n      pop\n        /* \"contracts/PlaceholderAdsMarketplace.sol\":3508:3522  currentAuction */\n      0x01\n        /* \"contracts/PlaceholderAdsMarketplace.sol\":3508:3798  currentAuction = Auction({... */\n      0x00\n      dup3\n      add\n      mload\n      dup2\n      0x00\n      add\n      sstore\n      0x20\n      dup3\n      add\n      mload\n      dup2\n      0x01\n      add\n      sstore\n      0x40\n      dup3\n      add\n      mload\n      dup2\n      0x02\n      add\n      sstore\n      0x60\n      dup3\n      add\n      mload\n      dup2\n      0x03\n      add\n      sstore\n      0x80\n      dup3\n      add\n      mload\n      dup2\n      0x04\n      add\n      exp(0x0100, 0x00)\n      dup2\n      sload\n      dup2\n      0xffffffffffffffffffffffffffffffffffffffff\n      mul\n      not\n      and\n      swap1\n      dup4\n      0xffffffffffffffffffffffffffffffffffffffff\n      and\n      mul\n      or\n      swap1\n      sstore\n      pop\n      0xa0\n      dup3\n      add\n      mload\n      dup2\n      0x05\n      add\n      sstore\n      0xc0\n      dup3\n      add\n      mload\n      dup2\n      0x06\n      add\n      sstore\n      0xe0\n      dup3\n      add\n      mload\n      dup2\n      0x07\n      add\n      exp(0x0100, 0x00)\n      dup2\n      sload\n      dup2\n      0xff\n      mul\n      not\n      and\n      swap1\n      dup4\n      iszero\n      iszero\n      mul\n      or\n      swap1\n      sstore\n      pop\n      swap1\n      pop\n      pop\n        /* \"contracts/PlaceholderAdsMarketplace.sol\":3814:3875  AuctionStarted(_startPrice, _endPrice, _startTime, _duration) */\n      0xa832766a05f1bd0298b0268308621777cfe1e4eea23afe7c06beea79bc6ddd2d\n        /* \"contracts/PlaceholderAdsMarketplace.sol\":3829:3840  _startPrice */\n      dup5\n        /* \"contracts/PlaceholderAdsMarketplace.sol\":3842:3851  _endPrice */\n      dup5\n        /* \"contracts/PlaceholderAdsMarketplace.sol\":3853:3863  _startTime */\n      dup5\n        /* \"contracts/PlaceholderAdsMarketplace.sol\":3865:3874  _duration */\n      dup5\n        /* \"contracts/PlaceholderAdsMarketplace.sol\":3814:3875  AuctionStarted(_startPrice, _endPrice, _startTime, _duration) */\n      mload(0x40)\n      tag_65\n      swap5\n      swap4\n      swap3\n      swap2\n      swap1\n      tag_66\n      jump\t// in\n    tag_65:\n      mload(0x40)\n      dup1\n      swap2\n      sub\n      swap1\n      log1\n        /* \"contracts/PlaceholderAdsMarketplace.sol\":3167:3882  function startAuction(... */\n      pop\n      pop\n      pop\n      pop\n      jump\t// out\n        /* \"contracts/PlaceholderAdsMarketplace.sol\":5242:6030  function placeBid(uint256 _tokenId) external payable auctionActive {... */\n    tag_34:\n        /* \"contracts/PlaceholderAdsMarketplace.sol\":2165:2179  currentAuction */\n      0x01\n        /* \"contracts/PlaceholderAdsMarketplace.sol\":2165:2189  currentAuction.startTime */\n      0x02\n      add\n      sload\n        /* \"contracts/PlaceholderAdsMarketplace.sol\":2146:2161  block.timestamp */\n      timestamp\n        /* \"contracts/PlaceholderAdsMarketplace.sol\":2146:2189  block.timestamp >= currentAuction.startTime */\n      lt\n      iszero\n        /* \"contracts/PlaceholderAdsMarketplace.sol\":2146:2274  block.timestamp >= currentAuction.startTime &&... */\n      dup1\n      iszero\n      tag_68\n      jumpi\n      pop\n        /* \"contracts/PlaceholderAdsMarketplace.sol\":2251:2265  currentAuction */\n      0x01\n        /* \"contracts/PlaceholderAdsMarketplace.sol\":2251:2274  currentAuction.duration */\n      0x03\n      add\n      sload\n        /* \"contracts/PlaceholderAdsMarketplace.sol\":2224:2238  currentAuction */\n      0x01\n        /* \"contracts/PlaceholderAdsMarketplace.sol\":2224:2248  currentAuction.startTime */\n      0x02\n      add\n      sload\n        /* \"contracts/PlaceholderAdsMarketplace.sol\":2224:2274  currentAuction.startTime + currentAuction.duration */\n      tag_69\n      swap2\n      swap1\n      tag_70\n      jump\t// in\n    tag_69:\n        /* \"contracts/PlaceholderAdsMarketplace.sol\":2205:2220  block.timestamp */\n      timestamp\n        /* \"contracts/PlaceholderAdsMarketplace.sol\":2205:2274  block.timestamp <= currentAuction.startTime + currentAuction.duration */\n      gt\n      iszero\n        /* \"contracts/PlaceholderAdsMarketplace.sol\":2146:2274  block.timestamp >= currentAuction.startTime &&... */\n    tag_68:\n        /* \"contracts/PlaceholderAdsMarketplace.sol\":2125:2318  require(... */\n      tag_71\n      jumpi\n      mload(0x40)\n      0x08c379a000000000000000000000000000000000000000000000000000000000\n      dup2\n      mstore\n      0x04\n      add\n      tag_72\n      swap1\n      tag_73\n      jump\t// in\n    tag_72:\n      mload(0x40)\n      dup1\n      swap2\n      sub\n      swap1\n      revert\n    tag_71:\n        /* \"contracts/PlaceholderAdsMarketplace.sol\":2337:2351  currentAuction */\n      0x01\n        /* \"contracts/PlaceholderAdsMarketplace.sol\":2337:2357  currentAuction.ended */\n      0x07\n      add\n      0x00\n      swap1\n      sload\n      swap1\n      0x0100\n      exp\n      swap1\n      div\n      0xff\n      and\n        /* \"contracts/PlaceholderAdsMarketplace.sol\":2336:2357  !currentAuction.ended */\n      iszero\n        /* \"contracts/PlaceholderAdsMarketplace.sol\":2328:2383  require(!currentAuction.ended, \"Auction already ended\") */\n      tag_74\n      jumpi\n      mload(0x40)\n      0x08c379a000000000000000000000000000000000000000000000000000000000\n      dup2\n      mstore\n      0x04\n      add\n      tag_75\n      swap1\n      tag_76\n      jump\t// in\n    tag_75:\n      mload(0x40)\n      dup1\n      swap2\n      sub\n      swap1\n      revert\n    tag_74:\n        /* \"contracts/PlaceholderAdsMarketplace.sol\":5319:5332  uint256 price */\n      0x00\n        /* \"contracts/PlaceholderAdsMarketplace.sol\":5335:5352  getCurrentPrice() */\n      tag_78\n        /* \"contracts/PlaceholderAdsMarketplace.sol\":5335:5350  getCurrentPrice */\n      tag_41\n        /* \"contracts/PlaceholderAdsMarketplace.sol\":5335:5352  getCurrentPrice() */\n      jump\t// in\n    tag_78:\n        /* \"contracts/PlaceholderAdsMarketplace.sol\":5319:5352  uint256 price = getCurrentPrice() */\n      swap1\n      pop\n        /* \"contracts/PlaceholderAdsMarketplace.sol\":5383:5388  price */\n      dup1\n        /* \"contracts/PlaceholderAdsMarketplace.sol\":5370:5379  msg.value */\n      callvalue\n        /* \"contracts/PlaceholderAdsMarketplace.sol\":5370:5388  msg.value >= price */\n      lt\n      iszero\n        /* \"contracts/PlaceholderAdsMarketplace.sol\":5362:5412  require(msg.value >= price, \"Bid not high enough\") */\n      tag_79\n      jumpi\n      mload(0x40)\n      0x08c379a000000000000000000000000000000000000000000000000000000000\n      dup2\n      mstore\n      0x04\n      add\n      tag_80\n      swap1\n      tag_81\n      jump\t// in\n    tag_80:\n      mload(0x40)\n      dup1\n      swap2\n      sub\n      swap1\n      revert\n    tag_79:\n        /* \"contracts/PlaceholderAdsMarketplace.sol\":5476:5486  msg.sender */\n      caller\n        /* \"contracts/PlaceholderAdsMarketplace.sol\":5452:5466  currentAuction */\n      0x01\n        /* \"contracts/PlaceholderAdsMarketplace.sol\":5452:5473  currentAuction.winner */\n      0x04\n      add\n      0x00\n        /* \"contracts/PlaceholderAdsMarketplace.sol\":5452:5486  currentAuction.winner = msg.sender */\n      0x0100\n      exp\n      dup2\n      sload\n      dup2\n      0xffffffffffffffffffffffffffffffffffffffff\n      mul\n      not\n      and\n      swap1\n      dup4\n      0xffffffffffffffffffffffffffffffffffffffff\n      and\n      mul\n      or\n      swap1\n      sstore\n      pop\n        /* \"contracts/PlaceholderAdsMarketplace.sol\":5524:5533  msg.value */\n      callvalue\n        /* \"contracts/PlaceholderAdsMarketplace.sol\":5496:5510  currentAuction */\n      0x01\n        /* \"contracts/PlaceholderAdsMarketplace.sol\":5496:5521  currentAuction.winningBid */\n      0x05\n      add\n        /* \"contracts/PlaceholderAdsMarketplace.sol\":5496:5533  currentAuction.winningBid = msg.value */\n      dup2\n      swap1\n      sstore\n      pop\n        /* \"contracts/PlaceholderAdsMarketplace.sol\":5575:5583  _tokenId */\n      dup2\n        /* \"contracts/PlaceholderAdsMarketplace.sol\":5543:5557  currentAuction */\n      0x01\n        /* \"contracts/PlaceholderAdsMarketplace.sol\":5543:5572  currentAuction.winningTokenId */\n      0x06\n      add\n        /* \"contracts/PlaceholderAdsMarketplace.sol\":5543:5583  currentAuction.winningTokenId = _tokenId */\n      dup2\n      swap1\n      sstore\n      pop\n        /* \"contracts/PlaceholderAdsMarketplace.sol\":5616:5620  true */\n      0x01\n        /* \"contracts/PlaceholderAdsMarketplace.sol\":5593:5607  currentAuction */\n      dup1\n        /* \"contracts/PlaceholderAdsMarketplace.sol\":5593:5613  currentAuction.ended */\n      0x07\n      add\n      0x00\n        /* \"contracts/PlaceholderAdsMarketplace.sol\":5593:5620  currentAuction.ended = true */\n      0x0100\n      exp\n      dup2\n      sload\n      dup2\n      0xff\n      mul\n      not\n      and\n      swap1\n      dup4\n      iszero\n      iszero\n      mul\n      or\n      swap1\n      sstore\n      pop\n        /* \"contracts/PlaceholderAdsMarketplace.sol\":5682:5724  BidPlaced(msg.sender, msg.value, _tokenId) */\n      0xdf8644c0a4c21ed214ce69f395675b3a5fcd1039083daea5058898de40ea3149\n        /* \"contracts/PlaceholderAdsMarketplace.sol\":5692:5702  msg.sender */\n      caller\n        /* \"contracts/PlaceholderAdsMarketplace.sol\":5704:5713  msg.value */\n      callvalue\n        /* \"contracts/PlaceholderAdsMarketplace.sol\":5715:5723  _tokenId */\n      dup5\n        /* \"contracts/PlaceholderAdsMarketplace.sol\":5682:5724  BidPlaced(msg.sender, msg.value, _tokenId) */\n      mload(0x40)\n      tag_82\n      swap4\n      swap3\n      swap2\n      swap1\n      tag_83\n      jump\t// in\n    tag_82:\n      mload(0x40)\n      dup1\n      swap2\n      sub\n      swap1\n      log1\n        /* \"contracts/PlaceholderAdsMarketplace.sol\":5739:5784  AuctionEnded(msg.sender, msg.value, _tokenId) */\n      0xc358e8e3f205b5e7453abd5cbac388ca4552b887b69001bc972b88610c749035\n        /* \"contracts/PlaceholderAdsMarketplace.sol\":5752:5762  msg.sender */\n      caller\n        /* \"contracts/PlaceholderAdsMarketplace.sol\":5764:5773  msg.value */\n      callvalue\n        /* \"contracts/PlaceholderAdsMarketplace.sol\":5775:5783  _tokenId */\n      dup5\n        /* \"contracts/PlaceholderAdsMarketplace.sol\":5739:5784  AuctionEnded(msg.sender, msg.value, _tokenId) */\n      mload(0x40)\n      tag_84\n      swap4\n      swap3\n      swap2\n      swap1\n      tag_83\n      jump\t// in\n    tag_84:\n      mload(0x40)\n      dup1\n      swap2\n      sub\n      swap1\n      log1\n        /* \"contracts/PlaceholderAdsMarketplace.sol\":5994:6002  operator */\n      0x00\n      0x00\n      swap1\n      sload\n      swap1\n      0x0100\n      exp\n      swap1\n      div\n      0xffffffffffffffffffffffffffffffffffffffff\n      and\n        /* \"contracts/PlaceholderAdsMarketplace.sol\":5986:6012  payable(operator).transfer */\n      0xffffffffffffffffffffffffffffffffffffffff\n      and\n        /* \"contracts/PlaceholderAdsMarketplace.sol\":5986:6023  payable(operator).transfer(msg.value) */\n      0x08fc\n        /* \"contracts/PlaceholderAdsMarketplace.sol\":6013:6022  msg.value */\n      callvalue\n        /* \"contracts/PlaceholderAdsMarketplace.sol\":5986:6023  payable(operator).transfer(msg.value) */\n      swap1\n      dup2\n      iszero\n      mul\n      swap1\n      mload(0x40)\n      0x00\n      mload(0x40)\n      dup1\n      dup4\n      sub\n      dup2\n      dup6\n      dup9\n      dup9\n      call\n      swap4\n      pop\n      pop\n      pop\n      pop\n      iszero\n      dup1\n      iszero\n      tag_86\n      jumpi\n      returndatacopy(0x00, 0x00, returndatasize)\n      revert(0x00, returndatasize)\n    tag_86:\n      pop\n        /* \"contracts/PlaceholderAdsMarketplace.sol\":5309:6030  {... */\n      pop\n        /* \"contracts/PlaceholderAdsMarketplace.sol\":5242:6030  function placeBid(uint256 _tokenId) external payable auctionActive {... */\n      pop\n      jump\t// out\n        /* \"contracts/PlaceholderAdsMarketplace.sol\":6861:7466  function getAuctionInfo()... */\n    tag_37:\n        /* \"contracts/PlaceholderAdsMarketplace.sol\":6947:6965  uint256 startPrice */\n      0x00\n        /* \"contracts/PlaceholderAdsMarketplace.sol\":6979:6995  uint256 endPrice */\n      0x00\n        /* \"contracts/PlaceholderAdsMarketplace.sol\":7009:7026  uint256 startTime */\n      0x00\n        /* \"contracts/PlaceholderAdsMarketplace.sol\":7040:7056  uint256 duration */\n      0x00\n        /* \"contracts/PlaceholderAdsMarketplace.sol\":7070:7084  address winner */\n      0x00\n        /* \"contracts/PlaceholderAdsMarketplace.sol\":7098:7116  uint256 winningBid */\n      0x00\n        /* \"contracts/PlaceholderAdsMarketplace.sol\":7130:7152  uint256 winningTokenId */\n      0x00\n        /* \"contracts/PlaceholderAdsMarketplace.sol\":7166:7176  bool ended */\n      0x00\n        /* \"contracts/PlaceholderAdsMarketplace.sol\":7201:7217  Auction memory a */\n      0x00\n        /* \"contracts/PlaceholderAdsMarketplace.sol\":7220:7234  currentAuction */\n      0x01\n        /* \"contracts/PlaceholderAdsMarketplace.sol\":7201:7234  Auction memory a = currentAuction */\n      mload(0x40)\n      dup1\n      0x0100\n      add\n      0x40\n      mstore\n      swap1\n      dup2\n      0x00\n      dup3\n      add\n      sload\n      dup2\n      mstore\n      0x20\n      add\n      0x01\n      dup3\n      add\n      sload\n      dup2\n      mstore\n      0x20\n      add\n      0x02\n      dup3\n      add\n      sload\n      dup2\n      mstore\n      0x20\n      add\n      0x03\n      dup3\n      add\n      sload\n      dup2\n      mstore\n      0x20\n      add\n      0x04\n      dup3\n      add\n      0x00\n      swap1\n      sload\n      swap1\n      0x0100\n      exp\n      swap1\n      div\n      0xffffffffffffffffffffffffffffffffffffffff\n      and\n      0xffffffffffffffffffffffffffffffffffffffff\n      and\n      0xffffffffffffffffffffffffffffffffffffffff\n      and\n      dup2\n      mstore\n      0x20\n      add\n      0x05\n      dup3\n      add\n      sload\n      dup2\n      mstore\n      0x20\n      add\n      0x06\n      dup3\n      add\n      sload\n      dup2\n      mstore\n      0x20\n      add\n      0x07\n      dup3\n      add\n      0x00\n      swap1\n      sload\n      swap1\n      0x0100\n      exp\n      swap1\n      div\n      0xff\n      and\n      iszero\n      iszero\n      iszero\n      iszero\n      dup2\n      mstore\n      pop\n      pop\n      swap1\n      pop\n        /* \"contracts/PlaceholderAdsMarketplace.sol\":7265:7266  a */\n      dup1\n        /* \"contracts/PlaceholderAdsMarketplace.sol\":7265:7277  a.startPrice */\n      0x00\n      add\n      mload\n        /* \"contracts/PlaceholderAdsMarketplace.sol\":7291:7292  a */\n      dup2\n        /* \"contracts/PlaceholderAdsMarketplace.sol\":7291:7301  a.endPrice */\n      0x20\n      add\n      mload\n        /* \"contracts/PlaceholderAdsMarketplace.sol\":7315:7316  a */\n      dup3\n        /* \"contracts/PlaceholderAdsMarketplace.sol\":7315:7326  a.startTime */\n      0x40\n      add\n      mload\n        /* \"contracts/PlaceholderAdsMarketplace.sol\":7340:7341  a */\n      dup4\n        /* \"contracts/PlaceholderAdsMarketplace.sol\":7340:7350  a.duration */\n      0x60\n      add\n      mload\n        /* \"contracts/PlaceholderAdsMarketplace.sol\":7364:7365  a */\n      dup5\n        /* \"contracts/PlaceholderAdsMarketplace.sol\":7364:7372  a.winner */\n      0x80\n      add\n      mload\n        /* \"contracts/PlaceholderAdsMarketplace.sol\":7386:7387  a */\n      dup6\n        /* \"contracts/PlaceholderAdsMarketplace.sol\":7386:7398  a.winningBid */\n      0xa0\n      add\n      mload\n        /* \"contracts/PlaceholderAdsMarketplace.sol\":7412:7413  a */\n      dup7\n        /* \"contracts/PlaceholderAdsMarketplace.sol\":7412:7428  a.winningTokenId */\n      0xc0\n      add\n      mload\n        /* \"contracts/PlaceholderAdsMarketplace.sol\":7442:7443  a */\n      dup8\n        /* \"contracts/PlaceholderAdsMarketplace.sol\":7442:7449  a.ended */\n      0xe0\n      add\n      mload\n        /* \"contracts/PlaceholderAdsMarketplace.sol\":7244:7459  return (... */\n      swap9\n      pop\n      swap9\n      pop\n      swap9\n      pop\n      swap9\n      pop\n      swap9\n      pop\n      swap9\n      pop\n      swap9\n      pop\n      swap9\n      pop\n      pop\n        /* \"contracts/PlaceholderAdsMarketplace.sol\":6861:7466  function getAuctionInfo()... */\n      swap1\n      swap2\n      swap3\n      swap4\n      swap5\n      swap6\n      swap7\n      swap8\n      jump\t// out\n        /* \"contracts/PlaceholderAdsMarketplace.sol\":4047:5031  function getCurrentPrice() public view returns (uint256) {... */\n    tag_41:\n        /* \"contracts/PlaceholderAdsMarketplace.sol\":4095:4102  uint256 */\n      0x00\n        /* \"contracts/PlaceholderAdsMarketplace.sol\":4150:4164  currentAuction */\n      0x01\n        /* \"contracts/PlaceholderAdsMarketplace.sol\":4150:4174  currentAuction.startTime */\n      0x02\n      add\n      sload\n        /* \"contracts/PlaceholderAdsMarketplace.sol\":4131:4146  block.timestamp */\n      timestamp\n        /* \"contracts/PlaceholderAdsMarketplace.sol\":4131:4174  block.timestamp <= currentAuction.startTime */\n      gt\n      iszero\n        /* \"contracts/PlaceholderAdsMarketplace.sol\":4131:4219  block.timestamp <= currentAuction.startTime ||... */\n      dup1\n      tag_89\n      jumpi\n      pop\n        /* \"contracts/PlaceholderAdsMarketplace.sol\":4218:4219  0 */\n      0x00\n        /* \"contracts/PlaceholderAdsMarketplace.sol\":4190:4204  currentAuction */\n      0x01\n        /* \"contracts/PlaceholderAdsMarketplace.sol\":4190:4214  currentAuction.startTime */\n      0x02\n      add\n      sload\n        /* \"contracts/PlaceholderAdsMarketplace.sol\":4190:4219  currentAuction.startTime == 0 */\n      eq\n        /* \"contracts/PlaceholderAdsMarketplace.sol\":4131:4219  block.timestamp <= currentAuction.startTime ||... */\n    tag_89:\n        /* \"contracts/PlaceholderAdsMarketplace.sol\":4131:4255  block.timestamp <= currentAuction.startTime ||... */\n      dup1\n      tag_90\n      jumpi\n      pop\n        /* \"contracts/PlaceholderAdsMarketplace.sol\":4235:4249  currentAuction */\n      0x01\n        /* \"contracts/PlaceholderAdsMarketplace.sol\":4235:4255  currentAuction.ended */\n      0x07\n      add\n      0x00\n      swap1\n      sload\n      swap1\n      0x0100\n      exp\n      swap1\n      div\n      0xff\n      and\n        /* \"contracts/PlaceholderAdsMarketplace.sol\":4131:4255  block.timestamp <= currentAuction.startTime ||... */\n    tag_90:\n        /* \"contracts/PlaceholderAdsMarketplace.sol\":4114:4395  if (... */\n      iszero\n      tag_91\n      jumpi\n        /* \"contracts/PlaceholderAdsMarketplace.sol\":4359:4373  currentAuction */\n      0x01\n        /* \"contracts/PlaceholderAdsMarketplace.sol\":4359:4384  currentAuction.startPrice */\n      0x00\n      add\n      sload\n        /* \"contracts/PlaceholderAdsMarketplace.sol\":4352:4384  return currentAuction.startPrice */\n      swap1\n      pop\n      jump(tag_88)\n        /* \"contracts/PlaceholderAdsMarketplace.sol\":4114:4395  if (... */\n    tag_91:\n        /* \"contracts/PlaceholderAdsMarketplace.sol\":4463:4478  uint256 elapsed */\n      0x00\n        /* \"contracts/PlaceholderAdsMarketplace.sol\":4499:4513  currentAuction */\n      0x01\n        /* \"contracts/PlaceholderAdsMarketplace.sol\":4499:4523  currentAuction.startTime */\n      0x02\n      add\n      sload\n        /* \"contracts/PlaceholderAdsMarketplace.sol\":4481:4496  block.timestamp */\n      timestamp\n        /* \"contracts/PlaceholderAdsMarketplace.sol\":4481:4523  block.timestamp - currentAuction.startTime */\n      tag_92\n      swap2\n      swap1\n      tag_93\n      jump\t// in\n    tag_92:\n        /* \"contracts/PlaceholderAdsMarketplace.sol\":4463:4523  uint256 elapsed = block.timestamp - currentAuction.startTime */\n      swap1\n      pop\n        /* \"contracts/PlaceholderAdsMarketplace.sol\":4548:4562  currentAuction */\n      0x01\n        /* \"contracts/PlaceholderAdsMarketplace.sol\":4548:4571  currentAuction.duration */\n      0x03\n      add\n      sload\n        /* \"contracts/PlaceholderAdsMarketplace.sol\":4537:4544  elapsed */\n      dup2\n        /* \"contracts/PlaceholderAdsMarketplace.sol\":4537:4571  elapsed >= currentAuction.duration */\n      lt\n        /* \"contracts/PlaceholderAdsMarketplace.sol\":4533:4628  if (elapsed >= currentAuction.duration) {... */\n      tag_94\n      jumpi\n        /* \"contracts/PlaceholderAdsMarketplace.sol\":4594:4608  currentAuction */\n      0x01\n        /* \"contracts/PlaceholderAdsMarketplace.sol\":4594:4617  currentAuction.endPrice */\n      dup1\n      add\n      sload\n        /* \"contracts/PlaceholderAdsMarketplace.sol\":4587:4617  return currentAuction.endPrice */\n      swap2\n      pop\n      pop\n      jump(tag_88)\n        /* \"contracts/PlaceholderAdsMarketplace.sol\":4533:4628  if (elapsed >= currentAuction.duration) {... */\n    tag_94:\n        /* \"contracts/PlaceholderAdsMarketplace.sol\":4752:4774  uint256 totalPriceDiff */\n      0x00\n        /* \"contracts/PlaceholderAdsMarketplace.sol\":4805:4819  currentAuction */\n      0x01\n        /* \"contracts/PlaceholderAdsMarketplace.sol\":4805:4828  currentAuction.endPrice */\n      dup1\n      add\n      sload\n        /* \"contracts/PlaceholderAdsMarketplace.sol\":4777:4791  currentAuction */\n      0x01\n        /* \"contracts/PlaceholderAdsMarketplace.sol\":4777:4802  currentAuction.startPrice */\n      0x00\n      add\n      sload\n        /* \"contracts/PlaceholderAdsMarketplace.sol\":4777:4828  currentAuction.startPrice - currentAuction.endPrice */\n      tag_95\n      swap2\n      swap1\n      tag_93\n      jump\t// in\n    tag_95:\n        /* \"contracts/PlaceholderAdsMarketplace.sol\":4752:4828  uint256 totalPriceDiff = currentAuction.startPrice - currentAuction.endPrice */\n      swap1\n      pop\n        /* \"contracts/PlaceholderAdsMarketplace.sol\":4838:4862  uint256 currentPriceDrop */\n      0x00\n        /* \"contracts/PlaceholderAdsMarketplace.sol\":4894:4908  currentAuction */\n      0x01\n        /* \"contracts/PlaceholderAdsMarketplace.sol\":4894:4917  currentAuction.duration */\n      0x03\n      add\n      sload\n        /* \"contracts/PlaceholderAdsMarketplace.sol\":4883:4890  elapsed */\n      dup4\n        /* \"contracts/PlaceholderAdsMarketplace.sol\":4866:4880  totalPriceDiff */\n      dup4\n        /* \"contracts/PlaceholderAdsMarketplace.sol\":4866:4890  totalPriceDiff * elapsed */\n      tag_96\n      swap2\n      swap1\n      tag_97\n      jump\t// in\n    tag_96:\n        /* \"contracts/PlaceholderAdsMarketplace.sol\":4865:4917  (totalPriceDiff * elapsed) / currentAuction.duration */\n      tag_98\n      swap2\n      swap1\n      tag_99\n      jump\t// in\n    tag_98:\n        /* \"contracts/PlaceholderAdsMarketplace.sol\":4838:4917  uint256 currentPriceDrop = (totalPriceDiff * elapsed) / currentAuction.duration */\n      swap1\n      pop\n        /* \"contracts/PlaceholderAdsMarketplace.sol\":4927:4947  uint256 currentPrice */\n      0x00\n        /* \"contracts/PlaceholderAdsMarketplace.sol\":4978:4994  currentPriceDrop */\n      dup2\n        /* \"contracts/PlaceholderAdsMarketplace.sol\":4950:4964  currentAuction */\n      0x01\n        /* \"contracts/PlaceholderAdsMarketplace.sol\":4950:4975  currentAuction.startPrice */\n      0x00\n      add\n      sload\n        /* \"contracts/PlaceholderAdsMarketplace.sol\":4950:4994  currentAuction.startPrice - currentPriceDrop */\n      tag_100\n      swap2\n      swap1\n      tag_93\n      jump\t// in\n    tag_100:\n        /* \"contracts/PlaceholderAdsMarketplace.sol\":4927:4994  uint256 currentPrice = currentAuction.startPrice - currentPriceDrop */\n      swap1\n      pop\n        /* \"contracts/PlaceholderAdsMarketplace.sol\":5012:5024  currentPrice */\n      dup1\n        /* \"contracts/PlaceholderAdsMarketplace.sol\":5005:5024  return currentPrice */\n      swap5\n      pop\n      pop\n      pop\n      pop\n      pop\n        /* \"contracts/PlaceholderAdsMarketplace.sol\":4047:5031  function getCurrentPrice() public view returns (uint256) {... */\n    tag_88:\n      swap1\n      jump\t// out\n        /* \"contracts/PlaceholderAdsMarketplace.sol\":6341:6650  function endAuction() external onlyOperator {... */\n    tag_46:\n        /* \"contracts/PlaceholderAdsMarketplace.sol\":2037:2045  operator */\n      0x00\n      0x00\n      swap1\n      sload\n      swap1\n      0x0100\n      exp\n      swap1\n      div\n      0xffffffffffffffffffffffffffffffffffffffff\n      and\n        /* \"contracts/PlaceholderAdsMarketplace.sol\":2023:2045  msg.sender == operator */\n      0xffffffffffffffffffffffffffffffffffffffff\n      and\n        /* \"contracts/PlaceholderAdsMarketplace.sol\":2023:2033  msg.sender */\n      caller\n        /* \"contracts/PlaceholderAdsMarketplace.sol\":2023:2045  msg.sender == operator */\n      0xffffffffffffffffffffffffffffffffffffffff\n      and\n      eq\n        /* \"contracts/PlaceholderAdsMarketplace.sol\":2015:2066  require(msg.sender == operator, \"Not the operator\") */\n      tag_102\n      jumpi\n      mload(0x40)\n      0x08c379a000000000000000000000000000000000000000000000000000000000\n      dup2\n      mstore\n      0x04\n      add\n      tag_103\n      swap1\n      tag_50\n      jump\t// in\n    tag_103:\n      mload(0x40)\n      dup1\n      swap2\n      sub\n      swap1\n      revert\n    tag_102:\n        /* \"contracts/PlaceholderAdsMarketplace.sol\":6404:6418  currentAuction */\n      0x01\n        /* \"contracts/PlaceholderAdsMarketplace.sol\":6404:6424  currentAuction.ended */\n      0x07\n      add\n      0x00\n      swap1\n      sload\n      swap1\n      0x0100\n      exp\n      swap1\n      div\n      0xff\n      and\n        /* \"contracts/PlaceholderAdsMarketplace.sol\":6403:6424  !currentAuction.ended */\n      iszero\n        /* \"contracts/PlaceholderAdsMarketplace.sol\":6395:6450  require(!currentAuction.ended, \"Auction already ended\") */\n      tag_105\n      jumpi\n      mload(0x40)\n      0x08c379a000000000000000000000000000000000000000000000000000000000\n      dup2\n      mstore\n      0x04\n      add\n      tag_106\n      swap1\n      tag_76\n      jump\t// in\n    tag_106:\n      mload(0x40)\n      dup1\n      swap2\n      sub\n      swap1\n      revert\n    tag_105:\n        /* \"contracts/PlaceholderAdsMarketplace.sol\":6571:6575  true */\n      0x01\n        /* \"contracts/PlaceholderAdsMarketplace.sol\":6548:6562  currentAuction */\n      dup1\n        /* \"contracts/PlaceholderAdsMarketplace.sol\":6548:6568  currentAuction.ended */\n      0x07\n      add\n      0x00\n        /* \"contracts/PlaceholderAdsMarketplace.sol\":6548:6575  currentAuction.ended = true */\n      0x0100\n      exp\n      dup2\n      sload\n      dup2\n      0xff\n      mul\n      not\n      and\n      swap1\n      dup4\n      iszero\n      iszero\n      mul\n      or\n      swap1\n      sstore\n      pop\n        /* \"contracts/PlaceholderAdsMarketplace.sol\":6591:6621  AuctionEnded(address(0), 0, 0) */\n      0xc358e8e3f205b5e7453abd5cbac388ca4552b887b69001bc972b88610c749035\n        /* \"contracts/PlaceholderAdsMarketplace.sol\":6612:6613  0 */\n      0x00\n        /* \"contracts/PlaceholderAdsMarketplace.sol\":6616:6617  0 */\n      0x00\n        /* \"contracts/PlaceholderAdsMarketplace.sol\":6619:6620  0 */\n      0x00\n        /* \"contracts/PlaceholderAdsMarketplace.sol\":6591:6621  AuctionEnded(address(0), 0, 0) */\n      mload(0x40)\n      tag_107\n      swap4\n      swap3\n      swap2\n      swap1\n      tag_108\n      jump\t// in\n    tag_107:\n      mload(0x40)\n      dup1\n      swap2\n      sub\n      swap1\n      log1\n        /* \"contracts/PlaceholderAdsMarketplace.sol\":6341:6650  function endAuction() external onlyOperator {... */\n      jump\t// out\n        /* \"#utility.yul\":88:205   */\n    tag_110:\n        /* \"#utility.yul\":197:198   */\n      0x00\n        /* \"#utility.yul\":194:195   */\n      0x00\n        /* \"#utility.yul\":187:199   */\n      revert\n        /* \"#utility.yul\":334:460   */\n    tag_112:\n        /* \"#utility.yul\":371:378   */\n      0x00\n        /* \"#utility.yul\":411:453   */\n      0xffffffffffffffffffffffffffffffffffffffff\n        /* \"#utility.yul\":404:409   */\n      dup3\n        /* \"#utility.yul\":400:454   */\n      and\n        /* \"#utility.yul\":389:454   */\n      swap1\n      pop\n        /* \"#utility.yul\":334:460   */\n      swap2\n      swap1\n      pop\n      jump\t// out\n        /* \"#utility.yul\":466:562   */\n    tag_113:\n        /* \"#utility.yul\":503:510   */\n      0x00\n        /* \"#utility.yul\":532:556   */\n      tag_150\n        /* \"#utility.yul\":550:555   */\n      dup3\n        /* \"#utility.yul\":532:556   */\n      tag_112\n      jump\t// in\n    tag_150:\n        /* \"#utility.yul\":521:556   */\n      swap1\n      pop\n        /* \"#utility.yul\":466:562   */\n      swap2\n      swap1\n      pop\n      jump\t// out\n        /* \"#utility.yul\":568:690   */\n    tag_114:\n        /* \"#utility.yul\":641:665   */\n      tag_152\n        /* \"#utility.yul\":659:664   */\n      dup2\n        /* \"#utility.yul\":641:665   */\n      tag_113\n      jump\t// in\n    tag_152:\n        /* \"#utility.yul\":634:639   */\n      dup2\n        /* \"#utility.yul\":631:666   */\n      eq\n        /* \"#utility.yul\":621:684   */\n      tag_153\n      jumpi\n        /* \"#utility.yul\":680:681   */\n      0x00\n        /* \"#utility.yul\":677:678   */\n      0x00\n        /* \"#utility.yul\":670:682   */\n      revert\n        /* \"#utility.yul\":621:684   */\n    tag_153:\n        /* \"#utility.yul\":568:690   */\n      pop\n      jump\t// out\n        /* \"#utility.yul\":696:835   */\n    tag_115:\n        /* \"#utility.yul\":742:747   */\n      0x00\n        /* \"#utility.yul\":780:786   */\n      dup2\n        /* \"#utility.yul\":767:787   */\n      calldataload\n        /* \"#utility.yul\":758:787   */\n      swap1\n      pop\n        /* \"#utility.yul\":796:829   */\n      tag_155\n        /* \"#utility.yul\":823:828   */\n      dup2\n        /* \"#utility.yul\":796:829   */\n      tag_114\n      jump\t// in\n    tag_155:\n        /* \"#utility.yul\":696:835   */\n      swap3\n      swap2\n      pop\n      pop\n      jump\t// out\n        /* \"#utility.yul\":841:1170   */\n    tag_14:\n        /* \"#utility.yul\":900:906   */\n      0x00\n        /* \"#utility.yul\":949:951   */\n      0x20\n        /* \"#utility.yul\":937:946   */\n      dup3\n        /* \"#utility.yul\":928:935   */\n      dup5\n        /* \"#utility.yul\":924:947   */\n      sub\n        /* \"#utility.yul\":920:952   */\n      slt\n        /* \"#utility.yul\":917:1036   */\n      iszero\n      tag_157\n      jumpi\n        /* \"#utility.yul\":955:1034   */\n      tag_158\n      tag_110\n      jump\t// in\n    tag_158:\n        /* \"#utility.yul\":917:1036   */\n    tag_157:\n        /* \"#utility.yul\":1075:1076   */\n      0x00\n        /* \"#utility.yul\":1100:1153   */\n      tag_159\n        /* \"#utility.yul\":1145:1152   */\n      dup5\n        /* \"#utility.yul\":1136:1142   */\n      dup3\n        /* \"#utility.yul\":1125:1134   */\n      dup6\n        /* \"#utility.yul\":1121:1143   */\n      add\n        /* \"#utility.yul\":1100:1153   */\n      tag_115\n      jump\t// in\n    tag_159:\n        /* \"#utility.yul\":1090:1153   */\n      swap2\n      pop\n        /* \"#utility.yul\":1046:1163   */\n      pop\n        /* \"#utility.yul\":841:1170   */\n      swap3\n      swap2\n      pop\n      pop\n      jump\t// out\n        /* \"#utility.yul\":1176:1253   */\n    tag_116:\n        /* \"#utility.yul\":1213:1220   */\n      0x00\n        /* \"#utility.yul\":1242:1247   */\n      dup2\n        /* \"#utility.yul\":1231:1247   */\n      swap1\n      pop\n        /* \"#utility.yul\":1176:1253   */\n      swap2\n      swap1\n      pop\n      jump\t// out\n        /* \"#utility.yul\":1259:1377   */\n    tag_117:\n        /* \"#utility.yul\":1346:1370   */\n      tag_162\n        /* \"#utility.yul\":1364:1369   */\n      dup2\n        /* \"#utility.yul\":1346:1370   */\n      tag_116\n      jump\t// in\n    tag_162:\n        /* \"#utility.yul\":1341:1344   */\n      dup3\n        /* \"#utility.yul\":1334:1371   */\n      mstore\n        /* \"#utility.yul\":1259:1377   */\n      pop\n      pop\n      jump\t// out\n        /* \"#utility.yul\":1383:1501   */\n    tag_118:\n        /* \"#utility.yul\":1470:1494   */\n      tag_164\n        /* \"#utility.yul\":1488:1493   */\n      dup2\n        /* \"#utility.yul\":1470:1494   */\n      tag_113\n      jump\t// in\n    tag_164:\n        /* \"#utility.yul\":1465:1468   */\n      dup3\n        /* \"#utility.yul\":1458:1495   */\n      mstore\n        /* \"#utility.yul\":1383:1501   */\n      pop\n      pop\n      jump\t// out\n        /* \"#utility.yul\":1507:1597   */\n    tag_119:\n        /* \"#utility.yul\":1541:1548   */\n      0x00\n        /* \"#utility.yul\":1584:1589   */\n      dup2\n        /* \"#utility.yul\":1577:1590   */\n      iszero\n        /* \"#utility.yul\":1570:1591   */\n      iszero\n        /* \"#utility.yul\":1559:1591   */\n      swap1\n      pop\n        /* \"#utility.yul\":1507:1597   */\n      swap2\n      swap1\n      pop\n      jump\t// out\n        /* \"#utility.yul\":1603:1712   */\n    tag_120:\n        /* \"#utility.yul\":1684:1705   */\n      tag_167\n        /* \"#utility.yul\":1699:1704   */\n      dup2\n        /* \"#utility.yul\":1684:1705   */\n      tag_119\n      jump\t// in\n    tag_167:\n        /* \"#utility.yul\":1679:1682   */\n      dup3\n        /* \"#utility.yul\":1672:1706   */\n      mstore\n        /* \"#utility.yul\":1603:1712   */\n      pop\n      pop\n      jump\t// out\n        /* \"#utility.yul\":1718:2703   */\n    tag_20:\n        /* \"#utility.yul\":2001:2005   */\n      0x00\n        /* \"#utility.yul\":2039:2042   */\n      0x0100\n        /* \"#utility.yul\":2028:2037   */\n      dup3\n        /* \"#utility.yul\":2024:2043   */\n      add\n        /* \"#utility.yul\":2016:2043   */\n      swap1\n      pop\n        /* \"#utility.yul\":2053:2124   */\n      tag_169\n        /* \"#utility.yul\":2121:2122   */\n      0x00\n        /* \"#utility.yul\":2110:2119   */\n      dup4\n        /* \"#utility.yul\":2106:2123   */\n      add\n        /* \"#utility.yul\":2097:2103   */\n      dup12\n        /* \"#utility.yul\":2053:2124   */\n      tag_117\n      jump\t// in\n    tag_169:\n        /* \"#utility.yul\":2134:2206   */\n      tag_170\n        /* \"#utility.yul\":2202:2204   */\n      0x20\n        /* \"#utility.yul\":2191:2200   */\n      dup4\n        /* \"#utility.yul\":2187:2205   */\n      add\n        /* \"#utility.yul\":2178:2184   */\n      dup11\n        /* \"#utility.yul\":2134:2206   */\n      tag_117\n      jump\t// in\n    tag_170:\n        /* \"#utility.yul\":2216:2288   */\n      tag_171\n        /* \"#utility.yul\":2284:2286   */\n      0x40\n        /* \"#utility.yul\":2273:2282   */\n      dup4\n        /* \"#utility.yul\":2269:2287   */\n      add\n        /* \"#utility.yul\":2260:2266   */\n      dup10\n        /* \"#utility.yul\":2216:2288   */\n      tag_117\n      jump\t// in\n    tag_171:\n        /* \"#utility.yul\":2298:2370   */\n      tag_172\n        /* \"#utility.yul\":2366:2368   */\n      0x60\n        /* \"#utility.yul\":2355:2364   */\n      dup4\n        /* \"#utility.yul\":2351:2369   */\n      add\n        /* \"#utility.yul\":2342:2348   */\n      dup9\n        /* \"#utility.yul\":2298:2370   */\n      tag_117\n      jump\t// in\n    tag_172:\n        /* \"#utility.yul\":2380:2453   */\n      tag_173\n        /* \"#utility.yul\":2448:2451   */\n      0x80\n        /* \"#utility.yul\":2437:2446   */\n      dup4\n        /* \"#utility.yul\":2433:2452   */\n      add\n        /* \"#utility.yul\":2424:2430   */\n      dup8\n        /* \"#utility.yul\":2380:2453   */\n      tag_118\n      jump\t// in\n    tag_173:\n        /* \"#utility.yul\":2463:2536   */\n      tag_174\n        /* \"#utility.yul\":2531:2534   */\n      0xa0\n        /* \"#utility.yul\":2520:2529   */\n      dup4\n        /* \"#utility.yul\":2516:2535   */\n      add\n        /* \"#utility.yul\":2507:2513   */\n      dup7\n        /* \"#utility.yul\":2463:2536   */\n      tag_117\n      jump\t// in\n    tag_174:\n        /* \"#utility.yul\":2546:2619   */\n      tag_175\n        /* \"#utility.yul\":2614:2617   */\n      0xc0\n        /* \"#utility.yul\":2603:2612   */\n      dup4\n        /* \"#utility.yul\":2599:2618   */\n      add\n        /* \"#utility.yul\":2590:2596   */\n      dup6\n        /* \"#utility.yul\":2546:2619   */\n      tag_117\n      jump\t// in\n    tag_175:\n        /* \"#utility.yul\":2629:2696   */\n      tag_176\n        /* \"#utility.yul\":2691:2694   */\n      0xe0\n        /* \"#utility.yul\":2680:2689   */\n      dup4\n        /* \"#utility.yul\":2676:2695   */\n      add\n        /* \"#utility.yul\":2667:2673   */\n      dup5\n        /* \"#utility.yul\":2629:2696   */\n      tag_120\n      jump\t// in\n    tag_176:\n        /* \"#utility.yul\":1718:2703   */\n      swap10\n      swap9\n      pop\n      pop\n      pop\n      pop\n      pop\n      pop\n      pop\n      pop\n      pop\n      jump\t// out\n        /* \"#utility.yul\":2709:2931   */\n    tag_25:\n        /* \"#utility.yul\":2802:2806   */\n      0x00\n        /* \"#utility.yul\":2840:2842   */\n      0x20\n        /* \"#utility.yul\":2829:2838   */\n      dup3\n        /* \"#utility.yul\":2825:2843   */\n      add\n        /* \"#utility.yul\":2817:2843   */\n      swap1\n      pop\n        /* \"#utility.yul\":2853:2924   */\n      tag_178\n        /* \"#utility.yul\":2921:2922   */\n      0x00\n        /* \"#utility.yul\":2910:2919   */\n      dup4\n        /* \"#utility.yul\":2906:2923   */\n      add\n        /* \"#utility.yul\":2897:2903   */\n      dup5\n        /* \"#utility.yul\":2853:2924   */\n      tag_118\n      jump\t// in\n    tag_178:\n        /* \"#utility.yul\":2709:2931   */\n      swap3\n      swap2\n      pop\n      pop\n      jump\t// out\n        /* \"#utility.yul\":2937:3059   */\n    tag_121:\n        /* \"#utility.yul\":3010:3034   */\n      tag_180\n        /* \"#utility.yul\":3028:3033   */\n      dup2\n        /* \"#utility.yul\":3010:3034   */\n      tag_116\n      jump\t// in\n    tag_180:\n        /* \"#utility.yul\":3003:3008   */\n      dup2\n        /* \"#utility.yul\":3000:3035   */\n      eq\n        /* \"#utility.yul\":2990:3053   */\n      tag_181\n      jumpi\n        /* \"#utility.yul\":3049:3050   */\n      0x00\n        /* \"#utility.yul\":3046:3047   */\n      0x00\n        /* \"#utility.yul\":3039:3051   */\n      revert\n        /* \"#utility.yul\":2990:3053   */\n    tag_181:\n        /* \"#utility.yul\":2937:3059   */\n      pop\n      jump\t// out\n        /* \"#utility.yul\":3065:3204   */\n    tag_122:\n        /* \"#utility.yul\":3111:3116   */\n      0x00\n        /* \"#utility.yul\":3149:3155   */\n      dup2\n        /* \"#utility.yul\":3136:3156   */\n      calldataload\n        /* \"#utility.yul\":3127:3156   */\n      swap1\n      pop\n        /* \"#utility.yul\":3165:3198   */\n      tag_183\n        /* \"#utility.yul\":3192:3197   */\n      dup2\n        /* \"#utility.yul\":3165:3198   */\n      tag_121\n      jump\t// in\n    tag_183:\n        /* \"#utility.yul\":3065:3204   */\n      swap3\n      swap2\n      pop\n      pop\n      jump\t// out\n        /* \"#utility.yul\":3210:3975   */\n    tag_29:\n        /* \"#utility.yul\":3296:3302   */\n      0x00\n        /* \"#utility.yul\":3304:3310   */\n      0x00\n        /* \"#utility.yul\":3312:3318   */\n      0x00\n        /* \"#utility.yul\":3320:3326   */\n      0x00\n        /* \"#utility.yul\":3369:3372   */\n      0x80\n        /* \"#utility.yul\":3357:3366   */\n      dup6\n        /* \"#utility.yul\":3348:3355   */\n      dup8\n        /* \"#utility.yul\":3344:3367   */\n      sub\n        /* \"#utility.yul\":3340:3373   */\n      slt\n        /* \"#utility.yul\":3337:3457   */\n      iszero\n      tag_185\n      jumpi\n        /* \"#utility.yul\":3376:3455   */\n      tag_186\n      tag_110\n      jump\t// in\n    tag_186:\n        /* \"#utility.yul\":3337:3457   */\n    tag_185:\n        /* \"#utility.yul\":3496:3497   */\n      0x00\n        /* \"#utility.yul\":3521:3574   */\n      tag_187\n        /* \"#utility.yul\":3566:3573   */\n      dup8\n        /* \"#utility.yul\":3557:3563   */\n      dup3\n        /* \"#utility.yul\":3546:3555   */\n      dup9\n        /* \"#utility.yul\":3542:3564   */\n      add\n        /* \"#utility.yul\":3521:3574   */\n      tag_122\n      jump\t// in\n    tag_187:\n        /* \"#utility.yul\":3511:3574   */\n      swap5\n      pop\n        /* \"#utility.yul\":3467:3584   */\n      pop\n        /* \"#utility.yul\":3623:3625   */\n      0x20\n        /* \"#utility.yul\":3649:3702   */\n      tag_188\n        /* \"#utility.yul\":3694:3701   */\n      dup8\n        /* \"#utility.yul\":3685:3691   */\n      dup3\n        /* \"#utility.yul\":3674:3683   */\n      dup9\n        /* \"#utility.yul\":3670:3692   */\n      add\n        /* \"#utility.yul\":3649:3702   */\n      tag_122\n      jump\t// in\n    tag_188:\n        /* \"#utility.yul\":3639:3702   */\n      swap4\n      pop\n        /* \"#utility.yul\":3594:3712   */\n      pop\n        /* \"#utility.yul\":3751:3753   */\n      0x40\n        /* \"#utility.yul\":3777:3830   */\n      tag_189\n        /* \"#utility.yul\":3822:3829   */\n      dup8\n        /* \"#utility.yul\":3813:3819   */\n      dup3\n        /* \"#utility.yul\":3802:3811   */\n      dup9\n        /* \"#utility.yul\":3798:3820   */\n      add\n        /* \"#utility.yul\":3777:3830   */\n      tag_122\n      jump\t// in\n    tag_189:\n        /* \"#utility.yul\":3767:3830   */\n      swap3\n      pop\n        /* \"#utility.yul\":3722:3840   */\n      pop\n        /* \"#utility.yul\":3879:3881   */\n      0x60\n        /* \"#utility.yul\":3905:3958   */\n      tag_190\n        /* \"#utility.yul\":3950:3957   */\n      dup8\n        /* \"#utility.yul\":3941:3947   */\n      dup3\n        /* \"#utility.yul\":3930:3939   */\n      dup9\n        /* \"#utility.yul\":3926:3948   */\n      add\n        /* \"#utility.yul\":3905:3958   */\n      tag_122\n      jump\t// in\n    tag_190:\n        /* \"#utility.yul\":3895:3958   */\n      swap2\n      pop\n        /* \"#utility.yul\":3850:3968   */\n      pop\n        /* \"#utility.yul\":3210:3975   */\n      swap3\n      swap6\n      swap2\n      swap5\n      pop\n      swap3\n      pop\n      jump\t// out\n        /* \"#utility.yul\":3981:4310   */\n    tag_33:\n        /* \"#utility.yul\":4040:4046   */\n      0x00\n        /* \"#utility.yul\":4089:4091   */\n      0x20\n        /* \"#utility.yul\":4077:4086   */\n      dup3\n        /* \"#utility.yul\":4068:4075   */\n      dup5\n        /* \"#utility.yul\":4064:4087   */\n      sub\n        /* \"#utility.yul\":4060:4092   */\n      slt\n        /* \"#utility.yul\":4057:4176   */\n      iszero\n      tag_192\n      jumpi\n        /* \"#utility.yul\":4095:4174   */\n      tag_193\n      tag_110\n      jump\t// in\n    tag_193:\n        /* \"#utility.yul\":4057:4176   */\n    tag_192:\n        /* \"#utility.yul\":4215:4216   */\n      0x00\n        /* \"#utility.yul\":4240:4293   */\n      tag_194\n        /* \"#utility.yul\":4285:4292   */\n      dup5\n        /* \"#utility.yul\":4276:4282   */\n      dup3\n        /* \"#utility.yul\":4265:4274   */\n      dup6\n        /* \"#utility.yul\":4261:4283   */\n      add\n        /* \"#utility.yul\":4240:4293   */\n      tag_122\n      jump\t// in\n    tag_194:\n        /* \"#utility.yul\":4230:4293   */\n      swap2\n      pop\n        /* \"#utility.yul\":4186:4303   */\n      pop\n        /* \"#utility.yul\":3981:4310   */\n      swap3\n      swap2\n      pop\n      pop\n      jump\t// out\n        /* \"#utility.yul\":4316:4538   */\n    tag_43:\n        /* \"#utility.yul\":4409:4413   */\n      0x00\n        /* \"#utility.yul\":4447:4449   */\n      0x20\n        /* \"#utility.yul\":4436:4445   */\n      dup3\n        /* \"#utility.yul\":4432:4450   */\n      add\n        /* \"#utility.yul\":4424:4450   */\n      swap1\n      pop\n        /* \"#utility.yul\":4460:4531   */\n      tag_196\n        /* \"#utility.yul\":4528:4529   */\n      0x00\n        /* \"#utility.yul\":4517:4526   */\n      dup4\n        /* \"#utility.yul\":4513:4530   */\n      add\n        /* \"#utility.yul\":4504:4510   */\n      dup5\n        /* \"#utility.yul\":4460:4531   */\n      tag_117\n      jump\t// in\n    tag_196:\n        /* \"#utility.yul\":4316:4538   */\n      swap3\n      swap2\n      pop\n      pop\n      jump\t// out\n        /* \"#utility.yul\":4544:4713   */\n    tag_123:\n        /* \"#utility.yul\":4628:4639   */\n      0x00\n        /* \"#utility.yul\":4662:4668   */\n      dup3\n        /* \"#utility.yul\":4657:4660   */\n      dup3\n        /* \"#utility.yul\":4650:4669   */\n      mstore\n        /* \"#utility.yul\":4702:4706   */\n      0x20\n        /* \"#utility.yul\":4697:4700   */\n      dup3\n        /* \"#utility.yul\":4693:4707   */\n      add\n        /* \"#utility.yul\":4678:4707   */\n      swap1\n      pop\n        /* \"#utility.yul\":4544:4713   */\n      swap3\n      swap2\n      pop\n      pop\n      jump\t// out\n        /* \"#utility.yul\":4719:4885   */\n    tag_124:\n        /* \"#utility.yul\":4859:4877   */\n      0x4e6f7420746865206f70657261746f7200000000000000000000000000000000\n        /* \"#utility.yul\":4855:4856   */\n      0x00\n        /* \"#utility.yul\":4847:4853   */\n      dup3\n        /* \"#utility.yul\":4843:4857   */\n      add\n        /* \"#utility.yul\":4836:4878   */\n      mstore\n        /* \"#utility.yul\":4719:4885   */\n      pop\n      jump\t// out\n        /* \"#utility.yul\":4891:5257   */\n    tag_125:\n        /* \"#utility.yul\":5033:5036   */\n      0x00\n        /* \"#utility.yul\":5054:5121   */\n      tag_200\n        /* \"#utility.yul\":5118:5120   */\n      0x10\n        /* \"#utility.yul\":5113:5116   */\n      dup4\n        /* \"#utility.yul\":5054:5121   */\n      tag_123\n      jump\t// in\n    tag_200:\n        /* \"#utility.yul\":5047:5121   */\n      swap2\n      pop\n        /* \"#utility.yul\":5130:5223   */\n      tag_201\n        /* \"#utility.yul\":5219:5222   */\n      dup3\n        /* \"#utility.yul\":5130:5223   */\n      tag_124\n      jump\t// in\n    tag_201:\n        /* \"#utility.yul\":5248:5250   */\n      0x20\n        /* \"#utility.yul\":5243:5246   */\n      dup3\n        /* \"#utility.yul\":5239:5251   */\n      add\n        /* \"#utility.yul\":5232:5251   */\n      swap1\n      pop\n        /* \"#utility.yul\":4891:5257   */\n      swap2\n      swap1\n      pop\n      jump\t// out\n        /* \"#utility.yul\":5263:5682   */\n    tag_50:\n        /* \"#utility.yul\":5429:5433   */\n      0x00\n        /* \"#utility.yul\":5467:5469   */\n      0x20\n        /* \"#utility.yul\":5456:5465   */\n      dup3\n        /* \"#utility.yul\":5452:5470   */\n      add\n        /* \"#utility.yul\":5444:5470   */\n      swap1\n      pop\n        /* \"#utility.yul\":5516:5525   */\n      dup2\n        /* \"#utility.yul\":5510:5514   */\n      dup2\n        /* \"#utility.yul\":5506:5526   */\n      sub\n        /* \"#utility.yul\":5502:5503   */\n      0x00\n        /* \"#utility.yul\":5491:5500   */\n      dup4\n        /* \"#utility.yul\":5487:5504   */\n      add\n        /* \"#utility.yul\":5480:5527   */\n      mstore\n        /* \"#utility.yul\":5544:5675   */\n      tag_203\n        /* \"#utility.yul\":5670:5674   */\n      dup2\n        /* \"#utility.yul\":5544:5675   */\n      tag_125\n      jump\t// in\n    tag_203:\n        /* \"#utility.yul\":5536:5675   */\n      swap1\n      pop\n        /* \"#utility.yul\":5263:5682   */\n      swap2\n      swap1\n      pop\n      jump\t// out\n        /* \"#utility.yul\":5688:5854   */\n    tag_126:\n        /* \"#utility.yul\":5828:5846   */\n      0x496e76616c6964206f70657261746f7200000000000000000000000000000000\n        /* \"#utility.yul\":5824:5825   */\n      0x00\n        /* \"#utility.yul\":5816:5822   */\n      dup3\n        /* \"#utility.yul\":5812:5826   */\n      add\n        /* \"#utility.yul\":5805:5847   */\n      mstore\n        /* \"#utility.yul\":5688:5854   */\n      pop\n      jump\t// out\n        /* \"#utility.yul\":5860:6226   */\n    tag_127:\n        /* \"#utility.yul\":6002:6005   */\n      0x00\n        /* \"#utility.yul\":6023:6090   */\n      tag_206\n        /* \"#utility.yul\":6087:6089   */\n      0x10\n        /* \"#utility.yul\":6082:6085   */\n      dup4\n        /* \"#utility.yul\":6023:6090   */\n      tag_123\n      jump\t// in\n    tag_206:\n        /* \"#utility.yul\":6016:6090   */\n      swap2\n      pop\n        /* \"#utility.yul\":6099:6192   */\n      tag_207\n        /* \"#utility.yul\":6188:6191   */\n      dup3\n        /* \"#utility.yul\":6099:6192   */\n      tag_126\n      jump\t// in\n    tag_207:\n        /* \"#utility.yul\":6217:6219   */\n      0x20\n        /* \"#utility.yul\":6212:6215   */\n      dup3\n        /* \"#utility.yul\":6208:6220   */\n      add\n        /* \"#utility.yul\":6201:6220   */\n      swap1\n      pop\n        /* \"#utility.yul\":5860:6226   */\n      swap2\n      swap1\n      pop\n      jump\t// out\n        /* \"#utility.yul\":6232:6651   */\n    tag_54:\n        /* \"#utility.yul\":6398:6402   */\n      0x00\n        /* \"#utility.yul\":6436:6438   */\n      0x20\n        /* \"#utility.yul\":6425:6434   */\n      dup3\n        /* \"#utility.yul\":6421:6439   */\n      add\n        /* \"#utility.yul\":6413:6439   */\n      swap1\n      pop\n        /* \"#utility.yul\":6485:6494   */\n      dup2\n        /* \"#utility.yul\":6479:6483   */\n      dup2\n        /* \"#utility.yul\":6475:6495   */\n      sub\n        /* \"#utility.yul\":6471:6472   */\n      0x00\n        /* \"#utility.yul\":6460:6469   */\n      dup4\n        /* \"#utility.yul\":6456:6473   */\n      add\n        /* \"#utility.yul\":6449:6496   */\n      mstore\n        /* \"#utility.yul\":6513:6644   */\n      tag_209\n        /* \"#utility.yul\":6639:6643   */\n      dup2\n        /* \"#utility.yul\":6513:6644   */\n      tag_127\n      jump\t// in\n    tag_209:\n        /* \"#utility.yul\":6505:6644   */\n      swap1\n      pop\n        /* \"#utility.yul\":6232:6651   */\n      swap2\n      swap1\n      pop\n      jump\t// out\n        /* \"#utility.yul\":6657:6837   */\n    tag_128:\n        /* \"#utility.yul\":6797:6829   */\n      0x656e645072696365206d757374206265203c3d20737461727450726963650000\n        /* \"#utility.yul\":6793:6794   */\n      0x00\n        /* \"#utility.yul\":6785:6791   */\n      dup3\n        /* \"#utility.yul\":6781:6795   */\n      add\n        /* \"#utility.yul\":6774:6830   */\n      mstore\n        /* \"#utility.yul\":6657:6837   */\n      pop\n      jump\t// out\n        /* \"#utility.yul\":6843:7209   */\n    tag_129:\n        /* \"#utility.yul\":6985:6988   */\n      0x00\n        /* \"#utility.yul\":7006:7073   */\n      tag_212\n        /* \"#utility.yul\":7070:7072   */\n      0x1e\n        /* \"#utility.yul\":7065:7068   */\n      dup4\n        /* \"#utility.yul\":7006:7073   */\n      tag_123\n      jump\t// in\n    tag_212:\n        /* \"#utility.yul\":6999:7073   */\n      swap2\n      pop\n        /* \"#utility.yul\":7082:7175   */\n      tag_213\n        /* \"#utility.yul\":7171:7174   */\n      dup3\n        /* \"#utility.yul\":7082:7175   */\n      tag_128\n      jump\t// in\n    tag_213:\n        /* \"#utility.yul\":7200:7202   */\n      0x20\n        /* \"#utility.yul\":7195:7198   */\n      dup3\n        /* \"#utility.yul\":7191:7203   */\n      add\n        /* \"#utility.yul\":7184:7203   */\n      swap1\n      pop\n        /* \"#utility.yul\":6843:7209   */\n      swap2\n      swap1\n      pop\n      jump\t// out\n        /* \"#utility.yul\":7215:7634   */\n    tag_61:\n        /* \"#utility.yul\":7381:7385   */\n      0x00\n        /* \"#utility.yul\":7419:7421   */\n      0x20\n        /* \"#utility.yul\":7408:7417   */\n      dup3\n        /* \"#utility.yul\":7404:7422   */\n      add\n        /* \"#utility.yul\":7396:7422   */\n      swap1\n      pop\n        /* \"#utility.yul\":7468:7477   */\n      dup2\n        /* \"#utility.yul\":7462:7466   */\n      dup2\n        /* \"#utility.yul\":7458:7478   */\n      sub\n        /* \"#utility.yul\":7454:7455   */\n      0x00\n        /* \"#utility.yul\":7443:7452   */\n      dup4\n        /* \"#utility.yul\":7439:7456   */\n      add\n        /* \"#utility.yul\":7432:7479   */\n      mstore\n        /* \"#utility.yul\":7496:7627   */\n      tag_215\n        /* \"#utility.yul\":7622:7626   */\n      dup2\n        /* \"#utility.yul\":7496:7627   */\n      tag_129\n      jump\t// in\n    tag_215:\n        /* \"#utility.yul\":7488:7627   */\n      swap1\n      pop\n        /* \"#utility.yul\":7215:7634   */\n      swap2\n      swap1\n      pop\n      jump\t// out\n        /* \"#utility.yul\":7640:7810   */\n    tag_130:\n        /* \"#utility.yul\":7780:7802   */\n      0x4475726174696f6e206d757374206265203e2030000000000000000000000000\n        /* \"#utility.yul\":7776:7777   */\n      0x00\n        /* \"#utility.yul\":7768:7774   */\n      dup3\n        /* \"#utility.yul\":7764:7778   */\n      add\n        /* \"#utility.yul\":7757:7803   */\n      mstore\n        /* \"#utility.yul\":7640:7810   */\n      pop\n      jump\t// out\n        /* \"#utility.yul\":7816:8182   */\n    tag_131:\n        /* \"#utility.yul\":7958:7961   */\n      0x00\n        /* \"#utility.yul\":7979:8046   */\n      tag_218\n        /* \"#utility.yul\":8043:8045   */\n      0x14\n        /* \"#utility.yul\":8038:8041   */\n      dup4\n        /* \"#utility.yul\":7979:8046   */\n      tag_123\n      jump\t// in\n    tag_218:\n        /* \"#utility.yul\":7972:8046   */\n      swap2\n      pop\n        /* \"#utility.yul\":8055:8148   */\n      tag_219\n        /* \"#utility.yul\":8144:8147   */\n      dup3\n        /* \"#utility.yul\":8055:8148   */\n      tag_130\n      jump\t// in\n    tag_219:\n        /* \"#utility.yul\":8173:8175   */\n      0x20\n        /* \"#utility.yul\":8168:8171   */\n      dup3\n        /* \"#utility.yul\":8164:8176   */\n      add\n        /* \"#utility.yul\":8157:8176   */\n      swap1\n      pop\n        /* \"#utility.yul\":7816:8182   */\n      swap2\n      swap1\n      pop\n      jump\t// out\n        /* \"#utility.yul\":8188:8607   */\n    tag_64:\n        /* \"#utility.yul\":8354:8358   */\n      0x00\n        /* \"#utility.yul\":8392:8394   */\n      0x20\n        /* \"#utility.yul\":8381:8390   */\n      dup3\n        /* \"#utility.yul\":8377:8395   */\n      add\n        /* \"#utility.yul\":8369:8395   */\n      swap1\n      pop\n        /* \"#utility.yul\":8441:8450   */\n      dup2\n        /* \"#utility.yul\":8435:8439   */\n      dup2\n        /* \"#utility.yul\":8431:8451   */\n      sub\n        /* \"#utility.yul\":8427:8428   */\n      0x00\n        /* \"#utility.yul\":8416:8425   */\n      dup4\n        /* \"#utility.yul\":8412:8429   */\n      add\n        /* \"#utility.yul\":8405:8452   */\n      mstore\n        /* \"#utility.yul\":8469:8600   */\n      tag_221\n        /* \"#utility.yul\":8595:8599   */\n      dup2\n        /* \"#utility.yul\":8469:8600   */\n      tag_131\n      jump\t// in\n    tag_221:\n        /* \"#utility.yul\":8461:8600   */\n      swap1\n      pop\n        /* \"#utility.yul\":8188:8607   */\n      swap2\n      swap1\n      pop\n      jump\t// out\n        /* \"#utility.yul\":8613:9166   */\n    tag_66:\n        /* \"#utility.yul\":8790:8794   */\n      0x00\n        /* \"#utility.yul\":8828:8831   */\n      0x80\n        /* \"#utility.yul\":8817:8826   */\n      dup3\n        /* \"#utility.yul\":8813:8832   */\n      add\n        /* \"#utility.yul\":8805:8832   */\n      swap1\n      pop\n        /* \"#utility.yul\":8842:8913   */\n      tag_223\n        /* \"#utility.yul\":8910:8911   */\n      0x00\n        /* \"#utility.yul\":8899:8908   */\n      dup4\n        /* \"#utility.yul\":8895:8912   */\n      add\n        /* \"#utility.yul\":8886:8892   */\n      dup8\n        /* \"#utility.yul\":8842:8913   */\n      tag_117\n      jump\t// in\n    tag_223:\n        /* \"#utility.yul\":8923:8995   */\n      tag_224\n        /* \"#utility.yul\":8991:8993   */\n      0x20\n        /* \"#utility.yul\":8980:8989   */\n      dup4\n        /* \"#utility.yul\":8976:8994   */\n      add\n        /* \"#utility.yul\":8967:8973   */\n      dup7\n        /* \"#utility.yul\":8923:8995   */\n      tag_117\n      jump\t// in\n    tag_224:\n        /* \"#utility.yul\":9005:9077   */\n      tag_225\n        /* \"#utility.yul\":9073:9075   */\n      0x40\n        /* \"#utility.yul\":9062:9071   */\n      dup4\n        /* \"#utility.yul\":9058:9076   */\n      add\n        /* \"#utility.yul\":9049:9055   */\n      dup6\n        /* \"#utility.yul\":9005:9077   */\n      tag_117\n      jump\t// in\n    tag_225:\n        /* \"#utility.yul\":9087:9159   */\n      tag_226\n        /* \"#utility.yul\":9155:9157   */\n      0x60\n        /* \"#utility.yul\":9144:9153   */\n      dup4\n        /* \"#utility.yul\":9140:9158   */\n      add\n        /* \"#utility.yul\":9131:9137   */\n      dup5\n        /* \"#utility.yul\":9087:9159   */\n      tag_117\n      jump\t// in\n    tag_226:\n        /* \"#utility.yul\":8613:9166   */\n      swap6\n      swap5\n      pop\n      pop\n      pop\n      pop\n      pop\n      jump\t// out\n        /* \"#utility.yul\":9172:9352   */\n    tag_132:\n        /* \"#utility.yul\":9220:9297   */\n      0x4e487b7100000000000000000000000000000000000000000000000000000000\n        /* \"#utility.yul\":9217:9218   */\n      0x00\n        /* \"#utility.yul\":9210:9298   */\n      mstore\n        /* \"#utility.yul\":9317:9321   */\n      0x11\n        /* \"#utility.yul\":9314:9315   */\n      0x04\n        /* \"#utility.yul\":9307:9322   */\n      mstore\n        /* \"#utility.yul\":9341:9345   */\n      0x24\n        /* \"#utility.yul\":9338:9339   */\n      0x00\n        /* \"#utility.yul\":9331:9346   */\n      revert\n        /* \"#utility.yul\":9358:9549   */\n    tag_70:\n        /* \"#utility.yul\":9398:9401   */\n      0x00\n        /* \"#utility.yul\":9417:9437   */\n      tag_229\n        /* \"#utility.yul\":9435:9436   */\n      dup3\n        /* \"#utility.yul\":9417:9437   */\n      tag_116\n      jump\t// in\n    tag_229:\n        /* \"#utility.yul\":9412:9437   */\n      swap2\n      pop\n        /* \"#utility.yul\":9451:9471   */\n      tag_230\n        /* \"#utility.yul\":9469:9470   */\n      dup4\n        /* \"#utility.yul\":9451:9471   */\n      tag_116\n      jump\t// in\n    tag_230:\n        /* \"#utility.yul\":9446:9471   */\n      swap3\n      pop\n        /* \"#utility.yul\":9494:9495   */\n      dup3\n        /* \"#utility.yul\":9491:9492   */\n      dup3\n        /* \"#utility.yul\":9487:9496   */\n      add\n        /* \"#utility.yul\":9480:9496   */\n      swap1\n      pop\n        /* \"#utility.yul\":9515:9518   */\n      dup1\n        /* \"#utility.yul\":9512:9513   */\n      dup3\n        /* \"#utility.yul\":9509:9519   */\n      gt\n        /* \"#utility.yul\":9506:9542   */\n      iszero\n      tag_231\n      jumpi\n        /* \"#utility.yul\":9522:9540   */\n      tag_232\n      tag_132\n      jump\t// in\n    tag_232:\n        /* \"#utility.yul\":9506:9542   */\n    tag_231:\n        /* \"#utility.yul\":9358:9549   */\n      swap3\n      swap2\n      pop\n      pop\n      jump\t// out\n        /* \"#utility.yul\":9555:9723   */\n    tag_133:\n        /* \"#utility.yul\":9695:9715   */\n      0x41756374696f6e206e6f74206163746976650000000000000000000000000000\n        /* \"#utility.yul\":9691:9692   */\n      0x00\n        /* \"#utility.yul\":9683:9689   */\n      dup3\n        /* \"#utility.yul\":9679:9693   */\n      add\n        /* \"#utility.yul\":9672:9716   */\n      mstore\n        /* \"#utility.yul\":9555:9723   */\n      pop\n      jump\t// out\n        /* \"#utility.yul\":9729:10095   */\n    tag_134:\n        /* \"#utility.yul\":9871:9874   */\n      0x00\n        /* \"#utility.yul\":9892:9959   */\n      tag_235\n        /* \"#utility.yul\":9956:9958   */\n      0x12\n        /* \"#utility.yul\":9951:9954   */\n      dup4\n        /* \"#utility.yul\":9892:9959   */\n      tag_123\n      jump\t// in\n    tag_235:\n        /* \"#utility.yul\":9885:9959   */\n      swap2\n      pop\n        /* \"#utility.yul\":9968:10061   */\n      tag_236\n        /* \"#utility.yul\":10057:10060   */\n      dup3\n        /* \"#utility.yul\":9968:10061   */\n      tag_133\n      jump\t// in\n    tag_236:\n        /* \"#utility.yul\":10086:10088   */\n      0x20\n        /* \"#utility.yul\":10081:10084   */\n      dup3\n        /* \"#utility.yul\":10077:10089   */\n      add\n        /* \"#utility.yul\":10070:10089   */\n      swap1\n      pop\n        /* \"#utility.yul\":9729:10095   */\n      swap2\n      swap1\n      pop\n      jump\t// out\n        /* \"#utility.yul\":10101:10520   */\n    tag_73:\n        /* \"#utility.yul\":10267:10271   */\n      0x00\n        /* \"#utility.yul\":10305:10307   */\n      0x20\n        /* \"#utility.yul\":10294:10303   */\n      dup3\n        /* \"#utility.yul\":10290:10308   */\n      add\n        /* \"#utility.yul\":10282:10308   */\n      swap1\n      pop\n        /* \"#utility.yul\":10354:10363   */\n      dup2\n        /* \"#utility.yul\":10348:10352   */\n      dup2\n        /* \"#utility.yul\":10344:10364   */\n      sub\n        /* \"#utility.yul\":10340:10341   */\n      0x00\n        /* \"#utility.yul\":10329:10338   */\n      dup4\n        /* \"#utility.yul\":10325:10342   */\n      add\n        /* \"#utility.yul\":10318:10365   */\n      mstore\n        /* \"#utility.yul\":10382:10513   */\n      tag_238\n        /* \"#utility.yul\":10508:10512   */\n      dup2\n        /* \"#utility.yul\":10382:10513   */\n      tag_134\n      jump\t// in\n    tag_238:\n        /* \"#utility.yul\":10374:10513   */\n      swap1\n      pop\n        /* \"#utility.yul\":10101:10520   */\n      swap2\n      swap1\n      pop\n      jump\t// out\n        /* \"#utility.yul\":10526:10697   */\n    tag_135:\n        /* \"#utility.yul\":10666:10689   */\n      0x41756374696f6e20616c726561647920656e6465640000000000000000000000\n        /* \"#utility.yul\":10662:10663   */\n      0x00\n        /* \"#utility.yul\":10654:10660   */\n      dup3\n        /* \"#utility.yul\":10650:10664   */\n      add\n        /* \"#utility.yul\":10643:10690   */\n      mstore\n        /* \"#utility.yul\":10526:10697   */\n      pop\n      jump\t// out\n        /* \"#utility.yul\":10703:11069   */\n    tag_136:\n        /* \"#utility.yul\":10845:10848   */\n      0x00\n        /* \"#utility.yul\":10866:10933   */\n      tag_241\n        /* \"#utility.yul\":10930:10932   */\n      0x15\n        /* \"#utility.yul\":10925:10928   */\n      dup4\n        /* \"#utility.yul\":10866:10933   */\n      tag_123\n      jump\t// in\n    tag_241:\n        /* \"#utility.yul\":10859:10933   */\n      swap2\n      pop\n        /* \"#utility.yul\":10942:11035   */\n      tag_242\n        /* \"#utility.yul\":11031:11034   */\n      dup3\n        /* \"#utility.yul\":10942:11035   */\n      tag_135\n      jump\t// in\n    tag_242:\n        /* \"#utility.yul\":11060:11062   */\n      0x20\n        /* \"#utility.yul\":11055:11058   */\n      dup3\n        /* \"#utility.yul\":11051:11063   */\n      add\n        /* \"#utility.yul\":11044:11063   */\n      swap1\n      pop\n        /* \"#utility.yul\":10703:11069   */\n      swap2\n      swap1\n      pop\n      jump\t// out\n        /* \"#utility.yul\":11075:11494   */\n    tag_76:\n        /* \"#utility.yul\":11241:11245   */\n      0x00\n        /* \"#utility.yul\":11279:11281   */\n      0x20\n        /* \"#utility.yul\":11268:11277   */\n      dup3\n        /* \"#utility.yul\":11264:11282   */\n      add\n        /* \"#utility.yul\":11256:11282   */\n      swap1\n      pop\n        /* \"#utility.yul\":11328:11337   */\n      dup2\n        /* \"#utility.yul\":11322:11326   */\n      dup2\n        /* \"#utility.yul\":11318:11338   */\n      sub\n        /* \"#utility.yul\":11314:11315   */\n      0x00\n        /* \"#utility.yul\":11303:11312   */\n      dup4\n        /* \"#utility.yul\":11299:11316   */\n      add\n        /* \"#utility.yul\":11292:11339   */\n      mstore\n        /* \"#utility.yul\":11356:11487   */\n      tag_244\n        /* \"#utility.yul\":11482:11486   */\n      dup2\n        /* \"#utility.yul\":11356:11487   */\n      tag_136\n      jump\t// in\n    tag_244:\n        /* \"#utility.yul\":11348:11487   */\n      swap1\n      pop\n        /* \"#utility.yul\":11075:11494   */\n      swap2\n      swap1\n      pop\n      jump\t// out\n        /* \"#utility.yul\":11500:11669   */\n    tag_137:\n        /* \"#utility.yul\":11640:11661   */\n      0x426964206e6f74206869676820656e6f75676800000000000000000000000000\n        /* \"#utility.yul\":11636:11637   */\n      0x00\n        /* \"#utility.yul\":11628:11634   */\n      dup3\n        /* \"#utility.yul\":11624:11638   */\n      add\n        /* \"#utility.yul\":11617:11662   */\n      mstore\n        /* \"#utility.yul\":11500:11669   */\n      pop\n      jump\t// out\n        /* \"#utility.yul\":11675:12041   */\n    tag_138:\n        /* \"#utility.yul\":11817:11820   */\n      0x00\n        /* \"#utility.yul\":11838:11905   */\n      tag_247\n        /* \"#utility.yul\":11902:11904   */\n      0x13\n        /* \"#utility.yul\":11897:11900   */\n      dup4\n        /* \"#utility.yul\":11838:11905   */\n      tag_123\n      jump\t// in\n    tag_247:\n        /* \"#utility.yul\":11831:11905   */\n      swap2\n      pop\n        /* \"#utility.yul\":11914:12007   */\n      tag_248\n        /* \"#utility.yul\":12003:12006   */\n      dup3\n        /* \"#utility.yul\":11914:12007   */\n      tag_137\n      jump\t// in\n    tag_248:\n        /* \"#utility.yul\":12032:12034   */\n      0x20\n        /* \"#utility.yul\":12027:12030   */\n      dup3\n        /* \"#utility.yul\":12023:12035   */\n      add\n        /* \"#utility.yul\":12016:12035   */\n      swap1\n      pop\n        /* \"#utility.yul\":11675:12041   */\n      swap2\n      swap1\n      pop\n      jump\t// out\n        /* \"#utility.yul\":12047:12466   */\n    tag_81:\n        /* \"#utility.yul\":12213:12217   */\n      0x00\n        /* \"#utility.yul\":12251:12253   */\n      0x20\n        /* \"#utility.yul\":12240:12249   */\n      dup3\n        /* \"#utility.yul\":12236:12254   */\n      add\n        /* \"#utility.yul\":12228:12254   */\n      swap1\n      pop\n        /* \"#utility.yul\":12300:12309   */\n      dup2\n        /* \"#utility.yul\":12294:12298   */\n      dup2\n        /* \"#utility.yul\":12290:12310   */\n      sub\n        /* \"#utility.yul\":12286:12287   */\n      0x00\n        /* \"#utility.yul\":12275:12284   */\n      dup4\n        /* \"#utility.yul\":12271:12288   */\n      add\n        /* \"#utility.yul\":12264:12311   */\n      mstore\n        /* \"#utility.yul\":12328:12459   */\n      tag_250\n        /* \"#utility.yul\":12454:12458   */\n      dup2\n        /* \"#utility.yul\":12328:12459   */\n      tag_138\n      jump\t// in\n    tag_250:\n        /* \"#utility.yul\":12320:12459   */\n      swap1\n      pop\n        /* \"#utility.yul\":12047:12466   */\n      swap2\n      swap1\n      pop\n      jump\t// out\n        /* \"#utility.yul\":12472:12914   */\n    tag_83:\n        /* \"#utility.yul\":12621:12625   */\n      0x00\n        /* \"#utility.yul\":12659:12661   */\n      0x60\n        /* \"#utility.yul\":12648:12657   */\n      dup3\n        /* \"#utility.yul\":12644:12662   */\n      add\n        /* \"#utility.yul\":12636:12662   */\n      swap1\n      pop\n        /* \"#utility.yul\":12672:12743   */\n      tag_252\n        /* \"#utility.yul\":12740:12741   */\n      0x00\n        /* \"#utility.yul\":12729:12738   */\n      dup4\n        /* \"#utility.yul\":12725:12742   */\n      add\n        /* \"#utility.yul\":12716:12722   */\n      dup7\n        /* \"#utility.yul\":12672:12743   */\n      tag_118\n      jump\t// in\n    tag_252:\n        /* \"#utility.yul\":12753:12825   */\n      tag_253\n        /* \"#utility.yul\":12821:12823   */\n      0x20\n        /* \"#utility.yul\":12810:12819   */\n      dup4\n        /* \"#utility.yul\":12806:12824   */\n      add\n        /* \"#utility.yul\":12797:12803   */\n      dup6\n        /* \"#utility.yul\":12753:12825   */\n      tag_117\n      jump\t// in\n    tag_253:\n        /* \"#utility.yul\":12835:12907   */\n      tag_254\n        /* \"#utility.yul\":12903:12905   */\n      0x40\n        /* \"#utility.yul\":12892:12901   */\n      dup4\n        /* \"#utility.yul\":12888:12906   */\n      add\n        /* \"#utility.yul\":12879:12885   */\n      dup5\n        /* \"#utility.yul\":12835:12907   */\n      tag_117\n      jump\t// in\n    tag_254:\n        /* \"#utility.yul\":12472:12914   */\n      swap5\n      swap4\n      pop\n      pop\n      pop\n      pop\n      jump\t// out\n        /* \"#utility.yul\":12920:13114   */\n    tag_93:\n        /* \"#utility.yul\":12960:12964   */\n      0x00\n        /* \"#utility.yul\":12980:13000   */\n      tag_256\n        /* \"#utility.yul\":12998:12999   */\n      dup3\n        /* \"#utility.yul\":12980:13000   */\n      tag_116\n      jump\t// in\n    tag_256:\n        /* \"#utility.yul\":12975:13000   */\n      swap2\n      pop\n        /* \"#utility.yul\":13014:13034   */\n      tag_257\n        /* \"#utility.yul\":13032:13033   */\n      dup4\n        /* \"#utility.yul\":13014:13034   */\n      tag_116\n      jump\t// in\n    tag_257:\n        /* \"#utility.yul\":13009:13034   */\n      swap3\n      pop\n        /* \"#utility.yul\":13058:13059   */\n      dup3\n        /* \"#utility.yul\":13055:13056   */\n      dup3\n        /* \"#utility.yul\":13051:13060   */\n      sub\n        /* \"#utility.yul\":13043:13060   */\n      swap1\n      pop\n        /* \"#utility.yul\":13082:13083   */\n      dup2\n        /* \"#utility.yul\":13076:13080   */\n      dup2\n        /* \"#utility.yul\":13073:13084   */\n      gt\n        /* \"#utility.yul\":13070:13107   */\n      iszero\n      tag_258\n      jumpi\n        /* \"#utility.yul\":13087:13105   */\n      tag_259\n      tag_132\n      jump\t// in\n    tag_259:\n        /* \"#utility.yul\":13070:13107   */\n    tag_258:\n        /* \"#utility.yul\":12920:13114   */\n      swap3\n      swap2\n      pop\n      pop\n      jump\t// out\n        /* \"#utility.yul\":13120:13530   */\n    tag_97:\n        /* \"#utility.yul\":13160:13167   */\n      0x00\n        /* \"#utility.yul\":13183:13203   */\n      tag_261\n        /* \"#utility.yul\":13201:13202   */\n      dup3\n        /* \"#utility.yul\":13183:13203   */\n      tag_116\n      jump\t// in\n    tag_261:\n        /* \"#utility.yul\":13178:13203   */\n      swap2\n      pop\n        /* \"#utility.yul\":13217:13237   */\n      tag_262\n        /* \"#utility.yul\":13235:13236   */\n      dup4\n        /* \"#utility.yul\":13217:13237   */\n      tag_116\n      jump\t// in\n    tag_262:\n        /* \"#utility.yul\":13212:13237   */\n      swap3\n      pop\n        /* \"#utility.yul\":13272:13273   */\n      dup3\n        /* \"#utility.yul\":13269:13270   */\n      dup3\n        /* \"#utility.yul\":13265:13274   */\n      mul\n        /* \"#utility.yul\":13294:13324   */\n      tag_263\n        /* \"#utility.yul\":13312:13323   */\n      dup2\n        /* \"#utility.yul\":13294:13324   */\n      tag_116\n      jump\t// in\n    tag_263:\n        /* \"#utility.yul\":13283:13324   */\n      swap2\n      pop\n        /* \"#utility.yul\":13473:13474   */\n      dup3\n        /* \"#utility.yul\":13464:13471   */\n      dup3\n        /* \"#utility.yul\":13460:13475   */\n      div\n        /* \"#utility.yul\":13457:13458   */\n      dup5\n        /* \"#utility.yul\":13454:13476   */\n      eq\n        /* \"#utility.yul\":13434:13435   */\n      dup4\n        /* \"#utility.yul\":13427:13436   */\n      iszero\n        /* \"#utility.yul\":13407:13490   */\n      or\n        /* \"#utility.yul\":13384:13523   */\n      tag_264\n      jumpi\n        /* \"#utility.yul\":13503:13521   */\n      tag_265\n      tag_132\n      jump\t// in\n    tag_265:\n        /* \"#utility.yul\":13384:13523   */\n    tag_264:\n        /* \"#utility.yul\":13168:13530   */\n      pop\n        /* \"#utility.yul\":13120:13530   */\n      swap3\n      swap2\n      pop\n      pop\n      jump\t// out\n        /* \"#utility.yul\":13536:13716   */\n    tag_139:\n        /* \"#utility.yul\":13584:13661   */\n      0x4e487b7100000000000000000000000000000000000000000000000000000000\n        /* \"#utility.yul\":13581:13582   */\n      0x00\n        /* \"#utility.yul\":13574:13662   */\n      mstore\n        /* \"#utility.yul\":13681:13685   */\n      0x12\n        /* \"#utility.yul\":13678:13679   */\n      0x04\n        /* \"#utility.yul\":13671:13686   */\n      mstore\n        /* \"#utility.yul\":13705:13709   */\n      0x24\n        /* \"#utility.yul\":13702:13703   */\n      0x00\n        /* \"#utility.yul\":13695:13710   */\n      revert\n        /* \"#utility.yul\":13722:13907   */\n    tag_99:\n        /* \"#utility.yul\":13762:13763   */\n      0x00\n        /* \"#utility.yul\":13779:13799   */\n      tag_268\n        /* \"#utility.yul\":13797:13798   */\n      dup3\n        /* \"#utility.yul\":13779:13799   */\n      tag_116\n      jump\t// in\n    tag_268:\n        /* \"#utility.yul\":13774:13799   */\n      swap2\n      pop\n        /* \"#utility.yul\":13813:13833   */\n      tag_269\n        /* \"#utility.yul\":13831:13832   */\n      dup4\n        /* \"#utility.yul\":13813:13833   */\n      tag_116\n      jump\t// in\n    tag_269:\n        /* \"#utility.yul\":13808:13833   */\n      swap3\n      pop\n        /* \"#utility.yul\":13852:13853   */\n      dup3\n        /* \"#utility.yul\":13842:13877   */\n      tag_270\n      jumpi\n        /* \"#utility.yul\":13857:13875   */\n      tag_271\n      tag_139\n      jump\t// in\n    tag_271:\n        /* \"#utility.yul\":13842:13877   */\n    tag_270:\n        /* \"#utility.yul\":13899:13900   */\n      dup3\n        /* \"#utility.yul\":13896:13897   */\n      dup3\n        /* \"#utility.yul\":13892:13901   */\n      div\n        /* \"#utility.yul\":13887:13901   */\n      swap1\n      pop\n        /* \"#utility.yul\":13722:13907   */\n      swap3\n      swap2\n      pop\n      pop\n      jump\t// out\n        /* \"#utility.yul\":13913:13998   */\n    tag_140:\n        /* \"#utility.yul\":13958:13965   */\n      0x00\n        /* \"#utility.yul\":13987:13992   */\n      dup2\n        /* \"#utility.yul\":13976:13992   */\n      swap1\n      pop\n        /* \"#utility.yul\":13913:13998   */\n      swap2\n      swap1\n      pop\n      jump\t// out\n        /* \"#utility.yul\":14004:14064   */\n    tag_141:\n        /* \"#utility.yul\":14032:14035   */\n      0x00\n        /* \"#utility.yul\":14053:14058   */\n      dup2\n        /* \"#utility.yul\":14046:14058   */\n      swap1\n      pop\n        /* \"#utility.yul\":14004:14064   */\n      swap2\n      swap1\n      pop\n      jump\t// out\n        /* \"#utility.yul\":14070:14228   */\n    tag_142:\n        /* \"#utility.yul\":14128:14137   */\n      0x00\n        /* \"#utility.yul\":14161:14222   */\n      tag_275\n        /* \"#utility.yul\":14179:14221   */\n      tag_276\n        /* \"#utility.yul\":14188:14220   */\n      tag_277\n        /* \"#utility.yul\":14214:14219   */\n      dup5\n        /* \"#utility.yul\":14188:14220   */\n      tag_140\n      jump\t// in\n    tag_277:\n        /* \"#utility.yul\":14179:14221   */\n      tag_141\n      jump\t// in\n    tag_276:\n        /* \"#utility.yul\":14161:14222   */\n      tag_116\n      jump\t// in\n    tag_275:\n        /* \"#utility.yul\":14148:14222   */\n      swap1\n      pop\n        /* \"#utility.yul\":14070:14228   */\n      swap2\n      swap1\n      pop\n      jump\t// out\n        /* \"#utility.yul\":14234:14381   */\n    tag_143:\n        /* \"#utility.yul\":14329:14374   */\n      tag_279\n        /* \"#utility.yul\":14368:14373   */\n      dup2\n        /* \"#utility.yul\":14329:14374   */\n      tag_142\n      jump\t// in\n    tag_279:\n        /* \"#utility.yul\":14324:14327   */\n      dup3\n        /* \"#utility.yul\":14317:14375   */\n      mstore\n        /* \"#utility.yul\":14234:14381   */\n      pop\n      pop\n      jump\t// out\n        /* \"#utility.yul\":14387:14861   */\n    tag_108:\n        /* \"#utility.yul\":14552:14556   */\n      0x00\n        /* \"#utility.yul\":14590:14592   */\n      0x60\n        /* \"#utility.yul\":14579:14588   */\n      dup3\n        /* \"#utility.yul\":14575:14593   */\n      add\n        /* \"#utility.yul\":14567:14593   */\n      swap1\n      pop\n        /* \"#utility.yul\":14603:14674   */\n      tag_281\n        /* \"#utility.yul\":14671:14672   */\n      0x00\n        /* \"#utility.yul\":14660:14669   */\n      dup4\n        /* \"#utility.yul\":14656:14673   */\n      add\n        /* \"#utility.yul\":14647:14653   */\n      dup7\n        /* \"#utility.yul\":14603:14674   */\n      tag_118\n      jump\t// in\n    tag_281:\n        /* \"#utility.yul\":14684:14764   */\n      tag_282\n        /* \"#utility.yul\":14760:14762   */\n      0x20\n        /* \"#utility.yul\":14749:14758   */\n      dup4\n        /* \"#utility.yul\":14745:14763   */\n      add\n        /* \"#utility.yul\":14736:14742   */\n      dup6\n        /* \"#utility.yul\":14684:14764   */\n      tag_143\n      jump\t// in\n    tag_282:\n        /* \"#utility.yul\":14774:14854   */\n      tag_283\n        /* \"#utility.yul\":14850:14852   */\n      0x40\n        /* \"#utility.yul\":14839:14848   */\n      dup4\n        /* \"#utility.yul\":14835:14853   */\n      add\n        /* \"#utility.yul\":14826:14832   */\n      dup5\n        /* \"#utility.yul\":14774:14854   */\n      tag_143\n      jump\t// in\n    tag_283:\n        /* \"#utility.yul\":14387:14861   */\n      swap5\n      swap4\n      pop\n      pop\n      pop\n      pop\n      jump\t// out\n\n    auxdata: 0xa26469706673582212207cf2b3998147dff1718f1e3b5a6762aa167e9a333b39463dd23b2111c083bab764736f6c634300081c0033\n}\n",
				"bytecode": {
					"linkReferences": {},
					"object": "6080604052348015600e575f5ffd5b50335f5f6101000a81548173ffffffffffffffffffffffffffffffffffffffff021916908373ffffffffffffffffffffffffffffffffffffffff16021790555061128f8061005b5f395ff3fe60806040526004361061007a575f3560e01c80639979ef451161004d5780639979ef4514610129578063d94a350514610145578063eb91d37e14610176578063fe67a54b146101a05761007a565b806306394c9b1461007e578063496a698d146100a6578063570ca735146100d75780638d2c448814610101575b5f5ffd5b348015610089575f5ffd5b506100a4600480360381019061009f9190610b7e565b6101b6565b005b3480156100b1575f5ffd5b506100ba6102f4565b6040516100ce989796959493929190610bea565b60405180910390f35b3480156100e2575f5ffd5b506100eb610354565b6040516100f89190610c66565b60405180910390f35b34801561010c575f5ffd5b5061012760048036038101906101229190610ca9565b610378565b005b610143600480360381019061013e9190610d0d565b6105c4565b005b348015610150575f5ffd5b5061015961081e565b60405161016d989796959493929190610bea565b60405180910390f35b348015610181575f5ffd5b5061018a610923565b6040516101979190610d38565b60405180910390f35b3480156101ab575f5ffd5b506101b46109e7565b005b5f5f9054906101000a900473ffffffffffffffffffffffffffffffffffffffff1673ffffffffffffffffffffffffffffffffffffffff163373ffffffffffffffffffffffffffffffffffffffff1614610244576040517f08c379a000000000000000000000000000000000000000000000000000000000815260040161023b90610dab565b60405180910390fd5b5f73ffffffffffffffffffffffffffffffffffffffff168173ffffffffffffffffffffffffffffffffffffffff16036102b2576040517f08c379a00000000000000000000000000000000000000000000000000000000081526004016102a990610e13565b60405180910390fd5b805f5f6101000a81548173ffffffffffffffffffffffffffffffffffffffff021916908373ffffffffffffffffffffffffffffffffffffffff16021790555050565b6001805f015490806001015490806002015490806003015490806004015f9054906101000a900473ffffffffffffffffffffffffffffffffffffffff1690806005015490806006015490806007015f9054906101000a900460ff16905088565b5f5f9054906101000a900473ffffffffffffffffffffffffffffffffffffffff1681565b5f5f9054906101000a900473ffffffffffffffffffffffffffffffffffffffff1673ffffffffffffffffffffffffffffffffffffffff163373ffffffffffffffffffffffffffffffffffffffff1614610406576040517f08c379a00000000000000000000000000000000000000000000000000000000081526004016103fd90610dab565b60405180910390fd5b83831115610449576040517f08c379a000000000000000000000000000000000000000000000000000000000815260040161044090610e7b565b60405180910390fd5b5f811161048b576040517f08c379a000000000000000000000000000000000000000000000000000000000815260040161048290610ee3565b60405180910390fd5b6040518061010001604052808581526020018481526020018381526020018281526020015f73ffffffffffffffffffffffffffffffffffffffff1681526020015f81526020015f81526020015f151581525060015f820151815f01556020820151816001015560408201518160020155606082015181600301556080820151816004015f6101000a81548173ffffffffffffffffffffffffffffffffffffffff021916908373ffffffffffffffffffffffffffffffffffffffff16021790555060a0820151816005015560c0820151816006015560e0820151816007015f6101000a81548160ff0219169083151502179055509050507fa832766a05f1bd0298b0268308621777cfe1e4eea23afe7c06beea79bc6ddd2d848484846040516105b69493929190610f01565b60405180910390a150505050565b60016002015442101580156105ee57506001600301546001600201546105ea9190610f71565b4211155b61062d576040517f08c379a000000000000000000000000000000000000000000000000000000000815260040161062490610fee565b60405180910390fd5b60016007015f9054906101000a900460ff161561067f576040517f08c379a000000000000000000000000000000000000000000000000000000000815260040161067690611056565b60405180910390fd5b5f610688610923565b9050803410156106cd576040517f08c379a00000000000000000000000000000000000000000000000000000000081526004016106c4906110be565b60405180910390fd5b3360016004015f6101000a81548173ffffffffffffffffffffffffffffffffffffffff021916908373ffffffffffffffffffffffffffffffffffffffff16021790555034600160050181905550816001600601819055506001806007015f6101000a81548160ff0219169083151502179055507fdf8644c0a4c21ed214ce69f395675b3a5fcd1039083daea5058898de40ea3149333484604051610773939291906110dc565b60405180910390a17fc358e8e3f205b5e7453abd5cbac388ca4552b887b69001bc972b88610c7490353334846040516107ae939291906110dc565b60405180910390a15f5f9054906101000a900473ffffffffffffffffffffffffffffffffffffffff1673ffffffffffffffffffffffffffffffffffffffff166108fc3490811502906040515f60405180830381858888f19350505050158015610819573d5f5f3e3d5ffd5b505050565b5f5f5f5f5f5f5f5f5f6001604051806101000160405290815f8201548152602001600182015481526020016002820154815260200160038201548152602001600482015f9054906101000a900473ffffffffffffffffffffffffffffffffffffffff1673ffffffffffffffffffffffffffffffffffffffff1673ffffffffffffffffffffffffffffffffffffffff1681526020016005820154815260200160068201548152602001600782015f9054906101000a900460ff1615151515815250509050805f015181602001518260400151836060015184608001518560a001518660c001518760e0015198509850985098509850985098509850509091929394959697565b5f6001600201544211158061093c57505f600160020154145b80610955575060016007015f9054906101000a900460ff165b156109665760015f015490506109e4565b5f600160020154426109789190611111565b905060016003015481106109935760018001549150506109e4565b5f600180015460015f01546109a89190611111565b90505f60016003015483836109bd9190611144565b6109c791906111b2565b90505f8160015f01546109da9190611111565b9050809450505050505b90565b5f5f9054906101000a900473ffffffffffffffffffffffffffffffffffffffff1673ffffffffffffffffffffffffffffffffffffffff163373ffffffffffffffffffffffffffffffffffffffff1614610a75576040517f08c379a0000000000000000000000000000000000000000000000000000000008152600401610a6c90610dab565b60405180910390fd5b60016007015f9054906101000a900460ff1615610ac7576040517f08c379a0000000000000000000000000000000000000000000000000000000008152600401610abe90611056565b60405180910390fd5b6001806007015f6101000a81548160ff0219169083151502179055507fc358e8e3f205b5e7453abd5cbac388ca4552b887b69001bc972b88610c7490355f5f5f604051610b1693929190611224565b60405180910390a1565b5f5ffd5b5f73ffffffffffffffffffffffffffffffffffffffff82169050919050565b5f610b4d82610b24565b9050919050565b610b5d81610b43565b8114610b67575f5ffd5b50565b5f81359050610b7881610b54565b92915050565b5f60208284031215610b9357610b92610b20565b5b5f610ba084828501610b6a565b91505092915050565b5f819050919050565b610bbb81610ba9565b82525050565b610bca81610b43565b82525050565b5f8115159050919050565b610be481610bd0565b82525050565b5f61010082019050610bfe5f83018b610bb2565b610c0b602083018a610bb2565b610c186040830189610bb2565b610c256060830188610bb2565b610c326080830187610bc1565b610c3f60a0830186610bb2565b610c4c60c0830185610bb2565b610c5960e0830184610bdb565b9998505050505050505050565b5f602082019050610c795f830184610bc1565b92915050565b610c8881610ba9565b8114610c92575f5ffd5b50565b5f81359050610ca381610c7f565b92915050565b5f5f5f5f60808587031215610cc157610cc0610b20565b5b5f610cce87828801610c95565b9450506020610cdf87828801610c95565b9350506040610cf087828801610c95565b9250506060610d0187828801610c95565b91505092959194509250565b5f60208284031215610d2257610d21610b20565b5b5f610d2f84828501610c95565b91505092915050565b5f602082019050610d4b5f830184610bb2565b92915050565b5f82825260208201905092915050565b7f4e6f7420746865206f70657261746f72000000000000000000000000000000005f82015250565b5f610d95601083610d51565b9150610da082610d61565b602082019050919050565b5f6020820190508181035f830152610dc281610d89565b9050919050565b7f496e76616c6964206f70657261746f72000000000000000000000000000000005f82015250565b5f610dfd601083610d51565b9150610e0882610dc9565b602082019050919050565b5f6020820190508181035f830152610e2a81610df1565b9050919050565b7f656e645072696365206d757374206265203c3d207374617274507269636500005f82015250565b5f610e65601e83610d51565b9150610e7082610e31565b602082019050919050565b5f6020820190508181035f830152610e9281610e59565b9050919050565b7f4475726174696f6e206d757374206265203e20300000000000000000000000005f82015250565b5f610ecd601483610d51565b9150610ed882610e99565b602082019050919050565b5f6020820190508181035f830152610efa81610ec1565b9050919050565b5f608082019050610f145f830187610bb2565b610f216020830186610bb2565b610f2e6040830185610bb2565b610f3b6060830184610bb2565b95945050505050565b7f4e487b71000000000000000000000000000000000000000000000000000000005f52601160045260245ffd5b5f610f7b82610ba9565b9150610f8683610ba9565b9250828201905080821115610f9e57610f9d610f44565b5b92915050565b7f41756374696f6e206e6f742061637469766500000000000000000000000000005f82015250565b5f610fd8601283610d51565b9150610fe382610fa4565b602082019050919050565b5f6020820190508181035f83015261100581610fcc565b9050919050565b7f41756374696f6e20616c726561647920656e64656400000000000000000000005f82015250565b5f611040601583610d51565b915061104b8261100c565b602082019050919050565b5f6020820190508181035f83015261106d81611034565b9050919050565b7f426964206e6f74206869676820656e6f756768000000000000000000000000005f82015250565b5f6110a8601383610d51565b91506110b382611074565b602082019050919050565b5f6020820190508181035f8301526110d58161109c565b9050919050565b5f6060820190506110ef5f830186610bc1565b6110fc6020830185610bb2565b6111096040830184610bb2565b949350505050565b5f61111b82610ba9565b915061112683610ba9565b925082820390508181111561113e5761113d610f44565b5b92915050565b5f61114e82610ba9565b915061115983610ba9565b925082820261116781610ba9565b9150828204841483151761117e5761117d610f44565b5b5092915050565b7f4e487b71000000000000000000000000000000000000000000000000000000005f52601260045260245ffd5b5f6111bc82610ba9565b91506111c783610ba9565b9250826111d7576111d6611185565b5b828204905092915050565b5f819050919050565b5f819050919050565b5f61120e611209611204846111e2565b6111eb565b610ba9565b9050919050565b61121e816111f4565b82525050565b5f6060820190506112375f830186610bc1565b6112446020830185611215565b6112516040830184611215565b94935050505056fea26469706673582212207cf2b3998147dff1718f1e3b5a6762aa167e9a333b39463dd23b2111c083bab764736f6c634300081c0033",
					"opcodes": "PUSH1 0x80 PUSH1 0x40 MSTORE CALLVALUE DUP1 ISZERO PUSH1 0xE JUMPI PUSH0 PUSH0 REVERT JUMPDEST POP CALLER PUSH0 PUSH0 PUSH2 0x100 EXP DUP2 SLOAD DUP2 PUSH20 0xFFFFFFFFFFFFFFFFFFFFFFFFFFFFFFFFFFFFFFFF MUL NOT AND SWAP1 DUP4 PUSH20 0xFFFFFFFFFFFFFFFFFFFFFFFFFFFFFFFFFFFFFFFF AND MUL OR SWAP1 SSTORE POP PUSH2 0x128F DUP1 PUSH2 0x5B PUSH0 CODECOPY PUSH0 RETURN INVALID PUSH1 0x80 PUSH1 0x40 MSTORE PUSH1 0x4 CALLDATASIZE LT PUSH2 0x7A JUMPI PUSH0 CALLDATALOAD PUSH1 0xE0 SHR DUP1 PUSH4 0x9979EF45 GT PUSH2 0x4D JUMPI DUP1 PUSH4 0x9979EF45 EQ PUSH2 0x129 JUMPI DUP1 PUSH4 0xD94A3505 EQ PUSH2 0x145 JUMPI DUP1 PUSH4 0xEB91D37E EQ PUSH2 0x176 JUMPI DUP1 PUSH4 0xFE67A54B EQ PUSH2 0x1A0 JUMPI PUSH2 0x7A JUMP JUMPDEST DUP1 PUSH4 0x6394C9B EQ PUSH2 0x7E JUMPI DUP1 PUSH4 0x496A698D EQ PUSH2 0xA6 JUMPI DUP1 PUSH4 0x570CA735 EQ PUSH2 0xD7 JUMPI DUP1 PUSH4 0x8D2C4488 EQ PUSH2 0x101 JUMPI JUMPDEST PUSH0 PUSH0 REVERT JUMPDEST CALLVALUE DUP1 ISZERO PUSH2 0x89 JUMPI PUSH0 PUSH0 REVERT JUMPDEST POP PUSH2 0xA4 PUSH1 0x4 DUP1 CALLDATASIZE SUB DUP2 ADD SWAP1 PUSH2 0x9F SWAP2 SWAP1 PUSH2 0xB7E JUMP JUMPDEST PUSH2 0x1B6 JUMP JUMPDEST STOP JUMPDEST CALLVALUE DUP1 ISZERO PUSH2 0xB1 JUMPI PUSH0 PUSH0 REVERT JUMPDEST POP PUSH2 0xBA PUSH2 0x2F4 JUMP JUMPDEST PUSH1 0x40 MLOAD PUSH2 0xCE SWAP9 SWAP8 SWAP7 SWAP6 SWAP5 SWAP4 SWAP3 SWAP2 SWAP1 PUSH2 0xBEA JUMP JUMPDEST PUSH1 0x40 MLOAD DUP1 SWAP2 SUB SWAP1 RETURN JUMPDEST CALLVALUE DUP1 ISZERO PUSH2 0xE2 JUMPI PUSH0 PUSH0 REVERT JUMPDEST POP PUSH2 0xEB PUSH2 0x354 JUMP JUMPDEST PUSH1 0x40 MLOAD PUSH2 0xF8 SWAP2 SWAP1 PUSH2 0xC66 JUMP JUMPDEST PUSH1 0x40 MLOAD DUP1 SWAP2 SUB SWAP1 RETURN JUMPDEST CALLVALUE DUP1 ISZERO PUSH2 0x10C JUMPI PUSH0 PUSH0 REVERT JUMPDEST POP PUSH2 0x127 PUSH1 0x4 DUP1 CALLDATASIZE SUB DUP2 ADD SWAP1 PUSH2 0x122 SWAP2 SWAP1 PUSH2 0xCA9 JUMP JUMPDEST PUSH2 0x378 JUMP JUMPDEST STOP JUMPDEST PUSH2 0x143 PUSH1 0x4 DUP1 CALLDATASIZE SUB DUP2 ADD SWAP1 PUSH2 0x13E SWAP2 SWAP1 PUSH2 0xD0D JUMP JUMPDEST PUSH2 0x5C4 JUMP JUMPDEST STOP JUMPDEST CALLVALUE DUP1 ISZERO PUSH2 0x150 JUMPI PUSH0 PUSH0 REVERT JUMPDEST POP PUSH2 0x159 PUSH2 0x81E JUMP JUMPDEST PUSH1 0x40 MLOAD PUSH2 0x16D SWAP9 SWAP8 SWAP7 SWAP6 SWAP5 SWAP4 SWAP3 SWAP2 SWAP1 PUSH2 0xBEA JUMP JUMPDEST PUSH1 0x40 MLOAD DUP1 SWAP2 SUB SWAP1 RETURN JUMPDEST CALLVALUE DUP1 ISZERO PUSH2 0x181 JUMPI PUSH0 PUSH0 REVERT JUMPDEST POP PUSH2 0x18A PUSH2 0x923 JUMP JUMPDEST PUSH1 0x40 MLOAD PUSH2 0x197 SWAP2 SWAP1 PUSH2 0xD38 JUMP JUMPDEST PUSH1 0x40 MLOAD DUP1 SWAP2 SUB SWAP1 RETURN JUMPDEST CALLVALUE DUP1 ISZERO PUSH2 0x1AB JUMPI PUSH0 PUSH0 REVERT JUMPDEST POP PUSH2 0x1B4 PUSH2 0x9E7 JUMP JUMPDEST STOP JUMPDEST PUSH0 PUSH0 SWAP1 SLOAD SWAP1 PUSH2 0x100 EXP SWAP1 DIV PUSH20 0xFFFFFFFFFFFFFFFFFFFFFFFFFFFFFFFFFFFFFFFF AND PUSH20 0xFFFFFFFFFFFFFFFFFFFFFFFFFFFFFFFFFFFFFFFF AND CALLER PUSH20 0xFFFFFFFFFFFFFFFFFFFFFFFFFFFFFFFFFFFFFFFF AND EQ PUSH2 0x244 JUMPI PUSH1 0x40 MLOAD PUSH32 0x8C379A000000000000000000000000000000000000000000000000000000000 DUP2 MSTORE PUSH1 0x4 ADD PUSH2 0x23B SWAP1 PUSH2 0xDAB JUMP JUMPDEST PUSH1 0x40 MLOAD DUP1 SWAP2 SUB SWAP1 REVERT JUMPDEST PUSH0 PUSH20 0xFFFFFFFFFFFFFFFFFFFFFFFFFFFFFFFFFFFFFFFF AND DUP2 PUSH20 0xFFFFFFFFFFFFFFFFFFFFFFFFFFFFFFFFFFFFFFFF AND SUB PUSH2 0x2B2 JUMPI PUSH1 0x40 MLOAD PUSH32 0x8C379A000000000000000000000000000000000000000000000000000000000 DUP2 MSTORE PUSH1 0x4 ADD PUSH2 0x2A9 SWAP1 PUSH2 0xE13 JUMP JUMPDEST PUSH1 0x40 MLOAD DUP1 SWAP2 SUB SWAP1 REVERT JUMPDEST DUP1 PUSH0 PUSH0 PUSH2 0x100 EXP DUP2 SLOAD DUP2 PUSH20 0xFFFFFFFFFFFFFFFFFFFFFFFFFFFFFFFFFFFFFFFF MUL NOT AND SWAP1 DUP4 PUSH20 0xFFFFFFFFFFFFFFFFFFFFFFFFFFFFFFFFFFFFFFFF AND MUL OR SWAP1 SSTORE POP POP JUMP JUMPDEST PUSH1 0x1 DUP1 PUSH0 ADD SLOAD SWAP1 DUP1 PUSH1 0x1 ADD SLOAD SWAP1 DUP1 PUSH1 0x2 ADD SLOAD SWAP1 DUP1 PUSH1 0x3 ADD SLOAD SWAP1 DUP1 PUSH1 0x4 ADD PUSH0 SWAP1 SLOAD SWAP1 PUSH2 0x100 EXP SWAP1 DIV PUSH20 0xFFFFFFFFFFFFFFFFFFFFFFFFFFFFFFFFFFFFFFFF AND SWAP1 DUP1 PUSH1 0x5 ADD SLOAD SWAP1 DUP1 PUSH1 0x6 ADD SLOAD SWAP1 DUP1 PUSH1 0x7 ADD PUSH0 SWAP1 SLOAD SWAP1 PUSH2 0x100 EXP SWAP1 DIV PUSH1 0xFF AND SWAP1 POP DUP9 JUMP JUMPDEST PUSH0 PUSH0 SWAP1 SLOAD SWAP1 PUSH2 0x100 EXP SWAP1 DIV PUSH20 0xFFFFFFFFFFFFFFFFFFFFFFFFFFFFFFFFFFFFFFFF AND DUP2 JUMP JUMPDEST PUSH0 PUSH0 SWAP1 SLOAD SWAP1 PUSH2 0x100 EXP SWAP1 DIV PUSH20 0xFFFFFFFFFFFFFFFFFFFFFFFFFFFFFFFFFFFFFFFF AND PUSH20 0xFFFFFFFFFFFFFFFFFFFFFFFFFFFFFFFFFFFFFFFF AND CALLER PUSH20 0xFFFFFFFFFFFFFFFFFFFFFFFFFFFFFFFFFFFFFFFF AND EQ PUSH2 0x406 JUMPI PUSH1 0x40 MLOAD PUSH32 0x8C379A000000000000000000000000000000000000000000000000000000000 DUP2 MSTORE PUSH1 0x4 ADD PUSH2 0x3FD SWAP1 PUSH2 0xDAB JUMP JUMPDEST PUSH1 0x40 MLOAD DUP1 SWAP2 SUB SWAP1 REVERT JUMPDEST DUP4 DUP4 GT ISZERO PUSH2 0x449 JUMPI PUSH1 0x40 MLOAD PUSH32 0x8C379A000000000000000000000000000000000000000000000000000000000 DUP2 MSTORE PUSH1 0x4 ADD PUSH2 0x440 SWAP1 PUSH2 0xE7B JUMP JUMPDEST PUSH1 0x40 MLOAD DUP1 SWAP2 SUB SWAP1 REVERT JUMPDEST PUSH0 DUP2 GT PUSH2 0x48B JUMPI PUSH1 0x40 MLOAD PUSH32 0x8C379A000000000000000000000000000000000000000000000000000000000 DUP2 MSTORE PUSH1 0x4 ADD PUSH2 0x482 SWAP1 PUSH2 0xEE3 JUMP JUMPDEST PUSH1 0x40 MLOAD DUP1 SWAP2 SUB SWAP1 REVERT JUMPDEST PUSH1 0x40 MLOAD DUP1 PUSH2 0x100 ADD PUSH1 0x40 MSTORE DUP1 DUP6 DUP2 MSTORE PUSH1 0x20 ADD DUP5 DUP2 MSTORE PUSH1 0x20 ADD DUP4 DUP2 MSTORE PUSH1 0x20 ADD DUP3 DUP2 MSTORE PUSH1 0x20 ADD PUSH0 PUSH20 0xFFFFFFFFFFFFFFFFFFFFFFFFFFFFFFFFFFFFFFFF AND DUP2 MSTORE PUSH1 0x20 ADD PUSH0 DUP2 MSTORE PUSH1 0x20 ADD PUSH0 DUP2 MSTORE PUSH1 0x20 ADD PUSH0 ISZERO ISZERO DUP2 MSTORE POP PUSH1 0x1 PUSH0 DUP3 ADD MLOAD DUP2 PUSH0 ADD SSTORE PUSH1 0x20 DUP3 ADD MLOAD DUP2 PUSH1 0x1 ADD SSTORE PUSH1 0x40 DUP3 ADD MLOAD DUP2 PUSH1 0x2 ADD SSTORE PUSH1 0x60 DUP3 ADD MLOAD DUP2 PUSH1 0x3 ADD SSTORE PUSH1 0x80 DUP3 ADD MLOAD DUP2 PUSH1 0x4 ADD PUSH0 PUSH2 0x100 EXP DUP2 SLOAD DUP2 PUSH20 0xFFFFFFFFFFFFFFFFFFFFFFFFFFFFFFFFFFFFFFFF MUL NOT AND SWAP1 DUP4 PUSH20 0xFFFFFFFFFFFFFFFFFFFFFFFFFFFFFFFFFFFFFFFF AND MUL OR SWAP1 SSTORE POP PUSH1 0xA0 DUP3 ADD MLOAD DUP2 PUSH1 0x5 ADD SSTORE PUSH1 0xC0 DUP3 ADD MLOAD DUP2 PUSH1 0x6 ADD SSTORE PUSH1 0xE0 DUP3 ADD MLOAD DUP2 PUSH1 0x7 ADD PUSH0 PUSH2 0x100 EXP DUP2 SLOAD DUP2 PUSH1 0xFF MUL NOT AND SWAP1 DUP4 ISZERO ISZERO MUL OR SWAP1 SSTORE POP SWAP1 POP POP PUSH32 0xA832766A05F1BD0298B0268308621777CFE1E4EEA23AFE7C06BEEA79BC6DDD2D DUP5 DUP5 DUP5 DUP5 PUSH1 0x40 MLOAD PUSH2 0x5B6 SWAP5 SWAP4 SWAP3 SWAP2 SWAP1 PUSH2 0xF01 JUMP JUMPDEST PUSH1 0x40 MLOAD DUP1 SWAP2 SUB SWAP1 LOG1 POP POP POP POP JUMP JUMPDEST PUSH1 0x1 PUSH1 0x2 ADD SLOAD TIMESTAMP LT ISZERO DUP1 ISZERO PUSH2 0x5EE JUMPI POP PUSH1 0x1 PUSH1 0x3 ADD SLOAD PUSH1 0x1 PUSH1 0x2 ADD SLOAD PUSH2 0x5EA SWAP2 SWAP1 PUSH2 0xF71 JUMP JUMPDEST TIMESTAMP GT ISZERO JUMPDEST PUSH2 0x62D JUMPI PUSH1 0x40 MLOAD PUSH32 0x8C379A000000000000000000000000000000000000000000000000000000000 DUP2 MSTORE PUSH1 0x4 ADD PUSH2 0x624 SWAP1 PUSH2 0xFEE JUMP JUMPDEST PUSH1 0x40 MLOAD DUP1 SWAP2 SUB SWAP1 REVERT JUMPDEST PUSH1 0x1 PUSH1 0x7 ADD PUSH0 SWAP1 SLOAD SWAP1 PUSH2 0x100 EXP SWAP1 DIV PUSH1 0xFF AND ISZERO PUSH2 0x67F JUMPI PUSH1 0x40 MLOAD PUSH32 0x8C379A000000000000000000000000000000000000000000000000000000000 DUP2 MSTORE PUSH1 0x4 ADD PUSH2 0x676 SWAP1 PUSH2 0x1056 JUMP JUMPDEST PUSH1 0x40 MLOAD DUP1 SWAP2 SUB SWAP1 REVERT JUMPDEST PUSH0 PUSH2 0x688 PUSH2 0x923 JUMP JUMPDEST SWAP1 POP DUP1 CALLVALUE LT ISZERO PUSH2 0x6CD JUMPI PUSH1 0x40 MLOAD PUSH32 0x8C379A000000000000000000000000000000000000000000000000000000000 DUP2 MSTORE PUSH1 0x4 ADD PUSH2 0x6C4 SWAP1 PUSH2 0x10BE JUMP JUMPDEST PUSH1 0x40 MLOAD DUP1 SWAP2 SUB SWAP1 REVERT JUMPDEST CALLER PUSH1 0x1 PUSH1 0x4 ADD PUSH0 PUSH2 0x100 EXP DUP2 SLOAD DUP2 PUSH20 0xFFFFFFFFFFFFFFFFFFFFFFFFFFFFFFFFFFFFFFFF MUL NOT AND SWAP1 DUP4 PUSH20 0xFFFFFFFFFFFFFFFFFFFFFFFFFFFFFFFFFFFFFFFF AND MUL OR SWAP1 SSTORE POP CALLVALUE PUSH1 0x1 PUSH1 0x5 ADD DUP2 SWAP1 SSTORE POP DUP2 PUSH1 0x1 PUSH1 0x6 ADD DUP2 SWAP1 SSTORE POP PUSH1 0x1 DUP1 PUSH1 0x7 ADD PUSH0 PUSH2 0x100 EXP DUP2 SLOAD DUP2 PUSH1 0xFF MUL NOT AND SWAP1 DUP4 ISZERO ISZERO MUL OR SWAP1 SSTORE POP PUSH32 0xDF8644C0A4C21ED214CE69F395675B3A5FCD1039083DAEA5058898DE40EA3149 CALLER CALLVALUE DUP5 PUSH1 0x40 MLOAD PUSH2 0x773 SWAP4 SWAP3 SWAP2 SWAP1 PUSH2 0x10DC JUMP JUMPDEST PUSH1 0x40 MLOAD DUP1 SWAP2 SUB SWAP1 LOG1 PUSH32 0xC358E8E3F205B5E7453ABD5CBAC388CA4552B887B69001BC972B88610C749035 CALLER CALLVALUE DUP5 PUSH1 0x40 MLOAD PUSH2 0x7AE SWAP4 SWAP3 SWAP2 SWAP1 PUSH2 0x10DC JUMP JUMPDEST PUSH1 0x40 MLOAD DUP1 SWAP2 SUB SWAP1 LOG1 PUSH0 PUSH0 SWAP1 SLOAD SWAP1 PUSH2 0x100 EXP SWAP1 DIV PUSH20 0xFFFFFFFFFFFFFFFFFFFFFFFFFFFFFFFFFFFFFFFF AND PUSH20 0xFFFFFFFFFFFFFFFFFFFFFFFFFFFFFFFFFFFFFFFF AND PUSH2 0x8FC CALLVALUE SWAP1 DUP2 ISZERO MUL SWAP1 PUSH1 0x40 MLOAD PUSH0 PUSH1 0x40 MLOAD DUP1 DUP4 SUB DUP2 DUP6 DUP9 DUP9 CALL SWAP4 POP POP POP POP ISZERO DUP1 ISZERO PUSH2 0x819 JUMPI RETURNDATASIZE PUSH0 PUSH0 RETURNDATACOPY RETURNDATASIZE PUSH0 REVERT JUMPDEST POP POP POP JUMP JUMPDEST PUSH0 PUSH0 PUSH0 PUSH0 PUSH0 PUSH0 PUSH0 PUSH0 PUSH0 PUSH1 0x1 PUSH1 0x40 MLOAD DUP1 PUSH2 0x100 ADD PUSH1 0x40 MSTORE SWAP1 DUP2 PUSH0 DUP3 ADD SLOAD DUP2 MSTORE PUSH1 0x20 ADD PUSH1 0x1 DUP3 ADD SLOAD DUP2 MSTORE PUSH1 0x20 ADD PUSH1 0x2 DUP3 ADD SLOAD DUP2 MSTORE PUSH1 0x20 ADD PUSH1 0x3 DUP3 ADD SLOAD DUP2 MSTORE PUSH1 0x20 ADD PUSH1 0x4 DUP3 ADD PUSH0 SWAP1 SLOAD SWAP1 PUSH2 0x100 EXP SWAP1 DIV PUSH20 0xFFFFFFFFFFFFFFFFFFFFFFFFFFFFFFFFFFFFFFFF AND PUSH20 0xFFFFFFFFFFFFFFFFFFFFFFFFFFFFFFFFFFFFFFFF AND PUSH20 0xFFFFFFFFFFFFFFFFFFFFFFFFFFFFFFFFFFFFFFFF AND DUP2 MSTORE PUSH1 0x20 ADD PUSH1 0x5 DUP3 ADD SLOAD DUP2 MSTORE PUSH1 0x20 ADD PUSH1 0x6 DUP3 ADD SLOAD DUP2 MSTORE PUSH1 0x20 ADD PUSH1 0x7 DUP3 ADD PUSH0 SWAP1 SLOAD SWAP1 PUSH2 0x100 EXP SWAP1 DIV PUSH1 0xFF AND ISZERO ISZERO ISZERO ISZERO DUP2 MSTORE POP POP SWAP1 POP DUP1 PUSH0 ADD MLOAD DUP2 PUSH1 0x20 ADD MLOAD DUP3 PUSH1 0x40 ADD MLOAD DUP4 PUSH1 0x60 ADD MLOAD DUP5 PUSH1 0x80 ADD MLOAD DUP6 PUSH1 0xA0 ADD MLOAD DUP7 PUSH1 0xC0 ADD MLOAD DUP8 PUSH1 0xE0 ADD MLOAD SWAP9 POP SWAP9 POP SWAP9 POP SWAP9 POP SWAP9 POP SWAP9 POP SWAP9 POP SWAP9 POP POP SWAP1 SWAP2 SWAP3 SWAP4 SWAP5 SWAP6 SWAP7 SWAP8 JUMP JUMPDEST PUSH0 PUSH1 0x1 PUSH1 0x2 ADD SLOAD TIMESTAMP GT ISZERO DUP1 PUSH2 0x93C JUMPI POP PUSH0 PUSH1 0x1 PUSH1 0x2 ADD SLOAD EQ JUMPDEST DUP1 PUSH2 0x955 JUMPI POP PUSH1 0x1 PUSH1 0x7 ADD PUSH0 SWAP1 SLOAD SWAP1 PUSH2 0x100 EXP SWAP1 DIV PUSH1 0xFF AND JUMPDEST ISZERO PUSH2 0x966 JUMPI PUSH1 0x1 PUSH0 ADD SLOAD SWAP1 POP PUSH2 0x9E4 JUMP JUMPDEST PUSH0 PUSH1 0x1 PUSH1 0x2 ADD SLOAD TIMESTAMP PUSH2 0x978 SWAP2 SWAP1 PUSH2 0x1111 JUMP JUMPDEST SWAP1 POP PUSH1 0x1 PUSH1 0x3 ADD SLOAD DUP2 LT PUSH2 0x993 JUMPI PUSH1 0x1 DUP1 ADD SLOAD SWAP2 POP POP PUSH2 0x9E4 JUMP JUMPDEST PUSH0 PUSH1 0x1 DUP1 ADD SLOAD PUSH1 0x1 PUSH0 ADD SLOAD PUSH2 0x9A8 SWAP2 SWAP1 PUSH2 0x1111 JUMP JUMPDEST SWAP1 POP PUSH0 PUSH1 0x1 PUSH1 0x3 ADD SLOAD DUP4 DUP4 PUSH2 0x9BD SWAP2 SWAP1 PUSH2 0x1144 JUMP JUMPDEST PUSH2 0x9C7 SWAP2 SWAP1 PUSH2 0x11B2 JUMP JUMPDEST SWAP1 POP PUSH0 DUP2 PUSH1 0x1 PUSH0 ADD SLOAD PUSH2 0x9DA SWAP2 SWAP1 PUSH2 0x1111 JUMP JUMPDEST SWAP1 POP DUP1 SWAP5 POP POP POP POP POP JUMPDEST SWAP1 JUMP JUMPDEST PUSH0 PUSH0 SWAP1 SLOAD SWAP1 PUSH2 0x100 EXP SWAP1 DIV PUSH20 0xFFFFFFFFFFFFFFFFFFFFFFFFFFFFFFFFFFFFFFFF AND PUSH20 0xFFFFFFFFFFFFFFFFFFFFFFFFFFFFFFFFFFFFFFFF AND CALLER PUSH20 0xFFFFFFFFFFFFFFFFFFFFFFFFFFFFFFFFFFFFFFFF AND EQ PUSH2 0xA75 JUMPI PUSH1 0x40 MLOAD PUSH32 0x8C379A000000000000000000000000000000000000000000000000000000000 DUP2 MSTORE PUSH1 0x4 ADD PUSH2 0xA6C SWAP1 PUSH2 0xDAB JUMP JUMPDEST PUSH1 0x40 MLOAD DUP1 SWAP2 SUB SWAP1 REVERT JUMPDEST PUSH1 0x1 PUSH1 0x7 ADD PUSH0 SWAP1 SLOAD SWAP1 PUSH2 0x100 EXP SWAP1 DIV PUSH1 0xFF AND ISZERO PUSH2 0xAC7 JUMPI PUSH1 0x40 MLOAD PUSH32 0x8C379A000000000000000000000000000000000000000000000000000000000 DUP2 MSTORE PUSH1 0x4 ADD PUSH2 0xABE SWAP1 PUSH2 0x1056 JUMP JUMPDEST PUSH1 0x40 MLOAD DUP1 SWAP2 SUB SWAP1 REVERT JUMPDEST PUSH1 0x1 DUP1 PUSH1 0x7 ADD PUSH0 PUSH2 0x100 EXP DUP2 SLOAD DUP2 PUSH1 0xFF MUL NOT AND SWAP1 DUP4 ISZERO ISZERO MUL OR SWAP1 SSTORE POP PUSH32 0xC358E8E3F205B5E7453ABD5CBAC388CA4552B887B69001BC972B88610C749035 PUSH0 PUSH0 PUSH0 PUSH1 0x40 MLOAD PUSH2 0xB16 SWAP4 SWAP3 SWAP2 SWAP1 PUSH2 0x1224 JUMP JUMPDEST PUSH1 0x40 MLOAD DUP1 SWAP2 SUB SWAP1 LOG1 JUMP JUMPDEST PUSH0 PUSH0 REVERT JUMPDEST PUSH0 PUSH20 0xFFFFFFFFFFFFFFFFFFFFFFFFFFFFFFFFFFFFFFFF DUP3 AND SWAP1 POP SWAP2 SWAP1 POP JUMP JUMPDEST PUSH0 PUSH2 0xB4D DUP3 PUSH2 0xB24 JUMP JUMPDEST SWAP1 POP SWAP2 SWAP1 POP JUMP JUMPDEST PUSH2 0xB5D DUP2 PUSH2 0xB43 JUMP JUMPDEST DUP2 EQ PUSH2 0xB67 JUMPI PUSH0 PUSH0 REVERT JUMPDEST POP JUMP JUMPDEST PUSH0 DUP2 CALLDATALOAD SWAP1 POP PUSH2 0xB78 DUP2 PUSH2 0xB54 JUMP JUMPDEST SWAP3 SWAP2 POP POP JUMP JUMPDEST PUSH0 PUSH1 0x20 DUP3 DUP5 SUB SLT ISZERO PUSH2 0xB93 JUMPI PUSH2 0xB92 PUSH2 0xB20 JUMP JUMPDEST JUMPDEST PUSH0 PUSH2 0xBA0 DUP5 DUP3 DUP6 ADD PUSH2 0xB6A JUMP JUMPDEST SWAP2 POP POP SWAP3 SWAP2 POP POP JUMP JUMPDEST PUSH0 DUP2 SWAP1 POP SWAP2 SWAP1 POP JUMP JUMPDEST PUSH2 0xBBB DUP2 PUSH2 0xBA9 JUMP JUMPDEST DUP3 MSTORE POP POP JUMP JUMPDEST PUSH2 0xBCA DUP2 PUSH2 0xB43 JUMP JUMPDEST DUP3 MSTORE POP POP JUMP JUMPDEST PUSH0 DUP2 ISZERO ISZERO SWAP1 POP SWAP2 SWAP1 POP JUMP JUMPDEST PUSH2 0xBE4 DUP2 PUSH2 0xBD0 JUMP JUMPDEST DUP3 MSTORE POP POP JUMP JUMPDEST PUSH0 PUSH2 0x100 DUP3 ADD SWAP1 POP PUSH2 0xBFE PUSH0 DUP4 ADD DUP12 PUSH2 0xBB2 JUMP JUMPDEST PUSH2 0xC0B PUSH1 0x20 DUP4 ADD DUP11 PUSH2 0xBB2 JUMP JUMPDEST PUSH2 0xC18 PUSH1 0x40 DUP4 ADD DUP10 PUSH2 0xBB2 JUMP JUMPDEST PUSH2 0xC25 PUSH1 0x60 DUP4 ADD DUP9 PUSH2 0xBB2 JUMP JUMPDEST PUSH2 0xC32 PUSH1 0x80 DUP4 ADD DUP8 PUSH2 0xBC1 JUMP JUMPDEST PUSH2 0xC3F PUSH1 0xA0 DUP4 ADD DUP7 PUSH2 0xBB2 JUMP JUMPDEST PUSH2 0xC4C PUSH1 0xC0 DUP4 ADD DUP6 PUSH2 0xBB2 JUMP JUMPDEST PUSH2 0xC59 PUSH1 0xE0 DUP4 ADD DUP5 PUSH2 0xBDB JUMP JUMPDEST SWAP10 SWAP9 POP POP POP POP POP POP POP POP POP JUMP JUMPDEST PUSH0 PUSH1 0x20 DUP3 ADD SWAP1 POP PUSH2 0xC79 PUSH0 DUP4 ADD DUP5 PUSH2 0xBC1 JUMP JUMPDEST SWAP3 SWAP2 POP POP JUMP JUMPDEST PUSH2 0xC88 DUP2 PUSH2 0xBA9 JUMP JUMPDEST DUP2 EQ PUSH2 0xC92 JUMPI PUSH0 PUSH0 REVERT JUMPDEST POP JUMP JUMPDEST PUSH0 DUP2 CALLDATALOAD SWAP1 POP PUSH2 0xCA3 DUP2 PUSH2 0xC7F JUMP JUMPDEST SWAP3 SWAP2 POP POP JUMP JUMPDEST PUSH0 PUSH0 PUSH0 PUSH0 PUSH1 0x80 DUP6 DUP8 SUB SLT ISZERO PUSH2 0xCC1 JUMPI PUSH2 0xCC0 PUSH2 0xB20 JUMP JUMPDEST JUMPDEST PUSH0 PUSH2 0xCCE DUP8 DUP3 DUP9 ADD PUSH2 0xC95 JUMP JUMPDEST SWAP5 POP POP PUSH1 0x20 PUSH2 0xCDF DUP8 DUP3 DUP9 ADD PUSH2 0xC95 JUMP JUMPDEST SWAP4 POP POP PUSH1 0x40 PUSH2 0xCF0 DUP8 DUP3 DUP9 ADD PUSH2 0xC95 JUMP JUMPDEST SWAP3 POP POP PUSH1 0x60 PUSH2 0xD01 DUP8 DUP3 DUP9 ADD PUSH2 0xC95 JUMP JUMPDEST SWAP2 POP POP SWAP3 SWAP6 SWAP2 SWAP5 POP SWAP3 POP JUMP JUMPDEST PUSH0 PUSH1 0x20 DUP3 DUP5 SUB SLT ISZERO PUSH2 0xD22 JUMPI PUSH2 0xD21 PUSH2 0xB20 JUMP JUMPDEST JUMPDEST PUSH0 PUSH2 0xD2F DUP5 DUP3 DUP6 ADD PUSH2 0xC95 JUMP JUMPDEST SWAP2 POP POP SWAP3 SWAP2 POP POP JUMP JUMPDEST PUSH0 PUSH1 0x20 DUP3 ADD SWAP1 POP PUSH2 0xD4B PUSH0 DUP4 ADD DUP5 PUSH2 0xBB2 JUMP JUMPDEST SWAP3 SWAP2 POP POP JUMP JUMPDEST PUSH0 DUP3 DUP3 MSTORE PUSH1 0x20 DUP3 ADD SWAP1 POP SWAP3 SWAP2 POP POP JUMP JUMPDEST PUSH32 0x4E6F7420746865206F70657261746F7200000000000000000000000000000000 PUSH0 DUP3 ADD MSTORE POP JUMP JUMPDEST PUSH0 PUSH2 0xD95 PUSH1 0x10 DUP4 PUSH2 0xD51 JUMP JUMPDEST SWAP2 POP PUSH2 0xDA0 DUP3 PUSH2 0xD61 JUMP JUMPDEST PUSH1 0x20 DUP3 ADD SWAP1 POP SWAP2 SWAP1 POP JUMP JUMPDEST PUSH0 PUSH1 0x20 DUP3 ADD SWAP1 POP DUP2 DUP2 SUB PUSH0 DUP4 ADD MSTORE PUSH2 0xDC2 DUP2 PUSH2 0xD89 JUMP JUMPDEST SWAP1 POP SWAP2 SWAP1 POP JUMP JUMPDEST PUSH32 0x496E76616C6964206F70657261746F7200000000000000000000000000000000 PUSH0 DUP3 ADD MSTORE POP JUMP JUMPDEST PUSH0 PUSH2 0xDFD PUSH1 0x10 DUP4 PUSH2 0xD51 JUMP JUMPDEST SWAP2 POP PUSH2 0xE08 DUP3 PUSH2 0xDC9 JUMP JUMPDEST PUSH1 0x20 DUP3 ADD SWAP1 POP SWAP2 SWAP1 POP JUMP JUMPDEST PUSH0 PUSH1 0x20 DUP3 ADD SWAP1 POP DUP2 DUP2 SUB PUSH0 DUP4 ADD MSTORE PUSH2 0xE2A DUP2 PUSH2 0xDF1 JUMP JUMPDEST SWAP1 POP SWAP2 SWAP1 POP JUMP JUMPDEST PUSH32 0x656E645072696365206D757374206265203C3D20737461727450726963650000 PUSH0 DUP3 ADD MSTORE POP JUMP JUMPDEST PUSH0 PUSH2 0xE65 PUSH1 0x1E DUP4 PUSH2 0xD51 JUMP JUMPDEST SWAP2 POP PUSH2 0xE70 DUP3 PUSH2 0xE31 JUMP JUMPDEST PUSH1 0x20 DUP3 ADD SWAP1 POP SWAP2 SWAP1 POP JUMP JUMPDEST PUSH0 PUSH1 0x20 DUP3 ADD SWAP1 POP DUP2 DUP2 SUB PUSH0 DUP4 ADD MSTORE PUSH2 0xE92 DUP2 PUSH2 0xE59 JUMP JUMPDEST SWAP1 POP SWAP2 SWAP1 POP JUMP JUMPDEST PUSH32 0x4475726174696F6E206D757374206265203E2030000000000000000000000000 PUSH0 DUP3 ADD MSTORE POP JUMP JUMPDEST PUSH0 PUSH2 0xECD PUSH1 0x14 DUP4 PUSH2 0xD51 JUMP JUMPDEST SWAP2 POP PUSH2 0xED8 DUP3 PUSH2 0xE99 JUMP JUMPDEST PUSH1 0x20 DUP3 ADD SWAP1 POP SWAP2 SWAP1 POP JUMP JUMPDEST PUSH0 PUSH1 0x20 DUP3 ADD SWAP1 POP DUP2 DUP2 SUB PUSH0 DUP4 ADD MSTORE PUSH2 0xEFA DUP2 PUSH2 0xEC1 JUMP JUMPDEST SWAP1 POP SWAP2 SWAP1 POP JUMP JUMPDEST PUSH0 PUSH1 0x80 DUP3 ADD SWAP1 POP PUSH2 0xF14 PUSH0 DUP4 ADD DUP8 PUSH2 0xBB2 JUMP JUMPDEST PUSH2 0xF21 PUSH1 0x20 DUP4 ADD DUP7 PUSH2 0xBB2 JUMP JUMPDEST PUSH2 0xF2E PUSH1 0x40 DUP4 ADD DUP6 PUSH2 0xBB2 JUMP JUMPDEST PUSH2 0xF3B PUSH1 0x60 DUP4 ADD DUP5 PUSH2 0xBB2 JUMP JUMPDEST SWAP6 SWAP5 POP POP POP POP POP JUMP JUMPDEST PUSH32 0x4E487B7100000000000000000000000000000000000000000000000000000000 PUSH0 MSTORE PUSH1 0x11 PUSH1 0x4 MSTORE PUSH1 0x24 PUSH0 REVERT JUMPDEST PUSH0 PUSH2 0xF7B DUP3 PUSH2 0xBA9 JUMP JUMPDEST SWAP2 POP PUSH2 0xF86 DUP4 PUSH2 0xBA9 JUMP JUMPDEST SWAP3 POP DUP3 DUP3 ADD SWAP1 POP DUP1 DUP3 GT ISZERO PUSH2 0xF9E JUMPI PUSH2 0xF9D PUSH2 0xF44 JUMP JUMPDEST JUMPDEST SWAP3 SWAP2 POP POP JUMP JUMPDEST PUSH32 0x41756374696F6E206E6F74206163746976650000000000000000000000000000 PUSH0 DUP3 ADD MSTORE POP JUMP JUMPDEST PUSH0 PUSH2 0xFD8 PUSH1 0x12 DUP4 PUSH2 0xD51 JUMP JUMPDEST SWAP2 POP PUSH2 0xFE3 DUP3 PUSH2 0xFA4 JUMP JUMPDEST PUSH1 0x20 DUP3 ADD SWAP1 POP SWAP2 SWAP1 POP JUMP JUMPDEST PUSH0 PUSH1 0x20 DUP3 ADD SWAP1 POP DUP2 DUP2 SUB PUSH0 DUP4 ADD MSTORE PUSH2 0x1005 DUP2 PUSH2 0xFCC JUMP JUMPDEST SWAP1 POP SWAP2 SWAP1 POP JUMP JUMPDEST PUSH32 0x41756374696F6E20616C726561647920656E6465640000000000000000000000 PUSH0 DUP3 ADD MSTORE POP JUMP JUMPDEST PUSH0 PUSH2 0x1040 PUSH1 0x15 DUP4 PUSH2 0xD51 JUMP JUMPDEST SWAP2 POP PUSH2 0x104B DUP3 PUSH2 0x100C JUMP JUMPDEST PUSH1 0x20 DUP3 ADD SWAP1 POP SWAP2 SWAP1 POP JUMP JUMPDEST PUSH0 PUSH1 0x20 DUP3 ADD SWAP1 POP DUP2 DUP2 SUB PUSH0 DUP4 ADD MSTORE PUSH2 0x106D DUP2 PUSH2 0x1034 JUMP JUMPDEST SWAP1 POP SWAP2 SWAP1 POP JUMP JUMPDEST PUSH32 0x426964206E6F74206869676820656E6F75676800000000000000000000000000 PUSH0 DUP3 ADD MSTORE POP JUMP JUMPDEST PUSH0 PUSH2 0x10A8 PUSH1 0x13 DUP4 PUSH2 0xD51 JUMP JUMPDEST SWAP2 POP PUSH2 0x10B3 DUP3 PUSH2 0x1074 JUMP JUMPDEST PUSH1 0x20 DUP3 ADD SWAP1 POP SWAP2 SWAP1 POP JUMP JUMPDEST PUSH0 PUSH1 0x20 DUP3 ADD SWAP1 POP DUP2 DUP2 SUB PUSH0 DUP4 ADD MSTORE PUSH2 0x10D5 DUP2 PUSH2 0x109C JUMP JUMPDEST SWAP1 POP SWAP2 SWAP1 POP JUMP JUMPDEST PUSH0 PUSH1 0x60 DUP3 ADD SWAP1 POP PUSH2 0x10EF PUSH0 DUP4 ADD DUP7 PUSH2 0xBC1 JUMP JUMPDEST PUSH2 0x10FC PUSH1 0x20 DUP4 ADD DUP6 PUSH2 0xBB2 JUMP JUMPDEST PUSH2 0x1109 PUSH1 0x40 DUP4 ADD DUP5 PUSH2 0xBB2 JUMP JUMPDEST SWAP5 SWAP4 POP POP POP POP JUMP JUMPDEST PUSH0 PUSH2 0x111B DUP3 PUSH2 0xBA9 JUMP JUMPDEST SWAP2 POP PUSH2 0x1126 DUP4 PUSH2 0xBA9 JUMP JUMPDEST SWAP3 POP DUP3 DUP3 SUB SWAP1 POP DUP2 DUP2 GT ISZERO PUSH2 0x113E JUMPI PUSH2 0x113D PUSH2 0xF44 JUMP JUMPDEST JUMPDEST SWAP3 SWAP2 POP POP JUMP JUMPDEST PUSH0 PUSH2 0x114E DUP3 PUSH2 0xBA9 JUMP JUMPDEST SWAP2 POP PUSH2 0x1159 DUP4 PUSH2 0xBA9 JUMP JUMPDEST SWAP3 POP DUP3 DUP3 MUL PUSH2 0x1167 DUP2 PUSH2 0xBA9 JUMP JUMPDEST SWAP2 POP DUP3 DUP3 DIV DUP5 EQ DUP4 ISZERO OR PUSH2 0x117E JUMPI PUSH2 0x117D PUSH2 0xF44 JUMP JUMPDEST JUMPDEST POP SWAP3 SWAP2 POP POP JUMP JUMPDEST PUSH32 0x4E487B7100000000000000000000000000000000000000000000000000000000 PUSH0 MSTORE PUSH1 0x12 PUSH1 0x4 MSTORE PUSH1 0x24 PUSH0 REVERT JUMPDEST PUSH0 PUSH2 0x11BC DUP3 PUSH2 0xBA9 JUMP JUMPDEST SWAP2 POP PUSH2 0x11C7 DUP4 PUSH2 0xBA9 JUMP JUMPDEST SWAP3 POP DUP3 PUSH2 0x11D7 JUMPI PUSH2 0x11D6 PUSH2 0x1185 JUMP JUMPDEST JUMPDEST DUP3 DUP3 DIV SWAP1 POP SWAP3 SWAP2 POP POP JUMP JUMPDEST PUSH0 DUP2 SWAP1 POP SWAP2 SWAP1 POP JUMP JUMPDEST PUSH0 DUP2 SWAP1 POP SWAP2 SWAP1 POP JUMP JUMPDEST PUSH0 PUSH2 0x120E PUSH2 0x1209 PUSH2 0x1204 DUP5 PUSH2 0x11E2 JUMP JUMPDEST PUSH2 0x11EB JUMP JUMPDEST PUSH2 0xBA9 JUMP JUMPDEST SWAP1 POP SWAP2 SWAP1 POP JUMP JUMPDEST PUSH2 0x121E DUP2 PUSH2 0x11F4 JUMP JUMPDEST DUP3 MSTORE POP POP JUMP JUMPDEST PUSH0 PUSH1 0x60 DUP3 ADD SWAP1 POP PUSH2 0x1237 PUSH0 DUP4 ADD DUP7 PUSH2 0xBC1 JUMP JUMPDEST PUSH2 0x1244 PUSH1 0x20 DUP4 ADD DUP6 PUSH2 0x1215 JUMP JUMPDEST PUSH2 0x1251 PUSH1 0x40 DUP4 ADD DUP5 PUSH2 0x1215 JUMP JUMPDEST SWAP5 SWAP4 POP POP POP POP JUMP INVALID LOG2 PUSH5 0x6970667358 0x22 SLT KECCAK256 PUSH29 0xF2B3998147DFF1718F1E3B5A6762AA167E9A333B39463DD23B2111C083 0xBA 0xB7 PUSH5 0x736F6C6343 STOP ADDMOD SHR STOP CALLER "
				},
				"gasEstimates": {
					"creation": {
						"codeDepositCost": "950200",
						"executionCost": "25250",
						"totalCost": "975450"
					},
					"external": {
						"changeOperator(address)": "26917",
						"currentAuction()": "infinite",
						"endAuction()": "infinite",
						"getAuctionInfo()": "infinite",
						"getCurrentPrice()": "infinite",
						"operator()": "2552",
						"placeBid(uint256)": "infinite",
						"startAuction(uint256,uint256,uint256,uint256)": "infinite"
					}
				},
				"methodIdentifiers": {
					"changeOperator(address)": "06394c9b",
					"currentAuction()": "496a698d",
					"endAuction()": "fe67a54b",
					"getAuctionInfo()": "d94a3505",
					"getCurrentPrice()": "eb91d37e",
					"operator()": "570ca735",
					"placeBid(uint256)": "9979ef45",
					"startAuction(uint256,uint256,uint256,uint256)": "8d2c4488"
				}
			},
			"storageLayout": {
				"storage": [
					{
						"astId": 30,
						"contract": "contracts/PlaceholderAdsMarketplace.sol:PlaceholderAdsMarketplace",
						"label": "operator",
						"offset": 0,
						"slot": "0",
						"type": "t_address"
					},
					{
						"astId": 50,
						"contract": "contracts/PlaceholderAdsMarketplace.sol:PlaceholderAdsMarketplace",
						"label": "currentAuction",
						"offset": 0,
						"slot": "1",
						"type": "t_struct(Auction)47_storage"
					}
				],
				"types": {
					"t_address": {
						"encoding": "inplace",
						"label": "address",
						"numberOfBytes": "20"
					},
					"t_bool": {
						"encoding": "inplace",
						"label": "bool",
						"numberOfBytes": "1"
					},
					"t_struct(Auction)47_storage": {
						"encoding": "inplace",
						"label": "struct PlaceholderAdsMarketplace.Auction",
						"members": [
							{
								"astId": 32,
								"contract": "contracts/PlaceholderAdsMarketplace.sol:PlaceholderAdsMarketplace",
								"label": "startPrice",
								"offset": 0,
								"slot": "0",
								"type": "t_uint256"
							},
							{
								"astId": 34,
								"contract": "contracts/PlaceholderAdsMarketplace.sol:PlaceholderAdsMarketplace",
								"label": "endPrice",
								"offset": 0,
								"slot": "1",
								"type": "t_uint256"
							},
							{
								"astId": 36,
								"contract": "contracts/PlaceholderAdsMarketplace.sol:PlaceholderAdsMarketplace",
								"label": "startTime",
								"offset": 0,
								"slot": "2",
								"type": "t_uint256"
							},
							{
								"astId": 38,
								"contract": "contracts/PlaceholderAdsMarketplace.sol:PlaceholderAdsMarketplace",
								"label": "duration",
								"offset": 0,
								"slot": "3",
								"type": "t_uint256"
							},
							{
								"astId": 40,
								"contract": "contracts/PlaceholderAdsMarketplace.sol:PlaceholderAdsMarketplace",
								"label": "winner",
								"offset": 0,
								"slot": "4",
								"type": "t_address"
							},
							{
								"astId": 42,
								"contract": "contracts/PlaceholderAdsMarketplace.sol:PlaceholderAdsMarketplace",
								"label": "winningBid",
								"offset": 0,
								"slot": "5",
								"type": "t_uint256"
							},
							{
								"astId": 44,
								"contract": "contracts/PlaceholderAdsMarketplace.sol:PlaceholderAdsMarketplace",
								"label": "winningTokenId",
								"offset": 0,
								"slot": "6",
								"type": "t_uint256"
							},
							{
								"astId": 46,
								"contract": "contracts/PlaceholderAdsMarketplace.sol:PlaceholderAdsMarketplace",
								"label": "ended",
								"offset": 0,
								"slot": "7",
								"type": "t_bool"
							}
						],
						"numberOfBytes": "256"
					},
					"t_uint256": {
						"encoding": "inplace",
						"label": "uint256",
						"numberOfBytes": "32"
					}
				}
			},
			"userdoc": {
				"kind": "user",
				"methods": {},
				"version": 1
			}
		}
	}
}