{
	"contracts/PlaceholderAdsMarketplace.sol": {
		"PlaceholderAdsMarketplace": {
			"abi": [
				{
					"inputs": [
						{
							"internalType": "address",
							"name": "_biddingToken",
							"type": "address"
						}
					],
					"stateMutability": "nonpayable",
					"type": "constructor"
				},
				{
					"anonymous": false,
					"inputs": [
						{
							"indexed": false,
							"internalType": "address",
							"name": "winner",
							"type": "address"
						},
						{
							"indexed": false,
							"internalType": "uint256",
							"name": "winningBid",
							"type": "uint256"
						},
						{
							"indexed": false,
							"internalType": "uint256",
							"name": "tokenId",
							"type": "uint256"
						}
					],
					"name": "AuctionEnded",
					"type": "event"
				},
				{
					"anonymous": false,
					"inputs": [
						{
							"indexed": false,
							"internalType": "uint256",
							"name": "startPrice",
							"type": "uint256"
						},
						{
							"indexed": false,
							"internalType": "uint256",
							"name": "endPrice",
							"type": "uint256"
						},
						{
							"indexed": false,
							"internalType": "uint256",
							"name": "startTime",
							"type": "uint256"
						},
						{
							"indexed": false,
							"internalType": "uint256",
							"name": "duration",
							"type": "uint256"
						}
					],
					"name": "AuctionStarted",
					"type": "event"
				},
				{
					"anonymous": false,
					"inputs": [
						{
							"indexed": false,
							"internalType": "address",
							"name": "bidder",
							"type": "address"
						},
						{
							"indexed": false,
							"internalType": "uint256",
							"name": "bidAmount",
							"type": "uint256"
						},
						{
							"indexed": false,
							"internalType": "uint256",
							"name": "tokenId",
							"type": "uint256"
						}
					],
					"name": "BidPlaced",
					"type": "event"
				},
				{
					"inputs": [],
					"name": "MINIMUM_BID_PERIOD",
					"outputs": [
						{
							"internalType": "uint256",
							"name": "",
							"type": "uint256"
						}
					],
					"stateMutability": "view",
					"type": "function"
				},
				{
					"inputs": [],
					"name": "biddingToken",
					"outputs": [
						{
							"internalType": "contract IERC20",
							"name": "",
							"type": "address"
						}
					],
					"stateMutability": "view",
					"type": "function"
				},
				{
					"inputs": [
						{
							"internalType": "address",
							"name": "_newOperator",
							"type": "address"
						}
					],
					"name": "changeOperator",
					"outputs": [],
					"stateMutability": "nonpayable",
					"type": "function"
				},
				{
					"inputs": [],
					"name": "currentAuction",
					"outputs": [
						{
							"internalType": "uint256",
							"name": "startPrice",
							"type": "uint256"
						},
						{
							"internalType": "uint256",
							"name": "endPrice",
							"type": "uint256"
						},
						{
							"internalType": "uint256",
							"name": "startTime",
							"type": "uint256"
						},
						{
							"internalType": "uint256",
							"name": "duration",
							"type": "uint256"
						},
						{
							"internalType": "address",
							"name": "winner",
							"type": "address"
						},
						{
							"internalType": "uint256",
							"name": "winningBid",
							"type": "uint256"
						},
						{
							"internalType": "uint256",
							"name": "winningTokenId",
							"type": "uint256"
						},
						{
							"internalType": "uint256",
							"name": "lastBidTime",
							"type": "uint256"
						},
						{
							"internalType": "bool",
							"name": "ended",
							"type": "bool"
						}
					],
					"stateMutability": "view",
					"type": "function"
				},
				{
					"inputs": [],
					"name": "getAuctionInfo",
					"outputs": [
						{
							"internalType": "uint256",
							"name": "startPrice",
							"type": "uint256"
						},
						{
							"internalType": "uint256",
							"name": "endPrice",
							"type": "uint256"
						},
						{
							"internalType": "uint256",
							"name": "startTime",
							"type": "uint256"
						},
						{
							"internalType": "uint256",
							"name": "duration",
							"type": "uint256"
						},
						{
							"internalType": "address",
							"name": "winner",
							"type": "address"
						},
						{
							"internalType": "uint256",
							"name": "winningBid",
							"type": "uint256"
						},
						{
							"internalType": "uint256",
							"name": "winningTokenId",
							"type": "uint256"
						},
						{
							"internalType": "bool",
							"name": "ended",
							"type": "bool"
						}
					],
					"stateMutability": "view",
					"type": "function"
				},
				{
					"inputs": [],
					"name": "getCurrentPrice",
					"outputs": [
						{
							"internalType": "uint256",
							"name": "",
							"type": "uint256"
						}
					],
					"stateMutability": "view",
					"type": "function"
				},
				{
					"inputs": [],
					"name": "operator",
					"outputs": [
						{
							"internalType": "address",
							"name": "",
							"type": "address"
						}
					],
					"stateMutability": "view",
					"type": "function"
				},
				{
					"inputs": [
						{
							"internalType": "uint256",
							"name": "_tokenId",
							"type": "uint256"
						},
						{
							"internalType": "uint256",
							"name": "_bidAmount",
							"type": "uint256"
						}
					],
					"name": "placeBid",
					"outputs": [],
					"stateMutability": "nonpayable",
					"type": "function"
				},
				{
					"inputs": [
						{
							"internalType": "uint256",
							"name": "_startPrice",
							"type": "uint256"
						},
						{
							"internalType": "uint256",
							"name": "_endPrice",
							"type": "uint256"
						}
					],
					"name": "startAuction",
					"outputs": [],
					"stateMutability": "nonpayable",
					"type": "function"
				}
			],
			"devdoc": {
				"kind": "dev",
				"methods": {},
				"version": 1
			},
			"evm": {
				"assembly": "    /* \"contracts/PlaceholderAdsMarketplace.sol\":178:7112  contract PlaceholderAdsMarketplace is ReentrancyGuard {... */\n  mstore(0x40, 0x80)\n    /* \"contracts/PlaceholderAdsMarketplace.sol\":1869:2059  constructor(address _biddingToken) {... */\n  callvalue\n  dup1\n  iszero\n  tag_1\n  jumpi\n  revert(0x00, 0x00)\ntag_1:\n  pop\n  mload(0x40)\n  sub(codesize, bytecodeSize)\n  dup1\n  bytecodeSize\n  dup4\n  codecopy\n  dup2\n  dup2\n  add\n  0x40\n  mstore\n  dup2\n  add\n  swap1\n  tag_2\n  swap2\n  swap1\n  tag_3\n  jump\t// in\ntag_2:\n    /* \"@openzeppelin/contracts/security/ReentrancyGuard.sol\":1716:1717  1 */\n  0x01\n    /* \"@openzeppelin/contracts/security/ReentrancyGuard.sol\":1821:1828  _status */\n  0x00\n    /* \"@openzeppelin/contracts/security/ReentrancyGuard.sol\":1821:1843  _status = _NOT_ENTERED */\n  dup2\n  swap1\n  sstore\n  pop\n    /* \"contracts/PlaceholderAdsMarketplace.sol\":1947:1948  0 */\n  0x00\n    /* \"contracts/PlaceholderAdsMarketplace.sol\":1922:1949  _biddingToken != address(0) */\n  0xffffffffffffffffffffffffffffffffffffffff\n  and\n    /* \"contracts/PlaceholderAdsMarketplace.sol\":1922:1935  _biddingToken */\n  dup2\n    /* \"contracts/PlaceholderAdsMarketplace.sol\":1922:1949  _biddingToken != address(0) */\n  0xffffffffffffffffffffffffffffffffffffffff\n  and\n  sub\n    /* \"contracts/PlaceholderAdsMarketplace.sol\":1914:1975  require(_biddingToken != address(0), \"Invalid token address\") */\n  tag_8\n  jumpi\n  mload(0x40)\n  0x08c379a000000000000000000000000000000000000000000000000000000000\n  dup2\n  mstore\n  0x04\n  add\n  tag_9\n  swap1\n  tag_10\n  jump\t// in\ntag_9:\n  mload(0x40)\n  dup1\n  swap2\n  sub\n  swap1\n  revert\ntag_8:\n    /* \"contracts/PlaceholderAdsMarketplace.sol\":1996:2006  msg.sender */\n  caller\n    /* \"contracts/PlaceholderAdsMarketplace.sol\":1985:1993  operator */\n  0x01\n  0x00\n    /* \"contracts/PlaceholderAdsMarketplace.sol\":1985:2006  operator = msg.sender */\n  0x0100\n  exp\n  dup2\n  sload\n  dup2\n  0xffffffffffffffffffffffffffffffffffffffff\n  mul\n  not\n  and\n  swap1\n  dup4\n  0xffffffffffffffffffffffffffffffffffffffff\n  and\n  mul\n  or\n  swap1\n  sstore\n  pop\n    /* \"contracts/PlaceholderAdsMarketplace.sol\":2038:2051  _biddingToken */\n  dup1\n    /* \"contracts/PlaceholderAdsMarketplace.sol\":2016:2028  biddingToken */\n  0x02\n  0x00\n    /* \"contracts/PlaceholderAdsMarketplace.sol\":2016:2052  biddingToken = IERC20(_biddingToken) */\n  0x0100\n  exp\n  dup2\n  sload\n  dup2\n  0xffffffffffffffffffffffffffffffffffffffff\n  mul\n  not\n  and\n  swap1\n  dup4\n  0xffffffffffffffffffffffffffffffffffffffff\n  and\n  mul\n  or\n  swap1\n  sstore\n  pop\n    /* \"contracts/PlaceholderAdsMarketplace.sol\":1869:2059  constructor(address _biddingToken) {... */\n  pop\n    /* \"contracts/PlaceholderAdsMarketplace.sol\":178:7112  contract PlaceholderAdsMarketplace is ReentrancyGuard {... */\n  jump(tag_11)\n    /* \"#utility.yul\":88:205   */\ntag_13:\n    /* \"#utility.yul\":197:198   */\n  0x00\n    /* \"#utility.yul\":194:195   */\n  0x00\n    /* \"#utility.yul\":187:199   */\n  revert\n    /* \"#utility.yul\":334:460   */\ntag_15:\n    /* \"#utility.yul\":371:378   */\n  0x00\n    /* \"#utility.yul\":411:453   */\n  0xffffffffffffffffffffffffffffffffffffffff\n    /* \"#utility.yul\":404:409   */\n  dup3\n    /* \"#utility.yul\":400:454   */\n  and\n    /* \"#utility.yul\":389:454   */\n  swap1\n  pop\n    /* \"#utility.yul\":334:460   */\n  swap2\n  swap1\n  pop\n  jump\t// out\n    /* \"#utility.yul\":466:562   */\ntag_16:\n    /* \"#utility.yul\":503:510   */\n  0x00\n    /* \"#utility.yul\":532:556   */\n  tag_28\n    /* \"#utility.yul\":550:555   */\n  dup3\n    /* \"#utility.yul\":532:556   */\n  tag_15\n  jump\t// in\ntag_28:\n    /* \"#utility.yul\":521:556   */\n  swap1\n  pop\n    /* \"#utility.yul\":466:562   */\n  swap2\n  swap1\n  pop\n  jump\t// out\n    /* \"#utility.yul\":568:690   */\ntag_17:\n    /* \"#utility.yul\":641:665   */\n  tag_30\n    /* \"#utility.yul\":659:664   */\n  dup2\n    /* \"#utility.yul\":641:665   */\n  tag_16\n  jump\t// in\ntag_30:\n    /* \"#utility.yul\":634:639   */\n  dup2\n    /* \"#utility.yul\":631:666   */\n  eq\n    /* \"#utility.yul\":621:684   */\n  tag_31\n  jumpi\n    /* \"#utility.yul\":680:681   */\n  0x00\n    /* \"#utility.yul\":677:678   */\n  0x00\n    /* \"#utility.yul\":670:682   */\n  revert\n    /* \"#utility.yul\":621:684   */\ntag_31:\n    /* \"#utility.yul\":568:690   */\n  pop\n  jump\t// out\n    /* \"#utility.yul\":696:839   */\ntag_18:\n    /* \"#utility.yul\":753:758   */\n  0x00\n    /* \"#utility.yul\":784:790   */\n  dup2\n    /* \"#utility.yul\":778:791   */\n  mload\n    /* \"#utility.yul\":769:791   */\n  swap1\n  pop\n    /* \"#utility.yul\":800:833   */\n  tag_33\n    /* \"#utility.yul\":827:832   */\n  dup2\n    /* \"#utility.yul\":800:833   */\n  tag_17\n  jump\t// in\ntag_33:\n    /* \"#utility.yul\":696:839   */\n  swap3\n  swap2\n  pop\n  pop\n  jump\t// out\n    /* \"#utility.yul\":845:1196   */\ntag_3:\n    /* \"#utility.yul\":915:921   */\n  0x00\n    /* \"#utility.yul\":964:966   */\n  0x20\n    /* \"#utility.yul\":952:961   */\n  dup3\n    /* \"#utility.yul\":943:950   */\n  dup5\n    /* \"#utility.yul\":939:962   */\n  sub\n    /* \"#utility.yul\":935:967   */\n  slt\n    /* \"#utility.yul\":932:1051   */\n  iszero\n  tag_35\n  jumpi\n    /* \"#utility.yul\":970:1049   */\n  tag_36\n  tag_13\n  jump\t// in\ntag_36:\n    /* \"#utility.yul\":932:1051   */\ntag_35:\n    /* \"#utility.yul\":1090:1091   */\n  0x00\n    /* \"#utility.yul\":1115:1179   */\n  tag_37\n    /* \"#utility.yul\":1171:1178   */\n  dup5\n    /* \"#utility.yul\":1162:1168   */\n  dup3\n    /* \"#utility.yul\":1151:1160   */\n  dup6\n    /* \"#utility.yul\":1147:1169   */\n  add\n    /* \"#utility.yul\":1115:1179   */\n  tag_18\n  jump\t// in\ntag_37:\n    /* \"#utility.yul\":1105:1179   */\n  swap2\n  pop\n    /* \"#utility.yul\":1061:1189   */\n  pop\n    /* \"#utility.yul\":845:1196   */\n  swap3\n  swap2\n  pop\n  pop\n  jump\t// out\n    /* \"#utility.yul\":1202:1371   */\ntag_19:\n    /* \"#utility.yul\":1286:1297   */\n  0x00\n    /* \"#utility.yul\":1320:1326   */\n  dup3\n    /* \"#utility.yul\":1315:1318   */\n  dup3\n    /* \"#utility.yul\":1308:1327   */\n  mstore\n    /* \"#utility.yul\":1360:1364   */\n  0x20\n    /* \"#utility.yul\":1355:1358   */\n  dup3\n    /* \"#utility.yul\":1351:1365   */\n  add\n    /* \"#utility.yul\":1336:1365   */\n  swap1\n  pop\n    /* \"#utility.yul\":1202:1371   */\n  swap3\n  swap2\n  pop\n  pop\n  jump\t// out\n    /* \"#utility.yul\":1377:1548   */\ntag_20:\n    /* \"#utility.yul\":1517:1540   */\n  0x496e76616c696420746f6b656e20616464726573730000000000000000000000\n    /* \"#utility.yul\":1513:1514   */\n  0x00\n    /* \"#utility.yul\":1505:1511   */\n  dup3\n    /* \"#utility.yul\":1501:1515   */\n  add\n    /* \"#utility.yul\":1494:1541   */\n  mstore\n    /* \"#utility.yul\":1377:1548   */\n  pop\n  jump\t// out\n    /* \"#utility.yul\":1554:1920   */\ntag_21:\n    /* \"#utility.yul\":1696:1699   */\n  0x00\n    /* \"#utility.yul\":1717:1784   */\n  tag_41\n    /* \"#utility.yul\":1781:1783   */\n  0x15\n    /* \"#utility.yul\":1776:1779   */\n  dup4\n    /* \"#utility.yul\":1717:1784   */\n  tag_19\n  jump\t// in\ntag_41:\n    /* \"#utility.yul\":1710:1784   */\n  swap2\n  pop\n    /* \"#utility.yul\":1793:1886   */\n  tag_42\n    /* \"#utility.yul\":1882:1885   */\n  dup3\n    /* \"#utility.yul\":1793:1886   */\n  tag_20\n  jump\t// in\ntag_42:\n    /* \"#utility.yul\":1911:1913   */\n  0x20\n    /* \"#utility.yul\":1906:1909   */\n  dup3\n    /* \"#utility.yul\":1902:1914   */\n  add\n    /* \"#utility.yul\":1895:1914   */\n  swap1\n  pop\n    /* \"#utility.yul\":1554:1920   */\n  swap2\n  swap1\n  pop\n  jump\t// out\n    /* \"#utility.yul\":1926:2345   */\ntag_10:\n    /* \"#utility.yul\":2092:2096   */\n  0x00\n    /* \"#utility.yul\":2130:2132   */\n  0x20\n    /* \"#utility.yul\":2119:2128   */\n  dup3\n    /* \"#utility.yul\":2115:2133   */\n  add\n    /* \"#utility.yul\":2107:2133   */\n  swap1\n  pop\n    /* \"#utility.yul\":2179:2188   */\n  dup2\n    /* \"#utility.yul\":2173:2177   */\n  dup2\n    /* \"#utility.yul\":2169:2189   */\n  sub\n    /* \"#utility.yul\":2165:2166   */\n  0x00\n    /* \"#utility.yul\":2154:2163   */\n  dup4\n    /* \"#utility.yul\":2150:2167   */\n  add\n    /* \"#utility.yul\":2143:2190   */\n  mstore\n    /* \"#utility.yul\":2207:2338   */\n  tag_44\n    /* \"#utility.yul\":2333:2337   */\n  dup2\n    /* \"#utility.yul\":2207:2338   */\n  tag_21\n  jump\t// in\ntag_44:\n    /* \"#utility.yul\":2199:2338   */\n  swap1\n  pop\n    /* \"#utility.yul\":1926:2345   */\n  swap2\n  swap1\n  pop\n  jump\t// out\n    /* \"contracts/PlaceholderAdsMarketplace.sol\":178:7112  contract PlaceholderAdsMarketplace is ReentrancyGuard {... */\ntag_11:\n  dataSize(sub_0)\n  dup1\n  dataOffset(sub_0)\n  0x00\n  codecopy\n  0x00\n  return\nstop\n\nsub_0: assembly {\n        /* \"contracts/PlaceholderAdsMarketplace.sol\":178:7112  contract PlaceholderAdsMarketplace is ReentrancyGuard {... */\n      mstore(0x40, 0x80)\n      callvalue\n      dup1\n      iszero\n      tag_1\n      jumpi\n      revert(0x00, 0x00)\n    tag_1:\n      pop\n      jumpi(tag_2, lt(calldatasize, 0x04))\n      shr(0xe0, calldataload(0x00))\n      dup1\n      0x570ca735\n      gt\n      tag_12\n      jumpi\n      dup1\n      0x570ca735\n      eq\n      tag_7\n      jumpi\n      dup1\n      0x57c90de5\n      eq\n      tag_8\n      jumpi\n      dup1\n      0x639d7566\n      eq\n      tag_9\n      jumpi\n      dup1\n      0xd94a3505\n      eq\n      tag_10\n      jumpi\n      dup1\n      0xeb91d37e\n      eq\n      tag_11\n      jumpi\n      jump(tag_2)\n    tag_12:\n      dup1\n      0x06394c9b\n      eq\n      tag_3\n      jumpi\n      dup1\n      0x37a35344\n      eq\n      tag_4\n      jumpi\n      dup1\n      0x496a698d\n      eq\n      tag_5\n      jumpi\n      dup1\n      0x4fee13fc\n      eq\n      tag_6\n      jumpi\n    tag_2:\n      revert(0x00, 0x00)\n        /* \"contracts/PlaceholderAdsMarketplace.sol\":6937:7110  function changeOperator(address _newOperator) external onlyOperator {... */\n    tag_3:\n      tag_13\n      0x04\n      dup1\n      calldatasize\n      sub\n      dup2\n      add\n      swap1\n      tag_14\n      swap2\n      swap1\n      tag_15\n      jump\t// in\n    tag_14:\n      tag_16\n      jump\t// in\n    tag_13:\n      stop\n        /* \"contracts/PlaceholderAdsMarketplace.sol\":838:893  uint256 public constant MINIMUM_BID_PERIOD = 20 seconds */\n    tag_4:\n      tag_17\n      tag_18\n      jump\t// in\n    tag_17:\n      mload(0x40)\n      tag_19\n      swap2\n      swap1\n      tag_20\n      jump\t// in\n    tag_19:\n      mload(0x40)\n      dup1\n      swap2\n      sub\n      swap1\n      return\n        /* \"contracts/PlaceholderAdsMarketplace.sol\":1167:1196  Auction public currentAuction */\n    tag_5:\n      tag_21\n      tag_22\n      jump\t// in\n    tag_21:\n      mload(0x40)\n      tag_23\n      swap10\n      swap9\n      swap8\n      swap7\n      swap6\n      swap5\n      swap4\n      swap3\n      swap2\n      swap1\n      tag_24\n      jump\t// in\n    tag_23:\n      mload(0x40)\n      dup1\n      swap2\n      sub\n      swap1\n      return\n        /* \"contracts/PlaceholderAdsMarketplace.sol\":2178:2961  function startAuction(uint256 _startPrice, uint256 _endPrice)... */\n    tag_6:\n      tag_25\n      0x04\n      dup1\n      calldatasize\n      sub\n      dup2\n      add\n      swap1\n      tag_26\n      swap2\n      swap1\n      tag_27\n      jump\t// in\n    tag_26:\n      tag_28\n      jump\t// in\n    tag_25:\n      stop\n        /* \"contracts/PlaceholderAdsMarketplace.sol\":741:764  address public operator */\n    tag_7:\n      tag_29\n      tag_30\n      jump\t// in\n    tag_29:\n      mload(0x40)\n      tag_31\n      swap2\n      swap1\n      tag_32\n      jump\t// in\n    tag_31:\n      mload(0x40)\n      dup1\n      swap2\n      sub\n      swap1\n      return\n        /* \"contracts/PlaceholderAdsMarketplace.sol\":3840:6197  function placeBid(uint256 _tokenId, uint256 _bidAmount)... */\n    tag_8:\n      tag_33\n      0x04\n      dup1\n      calldatasize\n      sub\n      dup2\n      add\n      swap1\n      tag_34\n      swap2\n      swap1\n      tag_27\n      jump\t// in\n    tag_34:\n      tag_35\n      jump\t// in\n    tag_33:\n      stop\n        /* \"contracts/PlaceholderAdsMarketplace.sol\":770:796  IERC20 public biddingToken */\n    tag_9:\n      tag_36\n      tag_37\n      jump\t// in\n    tag_36:\n      mload(0x40)\n      tag_38\n      swap2\n      swap1\n      tag_39\n      jump\t// in\n    tag_38:\n      mload(0x40)\n      dup1\n      swap2\n      sub\n      swap1\n      return\n        /* \"contracts/PlaceholderAdsMarketplace.sol\":6326:6931  function getAuctionInfo()... */\n    tag_10:\n      tag_40\n      tag_41\n      jump\t// in\n    tag_40:\n      mload(0x40)\n      tag_42\n      swap9\n      swap8\n      swap7\n      swap6\n      swap5\n      swap4\n      swap3\n      swap2\n      swap1\n      tag_43\n      jump\t// in\n    tag_42:\n      mload(0x40)\n      dup1\n      swap2\n      sub\n      swap1\n      return\n        /* \"contracts/PlaceholderAdsMarketplace.sol\":2967:3834  function getCurrentPrice() public view returns (uint256) {... */\n    tag_11:\n      tag_44\n      tag_45\n      jump\t// in\n    tag_44:\n      mload(0x40)\n      tag_46\n      swap2\n      swap1\n      tag_20\n      jump\t// in\n    tag_46:\n      mload(0x40)\n      dup1\n      swap2\n      sub\n      swap1\n      return\n        /* \"contracts/PlaceholderAdsMarketplace.sol\":6937:7110  function changeOperator(address _newOperator) external onlyOperator {... */\n    tag_16:\n        /* \"contracts/PlaceholderAdsMarketplace.sol\":1368:1376  operator */\n      0x01\n      0x00\n      swap1\n      sload\n      swap1\n      0x0100\n      exp\n      swap1\n      div\n      0xffffffffffffffffffffffffffffffffffffffff\n      and\n        /* \"contracts/PlaceholderAdsMarketplace.sol\":1354:1376  msg.sender == operator */\n      0xffffffffffffffffffffffffffffffffffffffff\n      and\n        /* \"contracts/PlaceholderAdsMarketplace.sol\":1354:1364  msg.sender */\n      caller\n        /* \"contracts/PlaceholderAdsMarketplace.sol\":1354:1376  msg.sender == operator */\n      0xffffffffffffffffffffffffffffffffffffffff\n      and\n      eq\n        /* \"contracts/PlaceholderAdsMarketplace.sol\":1346:1397  require(msg.sender == operator, \"Not the operator\") */\n      tag_48\n      jumpi\n      mload(0x40)\n      0x08c379a000000000000000000000000000000000000000000000000000000000\n      dup2\n      mstore\n      0x04\n      add\n      tag_49\n      swap1\n      tag_50\n      jump\t// in\n    tag_49:\n      mload(0x40)\n      dup1\n      swap2\n      sub\n      swap1\n      revert\n    tag_48:\n        /* \"contracts/PlaceholderAdsMarketplace.sol\":7047:7048  0 */\n      0x00\n        /* \"contracts/PlaceholderAdsMarketplace.sol\":7023:7049  _newOperator != address(0) */\n      0xffffffffffffffffffffffffffffffffffffffff\n      and\n        /* \"contracts/PlaceholderAdsMarketplace.sol\":7023:7035  _newOperator */\n      dup2\n        /* \"contracts/PlaceholderAdsMarketplace.sol\":7023:7049  _newOperator != address(0) */\n      0xffffffffffffffffffffffffffffffffffffffff\n      and\n      sub\n        /* \"contracts/PlaceholderAdsMarketplace.sol\":7015:7070  require(_newOperator != address(0), \"Invalid operator\") */\n      tag_52\n      jumpi\n      mload(0x40)\n      0x08c379a000000000000000000000000000000000000000000000000000000000\n      dup2\n      mstore\n      0x04\n      add\n      tag_53\n      swap1\n      tag_54\n      jump\t// in\n    tag_53:\n      mload(0x40)\n      dup1\n      swap2\n      sub\n      swap1\n      revert\n    tag_52:\n        /* \"contracts/PlaceholderAdsMarketplace.sol\":7091:7103  _newOperator */\n      dup1\n        /* \"contracts/PlaceholderAdsMarketplace.sol\":7080:7088  operator */\n      0x01\n      0x00\n        /* \"contracts/PlaceholderAdsMarketplace.sol\":7080:7103  operator = _newOperator */\n      0x0100\n      exp\n      dup2\n      sload\n      dup2\n      0xffffffffffffffffffffffffffffffffffffffff\n      mul\n      not\n      and\n      swap1\n      dup4\n      0xffffffffffffffffffffffffffffffffffffffff\n      and\n      mul\n      or\n      swap1\n      sstore\n      pop\n        /* \"contracts/PlaceholderAdsMarketplace.sol\":6937:7110  function changeOperator(address _newOperator) external onlyOperator {... */\n      pop\n      jump\t// out\n        /* \"contracts/PlaceholderAdsMarketplace.sol\":838:893  uint256 public constant MINIMUM_BID_PERIOD = 20 seconds */\n    tag_18:\n        /* \"contracts/PlaceholderAdsMarketplace.sol\":883:893  20 seconds */\n      0x14\n        /* \"contracts/PlaceholderAdsMarketplace.sol\":838:893  uint256 public constant MINIMUM_BID_PERIOD = 20 seconds */\n      dup2\n      jump\t// out\n        /* \"contracts/PlaceholderAdsMarketplace.sol\":1167:1196  Auction public currentAuction */\n    tag_22:\n      0x03\n      dup1\n      0x00\n      add\n      sload\n      swap1\n      dup1\n      0x01\n      add\n      sload\n      swap1\n      dup1\n      0x02\n      add\n      sload\n      swap1\n      dup1\n      0x03\n      add\n      sload\n      swap1\n      dup1\n      0x04\n      add\n      0x00\n      swap1\n      sload\n      swap1\n      0x0100\n      exp\n      swap1\n      div\n      0xffffffffffffffffffffffffffffffffffffffff\n      and\n      swap1\n      dup1\n      0x05\n      add\n      sload\n      swap1\n      dup1\n      0x06\n      add\n      sload\n      swap1\n      dup1\n      0x07\n      add\n      sload\n      swap1\n      dup1\n      0x08\n      add\n      0x00\n      swap1\n      sload\n      swap1\n      0x0100\n      exp\n      swap1\n      div\n      0xff\n      and\n      swap1\n      pop\n      dup10\n      jump\t// out\n        /* \"contracts/PlaceholderAdsMarketplace.sol\":2178:2961  function startAuction(uint256 _startPrice, uint256 _endPrice)... */\n    tag_28:\n        /* \"contracts/PlaceholderAdsMarketplace.sol\":1368:1376  operator */\n      0x01\n      0x00\n      swap1\n      sload\n      swap1\n      0x0100\n      exp\n      swap1\n      div\n      0xffffffffffffffffffffffffffffffffffffffff\n      and\n        /* \"contracts/PlaceholderAdsMarketplace.sol\":1354:1376  msg.sender == operator */\n      0xffffffffffffffffffffffffffffffffffffffff\n      and\n        /* \"contracts/PlaceholderAdsMarketplace.sol\":1354:1364  msg.sender */\n      caller\n        /* \"contracts/PlaceholderAdsMarketplace.sol\":1354:1376  msg.sender == operator */\n      0xffffffffffffffffffffffffffffffffffffffff\n      and\n      eq\n        /* \"contracts/PlaceholderAdsMarketplace.sol\":1346:1397  require(msg.sender == operator, \"Not the operator\") */\n      tag_56\n      jumpi\n      mload(0x40)\n      0x08c379a000000000000000000000000000000000000000000000000000000000\n      dup2\n      mstore\n      0x04\n      add\n      tag_57\n      swap1\n      tag_50\n      jump\t// in\n    tag_57:\n      mload(0x40)\n      dup1\n      swap2\n      sub\n      swap1\n      revert\n    tag_56:\n        /* \"contracts/PlaceholderAdsMarketplace.sol\":2314:2315  0 */\n      0x00\n        /* \"contracts/PlaceholderAdsMarketplace.sol\":2300:2311  _startPrice */\n      dup3\n        /* \"contracts/PlaceholderAdsMarketplace.sol\":2300:2315  _startPrice > 0 */\n      gt\n        /* \"contracts/PlaceholderAdsMarketplace.sol\":2292:2354  require(_startPrice > 0, \"Start price must be greater than 0\") */\n      tag_59\n      jumpi\n      mload(0x40)\n      0x08c379a000000000000000000000000000000000000000000000000000000000\n      dup2\n      mstore\n      0x04\n      add\n      tag_60\n      swap1\n      tag_61\n      jump\t// in\n    tag_60:\n      mload(0x40)\n      dup1\n      swap2\n      sub\n      swap1\n      revert\n    tag_59:\n        /* \"contracts/PlaceholderAdsMarketplace.sol\":2394:2405  _startPrice */\n      dup2\n        /* \"contracts/PlaceholderAdsMarketplace.sol\":2381:2390  _endPrice */\n      dup2\n        /* \"contracts/PlaceholderAdsMarketplace.sol\":2381:2405  _endPrice <= _startPrice */\n      gt\n      iszero\n        /* \"contracts/PlaceholderAdsMarketplace.sol\":2373:2442  require(_endPrice <= _startPrice, \"End price must be <= start price\") */\n      tag_62\n      jumpi\n      mload(0x40)\n      0x08c379a000000000000000000000000000000000000000000000000000000000\n      dup2\n      mstore\n      0x04\n      add\n      tag_63\n      swap1\n      tag_64\n      jump\t// in\n    tag_63:\n      mload(0x40)\n      dup1\n      swap2\n      sub\n      swap1\n      revert\n    tag_62:\n        /* \"contracts/PlaceholderAdsMarketplace.sol\":2452:2469  uint256 startTime */\n      0x00\n        /* \"contracts/PlaceholderAdsMarketplace.sol\":2472:2487  block.timestamp */\n      timestamp\n        /* \"contracts/PlaceholderAdsMarketplace.sol\":2452:2487  uint256 startTime = block.timestamp */\n      swap1\n      pop\n        /* \"contracts/PlaceholderAdsMarketplace.sol\":2497:2513  uint256 duration */\n      0x00\n        /* \"contracts/PlaceholderAdsMarketplace.sol\":2516:2525  3 minutes */\n      0xb4\n        /* \"contracts/PlaceholderAdsMarketplace.sol\":2497:2525  uint256 duration = 3 minutes */\n      swap1\n      pop\n        /* \"contracts/PlaceholderAdsMarketplace.sol\":2580:2879  Auction({... */\n      mload(0x40)\n      dup1\n      0x0120\n      add\n      0x40\n      mstore\n      dup1\n        /* \"contracts/PlaceholderAdsMarketplace.sol\":2614:2625  _startPrice */\n      dup6\n        /* \"contracts/PlaceholderAdsMarketplace.sol\":2580:2879  Auction({... */\n      dup2\n      mstore\n      0x20\n      add\n        /* \"contracts/PlaceholderAdsMarketplace.sol\":2649:2658  _endPrice */\n      dup5\n        /* \"contracts/PlaceholderAdsMarketplace.sol\":2580:2879  Auction({... */\n      dup2\n      mstore\n      0x20\n      add\n        /* \"contracts/PlaceholderAdsMarketplace.sol\":2683:2692  startTime */\n      dup4\n        /* \"contracts/PlaceholderAdsMarketplace.sol\":2580:2879  Auction({... */\n      dup2\n      mstore\n      0x20\n      add\n        /* \"contracts/PlaceholderAdsMarketplace.sol\":2716:2724  duration */\n      dup3\n        /* \"contracts/PlaceholderAdsMarketplace.sol\":2580:2879  Auction({... */\n      dup2\n      mstore\n      0x20\n      add\n        /* \"contracts/PlaceholderAdsMarketplace.sol\":2754:2755  0 */\n      0x00\n        /* \"contracts/PlaceholderAdsMarketplace.sol\":2580:2879  Auction({... */\n      0xffffffffffffffffffffffffffffffffffffffff\n      and\n      dup2\n      mstore\n      0x20\n      add\n        /* \"contracts/PlaceholderAdsMarketplace.sol\":2782:2783  0 */\n      0x00\n        /* \"contracts/PlaceholderAdsMarketplace.sol\":2580:2879  Auction({... */\n      dup2\n      mstore\n      0x20\n      add\n        /* \"contracts/PlaceholderAdsMarketplace.sol\":2813:2814  0 */\n      0x00\n        /* \"contracts/PlaceholderAdsMarketplace.sol\":2580:2879  Auction({... */\n      dup2\n      mstore\n      0x20\n      add\n        /* \"contracts/PlaceholderAdsMarketplace.sol\":2841:2842  0 */\n      0x00\n        /* \"contracts/PlaceholderAdsMarketplace.sol\":2580:2879  Auction({... */\n      dup2\n      mstore\n      0x20\n      add\n        /* \"contracts/PlaceholderAdsMarketplace.sol\":2863:2868  false */\n      0x00\n        /* \"contracts/PlaceholderAdsMarketplace.sol\":2580:2879  Auction({... */\n      iszero\n      iszero\n      dup2\n      mstore\n      pop\n        /* \"contracts/PlaceholderAdsMarketplace.sol\":2563:2577  currentAuction */\n      0x03\n        /* \"contracts/PlaceholderAdsMarketplace.sol\":2563:2879  currentAuction = Auction({... */\n      0x00\n      dup3\n      add\n      mload\n      dup2\n      0x00\n      add\n      sstore\n      0x20\n      dup3\n      add\n      mload\n      dup2\n      0x01\n      add\n      sstore\n      0x40\n      dup3\n      add\n      mload\n      dup2\n      0x02\n      add\n      sstore\n      0x60\n      dup3\n      add\n      mload\n      dup2\n      0x03\n      add\n      sstore\n      0x80\n      dup3\n      add\n      mload\n      dup2\n      0x04\n      add\n      exp(0x0100, 0x00)\n      dup2\n      sload\n      dup2\n      0xffffffffffffffffffffffffffffffffffffffff\n      mul\n      not\n      and\n      swap1\n      dup4\n      0xffffffffffffffffffffffffffffffffffffffff\n      and\n      mul\n      or\n      swap1\n      sstore\n      pop\n      0xa0\n      dup3\n      add\n      mload\n      dup2\n      0x05\n      add\n      sstore\n      0xc0\n      dup3\n      add\n      mload\n      dup2\n      0x06\n      add\n      sstore\n      0xe0\n      dup3\n      add\n      mload\n      dup2\n      0x07\n      add\n      sstore\n      0x0100\n      dup3\n      add\n      mload\n      dup2\n      0x08\n      add\n      exp(0x0100, 0x00)\n      dup2\n      sload\n      dup2\n      0xff\n      mul\n      not\n      and\n      swap1\n      dup4\n      iszero\n      iszero\n      mul\n      or\n      swap1\n      sstore\n      pop\n      swap1\n      pop\n      pop\n        /* \"contracts/PlaceholderAdsMarketplace.sol\":2895:2954  AuctionStarted(_startPrice, _endPrice, startTime, duration) */\n      0xa832766a05f1bd0298b0268308621777cfe1e4eea23afe7c06beea79bc6ddd2d\n        /* \"contracts/PlaceholderAdsMarketplace.sol\":2910:2921  _startPrice */\n      dup5\n        /* \"contracts/PlaceholderAdsMarketplace.sol\":2923:2932  _endPrice */\n      dup5\n        /* \"contracts/PlaceholderAdsMarketplace.sol\":2934:2943  startTime */\n      dup5\n        /* \"contracts/PlaceholderAdsMarketplace.sol\":2945:2953  duration */\n      dup5\n        /* \"contracts/PlaceholderAdsMarketplace.sol\":2895:2954  AuctionStarted(_startPrice, _endPrice, startTime, duration) */\n      mload(0x40)\n      tag_65\n      swap5\n      swap4\n      swap3\n      swap2\n      swap1\n      tag_66\n      jump\t// in\n    tag_65:\n      mload(0x40)\n      dup1\n      swap2\n      sub\n      swap1\n      log1\n        /* \"contracts/PlaceholderAdsMarketplace.sol\":2282:2961  {... */\n      pop\n      pop\n        /* \"contracts/PlaceholderAdsMarketplace.sol\":2178:2961  function startAuction(uint256 _startPrice, uint256 _endPrice)... */\n      pop\n      pop\n      jump\t// out\n        /* \"contracts/PlaceholderAdsMarketplace.sol\":741:764  address public operator */\n    tag_30:\n      0x01\n      0x00\n      swap1\n      sload\n      swap1\n      0x0100\n      exp\n      swap1\n      div\n      0xffffffffffffffffffffffffffffffffffffffff\n      and\n      dup2\n      jump\t// out\n        /* \"contracts/PlaceholderAdsMarketplace.sol\":3840:6197  function placeBid(uint256 _tokenId, uint256 _bidAmount)... */\n    tag_35:\n        /* \"@openzeppelin/contracts/security/ReentrancyGuard.sol\":2261:2282  _nonReentrantBefore() */\n      tag_68\n        /* \"@openzeppelin/contracts/security/ReentrancyGuard.sol\":2261:2280  _nonReentrantBefore */\n      tag_69\n        /* \"@openzeppelin/contracts/security/ReentrancyGuard.sol\":2261:2282  _nonReentrantBefore() */\n      jump\t// in\n    tag_68:\n        /* \"contracts/PlaceholderAdsMarketplace.sol\":1496:1510  currentAuction */\n      0x03\n        /* \"contracts/PlaceholderAdsMarketplace.sol\":1496:1520  currentAuction.startTime */\n      0x02\n      add\n      sload\n        /* \"contracts/PlaceholderAdsMarketplace.sol\":1477:1492  block.timestamp */\n      timestamp\n        /* \"contracts/PlaceholderAdsMarketplace.sol\":1477:1520  block.timestamp >= currentAuction.startTime */\n      lt\n      iszero\n        /* \"contracts/PlaceholderAdsMarketplace.sol\":1477:1625  block.timestamp >= currentAuction.startTime &&... */\n      dup1\n      iszero\n      tag_71\n      jumpi\n      pop\n        /* \"contracts/PlaceholderAdsMarketplace.sol\":1602:1616  currentAuction */\n      0x03\n        /* \"contracts/PlaceholderAdsMarketplace.sol\":1602:1625  currentAuction.duration */\n      dup1\n      add\n      sload\n        /* \"contracts/PlaceholderAdsMarketplace.sol\":1575:1589  currentAuction */\n      0x03\n        /* \"contracts/PlaceholderAdsMarketplace.sol\":1575:1599  currentAuction.startTime */\n      0x02\n      add\n      sload\n        /* \"contracts/PlaceholderAdsMarketplace.sol\":1575:1625  currentAuction.startTime + currentAuction.duration */\n      tag_72\n      swap2\n      swap1\n      tag_73\n      jump\t// in\n    tag_72:\n        /* \"contracts/PlaceholderAdsMarketplace.sol\":1540:1555  block.timestamp */\n      timestamp\n        /* \"contracts/PlaceholderAdsMarketplace.sol\":1540:1625  block.timestamp <=... */\n      gt\n      iszero\n        /* \"contracts/PlaceholderAdsMarketplace.sol\":1477:1625  block.timestamp >= currentAuction.startTime &&... */\n    tag_71:\n        /* \"contracts/PlaceholderAdsMarketplace.sol\":1456:1669  require(... */\n      tag_74\n      jumpi\n      mload(0x40)\n      0x08c379a000000000000000000000000000000000000000000000000000000000\n      dup2\n      mstore\n      0x04\n      add\n      tag_75\n      swap1\n      tag_76\n      jump\t// in\n    tag_75:\n      mload(0x40)\n      dup1\n      swap2\n      sub\n      swap1\n      revert\n    tag_74:\n        /* \"contracts/PlaceholderAdsMarketplace.sol\":1688:1702  currentAuction */\n      0x03\n        /* \"contracts/PlaceholderAdsMarketplace.sol\":1688:1708  currentAuction.ended */\n      0x08\n      add\n      0x00\n      swap1\n      sload\n      swap1\n      0x0100\n      exp\n      swap1\n      div\n      0xff\n      and\n        /* \"contracts/PlaceholderAdsMarketplace.sol\":1687:1708  !currentAuction.ended */\n      iszero\n        /* \"contracts/PlaceholderAdsMarketplace.sol\":1679:1734  require(!currentAuction.ended, \"Auction already ended\") */\n      tag_77\n      jumpi\n      mload(0x40)\n      0x08c379a000000000000000000000000000000000000000000000000000000000\n      dup2\n      mstore\n      0x04\n      add\n      tag_78\n      swap1\n      tag_79\n      jump\t// in\n    tag_78:\n      mload(0x40)\n      dup1\n      swap2\n      sub\n      swap1\n      revert\n    tag_77:\n        /* \"contracts/PlaceholderAdsMarketplace.sol\":3970:3990  uint256 currentPrice */\n      0x00\n        /* \"contracts/PlaceholderAdsMarketplace.sol\":3993:4010  getCurrentPrice() */\n      tag_81\n        /* \"contracts/PlaceholderAdsMarketplace.sol\":3993:4008  getCurrentPrice */\n      tag_45\n        /* \"contracts/PlaceholderAdsMarketplace.sol\":3993:4010  getCurrentPrice() */\n      jump\t// in\n    tag_81:\n        /* \"contracts/PlaceholderAdsMarketplace.sol\":3970:4010  uint256 currentPrice = getCurrentPrice() */\n      swap1\n      pop\n        /* \"contracts/PlaceholderAdsMarketplace.sol\":4042:4054  currentPrice */\n      dup1\n        /* \"contracts/PlaceholderAdsMarketplace.sol\":4028:4038  _bidAmount */\n      dup3\n        /* \"contracts/PlaceholderAdsMarketplace.sol\":4028:4054  _bidAmount >= currentPrice */\n      lt\n      iszero\n        /* \"contracts/PlaceholderAdsMarketplace.sol\":4020:4082  require(_bidAmount >= currentPrice, \"Bid below current price\") */\n      tag_82\n      jumpi\n      mload(0x40)\n      0x08c379a000000000000000000000000000000000000000000000000000000000\n      dup2\n      mstore\n      0x04\n      add\n      tag_83\n      swap1\n      tag_84\n      jump\t// in\n    tag_83:\n      mload(0x40)\n      dup1\n      swap2\n      sub\n      swap1\n      revert\n    tag_82:\n        /* \"contracts/PlaceholderAdsMarketplace.sol\":4113:4114  0 */\n      0x00\n        /* \"contracts/PlaceholderAdsMarketplace.sol\":4100:4110  _bidAmount */\n      dup3\n        /* \"contracts/PlaceholderAdsMarketplace.sol\":4100:4114  _bidAmount > 0 */\n      gt\n        /* \"contracts/PlaceholderAdsMarketplace.sol\":4092:4152  require(_bidAmount > 0, \"Bid amount must be greater than 0\") */\n      tag_85\n      jumpi\n      mload(0x40)\n      0x08c379a000000000000000000000000000000000000000000000000000000000\n      dup2\n      mstore\n      0x04\n      add\n      tag_86\n      swap1\n      tag_87\n      jump\t// in\n    tag_86:\n      mload(0x40)\n      dup1\n      swap2\n      sub\n      swap1\n      revert\n    tag_85:\n        /* \"contracts/PlaceholderAdsMarketplace.sol\":4243:4257  currentAuction */\n      0x03\n        /* \"contracts/PlaceholderAdsMarketplace.sol\":4243:4268  currentAuction.startPrice */\n      0x00\n      add\n      sload\n        /* \"contracts/PlaceholderAdsMarketplace.sol\":4229:4239  _bidAmount */\n      dup3\n        /* \"contracts/PlaceholderAdsMarketplace.sol\":4229:4268  _bidAmount >= currentAuction.startPrice */\n      lt\n        /* \"contracts/PlaceholderAdsMarketplace.sol\":4225:5077  if (_bidAmount >= currentAuction.startPrice) {... */\n      tag_88\n      jumpi\n        /* \"contracts/PlaceholderAdsMarketplace.sol\":4362:4372  _bidAmount */\n      dup2\n        /* \"contracts/PlaceholderAdsMarketplace.sol\":4309:4321  biddingToken */\n      0x02\n      0x00\n      swap1\n      sload\n      swap1\n      0x0100\n      exp\n      swap1\n      div\n      0xffffffffffffffffffffffffffffffffffffffff\n      and\n        /* \"contracts/PlaceholderAdsMarketplace.sol\":4309:4331  biddingToken.allowance */\n      0xffffffffffffffffffffffffffffffffffffffff\n      and\n      0xdd62ed3e\n        /* \"contracts/PlaceholderAdsMarketplace.sol\":4332:4342  msg.sender */\n      caller\n        /* \"contracts/PlaceholderAdsMarketplace.sol\":4352:4356  this */\n      address\n        /* \"contracts/PlaceholderAdsMarketplace.sol\":4309:4358  biddingToken.allowance(msg.sender, address(this)) */\n      mload(0x40)\n      dup4\n      0xffffffff\n      and\n      0xe0\n      shl\n      dup2\n      mstore\n      0x04\n      add\n      tag_89\n      swap3\n      swap2\n      swap1\n      tag_90\n      jump\t// in\n    tag_89:\n      0x20\n      mload(0x40)\n      dup1\n      dup4\n      sub\n      dup2\n      dup7\n      gas\n      staticcall\n      iszero\n      dup1\n      iszero\n      tag_92\n      jumpi\n      returndatacopy(0x00, 0x00, returndatasize)\n      revert(0x00, returndatasize)\n    tag_92:\n      pop\n      pop\n      pop\n      pop\n      mload(0x40)\n      returndatasize\n      not(0x1f)\n      0x1f\n      dup3\n      add\n      and\n      dup3\n      add\n      dup1\n      0x40\n      mstore\n      pop\n      dup2\n      add\n      swap1\n      tag_93\n      swap2\n      swap1\n      tag_94\n      jump\t// in\n    tag_93:\n        /* \"contracts/PlaceholderAdsMarketplace.sol\":4309:4372  biddingToken.allowance(msg.sender, address(this)) >= _bidAmount */\n      lt\n      iszero\n        /* \"contracts/PlaceholderAdsMarketplace.sol\":4284:4428  require(... */\n      tag_95\n      jumpi\n      mload(0x40)\n      0x08c379a000000000000000000000000000000000000000000000000000000000\n      dup2\n      mstore\n      0x04\n      add\n      tag_96\n      swap1\n      tag_97\n      jump\t// in\n    tag_96:\n      mload(0x40)\n      dup1\n      swap2\n      sub\n      swap1\n      revert\n    tag_95:\n        /* \"contracts/PlaceholderAdsMarketplace.sol\":4505:4515  _bidAmount */\n      dup2\n        /* \"contracts/PlaceholderAdsMarketplace.sol\":4467:4479  biddingToken */\n      0x02\n      0x00\n      swap1\n      sload\n      swap1\n      0x0100\n      exp\n      swap1\n      div\n      0xffffffffffffffffffffffffffffffffffffffff\n      and\n        /* \"contracts/PlaceholderAdsMarketplace.sol\":4467:4489  biddingToken.balanceOf */\n      0xffffffffffffffffffffffffffffffffffffffff\n      and\n      0x70a08231\n        /* \"contracts/PlaceholderAdsMarketplace.sol\":4490:4500  msg.sender */\n      caller\n        /* \"contracts/PlaceholderAdsMarketplace.sol\":4467:4501  biddingToken.balanceOf(msg.sender) */\n      mload(0x40)\n      dup3\n      0xffffffff\n      and\n      0xe0\n      shl\n      dup2\n      mstore\n      0x04\n      add\n      tag_98\n      swap2\n      swap1\n      tag_32\n      jump\t// in\n    tag_98:\n      0x20\n      mload(0x40)\n      dup1\n      dup4\n      sub\n      dup2\n      dup7\n      gas\n      staticcall\n      iszero\n      dup1\n      iszero\n      tag_100\n      jumpi\n      returndatacopy(0x00, 0x00, returndatasize)\n      revert(0x00, returndatasize)\n    tag_100:\n      pop\n      pop\n      pop\n      pop\n      mload(0x40)\n      returndatasize\n      not(0x1f)\n      0x1f\n      dup3\n      add\n      and\n      dup3\n      add\n      dup1\n      0x40\n      mstore\n      pop\n      dup2\n      add\n      swap1\n      tag_101\n      swap2\n      swap1\n      tag_94\n      jump\t// in\n    tag_101:\n        /* \"contracts/PlaceholderAdsMarketplace.sol\":4467:4515  biddingToken.balanceOf(msg.sender) >= _bidAmount */\n      lt\n      iszero\n        /* \"contracts/PlaceholderAdsMarketplace.sol\":4442:4569  require(... */\n      tag_102\n      jumpi\n      mload(0x40)\n      0x08c379a000000000000000000000000000000000000000000000000000000000\n      dup2\n      mstore\n      0x04\n      add\n      tag_103\n      swap1\n      tag_104\n      jump\t// in\n    tag_103:\n      mload(0x40)\n      dup1\n      swap2\n      sub\n      swap1\n      revert\n    tag_102:\n        /* \"contracts/PlaceholderAdsMarketplace.sol\":4608:4620  biddingToken */\n      0x02\n      0x00\n      swap1\n      sload\n      swap1\n      0x0100\n      exp\n      swap1\n      div\n      0xffffffffffffffffffffffffffffffffffffffff\n      and\n        /* \"contracts/PlaceholderAdsMarketplace.sol\":4608:4633  biddingToken.transferFrom */\n      0xffffffffffffffffffffffffffffffffffffffff\n      and\n      0x23b872dd\n        /* \"contracts/PlaceholderAdsMarketplace.sol\":4634:4644  msg.sender */\n      caller\n        /* \"contracts/PlaceholderAdsMarketplace.sol\":4646:4654  operator */\n      0x01\n      0x00\n      swap1\n      sload\n      swap1\n      0x0100\n      exp\n      swap1\n      div\n      0xffffffffffffffffffffffffffffffffffffffff\n      and\n        /* \"contracts/PlaceholderAdsMarketplace.sol\":4656:4666  _bidAmount */\n      dup6\n        /* \"contracts/PlaceholderAdsMarketplace.sol\":4608:4667  biddingToken.transferFrom(msg.sender, operator, _bidAmount) */\n      mload(0x40)\n      dup5\n      0xffffffff\n      and\n      0xe0\n      shl\n      dup2\n      mstore\n      0x04\n      add\n      tag_105\n      swap4\n      swap3\n      swap2\n      swap1\n      tag_106\n      jump\t// in\n    tag_105:\n      0x20\n      mload(0x40)\n      dup1\n      dup4\n      sub\n      dup2\n      0x00\n      dup8\n      gas\n      call\n      iszero\n      dup1\n      iszero\n      tag_108\n      jumpi\n      returndatacopy(0x00, 0x00, returndatasize)\n      revert(0x00, returndatasize)\n    tag_108:\n      pop\n      pop\n      pop\n      pop\n      mload(0x40)\n      returndatasize\n      not(0x1f)\n      0x1f\n      dup3\n      add\n      and\n      dup3\n      add\n      dup1\n      0x40\n      mstore\n      pop\n      dup2\n      add\n      swap1\n      tag_109\n      swap2\n      swap1\n      tag_110\n      jump\t// in\n    tag_109:\n        /* \"contracts/PlaceholderAdsMarketplace.sol\":4583:4722  require(... */\n      tag_111\n      jumpi\n      mload(0x40)\n      0x08c379a000000000000000000000000000000000000000000000000000000000\n      dup2\n      mstore\n      0x04\n      add\n      tag_112\n      swap1\n      tag_113\n      jump\t// in\n    tag_112:\n      mload(0x40)\n      dup1\n      swap2\n      sub\n      swap1\n      revert\n    tag_111:\n        /* \"contracts/PlaceholderAdsMarketplace.sol\":4761:4771  msg.sender */\n      caller\n        /* \"contracts/PlaceholderAdsMarketplace.sol\":4737:4751  currentAuction */\n      0x03\n        /* \"contracts/PlaceholderAdsMarketplace.sol\":4737:4758  currentAuction.winner */\n      0x04\n      add\n      0x00\n        /* \"contracts/PlaceholderAdsMarketplace.sol\":4737:4771  currentAuction.winner = msg.sender */\n      0x0100\n      exp\n      dup2\n      sload\n      dup2\n      0xffffffffffffffffffffffffffffffffffffffff\n      mul\n      not\n      and\n      swap1\n      dup4\n      0xffffffffffffffffffffffffffffffffffffffff\n      and\n      mul\n      or\n      swap1\n      sstore\n      pop\n        /* \"contracts/PlaceholderAdsMarketplace.sol\":4813:4823  _bidAmount */\n      dup2\n        /* \"contracts/PlaceholderAdsMarketplace.sol\":4785:4799  currentAuction */\n      0x03\n        /* \"contracts/PlaceholderAdsMarketplace.sol\":4785:4810  currentAuction.winningBid */\n      0x05\n      add\n        /* \"contracts/PlaceholderAdsMarketplace.sol\":4785:4823  currentAuction.winningBid = _bidAmount */\n      dup2\n      swap1\n      sstore\n      pop\n        /* \"contracts/PlaceholderAdsMarketplace.sol\":4869:4877  _tokenId */\n      dup3\n        /* \"contracts/PlaceholderAdsMarketplace.sol\":4837:4851  currentAuction */\n      0x03\n        /* \"contracts/PlaceholderAdsMarketplace.sol\":4837:4866  currentAuction.winningTokenId */\n      0x06\n      add\n        /* \"contracts/PlaceholderAdsMarketplace.sol\":4837:4877  currentAuction.winningTokenId = _tokenId */\n      dup2\n      swap1\n      sstore\n      pop\n        /* \"contracts/PlaceholderAdsMarketplace.sol\":4914:4918  true */\n      0x01\n        /* \"contracts/PlaceholderAdsMarketplace.sol\":4891:4905  currentAuction */\n      0x03\n        /* \"contracts/PlaceholderAdsMarketplace.sol\":4891:4911  currentAuction.ended */\n      0x08\n      add\n      0x00\n        /* \"contracts/PlaceholderAdsMarketplace.sol\":4891:4918  currentAuction.ended = true */\n      0x0100\n      exp\n      dup2\n      sload\n      dup2\n      0xff\n      mul\n      not\n      and\n      swap1\n      dup4\n      iszero\n      iszero\n      mul\n      or\n      swap1\n      sstore\n      pop\n        /* \"contracts/PlaceholderAdsMarketplace.sol\":4938:4981  BidPlaced(msg.sender, _bidAmount, _tokenId) */\n      0xdf8644c0a4c21ed214ce69f395675b3a5fcd1039083daea5058898de40ea3149\n        /* \"contracts/PlaceholderAdsMarketplace.sol\":4948:4958  msg.sender */\n      caller\n        /* \"contracts/PlaceholderAdsMarketplace.sol\":4960:4970  _bidAmount */\n      dup4\n        /* \"contracts/PlaceholderAdsMarketplace.sol\":4972:4980  _tokenId */\n      dup6\n        /* \"contracts/PlaceholderAdsMarketplace.sol\":4938:4981  BidPlaced(msg.sender, _bidAmount, _tokenId) */\n      mload(0x40)\n      tag_114\n      swap4\n      swap3\n      swap2\n      swap1\n      tag_115\n      jump\t// in\n    tag_114:\n      mload(0x40)\n      dup1\n      swap2\n      sub\n      swap1\n      log1\n        /* \"contracts/PlaceholderAdsMarketplace.sol\":5000:5046  AuctionEnded(msg.sender, _bidAmount, _tokenId) */\n      0xc358e8e3f205b5e7453abd5cbac388ca4552b887b69001bc972b88610c749035\n        /* \"contracts/PlaceholderAdsMarketplace.sol\":5013:5023  msg.sender */\n      caller\n        /* \"contracts/PlaceholderAdsMarketplace.sol\":5025:5035  _bidAmount */\n      dup4\n        /* \"contracts/PlaceholderAdsMarketplace.sol\":5037:5045  _tokenId */\n      dup6\n        /* \"contracts/PlaceholderAdsMarketplace.sol\":5000:5046  AuctionEnded(msg.sender, _bidAmount, _tokenId) */\n      mload(0x40)\n      tag_116\n      swap4\n      swap3\n      swap2\n      swap1\n      tag_115\n      jump\t// in\n    tag_116:\n      mload(0x40)\n      dup1\n      swap2\n      sub\n      swap1\n      log1\n        /* \"contracts/PlaceholderAdsMarketplace.sol\":5060:5067  return; */\n      pop\n      jump(tag_80)\n        /* \"contracts/PlaceholderAdsMarketplace.sol\":4225:5077  if (_bidAmount >= currentAuction.startPrice) {... */\n    tag_88:\n        /* \"contracts/PlaceholderAdsMarketplace.sol\":5184:5185  0 */\n      0x00\n        /* \"contracts/PlaceholderAdsMarketplace.sol\":5156:5170  currentAuction */\n      0x03\n        /* \"contracts/PlaceholderAdsMarketplace.sol\":5156:5181  currentAuction.winningBid */\n      0x05\n      add\n      sload\n        /* \"contracts/PlaceholderAdsMarketplace.sol\":5156:5185  currentAuction.winningBid > 0 */\n      gt\n        /* \"contracts/PlaceholderAdsMarketplace.sol\":5152:5530  if (currentAuction.winningBid > 0) {... */\n      iszero\n      tag_117\n      jumpi\n        /* \"contracts/PlaceholderAdsMarketplace.sol\":5239:5253  currentAuction */\n      0x03\n        /* \"contracts/PlaceholderAdsMarketplace.sol\":5239:5264  currentAuction.winningBid */\n      0x05\n      add\n      sload\n        /* \"contracts/PlaceholderAdsMarketplace.sol\":5226:5236  _bidAmount */\n      dup3\n        /* \"contracts/PlaceholderAdsMarketplace.sol\":5226:5264  _bidAmount > currentAuction.winningBid */\n      gt\n        /* \"contracts/PlaceholderAdsMarketplace.sol\":5201:5330  require(... */\n      tag_118\n      jumpi\n      mload(0x40)\n      0x08c379a000000000000000000000000000000000000000000000000000000000\n      dup2\n      mstore\n      0x04\n      add\n      tag_119\n      swap1\n      tag_120\n      jump\t// in\n    tag_119:\n      mload(0x40)\n      dup1\n      swap2\n      sub\n      swap1\n      revert\n    tag_118:\n        /* \"contracts/PlaceholderAdsMarketplace.sol\":883:893  20 seconds */\n      0x14\n        /* \"contracts/PlaceholderAdsMarketplace.sol\":5408:5422  currentAuction */\n      0x03\n        /* \"contracts/PlaceholderAdsMarketplace.sol\":5408:5434  currentAuction.lastBidTime */\n      0x07\n      add\n      sload\n        /* \"contracts/PlaceholderAdsMarketplace.sol\":5408:5455  currentAuction.lastBidTime + MINIMUM_BID_PERIOD */\n      tag_121\n      swap2\n      swap1\n      tag_73\n      jump\t// in\n    tag_121:\n        /* \"contracts/PlaceholderAdsMarketplace.sol\":5369:5384  block.timestamp */\n      timestamp\n        /* \"contracts/PlaceholderAdsMarketplace.sol\":5369:5455  block.timestamp >=... */\n      lt\n      iszero\n        /* \"contracts/PlaceholderAdsMarketplace.sol\":5344:5519  require(... */\n      tag_122\n      jumpi\n      mload(0x40)\n      0x08c379a000000000000000000000000000000000000000000000000000000000\n      dup2\n      mstore\n      0x04\n      add\n      tag_123\n      swap1\n      tag_124\n      jump\t// in\n    tag_123:\n      mload(0x40)\n      dup1\n      swap2\n      sub\n      swap1\n      revert\n    tag_122:\n        /* \"contracts/PlaceholderAdsMarketplace.sol\":5152:5530  if (currentAuction.winningBid > 0) {... */\n    tag_117:\n        /* \"contracts/PlaceholderAdsMarketplace.sol\":5614:5624  _bidAmount */\n      dup2\n        /* \"contracts/PlaceholderAdsMarketplace.sol\":5561:5573  biddingToken */\n      0x02\n      0x00\n      swap1\n      sload\n      swap1\n      0x0100\n      exp\n      swap1\n      div\n      0xffffffffffffffffffffffffffffffffffffffff\n      and\n        /* \"contracts/PlaceholderAdsMarketplace.sol\":5561:5583  biddingToken.allowance */\n      0xffffffffffffffffffffffffffffffffffffffff\n      and\n      0xdd62ed3e\n        /* \"contracts/PlaceholderAdsMarketplace.sol\":5584:5594  msg.sender */\n      caller\n        /* \"contracts/PlaceholderAdsMarketplace.sol\":5604:5608  this */\n      address\n        /* \"contracts/PlaceholderAdsMarketplace.sol\":5561:5610  biddingToken.allowance(msg.sender, address(this)) */\n      mload(0x40)\n      dup4\n      0xffffffff\n      and\n      0xe0\n      shl\n      dup2\n      mstore\n      0x04\n      add\n      tag_125\n      swap3\n      swap2\n      swap1\n      tag_90\n      jump\t// in\n    tag_125:\n      0x20\n      mload(0x40)\n      dup1\n      dup4\n      sub\n      dup2\n      dup7\n      gas\n      staticcall\n      iszero\n      dup1\n      iszero\n      tag_127\n      jumpi\n      returndatacopy(0x00, 0x00, returndatasize)\n      revert(0x00, returndatasize)\n    tag_127:\n      pop\n      pop\n      pop\n      pop\n      mload(0x40)\n      returndatasize\n      not(0x1f)\n      0x1f\n      dup3\n      add\n      and\n      dup3\n      add\n      dup1\n      0x40\n      mstore\n      pop\n      dup2\n      add\n      swap1\n      tag_128\n      swap2\n      swap1\n      tag_94\n      jump\t// in\n    tag_128:\n        /* \"contracts/PlaceholderAdsMarketplace.sol\":5561:5624  biddingToken.allowance(msg.sender, address(this)) >= _bidAmount */\n      lt\n      iszero\n        /* \"contracts/PlaceholderAdsMarketplace.sol\":5540:5672  require(... */\n      tag_129\n      jumpi\n      mload(0x40)\n      0x08c379a000000000000000000000000000000000000000000000000000000000\n      dup2\n      mstore\n      0x04\n      add\n      tag_130\n      swap1\n      tag_97\n      jump\t// in\n    tag_130:\n      mload(0x40)\n      dup1\n      swap2\n      sub\n      swap1\n      revert\n    tag_129:\n        /* \"contracts/PlaceholderAdsMarketplace.sol\":5741:5751  _bidAmount */\n      dup2\n        /* \"contracts/PlaceholderAdsMarketplace.sol\":5703:5715  biddingToken */\n      0x02\n      0x00\n      swap1\n      sload\n      swap1\n      0x0100\n      exp\n      swap1\n      div\n      0xffffffffffffffffffffffffffffffffffffffff\n      and\n        /* \"contracts/PlaceholderAdsMarketplace.sol\":5703:5725  biddingToken.balanceOf */\n      0xffffffffffffffffffffffffffffffffffffffff\n      and\n      0x70a08231\n        /* \"contracts/PlaceholderAdsMarketplace.sol\":5726:5736  msg.sender */\n      caller\n        /* \"contracts/PlaceholderAdsMarketplace.sol\":5703:5737  biddingToken.balanceOf(msg.sender) */\n      mload(0x40)\n      dup3\n      0xffffffff\n      and\n      0xe0\n      shl\n      dup2\n      mstore\n      0x04\n      add\n      tag_131\n      swap2\n      swap1\n      tag_32\n      jump\t// in\n    tag_131:\n      0x20\n      mload(0x40)\n      dup1\n      dup4\n      sub\n      dup2\n      dup7\n      gas\n      staticcall\n      iszero\n      dup1\n      iszero\n      tag_133\n      jumpi\n      returndatacopy(0x00, 0x00, returndatasize)\n      revert(0x00, returndatasize)\n    tag_133:\n      pop\n      pop\n      pop\n      pop\n      mload(0x40)\n      returndatasize\n      not(0x1f)\n      0x1f\n      dup3\n      add\n      and\n      dup3\n      add\n      dup1\n      0x40\n      mstore\n      pop\n      dup2\n      add\n      swap1\n      tag_134\n      swap2\n      swap1\n      tag_94\n      jump\t// in\n    tag_134:\n        /* \"contracts/PlaceholderAdsMarketplace.sol\":5703:5751  biddingToken.balanceOf(msg.sender) >= _bidAmount */\n      lt\n      iszero\n        /* \"contracts/PlaceholderAdsMarketplace.sol\":5682:5797  require(... */\n      tag_135\n      jumpi\n      mload(0x40)\n      0x08c379a000000000000000000000000000000000000000000000000000000000\n      dup2\n      mstore\n      0x04\n      add\n      tag_136\n      swap1\n      tag_104\n      jump\t// in\n    tag_136:\n      mload(0x40)\n      dup1\n      swap2\n      sub\n      swap1\n      revert\n    tag_135:\n        /* \"contracts/PlaceholderAdsMarketplace.sol\":5828:5840  biddingToken */\n      0x02\n      0x00\n      swap1\n      sload\n      swap1\n      0x0100\n      exp\n      swap1\n      div\n      0xffffffffffffffffffffffffffffffffffffffff\n      and\n        /* \"contracts/PlaceholderAdsMarketplace.sol\":5828:5853  biddingToken.transferFrom */\n      0xffffffffffffffffffffffffffffffffffffffff\n      and\n      0x23b872dd\n        /* \"contracts/PlaceholderAdsMarketplace.sol\":5854:5864  msg.sender */\n      caller\n        /* \"contracts/PlaceholderAdsMarketplace.sol\":5866:5874  operator */\n      0x01\n      0x00\n      swap1\n      sload\n      swap1\n      0x0100\n      exp\n      swap1\n      div\n      0xffffffffffffffffffffffffffffffffffffffff\n      and\n        /* \"contracts/PlaceholderAdsMarketplace.sol\":5876:5886  _bidAmount */\n      dup6\n        /* \"contracts/PlaceholderAdsMarketplace.sol\":5828:5887  biddingToken.transferFrom(msg.sender, operator, _bidAmount) */\n      mload(0x40)\n      dup5\n      0xffffffff\n      and\n      0xe0\n      shl\n      dup2\n      mstore\n      0x04\n      add\n      tag_137\n      swap4\n      swap3\n      swap2\n      swap1\n      tag_106\n      jump\t// in\n    tag_137:\n      0x20\n      mload(0x40)\n      dup1\n      dup4\n      sub\n      dup2\n      0x00\n      dup8\n      gas\n      call\n      iszero\n      dup1\n      iszero\n      tag_139\n      jumpi\n      returndatacopy(0x00, 0x00, returndatasize)\n      revert(0x00, returndatasize)\n    tag_139:\n      pop\n      pop\n      pop\n      pop\n      mload(0x40)\n      returndatasize\n      not(0x1f)\n      0x1f\n      dup3\n      add\n      and\n      dup3\n      add\n      dup1\n      0x40\n      mstore\n      pop\n      dup2\n      add\n      swap1\n      tag_140\n      swap2\n      swap1\n      tag_110\n      jump\t// in\n    tag_140:\n        /* \"contracts/PlaceholderAdsMarketplace.sol\":5807:5934  require(... */\n      tag_141\n      jumpi\n      mload(0x40)\n      0x08c379a000000000000000000000000000000000000000000000000000000000\n      dup2\n      mstore\n      0x04\n      add\n      tag_142\n      swap1\n      tag_113\n      jump\t// in\n    tag_142:\n      mload(0x40)\n      dup1\n      swap2\n      sub\n      swap1\n      revert\n    tag_141:\n        /* \"contracts/PlaceholderAdsMarketplace.sol\":5969:5979  msg.sender */\n      caller\n        /* \"contracts/PlaceholderAdsMarketplace.sol\":5945:5959  currentAuction */\n      0x03\n        /* \"contracts/PlaceholderAdsMarketplace.sol\":5945:5966  currentAuction.winner */\n      0x04\n      add\n      0x00\n        /* \"contracts/PlaceholderAdsMarketplace.sol\":5945:5979  currentAuction.winner = msg.sender */\n      0x0100\n      exp\n      dup2\n      sload\n      dup2\n      0xffffffffffffffffffffffffffffffffffffffff\n      mul\n      not\n      and\n      swap1\n      dup4\n      0xffffffffffffffffffffffffffffffffffffffff\n      and\n      mul\n      or\n      swap1\n      sstore\n      pop\n        /* \"contracts/PlaceholderAdsMarketplace.sol\":6017:6027  _bidAmount */\n      dup2\n        /* \"contracts/PlaceholderAdsMarketplace.sol\":5989:6003  currentAuction */\n      0x03\n        /* \"contracts/PlaceholderAdsMarketplace.sol\":5989:6014  currentAuction.winningBid */\n      0x05\n      add\n        /* \"contracts/PlaceholderAdsMarketplace.sol\":5989:6027  currentAuction.winningBid = _bidAmount */\n      dup2\n      swap1\n      sstore\n      pop\n        /* \"contracts/PlaceholderAdsMarketplace.sol\":6069:6077  _tokenId */\n      dup3\n        /* \"contracts/PlaceholderAdsMarketplace.sol\":6037:6051  currentAuction */\n      0x03\n        /* \"contracts/PlaceholderAdsMarketplace.sol\":6037:6066  currentAuction.winningTokenId */\n      0x06\n      add\n        /* \"contracts/PlaceholderAdsMarketplace.sol\":6037:6077  currentAuction.winningTokenId = _tokenId */\n      dup2\n      swap1\n      sstore\n      pop\n        /* \"contracts/PlaceholderAdsMarketplace.sol\":6116:6131  block.timestamp */\n      timestamp\n        /* \"contracts/PlaceholderAdsMarketplace.sol\":6087:6101  currentAuction */\n      0x03\n        /* \"contracts/PlaceholderAdsMarketplace.sol\":6087:6113  currentAuction.lastBidTime */\n      0x07\n      add\n        /* \"contracts/PlaceholderAdsMarketplace.sol\":6087:6131  currentAuction.lastBidTime = block.timestamp */\n      dup2\n      swap1\n      sstore\n      pop\n        /* \"contracts/PlaceholderAdsMarketplace.sol\":6147:6190  BidPlaced(msg.sender, _bidAmount, _tokenId) */\n      0xdf8644c0a4c21ed214ce69f395675b3a5fcd1039083daea5058898de40ea3149\n        /* \"contracts/PlaceholderAdsMarketplace.sol\":6157:6167  msg.sender */\n      caller\n        /* \"contracts/PlaceholderAdsMarketplace.sol\":6169:6179  _bidAmount */\n      dup4\n        /* \"contracts/PlaceholderAdsMarketplace.sol\":6181:6189  _tokenId */\n      dup6\n        /* \"contracts/PlaceholderAdsMarketplace.sol\":6147:6190  BidPlaced(msg.sender, _bidAmount, _tokenId) */\n      mload(0x40)\n      tag_143\n      swap4\n      swap3\n      swap2\n      swap1\n      tag_115\n      jump\t// in\n    tag_143:\n      mload(0x40)\n      dup1\n      swap2\n      sub\n      swap1\n      log1\n        /* \"contracts/PlaceholderAdsMarketplace.sol\":3960:6197  {... */\n      pop\n        /* \"contracts/PlaceholderAdsMarketplace.sol\":1744:1745  _ */\n    tag_80:\n        /* \"@openzeppelin/contracts/security/ReentrancyGuard.sol\":2303:2323  _nonReentrantAfter() */\n      tag_144\n        /* \"@openzeppelin/contracts/security/ReentrancyGuard.sol\":2303:2321  _nonReentrantAfter */\n      tag_145\n        /* \"@openzeppelin/contracts/security/ReentrancyGuard.sol\":2303:2323  _nonReentrantAfter() */\n      jump\t// in\n    tag_144:\n        /* \"contracts/PlaceholderAdsMarketplace.sol\":3840:6197  function placeBid(uint256 _tokenId, uint256 _bidAmount)... */\n      pop\n      pop\n      jump\t// out\n        /* \"contracts/PlaceholderAdsMarketplace.sol\":770:796  IERC20 public biddingToken */\n    tag_37:\n      0x02\n      0x00\n      swap1\n      sload\n      swap1\n      0x0100\n      exp\n      swap1\n      div\n      0xffffffffffffffffffffffffffffffffffffffff\n      and\n      dup2\n      jump\t// out\n        /* \"contracts/PlaceholderAdsMarketplace.sol\":6326:6931  function getAuctionInfo()... */\n    tag_41:\n        /* \"contracts/PlaceholderAdsMarketplace.sol\":6412:6430  uint256 startPrice */\n      0x00\n        /* \"contracts/PlaceholderAdsMarketplace.sol\":6444:6460  uint256 endPrice */\n      0x00\n        /* \"contracts/PlaceholderAdsMarketplace.sol\":6474:6491  uint256 startTime */\n      0x00\n        /* \"contracts/PlaceholderAdsMarketplace.sol\":6505:6521  uint256 duration */\n      0x00\n        /* \"contracts/PlaceholderAdsMarketplace.sol\":6535:6549  address winner */\n      0x00\n        /* \"contracts/PlaceholderAdsMarketplace.sol\":6563:6581  uint256 winningBid */\n      0x00\n        /* \"contracts/PlaceholderAdsMarketplace.sol\":6595:6617  uint256 winningTokenId */\n      0x00\n        /* \"contracts/PlaceholderAdsMarketplace.sol\":6631:6641  bool ended */\n      0x00\n        /* \"contracts/PlaceholderAdsMarketplace.sol\":6666:6682  Auction memory a */\n      0x00\n        /* \"contracts/PlaceholderAdsMarketplace.sol\":6685:6699  currentAuction */\n      0x03\n        /* \"contracts/PlaceholderAdsMarketplace.sol\":6666:6699  Auction memory a = currentAuction */\n      mload(0x40)\n      dup1\n      0x0120\n      add\n      0x40\n      mstore\n      swap1\n      dup2\n      0x00\n      dup3\n      add\n      sload\n      dup2\n      mstore\n      0x20\n      add\n      0x01\n      dup3\n      add\n      sload\n      dup2\n      mstore\n      0x20\n      add\n      0x02\n      dup3\n      add\n      sload\n      dup2\n      mstore\n      0x20\n      add\n      0x03\n      dup3\n      add\n      sload\n      dup2\n      mstore\n      0x20\n      add\n      0x04\n      dup3\n      add\n      0x00\n      swap1\n      sload\n      swap1\n      0x0100\n      exp\n      swap1\n      div\n      0xffffffffffffffffffffffffffffffffffffffff\n      and\n      0xffffffffffffffffffffffffffffffffffffffff\n      and\n      0xffffffffffffffffffffffffffffffffffffffff\n      and\n      dup2\n      mstore\n      0x20\n      add\n      0x05\n      dup3\n      add\n      sload\n      dup2\n      mstore\n      0x20\n      add\n      0x06\n      dup3\n      add\n      sload\n      dup2\n      mstore\n      0x20\n      add\n      0x07\n      dup3\n      add\n      sload\n      dup2\n      mstore\n      0x20\n      add\n      0x08\n      dup3\n      add\n      0x00\n      swap1\n      sload\n      swap1\n      0x0100\n      exp\n      swap1\n      div\n      0xff\n      and\n      iszero\n      iszero\n      iszero\n      iszero\n      dup2\n      mstore\n      pop\n      pop\n      swap1\n      pop\n        /* \"contracts/PlaceholderAdsMarketplace.sol\":6730:6731  a */\n      dup1\n        /* \"contracts/PlaceholderAdsMarketplace.sol\":6730:6742  a.startPrice */\n      0x00\n      add\n      mload\n        /* \"contracts/PlaceholderAdsMarketplace.sol\":6756:6757  a */\n      dup2\n        /* \"contracts/PlaceholderAdsMarketplace.sol\":6756:6766  a.endPrice */\n      0x20\n      add\n      mload\n        /* \"contracts/PlaceholderAdsMarketplace.sol\":6780:6781  a */\n      dup3\n        /* \"contracts/PlaceholderAdsMarketplace.sol\":6780:6791  a.startTime */\n      0x40\n      add\n      mload\n        /* \"contracts/PlaceholderAdsMarketplace.sol\":6805:6806  a */\n      dup4\n        /* \"contracts/PlaceholderAdsMarketplace.sol\":6805:6815  a.duration */\n      0x60\n      add\n      mload\n        /* \"contracts/PlaceholderAdsMarketplace.sol\":6829:6830  a */\n      dup5\n        /* \"contracts/PlaceholderAdsMarketplace.sol\":6829:6837  a.winner */\n      0x80\n      add\n      mload\n        /* \"contracts/PlaceholderAdsMarketplace.sol\":6851:6852  a */\n      dup6\n        /* \"contracts/PlaceholderAdsMarketplace.sol\":6851:6863  a.winningBid */\n      0xa0\n      add\n      mload\n        /* \"contracts/PlaceholderAdsMarketplace.sol\":6877:6878  a */\n      dup7\n        /* \"contracts/PlaceholderAdsMarketplace.sol\":6877:6893  a.winningTokenId */\n      0xc0\n      add\n      mload\n        /* \"contracts/PlaceholderAdsMarketplace.sol\":6907:6908  a */\n      dup8\n        /* \"contracts/PlaceholderAdsMarketplace.sol\":6907:6914  a.ended */\n      0x0100\n      add\n      mload\n        /* \"contracts/PlaceholderAdsMarketplace.sol\":6709:6924  return (... */\n      swap9\n      pop\n      swap9\n      pop\n      swap9\n      pop\n      swap9\n      pop\n      swap9\n      pop\n      swap9\n      pop\n      swap9\n      pop\n      swap9\n      pop\n      pop\n        /* \"contracts/PlaceholderAdsMarketplace.sol\":6326:6931  function getAuctionInfo()... */\n      swap1\n      swap2\n      swap3\n      swap4\n      swap5\n      swap6\n      swap7\n      swap8\n      jump\t// out\n        /* \"contracts/PlaceholderAdsMarketplace.sol\":2967:3834  function getCurrentPrice() public view returns (uint256) {... */\n    tag_45:\n        /* \"contracts/PlaceholderAdsMarketplace.sol\":3015:3022  uint256 */\n      0x00\n        /* \"contracts/PlaceholderAdsMarketplace.sol\":3069:3083  currentAuction */\n      0x03\n        /* \"contracts/PlaceholderAdsMarketplace.sol\":3069:3093  currentAuction.startTime */\n      0x02\n      add\n      sload\n        /* \"contracts/PlaceholderAdsMarketplace.sol\":3051:3066  block.timestamp */\n      timestamp\n        /* \"contracts/PlaceholderAdsMarketplace.sol\":3051:3093  block.timestamp < currentAuction.startTime */\n      lt\n        /* \"contracts/PlaceholderAdsMarketplace.sol\":3051:3138  block.timestamp < currentAuction.startTime ||... */\n      dup1\n      tag_148\n      jumpi\n      pop\n        /* \"contracts/PlaceholderAdsMarketplace.sol\":3137:3138  0 */\n      0x00\n        /* \"contracts/PlaceholderAdsMarketplace.sol\":3109:3123  currentAuction */\n      0x03\n        /* \"contracts/PlaceholderAdsMarketplace.sol\":3109:3133  currentAuction.startTime */\n      0x02\n      add\n      sload\n        /* \"contracts/PlaceholderAdsMarketplace.sol\":3109:3138  currentAuction.startTime == 0 */\n      eq\n        /* \"contracts/PlaceholderAdsMarketplace.sol\":3051:3138  block.timestamp < currentAuction.startTime ||... */\n    tag_148:\n        /* \"contracts/PlaceholderAdsMarketplace.sol\":3051:3174  block.timestamp < currentAuction.startTime ||... */\n      dup1\n      tag_149\n      jumpi\n      pop\n        /* \"contracts/PlaceholderAdsMarketplace.sol\":3154:3168  currentAuction */\n      0x03\n        /* \"contracts/PlaceholderAdsMarketplace.sol\":3154:3174  currentAuction.ended */\n      0x08\n      add\n      0x00\n      swap1\n      sload\n      swap1\n      0x0100\n      exp\n      swap1\n      div\n      0xff\n      and\n        /* \"contracts/PlaceholderAdsMarketplace.sol\":3051:3174  block.timestamp < currentAuction.startTime ||... */\n    tag_149:\n        /* \"contracts/PlaceholderAdsMarketplace.sol\":3034:3242  if (... */\n      iszero\n      tag_150\n      jumpi\n        /* \"contracts/PlaceholderAdsMarketplace.sol\":3206:3220  currentAuction */\n      0x03\n        /* \"contracts/PlaceholderAdsMarketplace.sol\":3206:3231  currentAuction.startPrice */\n      0x00\n      add\n      sload\n        /* \"contracts/PlaceholderAdsMarketplace.sol\":3199:3231  return currentAuction.startPrice */\n      swap1\n      pop\n      jump(tag_147)\n        /* \"contracts/PlaceholderAdsMarketplace.sol\":3034:3242  if (... */\n    tag_150:\n        /* \"contracts/PlaceholderAdsMarketplace.sol\":3252:3267  uint256 elapsed */\n      0x00\n        /* \"contracts/PlaceholderAdsMarketplace.sol\":3288:3302  currentAuction */\n      0x03\n        /* \"contracts/PlaceholderAdsMarketplace.sol\":3288:3312  currentAuction.startTime */\n      0x02\n      add\n      sload\n        /* \"contracts/PlaceholderAdsMarketplace.sol\":3270:3285  block.timestamp */\n      timestamp\n        /* \"contracts/PlaceholderAdsMarketplace.sol\":3270:3312  block.timestamp - currentAuction.startTime */\n      tag_151\n      swap2\n      swap1\n      tag_152\n      jump\t// in\n    tag_151:\n        /* \"contracts/PlaceholderAdsMarketplace.sol\":3252:3312  uint256 elapsed = block.timestamp - currentAuction.startTime */\n      swap1\n      pop\n        /* \"contracts/PlaceholderAdsMarketplace.sol\":3337:3351  currentAuction */\n      0x03\n        /* \"contracts/PlaceholderAdsMarketplace.sol\":3337:3360  currentAuction.duration */\n      dup1\n      add\n      sload\n        /* \"contracts/PlaceholderAdsMarketplace.sol\":3326:3333  elapsed */\n      dup2\n        /* \"contracts/PlaceholderAdsMarketplace.sol\":3326:3360  elapsed >= currentAuction.duration */\n      lt\n        /* \"contracts/PlaceholderAdsMarketplace.sol\":3322:3417  if (elapsed >= currentAuction.duration) {... */\n      tag_153\n      jumpi\n        /* \"contracts/PlaceholderAdsMarketplace.sol\":3383:3397  currentAuction */\n      0x03\n        /* \"contracts/PlaceholderAdsMarketplace.sol\":3383:3406  currentAuction.endPrice */\n      0x01\n      add\n      sload\n        /* \"contracts/PlaceholderAdsMarketplace.sol\":3376:3406  return currentAuction.endPrice */\n      swap2\n      pop\n      pop\n      jump(tag_147)\n        /* \"contracts/PlaceholderAdsMarketplace.sol\":3322:3417  if (elapsed >= currentAuction.duration) {... */\n    tag_153:\n        /* \"contracts/PlaceholderAdsMarketplace.sol\":3488:3510  uint256 totalPriceDiff */\n      0x00\n        /* \"contracts/PlaceholderAdsMarketplace.sol\":3553:3567  currentAuction */\n      0x03\n        /* \"contracts/PlaceholderAdsMarketplace.sol\":3553:3576  currentAuction.endPrice */\n      0x01\n      add\n      sload\n        /* \"contracts/PlaceholderAdsMarketplace.sol\":3513:3527  currentAuction */\n      0x03\n        /* \"contracts/PlaceholderAdsMarketplace.sol\":3513:3538  currentAuction.startPrice */\n      0x00\n      add\n      sload\n        /* \"contracts/PlaceholderAdsMarketplace.sol\":3513:3576  currentAuction.startPrice -... */\n      tag_154\n      swap2\n      swap1\n      tag_152\n      jump\t// in\n    tag_154:\n        /* \"contracts/PlaceholderAdsMarketplace.sol\":3488:3576  uint256 totalPriceDiff = currentAuction.startPrice -... */\n      swap1\n      pop\n        /* \"contracts/PlaceholderAdsMarketplace.sol\":3586:3610  uint256 currentPriceDrop */\n      0x00\n        /* \"contracts/PlaceholderAdsMarketplace.sol\":3661:3675  currentAuction */\n      0x03\n        /* \"contracts/PlaceholderAdsMarketplace.sol\":3661:3684  currentAuction.duration */\n      dup1\n      add\n      sload\n        /* \"contracts/PlaceholderAdsMarketplace.sol\":3641:3645  1e18 */\n      0x0de0b6b3a7640000\n        /* \"contracts/PlaceholderAdsMarketplace.sol\":3631:3638  elapsed */\n      dup5\n        /* \"contracts/PlaceholderAdsMarketplace.sol\":3614:3628  totalPriceDiff */\n      dup5\n        /* \"contracts/PlaceholderAdsMarketplace.sol\":3614:3638  totalPriceDiff * elapsed */\n      tag_155\n      swap2\n      swap1\n      tag_156\n      jump\t// in\n    tag_155:\n        /* \"contracts/PlaceholderAdsMarketplace.sol\":3614:3645  totalPriceDiff * elapsed * 1e18 */\n      tag_157\n      swap2\n      swap1\n      tag_156\n      jump\t// in\n    tag_157:\n        /* \"contracts/PlaceholderAdsMarketplace.sol\":3613:3684  (totalPriceDiff * elapsed * 1e18) /... */\n      tag_158\n      swap2\n      swap1\n      tag_159\n      jump\t// in\n    tag_158:\n        /* \"contracts/PlaceholderAdsMarketplace.sol\":3586:3684  uint256 currentPriceDrop = (totalPriceDiff * elapsed * 1e18) /... */\n      swap1\n      pop\n        /* \"contracts/PlaceholderAdsMarketplace.sol\":3732:3736  1e18 */\n      0x0de0b6b3a7640000\n        /* \"contracts/PlaceholderAdsMarketplace.sol\":3713:3729  currentPriceDrop */\n      dup2\n        /* \"contracts/PlaceholderAdsMarketplace.sol\":3713:3736  currentPriceDrop / 1e18 */\n      tag_160\n      swap2\n      swap1\n      tag_159\n      jump\t// in\n    tag_160:\n        /* \"contracts/PlaceholderAdsMarketplace.sol\":3694:3736  currentPriceDrop = currentPriceDrop / 1e18 */\n      swap1\n      pop\n        /* \"contracts/PlaceholderAdsMarketplace.sol\":3811:3827  currentPriceDrop */\n      dup1\n        /* \"contracts/PlaceholderAdsMarketplace.sol\":3783:3797  currentAuction */\n      0x03\n        /* \"contracts/PlaceholderAdsMarketplace.sol\":3783:3808  currentAuction.startPrice */\n      0x00\n      add\n      sload\n        /* \"contracts/PlaceholderAdsMarketplace.sol\":3783:3827  currentAuction.startPrice - currentPriceDrop */\n      tag_161\n      swap2\n      swap1\n      tag_152\n      jump\t// in\n    tag_161:\n        /* \"contracts/PlaceholderAdsMarketplace.sol\":3776:3827  return currentAuction.startPrice - currentPriceDrop */\n      swap4\n      pop\n      pop\n      pop\n      pop\n        /* \"contracts/PlaceholderAdsMarketplace.sol\":2967:3834  function getCurrentPrice() public view returns (uint256) {... */\n    tag_147:\n      swap1\n      jump\t// out\n        /* \"@openzeppelin/contracts/security/ReentrancyGuard.sol\":2336:2623  function _nonReentrantBefore() private {... */\n    tag_69:\n        /* \"@openzeppelin/contracts/security/ReentrancyGuard.sol\":1759:1760  2 */\n      0x02\n        /* \"@openzeppelin/contracts/security/ReentrancyGuard.sol\":2468:2475  _status */\n      sload(0x00)\n        /* \"@openzeppelin/contracts/security/ReentrancyGuard.sol\":2468:2487  _status != _ENTERED */\n      sub\n        /* \"@openzeppelin/contracts/security/ReentrancyGuard.sol\":2460:2523  require(_status != _ENTERED, \"ReentrancyGuard: reentrant call\") */\n      tag_163\n      jumpi\n      mload(0x40)\n      0x08c379a000000000000000000000000000000000000000000000000000000000\n      dup2\n      mstore\n      0x04\n      add\n      tag_164\n      swap1\n      tag_165\n      jump\t// in\n    tag_164:\n      mload(0x40)\n      dup1\n      swap2\n      sub\n      swap1\n      revert\n    tag_163:\n        /* \"@openzeppelin/contracts/security/ReentrancyGuard.sol\":1759:1760  2 */\n      0x02\n        /* \"@openzeppelin/contracts/security/ReentrancyGuard.sol\":2598:2605  _status */\n      0x00\n        /* \"@openzeppelin/contracts/security/ReentrancyGuard.sol\":2598:2616  _status = _ENTERED */\n      dup2\n      swap1\n      sstore\n      pop\n        /* \"@openzeppelin/contracts/security/ReentrancyGuard.sol\":2336:2623  function _nonReentrantBefore() private {... */\n      jump\t// out\n        /* \"@openzeppelin/contracts/security/ReentrancyGuard.sol\":2629:2838  function _nonReentrantAfter() private {... */\n    tag_145:\n        /* \"@openzeppelin/contracts/security/ReentrancyGuard.sol\":1716:1717  1 */\n      0x01\n        /* \"@openzeppelin/contracts/security/ReentrancyGuard.sol\":2809:2816  _status */\n      0x00\n        /* \"@openzeppelin/contracts/security/ReentrancyGuard.sol\":2809:2831  _status = _NOT_ENTERED */\n      dup2\n      swap1\n      sstore\n      pop\n        /* \"@openzeppelin/contracts/security/ReentrancyGuard.sol\":2629:2838  function _nonReentrantAfter() private {... */\n      jump\t// out\n        /* \"#utility.yul\":88:205   */\n    tag_168:\n        /* \"#utility.yul\":197:198   */\n      0x00\n        /* \"#utility.yul\":194:195   */\n      0x00\n        /* \"#utility.yul\":187:199   */\n      revert\n        /* \"#utility.yul\":334:460   */\n    tag_170:\n        /* \"#utility.yul\":371:378   */\n      0x00\n        /* \"#utility.yul\":411:453   */\n      0xffffffffffffffffffffffffffffffffffffffff\n        /* \"#utility.yul\":404:409   */\n      dup3\n        /* \"#utility.yul\":400:454   */\n      and\n        /* \"#utility.yul\":389:454   */\n      swap1\n      pop\n        /* \"#utility.yul\":334:460   */\n      swap2\n      swap1\n      pop\n      jump\t// out\n        /* \"#utility.yul\":466:562   */\n    tag_171:\n        /* \"#utility.yul\":503:510   */\n      0x00\n        /* \"#utility.yul\":532:556   */\n      tag_226\n        /* \"#utility.yul\":550:555   */\n      dup3\n        /* \"#utility.yul\":532:556   */\n      tag_170\n      jump\t// in\n    tag_226:\n        /* \"#utility.yul\":521:556   */\n      swap1\n      pop\n        /* \"#utility.yul\":466:562   */\n      swap2\n      swap1\n      pop\n      jump\t// out\n        /* \"#utility.yul\":568:690   */\n    tag_172:\n        /* \"#utility.yul\":641:665   */\n      tag_228\n        /* \"#utility.yul\":659:664   */\n      dup2\n        /* \"#utility.yul\":641:665   */\n      tag_171\n      jump\t// in\n    tag_228:\n        /* \"#utility.yul\":634:639   */\n      dup2\n        /* \"#utility.yul\":631:666   */\n      eq\n        /* \"#utility.yul\":621:684   */\n      tag_229\n      jumpi\n        /* \"#utility.yul\":680:681   */\n      0x00\n        /* \"#utility.yul\":677:678   */\n      0x00\n        /* \"#utility.yul\":670:682   */\n      revert\n        /* \"#utility.yul\":621:684   */\n    tag_229:\n        /* \"#utility.yul\":568:690   */\n      pop\n      jump\t// out\n        /* \"#utility.yul\":696:835   */\n    tag_173:\n        /* \"#utility.yul\":742:747   */\n      0x00\n        /* \"#utility.yul\":780:786   */\n      dup2\n        /* \"#utility.yul\":767:787   */\n      calldataload\n        /* \"#utility.yul\":758:787   */\n      swap1\n      pop\n        /* \"#utility.yul\":796:829   */\n      tag_231\n        /* \"#utility.yul\":823:828   */\n      dup2\n        /* \"#utility.yul\":796:829   */\n      tag_172\n      jump\t// in\n    tag_231:\n        /* \"#utility.yul\":696:835   */\n      swap3\n      swap2\n      pop\n      pop\n      jump\t// out\n        /* \"#utility.yul\":841:1170   */\n    tag_15:\n        /* \"#utility.yul\":900:906   */\n      0x00\n        /* \"#utility.yul\":949:951   */\n      0x20\n        /* \"#utility.yul\":937:946   */\n      dup3\n        /* \"#utility.yul\":928:935   */\n      dup5\n        /* \"#utility.yul\":924:947   */\n      sub\n        /* \"#utility.yul\":920:952   */\n      slt\n        /* \"#utility.yul\":917:1036   */\n      iszero\n      tag_233\n      jumpi\n        /* \"#utility.yul\":955:1034   */\n      tag_234\n      tag_168\n      jump\t// in\n    tag_234:\n        /* \"#utility.yul\":917:1036   */\n    tag_233:\n        /* \"#utility.yul\":1075:1076   */\n      0x00\n        /* \"#utility.yul\":1100:1153   */\n      tag_235\n        /* \"#utility.yul\":1145:1152   */\n      dup5\n        /* \"#utility.yul\":1136:1142   */\n      dup3\n        /* \"#utility.yul\":1125:1134   */\n      dup6\n        /* \"#utility.yul\":1121:1143   */\n      add\n        /* \"#utility.yul\":1100:1153   */\n      tag_173\n      jump\t// in\n    tag_235:\n        /* \"#utility.yul\":1090:1153   */\n      swap2\n      pop\n        /* \"#utility.yul\":1046:1163   */\n      pop\n        /* \"#utility.yul\":841:1170   */\n      swap3\n      swap2\n      pop\n      pop\n      jump\t// out\n        /* \"#utility.yul\":1176:1253   */\n    tag_174:\n        /* \"#utility.yul\":1213:1220   */\n      0x00\n        /* \"#utility.yul\":1242:1247   */\n      dup2\n        /* \"#utility.yul\":1231:1247   */\n      swap1\n      pop\n        /* \"#utility.yul\":1176:1253   */\n      swap2\n      swap1\n      pop\n      jump\t// out\n        /* \"#utility.yul\":1259:1377   */\n    tag_175:\n        /* \"#utility.yul\":1346:1370   */\n      tag_238\n        /* \"#utility.yul\":1364:1369   */\n      dup2\n        /* \"#utility.yul\":1346:1370   */\n      tag_174\n      jump\t// in\n    tag_238:\n        /* \"#utility.yul\":1341:1344   */\n      dup3\n        /* \"#utility.yul\":1334:1371   */\n      mstore\n        /* \"#utility.yul\":1259:1377   */\n      pop\n      pop\n      jump\t// out\n        /* \"#utility.yul\":1383:1605   */\n    tag_20:\n        /* \"#utility.yul\":1476:1480   */\n      0x00\n        /* \"#utility.yul\":1514:1516   */\n      0x20\n        /* \"#utility.yul\":1503:1512   */\n      dup3\n        /* \"#utility.yul\":1499:1517   */\n      add\n        /* \"#utility.yul\":1491:1517   */\n      swap1\n      pop\n        /* \"#utility.yul\":1527:1598   */\n      tag_240\n        /* \"#utility.yul\":1595:1596   */\n      0x00\n        /* \"#utility.yul\":1584:1593   */\n      dup4\n        /* \"#utility.yul\":1580:1597   */\n      add\n        /* \"#utility.yul\":1571:1577   */\n      dup5\n        /* \"#utility.yul\":1527:1598   */\n      tag_175\n      jump\t// in\n    tag_240:\n        /* \"#utility.yul\":1383:1605   */\n      swap3\n      swap2\n      pop\n      pop\n      jump\t// out\n        /* \"#utility.yul\":1611:1729   */\n    tag_176:\n        /* \"#utility.yul\":1698:1722   */\n      tag_242\n        /* \"#utility.yul\":1716:1721   */\n      dup2\n        /* \"#utility.yul\":1698:1722   */\n      tag_171\n      jump\t// in\n    tag_242:\n        /* \"#utility.yul\":1693:1696   */\n      dup3\n        /* \"#utility.yul\":1686:1723   */\n      mstore\n        /* \"#utility.yul\":1611:1729   */\n      pop\n      pop\n      jump\t// out\n        /* \"#utility.yul\":1735:1825   */\n    tag_177:\n        /* \"#utility.yul\":1769:1776   */\n      0x00\n        /* \"#utility.yul\":1812:1817   */\n      dup2\n        /* \"#utility.yul\":1805:1818   */\n      iszero\n        /* \"#utility.yul\":1798:1819   */\n      iszero\n        /* \"#utility.yul\":1787:1819   */\n      swap1\n      pop\n        /* \"#utility.yul\":1735:1825   */\n      swap2\n      swap1\n      pop\n      jump\t// out\n        /* \"#utility.yul\":1831:1940   */\n    tag_178:\n        /* \"#utility.yul\":1912:1933   */\n      tag_245\n        /* \"#utility.yul\":1927:1932   */\n      dup2\n        /* \"#utility.yul\":1912:1933   */\n      tag_177\n      jump\t// in\n    tag_245:\n        /* \"#utility.yul\":1907:1910   */\n      dup3\n        /* \"#utility.yul\":1900:1934   */\n      mstore\n        /* \"#utility.yul\":1831:1940   */\n      pop\n      pop\n      jump\t// out\n        /* \"#utility.yul\":1946:3042   */\n    tag_24:\n        /* \"#utility.yul\":2257:2261   */\n      0x00\n        /* \"#utility.yul\":2295:2298   */\n      0x0120\n        /* \"#utility.yul\":2284:2293   */\n      dup3\n        /* \"#utility.yul\":2280:2299   */\n      add\n        /* \"#utility.yul\":2272:2299   */\n      swap1\n      pop\n        /* \"#utility.yul\":2309:2380   */\n      tag_247\n        /* \"#utility.yul\":2377:2378   */\n      0x00\n        /* \"#utility.yul\":2366:2375   */\n      dup4\n        /* \"#utility.yul\":2362:2379   */\n      add\n        /* \"#utility.yul\":2353:2359   */\n      dup13\n        /* \"#utility.yul\":2309:2380   */\n      tag_175\n      jump\t// in\n    tag_247:\n        /* \"#utility.yul\":2390:2462   */\n      tag_248\n        /* \"#utility.yul\":2458:2460   */\n      0x20\n        /* \"#utility.yul\":2447:2456   */\n      dup4\n        /* \"#utility.yul\":2443:2461   */\n      add\n        /* \"#utility.yul\":2434:2440   */\n      dup12\n        /* \"#utility.yul\":2390:2462   */\n      tag_175\n      jump\t// in\n    tag_248:\n        /* \"#utility.yul\":2472:2544   */\n      tag_249\n        /* \"#utility.yul\":2540:2542   */\n      0x40\n        /* \"#utility.yul\":2529:2538   */\n      dup4\n        /* \"#utility.yul\":2525:2543   */\n      add\n        /* \"#utility.yul\":2516:2522   */\n      dup11\n        /* \"#utility.yul\":2472:2544   */\n      tag_175\n      jump\t// in\n    tag_249:\n        /* \"#utility.yul\":2554:2626   */\n      tag_250\n        /* \"#utility.yul\":2622:2624   */\n      0x60\n        /* \"#utility.yul\":2611:2620   */\n      dup4\n        /* \"#utility.yul\":2607:2625   */\n      add\n        /* \"#utility.yul\":2598:2604   */\n      dup10\n        /* \"#utility.yul\":2554:2626   */\n      tag_175\n      jump\t// in\n    tag_250:\n        /* \"#utility.yul\":2636:2709   */\n      tag_251\n        /* \"#utility.yul\":2704:2707   */\n      0x80\n        /* \"#utility.yul\":2693:2702   */\n      dup4\n        /* \"#utility.yul\":2689:2708   */\n      add\n        /* \"#utility.yul\":2680:2686   */\n      dup9\n        /* \"#utility.yul\":2636:2709   */\n      tag_176\n      jump\t// in\n    tag_251:\n        /* \"#utility.yul\":2719:2792   */\n      tag_252\n        /* \"#utility.yul\":2787:2790   */\n      0xa0\n        /* \"#utility.yul\":2776:2785   */\n      dup4\n        /* \"#utility.yul\":2772:2791   */\n      add\n        /* \"#utility.yul\":2763:2769   */\n      dup8\n        /* \"#utility.yul\":2719:2792   */\n      tag_175\n      jump\t// in\n    tag_252:\n        /* \"#utility.yul\":2802:2875   */\n      tag_253\n        /* \"#utility.yul\":2870:2873   */\n      0xc0\n        /* \"#utility.yul\":2859:2868   */\n      dup4\n        /* \"#utility.yul\":2855:2874   */\n      add\n        /* \"#utility.yul\":2846:2852   */\n      dup7\n        /* \"#utility.yul\":2802:2875   */\n      tag_175\n      jump\t// in\n    tag_253:\n        /* \"#utility.yul\":2885:2958   */\n      tag_254\n        /* \"#utility.yul\":2953:2956   */\n      0xe0\n        /* \"#utility.yul\":2942:2951   */\n      dup4\n        /* \"#utility.yul\":2938:2957   */\n      add\n        /* \"#utility.yul\":2929:2935   */\n      dup6\n        /* \"#utility.yul\":2885:2958   */\n      tag_175\n      jump\t// in\n    tag_254:\n        /* \"#utility.yul\":2968:3035   */\n      tag_255\n        /* \"#utility.yul\":3030:3033   */\n      0x0100\n        /* \"#utility.yul\":3019:3028   */\n      dup4\n        /* \"#utility.yul\":3015:3034   */\n      add\n        /* \"#utility.yul\":3006:3012   */\n      dup5\n        /* \"#utility.yul\":2968:3035   */\n      tag_178\n      jump\t// in\n    tag_255:\n        /* \"#utility.yul\":1946:3042   */\n      swap11\n      swap10\n      pop\n      pop\n      pop\n      pop\n      pop\n      pop\n      pop\n      pop\n      pop\n      pop\n      jump\t// out\n        /* \"#utility.yul\":3048:3170   */\n    tag_179:\n        /* \"#utility.yul\":3121:3145   */\n      tag_257\n        /* \"#utility.yul\":3139:3144   */\n      dup2\n        /* \"#utility.yul\":3121:3145   */\n      tag_174\n      jump\t// in\n    tag_257:\n        /* \"#utility.yul\":3114:3119   */\n      dup2\n        /* \"#utility.yul\":3111:3146   */\n      eq\n        /* \"#utility.yul\":3101:3164   */\n      tag_258\n      jumpi\n        /* \"#utility.yul\":3160:3161   */\n      0x00\n        /* \"#utility.yul\":3157:3158   */\n      0x00\n        /* \"#utility.yul\":3150:3162   */\n      revert\n        /* \"#utility.yul\":3101:3164   */\n    tag_258:\n        /* \"#utility.yul\":3048:3170   */\n      pop\n      jump\t// out\n        /* \"#utility.yul\":3176:3315   */\n    tag_180:\n        /* \"#utility.yul\":3222:3227   */\n      0x00\n        /* \"#utility.yul\":3260:3266   */\n      dup2\n        /* \"#utility.yul\":3247:3267   */\n      calldataload\n        /* \"#utility.yul\":3238:3267   */\n      swap1\n      pop\n        /* \"#utility.yul\":3276:3309   */\n      tag_260\n        /* \"#utility.yul\":3303:3308   */\n      dup2\n        /* \"#utility.yul\":3276:3309   */\n      tag_179\n      jump\t// in\n    tag_260:\n        /* \"#utility.yul\":3176:3315   */\n      swap3\n      swap2\n      pop\n      pop\n      jump\t// out\n        /* \"#utility.yul\":3321:3795   */\n    tag_27:\n        /* \"#utility.yul\":3389:3395   */\n      0x00\n        /* \"#utility.yul\":3397:3403   */\n      0x00\n        /* \"#utility.yul\":3446:3448   */\n      0x40\n        /* \"#utility.yul\":3434:3443   */\n      dup4\n        /* \"#utility.yul\":3425:3432   */\n      dup6\n        /* \"#utility.yul\":3421:3444   */\n      sub\n        /* \"#utility.yul\":3417:3449   */\n      slt\n        /* \"#utility.yul\":3414:3533   */\n      iszero\n      tag_262\n      jumpi\n        /* \"#utility.yul\":3452:3531   */\n      tag_263\n      tag_168\n      jump\t// in\n    tag_263:\n        /* \"#utility.yul\":3414:3533   */\n    tag_262:\n        /* \"#utility.yul\":3572:3573   */\n      0x00\n        /* \"#utility.yul\":3597:3650   */\n      tag_264\n        /* \"#utility.yul\":3642:3649   */\n      dup6\n        /* \"#utility.yul\":3633:3639   */\n      dup3\n        /* \"#utility.yul\":3622:3631   */\n      dup7\n        /* \"#utility.yul\":3618:3640   */\n      add\n        /* \"#utility.yul\":3597:3650   */\n      tag_180\n      jump\t// in\n    tag_264:\n        /* \"#utility.yul\":3587:3650   */\n      swap3\n      pop\n        /* \"#utility.yul\":3543:3660   */\n      pop\n        /* \"#utility.yul\":3699:3701   */\n      0x20\n        /* \"#utility.yul\":3725:3778   */\n      tag_265\n        /* \"#utility.yul\":3770:3777   */\n      dup6\n        /* \"#utility.yul\":3761:3767   */\n      dup3\n        /* \"#utility.yul\":3750:3759   */\n      dup7\n        /* \"#utility.yul\":3746:3768   */\n      add\n        /* \"#utility.yul\":3725:3778   */\n      tag_180\n      jump\t// in\n    tag_265:\n        /* \"#utility.yul\":3715:3778   */\n      swap2\n      pop\n        /* \"#utility.yul\":3670:3788   */\n      pop\n        /* \"#utility.yul\":3321:3795   */\n      swap3\n      pop\n      swap3\n      swap1\n      pop\n      jump\t// out\n        /* \"#utility.yul\":3801:4023   */\n    tag_32:\n        /* \"#utility.yul\":3894:3898   */\n      0x00\n        /* \"#utility.yul\":3932:3934   */\n      0x20\n        /* \"#utility.yul\":3921:3930   */\n      dup3\n        /* \"#utility.yul\":3917:3935   */\n      add\n        /* \"#utility.yul\":3909:3935   */\n      swap1\n      pop\n        /* \"#utility.yul\":3945:4016   */\n      tag_267\n        /* \"#utility.yul\":4013:4014   */\n      0x00\n        /* \"#utility.yul\":4002:4011   */\n      dup4\n        /* \"#utility.yul\":3998:4015   */\n      add\n        /* \"#utility.yul\":3989:3995   */\n      dup5\n        /* \"#utility.yul\":3945:4016   */\n      tag_176\n      jump\t// in\n    tag_267:\n        /* \"#utility.yul\":3801:4023   */\n      swap3\n      swap2\n      pop\n      pop\n      jump\t// out\n        /* \"#utility.yul\":4029:4089   */\n    tag_181:\n        /* \"#utility.yul\":4057:4060   */\n      0x00\n        /* \"#utility.yul\":4078:4083   */\n      dup2\n        /* \"#utility.yul\":4071:4083   */\n      swap1\n      pop\n        /* \"#utility.yul\":4029:4089   */\n      swap2\n      swap1\n      pop\n      jump\t// out\n        /* \"#utility.yul\":4095:4237   */\n    tag_182:\n        /* \"#utility.yul\":4145:4154   */\n      0x00\n        /* \"#utility.yul\":4178:4231   */\n      tag_270\n        /* \"#utility.yul\":4196:4230   */\n      tag_271\n        /* \"#utility.yul\":4205:4229   */\n      tag_272\n        /* \"#utility.yul\":4223:4228   */\n      dup5\n        /* \"#utility.yul\":4205:4229   */\n      tag_170\n      jump\t// in\n    tag_272:\n        /* \"#utility.yul\":4196:4230   */\n      tag_181\n      jump\t// in\n    tag_271:\n        /* \"#utility.yul\":4178:4231   */\n      tag_170\n      jump\t// in\n    tag_270:\n        /* \"#utility.yul\":4165:4231   */\n      swap1\n      pop\n        /* \"#utility.yul\":4095:4237   */\n      swap2\n      swap1\n      pop\n      jump\t// out\n        /* \"#utility.yul\":4243:4369   */\n    tag_183:\n        /* \"#utility.yul\":4293:4302   */\n      0x00\n        /* \"#utility.yul\":4326:4363   */\n      tag_274\n        /* \"#utility.yul\":4357:4362   */\n      dup3\n        /* \"#utility.yul\":4326:4363   */\n      tag_182\n      jump\t// in\n    tag_274:\n        /* \"#utility.yul\":4313:4363   */\n      swap1\n      pop\n        /* \"#utility.yul\":4243:4369   */\n      swap2\n      swap1\n      pop\n      jump\t// out\n        /* \"#utility.yul\":4375:4515   */\n    tag_184:\n        /* \"#utility.yul\":4439:4448   */\n      0x00\n        /* \"#utility.yul\":4472:4509   */\n      tag_276\n        /* \"#utility.yul\":4503:4508   */\n      dup3\n        /* \"#utility.yul\":4472:4509   */\n      tag_183\n      jump\t// in\n    tag_276:\n        /* \"#utility.yul\":4459:4509   */\n      swap1\n      pop\n        /* \"#utility.yul\":4375:4515   */\n      swap2\n      swap1\n      pop\n      jump\t// out\n        /* \"#utility.yul\":4521:4680   */\n    tag_185:\n        /* \"#utility.yul\":4622:4673   */\n      tag_278\n        /* \"#utility.yul\":4667:4672   */\n      dup2\n        /* \"#utility.yul\":4622:4673   */\n      tag_184\n      jump\t// in\n    tag_278:\n        /* \"#utility.yul\":4617:4620   */\n      dup3\n        /* \"#utility.yul\":4610:4674   */\n      mstore\n        /* \"#utility.yul\":4521:4680   */\n      pop\n      pop\n      jump\t// out\n        /* \"#utility.yul\":4686:4936   */\n    tag_39:\n        /* \"#utility.yul\":4793:4797   */\n      0x00\n        /* \"#utility.yul\":4831:4833   */\n      0x20\n        /* \"#utility.yul\":4820:4829   */\n      dup3\n        /* \"#utility.yul\":4816:4834   */\n      add\n        /* \"#utility.yul\":4808:4834   */\n      swap1\n      pop\n        /* \"#utility.yul\":4844:4929   */\n      tag_280\n        /* \"#utility.yul\":4926:4927   */\n      0x00\n        /* \"#utility.yul\":4915:4924   */\n      dup4\n        /* \"#utility.yul\":4911:4928   */\n      add\n        /* \"#utility.yul\":4902:4908   */\n      dup5\n        /* \"#utility.yul\":4844:4929   */\n      tag_185\n      jump\t// in\n    tag_280:\n        /* \"#utility.yul\":4686:4936   */\n      swap3\n      swap2\n      pop\n      pop\n      jump\t// out\n        /* \"#utility.yul\":4942:5927   */\n    tag_43:\n        /* \"#utility.yul\":5225:5229   */\n      0x00\n        /* \"#utility.yul\":5263:5266   */\n      0x0100\n        /* \"#utility.yul\":5252:5261   */\n      dup3\n        /* \"#utility.yul\":5248:5267   */\n      add\n        /* \"#utility.yul\":5240:5267   */\n      swap1\n      pop\n        /* \"#utility.yul\":5277:5348   */\n      tag_282\n        /* \"#utility.yul\":5345:5346   */\n      0x00\n        /* \"#utility.yul\":5334:5343   */\n      dup4\n        /* \"#utility.yul\":5330:5347   */\n      add\n        /* \"#utility.yul\":5321:5327   */\n      dup12\n        /* \"#utility.yul\":5277:5348   */\n      tag_175\n      jump\t// in\n    tag_282:\n        /* \"#utility.yul\":5358:5430   */\n      tag_283\n        /* \"#utility.yul\":5426:5428   */\n      0x20\n        /* \"#utility.yul\":5415:5424   */\n      dup4\n        /* \"#utility.yul\":5411:5429   */\n      add\n        /* \"#utility.yul\":5402:5408   */\n      dup11\n        /* \"#utility.yul\":5358:5430   */\n      tag_175\n      jump\t// in\n    tag_283:\n        /* \"#utility.yul\":5440:5512   */\n      tag_284\n        /* \"#utility.yul\":5508:5510   */\n      0x40\n        /* \"#utility.yul\":5497:5506   */\n      dup4\n        /* \"#utility.yul\":5493:5511   */\n      add\n        /* \"#utility.yul\":5484:5490   */\n      dup10\n        /* \"#utility.yul\":5440:5512   */\n      tag_175\n      jump\t// in\n    tag_284:\n        /* \"#utility.yul\":5522:5594   */\n      tag_285\n        /* \"#utility.yul\":5590:5592   */\n      0x60\n        /* \"#utility.yul\":5579:5588   */\n      dup4\n        /* \"#utility.yul\":5575:5593   */\n      add\n        /* \"#utility.yul\":5566:5572   */\n      dup9\n        /* \"#utility.yul\":5522:5594   */\n      tag_175\n      jump\t// in\n    tag_285:\n        /* \"#utility.yul\":5604:5677   */\n      tag_286\n        /* \"#utility.yul\":5672:5675   */\n      0x80\n        /* \"#utility.yul\":5661:5670   */\n      dup4\n        /* \"#utility.yul\":5657:5676   */\n      add\n        /* \"#utility.yul\":5648:5654   */\n      dup8\n        /* \"#utility.yul\":5604:5677   */\n      tag_176\n      jump\t// in\n    tag_286:\n        /* \"#utility.yul\":5687:5760   */\n      tag_287\n        /* \"#utility.yul\":5755:5758   */\n      0xa0\n        /* \"#utility.yul\":5744:5753   */\n      dup4\n        /* \"#utility.yul\":5740:5759   */\n      add\n        /* \"#utility.yul\":5731:5737   */\n      dup7\n        /* \"#utility.yul\":5687:5760   */\n      tag_175\n      jump\t// in\n    tag_287:\n        /* \"#utility.yul\":5770:5843   */\n      tag_288\n        /* \"#utility.yul\":5838:5841   */\n      0xc0\n        /* \"#utility.yul\":5827:5836   */\n      dup4\n        /* \"#utility.yul\":5823:5842   */\n      add\n        /* \"#utility.yul\":5814:5820   */\n      dup6\n        /* \"#utility.yul\":5770:5843   */\n      tag_175\n      jump\t// in\n    tag_288:\n        /* \"#utility.yul\":5853:5920   */\n      tag_289\n        /* \"#utility.yul\":5915:5918   */\n      0xe0\n        /* \"#utility.yul\":5904:5913   */\n      dup4\n        /* \"#utility.yul\":5900:5919   */\n      add\n        /* \"#utility.yul\":5891:5897   */\n      dup5\n        /* \"#utility.yul\":5853:5920   */\n      tag_178\n      jump\t// in\n    tag_289:\n        /* \"#utility.yul\":4942:5927   */\n      swap10\n      swap9\n      pop\n      pop\n      pop\n      pop\n      pop\n      pop\n      pop\n      pop\n      pop\n      jump\t// out\n        /* \"#utility.yul\":5933:6102   */\n    tag_186:\n        /* \"#utility.yul\":6017:6028   */\n      0x00\n        /* \"#utility.yul\":6051:6057   */\n      dup3\n        /* \"#utility.yul\":6046:6049   */\n      dup3\n        /* \"#utility.yul\":6039:6058   */\n      mstore\n        /* \"#utility.yul\":6091:6095   */\n      0x20\n        /* \"#utility.yul\":6086:6089   */\n      dup3\n        /* \"#utility.yul\":6082:6096   */\n      add\n        /* \"#utility.yul\":6067:6096   */\n      swap1\n      pop\n        /* \"#utility.yul\":5933:6102   */\n      swap3\n      swap2\n      pop\n      pop\n      jump\t// out\n        /* \"#utility.yul\":6108:6274   */\n    tag_187:\n        /* \"#utility.yul\":6248:6266   */\n      0x4e6f7420746865206f70657261746f7200000000000000000000000000000000\n        /* \"#utility.yul\":6244:6245   */\n      0x00\n        /* \"#utility.yul\":6236:6242   */\n      dup3\n        /* \"#utility.yul\":6232:6246   */\n      add\n        /* \"#utility.yul\":6225:6267   */\n      mstore\n        /* \"#utility.yul\":6108:6274   */\n      pop\n      jump\t// out\n        /* \"#utility.yul\":6280:6646   */\n    tag_188:\n        /* \"#utility.yul\":6422:6425   */\n      0x00\n        /* \"#utility.yul\":6443:6510   */\n      tag_293\n        /* \"#utility.yul\":6507:6509   */\n      0x10\n        /* \"#utility.yul\":6502:6505   */\n      dup4\n        /* \"#utility.yul\":6443:6510   */\n      tag_186\n      jump\t// in\n    tag_293:\n        /* \"#utility.yul\":6436:6510   */\n      swap2\n      pop\n        /* \"#utility.yul\":6519:6612   */\n      tag_294\n        /* \"#utility.yul\":6608:6611   */\n      dup3\n        /* \"#utility.yul\":6519:6612   */\n      tag_187\n      jump\t// in\n    tag_294:\n        /* \"#utility.yul\":6637:6639   */\n      0x20\n        /* \"#utility.yul\":6632:6635   */\n      dup3\n        /* \"#utility.yul\":6628:6640   */\n      add\n        /* \"#utility.yul\":6621:6640   */\n      swap1\n      pop\n        /* \"#utility.yul\":6280:6646   */\n      swap2\n      swap1\n      pop\n      jump\t// out\n        /* \"#utility.yul\":6652:7071   */\n    tag_50:\n        /* \"#utility.yul\":6818:6822   */\n      0x00\n        /* \"#utility.yul\":6856:6858   */\n      0x20\n        /* \"#utility.yul\":6845:6854   */\n      dup3\n        /* \"#utility.yul\":6841:6859   */\n      add\n        /* \"#utility.yul\":6833:6859   */\n      swap1\n      pop\n        /* \"#utility.yul\":6905:6914   */\n      dup2\n        /* \"#utility.yul\":6899:6903   */\n      dup2\n        /* \"#utility.yul\":6895:6915   */\n      sub\n        /* \"#utility.yul\":6891:6892   */\n      0x00\n        /* \"#utility.yul\":6880:6889   */\n      dup4\n        /* \"#utility.yul\":6876:6893   */\n      add\n        /* \"#utility.yul\":6869:6916   */\n      mstore\n        /* \"#utility.yul\":6933:7064   */\n      tag_296\n        /* \"#utility.yul\":7059:7063   */\n      dup2\n        /* \"#utility.yul\":6933:7064   */\n      tag_188\n      jump\t// in\n    tag_296:\n        /* \"#utility.yul\":6925:7064   */\n      swap1\n      pop\n        /* \"#utility.yul\":6652:7071   */\n      swap2\n      swap1\n      pop\n      jump\t// out\n        /* \"#utility.yul\":7077:7243   */\n    tag_189:\n        /* \"#utility.yul\":7217:7235   */\n      0x496e76616c6964206f70657261746f7200000000000000000000000000000000\n        /* \"#utility.yul\":7213:7214   */\n      0x00\n        /* \"#utility.yul\":7205:7211   */\n      dup3\n        /* \"#utility.yul\":7201:7215   */\n      add\n        /* \"#utility.yul\":7194:7236   */\n      mstore\n        /* \"#utility.yul\":7077:7243   */\n      pop\n      jump\t// out\n        /* \"#utility.yul\":7249:7615   */\n    tag_190:\n        /* \"#utility.yul\":7391:7394   */\n      0x00\n        /* \"#utility.yul\":7412:7479   */\n      tag_299\n        /* \"#utility.yul\":7476:7478   */\n      0x10\n        /* \"#utility.yul\":7471:7474   */\n      dup4\n        /* \"#utility.yul\":7412:7479   */\n      tag_186\n      jump\t// in\n    tag_299:\n        /* \"#utility.yul\":7405:7479   */\n      swap2\n      pop\n        /* \"#utility.yul\":7488:7581   */\n      tag_300\n        /* \"#utility.yul\":7577:7580   */\n      dup3\n        /* \"#utility.yul\":7488:7581   */\n      tag_189\n      jump\t// in\n    tag_300:\n        /* \"#utility.yul\":7606:7608   */\n      0x20\n        /* \"#utility.yul\":7601:7604   */\n      dup3\n        /* \"#utility.yul\":7597:7609   */\n      add\n        /* \"#utility.yul\":7590:7609   */\n      swap1\n      pop\n        /* \"#utility.yul\":7249:7615   */\n      swap2\n      swap1\n      pop\n      jump\t// out\n        /* \"#utility.yul\":7621:8040   */\n    tag_54:\n        /* \"#utility.yul\":7787:7791   */\n      0x00\n        /* \"#utility.yul\":7825:7827   */\n      0x20\n        /* \"#utility.yul\":7814:7823   */\n      dup3\n        /* \"#utility.yul\":7810:7828   */\n      add\n        /* \"#utility.yul\":7802:7828   */\n      swap1\n      pop\n        /* \"#utility.yul\":7874:7883   */\n      dup2\n        /* \"#utility.yul\":7868:7872   */\n      dup2\n        /* \"#utility.yul\":7864:7884   */\n      sub\n        /* \"#utility.yul\":7860:7861   */\n      0x00\n        /* \"#utility.yul\":7849:7858   */\n      dup4\n        /* \"#utility.yul\":7845:7862   */\n      add\n        /* \"#utility.yul\":7838:7885   */\n      mstore\n        /* \"#utility.yul\":7902:8033   */\n      tag_302\n        /* \"#utility.yul\":8028:8032   */\n      dup2\n        /* \"#utility.yul\":7902:8033   */\n      tag_190\n      jump\t// in\n    tag_302:\n        /* \"#utility.yul\":7894:8033   */\n      swap1\n      pop\n        /* \"#utility.yul\":7621:8040   */\n      swap2\n      swap1\n      pop\n      jump\t// out\n        /* \"#utility.yul\":8046:8267   */\n    tag_191:\n        /* \"#utility.yul\":8186:8220   */\n      0x5374617274207072696365206d7573742062652067726561746572207468616e\n        /* \"#utility.yul\":8182:8183   */\n      0x00\n        /* \"#utility.yul\":8174:8180   */\n      dup3\n        /* \"#utility.yul\":8170:8184   */\n      add\n        /* \"#utility.yul\":8163:8221   */\n      mstore\n        /* \"#utility.yul\":8255:8259   */\n      0x2030000000000000000000000000000000000000000000000000000000000000\n        /* \"#utility.yul\":8250:8252   */\n      0x20\n        /* \"#utility.yul\":8242:8248   */\n      dup3\n        /* \"#utility.yul\":8238:8253   */\n      add\n        /* \"#utility.yul\":8231:8260   */\n      mstore\n        /* \"#utility.yul\":8046:8267   */\n      pop\n      jump\t// out\n        /* \"#utility.yul\":8273:8639   */\n    tag_192:\n        /* \"#utility.yul\":8415:8418   */\n      0x00\n        /* \"#utility.yul\":8436:8503   */\n      tag_305\n        /* \"#utility.yul\":8500:8502   */\n      0x22\n        /* \"#utility.yul\":8495:8498   */\n      dup4\n        /* \"#utility.yul\":8436:8503   */\n      tag_186\n      jump\t// in\n    tag_305:\n        /* \"#utility.yul\":8429:8503   */\n      swap2\n      pop\n        /* \"#utility.yul\":8512:8605   */\n      tag_306\n        /* \"#utility.yul\":8601:8604   */\n      dup3\n        /* \"#utility.yul\":8512:8605   */\n      tag_191\n      jump\t// in\n    tag_306:\n        /* \"#utility.yul\":8630:8632   */\n      0x40\n        /* \"#utility.yul\":8625:8628   */\n      dup3\n        /* \"#utility.yul\":8621:8633   */\n      add\n        /* \"#utility.yul\":8614:8633   */\n      swap1\n      pop\n        /* \"#utility.yul\":8273:8639   */\n      swap2\n      swap1\n      pop\n      jump\t// out\n        /* \"#utility.yul\":8645:9064   */\n    tag_61:\n        /* \"#utility.yul\":8811:8815   */\n      0x00\n        /* \"#utility.yul\":8849:8851   */\n      0x20\n        /* \"#utility.yul\":8838:8847   */\n      dup3\n        /* \"#utility.yul\":8834:8852   */\n      add\n        /* \"#utility.yul\":8826:8852   */\n      swap1\n      pop\n        /* \"#utility.yul\":8898:8907   */\n      dup2\n        /* \"#utility.yul\":8892:8896   */\n      dup2\n        /* \"#utility.yul\":8888:8908   */\n      sub\n        /* \"#utility.yul\":8884:8885   */\n      0x00\n        /* \"#utility.yul\":8873:8882   */\n      dup4\n        /* \"#utility.yul\":8869:8886   */\n      add\n        /* \"#utility.yul\":8862:8909   */\n      mstore\n        /* \"#utility.yul\":8926:9057   */\n      tag_308\n        /* \"#utility.yul\":9052:9056   */\n      dup2\n        /* \"#utility.yul\":8926:9057   */\n      tag_192\n      jump\t// in\n    tag_308:\n        /* \"#utility.yul\":8918:9057   */\n      swap1\n      pop\n        /* \"#utility.yul\":8645:9064   */\n      swap2\n      swap1\n      pop\n      jump\t// out\n        /* \"#utility.yul\":9070:9252   */\n    tag_193:\n        /* \"#utility.yul\":9210:9244   */\n      0x456e64207072696365206d757374206265203c3d207374617274207072696365\n        /* \"#utility.yul\":9206:9207   */\n      0x00\n        /* \"#utility.yul\":9198:9204   */\n      dup3\n        /* \"#utility.yul\":9194:9208   */\n      add\n        /* \"#utility.yul\":9187:9245   */\n      mstore\n        /* \"#utility.yul\":9070:9252   */\n      pop\n      jump\t// out\n        /* \"#utility.yul\":9258:9624   */\n    tag_194:\n        /* \"#utility.yul\":9400:9403   */\n      0x00\n        /* \"#utility.yul\":9421:9488   */\n      tag_311\n        /* \"#utility.yul\":9485:9487   */\n      0x20\n        /* \"#utility.yul\":9480:9483   */\n      dup4\n        /* \"#utility.yul\":9421:9488   */\n      tag_186\n      jump\t// in\n    tag_311:\n        /* \"#utility.yul\":9414:9488   */\n      swap2\n      pop\n        /* \"#utility.yul\":9497:9590   */\n      tag_312\n        /* \"#utility.yul\":9586:9589   */\n      dup3\n        /* \"#utility.yul\":9497:9590   */\n      tag_193\n      jump\t// in\n    tag_312:\n        /* \"#utility.yul\":9615:9617   */\n      0x20\n        /* \"#utility.yul\":9610:9613   */\n      dup3\n        /* \"#utility.yul\":9606:9618   */\n      add\n        /* \"#utility.yul\":9599:9618   */\n      swap1\n      pop\n        /* \"#utility.yul\":9258:9624   */\n      swap2\n      swap1\n      pop\n      jump\t// out\n        /* \"#utility.yul\":9630:10049   */\n    tag_64:\n        /* \"#utility.yul\":9796:9800   */\n      0x00\n        /* \"#utility.yul\":9834:9836   */\n      0x20\n        /* \"#utility.yul\":9823:9832   */\n      dup3\n        /* \"#utility.yul\":9819:9837   */\n      add\n        /* \"#utility.yul\":9811:9837   */\n      swap1\n      pop\n        /* \"#utility.yul\":9883:9892   */\n      dup2\n        /* \"#utility.yul\":9877:9881   */\n      dup2\n        /* \"#utility.yul\":9873:9893   */\n      sub\n        /* \"#utility.yul\":9869:9870   */\n      0x00\n        /* \"#utility.yul\":9858:9867   */\n      dup4\n        /* \"#utility.yul\":9854:9871   */\n      add\n        /* \"#utility.yul\":9847:9894   */\n      mstore\n        /* \"#utility.yul\":9911:10042   */\n      tag_314\n        /* \"#utility.yul\":10037:10041   */\n      dup2\n        /* \"#utility.yul\":9911:10042   */\n      tag_194\n      jump\t// in\n    tag_314:\n        /* \"#utility.yul\":9903:10042   */\n      swap1\n      pop\n        /* \"#utility.yul\":9630:10049   */\n      swap2\n      swap1\n      pop\n      jump\t// out\n        /* \"#utility.yul\":10055:10608   */\n    tag_66:\n        /* \"#utility.yul\":10232:10236   */\n      0x00\n        /* \"#utility.yul\":10270:10273   */\n      0x80\n        /* \"#utility.yul\":10259:10268   */\n      dup3\n        /* \"#utility.yul\":10255:10274   */\n      add\n        /* \"#utility.yul\":10247:10274   */\n      swap1\n      pop\n        /* \"#utility.yul\":10284:10355   */\n      tag_316\n        /* \"#utility.yul\":10352:10353   */\n      0x00\n        /* \"#utility.yul\":10341:10350   */\n      dup4\n        /* \"#utility.yul\":10337:10354   */\n      add\n        /* \"#utility.yul\":10328:10334   */\n      dup8\n        /* \"#utility.yul\":10284:10355   */\n      tag_175\n      jump\t// in\n    tag_316:\n        /* \"#utility.yul\":10365:10437   */\n      tag_317\n        /* \"#utility.yul\":10433:10435   */\n      0x20\n        /* \"#utility.yul\":10422:10431   */\n      dup4\n        /* \"#utility.yul\":10418:10436   */\n      add\n        /* \"#utility.yul\":10409:10415   */\n      dup7\n        /* \"#utility.yul\":10365:10437   */\n      tag_175\n      jump\t// in\n    tag_317:\n        /* \"#utility.yul\":10447:10519   */\n      tag_318\n        /* \"#utility.yul\":10515:10517   */\n      0x40\n        /* \"#utility.yul\":10504:10513   */\n      dup4\n        /* \"#utility.yul\":10500:10518   */\n      add\n        /* \"#utility.yul\":10491:10497   */\n      dup6\n        /* \"#utility.yul\":10447:10519   */\n      tag_175\n      jump\t// in\n    tag_318:\n        /* \"#utility.yul\":10529:10601   */\n      tag_319\n        /* \"#utility.yul\":10597:10599   */\n      0x60\n        /* \"#utility.yul\":10586:10595   */\n      dup4\n        /* \"#utility.yul\":10582:10600   */\n      add\n        /* \"#utility.yul\":10573:10579   */\n      dup5\n        /* \"#utility.yul\":10529:10601   */\n      tag_175\n      jump\t// in\n    tag_319:\n        /* \"#utility.yul\":10055:10608   */\n      swap6\n      swap5\n      pop\n      pop\n      pop\n      pop\n      pop\n      jump\t// out\n        /* \"#utility.yul\":10614:10794   */\n    tag_195:\n        /* \"#utility.yul\":10662:10739   */\n      0x4e487b7100000000000000000000000000000000000000000000000000000000\n        /* \"#utility.yul\":10659:10660   */\n      0x00\n        /* \"#utility.yul\":10652:10740   */\n      mstore\n        /* \"#utility.yul\":10759:10763   */\n      0x11\n        /* \"#utility.yul\":10756:10757   */\n      0x04\n        /* \"#utility.yul\":10749:10764   */\n      mstore\n        /* \"#utility.yul\":10783:10787   */\n      0x24\n        /* \"#utility.yul\":10780:10781   */\n      0x00\n        /* \"#utility.yul\":10773:10788   */\n      revert\n        /* \"#utility.yul\":10800:10991   */\n    tag_73:\n        /* \"#utility.yul\":10840:10843   */\n      0x00\n        /* \"#utility.yul\":10859:10879   */\n      tag_322\n        /* \"#utility.yul\":10877:10878   */\n      dup3\n        /* \"#utility.yul\":10859:10879   */\n      tag_174\n      jump\t// in\n    tag_322:\n        /* \"#utility.yul\":10854:10879   */\n      swap2\n      pop\n        /* \"#utility.yul\":10893:10913   */\n      tag_323\n        /* \"#utility.yul\":10911:10912   */\n      dup4\n        /* \"#utility.yul\":10893:10913   */\n      tag_174\n      jump\t// in\n    tag_323:\n        /* \"#utility.yul\":10888:10913   */\n      swap3\n      pop\n        /* \"#utility.yul\":10936:10937   */\n      dup3\n        /* \"#utility.yul\":10933:10934   */\n      dup3\n        /* \"#utility.yul\":10929:10938   */\n      add\n        /* \"#utility.yul\":10922:10938   */\n      swap1\n      pop\n        /* \"#utility.yul\":10957:10960   */\n      dup1\n        /* \"#utility.yul\":10954:10955   */\n      dup3\n        /* \"#utility.yul\":10951:10961   */\n      gt\n        /* \"#utility.yul\":10948:10984   */\n      iszero\n      tag_324\n      jumpi\n        /* \"#utility.yul\":10964:10982   */\n      tag_325\n      tag_195\n      jump\t// in\n    tag_325:\n        /* \"#utility.yul\":10948:10984   */\n    tag_324:\n        /* \"#utility.yul\":10800:10991   */\n      swap3\n      swap2\n      pop\n      pop\n      jump\t// out\n        /* \"#utility.yul\":10997:11165   */\n    tag_196:\n        /* \"#utility.yul\":11137:11157   */\n      0x41756374696f6e206e6f74206163746976650000000000000000000000000000\n        /* \"#utility.yul\":11133:11134   */\n      0x00\n        /* \"#utility.yul\":11125:11131   */\n      dup3\n        /* \"#utility.yul\":11121:11135   */\n      add\n        /* \"#utility.yul\":11114:11158   */\n      mstore\n        /* \"#utility.yul\":10997:11165   */\n      pop\n      jump\t// out\n        /* \"#utility.yul\":11171:11537   */\n    tag_197:\n        /* \"#utility.yul\":11313:11316   */\n      0x00\n        /* \"#utility.yul\":11334:11401   */\n      tag_328\n        /* \"#utility.yul\":11398:11400   */\n      0x12\n        /* \"#utility.yul\":11393:11396   */\n      dup4\n        /* \"#utility.yul\":11334:11401   */\n      tag_186\n      jump\t// in\n    tag_328:\n        /* \"#utility.yul\":11327:11401   */\n      swap2\n      pop\n        /* \"#utility.yul\":11410:11503   */\n      tag_329\n        /* \"#utility.yul\":11499:11502   */\n      dup3\n        /* \"#utility.yul\":11410:11503   */\n      tag_196\n      jump\t// in\n    tag_329:\n        /* \"#utility.yul\":11528:11530   */\n      0x20\n        /* \"#utility.yul\":11523:11526   */\n      dup3\n        /* \"#utility.yul\":11519:11531   */\n      add\n        /* \"#utility.yul\":11512:11531   */\n      swap1\n      pop\n        /* \"#utility.yul\":11171:11537   */\n      swap2\n      swap1\n      pop\n      jump\t// out\n        /* \"#utility.yul\":11543:11962   */\n    tag_76:\n        /* \"#utility.yul\":11709:11713   */\n      0x00\n        /* \"#utility.yul\":11747:11749   */\n      0x20\n        /* \"#utility.yul\":11736:11745   */\n      dup3\n        /* \"#utility.yul\":11732:11750   */\n      add\n        /* \"#utility.yul\":11724:11750   */\n      swap1\n      pop\n        /* \"#utility.yul\":11796:11805   */\n      dup2\n        /* \"#utility.yul\":11790:11794   */\n      dup2\n        /* \"#utility.yul\":11786:11806   */\n      sub\n        /* \"#utility.yul\":11782:11783   */\n      0x00\n        /* \"#utility.yul\":11771:11780   */\n      dup4\n        /* \"#utility.yul\":11767:11784   */\n      add\n        /* \"#utility.yul\":11760:11807   */\n      mstore\n        /* \"#utility.yul\":11824:11955   */\n      tag_331\n        /* \"#utility.yul\":11950:11954   */\n      dup2\n        /* \"#utility.yul\":11824:11955   */\n      tag_197\n      jump\t// in\n    tag_331:\n        /* \"#utility.yul\":11816:11955   */\n      swap1\n      pop\n        /* \"#utility.yul\":11543:11962   */\n      swap2\n      swap1\n      pop\n      jump\t// out\n        /* \"#utility.yul\":11968:12139   */\n    tag_198:\n        /* \"#utility.yul\":12108:12131   */\n      0x41756374696f6e20616c726561647920656e6465640000000000000000000000\n        /* \"#utility.yul\":12104:12105   */\n      0x00\n        /* \"#utility.yul\":12096:12102   */\n      dup3\n        /* \"#utility.yul\":12092:12106   */\n      add\n        /* \"#utility.yul\":12085:12132   */\n      mstore\n        /* \"#utility.yul\":11968:12139   */\n      pop\n      jump\t// out\n        /* \"#utility.yul\":12145:12511   */\n    tag_199:\n        /* \"#utility.yul\":12287:12290   */\n      0x00\n        /* \"#utility.yul\":12308:12375   */\n      tag_334\n        /* \"#utility.yul\":12372:12374   */\n      0x15\n        /* \"#utility.yul\":12367:12370   */\n      dup4\n        /* \"#utility.yul\":12308:12375   */\n      tag_186\n      jump\t// in\n    tag_334:\n        /* \"#utility.yul\":12301:12375   */\n      swap2\n      pop\n        /* \"#utility.yul\":12384:12477   */\n      tag_335\n        /* \"#utility.yul\":12473:12476   */\n      dup3\n        /* \"#utility.yul\":12384:12477   */\n      tag_198\n      jump\t// in\n    tag_335:\n        /* \"#utility.yul\":12502:12504   */\n      0x20\n        /* \"#utility.yul\":12497:12500   */\n      dup3\n        /* \"#utility.yul\":12493:12505   */\n      add\n        /* \"#utility.yul\":12486:12505   */\n      swap1\n      pop\n        /* \"#utility.yul\":12145:12511   */\n      swap2\n      swap1\n      pop\n      jump\t// out\n        /* \"#utility.yul\":12517:12936   */\n    tag_79:\n        /* \"#utility.yul\":12683:12687   */\n      0x00\n        /* \"#utility.yul\":12721:12723   */\n      0x20\n        /* \"#utility.yul\":12710:12719   */\n      dup3\n        /* \"#utility.yul\":12706:12724   */\n      add\n        /* \"#utility.yul\":12698:12724   */\n      swap1\n      pop\n        /* \"#utility.yul\":12770:12779   */\n      dup2\n        /* \"#utility.yul\":12764:12768   */\n      dup2\n        /* \"#utility.yul\":12760:12780   */\n      sub\n        /* \"#utility.yul\":12756:12757   */\n      0x00\n        /* \"#utility.yul\":12745:12754   */\n      dup4\n        /* \"#utility.yul\":12741:12758   */\n      add\n        /* \"#utility.yul\":12734:12781   */\n      mstore\n        /* \"#utility.yul\":12798:12929   */\n      tag_337\n        /* \"#utility.yul\":12924:12928   */\n      dup2\n        /* \"#utility.yul\":12798:12929   */\n      tag_199\n      jump\t// in\n    tag_337:\n        /* \"#utility.yul\":12790:12929   */\n      swap1\n      pop\n        /* \"#utility.yul\":12517:12936   */\n      swap2\n      swap1\n      pop\n      jump\t// out\n        /* \"#utility.yul\":12942:13115   */\n    tag_200:\n        /* \"#utility.yul\":13082:13107   */\n      0x4269642062656c6f772063757272656e74207072696365000000000000000000\n        /* \"#utility.yul\":13078:13079   */\n      0x00\n        /* \"#utility.yul\":13070:13076   */\n      dup3\n        /* \"#utility.yul\":13066:13080   */\n      add\n        /* \"#utility.yul\":13059:13108   */\n      mstore\n        /* \"#utility.yul\":12942:13115   */\n      pop\n      jump\t// out\n        /* \"#utility.yul\":13121:13487   */\n    tag_201:\n        /* \"#utility.yul\":13263:13266   */\n      0x00\n        /* \"#utility.yul\":13284:13351   */\n      tag_340\n        /* \"#utility.yul\":13348:13350   */\n      0x17\n        /* \"#utility.yul\":13343:13346   */\n      dup4\n        /* \"#utility.yul\":13284:13351   */\n      tag_186\n      jump\t// in\n    tag_340:\n        /* \"#utility.yul\":13277:13351   */\n      swap2\n      pop\n        /* \"#utility.yul\":13360:13453   */\n      tag_341\n        /* \"#utility.yul\":13449:13452   */\n      dup3\n        /* \"#utility.yul\":13360:13453   */\n      tag_200\n      jump\t// in\n    tag_341:\n        /* \"#utility.yul\":13478:13480   */\n      0x20\n        /* \"#utility.yul\":13473:13476   */\n      dup3\n        /* \"#utility.yul\":13469:13481   */\n      add\n        /* \"#utility.yul\":13462:13481   */\n      swap1\n      pop\n        /* \"#utility.yul\":13121:13487   */\n      swap2\n      swap1\n      pop\n      jump\t// out\n        /* \"#utility.yul\":13493:13912   */\n    tag_84:\n        /* \"#utility.yul\":13659:13663   */\n      0x00\n        /* \"#utility.yul\":13697:13699   */\n      0x20\n        /* \"#utility.yul\":13686:13695   */\n      dup3\n        /* \"#utility.yul\":13682:13700   */\n      add\n        /* \"#utility.yul\":13674:13700   */\n      swap1\n      pop\n        /* \"#utility.yul\":13746:13755   */\n      dup2\n        /* \"#utility.yul\":13740:13744   */\n      dup2\n        /* \"#utility.yul\":13736:13756   */\n      sub\n        /* \"#utility.yul\":13732:13733   */\n      0x00\n        /* \"#utility.yul\":13721:13730   */\n      dup4\n        /* \"#utility.yul\":13717:13734   */\n      add\n        /* \"#utility.yul\":13710:13757   */\n      mstore\n        /* \"#utility.yul\":13774:13905   */\n      tag_343\n        /* \"#utility.yul\":13900:13904   */\n      dup2\n        /* \"#utility.yul\":13774:13905   */\n      tag_201\n      jump\t// in\n    tag_343:\n        /* \"#utility.yul\":13766:13905   */\n      swap1\n      pop\n        /* \"#utility.yul\":13493:13912   */\n      swap2\n      swap1\n      pop\n      jump\t// out\n        /* \"#utility.yul\":13918:14138   */\n    tag_202:\n        /* \"#utility.yul\":14058:14092   */\n      0x42696420616d6f756e74206d7573742062652067726561746572207468616e20\n        /* \"#utility.yul\":14054:14055   */\n      0x00\n        /* \"#utility.yul\":14046:14052   */\n      dup3\n        /* \"#utility.yul\":14042:14056   */\n      add\n        /* \"#utility.yul\":14035:14093   */\n      mstore\n        /* \"#utility.yul\":14127:14130   */\n      0x3000000000000000000000000000000000000000000000000000000000000000\n        /* \"#utility.yul\":14122:14124   */\n      0x20\n        /* \"#utility.yul\":14114:14120   */\n      dup3\n        /* \"#utility.yul\":14110:14125   */\n      add\n        /* \"#utility.yul\":14103:14131   */\n      mstore\n        /* \"#utility.yul\":13918:14138   */\n      pop\n      jump\t// out\n        /* \"#utility.yul\":14144:14510   */\n    tag_203:\n        /* \"#utility.yul\":14286:14289   */\n      0x00\n        /* \"#utility.yul\":14307:14374   */\n      tag_346\n        /* \"#utility.yul\":14371:14373   */\n      0x21\n        /* \"#utility.yul\":14366:14369   */\n      dup4\n        /* \"#utility.yul\":14307:14374   */\n      tag_186\n      jump\t// in\n    tag_346:\n        /* \"#utility.yul\":14300:14374   */\n      swap2\n      pop\n        /* \"#utility.yul\":14383:14476   */\n      tag_347\n        /* \"#utility.yul\":14472:14475   */\n      dup3\n        /* \"#utility.yul\":14383:14476   */\n      tag_202\n      jump\t// in\n    tag_347:\n        /* \"#utility.yul\":14501:14503   */\n      0x40\n        /* \"#utility.yul\":14496:14499   */\n      dup3\n        /* \"#utility.yul\":14492:14504   */\n      add\n        /* \"#utility.yul\":14485:14504   */\n      swap1\n      pop\n        /* \"#utility.yul\":14144:14510   */\n      swap2\n      swap1\n      pop\n      jump\t// out\n        /* \"#utility.yul\":14516:14935   */\n    tag_87:\n        /* \"#utility.yul\":14682:14686   */\n      0x00\n        /* \"#utility.yul\":14720:14722   */\n      0x20\n        /* \"#utility.yul\":14709:14718   */\n      dup3\n        /* \"#utility.yul\":14705:14723   */\n      add\n        /* \"#utility.yul\":14697:14723   */\n      swap1\n      pop\n        /* \"#utility.yul\":14769:14778   */\n      dup2\n        /* \"#utility.yul\":14763:14767   */\n      dup2\n        /* \"#utility.yul\":14759:14779   */\n      sub\n        /* \"#utility.yul\":14755:14756   */\n      0x00\n        /* \"#utility.yul\":14744:14753   */\n      dup4\n        /* \"#utility.yul\":14740:14757   */\n      add\n        /* \"#utility.yul\":14733:14780   */\n      mstore\n        /* \"#utility.yul\":14797:14928   */\n      tag_349\n        /* \"#utility.yul\":14923:14927   */\n      dup2\n        /* \"#utility.yul\":14797:14928   */\n      tag_203\n      jump\t// in\n    tag_349:\n        /* \"#utility.yul\":14789:14928   */\n      swap1\n      pop\n        /* \"#utility.yul\":14516:14935   */\n      swap2\n      swap1\n      pop\n      jump\t// out\n        /* \"#utility.yul\":14941:15273   */\n    tag_90:\n        /* \"#utility.yul\":15062:15066   */\n      0x00\n        /* \"#utility.yul\":15100:15102   */\n      0x40\n        /* \"#utility.yul\":15089:15098   */\n      dup3\n        /* \"#utility.yul\":15085:15103   */\n      add\n        /* \"#utility.yul\":15077:15103   */\n      swap1\n      pop\n        /* \"#utility.yul\":15113:15184   */\n      tag_351\n        /* \"#utility.yul\":15181:15182   */\n      0x00\n        /* \"#utility.yul\":15170:15179   */\n      dup4\n        /* \"#utility.yul\":15166:15183   */\n      add\n        /* \"#utility.yul\":15157:15163   */\n      dup6\n        /* \"#utility.yul\":15113:15184   */\n      tag_176\n      jump\t// in\n    tag_351:\n        /* \"#utility.yul\":15194:15266   */\n      tag_352\n        /* \"#utility.yul\":15262:15264   */\n      0x20\n        /* \"#utility.yul\":15251:15260   */\n      dup4\n        /* \"#utility.yul\":15247:15265   */\n      add\n        /* \"#utility.yul\":15238:15244   */\n      dup5\n        /* \"#utility.yul\":15194:15266   */\n      tag_176\n      jump\t// in\n    tag_352:\n        /* \"#utility.yul\":14941:15273   */\n      swap4\n      swap3\n      pop\n      pop\n      pop\n      jump\t// out\n        /* \"#utility.yul\":15279:15422   */\n    tag_204:\n        /* \"#utility.yul\":15336:15341   */\n      0x00\n        /* \"#utility.yul\":15367:15373   */\n      dup2\n        /* \"#utility.yul\":15361:15374   */\n      mload\n        /* \"#utility.yul\":15352:15374   */\n      swap1\n      pop\n        /* \"#utility.yul\":15383:15416   */\n      tag_354\n        /* \"#utility.yul\":15410:15415   */\n      dup2\n        /* \"#utility.yul\":15383:15416   */\n      tag_179\n      jump\t// in\n    tag_354:\n        /* \"#utility.yul\":15279:15422   */\n      swap3\n      swap2\n      pop\n      pop\n      jump\t// out\n        /* \"#utility.yul\":15428:15779   */\n    tag_94:\n        /* \"#utility.yul\":15498:15504   */\n      0x00\n        /* \"#utility.yul\":15547:15549   */\n      0x20\n        /* \"#utility.yul\":15535:15544   */\n      dup3\n        /* \"#utility.yul\":15526:15533   */\n      dup5\n        /* \"#utility.yul\":15522:15545   */\n      sub\n        /* \"#utility.yul\":15518:15550   */\n      slt\n        /* \"#utility.yul\":15515:15634   */\n      iszero\n      tag_356\n      jumpi\n        /* \"#utility.yul\":15553:15632   */\n      tag_357\n      tag_168\n      jump\t// in\n    tag_357:\n        /* \"#utility.yul\":15515:15634   */\n    tag_356:\n        /* \"#utility.yul\":15673:15674   */\n      0x00\n        /* \"#utility.yul\":15698:15762   */\n      tag_358\n        /* \"#utility.yul\":15754:15761   */\n      dup5\n        /* \"#utility.yul\":15745:15751   */\n      dup3\n        /* \"#utility.yul\":15734:15743   */\n      dup6\n        /* \"#utility.yul\":15730:15752   */\n      add\n        /* \"#utility.yul\":15698:15762   */\n      tag_204\n      jump\t// in\n    tag_358:\n        /* \"#utility.yul\":15688:15762   */\n      swap2\n      pop\n        /* \"#utility.yul\":15644:15772   */\n      pop\n        /* \"#utility.yul\":15428:15779   */\n      swap3\n      swap2\n      pop\n      pop\n      jump\t// out\n        /* \"#utility.yul\":15785:15957   */\n    tag_205:\n        /* \"#utility.yul\":15925:15949   */\n      0x496e73756666696369656e7420616c6c6f77616e636500000000000000000000\n        /* \"#utility.yul\":15921:15922   */\n      0x00\n        /* \"#utility.yul\":15913:15919   */\n      dup3\n        /* \"#utility.yul\":15909:15923   */\n      add\n        /* \"#utility.yul\":15902:15950   */\n      mstore\n        /* \"#utility.yul\":15785:15957   */\n      pop\n      jump\t// out\n        /* \"#utility.yul\":15963:16329   */\n    tag_206:\n        /* \"#utility.yul\":16105:16108   */\n      0x00\n        /* \"#utility.yul\":16126:16193   */\n      tag_361\n        /* \"#utility.yul\":16190:16192   */\n      0x16\n        /* \"#utility.yul\":16185:16188   */\n      dup4\n        /* \"#utility.yul\":16126:16193   */\n      tag_186\n      jump\t// in\n    tag_361:\n        /* \"#utility.yul\":16119:16193   */\n      swap2\n      pop\n        /* \"#utility.yul\":16202:16295   */\n      tag_362\n        /* \"#utility.yul\":16291:16294   */\n      dup3\n        /* \"#utility.yul\":16202:16295   */\n      tag_205\n      jump\t// in\n    tag_362:\n        /* \"#utility.yul\":16320:16322   */\n      0x20\n        /* \"#utility.yul\":16315:16318   */\n      dup3\n        /* \"#utility.yul\":16311:16323   */\n      add\n        /* \"#utility.yul\":16304:16323   */\n      swap1\n      pop\n        /* \"#utility.yul\":15963:16329   */\n      swap2\n      swap1\n      pop\n      jump\t// out\n        /* \"#utility.yul\":16335:16754   */\n    tag_97:\n        /* \"#utility.yul\":16501:16505   */\n      0x00\n        /* \"#utility.yul\":16539:16541   */\n      0x20\n        /* \"#utility.yul\":16528:16537   */\n      dup3\n        /* \"#utility.yul\":16524:16542   */\n      add\n        /* \"#utility.yul\":16516:16542   */\n      swap1\n      pop\n        /* \"#utility.yul\":16588:16597   */\n      dup2\n        /* \"#utility.yul\":16582:16586   */\n      dup2\n        /* \"#utility.yul\":16578:16598   */\n      sub\n        /* \"#utility.yul\":16574:16575   */\n      0x00\n        /* \"#utility.yul\":16563:16572   */\n      dup4\n        /* \"#utility.yul\":16559:16576   */\n      add\n        /* \"#utility.yul\":16552:16599   */\n      mstore\n        /* \"#utility.yul\":16616:16747   */\n      tag_364\n        /* \"#utility.yul\":16742:16746   */\n      dup2\n        /* \"#utility.yul\":16616:16747   */\n      tag_206\n      jump\t// in\n    tag_364:\n        /* \"#utility.yul\":16608:16747   */\n      swap1\n      pop\n        /* \"#utility.yul\":16335:16754   */\n      swap2\n      swap1\n      pop\n      jump\t// out\n        /* \"#utility.yul\":16760:16930   */\n    tag_207:\n        /* \"#utility.yul\":16900:16922   */\n      0x496e73756666696369656e742062616c616e6365000000000000000000000000\n        /* \"#utility.yul\":16896:16897   */\n      0x00\n        /* \"#utility.yul\":16888:16894   */\n      dup3\n        /* \"#utility.yul\":16884:16898   */\n      add\n        /* \"#utility.yul\":16877:16923   */\n      mstore\n        /* \"#utility.yul\":16760:16930   */\n      pop\n      jump\t// out\n        /* \"#utility.yul\":16936:17302   */\n    tag_208:\n        /* \"#utility.yul\":17078:17081   */\n      0x00\n        /* \"#utility.yul\":17099:17166   */\n      tag_367\n        /* \"#utility.yul\":17163:17165   */\n      0x14\n        /* \"#utility.yul\":17158:17161   */\n      dup4\n        /* \"#utility.yul\":17099:17166   */\n      tag_186\n      jump\t// in\n    tag_367:\n        /* \"#utility.yul\":17092:17166   */\n      swap2\n      pop\n        /* \"#utility.yul\":17175:17268   */\n      tag_368\n        /* \"#utility.yul\":17264:17267   */\n      dup3\n        /* \"#utility.yul\":17175:17268   */\n      tag_207\n      jump\t// in\n    tag_368:\n        /* \"#utility.yul\":17293:17295   */\n      0x20\n        /* \"#utility.yul\":17288:17291   */\n      dup3\n        /* \"#utility.yul\":17284:17296   */\n      add\n        /* \"#utility.yul\":17277:17296   */\n      swap1\n      pop\n        /* \"#utility.yul\":16936:17302   */\n      swap2\n      swap1\n      pop\n      jump\t// out\n        /* \"#utility.yul\":17308:17727   */\n    tag_104:\n        /* \"#utility.yul\":17474:17478   */\n      0x00\n        /* \"#utility.yul\":17512:17514   */\n      0x20\n        /* \"#utility.yul\":17501:17510   */\n      dup3\n        /* \"#utility.yul\":17497:17515   */\n      add\n        /* \"#utility.yul\":17489:17515   */\n      swap1\n      pop\n        /* \"#utility.yul\":17561:17570   */\n      dup2\n        /* \"#utility.yul\":17555:17559   */\n      dup2\n        /* \"#utility.yul\":17551:17571   */\n      sub\n        /* \"#utility.yul\":17547:17548   */\n      0x00\n        /* \"#utility.yul\":17536:17545   */\n      dup4\n        /* \"#utility.yul\":17532:17549   */\n      add\n        /* \"#utility.yul\":17525:17572   */\n      mstore\n        /* \"#utility.yul\":17589:17720   */\n      tag_370\n        /* \"#utility.yul\":17715:17719   */\n      dup2\n        /* \"#utility.yul\":17589:17720   */\n      tag_208\n      jump\t// in\n    tag_370:\n        /* \"#utility.yul\":17581:17720   */\n      swap1\n      pop\n        /* \"#utility.yul\":17308:17727   */\n      swap2\n      swap1\n      pop\n      jump\t// out\n        /* \"#utility.yul\":17733:18175   */\n    tag_106:\n        /* \"#utility.yul\":17882:17886   */\n      0x00\n        /* \"#utility.yul\":17920:17922   */\n      0x60\n        /* \"#utility.yul\":17909:17918   */\n      dup3\n        /* \"#utility.yul\":17905:17923   */\n      add\n        /* \"#utility.yul\":17897:17923   */\n      swap1\n      pop\n        /* \"#utility.yul\":17933:18004   */\n      tag_372\n        /* \"#utility.yul\":18001:18002   */\n      0x00\n        /* \"#utility.yul\":17990:17999   */\n      dup4\n        /* \"#utility.yul\":17986:18003   */\n      add\n        /* \"#utility.yul\":17977:17983   */\n      dup7\n        /* \"#utility.yul\":17933:18004   */\n      tag_176\n      jump\t// in\n    tag_372:\n        /* \"#utility.yul\":18014:18086   */\n      tag_373\n        /* \"#utility.yul\":18082:18084   */\n      0x20\n        /* \"#utility.yul\":18071:18080   */\n      dup4\n        /* \"#utility.yul\":18067:18085   */\n      add\n        /* \"#utility.yul\":18058:18064   */\n      dup6\n        /* \"#utility.yul\":18014:18086   */\n      tag_176\n      jump\t// in\n    tag_373:\n        /* \"#utility.yul\":18096:18168   */\n      tag_374\n        /* \"#utility.yul\":18164:18166   */\n      0x40\n        /* \"#utility.yul\":18153:18162   */\n      dup4\n        /* \"#utility.yul\":18149:18167   */\n      add\n        /* \"#utility.yul\":18140:18146   */\n      dup5\n        /* \"#utility.yul\":18096:18168   */\n      tag_175\n      jump\t// in\n    tag_374:\n        /* \"#utility.yul\":17733:18175   */\n      swap5\n      swap4\n      pop\n      pop\n      pop\n      pop\n      jump\t// out\n        /* \"#utility.yul\":18181:18297   */\n    tag_209:\n        /* \"#utility.yul\":18251:18272   */\n      tag_376\n        /* \"#utility.yul\":18266:18271   */\n      dup2\n        /* \"#utility.yul\":18251:18272   */\n      tag_177\n      jump\t// in\n    tag_376:\n        /* \"#utility.yul\":18244:18249   */\n      dup2\n        /* \"#utility.yul\":18241:18273   */\n      eq\n        /* \"#utility.yul\":18231:18291   */\n      tag_377\n      jumpi\n        /* \"#utility.yul\":18287:18288   */\n      0x00\n        /* \"#utility.yul\":18284:18285   */\n      0x00\n        /* \"#utility.yul\":18277:18289   */\n      revert\n        /* \"#utility.yul\":18231:18291   */\n    tag_377:\n        /* \"#utility.yul\":18181:18297   */\n      pop\n      jump\t// out\n        /* \"#utility.yul\":18303:18440   */\n    tag_210:\n        /* \"#utility.yul\":18357:18362   */\n      0x00\n        /* \"#utility.yul\":18388:18394   */\n      dup2\n        /* \"#utility.yul\":18382:18395   */\n      mload\n        /* \"#utility.yul\":18373:18395   */\n      swap1\n      pop\n        /* \"#utility.yul\":18404:18434   */\n      tag_379\n        /* \"#utility.yul\":18428:18433   */\n      dup2\n        /* \"#utility.yul\":18404:18434   */\n      tag_209\n      jump\t// in\n    tag_379:\n        /* \"#utility.yul\":18303:18440   */\n      swap3\n      swap2\n      pop\n      pop\n      jump\t// out\n        /* \"#utility.yul\":18446:18791   */\n    tag_110:\n        /* \"#utility.yul\":18513:18519   */\n      0x00\n        /* \"#utility.yul\":18562:18564   */\n      0x20\n        /* \"#utility.yul\":18550:18559   */\n      dup3\n        /* \"#utility.yul\":18541:18548   */\n      dup5\n        /* \"#utility.yul\":18537:18560   */\n      sub\n        /* \"#utility.yul\":18533:18565   */\n      slt\n        /* \"#utility.yul\":18530:18649   */\n      iszero\n      tag_381\n      jumpi\n        /* \"#utility.yul\":18568:18647   */\n      tag_382\n      tag_168\n      jump\t// in\n    tag_382:\n        /* \"#utility.yul\":18530:18649   */\n    tag_381:\n        /* \"#utility.yul\":18688:18689   */\n      0x00\n        /* \"#utility.yul\":18713:18774   */\n      tag_383\n        /* \"#utility.yul\":18766:18773   */\n      dup5\n        /* \"#utility.yul\":18757:18763   */\n      dup3\n        /* \"#utility.yul\":18746:18755   */\n      dup6\n        /* \"#utility.yul\":18742:18764   */\n      add\n        /* \"#utility.yul\":18713:18774   */\n      tag_210\n      jump\t// in\n    tag_383:\n        /* \"#utility.yul\":18703:18774   */\n      swap2\n      pop\n        /* \"#utility.yul\":18659:18784   */\n      pop\n        /* \"#utility.yul\":18446:18791   */\n      swap3\n      swap2\n      pop\n      pop\n      jump\t// out\n        /* \"#utility.yul\":18797:18968   */\n    tag_211:\n        /* \"#utility.yul\":18937:18960   */\n      0x546f6b656e207472616e73666572206661696c65640000000000000000000000\n        /* \"#utility.yul\":18933:18934   */\n      0x00\n        /* \"#utility.yul\":18925:18931   */\n      dup3\n        /* \"#utility.yul\":18921:18935   */\n      add\n        /* \"#utility.yul\":18914:18961   */\n      mstore\n        /* \"#utility.yul\":18797:18968   */\n      pop\n      jump\t// out\n        /* \"#utility.yul\":18974:19340   */\n    tag_212:\n        /* \"#utility.yul\":19116:19119   */\n      0x00\n        /* \"#utility.yul\":19137:19204   */\n      tag_386\n        /* \"#utility.yul\":19201:19203   */\n      0x15\n        /* \"#utility.yul\":19196:19199   */\n      dup4\n        /* \"#utility.yul\":19137:19204   */\n      tag_186\n      jump\t// in\n    tag_386:\n        /* \"#utility.yul\":19130:19204   */\n      swap2\n      pop\n        /* \"#utility.yul\":19213:19306   */\n      tag_387\n        /* \"#utility.yul\":19302:19305   */\n      dup3\n        /* \"#utility.yul\":19213:19306   */\n      tag_211\n      jump\t// in\n    tag_387:\n        /* \"#utility.yul\":19331:19333   */\n      0x20\n        /* \"#utility.yul\":19326:19329   */\n      dup3\n        /* \"#utility.yul\":19322:19334   */\n      add\n        /* \"#utility.yul\":19315:19334   */\n      swap1\n      pop\n        /* \"#utility.yul\":18974:19340   */\n      swap2\n      swap1\n      pop\n      jump\t// out\n        /* \"#utility.yul\":19346:19765   */\n    tag_113:\n        /* \"#utility.yul\":19512:19516   */\n      0x00\n        /* \"#utility.yul\":19550:19552   */\n      0x20\n        /* \"#utility.yul\":19539:19548   */\n      dup3\n        /* \"#utility.yul\":19535:19553   */\n      add\n        /* \"#utility.yul\":19527:19553   */\n      swap1\n      pop\n        /* \"#utility.yul\":19599:19608   */\n      dup2\n        /* \"#utility.yul\":19593:19597   */\n      dup2\n        /* \"#utility.yul\":19589:19609   */\n      sub\n        /* \"#utility.yul\":19585:19586   */\n      0x00\n        /* \"#utility.yul\":19574:19583   */\n      dup4\n        /* \"#utility.yul\":19570:19587   */\n      add\n        /* \"#utility.yul\":19563:19610   */\n      mstore\n        /* \"#utility.yul\":19627:19758   */\n      tag_389\n        /* \"#utility.yul\":19753:19757   */\n      dup2\n        /* \"#utility.yul\":19627:19758   */\n      tag_212\n      jump\t// in\n    tag_389:\n        /* \"#utility.yul\":19619:19758   */\n      swap1\n      pop\n        /* \"#utility.yul\":19346:19765   */\n      swap2\n      swap1\n      pop\n      jump\t// out\n        /* \"#utility.yul\":19771:20213   */\n    tag_115:\n        /* \"#utility.yul\":19920:19924   */\n      0x00\n        /* \"#utility.yul\":19958:19960   */\n      0x60\n        /* \"#utility.yul\":19947:19956   */\n      dup3\n        /* \"#utility.yul\":19943:19961   */\n      add\n        /* \"#utility.yul\":19935:19961   */\n      swap1\n      pop\n        /* \"#utility.yul\":19971:20042   */\n      tag_391\n        /* \"#utility.yul\":20039:20040   */\n      0x00\n        /* \"#utility.yul\":20028:20037   */\n      dup4\n        /* \"#utility.yul\":20024:20041   */\n      add\n        /* \"#utility.yul\":20015:20021   */\n      dup7\n        /* \"#utility.yul\":19971:20042   */\n      tag_176\n      jump\t// in\n    tag_391:\n        /* \"#utility.yul\":20052:20124   */\n      tag_392\n        /* \"#utility.yul\":20120:20122   */\n      0x20\n        /* \"#utility.yul\":20109:20118   */\n      dup4\n        /* \"#utility.yul\":20105:20123   */\n      add\n        /* \"#utility.yul\":20096:20102   */\n      dup6\n        /* \"#utility.yul\":20052:20124   */\n      tag_175\n      jump\t// in\n    tag_392:\n        /* \"#utility.yul\":20134:20206   */\n      tag_393\n        /* \"#utility.yul\":20202:20204   */\n      0x40\n        /* \"#utility.yul\":20191:20200   */\n      dup4\n        /* \"#utility.yul\":20187:20205   */\n      add\n        /* \"#utility.yul\":20178:20184   */\n      dup5\n        /* \"#utility.yul\":20134:20206   */\n      tag_175\n      jump\t// in\n    tag_393:\n        /* \"#utility.yul\":19771:20213   */\n      swap5\n      swap4\n      pop\n      pop\n      pop\n      pop\n      jump\t// out\n        /* \"#utility.yul\":20219:20401   */\n    tag_213:\n        /* \"#utility.yul\":20359:20393   */\n      0x4d7573742062696420686967686572207468616e2063757272656e7420626964\n        /* \"#utility.yul\":20355:20356   */\n      0x00\n        /* \"#utility.yul\":20347:20353   */\n      dup3\n        /* \"#utility.yul\":20343:20357   */\n      add\n        /* \"#utility.yul\":20336:20394   */\n      mstore\n        /* \"#utility.yul\":20219:20401   */\n      pop\n      jump\t// out\n        /* \"#utility.yul\":20407:20773   */\n    tag_214:\n        /* \"#utility.yul\":20549:20552   */\n      0x00\n        /* \"#utility.yul\":20570:20637   */\n      tag_396\n        /* \"#utility.yul\":20634:20636   */\n      0x20\n        /* \"#utility.yul\":20629:20632   */\n      dup4\n        /* \"#utility.yul\":20570:20637   */\n      tag_186\n      jump\t// in\n    tag_396:\n        /* \"#utility.yul\":20563:20637   */\n      swap2\n      pop\n        /* \"#utility.yul\":20646:20739   */\n      tag_397\n        /* \"#utility.yul\":20735:20738   */\n      dup3\n        /* \"#utility.yul\":20646:20739   */\n      tag_213\n      jump\t// in\n    tag_397:\n        /* \"#utility.yul\":20764:20766   */\n      0x20\n        /* \"#utility.yul\":20759:20762   */\n      dup3\n        /* \"#utility.yul\":20755:20767   */\n      add\n        /* \"#utility.yul\":20748:20767   */\n      swap1\n      pop\n        /* \"#utility.yul\":20407:20773   */\n      swap2\n      swap1\n      pop\n      jump\t// out\n        /* \"#utility.yul\":20779:21198   */\n    tag_120:\n        /* \"#utility.yul\":20945:20949   */\n      0x00\n        /* \"#utility.yul\":20983:20985   */\n      0x20\n        /* \"#utility.yul\":20972:20981   */\n      dup3\n        /* \"#utility.yul\":20968:20986   */\n      add\n        /* \"#utility.yul\":20960:20986   */\n      swap1\n      pop\n        /* \"#utility.yul\":21032:21041   */\n      dup2\n        /* \"#utility.yul\":21026:21030   */\n      dup2\n        /* \"#utility.yul\":21022:21042   */\n      sub\n        /* \"#utility.yul\":21018:21019   */\n      0x00\n        /* \"#utility.yul\":21007:21016   */\n      dup4\n        /* \"#utility.yul\":21003:21020   */\n      add\n        /* \"#utility.yul\":20996:21043   */\n      mstore\n        /* \"#utility.yul\":21060:21191   */\n      tag_399\n        /* \"#utility.yul\":21186:21190   */\n      dup2\n        /* \"#utility.yul\":21060:21191   */\n      tag_214\n      jump\t// in\n    tag_399:\n        /* \"#utility.yul\":21052:21191   */\n      swap1\n      pop\n        /* \"#utility.yul\":20779:21198   */\n      swap2\n      swap1\n      pop\n      jump\t// out\n        /* \"#utility.yul\":21204:21384   */\n    tag_215:\n        /* \"#utility.yul\":21344:21376   */\n      0x4d696e696d756d2062696420706572696f64206e6f7420656c61707365640000\n        /* \"#utility.yul\":21340:21341   */\n      0x00\n        /* \"#utility.yul\":21332:21338   */\n      dup3\n        /* \"#utility.yul\":21328:21342   */\n      add\n        /* \"#utility.yul\":21321:21377   */\n      mstore\n        /* \"#utility.yul\":21204:21384   */\n      pop\n      jump\t// out\n        /* \"#utility.yul\":21390:21756   */\n    tag_216:\n        /* \"#utility.yul\":21532:21535   */\n      0x00\n        /* \"#utility.yul\":21553:21620   */\n      tag_402\n        /* \"#utility.yul\":21617:21619   */\n      0x1e\n        /* \"#utility.yul\":21612:21615   */\n      dup4\n        /* \"#utility.yul\":21553:21620   */\n      tag_186\n      jump\t// in\n    tag_402:\n        /* \"#utility.yul\":21546:21620   */\n      swap2\n      pop\n        /* \"#utility.yul\":21629:21722   */\n      tag_403\n        /* \"#utility.yul\":21718:21721   */\n      dup3\n        /* \"#utility.yul\":21629:21722   */\n      tag_215\n      jump\t// in\n    tag_403:\n        /* \"#utility.yul\":21747:21749   */\n      0x20\n        /* \"#utility.yul\":21742:21745   */\n      dup3\n        /* \"#utility.yul\":21738:21750   */\n      add\n        /* \"#utility.yul\":21731:21750   */\n      swap1\n      pop\n        /* \"#utility.yul\":21390:21756   */\n      swap2\n      swap1\n      pop\n      jump\t// out\n        /* \"#utility.yul\":21762:22181   */\n    tag_124:\n        /* \"#utility.yul\":21928:21932   */\n      0x00\n        /* \"#utility.yul\":21966:21968   */\n      0x20\n        /* \"#utility.yul\":21955:21964   */\n      dup3\n        /* \"#utility.yul\":21951:21969   */\n      add\n        /* \"#utility.yul\":21943:21969   */\n      swap1\n      pop\n        /* \"#utility.yul\":22015:22024   */\n      dup2\n        /* \"#utility.yul\":22009:22013   */\n      dup2\n        /* \"#utility.yul\":22005:22025   */\n      sub\n        /* \"#utility.yul\":22001:22002   */\n      0x00\n        /* \"#utility.yul\":21990:21999   */\n      dup4\n        /* \"#utility.yul\":21986:22003   */\n      add\n        /* \"#utility.yul\":21979:22026   */\n      mstore\n        /* \"#utility.yul\":22043:22174   */\n      tag_405\n        /* \"#utility.yul\":22169:22173   */\n      dup2\n        /* \"#utility.yul\":22043:22174   */\n      tag_216\n      jump\t// in\n    tag_405:\n        /* \"#utility.yul\":22035:22174   */\n      swap1\n      pop\n        /* \"#utility.yul\":21762:22181   */\n      swap2\n      swap1\n      pop\n      jump\t// out\n        /* \"#utility.yul\":22187:22381   */\n    tag_152:\n        /* \"#utility.yul\":22227:22231   */\n      0x00\n        /* \"#utility.yul\":22247:22267   */\n      tag_407\n        /* \"#utility.yul\":22265:22266   */\n      dup3\n        /* \"#utility.yul\":22247:22267   */\n      tag_174\n      jump\t// in\n    tag_407:\n        /* \"#utility.yul\":22242:22267   */\n      swap2\n      pop\n        /* \"#utility.yul\":22281:22301   */\n      tag_408\n        /* \"#utility.yul\":22299:22300   */\n      dup4\n        /* \"#utility.yul\":22281:22301   */\n      tag_174\n      jump\t// in\n    tag_408:\n        /* \"#utility.yul\":22276:22301   */\n      swap3\n      pop\n        /* \"#utility.yul\":22325:22326   */\n      dup3\n        /* \"#utility.yul\":22322:22323   */\n      dup3\n        /* \"#utility.yul\":22318:22327   */\n      sub\n        /* \"#utility.yul\":22310:22327   */\n      swap1\n      pop\n        /* \"#utility.yul\":22349:22350   */\n      dup2\n        /* \"#utility.yul\":22343:22347   */\n      dup2\n        /* \"#utility.yul\":22340:22351   */\n      gt\n        /* \"#utility.yul\":22337:22374   */\n      iszero\n      tag_409\n      jumpi\n        /* \"#utility.yul\":22354:22372   */\n      tag_410\n      tag_195\n      jump\t// in\n    tag_410:\n        /* \"#utility.yul\":22337:22374   */\n    tag_409:\n        /* \"#utility.yul\":22187:22381   */\n      swap3\n      swap2\n      pop\n      pop\n      jump\t// out\n        /* \"#utility.yul\":22387:22797   */\n    tag_156:\n        /* \"#utility.yul\":22427:22434   */\n      0x00\n        /* \"#utility.yul\":22450:22470   */\n      tag_412\n        /* \"#utility.yul\":22468:22469   */\n      dup3\n        /* \"#utility.yul\":22450:22470   */\n      tag_174\n      jump\t// in\n    tag_412:\n        /* \"#utility.yul\":22445:22470   */\n      swap2\n      pop\n        /* \"#utility.yul\":22484:22504   */\n      tag_413\n        /* \"#utility.yul\":22502:22503   */\n      dup4\n        /* \"#utility.yul\":22484:22504   */\n      tag_174\n      jump\t// in\n    tag_413:\n        /* \"#utility.yul\":22479:22504   */\n      swap3\n      pop\n        /* \"#utility.yul\":22539:22540   */\n      dup3\n        /* \"#utility.yul\":22536:22537   */\n      dup3\n        /* \"#utility.yul\":22532:22541   */\n      mul\n        /* \"#utility.yul\":22561:22591   */\n      tag_414\n        /* \"#utility.yul\":22579:22590   */\n      dup2\n        /* \"#utility.yul\":22561:22591   */\n      tag_174\n      jump\t// in\n    tag_414:\n        /* \"#utility.yul\":22550:22591   */\n      swap2\n      pop\n        /* \"#utility.yul\":22740:22741   */\n      dup3\n        /* \"#utility.yul\":22731:22738   */\n      dup3\n        /* \"#utility.yul\":22727:22742   */\n      div\n        /* \"#utility.yul\":22724:22725   */\n      dup5\n        /* \"#utility.yul\":22721:22743   */\n      eq\n        /* \"#utility.yul\":22701:22702   */\n      dup4\n        /* \"#utility.yul\":22694:22703   */\n      iszero\n        /* \"#utility.yul\":22674:22757   */\n      or\n        /* \"#utility.yul\":22651:22790   */\n      tag_415\n      jumpi\n        /* \"#utility.yul\":22770:22788   */\n      tag_416\n      tag_195\n      jump\t// in\n    tag_416:\n        /* \"#utility.yul\":22651:22790   */\n    tag_415:\n        /* \"#utility.yul\":22435:22797   */\n      pop\n        /* \"#utility.yul\":22387:22797   */\n      swap3\n      swap2\n      pop\n      pop\n      jump\t// out\n        /* \"#utility.yul\":22803:22983   */\n    tag_217:\n        /* \"#utility.yul\":22851:22928   */\n      0x4e487b7100000000000000000000000000000000000000000000000000000000\n        /* \"#utility.yul\":22848:22849   */\n      0x00\n        /* \"#utility.yul\":22841:22929   */\n      mstore\n        /* \"#utility.yul\":22948:22952   */\n      0x12\n        /* \"#utility.yul\":22945:22946   */\n      0x04\n        /* \"#utility.yul\":22938:22953   */\n      mstore\n        /* \"#utility.yul\":22972:22976   */\n      0x24\n        /* \"#utility.yul\":22969:22970   */\n      0x00\n        /* \"#utility.yul\":22962:22977   */\n      revert\n        /* \"#utility.yul\":22989:23174   */\n    tag_159:\n        /* \"#utility.yul\":23029:23030   */\n      0x00\n        /* \"#utility.yul\":23046:23066   */\n      tag_419\n        /* \"#utility.yul\":23064:23065   */\n      dup3\n        /* \"#utility.yul\":23046:23066   */\n      tag_174\n      jump\t// in\n    tag_419:\n        /* \"#utility.yul\":23041:23066   */\n      swap2\n      pop\n        /* \"#utility.yul\":23080:23100   */\n      tag_420\n        /* \"#utility.yul\":23098:23099   */\n      dup4\n        /* \"#utility.yul\":23080:23100   */\n      tag_174\n      jump\t// in\n    tag_420:\n        /* \"#utility.yul\":23075:23100   */\n      swap3\n      pop\n        /* \"#utility.yul\":23119:23120   */\n      dup3\n        /* \"#utility.yul\":23109:23144   */\n      tag_421\n      jumpi\n        /* \"#utility.yul\":23124:23142   */\n      tag_422\n      tag_217\n      jump\t// in\n    tag_422:\n        /* \"#utility.yul\":23109:23144   */\n    tag_421:\n        /* \"#utility.yul\":23166:23167   */\n      dup3\n        /* \"#utility.yul\":23163:23164   */\n      dup3\n        /* \"#utility.yul\":23159:23168   */\n      div\n        /* \"#utility.yul\":23154:23168   */\n      swap1\n      pop\n        /* \"#utility.yul\":22989:23174   */\n      swap3\n      swap2\n      pop\n      pop\n      jump\t// out\n        /* \"#utility.yul\":23180:23361   */\n    tag_218:\n        /* \"#utility.yul\":23320:23353   */\n      0x5265656e7472616e637947756172643a207265656e7472616e742063616c6c00\n        /* \"#utility.yul\":23316:23317   */\n      0x00\n        /* \"#utility.yul\":23308:23314   */\n      dup3\n        /* \"#utility.yul\":23304:23318   */\n      add\n        /* \"#utility.yul\":23297:23354   */\n      mstore\n        /* \"#utility.yul\":23180:23361   */\n      pop\n      jump\t// out\n        /* \"#utility.yul\":23367:23733   */\n    tag_219:\n        /* \"#utility.yul\":23509:23512   */\n      0x00\n        /* \"#utility.yul\":23530:23597   */\n      tag_425\n        /* \"#utility.yul\":23594:23596   */\n      0x1f\n        /* \"#utility.yul\":23589:23592   */\n      dup4\n        /* \"#utility.yul\":23530:23597   */\n      tag_186\n      jump\t// in\n    tag_425:\n        /* \"#utility.yul\":23523:23597   */\n      swap2\n      pop\n        /* \"#utility.yul\":23606:23699   */\n      tag_426\n        /* \"#utility.yul\":23695:23698   */\n      dup3\n        /* \"#utility.yul\":23606:23699   */\n      tag_218\n      jump\t// in\n    tag_426:\n        /* \"#utility.yul\":23724:23726   */\n      0x20\n        /* \"#utility.yul\":23719:23722   */\n      dup3\n        /* \"#utility.yul\":23715:23727   */\n      add\n        /* \"#utility.yul\":23708:23727   */\n      swap1\n      pop\n        /* \"#utility.yul\":23367:23733   */\n      swap2\n      swap1\n      pop\n      jump\t// out\n        /* \"#utility.yul\":23739:24158   */\n    tag_165:\n        /* \"#utility.yul\":23905:23909   */\n      0x00\n        /* \"#utility.yul\":23943:23945   */\n      0x20\n        /* \"#utility.yul\":23932:23941   */\n      dup3\n        /* \"#utility.yul\":23928:23946   */\n      add\n        /* \"#utility.yul\":23920:23946   */\n      swap1\n      pop\n        /* \"#utility.yul\":23992:24001   */\n      dup2\n        /* \"#utility.yul\":23986:23990   */\n      dup2\n        /* \"#utility.yul\":23982:24002   */\n      sub\n        /* \"#utility.yul\":23978:23979   */\n      0x00\n        /* \"#utility.yul\":23967:23976   */\n      dup4\n        /* \"#utility.yul\":23963:23980   */\n      add\n        /* \"#utility.yul\":23956:24003   */\n      mstore\n        /* \"#utility.yul\":24020:24151   */\n      tag_428\n        /* \"#utility.yul\":24146:24150   */\n      dup2\n        /* \"#utility.yul\":24020:24151   */\n      tag_219\n      jump\t// in\n    tag_428:\n        /* \"#utility.yul\":24012:24151   */\n      swap1\n      pop\n        /* \"#utility.yul\":23739:24158   */\n      swap2\n      swap1\n      pop\n      jump\t// out\n\n    auxdata: 0xa26469706673582212203c80b67fb8f85006618ba4b41c5f990880571d085ae2474a84bd631cd929f0db64736f6c634300081c0033\n}\n",
				"bytecode": {
					"linkReferences": {},
					"object": "608060405234801561000f575f5ffd5b50604051611f55380380611f558339818101604052810190610031919061018a565b60015f819055505f73ffffffffffffffffffffffffffffffffffffffff168173ffffffffffffffffffffffffffffffffffffffff16036100a6576040517f08c379a000000000000000000000000000000000000000000000000000000000815260040161009d9061020f565b60405180910390fd5b3360015f6101000a81548173ffffffffffffffffffffffffffffffffffffffff021916908373ffffffffffffffffffffffffffffffffffffffff1602179055508060025f6101000a81548173ffffffffffffffffffffffffffffffffffffffff021916908373ffffffffffffffffffffffffffffffffffffffff1602179055505061022d565b5f5ffd5b5f73ffffffffffffffffffffffffffffffffffffffff82169050919050565b5f61015982610130565b9050919050565b6101698161014f565b8114610173575f5ffd5b50565b5f8151905061018481610160565b92915050565b5f6020828403121561019f5761019e61012c565b5b5f6101ac84828501610176565b91505092915050565b5f82825260208201905092915050565b7f496e76616c696420746f6b656e206164647265737300000000000000000000005f82015250565b5f6101f96015836101b5565b9150610204826101c5565b602082019050919050565b5f6020820190508181035f830152610226816101ed565b9050919050565b611d1b8061023a5f395ff3fe608060405234801561000f575f5ffd5b5060043610610091575f3560e01c8063570ca73511610064578063570ca7351461011157806357c90de51461012f578063639d75661461014b578063d94a350514610169578063eb91d37e1461018e57610091565b806306394c9b1461009557806337a35344146100b1578063496a698d146100cf5780634fee13fc146100f5575b5f5ffd5b6100af60048036038101906100aa91906111bf565b6101ac565b005b6100b96102ec565b6040516100c69190611202565b60405180910390f35b6100d76102f1565b6040516100ec99989796959493929190611244565b60405180910390f35b61010f600480360381019061010a91906112f9565b610357565b005b6101196105be565b6040516101269190611337565b60405180910390f35b610149600480360381019061014491906112f9565b6105e3565b005b610153610eef565b60405161016091906113ab565b60405180910390f35b610171610f14565b6040516101859897969594939291906113c4565b60405180910390f35b610196611024565b6040516101a39190611202565b60405180910390f35b60015f9054906101000a900473ffffffffffffffffffffffffffffffffffffffff1673ffffffffffffffffffffffffffffffffffffffff163373ffffffffffffffffffffffffffffffffffffffff161461023b576040517f08c379a00000000000000000000000000000000000000000000000000000000081526004016102329061149a565b60405180910390fd5b5f73ffffffffffffffffffffffffffffffffffffffff168173ffffffffffffffffffffffffffffffffffffffff16036102a9576040517f08c379a00000000000000000000000000000000000000000000000000000000081526004016102a090611502565b60405180910390fd5b8060015f6101000a81548173ffffffffffffffffffffffffffffffffffffffff021916908373ffffffffffffffffffffffffffffffffffffffff16021790555050565b601481565b6003805f015490806001015490806002015490806003015490806004015f9054906101000a900473ffffffffffffffffffffffffffffffffffffffff1690806005015490806006015490806007015490806008015f9054906101000a900460ff16905089565b60015f9054906101000a900473ffffffffffffffffffffffffffffffffffffffff1673ffffffffffffffffffffffffffffffffffffffff163373ffffffffffffffffffffffffffffffffffffffff16146103e6576040517f08c379a00000000000000000000000000000000000000000000000000000000081526004016103dd9061149a565b60405180910390fd5b5f8211610428576040517f08c379a000000000000000000000000000000000000000000000000000000000815260040161041f90611590565b60405180910390fd5b8181111561046b576040517f08c379a0000000000000000000000000000000000000000000000000000000008152600401610462906115f8565b60405180910390fd5b5f4290505f60b490506040518061012001604052808581526020018481526020018381526020018281526020015f73ffffffffffffffffffffffffffffffffffffffff1681526020015f81526020015f81526020015f81526020015f151581525060035f820151815f01556020820151816001015560408201518160020155606082015181600301556080820151816004015f6101000a81548173ffffffffffffffffffffffffffffffffffffffff021916908373ffffffffffffffffffffffffffffffffffffffff16021790555060a0820151816005015560c0820151816006015560e08201518160070155610100820151816008015f6101000a81548160ff0219169083151502179055509050507fa832766a05f1bd0298b0268308621777cfe1e4eea23afe7c06beea79bc6ddd2d848484846040516105b09493929190611616565b60405180910390a150505050565b60015f9054906101000a900473ffffffffffffffffffffffffffffffffffffffff1681565b6105eb61110b565b6003600201544210158015610614575060038001546003600201546106109190611686565b4211155b610653576040517f08c379a000000000000000000000000000000000000000000000000000000000815260040161064a90611703565b60405180910390fd5b60036008015f9054906101000a900460ff16156106a5576040517f08c379a000000000000000000000000000000000000000000000000000000000815260040161069c9061176b565b60405180910390fd5b5f6106ae611024565b9050808210156106f3576040517f08c379a00000000000000000000000000000000000000000000000000000000081526004016106ea906117d3565b60405180910390fd5b5f8211610735576040517f08c379a000000000000000000000000000000000000000000000000000000000815260040161072c90611861565b60405180910390fd5b60035f01548210610ae6578160025f9054906101000a900473ffffffffffffffffffffffffffffffffffffffff1673ffffffffffffffffffffffffffffffffffffffff1663dd62ed3e33306040518363ffffffff1660e01b815260040161079d92919061187f565b602060405180830381865afa1580156107b8573d5f5f3e3d5ffd5b505050506040513d601f19601f820116820180604052508101906107dc91906118ba565b101561081d576040517f08c379a00000000000000000000000000000000000000000000000000000000081526004016108149061192f565b60405180910390fd5b8160025f9054906101000a900473ffffffffffffffffffffffffffffffffffffffff1673ffffffffffffffffffffffffffffffffffffffff166370a08231336040518263ffffffff1660e01b81526004016108789190611337565b602060405180830381865afa158015610893573d5f5f3e3d5ffd5b505050506040513d601f19601f820116820180604052508101906108b791906118ba565b10156108f8576040517f08c379a00000000000000000000000000000000000000000000000000000000081526004016108ef90611997565b60405180910390fd5b60025f9054906101000a900473ffffffffffffffffffffffffffffffffffffffff1673ffffffffffffffffffffffffffffffffffffffff166323b872dd3360015f9054906101000a900473ffffffffffffffffffffffffffffffffffffffff16856040518463ffffffff1660e01b8152600401610977939291906119b5565b6020604051808303815f875af1158015610993573d5f5f3e3d5ffd5b505050506040513d601f19601f820116820180604052508101906109b79190611a14565b6109f6576040517f08c379a00000000000000000000000000000000000000000000000000000000081526004016109ed90611a89565b60405180910390fd5b3360036004015f6101000a81548173ffffffffffffffffffffffffffffffffffffffff021916908373ffffffffffffffffffffffffffffffffffffffff1602179055508160036005018190555082600360060181905550600160036008015f6101000a81548160ff0219169083151502179055507fdf8644c0a4c21ed214ce69f395675b3a5fcd1039083daea5058898de40ea3149338385604051610a9d93929190611aa7565b60405180910390a17fc358e8e3f205b5e7453abd5cbac388ca4552b887b69001bc972b88610c749035338385604051610ad893929190611aa7565b60405180910390a150610ee3565b5f6003600501541115610b8f576003600501548211610b3a576040517f08c379a0000000000000000000000000000000000000000000000000000000008152600401610b3190611b26565b60405180910390fd5b6014600360070154610b4c9190611686565b421015610b8e576040517f08c379a0000000000000000000000000000000000000000000000000000000008152600401610b8590611b8e565b60405180910390fd5b5b8160025f9054906101000a900473ffffffffffffffffffffffffffffffffffffffff1673ffffffffffffffffffffffffffffffffffffffff1663dd62ed3e33306040518363ffffffff1660e01b8152600401610bec92919061187f565b602060405180830381865afa158015610c07573d5f5f3e3d5ffd5b505050506040513d601f19601f82011682018060405250810190610c2b91906118ba565b1015610c6c576040517f08c379a0000000000000000000000000000000000000000000000000000000008152600401610c639061192f565b60405180910390fd5b8160025f9054906101000a900473ffffffffffffffffffffffffffffffffffffffff1673ffffffffffffffffffffffffffffffffffffffff166370a08231336040518263ffffffff1660e01b8152600401610cc79190611337565b602060405180830381865afa158015610ce2573d5f5f3e3d5ffd5b505050506040513d601f19601f82011682018060405250810190610d0691906118ba565b1015610d47576040517f08c379a0000000000000000000000000000000000000000000000000000000008152600401610d3e90611997565b60405180910390fd5b60025f9054906101000a900473ffffffffffffffffffffffffffffffffffffffff1673ffffffffffffffffffffffffffffffffffffffff166323b872dd3360015f9054906101000a900473ffffffffffffffffffffffffffffffffffffffff16856040518463ffffffff1660e01b8152600401610dc6939291906119b5565b6020604051808303815f875af1158015610de2573d5f5f3e3d5ffd5b505050506040513d601f19601f82011682018060405250810190610e069190611a14565b610e45576040517f08c379a0000000000000000000000000000000000000000000000000000000008152600401610e3c90611a89565b60405180910390fd5b3360036004015f6101000a81548173ffffffffffffffffffffffffffffffffffffffff021916908373ffffffffffffffffffffffffffffffffffffffff1602179055508160036005018190555082600360060181905550426003600701819055507fdf8644c0a4c21ed214ce69f395675b3a5fcd1039083daea5058898de40ea3149338385604051610ed993929190611aa7565b60405180910390a1505b610eeb611158565b5050565b60025f9054906101000a900473ffffffffffffffffffffffffffffffffffffffff1681565b5f5f5f5f5f5f5f5f5f6003604051806101200160405290815f8201548152602001600182015481526020016002820154815260200160038201548152602001600482015f9054906101000a900473ffffffffffffffffffffffffffffffffffffffff1673ffffffffffffffffffffffffffffffffffffffff1673ffffffffffffffffffffffffffffffffffffffff168152602001600582015481526020016006820154815260200160078201548152602001600882015f9054906101000a900460ff1615151515815250509050805f015181602001518260400151836060015184608001518560a001518660c0015187610100015198509850985098509850985098509850509091929394959697565b5f60036002015442108061103c57505f600360020154145b80611055575060036008015f9054906101000a900460ff165b156110665760035f01549050611108565b5f600360020154426110789190611bac565b90506003800154811061109357600360010154915050611108565b5f60036001015460035f01546110a99190611bac565b90505f6003800154670de0b6b3a764000084846110c69190611bdf565b6110d09190611bdf565b6110da9190611c4d565b9050670de0b6b3a7640000816110f09190611c4d565b90508060035f01546111029190611bac565b93505050505b90565b60025f540361114f576040517f08c379a000000000000000000000000000000000000000000000000000000000815260040161114690611cc7565b60405180910390fd5b60025f81905550565b60015f81905550565b5f5ffd5b5f73ffffffffffffffffffffffffffffffffffffffff82169050919050565b5f61118e82611165565b9050919050565b61119e81611184565b81146111a8575f5ffd5b50565b5f813590506111b981611195565b92915050565b5f602082840312156111d4576111d3611161565b5b5f6111e1848285016111ab565b91505092915050565b5f819050919050565b6111fc816111ea565b82525050565b5f6020820190506112155f8301846111f3565b92915050565b61122481611184565b82525050565b5f8115159050919050565b61123e8161122a565b82525050565b5f610120820190506112585f83018c6111f3565b611265602083018b6111f3565b611272604083018a6111f3565b61127f60608301896111f3565b61128c608083018861121b565b61129960a08301876111f3565b6112a660c08301866111f3565b6112b360e08301856111f3565b6112c1610100830184611235565b9a9950505050505050505050565b6112d8816111ea565b81146112e2575f5ffd5b50565b5f813590506112f3816112cf565b92915050565b5f5f6040838503121561130f5761130e611161565b5b5f61131c858286016112e5565b925050602061132d858286016112e5565b9150509250929050565b5f60208201905061134a5f83018461121b565b92915050565b5f819050919050565b5f61137361136e61136984611165565b611350565b611165565b9050919050565b5f61138482611359565b9050919050565b5f6113958261137a565b9050919050565b6113a58161138b565b82525050565b5f6020820190506113be5f83018461139c565b92915050565b5f610100820190506113d85f83018b6111f3565b6113e5602083018a6111f3565b6113f260408301896111f3565b6113ff60608301886111f3565b61140c608083018761121b565b61141960a08301866111f3565b61142660c08301856111f3565b61143360e0830184611235565b9998505050505050505050565b5f82825260208201905092915050565b7f4e6f7420746865206f70657261746f72000000000000000000000000000000005f82015250565b5f611484601083611440565b915061148f82611450565b602082019050919050565b5f6020820190508181035f8301526114b181611478565b9050919050565b7f496e76616c6964206f70657261746f72000000000000000000000000000000005f82015250565b5f6114ec601083611440565b91506114f7826114b8565b602082019050919050565b5f6020820190508181035f830152611519816114e0565b9050919050565b7f5374617274207072696365206d7573742062652067726561746572207468616e5f8201527f2030000000000000000000000000000000000000000000000000000000000000602082015250565b5f61157a602283611440565b915061158582611520565b604082019050919050565b5f6020820190508181035f8301526115a78161156e565b9050919050565b7f456e64207072696365206d757374206265203c3d2073746172742070726963655f82015250565b5f6115e2602083611440565b91506115ed826115ae565b602082019050919050565b5f6020820190508181035f83015261160f816115d6565b9050919050565b5f6080820190506116295f8301876111f3565b61163660208301866111f3565b61164360408301856111f3565b61165060608301846111f3565b95945050505050565b7f4e487b71000000000000000000000000000000000000000000000000000000005f52601160045260245ffd5b5f611690826111ea565b915061169b836111ea565b92508282019050808211156116b3576116b2611659565b5b92915050565b7f41756374696f6e206e6f742061637469766500000000000000000000000000005f82015250565b5f6116ed601283611440565b91506116f8826116b9565b602082019050919050565b5f6020820190508181035f83015261171a816116e1565b9050919050565b7f41756374696f6e20616c726561647920656e64656400000000000000000000005f82015250565b5f611755601583611440565b915061176082611721565b602082019050919050565b5f6020820190508181035f83015261178281611749565b9050919050565b7f4269642062656c6f772063757272656e742070726963650000000000000000005f82015250565b5f6117bd601783611440565b91506117c882611789565b602082019050919050565b5f6020820190508181035f8301526117ea816117b1565b9050919050565b7f42696420616d6f756e74206d7573742062652067726561746572207468616e205f8201527f3000000000000000000000000000000000000000000000000000000000000000602082015250565b5f61184b602183611440565b9150611856826117f1565b604082019050919050565b5f6020820190508181035f8301526118788161183f565b9050919050565b5f6040820190506118925f83018561121b565b61189f602083018461121b565b9392505050565b5f815190506118b4816112cf565b92915050565b5f602082840312156118cf576118ce611161565b5b5f6118dc848285016118a6565b91505092915050565b7f496e73756666696369656e7420616c6c6f77616e6365000000000000000000005f82015250565b5f611919601683611440565b9150611924826118e5565b602082019050919050565b5f6020820190508181035f8301526119468161190d565b9050919050565b7f496e73756666696369656e742062616c616e63650000000000000000000000005f82015250565b5f611981601483611440565b915061198c8261194d565b602082019050919050565b5f6020820190508181035f8301526119ae81611975565b9050919050565b5f6060820190506119c85f83018661121b565b6119d5602083018561121b565b6119e260408301846111f3565b949350505050565b6119f38161122a565b81146119fd575f5ffd5b50565b5f81519050611a0e816119ea565b92915050565b5f60208284031215611a2957611a28611161565b5b5f611a3684828501611a00565b91505092915050565b7f546f6b656e207472616e73666572206661696c656400000000000000000000005f82015250565b5f611a73601583611440565b9150611a7e82611a3f565b602082019050919050565b5f6020820190508181035f830152611aa081611a67565b9050919050565b5f606082019050611aba5f83018661121b565b611ac760208301856111f3565b611ad460408301846111f3565b949350505050565b7f4d7573742062696420686967686572207468616e2063757272656e74206269645f82015250565b5f611b10602083611440565b9150611b1b82611adc565b602082019050919050565b5f6020820190508181035f830152611b3d81611b04565b9050919050565b7f4d696e696d756d2062696420706572696f64206e6f7420656c617073656400005f82015250565b5f611b78601e83611440565b9150611b8382611b44565b602082019050919050565b5f6020820190508181035f830152611ba581611b6c565b9050919050565b5f611bb6826111ea565b9150611bc1836111ea565b9250828203905081811115611bd957611bd8611659565b5b92915050565b5f611be9826111ea565b9150611bf4836111ea565b9250828202611c02816111ea565b91508282048414831517611c1957611c18611659565b5b5092915050565b7f4e487b71000000000000000000000000000000000000000000000000000000005f52601260045260245ffd5b5f611c57826111ea565b9150611c62836111ea565b925082611c7257611c71611c20565b5b828204905092915050565b7f5265656e7472616e637947756172643a207265656e7472616e742063616c6c005f82015250565b5f611cb1601f83611440565b9150611cbc82611c7d565b602082019050919050565b5f6020820190508181035f830152611cde81611ca5565b905091905056fea26469706673582212203c80b67fb8f85006618ba4b41c5f990880571d085ae2474a84bd631cd929f0db64736f6c634300081c0033",
					"opcodes": "PUSH1 0x80 PUSH1 0x40 MSTORE CALLVALUE DUP1 ISZERO PUSH2 0xF JUMPI PUSH0 PUSH0 REVERT JUMPDEST POP PUSH1 0x40 MLOAD PUSH2 0x1F55 CODESIZE SUB DUP1 PUSH2 0x1F55 DUP4 CODECOPY DUP2 DUP2 ADD PUSH1 0x40 MSTORE DUP2 ADD SWAP1 PUSH2 0x31 SWAP2 SWAP1 PUSH2 0x18A JUMP JUMPDEST PUSH1 0x1 PUSH0 DUP2 SWAP1 SSTORE POP PUSH0 PUSH20 0xFFFFFFFFFFFFFFFFFFFFFFFFFFFFFFFFFFFFFFFF AND DUP2 PUSH20 0xFFFFFFFFFFFFFFFFFFFFFFFFFFFFFFFFFFFFFFFF AND SUB PUSH2 0xA6 JUMPI PUSH1 0x40 MLOAD PUSH32 0x8C379A000000000000000000000000000000000000000000000000000000000 DUP2 MSTORE PUSH1 0x4 ADD PUSH2 0x9D SWAP1 PUSH2 0x20F JUMP JUMPDEST PUSH1 0x40 MLOAD DUP1 SWAP2 SUB SWAP1 REVERT JUMPDEST CALLER PUSH1 0x1 PUSH0 PUSH2 0x100 EXP DUP2 SLOAD DUP2 PUSH20 0xFFFFFFFFFFFFFFFFFFFFFFFFFFFFFFFFFFFFFFFF MUL NOT AND SWAP1 DUP4 PUSH20 0xFFFFFFFFFFFFFFFFFFFFFFFFFFFFFFFFFFFFFFFF AND MUL OR SWAP1 SSTORE POP DUP1 PUSH1 0x2 PUSH0 PUSH2 0x100 EXP DUP2 SLOAD DUP2 PUSH20 0xFFFFFFFFFFFFFFFFFFFFFFFFFFFFFFFFFFFFFFFF MUL NOT AND SWAP1 DUP4 PUSH20 0xFFFFFFFFFFFFFFFFFFFFFFFFFFFFFFFFFFFFFFFF AND MUL OR SWAP1 SSTORE POP POP PUSH2 0x22D JUMP JUMPDEST PUSH0 PUSH0 REVERT JUMPDEST PUSH0 PUSH20 0xFFFFFFFFFFFFFFFFFFFFFFFFFFFFFFFFFFFFFFFF DUP3 AND SWAP1 POP SWAP2 SWAP1 POP JUMP JUMPDEST PUSH0 PUSH2 0x159 DUP3 PUSH2 0x130 JUMP JUMPDEST SWAP1 POP SWAP2 SWAP1 POP JUMP JUMPDEST PUSH2 0x169 DUP2 PUSH2 0x14F JUMP JUMPDEST DUP2 EQ PUSH2 0x173 JUMPI PUSH0 PUSH0 REVERT JUMPDEST POP JUMP JUMPDEST PUSH0 DUP2 MLOAD SWAP1 POP PUSH2 0x184 DUP2 PUSH2 0x160 JUMP JUMPDEST SWAP3 SWAP2 POP POP JUMP JUMPDEST PUSH0 PUSH1 0x20 DUP3 DUP5 SUB SLT ISZERO PUSH2 0x19F JUMPI PUSH2 0x19E PUSH2 0x12C JUMP JUMPDEST JUMPDEST PUSH0 PUSH2 0x1AC DUP5 DUP3 DUP6 ADD PUSH2 0x176 JUMP JUMPDEST SWAP2 POP POP SWAP3 SWAP2 POP POP JUMP JUMPDEST PUSH0 DUP3 DUP3 MSTORE PUSH1 0x20 DUP3 ADD SWAP1 POP SWAP3 SWAP2 POP POP JUMP JUMPDEST PUSH32 0x496E76616C696420746F6B656E20616464726573730000000000000000000000 PUSH0 DUP3 ADD MSTORE POP JUMP JUMPDEST PUSH0 PUSH2 0x1F9 PUSH1 0x15 DUP4 PUSH2 0x1B5 JUMP JUMPDEST SWAP2 POP PUSH2 0x204 DUP3 PUSH2 0x1C5 JUMP JUMPDEST PUSH1 0x20 DUP3 ADD SWAP1 POP SWAP2 SWAP1 POP JUMP JUMPDEST PUSH0 PUSH1 0x20 DUP3 ADD SWAP1 POP DUP2 DUP2 SUB PUSH0 DUP4 ADD MSTORE PUSH2 0x226 DUP2 PUSH2 0x1ED JUMP JUMPDEST SWAP1 POP SWAP2 SWAP1 POP JUMP JUMPDEST PUSH2 0x1D1B DUP1 PUSH2 0x23A PUSH0 CODECOPY PUSH0 RETURN INVALID PUSH1 0x80 PUSH1 0x40 MSTORE CALLVALUE DUP1 ISZERO PUSH2 0xF JUMPI PUSH0 PUSH0 REVERT JUMPDEST POP PUSH1 0x4 CALLDATASIZE LT PUSH2 0x91 JUMPI PUSH0 CALLDATALOAD PUSH1 0xE0 SHR DUP1 PUSH4 0x570CA735 GT PUSH2 0x64 JUMPI DUP1 PUSH4 0x570CA735 EQ PUSH2 0x111 JUMPI DUP1 PUSH4 0x57C90DE5 EQ PUSH2 0x12F JUMPI DUP1 PUSH4 0x639D7566 EQ PUSH2 0x14B JUMPI DUP1 PUSH4 0xD94A3505 EQ PUSH2 0x169 JUMPI DUP1 PUSH4 0xEB91D37E EQ PUSH2 0x18E JUMPI PUSH2 0x91 JUMP JUMPDEST DUP1 PUSH4 0x6394C9B EQ PUSH2 0x95 JUMPI DUP1 PUSH4 0x37A35344 EQ PUSH2 0xB1 JUMPI DUP1 PUSH4 0x496A698D EQ PUSH2 0xCF JUMPI DUP1 PUSH4 0x4FEE13FC EQ PUSH2 0xF5 JUMPI JUMPDEST PUSH0 PUSH0 REVERT JUMPDEST PUSH2 0xAF PUSH1 0x4 DUP1 CALLDATASIZE SUB DUP2 ADD SWAP1 PUSH2 0xAA SWAP2 SWAP1 PUSH2 0x11BF JUMP JUMPDEST PUSH2 0x1AC JUMP JUMPDEST STOP JUMPDEST PUSH2 0xB9 PUSH2 0x2EC JUMP JUMPDEST PUSH1 0x40 MLOAD PUSH2 0xC6 SWAP2 SWAP1 PUSH2 0x1202 JUMP JUMPDEST PUSH1 0x40 MLOAD DUP1 SWAP2 SUB SWAP1 RETURN JUMPDEST PUSH2 0xD7 PUSH2 0x2F1 JUMP JUMPDEST PUSH1 0x40 MLOAD PUSH2 0xEC SWAP10 SWAP9 SWAP8 SWAP7 SWAP6 SWAP5 SWAP4 SWAP3 SWAP2 SWAP1 PUSH2 0x1244 JUMP JUMPDEST PUSH1 0x40 MLOAD DUP1 SWAP2 SUB SWAP1 RETURN JUMPDEST PUSH2 0x10F PUSH1 0x4 DUP1 CALLDATASIZE SUB DUP2 ADD SWAP1 PUSH2 0x10A SWAP2 SWAP1 PUSH2 0x12F9 JUMP JUMPDEST PUSH2 0x357 JUMP JUMPDEST STOP JUMPDEST PUSH2 0x119 PUSH2 0x5BE JUMP JUMPDEST PUSH1 0x40 MLOAD PUSH2 0x126 SWAP2 SWAP1 PUSH2 0x1337 JUMP JUMPDEST PUSH1 0x40 MLOAD DUP1 SWAP2 SUB SWAP1 RETURN JUMPDEST PUSH2 0x149 PUSH1 0x4 DUP1 CALLDATASIZE SUB DUP2 ADD SWAP1 PUSH2 0x144 SWAP2 SWAP1 PUSH2 0x12F9 JUMP JUMPDEST PUSH2 0x5E3 JUMP JUMPDEST STOP JUMPDEST PUSH2 0x153 PUSH2 0xEEF JUMP JUMPDEST PUSH1 0x40 MLOAD PUSH2 0x160 SWAP2 SWAP1 PUSH2 0x13AB JUMP JUMPDEST PUSH1 0x40 MLOAD DUP1 SWAP2 SUB SWAP1 RETURN JUMPDEST PUSH2 0x171 PUSH2 0xF14 JUMP JUMPDEST PUSH1 0x40 MLOAD PUSH2 0x185 SWAP9 SWAP8 SWAP7 SWAP6 SWAP5 SWAP4 SWAP3 SWAP2 SWAP1 PUSH2 0x13C4 JUMP JUMPDEST PUSH1 0x40 MLOAD DUP1 SWAP2 SUB SWAP1 RETURN JUMPDEST PUSH2 0x196 PUSH2 0x1024 JUMP JUMPDEST PUSH1 0x40 MLOAD PUSH2 0x1A3 SWAP2 SWAP1 PUSH2 0x1202 JUMP JUMPDEST PUSH1 0x40 MLOAD DUP1 SWAP2 SUB SWAP1 RETURN JUMPDEST PUSH1 0x1 PUSH0 SWAP1 SLOAD SWAP1 PUSH2 0x100 EXP SWAP1 DIV PUSH20 0xFFFFFFFFFFFFFFFFFFFFFFFFFFFFFFFFFFFFFFFF AND PUSH20 0xFFFFFFFFFFFFFFFFFFFFFFFFFFFFFFFFFFFFFFFF AND CALLER PUSH20 0xFFFFFFFFFFFFFFFFFFFFFFFFFFFFFFFFFFFFFFFF AND EQ PUSH2 0x23B JUMPI PUSH1 0x40 MLOAD PUSH32 0x8C379A000000000000000000000000000000000000000000000000000000000 DUP2 MSTORE PUSH1 0x4 ADD PUSH2 0x232 SWAP1 PUSH2 0x149A JUMP JUMPDEST PUSH1 0x40 MLOAD DUP1 SWAP2 SUB SWAP1 REVERT JUMPDEST PUSH0 PUSH20 0xFFFFFFFFFFFFFFFFFFFFFFFFFFFFFFFFFFFFFFFF AND DUP2 PUSH20 0xFFFFFFFFFFFFFFFFFFFFFFFFFFFFFFFFFFFFFFFF AND SUB PUSH2 0x2A9 JUMPI PUSH1 0x40 MLOAD PUSH32 0x8C379A000000000000000000000000000000000000000000000000000000000 DUP2 MSTORE PUSH1 0x4 ADD PUSH2 0x2A0 SWAP1 PUSH2 0x1502 JUMP JUMPDEST PUSH1 0x40 MLOAD DUP1 SWAP2 SUB SWAP1 REVERT JUMPDEST DUP1 PUSH1 0x1 PUSH0 PUSH2 0x100 EXP DUP2 SLOAD DUP2 PUSH20 0xFFFFFFFFFFFFFFFFFFFFFFFFFFFFFFFFFFFFFFFF MUL NOT AND SWAP1 DUP4 PUSH20 0xFFFFFFFFFFFFFFFFFFFFFFFFFFFFFFFFFFFFFFFF AND MUL OR SWAP1 SSTORE POP POP JUMP JUMPDEST PUSH1 0x14 DUP2 JUMP JUMPDEST PUSH1 0x3 DUP1 PUSH0 ADD SLOAD SWAP1 DUP1 PUSH1 0x1 ADD SLOAD SWAP1 DUP1 PUSH1 0x2 ADD SLOAD SWAP1 DUP1 PUSH1 0x3 ADD SLOAD SWAP1 DUP1 PUSH1 0x4 ADD PUSH0 SWAP1 SLOAD SWAP1 PUSH2 0x100 EXP SWAP1 DIV PUSH20 0xFFFFFFFFFFFFFFFFFFFFFFFFFFFFFFFFFFFFFFFF AND SWAP1 DUP1 PUSH1 0x5 ADD SLOAD SWAP1 DUP1 PUSH1 0x6 ADD SLOAD SWAP1 DUP1 PUSH1 0x7 ADD SLOAD SWAP1 DUP1 PUSH1 0x8 ADD PUSH0 SWAP1 SLOAD SWAP1 PUSH2 0x100 EXP SWAP1 DIV PUSH1 0xFF AND SWAP1 POP DUP10 JUMP JUMPDEST PUSH1 0x1 PUSH0 SWAP1 SLOAD SWAP1 PUSH2 0x100 EXP SWAP1 DIV PUSH20 0xFFFFFFFFFFFFFFFFFFFFFFFFFFFFFFFFFFFFFFFF AND PUSH20 0xFFFFFFFFFFFFFFFFFFFFFFFFFFFFFFFFFFFFFFFF AND CALLER PUSH20 0xFFFFFFFFFFFFFFFFFFFFFFFFFFFFFFFFFFFFFFFF AND EQ PUSH2 0x3E6 JUMPI PUSH1 0x40 MLOAD PUSH32 0x8C379A000000000000000000000000000000000000000000000000000000000 DUP2 MSTORE PUSH1 0x4 ADD PUSH2 0x3DD SWAP1 PUSH2 0x149A JUMP JUMPDEST PUSH1 0x40 MLOAD DUP1 SWAP2 SUB SWAP1 REVERT JUMPDEST PUSH0 DUP3 GT PUSH2 0x428 JUMPI PUSH1 0x40 MLOAD PUSH32 0x8C379A000000000000000000000000000000000000000000000000000000000 DUP2 MSTORE PUSH1 0x4 ADD PUSH2 0x41F SWAP1 PUSH2 0x1590 JUMP JUMPDEST PUSH1 0x40 MLOAD DUP1 SWAP2 SUB SWAP1 REVERT JUMPDEST DUP2 DUP2 GT ISZERO PUSH2 0x46B JUMPI PUSH1 0x40 MLOAD PUSH32 0x8C379A000000000000000000000000000000000000000000000000000000000 DUP2 MSTORE PUSH1 0x4 ADD PUSH2 0x462 SWAP1 PUSH2 0x15F8 JUMP JUMPDEST PUSH1 0x40 MLOAD DUP1 SWAP2 SUB SWAP1 REVERT JUMPDEST PUSH0 TIMESTAMP SWAP1 POP PUSH0 PUSH1 0xB4 SWAP1 POP PUSH1 0x40 MLOAD DUP1 PUSH2 0x120 ADD PUSH1 0x40 MSTORE DUP1 DUP6 DUP2 MSTORE PUSH1 0x20 ADD DUP5 DUP2 MSTORE PUSH1 0x20 ADD DUP4 DUP2 MSTORE PUSH1 0x20 ADD DUP3 DUP2 MSTORE PUSH1 0x20 ADD PUSH0 PUSH20 0xFFFFFFFFFFFFFFFFFFFFFFFFFFFFFFFFFFFFFFFF AND DUP2 MSTORE PUSH1 0x20 ADD PUSH0 DUP2 MSTORE PUSH1 0x20 ADD PUSH0 DUP2 MSTORE PUSH1 0x20 ADD PUSH0 DUP2 MSTORE PUSH1 0x20 ADD PUSH0 ISZERO ISZERO DUP2 MSTORE POP PUSH1 0x3 PUSH0 DUP3 ADD MLOAD DUP2 PUSH0 ADD SSTORE PUSH1 0x20 DUP3 ADD MLOAD DUP2 PUSH1 0x1 ADD SSTORE PUSH1 0x40 DUP3 ADD MLOAD DUP2 PUSH1 0x2 ADD SSTORE PUSH1 0x60 DUP3 ADD MLOAD DUP2 PUSH1 0x3 ADD SSTORE PUSH1 0x80 DUP3 ADD MLOAD DUP2 PUSH1 0x4 ADD PUSH0 PUSH2 0x100 EXP DUP2 SLOAD DUP2 PUSH20 0xFFFFFFFFFFFFFFFFFFFFFFFFFFFFFFFFFFFFFFFF MUL NOT AND SWAP1 DUP4 PUSH20 0xFFFFFFFFFFFFFFFFFFFFFFFFFFFFFFFFFFFFFFFF AND MUL OR SWAP1 SSTORE POP PUSH1 0xA0 DUP3 ADD MLOAD DUP2 PUSH1 0x5 ADD SSTORE PUSH1 0xC0 DUP3 ADD MLOAD DUP2 PUSH1 0x6 ADD SSTORE PUSH1 0xE0 DUP3 ADD MLOAD DUP2 PUSH1 0x7 ADD SSTORE PUSH2 0x100 DUP3 ADD MLOAD DUP2 PUSH1 0x8 ADD PUSH0 PUSH2 0x100 EXP DUP2 SLOAD DUP2 PUSH1 0xFF MUL NOT AND SWAP1 DUP4 ISZERO ISZERO MUL OR SWAP1 SSTORE POP SWAP1 POP POP PUSH32 0xA832766A05F1BD0298B0268308621777CFE1E4EEA23AFE7C06BEEA79BC6DDD2D DUP5 DUP5 DUP5 DUP5 PUSH1 0x40 MLOAD PUSH2 0x5B0 SWAP5 SWAP4 SWAP3 SWAP2 SWAP1 PUSH2 0x1616 JUMP JUMPDEST PUSH1 0x40 MLOAD DUP1 SWAP2 SUB SWAP1 LOG1 POP POP POP POP JUMP JUMPDEST PUSH1 0x1 PUSH0 SWAP1 SLOAD SWAP1 PUSH2 0x100 EXP SWAP1 DIV PUSH20 0xFFFFFFFFFFFFFFFFFFFFFFFFFFFFFFFFFFFFFFFF AND DUP2 JUMP JUMPDEST PUSH2 0x5EB PUSH2 0x110B JUMP JUMPDEST PUSH1 0x3 PUSH1 0x2 ADD SLOAD TIMESTAMP LT ISZERO DUP1 ISZERO PUSH2 0x614 JUMPI POP PUSH1 0x3 DUP1 ADD SLOAD PUSH1 0x3 PUSH1 0x2 ADD SLOAD PUSH2 0x610 SWAP2 SWAP1 PUSH2 0x1686 JUMP JUMPDEST TIMESTAMP GT ISZERO JUMPDEST PUSH2 0x653 JUMPI PUSH1 0x40 MLOAD PUSH32 0x8C379A000000000000000000000000000000000000000000000000000000000 DUP2 MSTORE PUSH1 0x4 ADD PUSH2 0x64A SWAP1 PUSH2 0x1703 JUMP JUMPDEST PUSH1 0x40 MLOAD DUP1 SWAP2 SUB SWAP1 REVERT JUMPDEST PUSH1 0x3 PUSH1 0x8 ADD PUSH0 SWAP1 SLOAD SWAP1 PUSH2 0x100 EXP SWAP1 DIV PUSH1 0xFF AND ISZERO PUSH2 0x6A5 JUMPI PUSH1 0x40 MLOAD PUSH32 0x8C379A000000000000000000000000000000000000000000000000000000000 DUP2 MSTORE PUSH1 0x4 ADD PUSH2 0x69C SWAP1 PUSH2 0x176B JUMP JUMPDEST PUSH1 0x40 MLOAD DUP1 SWAP2 SUB SWAP1 REVERT JUMPDEST PUSH0 PUSH2 0x6AE PUSH2 0x1024 JUMP JUMPDEST SWAP1 POP DUP1 DUP3 LT ISZERO PUSH2 0x6F3 JUMPI PUSH1 0x40 MLOAD PUSH32 0x8C379A000000000000000000000000000000000000000000000000000000000 DUP2 MSTORE PUSH1 0x4 ADD PUSH2 0x6EA SWAP1 PUSH2 0x17D3 JUMP JUMPDEST PUSH1 0x40 MLOAD DUP1 SWAP2 SUB SWAP1 REVERT JUMPDEST PUSH0 DUP3 GT PUSH2 0x735 JUMPI PUSH1 0x40 MLOAD PUSH32 0x8C379A000000000000000000000000000000000000000000000000000000000 DUP2 MSTORE PUSH1 0x4 ADD PUSH2 0x72C SWAP1 PUSH2 0x1861 JUMP JUMPDEST PUSH1 0x40 MLOAD DUP1 SWAP2 SUB SWAP1 REVERT JUMPDEST PUSH1 0x3 PUSH0 ADD SLOAD DUP3 LT PUSH2 0xAE6 JUMPI DUP2 PUSH1 0x2 PUSH0 SWAP1 SLOAD SWAP1 PUSH2 0x100 EXP SWAP1 DIV PUSH20 0xFFFFFFFFFFFFFFFFFFFFFFFFFFFFFFFFFFFFFFFF AND PUSH20 0xFFFFFFFFFFFFFFFFFFFFFFFFFFFFFFFFFFFFFFFF AND PUSH4 0xDD62ED3E CALLER ADDRESS PUSH1 0x40 MLOAD DUP4 PUSH4 0xFFFFFFFF AND PUSH1 0xE0 SHL DUP2 MSTORE PUSH1 0x4 ADD PUSH2 0x79D SWAP3 SWAP2 SWAP1 PUSH2 0x187F JUMP JUMPDEST PUSH1 0x20 PUSH1 0x40 MLOAD DUP1 DUP4 SUB DUP2 DUP7 GAS STATICCALL ISZERO DUP1 ISZERO PUSH2 0x7B8 JUMPI RETURNDATASIZE PUSH0 PUSH0 RETURNDATACOPY RETURNDATASIZE PUSH0 REVERT JUMPDEST POP POP POP POP PUSH1 0x40 MLOAD RETURNDATASIZE PUSH1 0x1F NOT PUSH1 0x1F DUP3 ADD AND DUP3 ADD DUP1 PUSH1 0x40 MSTORE POP DUP2 ADD SWAP1 PUSH2 0x7DC SWAP2 SWAP1 PUSH2 0x18BA JUMP JUMPDEST LT ISZERO PUSH2 0x81D JUMPI PUSH1 0x40 MLOAD PUSH32 0x8C379A000000000000000000000000000000000000000000000000000000000 DUP2 MSTORE PUSH1 0x4 ADD PUSH2 0x814 SWAP1 PUSH2 0x192F JUMP JUMPDEST PUSH1 0x40 MLOAD DUP1 SWAP2 SUB SWAP1 REVERT JUMPDEST DUP2 PUSH1 0x2 PUSH0 SWAP1 SLOAD SWAP1 PUSH2 0x100 EXP SWAP1 DIV PUSH20 0xFFFFFFFFFFFFFFFFFFFFFFFFFFFFFFFFFFFFFFFF AND PUSH20 0xFFFFFFFFFFFFFFFFFFFFFFFFFFFFFFFFFFFFFFFF AND PUSH4 0x70A08231 CALLER PUSH1 0x40 MLOAD DUP3 PUSH4 0xFFFFFFFF AND PUSH1 0xE0 SHL DUP2 MSTORE PUSH1 0x4 ADD PUSH2 0x878 SWAP2 SWAP1 PUSH2 0x1337 JUMP JUMPDEST PUSH1 0x20 PUSH1 0x40 MLOAD DUP1 DUP4 SUB DUP2 DUP7 GAS STATICCALL ISZERO DUP1 ISZERO PUSH2 0x893 JUMPI RETURNDATASIZE PUSH0 PUSH0 RETURNDATACOPY RETURNDATASIZE PUSH0 REVERT JUMPDEST POP POP POP POP PUSH1 0x40 MLOAD RETURNDATASIZE PUSH1 0x1F NOT PUSH1 0x1F DUP3 ADD AND DUP3 ADD DUP1 PUSH1 0x40 MSTORE POP DUP2 ADD SWAP1 PUSH2 0x8B7 SWAP2 SWAP1 PUSH2 0x18BA JUMP JUMPDEST LT ISZERO PUSH2 0x8F8 JUMPI PUSH1 0x40 MLOAD PUSH32 0x8C379A000000000000000000000000000000000000000000000000000000000 DUP2 MSTORE PUSH1 0x4 ADD PUSH2 0x8EF SWAP1 PUSH2 0x1997 JUMP JUMPDEST PUSH1 0x40 MLOAD DUP1 SWAP2 SUB SWAP1 REVERT JUMPDEST PUSH1 0x2 PUSH0 SWAP1 SLOAD SWAP1 PUSH2 0x100 EXP SWAP1 DIV PUSH20 0xFFFFFFFFFFFFFFFFFFFFFFFFFFFFFFFFFFFFFFFF AND PUSH20 0xFFFFFFFFFFFFFFFFFFFFFFFFFFFFFFFFFFFFFFFF AND PUSH4 0x23B872DD CALLER PUSH1 0x1 PUSH0 SWAP1 SLOAD SWAP1 PUSH2 0x100 EXP SWAP1 DIV PUSH20 0xFFFFFFFFFFFFFFFFFFFFFFFFFFFFFFFFFFFFFFFF AND DUP6 PUSH1 0x40 MLOAD DUP5 PUSH4 0xFFFFFFFF AND PUSH1 0xE0 SHL DUP2 MSTORE PUSH1 0x4 ADD PUSH2 0x977 SWAP4 SWAP3 SWAP2 SWAP1 PUSH2 0x19B5 JUMP JUMPDEST PUSH1 0x20 PUSH1 0x40 MLOAD DUP1 DUP4 SUB DUP2 PUSH0 DUP8 GAS CALL ISZERO DUP1 ISZERO PUSH2 0x993 JUMPI RETURNDATASIZE PUSH0 PUSH0 RETURNDATACOPY RETURNDATASIZE PUSH0 REVERT JUMPDEST POP POP POP POP PUSH1 0x40 MLOAD RETURNDATASIZE PUSH1 0x1F NOT PUSH1 0x1F DUP3 ADD AND DUP3 ADD DUP1 PUSH1 0x40 MSTORE POP DUP2 ADD SWAP1 PUSH2 0x9B7 SWAP2 SWAP1 PUSH2 0x1A14 JUMP JUMPDEST PUSH2 0x9F6 JUMPI PUSH1 0x40 MLOAD PUSH32 0x8C379A000000000000000000000000000000000000000000000000000000000 DUP2 MSTORE PUSH1 0x4 ADD PUSH2 0x9ED SWAP1 PUSH2 0x1A89 JUMP JUMPDEST PUSH1 0x40 MLOAD DUP1 SWAP2 SUB SWAP1 REVERT JUMPDEST CALLER PUSH1 0x3 PUSH1 0x4 ADD PUSH0 PUSH2 0x100 EXP DUP2 SLOAD DUP2 PUSH20 0xFFFFFFFFFFFFFFFFFFFFFFFFFFFFFFFFFFFFFFFF MUL NOT AND SWAP1 DUP4 PUSH20 0xFFFFFFFFFFFFFFFFFFFFFFFFFFFFFFFFFFFFFFFF AND MUL OR SWAP1 SSTORE POP DUP2 PUSH1 0x3 PUSH1 0x5 ADD DUP2 SWAP1 SSTORE POP DUP3 PUSH1 0x3 PUSH1 0x6 ADD DUP2 SWAP1 SSTORE POP PUSH1 0x1 PUSH1 0x3 PUSH1 0x8 ADD PUSH0 PUSH2 0x100 EXP DUP2 SLOAD DUP2 PUSH1 0xFF MUL NOT AND SWAP1 DUP4 ISZERO ISZERO MUL OR SWAP1 SSTORE POP PUSH32 0xDF8644C0A4C21ED214CE69F395675B3A5FCD1039083DAEA5058898DE40EA3149 CALLER DUP4 DUP6 PUSH1 0x40 MLOAD PUSH2 0xA9D SWAP4 SWAP3 SWAP2 SWAP1 PUSH2 0x1AA7 JUMP JUMPDEST PUSH1 0x40 MLOAD DUP1 SWAP2 SUB SWAP1 LOG1 PUSH32 0xC358E8E3F205B5E7453ABD5CBAC388CA4552B887B69001BC972B88610C749035 CALLER DUP4 DUP6 PUSH1 0x40 MLOAD PUSH2 0xAD8 SWAP4 SWAP3 SWAP2 SWAP1 PUSH2 0x1AA7 JUMP JUMPDEST PUSH1 0x40 MLOAD DUP1 SWAP2 SUB SWAP1 LOG1 POP PUSH2 0xEE3 JUMP JUMPDEST PUSH0 PUSH1 0x3 PUSH1 0x5 ADD SLOAD GT ISZERO PUSH2 0xB8F JUMPI PUSH1 0x3 PUSH1 0x5 ADD SLOAD DUP3 GT PUSH2 0xB3A JUMPI PUSH1 0x40 MLOAD PUSH32 0x8C379A000000000000000000000000000000000000000000000000000000000 DUP2 MSTORE PUSH1 0x4 ADD PUSH2 0xB31 SWAP1 PUSH2 0x1B26 JUMP JUMPDEST PUSH1 0x40 MLOAD DUP1 SWAP2 SUB SWAP1 REVERT JUMPDEST PUSH1 0x14 PUSH1 0x3 PUSH1 0x7 ADD SLOAD PUSH2 0xB4C SWAP2 SWAP1 PUSH2 0x1686 JUMP JUMPDEST TIMESTAMP LT ISZERO PUSH2 0xB8E JUMPI PUSH1 0x40 MLOAD PUSH32 0x8C379A000000000000000000000000000000000000000000000000000000000 DUP2 MSTORE PUSH1 0x4 ADD PUSH2 0xB85 SWAP1 PUSH2 0x1B8E JUMP JUMPDEST PUSH1 0x40 MLOAD DUP1 SWAP2 SUB SWAP1 REVERT JUMPDEST JUMPDEST DUP2 PUSH1 0x2 PUSH0 SWAP1 SLOAD SWAP1 PUSH2 0x100 EXP SWAP1 DIV PUSH20 0xFFFFFFFFFFFFFFFFFFFFFFFFFFFFFFFFFFFFFFFF AND PUSH20 0xFFFFFFFFFFFFFFFFFFFFFFFFFFFFFFFFFFFFFFFF AND PUSH4 0xDD62ED3E CALLER ADDRESS PUSH1 0x40 MLOAD DUP4 PUSH4 0xFFFFFFFF AND PUSH1 0xE0 SHL DUP2 MSTORE PUSH1 0x4 ADD PUSH2 0xBEC SWAP3 SWAP2 SWAP1 PUSH2 0x187F JUMP JUMPDEST PUSH1 0x20 PUSH1 0x40 MLOAD DUP1 DUP4 SUB DUP2 DUP7 GAS STATICCALL ISZERO DUP1 ISZERO PUSH2 0xC07 JUMPI RETURNDATASIZE PUSH0 PUSH0 RETURNDATACOPY RETURNDATASIZE PUSH0 REVERT JUMPDEST POP POP POP POP PUSH1 0x40 MLOAD RETURNDATASIZE PUSH1 0x1F NOT PUSH1 0x1F DUP3 ADD AND DUP3 ADD DUP1 PUSH1 0x40 MSTORE POP DUP2 ADD SWAP1 PUSH2 0xC2B SWAP2 SWAP1 PUSH2 0x18BA JUMP JUMPDEST LT ISZERO PUSH2 0xC6C JUMPI PUSH1 0x40 MLOAD PUSH32 0x8C379A000000000000000000000000000000000000000000000000000000000 DUP2 MSTORE PUSH1 0x4 ADD PUSH2 0xC63 SWAP1 PUSH2 0x192F JUMP JUMPDEST PUSH1 0x40 MLOAD DUP1 SWAP2 SUB SWAP1 REVERT JUMPDEST DUP2 PUSH1 0x2 PUSH0 SWAP1 SLOAD SWAP1 PUSH2 0x100 EXP SWAP1 DIV PUSH20 0xFFFFFFFFFFFFFFFFFFFFFFFFFFFFFFFFFFFFFFFF AND PUSH20 0xFFFFFFFFFFFFFFFFFFFFFFFFFFFFFFFFFFFFFFFF AND PUSH4 0x70A08231 CALLER PUSH1 0x40 MLOAD DUP3 PUSH4 0xFFFFFFFF AND PUSH1 0xE0 SHL DUP2 MSTORE PUSH1 0x4 ADD PUSH2 0xCC7 SWAP2 SWAP1 PUSH2 0x1337 JUMP JUMPDEST PUSH1 0x20 PUSH1 0x40 MLOAD DUP1 DUP4 SUB DUP2 DUP7 GAS STATICCALL ISZERO DUP1 ISZERO PUSH2 0xCE2 JUMPI RETURNDATASIZE PUSH0 PUSH0 RETURNDATACOPY RETURNDATASIZE PUSH0 REVERT JUMPDEST POP POP POP POP PUSH1 0x40 MLOAD RETURNDATASIZE PUSH1 0x1F NOT PUSH1 0x1F DUP3 ADD AND DUP3 ADD DUP1 PUSH1 0x40 MSTORE POP DUP2 ADD SWAP1 PUSH2 0xD06 SWAP2 SWAP1 PUSH2 0x18BA JUMP JUMPDEST LT ISZERO PUSH2 0xD47 JUMPI PUSH1 0x40 MLOAD PUSH32 0x8C379A000000000000000000000000000000000000000000000000000000000 DUP2 MSTORE PUSH1 0x4 ADD PUSH2 0xD3E SWAP1 PUSH2 0x1997 JUMP JUMPDEST PUSH1 0x40 MLOAD DUP1 SWAP2 SUB SWAP1 REVERT JUMPDEST PUSH1 0x2 PUSH0 SWAP1 SLOAD SWAP1 PUSH2 0x100 EXP SWAP1 DIV PUSH20 0xFFFFFFFFFFFFFFFFFFFFFFFFFFFFFFFFFFFFFFFF AND PUSH20 0xFFFFFFFFFFFFFFFFFFFFFFFFFFFFFFFFFFFFFFFF AND PUSH4 0x23B872DD CALLER PUSH1 0x1 PUSH0 SWAP1 SLOAD SWAP1 PUSH2 0x100 EXP SWAP1 DIV PUSH20 0xFFFFFFFFFFFFFFFFFFFFFFFFFFFFFFFFFFFFFFFF AND DUP6 PUSH1 0x40 MLOAD DUP5 PUSH4 0xFFFFFFFF AND PUSH1 0xE0 SHL DUP2 MSTORE PUSH1 0x4 ADD PUSH2 0xDC6 SWAP4 SWAP3 SWAP2 SWAP1 PUSH2 0x19B5 JUMP JUMPDEST PUSH1 0x20 PUSH1 0x40 MLOAD DUP1 DUP4 SUB DUP2 PUSH0 DUP8 GAS CALL ISZERO DUP1 ISZERO PUSH2 0xDE2 JUMPI RETURNDATASIZE PUSH0 PUSH0 RETURNDATACOPY RETURNDATASIZE PUSH0 REVERT JUMPDEST POP POP POP POP PUSH1 0x40 MLOAD RETURNDATASIZE PUSH1 0x1F NOT PUSH1 0x1F DUP3 ADD AND DUP3 ADD DUP1 PUSH1 0x40 MSTORE POP DUP2 ADD SWAP1 PUSH2 0xE06 SWAP2 SWAP1 PUSH2 0x1A14 JUMP JUMPDEST PUSH2 0xE45 JUMPI PUSH1 0x40 MLOAD PUSH32 0x8C379A000000000000000000000000000000000000000000000000000000000 DUP2 MSTORE PUSH1 0x4 ADD PUSH2 0xE3C SWAP1 PUSH2 0x1A89 JUMP JUMPDEST PUSH1 0x40 MLOAD DUP1 SWAP2 SUB SWAP1 REVERT JUMPDEST CALLER PUSH1 0x3 PUSH1 0x4 ADD PUSH0 PUSH2 0x100 EXP DUP2 SLOAD DUP2 PUSH20 0xFFFFFFFFFFFFFFFFFFFFFFFFFFFFFFFFFFFFFFFF MUL NOT AND SWAP1 DUP4 PUSH20 0xFFFFFFFFFFFFFFFFFFFFFFFFFFFFFFFFFFFFFFFF AND MUL OR SWAP1 SSTORE POP DUP2 PUSH1 0x3 PUSH1 0x5 ADD DUP2 SWAP1 SSTORE POP DUP3 PUSH1 0x3 PUSH1 0x6 ADD DUP2 SWAP1 SSTORE POP TIMESTAMP PUSH1 0x3 PUSH1 0x7 ADD DUP2 SWAP1 SSTORE POP PUSH32 0xDF8644C0A4C21ED214CE69F395675B3A5FCD1039083DAEA5058898DE40EA3149 CALLER DUP4 DUP6 PUSH1 0x40 MLOAD PUSH2 0xED9 SWAP4 SWAP3 SWAP2 SWAP1 PUSH2 0x1AA7 JUMP JUMPDEST PUSH1 0x40 MLOAD DUP1 SWAP2 SUB SWAP1 LOG1 POP JUMPDEST PUSH2 0xEEB PUSH2 0x1158 JUMP JUMPDEST POP POP JUMP JUMPDEST PUSH1 0x2 PUSH0 SWAP1 SLOAD SWAP1 PUSH2 0x100 EXP SWAP1 DIV PUSH20 0xFFFFFFFFFFFFFFFFFFFFFFFFFFFFFFFFFFFFFFFF AND DUP2 JUMP JUMPDEST PUSH0 PUSH0 PUSH0 PUSH0 PUSH0 PUSH0 PUSH0 PUSH0 PUSH0 PUSH1 0x3 PUSH1 0x40 MLOAD DUP1 PUSH2 0x120 ADD PUSH1 0x40 MSTORE SWAP1 DUP2 PUSH0 DUP3 ADD SLOAD DUP2 MSTORE PUSH1 0x20 ADD PUSH1 0x1 DUP3 ADD SLOAD DUP2 MSTORE PUSH1 0x20 ADD PUSH1 0x2 DUP3 ADD SLOAD DUP2 MSTORE PUSH1 0x20 ADD PUSH1 0x3 DUP3 ADD SLOAD DUP2 MSTORE PUSH1 0x20 ADD PUSH1 0x4 DUP3 ADD PUSH0 SWAP1 SLOAD SWAP1 PUSH2 0x100 EXP SWAP1 DIV PUSH20 0xFFFFFFFFFFFFFFFFFFFFFFFFFFFFFFFFFFFFFFFF AND PUSH20 0xFFFFFFFFFFFFFFFFFFFFFFFFFFFFFFFFFFFFFFFF AND PUSH20 0xFFFFFFFFFFFFFFFFFFFFFFFFFFFFFFFFFFFFFFFF AND DUP2 MSTORE PUSH1 0x20 ADD PUSH1 0x5 DUP3 ADD SLOAD DUP2 MSTORE PUSH1 0x20 ADD PUSH1 0x6 DUP3 ADD SLOAD DUP2 MSTORE PUSH1 0x20 ADD PUSH1 0x7 DUP3 ADD SLOAD DUP2 MSTORE PUSH1 0x20 ADD PUSH1 0x8 DUP3 ADD PUSH0 SWAP1 SLOAD SWAP1 PUSH2 0x100 EXP SWAP1 DIV PUSH1 0xFF AND ISZERO ISZERO ISZERO ISZERO DUP2 MSTORE POP POP SWAP1 POP DUP1 PUSH0 ADD MLOAD DUP2 PUSH1 0x20 ADD MLOAD DUP3 PUSH1 0x40 ADD MLOAD DUP4 PUSH1 0x60 ADD MLOAD DUP5 PUSH1 0x80 ADD MLOAD DUP6 PUSH1 0xA0 ADD MLOAD DUP7 PUSH1 0xC0 ADD MLOAD DUP8 PUSH2 0x100 ADD MLOAD SWAP9 POP SWAP9 POP SWAP9 POP SWAP9 POP SWAP9 POP SWAP9 POP SWAP9 POP SWAP9 POP POP SWAP1 SWAP2 SWAP3 SWAP4 SWAP5 SWAP6 SWAP7 SWAP8 JUMP JUMPDEST PUSH0 PUSH1 0x3 PUSH1 0x2 ADD SLOAD TIMESTAMP LT DUP1 PUSH2 0x103C JUMPI POP PUSH0 PUSH1 0x3 PUSH1 0x2 ADD SLOAD EQ JUMPDEST DUP1 PUSH2 0x1055 JUMPI POP PUSH1 0x3 PUSH1 0x8 ADD PUSH0 SWAP1 SLOAD SWAP1 PUSH2 0x100 EXP SWAP1 DIV PUSH1 0xFF AND JUMPDEST ISZERO PUSH2 0x1066 JUMPI PUSH1 0x3 PUSH0 ADD SLOAD SWAP1 POP PUSH2 0x1108 JUMP JUMPDEST PUSH0 PUSH1 0x3 PUSH1 0x2 ADD SLOAD TIMESTAMP PUSH2 0x1078 SWAP2 SWAP1 PUSH2 0x1BAC JUMP JUMPDEST SWAP1 POP PUSH1 0x3 DUP1 ADD SLOAD DUP2 LT PUSH2 0x1093 JUMPI PUSH1 0x3 PUSH1 0x1 ADD SLOAD SWAP2 POP POP PUSH2 0x1108 JUMP JUMPDEST PUSH0 PUSH1 0x3 PUSH1 0x1 ADD SLOAD PUSH1 0x3 PUSH0 ADD SLOAD PUSH2 0x10A9 SWAP2 SWAP1 PUSH2 0x1BAC JUMP JUMPDEST SWAP1 POP PUSH0 PUSH1 0x3 DUP1 ADD SLOAD PUSH8 0xDE0B6B3A7640000 DUP5 DUP5 PUSH2 0x10C6 SWAP2 SWAP1 PUSH2 0x1BDF JUMP JUMPDEST PUSH2 0x10D0 SWAP2 SWAP1 PUSH2 0x1BDF JUMP JUMPDEST PUSH2 0x10DA SWAP2 SWAP1 PUSH2 0x1C4D JUMP JUMPDEST SWAP1 POP PUSH8 0xDE0B6B3A7640000 DUP2 PUSH2 0x10F0 SWAP2 SWAP1 PUSH2 0x1C4D JUMP JUMPDEST SWAP1 POP DUP1 PUSH1 0x3 PUSH0 ADD SLOAD PUSH2 0x1102 SWAP2 SWAP1 PUSH2 0x1BAC JUMP JUMPDEST SWAP4 POP POP POP POP JUMPDEST SWAP1 JUMP JUMPDEST PUSH1 0x2 PUSH0 SLOAD SUB PUSH2 0x114F JUMPI PUSH1 0x40 MLOAD PUSH32 0x8C379A000000000000000000000000000000000000000000000000000000000 DUP2 MSTORE PUSH1 0x4 ADD PUSH2 0x1146 SWAP1 PUSH2 0x1CC7 JUMP JUMPDEST PUSH1 0x40 MLOAD DUP1 SWAP2 SUB SWAP1 REVERT JUMPDEST PUSH1 0x2 PUSH0 DUP2 SWAP1 SSTORE POP JUMP JUMPDEST PUSH1 0x1 PUSH0 DUP2 SWAP1 SSTORE POP JUMP JUMPDEST PUSH0 PUSH0 REVERT JUMPDEST PUSH0 PUSH20 0xFFFFFFFFFFFFFFFFFFFFFFFFFFFFFFFFFFFFFFFF DUP3 AND SWAP1 POP SWAP2 SWAP1 POP JUMP JUMPDEST PUSH0 PUSH2 0x118E DUP3 PUSH2 0x1165 JUMP JUMPDEST SWAP1 POP SWAP2 SWAP1 POP JUMP JUMPDEST PUSH2 0x119E DUP2 PUSH2 0x1184 JUMP JUMPDEST DUP2 EQ PUSH2 0x11A8 JUMPI PUSH0 PUSH0 REVERT JUMPDEST POP JUMP JUMPDEST PUSH0 DUP2 CALLDATALOAD SWAP1 POP PUSH2 0x11B9 DUP2 PUSH2 0x1195 JUMP JUMPDEST SWAP3 SWAP2 POP POP JUMP JUMPDEST PUSH0 PUSH1 0x20 DUP3 DUP5 SUB SLT ISZERO PUSH2 0x11D4 JUMPI PUSH2 0x11D3 PUSH2 0x1161 JUMP JUMPDEST JUMPDEST PUSH0 PUSH2 0x11E1 DUP5 DUP3 DUP6 ADD PUSH2 0x11AB JUMP JUMPDEST SWAP2 POP POP SWAP3 SWAP2 POP POP JUMP JUMPDEST PUSH0 DUP2 SWAP1 POP SWAP2 SWAP1 POP JUMP JUMPDEST PUSH2 0x11FC DUP2 PUSH2 0x11EA JUMP JUMPDEST DUP3 MSTORE POP POP JUMP JUMPDEST PUSH0 PUSH1 0x20 DUP3 ADD SWAP1 POP PUSH2 0x1215 PUSH0 DUP4 ADD DUP5 PUSH2 0x11F3 JUMP JUMPDEST SWAP3 SWAP2 POP POP JUMP JUMPDEST PUSH2 0x1224 DUP2 PUSH2 0x1184 JUMP JUMPDEST DUP3 MSTORE POP POP JUMP JUMPDEST PUSH0 DUP2 ISZERO ISZERO SWAP1 POP SWAP2 SWAP1 POP JUMP JUMPDEST PUSH2 0x123E DUP2 PUSH2 0x122A JUMP JUMPDEST DUP3 MSTORE POP POP JUMP JUMPDEST PUSH0 PUSH2 0x120 DUP3 ADD SWAP1 POP PUSH2 0x1258 PUSH0 DUP4 ADD DUP13 PUSH2 0x11F3 JUMP JUMPDEST PUSH2 0x1265 PUSH1 0x20 DUP4 ADD DUP12 PUSH2 0x11F3 JUMP JUMPDEST PUSH2 0x1272 PUSH1 0x40 DUP4 ADD DUP11 PUSH2 0x11F3 JUMP JUMPDEST PUSH2 0x127F PUSH1 0x60 DUP4 ADD DUP10 PUSH2 0x11F3 JUMP JUMPDEST PUSH2 0x128C PUSH1 0x80 DUP4 ADD DUP9 PUSH2 0x121B JUMP JUMPDEST PUSH2 0x1299 PUSH1 0xA0 DUP4 ADD DUP8 PUSH2 0x11F3 JUMP JUMPDEST PUSH2 0x12A6 PUSH1 0xC0 DUP4 ADD DUP7 PUSH2 0x11F3 JUMP JUMPDEST PUSH2 0x12B3 PUSH1 0xE0 DUP4 ADD DUP6 PUSH2 0x11F3 JUMP JUMPDEST PUSH2 0x12C1 PUSH2 0x100 DUP4 ADD DUP5 PUSH2 0x1235 JUMP JUMPDEST SWAP11 SWAP10 POP POP POP POP POP POP POP POP POP POP JUMP JUMPDEST PUSH2 0x12D8 DUP2 PUSH2 0x11EA JUMP JUMPDEST DUP2 EQ PUSH2 0x12E2 JUMPI PUSH0 PUSH0 REVERT JUMPDEST POP JUMP JUMPDEST PUSH0 DUP2 CALLDATALOAD SWAP1 POP PUSH2 0x12F3 DUP2 PUSH2 0x12CF JUMP JUMPDEST SWAP3 SWAP2 POP POP JUMP JUMPDEST PUSH0 PUSH0 PUSH1 0x40 DUP4 DUP6 SUB SLT ISZERO PUSH2 0x130F JUMPI PUSH2 0x130E PUSH2 0x1161 JUMP JUMPDEST JUMPDEST PUSH0 PUSH2 0x131C DUP6 DUP3 DUP7 ADD PUSH2 0x12E5 JUMP JUMPDEST SWAP3 POP POP PUSH1 0x20 PUSH2 0x132D DUP6 DUP3 DUP7 ADD PUSH2 0x12E5 JUMP JUMPDEST SWAP2 POP POP SWAP3 POP SWAP3 SWAP1 POP JUMP JUMPDEST PUSH0 PUSH1 0x20 DUP3 ADD SWAP1 POP PUSH2 0x134A PUSH0 DUP4 ADD DUP5 PUSH2 0x121B JUMP JUMPDEST SWAP3 SWAP2 POP POP JUMP JUMPDEST PUSH0 DUP2 SWAP1 POP SWAP2 SWAP1 POP JUMP JUMPDEST PUSH0 PUSH2 0x1373 PUSH2 0x136E PUSH2 0x1369 DUP5 PUSH2 0x1165 JUMP JUMPDEST PUSH2 0x1350 JUMP JUMPDEST PUSH2 0x1165 JUMP JUMPDEST SWAP1 POP SWAP2 SWAP1 POP JUMP JUMPDEST PUSH0 PUSH2 0x1384 DUP3 PUSH2 0x1359 JUMP JUMPDEST SWAP1 POP SWAP2 SWAP1 POP JUMP JUMPDEST PUSH0 PUSH2 0x1395 DUP3 PUSH2 0x137A JUMP JUMPDEST SWAP1 POP SWAP2 SWAP1 POP JUMP JUMPDEST PUSH2 0x13A5 DUP2 PUSH2 0x138B JUMP JUMPDEST DUP3 MSTORE POP POP JUMP JUMPDEST PUSH0 PUSH1 0x20 DUP3 ADD SWAP1 POP PUSH2 0x13BE PUSH0 DUP4 ADD DUP5 PUSH2 0x139C JUMP JUMPDEST SWAP3 SWAP2 POP POP JUMP JUMPDEST PUSH0 PUSH2 0x100 DUP3 ADD SWAP1 POP PUSH2 0x13D8 PUSH0 DUP4 ADD DUP12 PUSH2 0x11F3 JUMP JUMPDEST PUSH2 0x13E5 PUSH1 0x20 DUP4 ADD DUP11 PUSH2 0x11F3 JUMP JUMPDEST PUSH2 0x13F2 PUSH1 0x40 DUP4 ADD DUP10 PUSH2 0x11F3 JUMP JUMPDEST PUSH2 0x13FF PUSH1 0x60 DUP4 ADD DUP9 PUSH2 0x11F3 JUMP JUMPDEST PUSH2 0x140C PUSH1 0x80 DUP4 ADD DUP8 PUSH2 0x121B JUMP JUMPDEST PUSH2 0x1419 PUSH1 0xA0 DUP4 ADD DUP7 PUSH2 0x11F3 JUMP JUMPDEST PUSH2 0x1426 PUSH1 0xC0 DUP4 ADD DUP6 PUSH2 0x11F3 JUMP JUMPDEST PUSH2 0x1433 PUSH1 0xE0 DUP4 ADD DUP5 PUSH2 0x1235 JUMP JUMPDEST SWAP10 SWAP9 POP POP POP POP POP POP POP POP POP JUMP JUMPDEST PUSH0 DUP3 DUP3 MSTORE PUSH1 0x20 DUP3 ADD SWAP1 POP SWAP3 SWAP2 POP POP JUMP JUMPDEST PUSH32 0x4E6F7420746865206F70657261746F7200000000000000000000000000000000 PUSH0 DUP3 ADD MSTORE POP JUMP JUMPDEST PUSH0 PUSH2 0x1484 PUSH1 0x10 DUP4 PUSH2 0x1440 JUMP JUMPDEST SWAP2 POP PUSH2 0x148F DUP3 PUSH2 0x1450 JUMP JUMPDEST PUSH1 0x20 DUP3 ADD SWAP1 POP SWAP2 SWAP1 POP JUMP JUMPDEST PUSH0 PUSH1 0x20 DUP3 ADD SWAP1 POP DUP2 DUP2 SUB PUSH0 DUP4 ADD MSTORE PUSH2 0x14B1 DUP2 PUSH2 0x1478 JUMP JUMPDEST SWAP1 POP SWAP2 SWAP1 POP JUMP JUMPDEST PUSH32 0x496E76616C6964206F70657261746F7200000000000000000000000000000000 PUSH0 DUP3 ADD MSTORE POP JUMP JUMPDEST PUSH0 PUSH2 0x14EC PUSH1 0x10 DUP4 PUSH2 0x1440 JUMP JUMPDEST SWAP2 POP PUSH2 0x14F7 DUP3 PUSH2 0x14B8 JUMP JUMPDEST PUSH1 0x20 DUP3 ADD SWAP1 POP SWAP2 SWAP1 POP JUMP JUMPDEST PUSH0 PUSH1 0x20 DUP3 ADD SWAP1 POP DUP2 DUP2 SUB PUSH0 DUP4 ADD MSTORE PUSH2 0x1519 DUP2 PUSH2 0x14E0 JUMP JUMPDEST SWAP1 POP SWAP2 SWAP1 POP JUMP JUMPDEST PUSH32 0x5374617274207072696365206D7573742062652067726561746572207468616E PUSH0 DUP3 ADD MSTORE PUSH32 0x2030000000000000000000000000000000000000000000000000000000000000 PUSH1 0x20 DUP3 ADD MSTORE POP JUMP JUMPDEST PUSH0 PUSH2 0x157A PUSH1 0x22 DUP4 PUSH2 0x1440 JUMP JUMPDEST SWAP2 POP PUSH2 0x1585 DUP3 PUSH2 0x1520 JUMP JUMPDEST PUSH1 0x40 DUP3 ADD SWAP1 POP SWAP2 SWAP1 POP JUMP JUMPDEST PUSH0 PUSH1 0x20 DUP3 ADD SWAP1 POP DUP2 DUP2 SUB PUSH0 DUP4 ADD MSTORE PUSH2 0x15A7 DUP2 PUSH2 0x156E JUMP JUMPDEST SWAP1 POP SWAP2 SWAP1 POP JUMP JUMPDEST PUSH32 0x456E64207072696365206D757374206265203C3D207374617274207072696365 PUSH0 DUP3 ADD MSTORE POP JUMP JUMPDEST PUSH0 PUSH2 0x15E2 PUSH1 0x20 DUP4 PUSH2 0x1440 JUMP JUMPDEST SWAP2 POP PUSH2 0x15ED DUP3 PUSH2 0x15AE JUMP JUMPDEST PUSH1 0x20 DUP3 ADD SWAP1 POP SWAP2 SWAP1 POP JUMP JUMPDEST PUSH0 PUSH1 0x20 DUP3 ADD SWAP1 POP DUP2 DUP2 SUB PUSH0 DUP4 ADD MSTORE PUSH2 0x160F DUP2 PUSH2 0x15D6 JUMP JUMPDEST SWAP1 POP SWAP2 SWAP1 POP JUMP JUMPDEST PUSH0 PUSH1 0x80 DUP3 ADD SWAP1 POP PUSH2 0x1629 PUSH0 DUP4 ADD DUP8 PUSH2 0x11F3 JUMP JUMPDEST PUSH2 0x1636 PUSH1 0x20 DUP4 ADD DUP7 PUSH2 0x11F3 JUMP JUMPDEST PUSH2 0x1643 PUSH1 0x40 DUP4 ADD DUP6 PUSH2 0x11F3 JUMP JUMPDEST PUSH2 0x1650 PUSH1 0x60 DUP4 ADD DUP5 PUSH2 0x11F3 JUMP JUMPDEST SWAP6 SWAP5 POP POP POP POP POP JUMP JUMPDEST PUSH32 0x4E487B7100000000000000000000000000000000000000000000000000000000 PUSH0 MSTORE PUSH1 0x11 PUSH1 0x4 MSTORE PUSH1 0x24 PUSH0 REVERT JUMPDEST PUSH0 PUSH2 0x1690 DUP3 PUSH2 0x11EA JUMP JUMPDEST SWAP2 POP PUSH2 0x169B DUP4 PUSH2 0x11EA JUMP JUMPDEST SWAP3 POP DUP3 DUP3 ADD SWAP1 POP DUP1 DUP3 GT ISZERO PUSH2 0x16B3 JUMPI PUSH2 0x16B2 PUSH2 0x1659 JUMP JUMPDEST JUMPDEST SWAP3 SWAP2 POP POP JUMP JUMPDEST PUSH32 0x41756374696F6E206E6F74206163746976650000000000000000000000000000 PUSH0 DUP3 ADD MSTORE POP JUMP JUMPDEST PUSH0 PUSH2 0x16ED PUSH1 0x12 DUP4 PUSH2 0x1440 JUMP JUMPDEST SWAP2 POP PUSH2 0x16F8 DUP3 PUSH2 0x16B9 JUMP JUMPDEST PUSH1 0x20 DUP3 ADD SWAP1 POP SWAP2 SWAP1 POP JUMP JUMPDEST PUSH0 PUSH1 0x20 DUP3 ADD SWAP1 POP DUP2 DUP2 SUB PUSH0 DUP4 ADD MSTORE PUSH2 0x171A DUP2 PUSH2 0x16E1 JUMP JUMPDEST SWAP1 POP SWAP2 SWAP1 POP JUMP JUMPDEST PUSH32 0x41756374696F6E20616C726561647920656E6465640000000000000000000000 PUSH0 DUP3 ADD MSTORE POP JUMP JUMPDEST PUSH0 PUSH2 0x1755 PUSH1 0x15 DUP4 PUSH2 0x1440 JUMP JUMPDEST SWAP2 POP PUSH2 0x1760 DUP3 PUSH2 0x1721 JUMP JUMPDEST PUSH1 0x20 DUP3 ADD SWAP1 POP SWAP2 SWAP1 POP JUMP JUMPDEST PUSH0 PUSH1 0x20 DUP3 ADD SWAP1 POP DUP2 DUP2 SUB PUSH0 DUP4 ADD MSTORE PUSH2 0x1782 DUP2 PUSH2 0x1749 JUMP JUMPDEST SWAP1 POP SWAP2 SWAP1 POP JUMP JUMPDEST PUSH32 0x4269642062656C6F772063757272656E74207072696365000000000000000000 PUSH0 DUP3 ADD MSTORE POP JUMP JUMPDEST PUSH0 PUSH2 0x17BD PUSH1 0x17 DUP4 PUSH2 0x1440 JUMP JUMPDEST SWAP2 POP PUSH2 0x17C8 DUP3 PUSH2 0x1789 JUMP JUMPDEST PUSH1 0x20 DUP3 ADD SWAP1 POP SWAP2 SWAP1 POP JUMP JUMPDEST PUSH0 PUSH1 0x20 DUP3 ADD SWAP1 POP DUP2 DUP2 SUB PUSH0 DUP4 ADD MSTORE PUSH2 0x17EA DUP2 PUSH2 0x17B1 JUMP JUMPDEST SWAP1 POP SWAP2 SWAP1 POP JUMP JUMPDEST PUSH32 0x42696420616D6F756E74206D7573742062652067726561746572207468616E20 PUSH0 DUP3 ADD MSTORE PUSH32 0x3000000000000000000000000000000000000000000000000000000000000000 PUSH1 0x20 DUP3 ADD MSTORE POP JUMP JUMPDEST PUSH0 PUSH2 0x184B PUSH1 0x21 DUP4 PUSH2 0x1440 JUMP JUMPDEST SWAP2 POP PUSH2 0x1856 DUP3 PUSH2 0x17F1 JUMP JUMPDEST PUSH1 0x40 DUP3 ADD SWAP1 POP SWAP2 SWAP1 POP JUMP JUMPDEST PUSH0 PUSH1 0x20 DUP3 ADD SWAP1 POP DUP2 DUP2 SUB PUSH0 DUP4 ADD MSTORE PUSH2 0x1878 DUP2 PUSH2 0x183F JUMP JUMPDEST SWAP1 POP SWAP2 SWAP1 POP JUMP JUMPDEST PUSH0 PUSH1 0x40 DUP3 ADD SWAP1 POP PUSH2 0x1892 PUSH0 DUP4 ADD DUP6 PUSH2 0x121B JUMP JUMPDEST PUSH2 0x189F PUSH1 0x20 DUP4 ADD DUP5 PUSH2 0x121B JUMP JUMPDEST SWAP4 SWAP3 POP POP POP JUMP JUMPDEST PUSH0 DUP2 MLOAD SWAP1 POP PUSH2 0x18B4 DUP2 PUSH2 0x12CF JUMP JUMPDEST SWAP3 SWAP2 POP POP JUMP JUMPDEST PUSH0 PUSH1 0x20 DUP3 DUP5 SUB SLT ISZERO PUSH2 0x18CF JUMPI PUSH2 0x18CE PUSH2 0x1161 JUMP JUMPDEST JUMPDEST PUSH0 PUSH2 0x18DC DUP5 DUP3 DUP6 ADD PUSH2 0x18A6 JUMP JUMPDEST SWAP2 POP POP SWAP3 SWAP2 POP POP JUMP JUMPDEST PUSH32 0x496E73756666696369656E7420616C6C6F77616E636500000000000000000000 PUSH0 DUP3 ADD MSTORE POP JUMP JUMPDEST PUSH0 PUSH2 0x1919 PUSH1 0x16 DUP4 PUSH2 0x1440 JUMP JUMPDEST SWAP2 POP PUSH2 0x1924 DUP3 PUSH2 0x18E5 JUMP JUMPDEST PUSH1 0x20 DUP3 ADD SWAP1 POP SWAP2 SWAP1 POP JUMP JUMPDEST PUSH0 PUSH1 0x20 DUP3 ADD SWAP1 POP DUP2 DUP2 SUB PUSH0 DUP4 ADD MSTORE PUSH2 0x1946 DUP2 PUSH2 0x190D JUMP JUMPDEST SWAP1 POP SWAP2 SWAP1 POP JUMP JUMPDEST PUSH32 0x496E73756666696369656E742062616C616E6365000000000000000000000000 PUSH0 DUP3 ADD MSTORE POP JUMP JUMPDEST PUSH0 PUSH2 0x1981 PUSH1 0x14 DUP4 PUSH2 0x1440 JUMP JUMPDEST SWAP2 POP PUSH2 0x198C DUP3 PUSH2 0x194D JUMP JUMPDEST PUSH1 0x20 DUP3 ADD SWAP1 POP SWAP2 SWAP1 POP JUMP JUMPDEST PUSH0 PUSH1 0x20 DUP3 ADD SWAP1 POP DUP2 DUP2 SUB PUSH0 DUP4 ADD MSTORE PUSH2 0x19AE DUP2 PUSH2 0x1975 JUMP JUMPDEST SWAP1 POP SWAP2 SWAP1 POP JUMP JUMPDEST PUSH0 PUSH1 0x60 DUP3 ADD SWAP1 POP PUSH2 0x19C8 PUSH0 DUP4 ADD DUP7 PUSH2 0x121B JUMP JUMPDEST PUSH2 0x19D5 PUSH1 0x20 DUP4 ADD DUP6 PUSH2 0x121B JUMP JUMPDEST PUSH2 0x19E2 PUSH1 0x40 DUP4 ADD DUP5 PUSH2 0x11F3 JUMP JUMPDEST SWAP5 SWAP4 POP POP POP POP JUMP JUMPDEST PUSH2 0x19F3 DUP2 PUSH2 0x122A JUMP JUMPDEST DUP2 EQ PUSH2 0x19FD JUMPI PUSH0 PUSH0 REVERT JUMPDEST POP JUMP JUMPDEST PUSH0 DUP2 MLOAD SWAP1 POP PUSH2 0x1A0E DUP2 PUSH2 0x19EA JUMP JUMPDEST SWAP3 SWAP2 POP POP JUMP JUMPDEST PUSH0 PUSH1 0x20 DUP3 DUP5 SUB SLT ISZERO PUSH2 0x1A29 JUMPI PUSH2 0x1A28 PUSH2 0x1161 JUMP JUMPDEST JUMPDEST PUSH0 PUSH2 0x1A36 DUP5 DUP3 DUP6 ADD PUSH2 0x1A00 JUMP JUMPDEST SWAP2 POP POP SWAP3 SWAP2 POP POP JUMP JUMPDEST PUSH32 0x546F6B656E207472616E73666572206661696C65640000000000000000000000 PUSH0 DUP3 ADD MSTORE POP JUMP JUMPDEST PUSH0 PUSH2 0x1A73 PUSH1 0x15 DUP4 PUSH2 0x1440 JUMP JUMPDEST SWAP2 POP PUSH2 0x1A7E DUP3 PUSH2 0x1A3F JUMP JUMPDEST PUSH1 0x20 DUP3 ADD SWAP1 POP SWAP2 SWAP1 POP JUMP JUMPDEST PUSH0 PUSH1 0x20 DUP3 ADD SWAP1 POP DUP2 DUP2 SUB PUSH0 DUP4 ADD MSTORE PUSH2 0x1AA0 DUP2 PUSH2 0x1A67 JUMP JUMPDEST SWAP1 POP SWAP2 SWAP1 POP JUMP JUMPDEST PUSH0 PUSH1 0x60 DUP3 ADD SWAP1 POP PUSH2 0x1ABA PUSH0 DUP4 ADD DUP7 PUSH2 0x121B JUMP JUMPDEST PUSH2 0x1AC7 PUSH1 0x20 DUP4 ADD DUP6 PUSH2 0x11F3 JUMP JUMPDEST PUSH2 0x1AD4 PUSH1 0x40 DUP4 ADD DUP5 PUSH2 0x11F3 JUMP JUMPDEST SWAP5 SWAP4 POP POP POP POP JUMP JUMPDEST PUSH32 0x4D7573742062696420686967686572207468616E2063757272656E7420626964 PUSH0 DUP3 ADD MSTORE POP JUMP JUMPDEST PUSH0 PUSH2 0x1B10 PUSH1 0x20 DUP4 PUSH2 0x1440 JUMP JUMPDEST SWAP2 POP PUSH2 0x1B1B DUP3 PUSH2 0x1ADC JUMP JUMPDEST PUSH1 0x20 DUP3 ADD SWAP1 POP SWAP2 SWAP1 POP JUMP JUMPDEST PUSH0 PUSH1 0x20 DUP3 ADD SWAP1 POP DUP2 DUP2 SUB PUSH0 DUP4 ADD MSTORE PUSH2 0x1B3D DUP2 PUSH2 0x1B04 JUMP JUMPDEST SWAP1 POP SWAP2 SWAP1 POP JUMP JUMPDEST PUSH32 0x4D696E696D756D2062696420706572696F64206E6F7420656C61707365640000 PUSH0 DUP3 ADD MSTORE POP JUMP JUMPDEST PUSH0 PUSH2 0x1B78 PUSH1 0x1E DUP4 PUSH2 0x1440 JUMP JUMPDEST SWAP2 POP PUSH2 0x1B83 DUP3 PUSH2 0x1B44 JUMP JUMPDEST PUSH1 0x20 DUP3 ADD SWAP1 POP SWAP2 SWAP1 POP JUMP JUMPDEST PUSH0 PUSH1 0x20 DUP3 ADD SWAP1 POP DUP2 DUP2 SUB PUSH0 DUP4 ADD MSTORE PUSH2 0x1BA5 DUP2 PUSH2 0x1B6C JUMP JUMPDEST SWAP1 POP SWAP2 SWAP1 POP JUMP JUMPDEST PUSH0 PUSH2 0x1BB6 DUP3 PUSH2 0x11EA JUMP JUMPDEST SWAP2 POP PUSH2 0x1BC1 DUP4 PUSH2 0x11EA JUMP JUMPDEST SWAP3 POP DUP3 DUP3 SUB SWAP1 POP DUP2 DUP2 GT ISZERO PUSH2 0x1BD9 JUMPI PUSH2 0x1BD8 PUSH2 0x1659 JUMP JUMPDEST JUMPDEST SWAP3 SWAP2 POP POP JUMP JUMPDEST PUSH0 PUSH2 0x1BE9 DUP3 PUSH2 0x11EA JUMP JUMPDEST SWAP2 POP PUSH2 0x1BF4 DUP4 PUSH2 0x11EA JUMP JUMPDEST SWAP3 POP DUP3 DUP3 MUL PUSH2 0x1C02 DUP2 PUSH2 0x11EA JUMP JUMPDEST SWAP2 POP DUP3 DUP3 DIV DUP5 EQ DUP4 ISZERO OR PUSH2 0x1C19 JUMPI PUSH2 0x1C18 PUSH2 0x1659 JUMP JUMPDEST JUMPDEST POP SWAP3 SWAP2 POP POP JUMP JUMPDEST PUSH32 0x4E487B7100000000000000000000000000000000000000000000000000000000 PUSH0 MSTORE PUSH1 0x12 PUSH1 0x4 MSTORE PUSH1 0x24 PUSH0 REVERT JUMPDEST PUSH0 PUSH2 0x1C57 DUP3 PUSH2 0x11EA JUMP JUMPDEST SWAP2 POP PUSH2 0x1C62 DUP4 PUSH2 0x11EA JUMP JUMPDEST SWAP3 POP DUP3 PUSH2 0x1C72 JUMPI PUSH2 0x1C71 PUSH2 0x1C20 JUMP JUMPDEST JUMPDEST DUP3 DUP3 DIV SWAP1 POP SWAP3 SWAP2 POP POP JUMP JUMPDEST PUSH32 0x5265656E7472616E637947756172643A207265656E7472616E742063616C6C00 PUSH0 DUP3 ADD MSTORE POP JUMP JUMPDEST PUSH0 PUSH2 0x1CB1 PUSH1 0x1F DUP4 PUSH2 0x1440 JUMP JUMPDEST SWAP2 POP PUSH2 0x1CBC DUP3 PUSH2 0x1C7D JUMP JUMPDEST PUSH1 0x20 DUP3 ADD SWAP1 POP SWAP2 SWAP1 POP JUMP JUMPDEST PUSH0 PUSH1 0x20 DUP3 ADD SWAP1 POP DUP2 DUP2 SUB PUSH0 DUP4 ADD MSTORE PUSH2 0x1CDE DUP2 PUSH2 0x1CA5 JUMP JUMPDEST SWAP1 POP SWAP2 SWAP1 POP JUMP INVALID LOG2 PUSH5 0x6970667358 0x22 SLT KECCAK256 EXTCODECOPY DUP1 0xB6 PUSH32 0xB8F85006618BA4B41C5F990880571D085AE2474A84BD631CD929F0DB64736F6C PUSH4 0x4300081C STOP CALLER "
				},
				"gasEstimates": {
					"creation": {
						"codeDepositCost": "1490200",
						"executionCost": "infinite",
						"totalCost": "infinite"
					},
					"external": {
						"MINIMUM_BID_PERIOD()": "348",
						"biddingToken()": "infinite",
						"changeOperator(address)": "26919",
						"currentAuction()": "infinite",
						"getAuctionInfo()": "infinite",
						"getCurrentPrice()": "infinite",
						"operator()": "2508",
						"placeBid(uint256,uint256)": "infinite",
						"startAuction(uint256,uint256)": "infinite"
					}
				},
				"methodIdentifiers": {
					"MINIMUM_BID_PERIOD()": "37a35344",
					"biddingToken()": "639d7566",
					"changeOperator(address)": "06394c9b",
					"currentAuction()": "496a698d",
					"getAuctionInfo()": "d94a3505",
					"getCurrentPrice()": "eb91d37e",
					"operator()": "570ca735",
					"placeBid(uint256,uint256)": "57c90de5",
					"startAuction(uint256,uint256)": "4fee13fc"
				}
			},
			"storageLayout": {
				"storage": [
					{
						"astId": 10,
						"contract": "contracts/PlaceholderAdsMarketplace.sol:PlaceholderAdsMarketplace",
						"label": "_status",
						"offset": 0,
						"slot": "0",
						"type": "t_uint256"
					},
					{
						"astId": 176,
						"contract": "contracts/PlaceholderAdsMarketplace.sol:PlaceholderAdsMarketplace",
						"label": "operator",
						"offset": 0,
						"slot": "1",
						"type": "t_address"
					},
					{
						"astId": 179,
						"contract": "contracts/PlaceholderAdsMarketplace.sol:PlaceholderAdsMarketplace",
						"label": "biddingToken",
						"offset": 0,
						"slot": "2",
						"type": "t_contract(IERC20)142"
					},
					{
						"astId": 204,
						"contract": "contracts/PlaceholderAdsMarketplace.sol:PlaceholderAdsMarketplace",
						"label": "currentAuction",
						"offset": 0,
						"slot": "3",
						"type": "t_struct(Auction)201_storage"
					}
				],
				"types": {
					"t_address": {
						"encoding": "inplace",
						"label": "address",
						"numberOfBytes": "20"
					},
					"t_bool": {
						"encoding": "inplace",
						"label": "bool",
						"numberOfBytes": "1"
					},
					"t_contract(IERC20)142": {
						"encoding": "inplace",
						"label": "contract IERC20",
						"numberOfBytes": "20"
					},
					"t_struct(Auction)201_storage": {
						"encoding": "inplace",
						"label": "struct PlaceholderAdsMarketplace.Auction",
						"members": [
							{
								"astId": 184,
								"contract": "contracts/PlaceholderAdsMarketplace.sol:PlaceholderAdsMarketplace",
								"label": "startPrice",
								"offset": 0,
								"slot": "0",
								"type": "t_uint256"
							},
							{
								"astId": 186,
								"contract": "contracts/PlaceholderAdsMarketplace.sol:PlaceholderAdsMarketplace",
								"label": "endPrice",
								"offset": 0,
								"slot": "1",
								"type": "t_uint256"
							},
							{
								"astId": 188,
								"contract": "contracts/PlaceholderAdsMarketplace.sol:PlaceholderAdsMarketplace",
								"label": "startTime",
								"offset": 0,
								"slot": "2",
								"type": "t_uint256"
							},
							{
								"astId": 190,
								"contract": "contracts/PlaceholderAdsMarketplace.sol:PlaceholderAdsMarketplace",
								"label": "duration",
								"offset": 0,
								"slot": "3",
								"type": "t_uint256"
							},
							{
								"astId": 192,
								"contract": "contracts/PlaceholderAdsMarketplace.sol:PlaceholderAdsMarketplace",
								"label": "winner",
								"offset": 0,
								"slot": "4",
								"type": "t_address"
							},
							{
								"astId": 194,
								"contract": "contracts/PlaceholderAdsMarketplace.sol:PlaceholderAdsMarketplace",
								"label": "winningBid",
								"offset": 0,
								"slot": "5",
								"type": "t_uint256"
							},
							{
								"astId": 196,
								"contract": "contracts/PlaceholderAdsMarketplace.sol:PlaceholderAdsMarketplace",
								"label": "winningTokenId",
								"offset": 0,
								"slot": "6",
								"type": "t_uint256"
							},
							{
								"astId": 198,
								"contract": "contracts/PlaceholderAdsMarketplace.sol:PlaceholderAdsMarketplace",
								"label": "lastBidTime",
								"offset": 0,
								"slot": "7",
								"type": "t_uint256"
							},
							{
								"astId": 200,
								"contract": "contracts/PlaceholderAdsMarketplace.sol:PlaceholderAdsMarketplace",
								"label": "ended",
								"offset": 0,
								"slot": "8",
								"type": "t_bool"
							}
						],
						"numberOfBytes": "288"
					},
					"t_uint256": {
						"encoding": "inplace",
						"label": "uint256",
						"numberOfBytes": "32"
					}
				}
			},
			"userdoc": {
				"kind": "user",
				"methods": {},
				"version": 1
			}
		}
	}
}