{
	"data": {
		"bytecode": {
			"linkReferences": {},
			"object": "608060405234801561000f575f5ffd5b506040516128e33803806128e38339818101604052810190610031919061018a565b60015f819055505f73ffffffffffffffffffffffffffffffffffffffff168173ffffffffffffffffffffffffffffffffffffffff16036100a6576040517f08c379a000000000000000000000000000000000000000000000000000000000815260040161009d9061020f565b60405180910390fd5b3360015f6101000a81548173ffffffffffffffffffffffffffffffffffffffff021916908373ffffffffffffffffffffffffffffffffffffffff1602179055508060025f6101000a81548173ffffffffffffffffffffffffffffffffffffffff021916908373ffffffffffffffffffffffffffffffffffffffff1602179055505061022d565b5f5ffd5b5f73ffffffffffffffffffffffffffffffffffffffff82169050919050565b5f61015982610130565b9050919050565b6101698161014f565b8114610173575f5ffd5b50565b5f8151905061018481610160565b92915050565b5f6020828403121561019f5761019e61012c565b5b5f6101ac84828501610176565b91505092915050565b5f82825260208201905092915050565b7f496e76616c696420746f6b656e206164647265737300000000000000000000005f82015250565b5f6101f96015836101b5565b9150610204826101c5565b602082019050919050565b5f6020820190508181035f830152610226816101ed565b9050919050565b6126a98061023a5f395ff3fe608060405234801561000f575f5ffd5b50600436106100a7575f3560e01c8063570ca7351161006f578063570ca7351461014557806357c90de514610163578063639d75661461017f578063c63fdcc71461019d578063d94a3505146101b9578063eb91d37e146101de576100a7565b806306394c9b146100ab5780632f19c56a146100c757806337a35344146100e3578063496a698d146101015780634fee13fc14610129575b5f5ffd5b6100c560048036038101906100c0919061179f565b6101fc565b005b6100e160048036038101906100dc9190611830565b61033c565b005b6100eb610510565b6040516100f8919061187d565b60405180910390f35b610109610515565b6040516101209b9a999897969594939291906118bf565b60405180910390f35b610143600480360381019061013e9190611968565b6105a1565b005b61014d61085a565b60405161015a91906119a6565b60405180910390f35b61017d60048036038101906101789190611968565b61087f565b005b61018761116c565b6040516101949190611a1a565b60405180910390f35b6101b760048036038101906101b29190611a33565b611191565b005b6101c16114bd565b6040516101d5989796959493929190611a5e565b60405180910390f35b6101e6611603565b6040516101f3919061187d565b60405180910390f35b60015f9054906101000a900473ffffffffffffffffffffffffffffffffffffffff1673ffffffffffffffffffffffffffffffffffffffff163373ffffffffffffffffffffffffffffffffffffffff161461028b576040517f08c379a000000000000000000000000000000000000000000000000000000000815260040161028290611b34565b60405180910390fd5b5f73ffffffffffffffffffffffffffffffffffffffff168173ffffffffffffffffffffffffffffffffffffffff16036102f9576040517f08c379a00000000000000000000000000000000000000000000000000000000081526004016102f090611b9c565b60405180910390fd5b8060015f6101000a81548173ffffffffffffffffffffffffffffffffffffffff021916908373ffffffffffffffffffffffffffffffffffffffff16021790555050565b60015f9054906101000a900473ffffffffffffffffffffffffffffffffffffffff1673ffffffffffffffffffffffffffffffffffffffff163373ffffffffffffffffffffffffffffffffffffffff16146103cb576040517f08c379a00000000000000000000000000000000000000000000000000000000081526004016103c290611b34565b60405180910390fd5b600360080160029054906101000a900460ff1661041d576040517f08c379a000000000000000000000000000000000000000000000000000000000815260040161041490611c04565b60405180910390fd5b8160036006015414610464576040517f08c379a000000000000000000000000000000000000000000000000000000000815260040161045b90611c6c565b60405180910390fd5b60036008015f9054906101000a900460ff16156104b6576040517f08c379a00000000000000000000000000000000000000000000000000000000081526004016104ad90611cd4565b60405180910390fd5b600160036008015f6101000a81548160ff0219169083151502179055507f556d8e38b75e3e273793af33ddc3e1c8bc47d1cd092b52f3a239d9d1c88189978282604051610504929190611d01565b60405180910390a15050565b601481565b6003805f015490806001015490806002015490806003015490806004015f9054906101000a900473ffffffffffffffffffffffffffffffffffffffff1690806005015490806006015490806007015490806008015f9054906101000a900460ff16908060080160019054906101000a900460ff16908060080160029054906101000a900460ff1690508b565b60015f9054906101000a900473ffffffffffffffffffffffffffffffffffffffff1673ffffffffffffffffffffffffffffffffffffffff163373ffffffffffffffffffffffffffffffffffffffff1614610630576040517f08c379a000000000000000000000000000000000000000000000000000000000815260040161062790611b34565b60405180910390fd5b5f8211610672576040517f08c379a000000000000000000000000000000000000000000000000000000000815260040161066990611d98565b60405180910390fd5b818111156106b5576040517f08c379a00000000000000000000000000000000000000000000000000000000081526004016106ac90611e00565b60405180910390fd5b5f4290505f60b490506040518061016001604052808581526020018481526020018381526020018281526020015f73ffffffffffffffffffffffffffffffffffffffff1681526020015f81526020015f81526020015f81526020015f151581526020015f151581526020015f151581525060035f820151815f01556020820151816001015560408201518160020155606082015181600301556080820151816004015f6101000a81548173ffffffffffffffffffffffffffffffffffffffff021916908373ffffffffffffffffffffffffffffffffffffffff16021790555060a0820151816005015560c0820151816006015560e08201518160070155610100820151816008015f6101000a81548160ff0219169083151502179055506101208201518160080160016101000a81548160ff0219169083151502179055506101408201518160080160026101000a81548160ff0219169083151502179055509050507fa832766a05f1bd0298b0268308621777cfe1e4eea23afe7c06beea79bc6ddd2d8484848460405161084c9493929190611e1e565b60405180910390a150505050565b60015f9054906101000a900473ffffffffffffffffffffffffffffffffffffffff1681565b6108876116eb565b60036002015442101580156108b0575060038001546003600201546108ac9190611e8e565b4211155b6108ef576040517f08c379a00000000000000000000000000000000000000000000000000000000081526004016108e690611f0b565b60405180910390fd5b600360080160029054906101000a900460ff1615610942576040517f08c379a000000000000000000000000000000000000000000000000000000000815260040161093990611f73565b60405180910390fd5b5f61094b611603565b905080821015610990576040517f08c379a000000000000000000000000000000000000000000000000000000000815260040161098790611fdb565b60405180910390fd5b5f82116109d2576040517f08c379a00000000000000000000000000000000000000000000000000000000081526004016109c990612069565b60405180910390fd5b60035f01548210610d63578160025f9054906101000a900473ffffffffffffffffffffffffffffffffffffffff1673ffffffffffffffffffffffffffffffffffffffff1663dd62ed3e33306040518363ffffffff1660e01b8152600401610a3a929190612087565b602060405180830381865afa158015610a55573d5f5f3e3d5ffd5b505050506040513d601f19601f82011682018060405250810190610a7991906120c2565b1015610aba576040517f08c379a0000000000000000000000000000000000000000000000000000000008152600401610ab190612137565b60405180910390fd5b8160025f9054906101000a900473ffffffffffffffffffffffffffffffffffffffff1673ffffffffffffffffffffffffffffffffffffffff166370a08231336040518263ffffffff1660e01b8152600401610b1591906119a6565b602060405180830381865afa158015610b30573d5f5f3e3d5ffd5b505050506040513d601f19601f82011682018060405250810190610b5491906120c2565b1015610b95576040517f08c379a0000000000000000000000000000000000000000000000000000000008152600401610b8c9061219f565b60405180910390fd5b60025f9054906101000a900473ffffffffffffffffffffffffffffffffffffffff1673ffffffffffffffffffffffffffffffffffffffff166323b872dd3330856040518463ffffffff1660e01b8152600401610bf3939291906121bd565b6020604051808303815f875af1158015610c0f573d5f5f3e3d5ffd5b505050506040513d601f19601f82011682018060405250810190610c33919061221c565b610c72576040517f08c379a0000000000000000000000000000000000000000000000000000000008152600401610c6990612291565b60405180910390fd5b3360036004015f6101000a81548173ffffffffffffffffffffffffffffffffffffffff021916908373ffffffffffffffffffffffffffffffffffffffff16021790555081600360050181905550826003600601819055506001600360080160026101000a81548160ff0219169083151502179055507fdf8644c0a4c21ed214ce69f395675b3a5fcd1039083daea5058898de40ea3149338385604051610d1a939291906122af565b60405180910390a17fc358e8e3f205b5e7453abd5cbac388ca4552b887b69001bc972b88610c749035338385604051610d55939291906122af565b60405180910390a150611160565b5f6003600501541115610e0c576003600501548211610db7576040517f08c379a0000000000000000000000000000000000000000000000000000000008152600401610dae9061232e565b60405180910390fd5b6014600360070154610dc99190611e8e565b421015610e0b576040517f08c379a0000000000000000000000000000000000000000000000000000000008152600401610e0290612396565b60405180910390fd5b5b8160025f9054906101000a900473ffffffffffffffffffffffffffffffffffffffff1673ffffffffffffffffffffffffffffffffffffffff1663dd62ed3e33306040518363ffffffff1660e01b8152600401610e69929190612087565b602060405180830381865afa158015610e84573d5f5f3e3d5ffd5b505050506040513d601f19601f82011682018060405250810190610ea891906120c2565b1015610ee9576040517f08c379a0000000000000000000000000000000000000000000000000000000008152600401610ee090612137565b60405180910390fd5b8160025f9054906101000a900473ffffffffffffffffffffffffffffffffffffffff1673ffffffffffffffffffffffffffffffffffffffff166370a08231336040518263ffffffff1660e01b8152600401610f4491906119a6565b602060405180830381865afa158015610f5f573d5f5f3e3d5ffd5b505050506040513d601f19601f82011682018060405250810190610f8391906120c2565b1015610fc4576040517f08c379a0000000000000000000000000000000000000000000000000000000008152600401610fbb9061219f565b60405180910390fd5b60025f9054906101000a900473ffffffffffffffffffffffffffffffffffffffff1673ffffffffffffffffffffffffffffffffffffffff166323b872dd3360015f9054906101000a900473ffffffffffffffffffffffffffffffffffffffff16856040518463ffffffff1660e01b8152600401611043939291906121bd565b6020604051808303815f875af115801561105f573d5f5f3e3d5ffd5b505050506040513d601f19601f82011682018060405250810190611083919061221c565b6110c2576040517f08c379a00000000000000000000000000000000000000000000000000000000081526004016110b990612291565b60405180910390fd5b3360036004015f6101000a81548173ffffffffffffffffffffffffffffffffffffffff021916908373ffffffffffffffffffffffffffffffffffffffff1602179055508160036005018190555082600360060181905550426003600701819055507fdf8644c0a4c21ed214ce69f395675b3a5fcd1039083daea5058898de40ea3149338385604051611156939291906122af565b60405180910390a1505b611168611738565b5050565b60025f9054906101000a900473ffffffffffffffffffffffffffffffffffffffff1681565b60015f9054906101000a900473ffffffffffffffffffffffffffffffffffffffff1673ffffffffffffffffffffffffffffffffffffffff163373ffffffffffffffffffffffffffffffffffffffff1614611220576040517f08c379a000000000000000000000000000000000000000000000000000000000815260040161121790611b34565b60405180910390fd5b600360080160029054906101000a900460ff16611272576040517f08c379a000000000000000000000000000000000000000000000000000000000815260040161126990611c04565b60405180910390fd5b60036008015f9054906101000a900460ff166112c3576040517f08c379a00000000000000000000000000000000000000000000000000000000081526004016112ba906123fe565b60405180910390fd5b600360080160019054906101000a900460ff1615611316576040517f08c379a000000000000000000000000000000000000000000000000000000000815260040161130d90612466565b60405180910390fd5b806003600601541461135d576040517f08c379a000000000000000000000000000000000000000000000000000000000815260040161135490611c6c565b60405180910390fd5b6001600360080160016101000a81548160ff02191690831515021790555060025f9054906101000a900473ffffffffffffffffffffffffffffffffffffffff1673ffffffffffffffffffffffffffffffffffffffff1663a9059cbb60015f9054906101000a900473ffffffffffffffffffffffffffffffffffffffff166003600501546040518363ffffffff1660e01b81526004016113fd929190612484565b6020604051808303815f875af1158015611419573d5f5f3e3d5ffd5b505050506040513d601f19601f8201168201806040525081019061143d919061221c565b61147c576040517f08c379a0000000000000000000000000000000000000000000000000000000008152600401611473906124f5565b60405180910390fd5b7f86d509b2c9c07df983dc6027aff772237f56674192d9cd56ebe14b2e6bb252a0816003600501546040516114b2929190612513565b60405180910390a150565b5f5f5f5f5f5f5f5f5f6003604051806101600160405290815f8201548152602001600182015481526020016002820154815260200160038201548152602001600482015f9054906101000a900473ffffffffffffffffffffffffffffffffffffffff1673ffffffffffffffffffffffffffffffffffffffff1673ffffffffffffffffffffffffffffffffffffffff168152602001600582015481526020016006820154815260200160078201548152602001600882015f9054906101000a900460ff161515151581526020016008820160019054906101000a900460ff161515151581526020016008820160029054906101000a900460ff1615151515815250509050805f015181602001518260400151836060015184608001518560a001518660c0015187610140015198509850985098509850985098509850509091929394959697565b5f60036002015442108061161b57505f600360020154145b806116355750600360080160029054906101000a900460ff165b156116465760035f015490506116e8565b5f60036002015442611658919061253a565b905060038001548110611673576003600101549150506116e8565b5f60036001015460035f0154611689919061253a565b90505f6003800154670de0b6b3a764000084846116a6919061256d565b6116b0919061256d565b6116ba91906125db565b9050670de0b6b3a7640000816116d091906125db565b90508060035f01546116e2919061253a565b93505050505b90565b60025f540361172f576040517f08c379a000000000000000000000000000000000000000000000000000000000815260040161172690612655565b60405180910390fd5b60025f81905550565b60015f81905550565b5f5ffd5b5f73ffffffffffffffffffffffffffffffffffffffff82169050919050565b5f61176e82611745565b9050919050565b61177e81611764565b8114611788575f5ffd5b50565b5f8135905061179981611775565b92915050565b5f602082840312156117b4576117b3611741565b5b5f6117c18482850161178b565b91505092915050565b5f819050919050565b6117dc816117ca565b81146117e6575f5ffd5b50565b5f813590506117f7816117d3565b92915050565b5f819050919050565b61180f816117fd565b8114611819575f5ffd5b50565b5f8135905061182a81611806565b92915050565b5f5f6040838503121561184657611845611741565b5b5f611853858286016117e9565b92505060206118648582860161181c565b9150509250929050565b611877816117ca565b82525050565b5f6020820190506118905f83018461186e565b92915050565b61189f81611764565b82525050565b5f8115159050919050565b6118b9816118a5565b82525050565b5f610160820190506118d35f83018e61186e565b6118e0602083018d61186e565b6118ed604083018c61186e565b6118fa606083018b61186e565b611907608083018a611896565b61191460a083018961186e565b61192160c083018861186e565b61192e60e083018761186e565b61193c6101008301866118b0565b61194a6101208301856118b0565b6119586101408301846118b0565b9c9b505050505050505050505050565b5f5f6040838503121561197e5761197d611741565b5b5f61198b858286016117e9565b925050602061199c858286016117e9565b9150509250929050565b5f6020820190506119b95f830184611896565b92915050565b5f819050919050565b5f6119e26119dd6119d884611745565b6119bf565b611745565b9050919050565b5f6119f3826119c8565b9050919050565b5f611a04826119e9565b9050919050565b611a14816119fa565b82525050565b5f602082019050611a2d5f830184611a0b565b92915050565b5f60208284031215611a4857611a47611741565b5b5f611a55848285016117e9565b91505092915050565b5f61010082019050611a725f83018b61186e565b611a7f602083018a61186e565b611a8c604083018961186e565b611a99606083018861186e565b611aa66080830187611896565b611ab360a083018661186e565b611ac060c083018561186e565b611acd60e08301846118b0565b9998505050505050505050565b5f82825260208201905092915050565b7f4e6f7420746865206f70657261746f72000000000000000000000000000000005f82015250565b5f611b1e601083611ada565b9150611b2982611aea565b602082019050919050565b5f6020820190508181035f830152611b4b81611b12565b9050919050565b7f496e76616c6964206f70657261746f72000000000000000000000000000000005f82015250565b5f611b86601083611ada565b9150611b9182611b52565b602082019050919050565b5f6020820190508181035f830152611bb381611b7a565b9050919050565b7f41756374696f6e206e6f7420656e6465640000000000000000000000000000005f82015250565b5f611bee601183611ada565b9150611bf982611bba565b602082019050919050565b5f6020820190508181035f830152611c1b81611be2565b9050919050565b7f496e76616c696420746f6b656e204944000000000000000000000000000000005f82015250565b5f611c56601083611ada565b9150611c6182611c22565b602082019050919050565b5f6020820190508181035f830152611c8381611c4a565b9050919050565b7f50726f6f6620616c7265616479207375626d69747465640000000000000000005f82015250565b5f611cbe601783611ada565b9150611cc982611c8a565b602082019050919050565b5f6020820190508181035f830152611ceb81611cb2565b9050919050565b611cfb816117fd565b82525050565b5f604082019050611d145f83018561186e565b611d216020830184611cf2565b9392505050565b7f5374617274207072696365206d7573742062652067726561746572207468616e5f8201527f2030000000000000000000000000000000000000000000000000000000000000602082015250565b5f611d82602283611ada565b9150611d8d82611d28565b604082019050919050565b5f6020820190508181035f830152611daf81611d76565b9050919050565b7f456e64207072696365206d757374206265203c3d2073746172742070726963655f82015250565b5f611dea602083611ada565b9150611df582611db6565b602082019050919050565b5f6020820190508181035f830152611e1781611dde565b9050919050565b5f608082019050611e315f83018761186e565b611e3e602083018661186e565b611e4b604083018561186e565b611e58606083018461186e565b95945050505050565b7f4e487b71000000000000000000000000000000000000000000000000000000005f52601160045260245ffd5b5f611e98826117ca565b9150611ea3836117ca565b9250828201905080821115611ebb57611eba611e61565b5b92915050565b7f41756374696f6e206e6f742061637469766500000000000000000000000000005f82015250565b5f611ef5601283611ada565b9150611f0082611ec1565b602082019050919050565b5f6020820190508181035f830152611f2281611ee9565b9050919050565b7f41756374696f6e20616c726561647920656e64656400000000000000000000005f82015250565b5f611f5d601583611ada565b9150611f6882611f29565b602082019050919050565b5f6020820190508181035f830152611f8a81611f51565b9050919050565b7f4269642062656c6f772063757272656e742070726963650000000000000000005f82015250565b5f611fc5601783611ada565b9150611fd082611f91565b602082019050919050565b5f6020820190508181035f830152611ff281611fb9565b9050919050565b7f42696420616d6f756e74206d7573742062652067726561746572207468616e205f8201527f3000000000000000000000000000000000000000000000000000000000000000602082015250565b5f612053602183611ada565b915061205e82611ff9565b604082019050919050565b5f6020820190508181035f83015261208081612047565b9050919050565b5f60408201905061209a5f830185611896565b6120a76020830184611896565b9392505050565b5f815190506120bc816117d3565b92915050565b5f602082840312156120d7576120d6611741565b5b5f6120e4848285016120ae565b91505092915050565b7f496e73756666696369656e7420616c6c6f77616e6365000000000000000000005f82015250565b5f612121601683611ada565b915061212c826120ed565b602082019050919050565b5f6020820190508181035f83015261214e81612115565b9050919050565b7f496e73756666696369656e742062616c616e63650000000000000000000000005f82015250565b5f612189601483611ada565b915061219482612155565b602082019050919050565b5f6020820190508181035f8301526121b68161217d565b9050919050565b5f6060820190506121d05f830186611896565b6121dd6020830185611896565b6121ea604083018461186e565b949350505050565b6121fb816118a5565b8114612205575f5ffd5b50565b5f81519050612216816121f2565b92915050565b5f6020828403121561223157612230611741565b5b5f61223e84828501612208565b91505092915050565b7f546f6b656e207472616e73666572206661696c656400000000000000000000005f82015250565b5f61227b601583611ada565b915061228682612247565b602082019050919050565b5f6020820190508181035f8301526122a88161226f565b9050919050565b5f6060820190506122c25f830186611896565b6122cf602083018561186e565b6122dc604083018461186e565b949350505050565b7f4d7573742062696420686967686572207468616e2063757272656e74206269645f82015250565b5f612318602083611ada565b9150612323826122e4565b602082019050919050565b5f6020820190508181035f8301526123458161230c565b9050919050565b7f4d696e696d756d2062696420706572696f64206e6f7420656c617073656400005f82015250565b5f612380601e83611ada565b915061238b8261234c565b602082019050919050565b5f6020820190508181035f8301526123ad81612374565b9050919050565b7f50726f6f66206e6f74207375626d6974746564000000000000000000000000005f82015250565b5f6123e8601383611ada565b91506123f3826123b4565b602082019050919050565b5f6020820190508181035f830152612415816123dc565b9050919050565b7f5061796d656e7420616c726561647920636c61696d65640000000000000000005f82015250565b5f612450601783611ada565b915061245b8261241c565b602082019050919050565b5f6020820190508181035f83015261247d81612444565b9050919050565b5f6040820190506124975f830185611896565b6124a4602083018461186e565b9392505050565b7f5472616e73666572206661696c656400000000000000000000000000000000005f82015250565b5f6124df600f83611ada565b91506124ea826124ab565b602082019050919050565b5f6020820190508181035f83015261250c816124d3565b9050919050565b5f6040820190506125265f83018561186e565b612533602083018461186e565b9392505050565b5f612544826117ca565b915061254f836117ca565b925082820390508181111561256757612566611e61565b5b92915050565b5f612577826117ca565b9150612582836117ca565b9250828202612590816117ca565b915082820484148315176125a7576125a6611e61565b5b5092915050565b7f4e487b71000000000000000000000000000000000000000000000000000000005f52601260045260245ffd5b5f6125e5826117ca565b91506125f0836117ca565b925082612600576125ff6125ae565b5b828204905092915050565b7f5265656e7472616e637947756172643a207265656e7472616e742063616c6c005f82015250565b5f61263f601f83611ada565b915061264a8261260b565b602082019050919050565b5f6020820190508181035f83015261266c81612633565b905091905056fea2646970667358221220cee12365e9b060a0e86cdcb6407f3fe1dcbf84f7e623837d24111eb476a0ee5564736f6c634300081c0033",
			"opcodes": "PUSH1 0x80 PUSH1 0x40 MSTORE CALLVALUE DUP1 ISZERO PUSH2 0xF JUMPI PUSH0 PUSH0 REVERT JUMPDEST POP PUSH1 0x40 MLOAD PUSH2 0x28E3 CODESIZE SUB DUP1 PUSH2 0x28E3 DUP4 CODECOPY DUP2 DUP2 ADD PUSH1 0x40 MSTORE DUP2 ADD SWAP1 PUSH2 0x31 SWAP2 SWAP1 PUSH2 0x18A JUMP JUMPDEST PUSH1 0x1 PUSH0 DUP2 SWAP1 SSTORE POP PUSH0 PUSH20 0xFFFFFFFFFFFFFFFFFFFFFFFFFFFFFFFFFFFFFFFF AND DUP2 PUSH20 0xFFFFFFFFFFFFFFFFFFFFFFFFFFFFFFFFFFFFFFFF AND SUB PUSH2 0xA6 JUMPI PUSH1 0x40 MLOAD PUSH32 0x8C379A000000000000000000000000000000000000000000000000000000000 DUP2 MSTORE PUSH1 0x4 ADD PUSH2 0x9D SWAP1 PUSH2 0x20F JUMP JUMPDEST PUSH1 0x40 MLOAD DUP1 SWAP2 SUB SWAP1 REVERT JUMPDEST CALLER PUSH1 0x1 PUSH0 PUSH2 0x100 EXP DUP2 SLOAD DUP2 PUSH20 0xFFFFFFFFFFFFFFFFFFFFFFFFFFFFFFFFFFFFFFFF MUL NOT AND SWAP1 DUP4 PUSH20 0xFFFFFFFFFFFFFFFFFFFFFFFFFFFFFFFFFFFFFFFF AND MUL OR SWAP1 SSTORE POP DUP1 PUSH1 0x2 PUSH0 PUSH2 0x100 EXP DUP2 SLOAD DUP2 PUSH20 0xFFFFFFFFFFFFFFFFFFFFFFFFFFFFFFFFFFFFFFFF MUL NOT AND SWAP1 DUP4 PUSH20 0xFFFFFFFFFFFFFFFFFFFFFFFFFFFFFFFFFFFFFFFF AND MUL OR SWAP1 SSTORE POP POP PUSH2 0x22D JUMP JUMPDEST PUSH0 PUSH0 REVERT JUMPDEST PUSH0 PUSH20 0xFFFFFFFFFFFFFFFFFFFFFFFFFFFFFFFFFFFFFFFF DUP3 AND SWAP1 POP SWAP2 SWAP1 POP JUMP JUMPDEST PUSH0 PUSH2 0x159 DUP3 PUSH2 0x130 JUMP JUMPDEST SWAP1 POP SWAP2 SWAP1 POP JUMP JUMPDEST PUSH2 0x169 DUP2 PUSH2 0x14F JUMP JUMPDEST DUP2 EQ PUSH2 0x173 JUMPI PUSH0 PUSH0 REVERT JUMPDEST POP JUMP JUMPDEST PUSH0 DUP2 MLOAD SWAP1 POP PUSH2 0x184 DUP2 PUSH2 0x160 JUMP JUMPDEST SWAP3 SWAP2 POP POP JUMP JUMPDEST PUSH0 PUSH1 0x20 DUP3 DUP5 SUB SLT ISZERO PUSH2 0x19F JUMPI PUSH2 0x19E PUSH2 0x12C JUMP JUMPDEST JUMPDEST PUSH0 PUSH2 0x1AC DUP5 DUP3 DUP6 ADD PUSH2 0x176 JUMP JUMPDEST SWAP2 POP POP SWAP3 SWAP2 POP POP JUMP JUMPDEST PUSH0 DUP3 DUP3 MSTORE PUSH1 0x20 DUP3 ADD SWAP1 POP SWAP3 SWAP2 POP POP JUMP JUMPDEST PUSH32 0x496E76616C696420746F6B656E20616464726573730000000000000000000000 PUSH0 DUP3 ADD MSTORE POP JUMP JUMPDEST PUSH0 PUSH2 0x1F9 PUSH1 0x15 DUP4 PUSH2 0x1B5 JUMP JUMPDEST SWAP2 POP PUSH2 0x204 DUP3 PUSH2 0x1C5 JUMP JUMPDEST PUSH1 0x20 DUP3 ADD SWAP1 POP SWAP2 SWAP1 POP JUMP JUMPDEST PUSH0 PUSH1 0x20 DUP3 ADD SWAP1 POP DUP2 DUP2 SUB PUSH0 DUP4 ADD MSTORE PUSH2 0x226 DUP2 PUSH2 0x1ED JUMP JUMPDEST SWAP1 POP SWAP2 SWAP1 POP JUMP JUMPDEST PUSH2 0x26A9 DUP1 PUSH2 0x23A PUSH0 CODECOPY PUSH0 RETURN INVALID PUSH1 0x80 PUSH1 0x40 MSTORE CALLVALUE DUP1 ISZERO PUSH2 0xF JUMPI PUSH0 PUSH0 REVERT JUMPDEST POP PUSH1 0x4 CALLDATASIZE LT PUSH2 0xA7 JUMPI PUSH0 CALLDATALOAD PUSH1 0xE0 SHR DUP1 PUSH4 0x570CA735 GT PUSH2 0x6F JUMPI DUP1 PUSH4 0x570CA735 EQ PUSH2 0x145 JUMPI DUP1 PUSH4 0x57C90DE5 EQ PUSH2 0x163 JUMPI DUP1 PUSH4 0x639D7566 EQ PUSH2 0x17F JUMPI DUP1 PUSH4 0xC63FDCC7 EQ PUSH2 0x19D JUMPI DUP1 PUSH4 0xD94A3505 EQ PUSH2 0x1B9 JUMPI DUP1 PUSH4 0xEB91D37E EQ PUSH2 0x1DE JUMPI PUSH2 0xA7 JUMP JUMPDEST DUP1 PUSH4 0x6394C9B EQ PUSH2 0xAB JUMPI DUP1 PUSH4 0x2F19C56A EQ PUSH2 0xC7 JUMPI DUP1 PUSH4 0x37A35344 EQ PUSH2 0xE3 JUMPI DUP1 PUSH4 0x496A698D EQ PUSH2 0x101 JUMPI DUP1 PUSH4 0x4FEE13FC EQ PUSH2 0x129 JUMPI JUMPDEST PUSH0 PUSH0 REVERT JUMPDEST PUSH2 0xC5 PUSH1 0x4 DUP1 CALLDATASIZE SUB DUP2 ADD SWAP1 PUSH2 0xC0 SWAP2 SWAP1 PUSH2 0x179F JUMP JUMPDEST PUSH2 0x1FC JUMP JUMPDEST STOP JUMPDEST PUSH2 0xE1 PUSH1 0x4 DUP1 CALLDATASIZE SUB DUP2 ADD SWAP1 PUSH2 0xDC SWAP2 SWAP1 PUSH2 0x1830 JUMP JUMPDEST PUSH2 0x33C JUMP JUMPDEST STOP JUMPDEST PUSH2 0xEB PUSH2 0x510 JUMP JUMPDEST PUSH1 0x40 MLOAD PUSH2 0xF8 SWAP2 SWAP1 PUSH2 0x187D JUMP JUMPDEST PUSH1 0x40 MLOAD DUP1 SWAP2 SUB SWAP1 RETURN JUMPDEST PUSH2 0x109 PUSH2 0x515 JUMP JUMPDEST PUSH1 0x40 MLOAD PUSH2 0x120 SWAP12 SWAP11 SWAP10 SWAP9 SWAP8 SWAP7 SWAP6 SWAP5 SWAP4 SWAP3 SWAP2 SWAP1 PUSH2 0x18BF JUMP JUMPDEST PUSH1 0x40 MLOAD DUP1 SWAP2 SUB SWAP1 RETURN JUMPDEST PUSH2 0x143 PUSH1 0x4 DUP1 CALLDATASIZE SUB DUP2 ADD SWAP1 PUSH2 0x13E SWAP2 SWAP1 PUSH2 0x1968 JUMP JUMPDEST PUSH2 0x5A1 JUMP JUMPDEST STOP JUMPDEST PUSH2 0x14D PUSH2 0x85A JUMP JUMPDEST PUSH1 0x40 MLOAD PUSH2 0x15A SWAP2 SWAP1 PUSH2 0x19A6 JUMP JUMPDEST PUSH1 0x40 MLOAD DUP1 SWAP2 SUB SWAP1 RETURN JUMPDEST PUSH2 0x17D PUSH1 0x4 DUP1 CALLDATASIZE SUB DUP2 ADD SWAP1 PUSH2 0x178 SWAP2 SWAP1 PUSH2 0x1968 JUMP JUMPDEST PUSH2 0x87F JUMP JUMPDEST STOP JUMPDEST PUSH2 0x187 PUSH2 0x116C JUMP JUMPDEST PUSH1 0x40 MLOAD PUSH2 0x194 SWAP2 SWAP1 PUSH2 0x1A1A JUMP JUMPDEST PUSH1 0x40 MLOAD DUP1 SWAP2 SUB SWAP1 RETURN JUMPDEST PUSH2 0x1B7 PUSH1 0x4 DUP1 CALLDATASIZE SUB DUP2 ADD SWAP1 PUSH2 0x1B2 SWAP2 SWAP1 PUSH2 0x1A33 JUMP JUMPDEST PUSH2 0x1191 JUMP JUMPDEST STOP JUMPDEST PUSH2 0x1C1 PUSH2 0x14BD JUMP JUMPDEST PUSH1 0x40 MLOAD PUSH2 0x1D5 SWAP9 SWAP8 SWAP7 SWAP6 SWAP5 SWAP4 SWAP3 SWAP2 SWAP1 PUSH2 0x1A5E JUMP JUMPDEST PUSH1 0x40 MLOAD DUP1 SWAP2 SUB SWAP1 RETURN JUMPDEST PUSH2 0x1E6 PUSH2 0x1603 JUMP JUMPDEST PUSH1 0x40 MLOAD PUSH2 0x1F3 SWAP2 SWAP1 PUSH2 0x187D JUMP JUMPDEST PUSH1 0x40 MLOAD DUP1 SWAP2 SUB SWAP1 RETURN JUMPDEST PUSH1 0x1 PUSH0 SWAP1 SLOAD SWAP1 PUSH2 0x100 EXP SWAP1 DIV PUSH20 0xFFFFFFFFFFFFFFFFFFFFFFFFFFFFFFFFFFFFFFFF AND PUSH20 0xFFFFFFFFFFFFFFFFFFFFFFFFFFFFFFFFFFFFFFFF AND CALLER PUSH20 0xFFFFFFFFFFFFFFFFFFFFFFFFFFFFFFFFFFFFFFFF AND EQ PUSH2 0x28B JUMPI PUSH1 0x40 MLOAD PUSH32 0x8C379A000000000000000000000000000000000000000000000000000000000 DUP2 MSTORE PUSH1 0x4 ADD PUSH2 0x282 SWAP1 PUSH2 0x1B34 JUMP JUMPDEST PUSH1 0x40 MLOAD DUP1 SWAP2 SUB SWAP1 REVERT JUMPDEST PUSH0 PUSH20 0xFFFFFFFFFFFFFFFFFFFFFFFFFFFFFFFFFFFFFFFF AND DUP2 PUSH20 0xFFFFFFFFFFFFFFFFFFFFFFFFFFFFFFFFFFFFFFFF AND SUB PUSH2 0x2F9 JUMPI PUSH1 0x40 MLOAD PUSH32 0x8C379A000000000000000000000000000000000000000000000000000000000 DUP2 MSTORE PUSH1 0x4 ADD PUSH2 0x2F0 SWAP1 PUSH2 0x1B9C JUMP JUMPDEST PUSH1 0x40 MLOAD DUP1 SWAP2 SUB SWAP1 REVERT JUMPDEST DUP1 PUSH1 0x1 PUSH0 PUSH2 0x100 EXP DUP2 SLOAD DUP2 PUSH20 0xFFFFFFFFFFFFFFFFFFFFFFFFFFFFFFFFFFFFFFFF MUL NOT AND SWAP1 DUP4 PUSH20 0xFFFFFFFFFFFFFFFFFFFFFFFFFFFFFFFFFFFFFFFF AND MUL OR SWAP1 SSTORE POP POP JUMP JUMPDEST PUSH1 0x1 PUSH0 SWAP1 SLOAD SWAP1 PUSH2 0x100 EXP SWAP1 DIV PUSH20 0xFFFFFFFFFFFFFFFFFFFFFFFFFFFFFFFFFFFFFFFF AND PUSH20 0xFFFFFFFFFFFFFFFFFFFFFFFFFFFFFFFFFFFFFFFF AND CALLER PUSH20 0xFFFFFFFFFFFFFFFFFFFFFFFFFFFFFFFFFFFFFFFF AND EQ PUSH2 0x3CB JUMPI PUSH1 0x40 MLOAD PUSH32 0x8C379A000000000000000000000000000000000000000000000000000000000 DUP2 MSTORE PUSH1 0x4 ADD PUSH2 0x3C2 SWAP1 PUSH2 0x1B34 JUMP JUMPDEST PUSH1 0x40 MLOAD DUP1 SWAP2 SUB SWAP1 REVERT JUMPDEST PUSH1 0x3 PUSH1 0x8 ADD PUSH1 0x2 SWAP1 SLOAD SWAP1 PUSH2 0x100 EXP SWAP1 DIV PUSH1 0xFF AND PUSH2 0x41D JUMPI PUSH1 0x40 MLOAD PUSH32 0x8C379A000000000000000000000000000000000000000000000000000000000 DUP2 MSTORE PUSH1 0x4 ADD PUSH2 0x414 SWAP1 PUSH2 0x1C04 JUMP JUMPDEST PUSH1 0x40 MLOAD DUP1 SWAP2 SUB SWAP1 REVERT JUMPDEST DUP2 PUSH1 0x3 PUSH1 0x6 ADD SLOAD EQ PUSH2 0x464 JUMPI PUSH1 0x40 MLOAD PUSH32 0x8C379A000000000000000000000000000000000000000000000000000000000 DUP2 MSTORE PUSH1 0x4 ADD PUSH2 0x45B SWAP1 PUSH2 0x1C6C JUMP JUMPDEST PUSH1 0x40 MLOAD DUP1 SWAP2 SUB SWAP1 REVERT JUMPDEST PUSH1 0x3 PUSH1 0x8 ADD PUSH0 SWAP1 SLOAD SWAP1 PUSH2 0x100 EXP SWAP1 DIV PUSH1 0xFF AND ISZERO PUSH2 0x4B6 JUMPI PUSH1 0x40 MLOAD PUSH32 0x8C379A000000000000000000000000000000000000000000000000000000000 DUP2 MSTORE PUSH1 0x4 ADD PUSH2 0x4AD SWAP1 PUSH2 0x1CD4 JUMP JUMPDEST PUSH1 0x40 MLOAD DUP1 SWAP2 SUB SWAP1 REVERT JUMPDEST PUSH1 0x1 PUSH1 0x3 PUSH1 0x8 ADD PUSH0 PUSH2 0x100 EXP DUP2 SLOAD DUP2 PUSH1 0xFF MUL NOT AND SWAP1 DUP4 ISZERO ISZERO MUL OR SWAP1 SSTORE POP PUSH32 0x556D8E38B75E3E273793AF33DDC3E1C8BC47D1CD092B52F3A239D9D1C8818997 DUP3 DUP3 PUSH1 0x40 MLOAD PUSH2 0x504 SWAP3 SWAP2 SWAP1 PUSH2 0x1D01 JUMP JUMPDEST PUSH1 0x40 MLOAD DUP1 SWAP2 SUB SWAP1 LOG1 POP POP JUMP JUMPDEST PUSH1 0x14 DUP2 JUMP JUMPDEST PUSH1 0x3 DUP1 PUSH0 ADD SLOAD SWAP1 DUP1 PUSH1 0x1 ADD SLOAD SWAP1 DUP1 PUSH1 0x2 ADD SLOAD SWAP1 DUP1 PUSH1 0x3 ADD SLOAD SWAP1 DUP1 PUSH1 0x4 ADD PUSH0 SWAP1 SLOAD SWAP1 PUSH2 0x100 EXP SWAP1 DIV PUSH20 0xFFFFFFFFFFFFFFFFFFFFFFFFFFFFFFFFFFFFFFFF AND SWAP1 DUP1 PUSH1 0x5 ADD SLOAD SWAP1 DUP1 PUSH1 0x6 ADD SLOAD SWAP1 DUP1 PUSH1 0x7 ADD SLOAD SWAP1 DUP1 PUSH1 0x8 ADD PUSH0 SWAP1 SLOAD SWAP1 PUSH2 0x100 EXP SWAP1 DIV PUSH1 0xFF AND SWAP1 DUP1 PUSH1 0x8 ADD PUSH1 0x1 SWAP1 SLOAD SWAP1 PUSH2 0x100 EXP SWAP1 DIV PUSH1 0xFF AND SWAP1 DUP1 PUSH1 0x8 ADD PUSH1 0x2 SWAP1 SLOAD SWAP1 PUSH2 0x100 EXP SWAP1 DIV PUSH1 0xFF AND SWAP1 POP DUP12 JUMP JUMPDEST PUSH1 0x1 PUSH0 SWAP1 SLOAD SWAP1 PUSH2 0x100 EXP SWAP1 DIV PUSH20 0xFFFFFFFFFFFFFFFFFFFFFFFFFFFFFFFFFFFFFFFF AND PUSH20 0xFFFFFFFFFFFFFFFFFFFFFFFFFFFFFFFFFFFFFFFF AND CALLER PUSH20 0xFFFFFFFFFFFFFFFFFFFFFFFFFFFFFFFFFFFFFFFF AND EQ PUSH2 0x630 JUMPI PUSH1 0x40 MLOAD PUSH32 0x8C379A000000000000000000000000000000000000000000000000000000000 DUP2 MSTORE PUSH1 0x4 ADD PUSH2 0x627 SWAP1 PUSH2 0x1B34 JUMP JUMPDEST PUSH1 0x40 MLOAD DUP1 SWAP2 SUB SWAP1 REVERT JUMPDEST PUSH0 DUP3 GT PUSH2 0x672 JUMPI PUSH1 0x40 MLOAD PUSH32 0x8C379A000000000000000000000000000000000000000000000000000000000 DUP2 MSTORE PUSH1 0x4 ADD PUSH2 0x669 SWAP1 PUSH2 0x1D98 JUMP JUMPDEST PUSH1 0x40 MLOAD DUP1 SWAP2 SUB SWAP1 REVERT JUMPDEST DUP2 DUP2 GT ISZERO PUSH2 0x6B5 JUMPI PUSH1 0x40 MLOAD PUSH32 0x8C379A000000000000000000000000000000000000000000000000000000000 DUP2 MSTORE PUSH1 0x4 ADD PUSH2 0x6AC SWAP1 PUSH2 0x1E00 JUMP JUMPDEST PUSH1 0x40 MLOAD DUP1 SWAP2 SUB SWAP1 REVERT JUMPDEST PUSH0 TIMESTAMP SWAP1 POP PUSH0 PUSH1 0xB4 SWAP1 POP PUSH1 0x40 MLOAD DUP1 PUSH2 0x160 ADD PUSH1 0x40 MSTORE DUP1 DUP6 DUP2 MSTORE PUSH1 0x20 ADD DUP5 DUP2 MSTORE PUSH1 0x20 ADD DUP4 DUP2 MSTORE PUSH1 0x20 ADD DUP3 DUP2 MSTORE PUSH1 0x20 ADD PUSH0 PUSH20 0xFFFFFFFFFFFFFFFFFFFFFFFFFFFFFFFFFFFFFFFF AND DUP2 MSTORE PUSH1 0x20 ADD PUSH0 DUP2 MSTORE PUSH1 0x20 ADD PUSH0 DUP2 MSTORE PUSH1 0x20 ADD PUSH0 DUP2 MSTORE PUSH1 0x20 ADD PUSH0 ISZERO ISZERO DUP2 MSTORE PUSH1 0x20 ADD PUSH0 ISZERO ISZERO DUP2 MSTORE PUSH1 0x20 ADD PUSH0 ISZERO ISZERO DUP2 MSTORE POP PUSH1 0x3 PUSH0 DUP3 ADD MLOAD DUP2 PUSH0 ADD SSTORE PUSH1 0x20 DUP3 ADD MLOAD DUP2 PUSH1 0x1 ADD SSTORE PUSH1 0x40 DUP3 ADD MLOAD DUP2 PUSH1 0x2 ADD SSTORE PUSH1 0x60 DUP3 ADD MLOAD DUP2 PUSH1 0x3 ADD SSTORE PUSH1 0x80 DUP3 ADD MLOAD DUP2 PUSH1 0x4 ADD PUSH0 PUSH2 0x100 EXP DUP2 SLOAD DUP2 PUSH20 0xFFFFFFFFFFFFFFFFFFFFFFFFFFFFFFFFFFFFFFFF MUL NOT AND SWAP1 DUP4 PUSH20 0xFFFFFFFFFFFFFFFFFFFFFFFFFFFFFFFFFFFFFFFF AND MUL OR SWAP1 SSTORE POP PUSH1 0xA0 DUP3 ADD MLOAD DUP2 PUSH1 0x5 ADD SSTORE PUSH1 0xC0 DUP3 ADD MLOAD DUP2 PUSH1 0x6 ADD SSTORE PUSH1 0xE0 DUP3 ADD MLOAD DUP2 PUSH1 0x7 ADD SSTORE PUSH2 0x100 DUP3 ADD MLOAD DUP2 PUSH1 0x8 ADD PUSH0 PUSH2 0x100 EXP DUP2 SLOAD DUP2 PUSH1 0xFF MUL NOT AND SWAP1 DUP4 ISZERO ISZERO MUL OR SWAP1 SSTORE POP PUSH2 0x120 DUP3 ADD MLOAD DUP2 PUSH1 0x8 ADD PUSH1 0x1 PUSH2 0x100 EXP DUP2 SLOAD DUP2 PUSH1 0xFF MUL NOT AND SWAP1 DUP4 ISZERO ISZERO MUL OR SWAP1 SSTORE POP PUSH2 0x140 DUP3 ADD MLOAD DUP2 PUSH1 0x8 ADD PUSH1 0x2 PUSH2 0x100 EXP DUP2 SLOAD DUP2 PUSH1 0xFF MUL NOT AND SWAP1 DUP4 ISZERO ISZERO MUL OR SWAP1 SSTORE POP SWAP1 POP POP PUSH32 0xA832766A05F1BD0298B0268308621777CFE1E4EEA23AFE7C06BEEA79BC6DDD2D DUP5 DUP5 DUP5 DUP5 PUSH1 0x40 MLOAD PUSH2 0x84C SWAP5 SWAP4 SWAP3 SWAP2 SWAP1 PUSH2 0x1E1E JUMP JUMPDEST PUSH1 0x40 MLOAD DUP1 SWAP2 SUB SWAP1 LOG1 POP POP POP POP JUMP JUMPDEST PUSH1 0x1 PUSH0 SWAP1 SLOAD SWAP1 PUSH2 0x100 EXP SWAP1 DIV PUSH20 0xFFFFFFFFFFFFFFFFFFFFFFFFFFFFFFFFFFFFFFFF AND DUP2 JUMP JUMPDEST PUSH2 0x887 PUSH2 0x16EB JUMP JUMPDEST PUSH1 0x3 PUSH1 0x2 ADD SLOAD TIMESTAMP LT ISZERO DUP1 ISZERO PUSH2 0x8B0 JUMPI POP PUSH1 0x3 DUP1 ADD SLOAD PUSH1 0x3 PUSH1 0x2 ADD SLOAD PUSH2 0x8AC SWAP2 SWAP1 PUSH2 0x1E8E JUMP JUMPDEST TIMESTAMP GT ISZERO JUMPDEST PUSH2 0x8EF JUMPI PUSH1 0x40 MLOAD PUSH32 0x8C379A000000000000000000000000000000000000000000000000000000000 DUP2 MSTORE PUSH1 0x4 ADD PUSH2 0x8E6 SWAP1 PUSH2 0x1F0B JUMP JUMPDEST PUSH1 0x40 MLOAD DUP1 SWAP2 SUB SWAP1 REVERT JUMPDEST PUSH1 0x3 PUSH1 0x8 ADD PUSH1 0x2 SWAP1 SLOAD SWAP1 PUSH2 0x100 EXP SWAP1 DIV PUSH1 0xFF AND ISZERO PUSH2 0x942 JUMPI PUSH1 0x40 MLOAD PUSH32 0x8C379A000000000000000000000000000000000000000000000000000000000 DUP2 MSTORE PUSH1 0x4 ADD PUSH2 0x939 SWAP1 PUSH2 0x1F73 JUMP JUMPDEST PUSH1 0x40 MLOAD DUP1 SWAP2 SUB SWAP1 REVERT JUMPDEST PUSH0 PUSH2 0x94B PUSH2 0x1603 JUMP JUMPDEST SWAP1 POP DUP1 DUP3 LT ISZERO PUSH2 0x990 JUMPI PUSH1 0x40 MLOAD PUSH32 0x8C379A000000000000000000000000000000000000000000000000000000000 DUP2 MSTORE PUSH1 0x4 ADD PUSH2 0x987 SWAP1 PUSH2 0x1FDB JUMP JUMPDEST PUSH1 0x40 MLOAD DUP1 SWAP2 SUB SWAP1 REVERT JUMPDEST PUSH0 DUP3 GT PUSH2 0x9D2 JUMPI PUSH1 0x40 MLOAD PUSH32 0x8C379A000000000000000000000000000000000000000000000000000000000 DUP2 MSTORE PUSH1 0x4 ADD PUSH2 0x9C9 SWAP1 PUSH2 0x2069 JUMP JUMPDEST PUSH1 0x40 MLOAD DUP1 SWAP2 SUB SWAP1 REVERT JUMPDEST PUSH1 0x3 PUSH0 ADD SLOAD DUP3 LT PUSH2 0xD63 JUMPI DUP2 PUSH1 0x2 PUSH0 SWAP1 SLOAD SWAP1 PUSH2 0x100 EXP SWAP1 DIV PUSH20 0xFFFFFFFFFFFFFFFFFFFFFFFFFFFFFFFFFFFFFFFF AND PUSH20 0xFFFFFFFFFFFFFFFFFFFFFFFFFFFFFFFFFFFFFFFF AND PUSH4 0xDD62ED3E CALLER ADDRESS PUSH1 0x40 MLOAD DUP4 PUSH4 0xFFFFFFFF AND PUSH1 0xE0 SHL DUP2 MSTORE PUSH1 0x4 ADD PUSH2 0xA3A SWAP3 SWAP2 SWAP1 PUSH2 0x2087 JUMP JUMPDEST PUSH1 0x20 PUSH1 0x40 MLOAD DUP1 DUP4 SUB DUP2 DUP7 GAS STATICCALL ISZERO DUP1 ISZERO PUSH2 0xA55 JUMPI RETURNDATASIZE PUSH0 PUSH0 RETURNDATACOPY RETURNDATASIZE PUSH0 REVERT JUMPDEST POP POP POP POP PUSH1 0x40 MLOAD RETURNDATASIZE PUSH1 0x1F NOT PUSH1 0x1F DUP3 ADD AND DUP3 ADD DUP1 PUSH1 0x40 MSTORE POP DUP2 ADD SWAP1 PUSH2 0xA79 SWAP2 SWAP1 PUSH2 0x20C2 JUMP JUMPDEST LT ISZERO PUSH2 0xABA JUMPI PUSH1 0x40 MLOAD PUSH32 0x8C379A000000000000000000000000000000000000000000000000000000000 DUP2 MSTORE PUSH1 0x4 ADD PUSH2 0xAB1 SWAP1 PUSH2 0x2137 JUMP JUMPDEST PUSH1 0x40 MLOAD DUP1 SWAP2 SUB SWAP1 REVERT JUMPDEST DUP2 PUSH1 0x2 PUSH0 SWAP1 SLOAD SWAP1 PUSH2 0x100 EXP SWAP1 DIV PUSH20 0xFFFFFFFFFFFFFFFFFFFFFFFFFFFFFFFFFFFFFFFF AND PUSH20 0xFFFFFFFFFFFFFFFFFFFFFFFFFFFFFFFFFFFFFFFF AND PUSH4 0x70A08231 CALLER PUSH1 0x40 MLOAD DUP3 PUSH4 0xFFFFFFFF AND PUSH1 0xE0 SHL DUP2 MSTORE PUSH1 0x4 ADD PUSH2 0xB15 SWAP2 SWAP1 PUSH2 0x19A6 JUMP JUMPDEST PUSH1 0x20 PUSH1 0x40 MLOAD DUP1 DUP4 SUB DUP2 DUP7 GAS STATICCALL ISZERO DUP1 ISZERO PUSH2 0xB30 JUMPI RETURNDATASIZE PUSH0 PUSH0 RETURNDATACOPY RETURNDATASIZE PUSH0 REVERT JUMPDEST POP POP POP POP PUSH1 0x40 MLOAD RETURNDATASIZE PUSH1 0x1F NOT PUSH1 0x1F DUP3 ADD AND DUP3 ADD DUP1 PUSH1 0x40 MSTORE POP DUP2 ADD SWAP1 PUSH2 0xB54 SWAP2 SWAP1 PUSH2 0x20C2 JUMP JUMPDEST LT ISZERO PUSH2 0xB95 JUMPI PUSH1 0x40 MLOAD PUSH32 0x8C379A000000000000000000000000000000000000000000000000000000000 DUP2 MSTORE PUSH1 0x4 ADD PUSH2 0xB8C SWAP1 PUSH2 0x219F JUMP JUMPDEST PUSH1 0x40 MLOAD DUP1 SWAP2 SUB SWAP1 REVERT JUMPDEST PUSH1 0x2 PUSH0 SWAP1 SLOAD SWAP1 PUSH2 0x100 EXP SWAP1 DIV PUSH20 0xFFFFFFFFFFFFFFFFFFFFFFFFFFFFFFFFFFFFFFFF AND PUSH20 0xFFFFFFFFFFFFFFFFFFFFFFFFFFFFFFFFFFFFFFFF AND PUSH4 0x23B872DD CALLER ADDRESS DUP6 PUSH1 0x40 MLOAD DUP5 PUSH4 0xFFFFFFFF AND PUSH1 0xE0 SHL DUP2 MSTORE PUSH1 0x4 ADD PUSH2 0xBF3 SWAP4 SWAP3 SWAP2 SWAP1 PUSH2 0x21BD JUMP JUMPDEST PUSH1 0x20 PUSH1 0x40 MLOAD DUP1 DUP4 SUB DUP2 PUSH0 DUP8 GAS CALL ISZERO DUP1 ISZERO PUSH2 0xC0F JUMPI RETURNDATASIZE PUSH0 PUSH0 RETURNDATACOPY RETURNDATASIZE PUSH0 REVERT JUMPDEST POP POP POP POP PUSH1 0x40 MLOAD RETURNDATASIZE PUSH1 0x1F NOT PUSH1 0x1F DUP3 ADD AND DUP3 ADD DUP1 PUSH1 0x40 MSTORE POP DUP2 ADD SWAP1 PUSH2 0xC33 SWAP2 SWAP1 PUSH2 0x221C JUMP JUMPDEST PUSH2 0xC72 JUMPI PUSH1 0x40 MLOAD PUSH32 0x8C379A000000000000000000000000000000000000000000000000000000000 DUP2 MSTORE PUSH1 0x4 ADD PUSH2 0xC69 SWAP1 PUSH2 0x2291 JUMP JUMPDEST PUSH1 0x40 MLOAD DUP1 SWAP2 SUB SWAP1 REVERT JUMPDEST CALLER PUSH1 0x3 PUSH1 0x4 ADD PUSH0 PUSH2 0x100 EXP DUP2 SLOAD DUP2 PUSH20 0xFFFFFFFFFFFFFFFFFFFFFFFFFFFFFFFFFFFFFFFF MUL NOT AND SWAP1 DUP4 PUSH20 0xFFFFFFFFFFFFFFFFFFFFFFFFFFFFFFFFFFFFFFFF AND MUL OR SWAP1 SSTORE POP DUP2 PUSH1 0x3 PUSH1 0x5 ADD DUP2 SWAP1 SSTORE POP DUP3 PUSH1 0x3 PUSH1 0x6 ADD DUP2 SWAP1 SSTORE POP PUSH1 0x1 PUSH1 0x3 PUSH1 0x8 ADD PUSH1 0x2 PUSH2 0x100 EXP DUP2 SLOAD DUP2 PUSH1 0xFF MUL NOT AND SWAP1 DUP4 ISZERO ISZERO MUL OR SWAP1 SSTORE POP PUSH32 0xDF8644C0A4C21ED214CE69F395675B3A5FCD1039083DAEA5058898DE40EA3149 CALLER DUP4 DUP6 PUSH1 0x40 MLOAD PUSH2 0xD1A SWAP4 SWAP3 SWAP2 SWAP1 PUSH2 0x22AF JUMP JUMPDEST PUSH1 0x40 MLOAD DUP1 SWAP2 SUB SWAP1 LOG1 PUSH32 0xC358E8E3F205B5E7453ABD5CBAC388CA4552B887B69001BC972B88610C749035 CALLER DUP4 DUP6 PUSH1 0x40 MLOAD PUSH2 0xD55 SWAP4 SWAP3 SWAP2 SWAP1 PUSH2 0x22AF JUMP JUMPDEST PUSH1 0x40 MLOAD DUP1 SWAP2 SUB SWAP1 LOG1 POP PUSH2 0x1160 JUMP JUMPDEST PUSH0 PUSH1 0x3 PUSH1 0x5 ADD SLOAD GT ISZERO PUSH2 0xE0C JUMPI PUSH1 0x3 PUSH1 0x5 ADD SLOAD DUP3 GT PUSH2 0xDB7 JUMPI PUSH1 0x40 MLOAD PUSH32 0x8C379A000000000000000000000000000000000000000000000000000000000 DUP2 MSTORE PUSH1 0x4 ADD PUSH2 0xDAE SWAP1 PUSH2 0x232E JUMP JUMPDEST PUSH1 0x40 MLOAD DUP1 SWAP2 SUB SWAP1 REVERT JUMPDEST PUSH1 0x14 PUSH1 0x3 PUSH1 0x7 ADD SLOAD PUSH2 0xDC9 SWAP2 SWAP1 PUSH2 0x1E8E JUMP JUMPDEST TIMESTAMP LT ISZERO PUSH2 0xE0B JUMPI PUSH1 0x40 MLOAD PUSH32 0x8C379A000000000000000000000000000000000000000000000000000000000 DUP2 MSTORE PUSH1 0x4 ADD PUSH2 0xE02 SWAP1 PUSH2 0x2396 JUMP JUMPDEST PUSH1 0x40 MLOAD DUP1 SWAP2 SUB SWAP1 REVERT JUMPDEST JUMPDEST DUP2 PUSH1 0x2 PUSH0 SWAP1 SLOAD SWAP1 PUSH2 0x100 EXP SWAP1 DIV PUSH20 0xFFFFFFFFFFFFFFFFFFFFFFFFFFFFFFFFFFFFFFFF AND PUSH20 0xFFFFFFFFFFFFFFFFFFFFFFFFFFFFFFFFFFFFFFFF AND PUSH4 0xDD62ED3E CALLER ADDRESS PUSH1 0x40 MLOAD DUP4 PUSH4 0xFFFFFFFF AND PUSH1 0xE0 SHL DUP2 MSTORE PUSH1 0x4 ADD PUSH2 0xE69 SWAP3 SWAP2 SWAP1 PUSH2 0x2087 JUMP JUMPDEST PUSH1 0x20 PUSH1 0x40 MLOAD DUP1 DUP4 SUB DUP2 DUP7 GAS STATICCALL ISZERO DUP1 ISZERO PUSH2 0xE84 JUMPI RETURNDATASIZE PUSH0 PUSH0 RETURNDATACOPY RETURNDATASIZE PUSH0 REVERT JUMPDEST POP POP POP POP PUSH1 0x40 MLOAD RETURNDATASIZE PUSH1 0x1F NOT PUSH1 0x1F DUP3 ADD AND DUP3 ADD DUP1 PUSH1 0x40 MSTORE POP DUP2 ADD SWAP1 PUSH2 0xEA8 SWAP2 SWAP1 PUSH2 0x20C2 JUMP JUMPDEST LT ISZERO PUSH2 0xEE9 JUMPI PUSH1 0x40 MLOAD PUSH32 0x8C379A000000000000000000000000000000000000000000000000000000000 DUP2 MSTORE PUSH1 0x4 ADD PUSH2 0xEE0 SWAP1 PUSH2 0x2137 JUMP JUMPDEST PUSH1 0x40 MLOAD DUP1 SWAP2 SUB SWAP1 REVERT JUMPDEST DUP2 PUSH1 0x2 PUSH0 SWAP1 SLOAD SWAP1 PUSH2 0x100 EXP SWAP1 DIV PUSH20 0xFFFFFFFFFFFFFFFFFFFFFFFFFFFFFFFFFFFFFFFF AND PUSH20 0xFFFFFFFFFFFFFFFFFFFFFFFFFFFFFFFFFFFFFFFF AND PUSH4 0x70A08231 CALLER PUSH1 0x40 MLOAD DUP3 PUSH4 0xFFFFFFFF AND PUSH1 0xE0 SHL DUP2 MSTORE PUSH1 0x4 ADD PUSH2 0xF44 SWAP2 SWAP1 PUSH2 0x19A6 JUMP JUMPDEST PUSH1 0x20 PUSH1 0x40 MLOAD DUP1 DUP4 SUB DUP2 DUP7 GAS STATICCALL ISZERO DUP1 ISZERO PUSH2 0xF5F JUMPI RETURNDATASIZE PUSH0 PUSH0 RETURNDATACOPY RETURNDATASIZE PUSH0 REVERT JUMPDEST POP POP POP POP PUSH1 0x40 MLOAD RETURNDATASIZE PUSH1 0x1F NOT PUSH1 0x1F DUP3 ADD AND DUP3 ADD DUP1 PUSH1 0x40 MSTORE POP DUP2 ADD SWAP1 PUSH2 0xF83 SWAP2 SWAP1 PUSH2 0x20C2 JUMP JUMPDEST LT ISZERO PUSH2 0xFC4 JUMPI PUSH1 0x40 MLOAD PUSH32 0x8C379A000000000000000000000000000000000000000000000000000000000 DUP2 MSTORE PUSH1 0x4 ADD PUSH2 0xFBB SWAP1 PUSH2 0x219F JUMP JUMPDEST PUSH1 0x40 MLOAD DUP1 SWAP2 SUB SWAP1 REVERT JUMPDEST PUSH1 0x2 PUSH0 SWAP1 SLOAD SWAP1 PUSH2 0x100 EXP SWAP1 DIV PUSH20 0xFFFFFFFFFFFFFFFFFFFFFFFFFFFFFFFFFFFFFFFF AND PUSH20 0xFFFFFFFFFFFFFFFFFFFFFFFFFFFFFFFFFFFFFFFF AND PUSH4 0x23B872DD CALLER PUSH1 0x1 PUSH0 SWAP1 SLOAD SWAP1 PUSH2 0x100 EXP SWAP1 DIV PUSH20 0xFFFFFFFFFFFFFFFFFFFFFFFFFFFFFFFFFFFFFFFF AND DUP6 PUSH1 0x40 MLOAD DUP5 PUSH4 0xFFFFFFFF AND PUSH1 0xE0 SHL DUP2 MSTORE PUSH1 0x4 ADD PUSH2 0x1043 SWAP4 SWAP3 SWAP2 SWAP1 PUSH2 0x21BD JUMP JUMPDEST PUSH1 0x20 PUSH1 0x40 MLOAD DUP1 DUP4 SUB DUP2 PUSH0 DUP8 GAS CALL ISZERO DUP1 ISZERO PUSH2 0x105F JUMPI RETURNDATASIZE PUSH0 PUSH0 RETURNDATACOPY RETURNDATASIZE PUSH0 REVERT JUMPDEST POP POP POP POP PUSH1 0x40 MLOAD RETURNDATASIZE PUSH1 0x1F NOT PUSH1 0x1F DUP3 ADD AND DUP3 ADD DUP1 PUSH1 0x40 MSTORE POP DUP2 ADD SWAP1 PUSH2 0x1083 SWAP2 SWAP1 PUSH2 0x221C JUMP JUMPDEST PUSH2 0x10C2 JUMPI PUSH1 0x40 MLOAD PUSH32 0x8C379A000000000000000000000000000000000000000000000000000000000 DUP2 MSTORE PUSH1 0x4 ADD PUSH2 0x10B9 SWAP1 PUSH2 0x2291 JUMP JUMPDEST PUSH1 0x40 MLOAD DUP1 SWAP2 SUB SWAP1 REVERT JUMPDEST CALLER PUSH1 0x3 PUSH1 0x4 ADD PUSH0 PUSH2 0x100 EXP DUP2 SLOAD DUP2 PUSH20 0xFFFFFFFFFFFFFFFFFFFFFFFFFFFFFFFFFFFFFFFF MUL NOT AND SWAP1 DUP4 PUSH20 0xFFFFFFFFFFFFFFFFFFFFFFFFFFFFFFFFFFFFFFFF AND MUL OR SWAP1 SSTORE POP DUP2 PUSH1 0x3 PUSH1 0x5 ADD DUP2 SWAP1 SSTORE POP DUP3 PUSH1 0x3 PUSH1 0x6 ADD DUP2 SWAP1 SSTORE POP TIMESTAMP PUSH1 0x3 PUSH1 0x7 ADD DUP2 SWAP1 SSTORE POP PUSH32 0xDF8644C0A4C21ED214CE69F395675B3A5FCD1039083DAEA5058898DE40EA3149 CALLER DUP4 DUP6 PUSH1 0x40 MLOAD PUSH2 0x1156 SWAP4 SWAP3 SWAP2 SWAP1 PUSH2 0x22AF JUMP JUMPDEST PUSH1 0x40 MLOAD DUP1 SWAP2 SUB SWAP1 LOG1 POP JUMPDEST PUSH2 0x1168 PUSH2 0x1738 JUMP JUMPDEST POP POP JUMP JUMPDEST PUSH1 0x2 PUSH0 SWAP1 SLOAD SWAP1 PUSH2 0x100 EXP SWAP1 DIV PUSH20 0xFFFFFFFFFFFFFFFFFFFFFFFFFFFFFFFFFFFFFFFF AND DUP2 JUMP JUMPDEST PUSH1 0x1 PUSH0 SWAP1 SLOAD SWAP1 PUSH2 0x100 EXP SWAP1 DIV PUSH20 0xFFFFFFFFFFFFFFFFFFFFFFFFFFFFFFFFFFFFFFFF AND PUSH20 0xFFFFFFFFFFFFFFFFFFFFFFFFFFFFFFFFFFFFFFFF AND CALLER PUSH20 0xFFFFFFFFFFFFFFFFFFFFFFFFFFFFFFFFFFFFFFFF AND EQ PUSH2 0x1220 JUMPI PUSH1 0x40 MLOAD PUSH32 0x8C379A000000000000000000000000000000000000000000000000000000000 DUP2 MSTORE PUSH1 0x4 ADD PUSH2 0x1217 SWAP1 PUSH2 0x1B34 JUMP JUMPDEST PUSH1 0x40 MLOAD DUP1 SWAP2 SUB SWAP1 REVERT JUMPDEST PUSH1 0x3 PUSH1 0x8 ADD PUSH1 0x2 SWAP1 SLOAD SWAP1 PUSH2 0x100 EXP SWAP1 DIV PUSH1 0xFF AND PUSH2 0x1272 JUMPI PUSH1 0x40 MLOAD PUSH32 0x8C379A000000000000000000000000000000000000000000000000000000000 DUP2 MSTORE PUSH1 0x4 ADD PUSH2 0x1269 SWAP1 PUSH2 0x1C04 JUMP JUMPDEST PUSH1 0x40 MLOAD DUP1 SWAP2 SUB SWAP1 REVERT JUMPDEST PUSH1 0x3 PUSH1 0x8 ADD PUSH0 SWAP1 SLOAD SWAP1 PUSH2 0x100 EXP SWAP1 DIV PUSH1 0xFF AND PUSH2 0x12C3 JUMPI PUSH1 0x40 MLOAD PUSH32 0x8C379A000000000000000000000000000000000000000000000000000000000 DUP2 MSTORE PUSH1 0x4 ADD PUSH2 0x12BA SWAP1 PUSH2 0x23FE JUMP JUMPDEST PUSH1 0x40 MLOAD DUP1 SWAP2 SUB SWAP1 REVERT JUMPDEST PUSH1 0x3 PUSH1 0x8 ADD PUSH1 0x1 SWAP1 SLOAD SWAP1 PUSH2 0x100 EXP SWAP1 DIV PUSH1 0xFF AND ISZERO PUSH2 0x1316 JUMPI PUSH1 0x40 MLOAD PUSH32 0x8C379A000000000000000000000000000000000000000000000000000000000 DUP2 MSTORE PUSH1 0x4 ADD PUSH2 0x130D SWAP1 PUSH2 0x2466 JUMP JUMPDEST PUSH1 0x40 MLOAD DUP1 SWAP2 SUB SWAP1 REVERT JUMPDEST DUP1 PUSH1 0x3 PUSH1 0x6 ADD SLOAD EQ PUSH2 0x135D JUMPI PUSH1 0x40 MLOAD PUSH32 0x8C379A000000000000000000000000000000000000000000000000000000000 DUP2 MSTORE PUSH1 0x4 ADD PUSH2 0x1354 SWAP1 PUSH2 0x1C6C JUMP JUMPDEST PUSH1 0x40 MLOAD DUP1 SWAP2 SUB SWAP1 REVERT JUMPDEST PUSH1 0x1 PUSH1 0x3 PUSH1 0x8 ADD PUSH1 0x1 PUSH2 0x100 EXP DUP2 SLOAD DUP2 PUSH1 0xFF MUL NOT AND SWAP1 DUP4 ISZERO ISZERO MUL OR SWAP1 SSTORE POP PUSH1 0x2 PUSH0 SWAP1 SLOAD SWAP1 PUSH2 0x100 EXP SWAP1 DIV PUSH20 0xFFFFFFFFFFFFFFFFFFFFFFFFFFFFFFFFFFFFFFFF AND PUSH20 0xFFFFFFFFFFFFFFFFFFFFFFFFFFFFFFFFFFFFFFFF AND PUSH4 0xA9059CBB PUSH1 0x1 PUSH0 SWAP1 SLOAD SWAP1 PUSH2 0x100 EXP SWAP1 DIV PUSH20 0xFFFFFFFFFFFFFFFFFFFFFFFFFFFFFFFFFFFFFFFF AND PUSH1 0x3 PUSH1 0x5 ADD SLOAD PUSH1 0x40 MLOAD DUP4 PUSH4 0xFFFFFFFF AND PUSH1 0xE0 SHL DUP2 MSTORE PUSH1 0x4 ADD PUSH2 0x13FD SWAP3 SWAP2 SWAP1 PUSH2 0x2484 JUMP JUMPDEST PUSH1 0x20 PUSH1 0x40 MLOAD DUP1 DUP4 SUB DUP2 PUSH0 DUP8 GAS CALL ISZERO DUP1 ISZERO PUSH2 0x1419 JUMPI RETURNDATASIZE PUSH0 PUSH0 RETURNDATACOPY RETURNDATASIZE PUSH0 REVERT JUMPDEST POP POP POP POP PUSH1 0x40 MLOAD RETURNDATASIZE PUSH1 0x1F NOT PUSH1 0x1F DUP3 ADD AND DUP3 ADD DUP1 PUSH1 0x40 MSTORE POP DUP2 ADD SWAP1 PUSH2 0x143D SWAP2 SWAP1 PUSH2 0x221C JUMP JUMPDEST PUSH2 0x147C JUMPI PUSH1 0x40 MLOAD PUSH32 0x8C379A000000000000000000000000000000000000000000000000000000000 DUP2 MSTORE PUSH1 0x4 ADD PUSH2 0x1473 SWAP1 PUSH2 0x24F5 JUMP JUMPDEST PUSH1 0x40 MLOAD DUP1 SWAP2 SUB SWAP1 REVERT JUMPDEST PUSH32 0x86D509B2C9C07DF983DC6027AFF772237F56674192D9CD56EBE14B2E6BB252A0 DUP2 PUSH1 0x3 PUSH1 0x5 ADD SLOAD PUSH1 0x40 MLOAD PUSH2 0x14B2 SWAP3 SWAP2 SWAP1 PUSH2 0x2513 JUMP JUMPDEST PUSH1 0x40 MLOAD DUP1 SWAP2 SUB SWAP1 LOG1 POP JUMP JUMPDEST PUSH0 PUSH0 PUSH0 PUSH0 PUSH0 PUSH0 PUSH0 PUSH0 PUSH0 PUSH1 0x3 PUSH1 0x40 MLOAD DUP1 PUSH2 0x160 ADD PUSH1 0x40 MSTORE SWAP1 DUP2 PUSH0 DUP3 ADD SLOAD DUP2 MSTORE PUSH1 0x20 ADD PUSH1 0x1 DUP3 ADD SLOAD DUP2 MSTORE PUSH1 0x20 ADD PUSH1 0x2 DUP3 ADD SLOAD DUP2 MSTORE PUSH1 0x20 ADD PUSH1 0x3 DUP3 ADD SLOAD DUP2 MSTORE PUSH1 0x20 ADD PUSH1 0x4 DUP3 ADD PUSH0 SWAP1 SLOAD SWAP1 PUSH2 0x100 EXP SWAP1 DIV PUSH20 0xFFFFFFFFFFFFFFFFFFFFFFFFFFFFFFFFFFFFFFFF AND PUSH20 0xFFFFFFFFFFFFFFFFFFFFFFFFFFFFFFFFFFFFFFFF AND PUSH20 0xFFFFFFFFFFFFFFFFFFFFFFFFFFFFFFFFFFFFFFFF AND DUP2 MSTORE PUSH1 0x20 ADD PUSH1 0x5 DUP3 ADD SLOAD DUP2 MSTORE PUSH1 0x20 ADD PUSH1 0x6 DUP3 ADD SLOAD DUP2 MSTORE PUSH1 0x20 ADD PUSH1 0x7 DUP3 ADD SLOAD DUP2 MSTORE PUSH1 0x20 ADD PUSH1 0x8 DUP3 ADD PUSH0 SWAP1 SLOAD SWAP1 PUSH2 0x100 EXP SWAP1 DIV PUSH1 0xFF AND ISZERO ISZERO ISZERO ISZERO DUP2 MSTORE PUSH1 0x20 ADD PUSH1 0x8 DUP3 ADD PUSH1 0x1 SWAP1 SLOAD SWAP1 PUSH2 0x100 EXP SWAP1 DIV PUSH1 0xFF AND ISZERO ISZERO ISZERO ISZERO DUP2 MSTORE PUSH1 0x20 ADD PUSH1 0x8 DUP3 ADD PUSH1 0x2 SWAP1 SLOAD SWAP1 PUSH2 0x100 EXP SWAP1 DIV PUSH1 0xFF AND ISZERO ISZERO ISZERO ISZERO DUP2 MSTORE POP POP SWAP1 POP DUP1 PUSH0 ADD MLOAD DUP2 PUSH1 0x20 ADD MLOAD DUP3 PUSH1 0x40 ADD MLOAD DUP4 PUSH1 0x60 ADD MLOAD DUP5 PUSH1 0x80 ADD MLOAD DUP6 PUSH1 0xA0 ADD MLOAD DUP7 PUSH1 0xC0 ADD MLOAD DUP8 PUSH2 0x140 ADD MLOAD SWAP9 POP SWAP9 POP SWAP9 POP SWAP9 POP SWAP9 POP SWAP9 POP SWAP9 POP SWAP9 POP POP SWAP1 SWAP2 SWAP3 SWAP4 SWAP5 SWAP6 SWAP7 SWAP8 JUMP JUMPDEST PUSH0 PUSH1 0x3 PUSH1 0x2 ADD SLOAD TIMESTAMP LT DUP1 PUSH2 0x161B JUMPI POP PUSH0 PUSH1 0x3 PUSH1 0x2 ADD SLOAD EQ JUMPDEST DUP1 PUSH2 0x1635 JUMPI POP PUSH1 0x3 PUSH1 0x8 ADD PUSH1 0x2 SWAP1 SLOAD SWAP1 PUSH2 0x100 EXP SWAP1 DIV PUSH1 0xFF AND JUMPDEST ISZERO PUSH2 0x1646 JUMPI PUSH1 0x3 PUSH0 ADD SLOAD SWAP1 POP PUSH2 0x16E8 JUMP JUMPDEST PUSH0 PUSH1 0x3 PUSH1 0x2 ADD SLOAD TIMESTAMP PUSH2 0x1658 SWAP2 SWAP1 PUSH2 0x253A JUMP JUMPDEST SWAP1 POP PUSH1 0x3 DUP1 ADD SLOAD DUP2 LT PUSH2 0x1673 JUMPI PUSH1 0x3 PUSH1 0x1 ADD SLOAD SWAP2 POP POP PUSH2 0x16E8 JUMP JUMPDEST PUSH0 PUSH1 0x3 PUSH1 0x1 ADD SLOAD PUSH1 0x3 PUSH0 ADD SLOAD PUSH2 0x1689 SWAP2 SWAP1 PUSH2 0x253A JUMP JUMPDEST SWAP1 POP PUSH0 PUSH1 0x3 DUP1 ADD SLOAD PUSH8 0xDE0B6B3A7640000 DUP5 DUP5 PUSH2 0x16A6 SWAP2 SWAP1 PUSH2 0x256D JUMP JUMPDEST PUSH2 0x16B0 SWAP2 SWAP1 PUSH2 0x256D JUMP JUMPDEST PUSH2 0x16BA SWAP2 SWAP1 PUSH2 0x25DB JUMP JUMPDEST SWAP1 POP PUSH8 0xDE0B6B3A7640000 DUP2 PUSH2 0x16D0 SWAP2 SWAP1 PUSH2 0x25DB JUMP JUMPDEST SWAP1 POP DUP1 PUSH1 0x3 PUSH0 ADD SLOAD PUSH2 0x16E2 SWAP2 SWAP1 PUSH2 0x253A JUMP JUMPDEST SWAP4 POP POP POP POP JUMPDEST SWAP1 JUMP JUMPDEST PUSH1 0x2 PUSH0 SLOAD SUB PUSH2 0x172F JUMPI PUSH1 0x40 MLOAD PUSH32 0x8C379A000000000000000000000000000000000000000000000000000000000 DUP2 MSTORE PUSH1 0x4 ADD PUSH2 0x1726 SWAP1 PUSH2 0x2655 JUMP JUMPDEST PUSH1 0x40 MLOAD DUP1 SWAP2 SUB SWAP1 REVERT JUMPDEST PUSH1 0x2 PUSH0 DUP2 SWAP1 SSTORE POP JUMP JUMPDEST PUSH1 0x1 PUSH0 DUP2 SWAP1 SSTORE POP JUMP JUMPDEST PUSH0 PUSH0 REVERT JUMPDEST PUSH0 PUSH20 0xFFFFFFFFFFFFFFFFFFFFFFFFFFFFFFFFFFFFFFFF DUP3 AND SWAP1 POP SWAP2 SWAP1 POP JUMP JUMPDEST PUSH0 PUSH2 0x176E DUP3 PUSH2 0x1745 JUMP JUMPDEST SWAP1 POP SWAP2 SWAP1 POP JUMP JUMPDEST PUSH2 0x177E DUP2 PUSH2 0x1764 JUMP JUMPDEST DUP2 EQ PUSH2 0x1788 JUMPI PUSH0 PUSH0 REVERT JUMPDEST POP JUMP JUMPDEST PUSH0 DUP2 CALLDATALOAD SWAP1 POP PUSH2 0x1799 DUP2 PUSH2 0x1775 JUMP JUMPDEST SWAP3 SWAP2 POP POP JUMP JUMPDEST PUSH0 PUSH1 0x20 DUP3 DUP5 SUB SLT ISZERO PUSH2 0x17B4 JUMPI PUSH2 0x17B3 PUSH2 0x1741 JUMP JUMPDEST JUMPDEST PUSH0 PUSH2 0x17C1 DUP5 DUP3 DUP6 ADD PUSH2 0x178B JUMP JUMPDEST SWAP2 POP POP SWAP3 SWAP2 POP POP JUMP JUMPDEST PUSH0 DUP2 SWAP1 POP SWAP2 SWAP1 POP JUMP JUMPDEST PUSH2 0x17DC DUP2 PUSH2 0x17CA JUMP JUMPDEST DUP2 EQ PUSH2 0x17E6 JUMPI PUSH0 PUSH0 REVERT JUMPDEST POP JUMP JUMPDEST PUSH0 DUP2 CALLDATALOAD SWAP1 POP PUSH2 0x17F7 DUP2 PUSH2 0x17D3 JUMP JUMPDEST SWAP3 SWAP2 POP POP JUMP JUMPDEST PUSH0 DUP2 SWAP1 POP SWAP2 SWAP1 POP JUMP JUMPDEST PUSH2 0x180F DUP2 PUSH2 0x17FD JUMP JUMPDEST DUP2 EQ PUSH2 0x1819 JUMPI PUSH0 PUSH0 REVERT JUMPDEST POP JUMP JUMPDEST PUSH0 DUP2 CALLDATALOAD SWAP1 POP PUSH2 0x182A DUP2 PUSH2 0x1806 JUMP JUMPDEST SWAP3 SWAP2 POP POP JUMP JUMPDEST PUSH0 PUSH0 PUSH1 0x40 DUP4 DUP6 SUB SLT ISZERO PUSH2 0x1846 JUMPI PUSH2 0x1845 PUSH2 0x1741 JUMP JUMPDEST JUMPDEST PUSH0 PUSH2 0x1853 DUP6 DUP3 DUP7 ADD PUSH2 0x17E9 JUMP JUMPDEST SWAP3 POP POP PUSH1 0x20 PUSH2 0x1864 DUP6 DUP3 DUP7 ADD PUSH2 0x181C JUMP JUMPDEST SWAP2 POP POP SWAP3 POP SWAP3 SWAP1 POP JUMP JUMPDEST PUSH2 0x1877 DUP2 PUSH2 0x17CA JUMP JUMPDEST DUP3 MSTORE POP POP JUMP JUMPDEST PUSH0 PUSH1 0x20 DUP3 ADD SWAP1 POP PUSH2 0x1890 PUSH0 DUP4 ADD DUP5 PUSH2 0x186E JUMP JUMPDEST SWAP3 SWAP2 POP POP JUMP JUMPDEST PUSH2 0x189F DUP2 PUSH2 0x1764 JUMP JUMPDEST DUP3 MSTORE POP POP JUMP JUMPDEST PUSH0 DUP2 ISZERO ISZERO SWAP1 POP SWAP2 SWAP1 POP JUMP JUMPDEST PUSH2 0x18B9 DUP2 PUSH2 0x18A5 JUMP JUMPDEST DUP3 MSTORE POP POP JUMP JUMPDEST PUSH0 PUSH2 0x160 DUP3 ADD SWAP1 POP PUSH2 0x18D3 PUSH0 DUP4 ADD DUP15 PUSH2 0x186E JUMP JUMPDEST PUSH2 0x18E0 PUSH1 0x20 DUP4 ADD DUP14 PUSH2 0x186E JUMP JUMPDEST PUSH2 0x18ED PUSH1 0x40 DUP4 ADD DUP13 PUSH2 0x186E JUMP JUMPDEST PUSH2 0x18FA PUSH1 0x60 DUP4 ADD DUP12 PUSH2 0x186E JUMP JUMPDEST PUSH2 0x1907 PUSH1 0x80 DUP4 ADD DUP11 PUSH2 0x1896 JUMP JUMPDEST PUSH2 0x1914 PUSH1 0xA0 DUP4 ADD DUP10 PUSH2 0x186E JUMP JUMPDEST PUSH2 0x1921 PUSH1 0xC0 DUP4 ADD DUP9 PUSH2 0x186E JUMP JUMPDEST PUSH2 0x192E PUSH1 0xE0 DUP4 ADD DUP8 PUSH2 0x186E JUMP JUMPDEST PUSH2 0x193C PUSH2 0x100 DUP4 ADD DUP7 PUSH2 0x18B0 JUMP JUMPDEST PUSH2 0x194A PUSH2 0x120 DUP4 ADD DUP6 PUSH2 0x18B0 JUMP JUMPDEST PUSH2 0x1958 PUSH2 0x140 DUP4 ADD DUP5 PUSH2 0x18B0 JUMP JUMPDEST SWAP13 SWAP12 POP POP POP POP POP POP POP POP POP POP POP POP JUMP JUMPDEST PUSH0 PUSH0 PUSH1 0x40 DUP4 DUP6 SUB SLT ISZERO PUSH2 0x197E JUMPI PUSH2 0x197D PUSH2 0x1741 JUMP JUMPDEST JUMPDEST PUSH0 PUSH2 0x198B DUP6 DUP3 DUP7 ADD PUSH2 0x17E9 JUMP JUMPDEST SWAP3 POP POP PUSH1 0x20 PUSH2 0x199C DUP6 DUP3 DUP7 ADD PUSH2 0x17E9 JUMP JUMPDEST SWAP2 POP POP SWAP3 POP SWAP3 SWAP1 POP JUMP JUMPDEST PUSH0 PUSH1 0x20 DUP3 ADD SWAP1 POP PUSH2 0x19B9 PUSH0 DUP4 ADD DUP5 PUSH2 0x1896 JUMP JUMPDEST SWAP3 SWAP2 POP POP JUMP JUMPDEST PUSH0 DUP2 SWAP1 POP SWAP2 SWAP1 POP JUMP JUMPDEST PUSH0 PUSH2 0x19E2 PUSH2 0x19DD PUSH2 0x19D8 DUP5 PUSH2 0x1745 JUMP JUMPDEST PUSH2 0x19BF JUMP JUMPDEST PUSH2 0x1745 JUMP JUMPDEST SWAP1 POP SWAP2 SWAP1 POP JUMP JUMPDEST PUSH0 PUSH2 0x19F3 DUP3 PUSH2 0x19C8 JUMP JUMPDEST SWAP1 POP SWAP2 SWAP1 POP JUMP JUMPDEST PUSH0 PUSH2 0x1A04 DUP3 PUSH2 0x19E9 JUMP JUMPDEST SWAP1 POP SWAP2 SWAP1 POP JUMP JUMPDEST PUSH2 0x1A14 DUP2 PUSH2 0x19FA JUMP JUMPDEST DUP3 MSTORE POP POP JUMP JUMPDEST PUSH0 PUSH1 0x20 DUP3 ADD SWAP1 POP PUSH2 0x1A2D PUSH0 DUP4 ADD DUP5 PUSH2 0x1A0B JUMP JUMPDEST SWAP3 SWAP2 POP POP JUMP JUMPDEST PUSH0 PUSH1 0x20 DUP3 DUP5 SUB SLT ISZERO PUSH2 0x1A48 JUMPI PUSH2 0x1A47 PUSH2 0x1741 JUMP JUMPDEST JUMPDEST PUSH0 PUSH2 0x1A55 DUP5 DUP3 DUP6 ADD PUSH2 0x17E9 JUMP JUMPDEST SWAP2 POP POP SWAP3 SWAP2 POP POP JUMP JUMPDEST PUSH0 PUSH2 0x100 DUP3 ADD SWAP1 POP PUSH2 0x1A72 PUSH0 DUP4 ADD DUP12 PUSH2 0x186E JUMP JUMPDEST PUSH2 0x1A7F PUSH1 0x20 DUP4 ADD DUP11 PUSH2 0x186E JUMP JUMPDEST PUSH2 0x1A8C PUSH1 0x40 DUP4 ADD DUP10 PUSH2 0x186E JUMP JUMPDEST PUSH2 0x1A99 PUSH1 0x60 DUP4 ADD DUP9 PUSH2 0x186E JUMP JUMPDEST PUSH2 0x1AA6 PUSH1 0x80 DUP4 ADD DUP8 PUSH2 0x1896 JUMP JUMPDEST PUSH2 0x1AB3 PUSH1 0xA0 DUP4 ADD DUP7 PUSH2 0x186E JUMP JUMPDEST PUSH2 0x1AC0 PUSH1 0xC0 DUP4 ADD DUP6 PUSH2 0x186E JUMP JUMPDEST PUSH2 0x1ACD PUSH1 0xE0 DUP4 ADD DUP5 PUSH2 0x18B0 JUMP JUMPDEST SWAP10 SWAP9 POP POP POP POP POP POP POP POP POP JUMP JUMPDEST PUSH0 DUP3 DUP3 MSTORE PUSH1 0x20 DUP3 ADD SWAP1 POP SWAP3 SWAP2 POP POP JUMP JUMPDEST PUSH32 0x4E6F7420746865206F70657261746F7200000000000000000000000000000000 PUSH0 DUP3 ADD MSTORE POP JUMP JUMPDEST PUSH0 PUSH2 0x1B1E PUSH1 0x10 DUP4 PUSH2 0x1ADA JUMP JUMPDEST SWAP2 POP PUSH2 0x1B29 DUP3 PUSH2 0x1AEA JUMP JUMPDEST PUSH1 0x20 DUP3 ADD SWAP1 POP SWAP2 SWAP1 POP JUMP JUMPDEST PUSH0 PUSH1 0x20 DUP3 ADD SWAP1 POP DUP2 DUP2 SUB PUSH0 DUP4 ADD MSTORE PUSH2 0x1B4B DUP2 PUSH2 0x1B12 JUMP JUMPDEST SWAP1 POP SWAP2 SWAP1 POP JUMP JUMPDEST PUSH32 0x496E76616C6964206F70657261746F7200000000000000000000000000000000 PUSH0 DUP3 ADD MSTORE POP JUMP JUMPDEST PUSH0 PUSH2 0x1B86 PUSH1 0x10 DUP4 PUSH2 0x1ADA JUMP JUMPDEST SWAP2 POP PUSH2 0x1B91 DUP3 PUSH2 0x1B52 JUMP JUMPDEST PUSH1 0x20 DUP3 ADD SWAP1 POP SWAP2 SWAP1 POP JUMP JUMPDEST PUSH0 PUSH1 0x20 DUP3 ADD SWAP1 POP DUP2 DUP2 SUB PUSH0 DUP4 ADD MSTORE PUSH2 0x1BB3 DUP2 PUSH2 0x1B7A JUMP JUMPDEST SWAP1 POP SWAP2 SWAP1 POP JUMP JUMPDEST PUSH32 0x41756374696F6E206E6F7420656E646564000000000000000000000000000000 PUSH0 DUP3 ADD MSTORE POP JUMP JUMPDEST PUSH0 PUSH2 0x1BEE PUSH1 0x11 DUP4 PUSH2 0x1ADA JUMP JUMPDEST SWAP2 POP PUSH2 0x1BF9 DUP3 PUSH2 0x1BBA JUMP JUMPDEST PUSH1 0x20 DUP3 ADD SWAP1 POP SWAP2 SWAP1 POP JUMP JUMPDEST PUSH0 PUSH1 0x20 DUP3 ADD SWAP1 POP DUP2 DUP2 SUB PUSH0 DUP4 ADD MSTORE PUSH2 0x1C1B DUP2 PUSH2 0x1BE2 JUMP JUMPDEST SWAP1 POP SWAP2 SWAP1 POP JUMP JUMPDEST PUSH32 0x496E76616C696420746F6B656E20494400000000000000000000000000000000 PUSH0 DUP3 ADD MSTORE POP JUMP JUMPDEST PUSH0 PUSH2 0x1C56 PUSH1 0x10 DUP4 PUSH2 0x1ADA JUMP JUMPDEST SWAP2 POP PUSH2 0x1C61 DUP3 PUSH2 0x1C22 JUMP JUMPDEST PUSH1 0x20 DUP3 ADD SWAP1 POP SWAP2 SWAP1 POP JUMP JUMPDEST PUSH0 PUSH1 0x20 DUP3 ADD SWAP1 POP DUP2 DUP2 SUB PUSH0 DUP4 ADD MSTORE PUSH2 0x1C83 DUP2 PUSH2 0x1C4A JUMP JUMPDEST SWAP1 POP SWAP2 SWAP1 POP JUMP JUMPDEST PUSH32 0x50726F6F6620616C7265616479207375626D6974746564000000000000000000 PUSH0 DUP3 ADD MSTORE POP JUMP JUMPDEST PUSH0 PUSH2 0x1CBE PUSH1 0x17 DUP4 PUSH2 0x1ADA JUMP JUMPDEST SWAP2 POP PUSH2 0x1CC9 DUP3 PUSH2 0x1C8A JUMP JUMPDEST PUSH1 0x20 DUP3 ADD SWAP1 POP SWAP2 SWAP1 POP JUMP JUMPDEST PUSH0 PUSH1 0x20 DUP3 ADD SWAP1 POP DUP2 DUP2 SUB PUSH0 DUP4 ADD MSTORE PUSH2 0x1CEB DUP2 PUSH2 0x1CB2 JUMP JUMPDEST SWAP1 POP SWAP2 SWAP1 POP JUMP JUMPDEST PUSH2 0x1CFB DUP2 PUSH2 0x17FD JUMP JUMPDEST DUP3 MSTORE POP POP JUMP JUMPDEST PUSH0 PUSH1 0x40 DUP3 ADD SWAP1 POP PUSH2 0x1D14 PUSH0 DUP4 ADD DUP6 PUSH2 0x186E JUMP JUMPDEST PUSH2 0x1D21 PUSH1 0x20 DUP4 ADD DUP5 PUSH2 0x1CF2 JUMP JUMPDEST SWAP4 SWAP3 POP POP POP JUMP JUMPDEST PUSH32 0x5374617274207072696365206D7573742062652067726561746572207468616E PUSH0 DUP3 ADD MSTORE PUSH32 0x2030000000000000000000000000000000000000000000000000000000000000 PUSH1 0x20 DUP3 ADD MSTORE POP JUMP JUMPDEST PUSH0 PUSH2 0x1D82 PUSH1 0x22 DUP4 PUSH2 0x1ADA JUMP JUMPDEST SWAP2 POP PUSH2 0x1D8D DUP3 PUSH2 0x1D28 JUMP JUMPDEST PUSH1 0x40 DUP3 ADD SWAP1 POP SWAP2 SWAP1 POP JUMP JUMPDEST PUSH0 PUSH1 0x20 DUP3 ADD SWAP1 POP DUP2 DUP2 SUB PUSH0 DUP4 ADD MSTORE PUSH2 0x1DAF DUP2 PUSH2 0x1D76 JUMP JUMPDEST SWAP1 POP SWAP2 SWAP1 POP JUMP JUMPDEST PUSH32 0x456E64207072696365206D757374206265203C3D207374617274207072696365 PUSH0 DUP3 ADD MSTORE POP JUMP JUMPDEST PUSH0 PUSH2 0x1DEA PUSH1 0x20 DUP4 PUSH2 0x1ADA JUMP JUMPDEST SWAP2 POP PUSH2 0x1DF5 DUP3 PUSH2 0x1DB6 JUMP JUMPDEST PUSH1 0x20 DUP3 ADD SWAP1 POP SWAP2 SWAP1 POP JUMP JUMPDEST PUSH0 PUSH1 0x20 DUP3 ADD SWAP1 POP DUP2 DUP2 SUB PUSH0 DUP4 ADD MSTORE PUSH2 0x1E17 DUP2 PUSH2 0x1DDE JUMP JUMPDEST SWAP1 POP SWAP2 SWAP1 POP JUMP JUMPDEST PUSH0 PUSH1 0x80 DUP3 ADD SWAP1 POP PUSH2 0x1E31 PUSH0 DUP4 ADD DUP8 PUSH2 0x186E JUMP JUMPDEST PUSH2 0x1E3E PUSH1 0x20 DUP4 ADD DUP7 PUSH2 0x186E JUMP JUMPDEST PUSH2 0x1E4B PUSH1 0x40 DUP4 ADD DUP6 PUSH2 0x186E JUMP JUMPDEST PUSH2 0x1E58 PUSH1 0x60 DUP4 ADD DUP5 PUSH2 0x186E JUMP JUMPDEST SWAP6 SWAP5 POP POP POP POP POP JUMP JUMPDEST PUSH32 0x4E487B7100000000000000000000000000000000000000000000000000000000 PUSH0 MSTORE PUSH1 0x11 PUSH1 0x4 MSTORE PUSH1 0x24 PUSH0 REVERT JUMPDEST PUSH0 PUSH2 0x1E98 DUP3 PUSH2 0x17CA JUMP JUMPDEST SWAP2 POP PUSH2 0x1EA3 DUP4 PUSH2 0x17CA JUMP JUMPDEST SWAP3 POP DUP3 DUP3 ADD SWAP1 POP DUP1 DUP3 GT ISZERO PUSH2 0x1EBB JUMPI PUSH2 0x1EBA PUSH2 0x1E61 JUMP JUMPDEST JUMPDEST SWAP3 SWAP2 POP POP JUMP JUMPDEST PUSH32 0x41756374696F6E206E6F74206163746976650000000000000000000000000000 PUSH0 DUP3 ADD MSTORE POP JUMP JUMPDEST PUSH0 PUSH2 0x1EF5 PUSH1 0x12 DUP4 PUSH2 0x1ADA JUMP JUMPDEST SWAP2 POP PUSH2 0x1F00 DUP3 PUSH2 0x1EC1 JUMP JUMPDEST PUSH1 0x20 DUP3 ADD SWAP1 POP SWAP2 SWAP1 POP JUMP JUMPDEST PUSH0 PUSH1 0x20 DUP3 ADD SWAP1 POP DUP2 DUP2 SUB PUSH0 DUP4 ADD MSTORE PUSH2 0x1F22 DUP2 PUSH2 0x1EE9 JUMP JUMPDEST SWAP1 POP SWAP2 SWAP1 POP JUMP JUMPDEST PUSH32 0x41756374696F6E20616C726561647920656E6465640000000000000000000000 PUSH0 DUP3 ADD MSTORE POP JUMP JUMPDEST PUSH0 PUSH2 0x1F5D PUSH1 0x15 DUP4 PUSH2 0x1ADA JUMP JUMPDEST SWAP2 POP PUSH2 0x1F68 DUP3 PUSH2 0x1F29 JUMP JUMPDEST PUSH1 0x20 DUP3 ADD SWAP1 POP SWAP2 SWAP1 POP JUMP JUMPDEST PUSH0 PUSH1 0x20 DUP3 ADD SWAP1 POP DUP2 DUP2 SUB PUSH0 DUP4 ADD MSTORE PUSH2 0x1F8A DUP2 PUSH2 0x1F51 JUMP JUMPDEST SWAP1 POP SWAP2 SWAP1 POP JUMP JUMPDEST PUSH32 0x4269642062656C6F772063757272656E74207072696365000000000000000000 PUSH0 DUP3 ADD MSTORE POP JUMP JUMPDEST PUSH0 PUSH2 0x1FC5 PUSH1 0x17 DUP4 PUSH2 0x1ADA JUMP JUMPDEST SWAP2 POP PUSH2 0x1FD0 DUP3 PUSH2 0x1F91 JUMP JUMPDEST PUSH1 0x20 DUP3 ADD SWAP1 POP SWAP2 SWAP1 POP JUMP JUMPDEST PUSH0 PUSH1 0x20 DUP3 ADD SWAP1 POP DUP2 DUP2 SUB PUSH0 DUP4 ADD MSTORE PUSH2 0x1FF2 DUP2 PUSH2 0x1FB9 JUMP JUMPDEST SWAP1 POP SWAP2 SWAP1 POP JUMP JUMPDEST PUSH32 0x42696420616D6F756E74206D7573742062652067726561746572207468616E20 PUSH0 DUP3 ADD MSTORE PUSH32 0x3000000000000000000000000000000000000000000000000000000000000000 PUSH1 0x20 DUP3 ADD MSTORE POP JUMP JUMPDEST PUSH0 PUSH2 0x2053 PUSH1 0x21 DUP4 PUSH2 0x1ADA JUMP JUMPDEST SWAP2 POP PUSH2 0x205E DUP3 PUSH2 0x1FF9 JUMP JUMPDEST PUSH1 0x40 DUP3 ADD SWAP1 POP SWAP2 SWAP1 POP JUMP JUMPDEST PUSH0 PUSH1 0x20 DUP3 ADD SWAP1 POP DUP2 DUP2 SUB PUSH0 DUP4 ADD MSTORE PUSH2 0x2080 DUP2 PUSH2 0x2047 JUMP JUMPDEST SWAP1 POP SWAP2 SWAP1 POP JUMP JUMPDEST PUSH0 PUSH1 0x40 DUP3 ADD SWAP1 POP PUSH2 0x209A PUSH0 DUP4 ADD DUP6 PUSH2 0x1896 JUMP JUMPDEST PUSH2 0x20A7 PUSH1 0x20 DUP4 ADD DUP5 PUSH2 0x1896 JUMP JUMPDEST SWAP4 SWAP3 POP POP POP JUMP JUMPDEST PUSH0 DUP2 MLOAD SWAP1 POP PUSH2 0x20BC DUP2 PUSH2 0x17D3 JUMP JUMPDEST SWAP3 SWAP2 POP POP JUMP JUMPDEST PUSH0 PUSH1 0x20 DUP3 DUP5 SUB SLT ISZERO PUSH2 0x20D7 JUMPI PUSH2 0x20D6 PUSH2 0x1741 JUMP JUMPDEST JUMPDEST PUSH0 PUSH2 0x20E4 DUP5 DUP3 DUP6 ADD PUSH2 0x20AE JUMP JUMPDEST SWAP2 POP POP SWAP3 SWAP2 POP POP JUMP JUMPDEST PUSH32 0x496E73756666696369656E7420616C6C6F77616E636500000000000000000000 PUSH0 DUP3 ADD MSTORE POP JUMP JUMPDEST PUSH0 PUSH2 0x2121 PUSH1 0x16 DUP4 PUSH2 0x1ADA JUMP JUMPDEST SWAP2 POP PUSH2 0x212C DUP3 PUSH2 0x20ED JUMP JUMPDEST PUSH1 0x20 DUP3 ADD SWAP1 POP SWAP2 SWAP1 POP JUMP JUMPDEST PUSH0 PUSH1 0x20 DUP3 ADD SWAP1 POP DUP2 DUP2 SUB PUSH0 DUP4 ADD MSTORE PUSH2 0x214E DUP2 PUSH2 0x2115 JUMP JUMPDEST SWAP1 POP SWAP2 SWAP1 POP JUMP JUMPDEST PUSH32 0x496E73756666696369656E742062616C616E6365000000000000000000000000 PUSH0 DUP3 ADD MSTORE POP JUMP JUMPDEST PUSH0 PUSH2 0x2189 PUSH1 0x14 DUP4 PUSH2 0x1ADA JUMP JUMPDEST SWAP2 POP PUSH2 0x2194 DUP3 PUSH2 0x2155 JUMP JUMPDEST PUSH1 0x20 DUP3 ADD SWAP1 POP SWAP2 SWAP1 POP JUMP JUMPDEST PUSH0 PUSH1 0x20 DUP3 ADD SWAP1 POP DUP2 DUP2 SUB PUSH0 DUP4 ADD MSTORE PUSH2 0x21B6 DUP2 PUSH2 0x217D JUMP JUMPDEST SWAP1 POP SWAP2 SWAP1 POP JUMP JUMPDEST PUSH0 PUSH1 0x60 DUP3 ADD SWAP1 POP PUSH2 0x21D0 PUSH0 DUP4 ADD DUP7 PUSH2 0x1896 JUMP JUMPDEST PUSH2 0x21DD PUSH1 0x20 DUP4 ADD DUP6 PUSH2 0x1896 JUMP JUMPDEST PUSH2 0x21EA PUSH1 0x40 DUP4 ADD DUP5 PUSH2 0x186E JUMP JUMPDEST SWAP5 SWAP4 POP POP POP POP JUMP JUMPDEST PUSH2 0x21FB DUP2 PUSH2 0x18A5 JUMP JUMPDEST DUP2 EQ PUSH2 0x2205 JUMPI PUSH0 PUSH0 REVERT JUMPDEST POP JUMP JUMPDEST PUSH0 DUP2 MLOAD SWAP1 POP PUSH2 0x2216 DUP2 PUSH2 0x21F2 JUMP JUMPDEST SWAP3 SWAP2 POP POP JUMP JUMPDEST PUSH0 PUSH1 0x20 DUP3 DUP5 SUB SLT ISZERO PUSH2 0x2231 JUMPI PUSH2 0x2230 PUSH2 0x1741 JUMP JUMPDEST JUMPDEST PUSH0 PUSH2 0x223E DUP5 DUP3 DUP6 ADD PUSH2 0x2208 JUMP JUMPDEST SWAP2 POP POP SWAP3 SWAP2 POP POP JUMP JUMPDEST PUSH32 0x546F6B656E207472616E73666572206661696C65640000000000000000000000 PUSH0 DUP3 ADD MSTORE POP JUMP JUMPDEST PUSH0 PUSH2 0x227B PUSH1 0x15 DUP4 PUSH2 0x1ADA JUMP JUMPDEST SWAP2 POP PUSH2 0x2286 DUP3 PUSH2 0x2247 JUMP JUMPDEST PUSH1 0x20 DUP3 ADD SWAP1 POP SWAP2 SWAP1 POP JUMP JUMPDEST PUSH0 PUSH1 0x20 DUP3 ADD SWAP1 POP DUP2 DUP2 SUB PUSH0 DUP4 ADD MSTORE PUSH2 0x22A8 DUP2 PUSH2 0x226F JUMP JUMPDEST SWAP1 POP SWAP2 SWAP1 POP JUMP JUMPDEST PUSH0 PUSH1 0x60 DUP3 ADD SWAP1 POP PUSH2 0x22C2 PUSH0 DUP4 ADD DUP7 PUSH2 0x1896 JUMP JUMPDEST PUSH2 0x22CF PUSH1 0x20 DUP4 ADD DUP6 PUSH2 0x186E JUMP JUMPDEST PUSH2 0x22DC PUSH1 0x40 DUP4 ADD DUP5 PUSH2 0x186E JUMP JUMPDEST SWAP5 SWAP4 POP POP POP POP JUMP JUMPDEST PUSH32 0x4D7573742062696420686967686572207468616E2063757272656E7420626964 PUSH0 DUP3 ADD MSTORE POP JUMP JUMPDEST PUSH0 PUSH2 0x2318 PUSH1 0x20 DUP4 PUSH2 0x1ADA JUMP JUMPDEST SWAP2 POP PUSH2 0x2323 DUP3 PUSH2 0x22E4 JUMP JUMPDEST PUSH1 0x20 DUP3 ADD SWAP1 POP SWAP2 SWAP1 POP JUMP JUMPDEST PUSH0 PUSH1 0x20 DUP3 ADD SWAP1 POP DUP2 DUP2 SUB PUSH0 DUP4 ADD MSTORE PUSH2 0x2345 DUP2 PUSH2 0x230C JUMP JUMPDEST SWAP1 POP SWAP2 SWAP1 POP JUMP JUMPDEST PUSH32 0x4D696E696D756D2062696420706572696F64206E6F7420656C61707365640000 PUSH0 DUP3 ADD MSTORE POP JUMP JUMPDEST PUSH0 PUSH2 0x2380 PUSH1 0x1E DUP4 PUSH2 0x1ADA JUMP JUMPDEST SWAP2 POP PUSH2 0x238B DUP3 PUSH2 0x234C JUMP JUMPDEST PUSH1 0x20 DUP3 ADD SWAP1 POP SWAP2 SWAP1 POP JUMP JUMPDEST PUSH0 PUSH1 0x20 DUP3 ADD SWAP1 POP DUP2 DUP2 SUB PUSH0 DUP4 ADD MSTORE PUSH2 0x23AD DUP2 PUSH2 0x2374 JUMP JUMPDEST SWAP1 POP SWAP2 SWAP1 POP JUMP JUMPDEST PUSH32 0x50726F6F66206E6F74207375626D697474656400000000000000000000000000 PUSH0 DUP3 ADD MSTORE POP JUMP JUMPDEST PUSH0 PUSH2 0x23E8 PUSH1 0x13 DUP4 PUSH2 0x1ADA JUMP JUMPDEST SWAP2 POP PUSH2 0x23F3 DUP3 PUSH2 0x23B4 JUMP JUMPDEST PUSH1 0x20 DUP3 ADD SWAP1 POP SWAP2 SWAP1 POP JUMP JUMPDEST PUSH0 PUSH1 0x20 DUP3 ADD SWAP1 POP DUP2 DUP2 SUB PUSH0 DUP4 ADD MSTORE PUSH2 0x2415 DUP2 PUSH2 0x23DC JUMP JUMPDEST SWAP1 POP SWAP2 SWAP1 POP JUMP JUMPDEST PUSH32 0x5061796D656E7420616C726561647920636C61696D6564000000000000000000 PUSH0 DUP3 ADD MSTORE POP JUMP JUMPDEST PUSH0 PUSH2 0x2450 PUSH1 0x17 DUP4 PUSH2 0x1ADA JUMP JUMPDEST SWAP2 POP PUSH2 0x245B DUP3 PUSH2 0x241C JUMP JUMPDEST PUSH1 0x20 DUP3 ADD SWAP1 POP SWAP2 SWAP1 POP JUMP JUMPDEST PUSH0 PUSH1 0x20 DUP3 ADD SWAP1 POP DUP2 DUP2 SUB PUSH0 DUP4 ADD MSTORE PUSH2 0x247D DUP2 PUSH2 0x2444 JUMP JUMPDEST SWAP1 POP SWAP2 SWAP1 POP JUMP JUMPDEST PUSH0 PUSH1 0x40 DUP3 ADD SWAP1 POP PUSH2 0x2497 PUSH0 DUP4 ADD DUP6 PUSH2 0x1896 JUMP JUMPDEST PUSH2 0x24A4 PUSH1 0x20 DUP4 ADD DUP5 PUSH2 0x186E JUMP JUMPDEST SWAP4 SWAP3 POP POP POP JUMP JUMPDEST PUSH32 0x5472616E73666572206661696C65640000000000000000000000000000000000 PUSH0 DUP3 ADD MSTORE POP JUMP JUMPDEST PUSH0 PUSH2 0x24DF PUSH1 0xF DUP4 PUSH2 0x1ADA JUMP JUMPDEST SWAP2 POP PUSH2 0x24EA DUP3 PUSH2 0x24AB JUMP JUMPDEST PUSH1 0x20 DUP3 ADD SWAP1 POP SWAP2 SWAP1 POP JUMP JUMPDEST PUSH0 PUSH1 0x20 DUP3 ADD SWAP1 POP DUP2 DUP2 SUB PUSH0 DUP4 ADD MSTORE PUSH2 0x250C DUP2 PUSH2 0x24D3 JUMP JUMPDEST SWAP1 POP SWAP2 SWAP1 POP JUMP JUMPDEST PUSH0 PUSH1 0x40 DUP3 ADD SWAP1 POP PUSH2 0x2526 PUSH0 DUP4 ADD DUP6 PUSH2 0x186E JUMP JUMPDEST PUSH2 0x2533 PUSH1 0x20 DUP4 ADD DUP5 PUSH2 0x186E JUMP JUMPDEST SWAP4 SWAP3 POP POP POP JUMP JUMPDEST PUSH0 PUSH2 0x2544 DUP3 PUSH2 0x17CA JUMP JUMPDEST SWAP2 POP PUSH2 0x254F DUP4 PUSH2 0x17CA JUMP JUMPDEST SWAP3 POP DUP3 DUP3 SUB SWAP1 POP DUP2 DUP2 GT ISZERO PUSH2 0x2567 JUMPI PUSH2 0x2566 PUSH2 0x1E61 JUMP JUMPDEST JUMPDEST SWAP3 SWAP2 POP POP JUMP JUMPDEST PUSH0 PUSH2 0x2577 DUP3 PUSH2 0x17CA JUMP JUMPDEST SWAP2 POP PUSH2 0x2582 DUP4 PUSH2 0x17CA JUMP JUMPDEST SWAP3 POP DUP3 DUP3 MUL PUSH2 0x2590 DUP2 PUSH2 0x17CA JUMP JUMPDEST SWAP2 POP DUP3 DUP3 DIV DUP5 EQ DUP4 ISZERO OR PUSH2 0x25A7 JUMPI PUSH2 0x25A6 PUSH2 0x1E61 JUMP JUMPDEST JUMPDEST POP SWAP3 SWAP2 POP POP JUMP JUMPDEST PUSH32 0x4E487B7100000000000000000000000000000000000000000000000000000000 PUSH0 MSTORE PUSH1 0x12 PUSH1 0x4 MSTORE PUSH1 0x24 PUSH0 REVERT JUMPDEST PUSH0 PUSH2 0x25E5 DUP3 PUSH2 0x17CA JUMP JUMPDEST SWAP2 POP PUSH2 0x25F0 DUP4 PUSH2 0x17CA JUMP JUMPDEST SWAP3 POP DUP3 PUSH2 0x2600 JUMPI PUSH2 0x25FF PUSH2 0x25AE JUMP JUMPDEST JUMPDEST DUP3 DUP3 DIV SWAP1 POP SWAP3 SWAP2 POP POP JUMP JUMPDEST PUSH32 0x5265656E7472616E637947756172643A207265656E7472616E742063616C6C00 PUSH0 DUP3 ADD MSTORE POP JUMP JUMPDEST PUSH0 PUSH2 0x263F PUSH1 0x1F DUP4 PUSH2 0x1ADA JUMP JUMPDEST SWAP2 POP PUSH2 0x264A DUP3 PUSH2 0x260B JUMP JUMPDEST PUSH1 0x20 DUP3 ADD SWAP1 POP SWAP2 SWAP1 POP JUMP JUMPDEST PUSH0 PUSH1 0x20 DUP3 ADD SWAP1 POP DUP2 DUP2 SUB PUSH0 DUP4 ADD MSTORE PUSH2 0x266C DUP2 PUSH2 0x2633 JUMP JUMPDEST SWAP1 POP SWAP2 SWAP1 POP JUMP INVALID LOG2 PUSH5 0x6970667358 0x22 SLT KECCAK256 0xCE 0xE1 0x23 PUSH6 0xE9B060A0E86C 0xDC 0xB6 BLOCKHASH PUSH32 0x3FE1DCBF84F7E623837D24111EB476A0EE5564736F6C634300081C0033000000 "
		},
		"gasEstimates": {
			"creation": {
				"codeDepositCost": "1979400",
				"executionCost": "infinite",
				"totalCost": "infinite"
			},
			"external": {
				"MINIMUM_BID_PERIOD()": "370",
				"biddingToken()": "infinite",
				"changeOperator(address)": "26919",
				"claimPayment(uint256)": "infinite",
				"currentAuction()": "infinite",
				"getAuctionInfo()": "infinite",
				"getCurrentPrice()": "infinite",
				"operator()": "2508",
				"placeBid(uint256,uint256)": "infinite",
				"startAuction(uint256,uint256)": "infinite",
				"submitProof(uint256,bytes32)": "infinite"
			}
		},
		"methodIdentifiers": {
			"MINIMUM_BID_PERIOD()": "37a35344",
			"biddingToken()": "639d7566",
			"changeOperator(address)": "06394c9b",
			"claimPayment(uint256)": "c63fdcc7",
			"currentAuction()": "496a698d",
			"getAuctionInfo()": "d94a3505",
			"getCurrentPrice()": "eb91d37e",
			"operator()": "570ca735",
			"placeBid(uint256,uint256)": "57c90de5",
			"startAuction(uint256,uint256)": "4fee13fc",
			"submitProof(uint256,bytes32)": "2f19c56a"
		}
	},
	"abi": [
		{
			"inputs": [
				{
					"internalType": "address",
					"name": "_biddingToken",
					"type": "address"
				}
			],
			"stateMutability": "nonpayable",
			"type": "constructor"
		},
		{
			"anonymous": false,
			"inputs": [
				{
					"indexed": false,
					"internalType": "address",
					"name": "winner",
					"type": "address"
				},
				{
					"indexed": false,
					"internalType": "uint256",
					"name": "winningBid",
					"type": "uint256"
				},
				{
					"indexed": false,
					"internalType": "uint256",
					"name": "tokenId",
					"type": "uint256"
				}
			],
			"name": "AuctionEnded",
			"type": "event"
		},
		{
			"anonymous": false,
			"inputs": [
				{
					"indexed": false,
					"internalType": "uint256",
					"name": "startPrice",
					"type": "uint256"
				},
				{
					"indexed": false,
					"internalType": "uint256",
					"name": "endPrice",
					"type": "uint256"
				},
				{
					"indexed": false,
					"internalType": "uint256",
					"name": "startTime",
					"type": "uint256"
				},
				{
					"indexed": false,
					"internalType": "uint256",
					"name": "duration",
					"type": "uint256"
				}
			],
			"name": "AuctionStarted",
			"type": "event"
		},
		{
			"anonymous": false,
			"inputs": [
				{
					"indexed": false,
					"internalType": "address",
					"name": "bidder",
					"type": "address"
				},
				{
					"indexed": false,
					"internalType": "uint256",
					"name": "bidAmount",
					"type": "uint256"
				},
				{
					"indexed": false,
					"internalType": "uint256",
					"name": "tokenId",
					"type": "uint256"
				}
			],
			"name": "BidPlaced",
			"type": "event"
		},
		{
			"anonymous": false,
			"inputs": [
				{
					"indexed": false,
					"internalType": "uint256",
					"name": "tokenId",
					"type": "uint256"
				},
				{
					"indexed": false,
					"internalType": "uint256",
					"name": "amount",
					"type": "uint256"
				}
			],
			"name": "PaymentClaimed",
			"type": "event"
		},
		{
			"anonymous": false,
			"inputs": [
				{
					"indexed": false,
					"internalType": "uint256",
					"name": "tokenId",
					"type": "uint256"
				},
				{
					"indexed": false,
					"internalType": "bytes32",
					"name": "proofHash",
					"type": "bytes32"
				}
			],
			"name": "ProofSubmitted",
			"type": "event"
		},
		{
			"inputs": [],
			"name": "MINIMUM_BID_PERIOD",
			"outputs": [
				{
					"internalType": "uint256",
					"name": "",
					"type": "uint256"
				}
			],
			"stateMutability": "view",
			"type": "function"
		},
		{
			"inputs": [],
			"name": "biddingToken",
			"outputs": [
				{
					"internalType": "contract IERC20",
					"name": "",
					"type": "address"
				}
			],
			"stateMutability": "view",
			"type": "function"
		},
		{
			"inputs": [
				{
					"internalType": "address",
					"name": "_newOperator",
					"type": "address"
				}
			],
			"name": "changeOperator",
			"outputs": [],
			"stateMutability": "nonpayable",
			"type": "function"
		},
		{
			"inputs": [
				{
					"internalType": "uint256",
					"name": "_tokenId",
					"type": "uint256"
				}
			],
			"name": "claimPayment",
			"outputs": [],
			"stateMutability": "nonpayable",
			"type": "function"
		},
		{
			"inputs": [],
			"name": "currentAuction",
			"outputs": [
				{
					"internalType": "uint256",
					"name": "startPrice",
					"type": "uint256"
				},
				{
					"internalType": "uint256",
					"name": "endPrice",
					"type": "uint256"
				},
				{
					"internalType": "uint256",
					"name": "startTime",
					"type": "uint256"
				},
				{
					"internalType": "uint256",
					"name": "duration",
					"type": "uint256"
				},
				{
					"internalType": "address",
					"name": "winner",
					"type": "address"
				},
				{
					"internalType": "uint256",
					"name": "winningBid",
					"type": "uint256"
				},
				{
					"internalType": "uint256",
					"name": "winningTokenId",
					"type": "uint256"
				},
				{
					"internalType": "uint256",
					"name": "lastBidTime",
					"type": "uint256"
				},
				{
					"internalType": "bool",
					"name": "proofSubmitted",
					"type": "bool"
				},
				{
					"internalType": "bool",
					"name": "claimed",
					"type": "bool"
				},
				{
					"internalType": "bool",
					"name": "ended",
					"type": "bool"
				}
			],
			"stateMutability": "view",
			"type": "function"
		},
		{
			"inputs": [],
			"name": "getAuctionInfo",
			"outputs": [
				{
					"internalType": "uint256",
					"name": "startPrice",
					"type": "uint256"
				},
				{
					"internalType": "uint256",
					"name": "endPrice",
					"type": "uint256"
				},
				{
					"internalType": "uint256",
					"name": "startTime",
					"type": "uint256"
				},
				{
					"internalType": "uint256",
					"name": "duration",
					"type": "uint256"
				},
				{
					"internalType": "address",
					"name": "winner",
					"type": "address"
				},
				{
					"internalType": "uint256",
					"name": "winningBid",
					"type": "uint256"
				},
				{
					"internalType": "uint256",
					"name": "winningTokenId",
					"type": "uint256"
				},
				{
					"internalType": "bool",
					"name": "ended",
					"type": "bool"
				}
			],
			"stateMutability": "view",
			"type": "function"
		},
		{
			"inputs": [],
			"name": "getCurrentPrice",
			"outputs": [
				{
					"internalType": "uint256",
					"name": "",
					"type": "uint256"
				}
			],
			"stateMutability": "view",
			"type": "function"
		},
		{
			"inputs": [],
			"name": "operator",
			"outputs": [
				{
					"internalType": "address",
					"name": "",
					"type": "address"
				}
			],
			"stateMutability": "view",
			"type": "function"
		},
		{
			"inputs": [
				{
					"internalType": "uint256",
					"name": "_tokenId",
					"type": "uint256"
				},
				{
					"internalType": "uint256",
					"name": "_bidAmount",
					"type": "uint256"
				}
			],
			"name": "placeBid",
			"outputs": [],
			"stateMutability": "nonpayable",
			"type": "function"
		},
		{
			"inputs": [
				{
					"internalType": "uint256",
					"name": "_startPrice",
					"type": "uint256"
				},
				{
					"internalType": "uint256",
					"name": "_endPrice",
					"type": "uint256"
				}
			],
			"name": "startAuction",
			"outputs": [],
			"stateMutability": "nonpayable",
			"type": "function"
		},
		{
			"inputs": [
				{
					"internalType": "uint256",
					"name": "_tokenId",
					"type": "uint256"
				},
				{
					"internalType": "bytes32",
					"name": "_proofHash",
					"type": "bytes32"
				}
			],
			"name": "submitProof",
			"outputs": [],
			"stateMutability": "nonpayable",
			"type": "function"
		}
	]
}